{
	"data": {
		"bytecode": {
			"linkReferences": {},
			"object": "60806040523480156200001157600080fd5b506200001d3362000023565b62000073565b600080546001600160a01b038381166001600160a01b0319831681178455604051919092169283917f8be0079c531659141344cd1fd0a4f28419497f9722a3daafe3b4186f6b6457e09190a35050565b613a6c80620000836000396000f3fe60806040526004361061008a5760003560e01c80638da5cb5b116100595780638da5cb5b1461010d578063b14e9a721461013a578063d9caed121461015a578063f064b4141461017a578063f2fde38b146101a857600080fd5b80634782f77914610096578063715018a6146100b857806384800812146100cd57806389c33748146100ed57600080fd5b3661009157005b600080fd5b3480156100a257600080fd5b506100b66100b1366004613451565b6101c8565b005b3480156100c457600080fd5b506100b661031f565b3480156100d957600080fd5b506100b66100e83660046134be565b610355565b3480156100f957600080fd5b506100b6610108366004613417565b611676565b34801561011957600080fd5b506000546040516001600160a01b0390911681526020015b60405180910390f35b34801561014657600080fd5b506100b661015536600461368c565b6117da565b34801561016657600080fd5b506100b661017536600461347d565b611d36565b34801561018657600080fd5b5061019a610195366004613417565b611f31565b604051908152602001610131565b3480156101b457600080fd5b506100b66101c3366004613417565b611fc5565b6000546001600160a01b031633146101fb5760405162461bcd60e51b81526004016101f2906137e5565b60405180910390fd5b6001600160a01b0382166102515760405162461bcd60e51b815260206004820152601b60248201527f746f206d757374206e6f74206265207a65726f2061646472657373000000000060448201526064016101f2565b600081116102a15760405162461bcd60e51b815260206004820152601c60248201527f616d6f756e74206d75737420626967676572207468616e207a65726f0000000060448201526064016101f2565b6040516001600160a01b0383169082156108fc029083906000818181858888f193505050501580156102d7573d6000803e3d6000fd5b50816001600160a01b03167f566e45b1c8057e725bf62796a7f1d37ae294393cab069725a09daddd1af98b798260405161031391815260200190565b60405180910390a25050565b6000546001600160a01b031633146103495760405162461bcd60e51b81526004016101f2906137e5565b6103536000612060565b565b6103976040518060c001604052806000815260200160006001600160a01b03168152602001606081526020016060815260200160608152602001600081525090565b6103a3828401846135df565b60a08701526080860152606085015260408401526001600160a01b03166020830181905290825233146104005760405162461bcd60e51b815260206004820152600560248201526410b830b4b960d91b60448201526064016101f2565b6001600160a01b03861630146104425760405162461bcd60e51b815260206004820152600760248201526610b9b2b73232b960c91b60448201526064016101f2565b6000816080015160038151811061045b5761045b6139f5565b602002602001015190506000826080015160028151811061047e5761047e6139f5565b6020026020010151905060006126f78460a00151601961049e9190613977565b6104a89190613955565b8460a001516104b7919061393d565b6104c290600161393d565b9050600080600060608760000151600114156106d2576104ff88608001516000815181106104f2576104f26139f5565b60200260200101516120b0565b61053f5760405162461bcd60e51b81526020600482015260116024820152701896b737ba1039ba30b136329031b7b4b760791b60448201526064016101f2565b8760800151600181518110610556576105566139f5565b60200260200101516001600160a01b0316886080015160008151811061057e5761057e6139f5565b60200260200101516001600160a01b0316146105cf5760405162461bcd60e51b815260206004820152601060248201526f1896903737ba1039b0b6b29031b7b4b760811b60448201526064016101f2565b61063988608001516000815181106105e9576105e96139f5565b60200260200101518960800151600181518110610608576106086139f5565b60200260200101518a60800151600481518110610627576106276139f5565b60200260200101518b60a00151612125565b50809450506106858860800151600181518110610658576106586139f5565b60200260200101518960800151600281518110610677576106776139f5565b602002602001015186612537565b92508483116106c15760405162461bcd60e51b81526020600482015260086024820152676e6f20657874726160c01b60448201526064016101f2565b6106cb8584613996565b9150611571565b8751600214156109465761072088608001516000815181106106f6576106f66139f5565b60200260200101516001600160a01b031673a07c5b74c9b40447a954e1466938b865b6bbea361490565b156108c15760a0880151604051632e1a7d4d60e01b8152600481019190915273bb4cdb9cbd36b01bd1cbaebf2de08d9173bc095c90632e1a7d4d90602401600060405180830381600087803b15801561077857600080fd5b505af115801561078c573d6000803e3d6000fd5b505050506107aa88608001516000815181106105e9576105e96139f5565b50809450506107c98860800151600181518110610658576106586139f5565b92508483116108095760405162461bcd60e51b815260206004820152600c60248201526b322e312d6e6f2d657874726160a01b60448201526064016101f2565b73bb4cdb9cbd36b01bd1cbaebf2de08d9173bc095c6001600160a01b031663d0e30db0846040518263ffffffff1660e01b81526004016000604051808303818588803b15801561085857600080fd5b505af115801561086c573d6000803e3d6000fd5b50505050506000858461087f9190613996565b9050610890818a6060015130612826565b915081600183516108a19190613996565b815181106108b1576108b16139f5565b6020026020010151925050611571565b6108db88608001516000815181106105e9576105e96139f5565b50809450506108fa8860800151600181518110610658576106586139f5565b925084831161093a5760405162461bcd60e51b815260206004820152600c60248201526b322e322d6e6f2d657874726160a01b60448201526064016101f2565b600061087f8685613996565b875160031415610bbc5761096a88608001516001815181106104f2576104f26139f5565b6109c05760405162461bcd60e51b815260206004820152602160248201527f332d7365697a656420746f6b656e206973206e6f7420737461626c6520636f696044820152603760f91b60648201526084016101f2565b6109da88608001516000815181106106f6576106f66139f5565b15610b145760a0880151604051632e1a7d4d60e01b8152600481019190915273bb4cdb9cbd36b01bd1cbaebf2de08d9173bc095c90632e1a7d4d90602401600060405180830381600087803b158015610a3257600080fd5b505af1158015610a46573d6000803e3d6000fd5b50505050610a6488608001516000815181106105e9576105e96139f5565b5080945050610a838860800151600181518110610658576106586139f5565b9250610a948589604001513061296f565b905080600081518110610aa957610aa96139f5565b60200260200101518311610aee5760405162461bcd60e51b815260206004820152600c60248201526b332e312d6e6f2d657874726160a01b60448201526064016101f2565b80600081518110610b0157610b016139f5565b6020026020010151836106cb9190613996565b610b2e88608001516000815181106105e9576105e96139f5565b5080945050610b4d8860800151600181518110610658576106586139f5565b9250610b5e8589604001513061296f565b905080600081518110610b7357610b736139f5565b60200260200101518311610aee5760405162461bcd60e51b815260206004820152601060248201526f332e322d626e622d6e6f2d657874726160801b60448201526064016101f2565b875160041415610e2f57610be088608001516000815181106104f2576104f26139f5565b610c2c5760405162461bcd60e51b815260206004820152601f60248201527f342d7265706179546f6b656e206973206e6f7420737461626c6520636f696e0060448201526064016101f2565b610c4688608001516001815181106106f6576106f66139f5565b15610d7a57610c6588608001516000815181106105e9576105e96139f5565b5080945050610c848860800151600181518110610658576106586139f5565b925073bb4cdb9cbd36b01bd1cbaebf2de08d9173bc095c6001600160a01b031663d0e30db0846040518263ffffffff1660e01b81526004016000604051808303818588803b158015610cd557600080fd5b505af1158015610ce9573d6000803e3d6000fd5b5050505050610cfd83896040015130612826565b905060008160018351610d109190613996565b81518110610d2057610d206139f5565b60200260200101519050858111610d685760405162461bcd60e51b815260206004820152600c60248201526b342e312d6e6f20657874726160a01b60448201526064016101f2565b610d728682613996565b925050611571565b610d9488608001516000815181106105e9576105e96139f5565b5080945050610db38860800151600181518110610658576106586139f5565b9250610dc483896040015130612826565b905060008160018351610dd79190613996565b81518110610de757610de76139f5565b60200260200101519050858111610d685760405162461bcd60e51b815260206004820152600c60248201526b342e322d6e6f20657874726160a01b60448201526064016101f2565b87516005141561110457610e5388608001516000815181106106f6576106f66139f5565b15610f8f5760a0880151604051632e1a7d4d60e01b8152600481019190915273bb4cdb9cbd36b01bd1cbaebf2de08d9173bc095c90632e1a7d4d90602401600060405180830381600087803b158015610eab57600080fd5b505af1158015610ebf573d6000803e3d6000fd5b50505050610edd88608001516000815181106105e9576105e96139f5565b5080945050610efc8860800151600181518110610658576106586139f5565b9250610f0d8589604001513061296f565b905080600081518110610f2257610f226139f5565b60200260200101518311610f675760405162461bcd60e51b815260206004820152600c60248201526b352e312d6e6f20657874726160a01b60448201526064016101f2565b600081600081518110610f7c57610f7c6139f5565b60200260200101518461087f9190613996565b610fa988608001516001815181106106f6576106f66139f5565b1561106057610fc888608001516000815181106105e9576105e96139f5565b5080945050610fe78860800151600181518110610658576106586139f5565b925073bb4cdb9cbd36b01bd1cbaebf2de08d9173bc095c6001600160a01b031663d0e30db0846040518263ffffffff1660e01b81526004016000604051808303818588803b15801561103857600080fd5b505af115801561104c573d6000803e3d6000fd5b5050505050610f0d8589604001513061296f565b61107a88608001516000815181106105e9576105e96139f5565b50809450506110998860800151600181518110610658576106586139f5565b92506110aa8589604001513061296f565b9050806000815181106110bf576110bf6139f5565b60200260200101518311610f675760405162461bcd60e51b815260206004820152600c60248201526b352e332d6e6f20657874726160a01b60448201526064016101f2565b8751600614156112e45761112888608001516001815181106104f2576104f26139f5565b6111745760405162461bcd60e51b815260206004820181905260248201527f362d7365697a6564546f6b656e206973206e6f7420737461626c6520636f696e60448201526064016101f2565b60006111e08960800151600081518110611190576111906139f5565b60200260200101518a608001516001815181106111af576111af6139f5565b60200260200101518b608001516004815181106111ce576111ce6139f5565b60200260200101518c60a00151612125565b809250819650505061122f8960800151600181518110611202576112026139f5565b60200260200101518a60800151600281518110611221576112216139f5565b602002602001015187612537565b935060008960a001518288611244919061393d565b61124e9190613996565b905061125f818b604001513061296f565b5082600081518110611273576112736139f5565b602002602001015185116112b55760405162461bcd60e51b8152602060048201526009602482015268362d6e6f657874726160b81b60448201526064016101f2565b826000815181106112c8576112c86139f5565b6020026020010151856112db9190613996565b93505050611571565b8751600714156100915761130888608001516001815181106106f6576106f66139f5565b156114a95760006113298960800151600081518110611190576111906139f5565b809250819650505061134b8960800151600181518110611202576112026139f5565b935073bb4cdb9cbd36b01bd1cbaebf2de08d9173bc095c6001600160a01b031663d0e30db0856040518263ffffffff1660e01b81526004016000604051808303818588803b15801561139c57600080fd5b505af11580156113b0573d6000803e3d6000fd5b505050505060008960a0015182886113c8919061393d565b6113d29190613996565b90506113e3818b604001513061296f565b9250826000815181106113f8576113f86139f5565b6020026020010151851161143d5760405162461bcd60e51b815260206004820152600c60248201526b372e312d6e6f20657874726160a01b60448201526064016101f2565b600083600081518110611452576114526139f5565b6020026020010151866114659190613996565b9050611476818c6060015130612826565b935083600185516114879190613996565b81518110611497576114976139f5565b60200260200101519450505050611571565b60006114c58960800151600081518110611190576111906139f5565b80925081965050506114e78960800151600181518110611202576112026139f5565b935060008960a0015182886114fc919061393d565b6115069190613996565b9050611517818b604001513061296f565b92508260008151811061152c5761152c6139f5565b6020026020010151851161143d5760405162461bcd60e51b815260206004820152600c60248201526b372e322d6e6f20657874726160a01b60448201526064016101f2565b602088015160405163a9059cbb60e01b81526001600160a01b039182166004820152602481018790529088169063a9059cbb90604401602060405180830381600087803b1580156115c157600080fd5b505af11580156115d5573d6000803e3d6000fd5b505050506040513d601f19601f820116820180604052508101906115f99190613554565b50875160a0808a0151604080519384526001600160a01b03808c166020860152908401919091528816606083015260808201879052810184905260c081018390527fee80f069d389b1636bfe8a115ff1d8ad940b394b4d16bb19c8503003d14dd5b49060e00160405180910390a150505050505050505050505050565b6000546001600160a01b031633146116a05760405162461bcd60e51b81526004016101f2906137e5565b6000670de0b6b3a7640000905073bb4cdb9cbd36b01bd1cbaebf2de08d9173bc095c6001600160a01b031663d0e30db0826040518263ffffffff1660e01b81526004016000604051808303818588803b1580156116fc57600080fd5b505af1158015611710573d6000803e3d6000fd5b506000935060029250611721915050565b60405190808252806020026020018201604052801561174a578160200160208202803683370190505b50905073bb4cdb9cbd36b01bd1cbaebf2de08d9173bc095c81600081518110611775576117756139f5565b60200260200101906001600160a01b031690816001600160a01b03168152505082816001815181106117a9576117a96139f5565b60200260200101906001600160a01b031690816001600160a01b0316815250506117d4828230612826565b50505050565b600073fd36e2c2a6789db23113685031d7f16329158384635ec88c7985856004818110611809576118096139f5565b905060200201602081019061181e9190613417565b6040516001600160e01b031960e084901b1681526001600160a01b03909116600482015260240160606040518083038186803b15801561185d57600080fd5b505afa158015611871573d6000803e3d6000fd5b505050506040513d601f19601f82011682018060405250810190611895919061376e565b92505050600081116118f35760405162461bcd60e51b815260206004820152602160248201527f73686f727466616c6c206d7573742067726561746572207468616e207a6572206044820152600360fc1b60648201526084016101f2565b50600160008484600381811061190b5761190b6139f5565b90506020020160208101906119209190613417565b6001600160a01b03166001600160a01b03168152602001908152602001600020600084846000818110611955576119556139f5565b905060200201602081019061196a9190613417565b6001600160a01b0316815260208101919091526040016000205460ff16611b0b578282600381811061199e5761199e6139f5565b90506020020160208101906119b39190613417565b6001600160a01b031663095ea7b3848460008181106119d4576119d46139f5565b90506020020160208101906119e99190613417565b6040516001600160e01b031960e084901b1681526001600160a01b0390911660048201526000196024820152604401602060405180830381600087803b158015611a3257600080fd5b505af1158015611a46573d6000803e3d6000fd5b505050506040513d601f19601f82011682018060405250810190611a6a9190613554565b50600180600085856003818110611a8357611a836139f5565b9050602002016020810190611a989190613417565b6001600160a01b03166001600160a01b03168152602001908152602001600020600085856000818110611acd57611acd6139f5565b9050602002016020810190611ae29190613417565b6001600160a01b031681526020810191909152604001600020805460ff19169115159190911790555b6000886001600160a01b0316630dfe16816040518163ffffffff1660e01b815260040160206040518083038186803b158015611b4657600080fd5b505afa158015611b5a573d6000803e3d6000fd5b505050506040513d601f19601f82011682018060405250810190611b7e9190613434565b90506000896001600160a01b031663d21220a76040518163ffffffff1660e01b815260040160206040518083038186803b158015611bbb57600080fd5b505afa158015611bcf573d6000803e3d6000fd5b505050506040513d601f19601f82011682018060405250810190611bf39190613434565b90506000826001600160a01b031686866003818110611c1457611c146139f5565b9050602002016020810190611c299190613417565b6001600160a01b031614611c3e576000611c40565b835b90506000826001600160a01b031687876003818110611c6157611c616139f5565b9050602002016020810190611c769190613417565b6001600160a01b031614611c8b576000611c8d565b845b905060008d8d8d8d8d8d8d8d8d604051602001611cb299989796959493929190613860565b60408051601f198184030181529082905263022c0d9f60e01b825291506001600160a01b038e169063022c0d9f90611cf49086908690309087906004016138ca565b600060405180830381600087803b158015611d0e57600080fd5b505af1158015611d22573d6000803e3d6000fd5b505050505050505050505050505050505050565b6000546001600160a01b03163314611d605760405162461bcd60e51b81526004016101f2906137e5565b6001600160a01b038316611db65760405162461bcd60e51b815260206004820152601e60248201527f746f6b656e206d757374206e6f74206265207a65726f2061646472657373000060448201526064016101f2565b6001600160a01b038216611e0c5760405162461bcd60e51b815260206004820152601b60248201527f746f206d757374206e6f74206265207a65726f2061646472657373000000000060448201526064016101f2565b60008111611e5c5760405162461bcd60e51b815260206004820152601c60248201527f616d6f756e74206d75737420626967676572207468616e207a65726f0000000060448201526064016101f2565b60405163a9059cbb60e01b81526001600160a01b0383811660048301526024820183905284169063a9059cbb90604401602060405180830381600087803b158015611ea657600080fd5b505af1158015611eba573d6000803e3d6000fd5b505050506040513d601f19601f82011682018060405250810190611ede9190613554565b50816001600160a01b0316836001600160a01b03167f9b1bfa7fa9ee420a16e124f794c35ac9f90472acc99140eb2f6447c714cad8eb83604051611f2491815260200190565b60405180910390a3505050565b6040516315e3f14f60e11b81526001600160a01b038216600482015260009073fd36e2c2a6789db23113685031d7f1632915838490632bc7e29e9060240160206040518083038186803b158015611f8757600080fd5b505afa158015611f9b573d6000803e3d6000fd5b505050506040513d601f19601f82011682018060405250810190611fbf91906135c6565b92915050565b6000546001600160a01b03163314611fef5760405162461bcd60e51b81526004016101f2906137e5565b6001600160a01b0381166120545760405162461bcd60e51b815260206004820152602660248201527f4f776e61626c653a206e6577206f776e657220697320746865207a65726f206160448201526564647265737360d01b60648201526084016101f2565b61205d81612060565b50565b600080546001600160a01b038381166001600160a01b0319831681178455604051919092169283917f8be0079c531659141344cd1fd0a4f28419497f9722a3daafe3b4186f6b6457e09190a35050565b60006001600160a01b0382167395c78222b3d6e262426483d42cfa53685a67ab9d14806120f957506001600160a01b03821673fd5840cd36d94d7229439859c0112a4185bc0255145b80611fbf57506001600160a01b03821673334b3ecb4dca3593bccc3c7ebd1a1c1d1780fbf11492915050565b6040516370a0823160e01b8152306004820152600090819085908290819081906001600160a01b038516906370a082319060240160206040518083038186803b15801561217157600080fd5b505afa158015612185573d6000803e3d6000fd5b505050506040513d601f19601f820116820180604052508101906121a991906135c6565b905073a07c5b74c9b40447a954e1466938b865b6bbea366001600160a01b038b16141561223a57604051635572051560e11b81526001600160a01b0389811660048301528a811660248301528b169063aae40a2a9089906044016000604051808303818588803b15801561221c57600080fd5b505af1158015612230573d6000803e3d6000fd5b505050505061240b565b724065d34c6b18ce4370ced1cebde94865dbfafe6001600160a01b038b161415612337576040516311b3d5e760e01b81526001600160a01b0389811660048301526024820189905285811660448301528b16906311b3d5e7906064016040805180830381600087803b1580156122af57600080fd5b505af11580156122c3573d6000803e3d6000fd5b505050506040513d601f19601f820116820180604052508101906122e7919061374a565b909350915082156123325760405162461bcd60e51b81526020600482015260156024820152743634b8bab4b230ba32a137b93937bb9032b93937b960591b60448201526064016101f2565b61240b565b604051637af1e23160e11b81526001600160a01b0389811660048301526024820189905285811660448301528b919082169063f5e3c46290606401602060405180830381600087803b15801561238c57600080fd5b505af11580156123a0573d6000803e3d6000fd5b505050506040513d601f19601f820116820180604052508101906123c491906135c6565b156124095760405162461bcd60e51b81526020600482015260156024820152743634b8bab4b230ba32a137b93937bb9032b93937b960591b60448201526064016101f2565b505b6040516370a0823160e01b81523060048201526000906001600160a01b038616906370a082319060240160206040518083038186803b15801561244d57600080fd5b505afa158015612461573d6000803e3d6000fd5b505050506040513d601f19601f8201168201806040525081019061248591906135c6565b905060006124938383613996565b9050600081116124e55760405162461bcd60e51b815260206004820152601c60248201527f7365697a65642056546f6b656e20616d6f756e74206973207a65726f0000000060448201526064016101f2565b604080518a8152602081018690529081018290527ffde0eb536fecee7fca644722fc2e6255ee0571307ab7f46f7fea23fe302d44799060600160405180910390a19b929a509198505050505050505050565b600080808073a07c5b74c9b40447a954e1466938b865b6bbea366001600160a01b03881614156126245760405163db006a7560e01b8152600481018690524793506001600160a01b0388169063db006a7590602401602060405180830381600087803b1580156125a657600080fd5b505af11580156125ba573d6000803e3d6000fd5b505050506040513d601f19601f820116820180604052508101906125de91906135c6565b1561261c5760405162461bcd60e51b815260206004820152600e60248201526d3932b232b2b6902127211032b93960911b60448201526064016101f2565b4791506127d4565b6040516370a0823160e01b8152306004820152879087906001600160a01b038216906370a082319060240160206040518083038186803b15801561266757600080fd5b505afa15801561267b573d6000803e3d6000fd5b505050506040513d601f19601f8201168201806040525081019061269f91906135c6565b60405163db006a7560e01b8152600481018990529095506001600160a01b0383169063db006a7590602401602060405180830381600087803b1580156126e457600080fd5b505af11580156126f8573d6000803e3d6000fd5b505050506040513d601f19601f8201168201806040525081019061271c91906135c6565b156127585760405162461bcd60e51b815260206004820152600c60248201526b3932b232b2b69032b93937b960a11b60448201526064016101f2565b6040516370a0823160e01b81523060048201526001600160a01b038216906370a082319060240160206040518083038186803b15801561279757600080fd5b505afa1580156127ab573d6000803e3d6000fd5b505050506040513d601f19601f820116820180604052508101906127cf91906135c6565b935050505b6127de8383613996565b60408051878152602081018390529192507f2a500c424b9e55ca96ef57f09281232662a42069de49730505b2bbd019412dcf910160405180910390a1925050505b9392505050565b606061284773ca143ce32fe78f1f7019d7d551a6402fc5350c738585612990565b90508260008151811061285c5761285c6139f5565b60200260200101516001600160a01b031663a9059cbb6128c573ca143ce32fe78f1f7019d7d551a6402fc5350c738660008151811061289d5761289d6139f5565b6020026020010151876001815181106128b8576128b86139f5565b6020026020010151612b1b565b836000815181106128d8576128d86139f5565b60200260200101516040518363ffffffff1660e01b81526004016129119291906001600160a01b03929092168252602082015260400190565b602060405180830381600087803b15801561292b57600080fd5b505af115801561293f573d6000803e3d6000fd5b505050506040513d601f19601f820116820180604052508101906129639190613554565b5061281f818484612bf3565b606061284773ca143ce32fe78f1f7019d7d551a6402fc5350c738585612dd0565b60606002825110156129e45760405162461bcd60e51b815260206004820152601c60248201527f50616e63616b654c6962726172793a20494e56414c49445f504154480000000060448201526064016101f2565b815167ffffffffffffffff8111156129fe576129fe613a0b565b604051908082528060200260200182016040528015612a27578160200160208202803683370190505b5090508281600081518110612a3e57612a3e6139f5565b60200260200101818152505060005b60018351612a5b9190613996565b811015612b1357600080612aae87868581518110612a7b57612a7b6139f5565b602002602001015187866001612a91919061393d565b81518110612aa157612aa16139f5565b6020026020010151612f51565b91509150612ad6848481518110612ac757612ac76139f5565b60200260200101518383613036565b84612ae285600161393d565b81518110612af257612af26139f5565b60200260200101818152505050508080612b0b906139c4565b915050612a4d565b509392505050565b6000806000612b2a8585613112565b6040516bffffffffffffffffffffffff19606084811b8216602084015283901b1660348201529193509150869060480160405160208183030381529060405280519060200120604051602001612bd19291906001600160f81b0319815260609290921b6bffffffffffffffffffffffff1916600183015260158201527efb7f630766e6a796048ea87d01acd3068e8ff67d078148a3fa3f4a84f69bd5603582015260550190565b60408051601f1981840301815291905280516020909101209695505050505050565b60005b60018351612c049190613996565b8110156117d457600080848381518110612c2057612c206139f5565b602002602001015185846001612c36919061393d565b81518110612c4657612c466139f5565b6020026020010151915091506000612c5e8383613112565b509050600087612c6f86600161393d565b81518110612c7f57612c7f6139f5565b60200260200101519050600080836001600160a01b0316866001600160a01b031614612cad57826000612cb1565b6000835b91509150600060028a51612cc59190613996565b8810612cd15788612d06565b612d0673ca143ce32fe78f1f7019d7d551a6402fc5350c73878c612cf68c600261393d565b815181106128b8576128b86139f5565b9050612d2773ca143ce32fe78f1f7019d7d551a6402fc5350c738888612b1b565b6001600160a01b031663022c0d9f84848460006040519080825280601f01601f191660200182016040528015612d64576020820181803683370190505b506040518563ffffffff1660e01b8152600401612d8494939291906138ca565b600060405180830381600087803b158015612d9e57600080fd5b505af1158015612db2573d6000803e3d6000fd5b50505050505050505050508080612dc8906139c4565b915050612bf6565b6060600282511015612e245760405162461bcd60e51b815260206004820152601c60248201527f50616e63616b654c6962726172793a20494e56414c49445f504154480000000060448201526064016101f2565b815167ffffffffffffffff811115612e3e57612e3e613a0b565b604051908082528060200260200182016040528015612e67578160200160208202803683370190505b509050828160018351612e7a9190613996565b81518110612e8a57612e8a6139f5565b602002602001018181525050600060018351612ea69190613996565b90505b8015612b1357600080612eec8786612ec2600187613996565b81518110612ed257612ed26139f5565b6020026020010151878681518110612aa157612aa16139f5565b91509150612f14848481518110612f0557612f056139f5565b60200260200101518383613208565b84612f20600186613996565b81518110612f3057612f306139f5565b60200260200101818152505050508080612f49906139ad565b915050612ea9565b6000806000612f608585613112565b509050612f6e868686612b1b565b50600080612f7d888888612b1b565b6001600160a01b0316630902f1ac6040518163ffffffff1660e01b815260040160606040518083038186803b158015612fb557600080fd5b505afa158015612fc9573d6000803e3d6000fd5b505050506040513d601f19601f82011682018060405250810190612fed9190613576565b506001600160701b031691506001600160701b03169150826001600160a01b0316876001600160a01b031614613024578082613027565b81815b90999098509650505050505050565b60008084116130995760405162461bcd60e51b815260206004820152602960248201527f50616e63616b654c6962726172793a20494e53554646494349454e545f494e50604482015268155517d05353d5539560ba1b60648201526084016101f2565b6000831180156130a95750600082115b6130c55760405162461bcd60e51b81526004016101f29061381a565b60006130d3856126f76132df565b905060006130e182856132df565b905060006130fb836130f5886127106132df565b906132eb565b90506131078183613955565b979650505050505050565b600080826001600160a01b0316846001600160a01b031614156131835760405162461bcd60e51b815260206004820152602360248201527f50616e63616b654c6962726172793a204944454e544943414c5f41444452455360448201526253455360e81b60648201526084016101f2565b826001600160a01b0316846001600160a01b0316106131a35782846131a6565b83835b90925090506001600160a01b0382166132015760405162461bcd60e51b815260206004820152601c60248201527f50616e63616b654c6962726172793a205a45524f5f414444524553530000000060448201526064016101f2565b9250929050565b600080841161326c5760405162461bcd60e51b815260206004820152602a60248201527f50616e63616b654c6962726172793a20494e53554646494349454e545f4f555460448201526914155517d05353d5539560b21b60648201526084016101f2565b60008311801561327c5750600082115b6132985760405162461bcd60e51b81526004016101f29061381a565b60006132b06127106132aa86886132df565b906132df565b905060006132c46126f76132aa86896132f7565b90506132d560016130f58385613955565b9695505050505050565b600061281f8284613977565b600061281f828461393d565b600061281f8284613996565b803561330e81613a21565b919050565b60008083601f84011261332557600080fd5b50813567ffffffffffffffff81111561333d57600080fd5b6020830191508360208260051b850101111561320157600080fd5b600082601f83011261336957600080fd5b8135602067ffffffffffffffff8083111561338657613386613a0b565b8260051b604051601f19603f830116810181811084821117156133ab576133ab613a0b565b604052848152838101925086840182880185018910156133ca57600080fd5b600092505b858310156133f4576133e081613303565b8452928401926001929092019184016133cf565b50979650505050505050565b80516001600160701b038116811461330e57600080fd5b60006020828403121561342957600080fd5b813561281f81613a21565b60006020828403121561344657600080fd5b815161281f81613a21565b6000806040838503121561346457600080fd5b823561346f81613a21565b946020939093013593505050565b60008060006060848603121561349257600080fd5b833561349d81613a21565b925060208401356134ad81613a21565b929592945050506040919091013590565b6000806000806000608086880312156134d657600080fd5b85356134e181613a21565b94506020860135935060408601359250606086013567ffffffffffffffff8082111561350c57600080fd5b818801915088601f83011261352057600080fd5b81358181111561352f57600080fd5b89602082850101111561354157600080fd5b9699959850939650602001949392505050565b60006020828403121561356657600080fd5b8151801515811461281f57600080fd5b60008060006060848603121561358b57600080fd5b61359484613400565b92506135a260208501613400565b9150604084015163ffffffff811681146135bb57600080fd5b809150509250925092565b6000602082840312156135d857600080fd5b5051919050565b60008060008060008060c087890312156135f857600080fd5b86359550602087013561360a81613a21565b9450604087013567ffffffffffffffff8082111561362757600080fd5b6136338a838b01613358565b9550606089013591508082111561364957600080fd5b6136558a838b01613358565b9450608089013591508082111561366b57600080fd5b5061367889828a01613358565b92505060a087013590509295509295509295565b600080600080600080600080600060c08a8c0312156136aa57600080fd5b8935985060208a01356136bc81613a21565b975060408a013567ffffffffffffffff808211156136d957600080fd5b6136e58d838e01613313565b909950975060608c01359150808211156136fe57600080fd5b61370a8d838e01613313565b909750955060808c013591508082111561372357600080fd5b506137308c828d01613313565b9a9d999c50979a9699959894979660a00135949350505050565b6000806040838503121561375d57600080fd5b505080516020909101519092909150565b60008060006060848603121561378357600080fd5b8351925060208401519150604084015190509250925092565b8183526000602080850194508260005b858110156137da5781356137bf81613a21565b6001600160a01b0316875295820195908201906001016137ac565b509495945050505050565b6020808252818101527f4f776e61626c653a2063616c6c6572206973206e6f7420746865206f776e6572604082015260600190565b60208082526026908201527f50616e63616b654c6962726172793a20494e53554646494349454e545f4c495160408201526555494449545960d01b606082015260800190565b8981526001600160a01b038916602082015260c06040820181905260009061388b908301898b61379c565b828103606084015261389e81888a61379c565b905082810360808401526138b381868861379c565b9150508260a08301529a9950505050505050505050565b84815260006020858184015260018060a01b038516604084015260806060840152835180608085015260005b818110156139125785810183015185820160a0015282016138f6565b8181111561392457600060a083870101525b50601f01601f19169290920160a0019695505050505050565b60008219821115613950576139506139df565b500190565b60008261397257634e487b7160e01b600052601260045260246000fd5b500490565b6000816000190483118215151615613991576139916139df565b500290565b6000828210156139a8576139a86139df565b500390565b6000816139bc576139bc6139df565b506000190190565b60006000198214156139d8576139d86139df565b5060010190565b634e487b7160e01b600052601160045260246000fd5b634e487b7160e01b600052603260045260246000fd5b634e487b7160e01b600052604160045260246000fd5b6001600160a01b038116811461205d57600080fdfea2646970667358221220c71167216379d2dcb50dc0e1987244a614d8253f5a4c732308199556ea039c5264736f6c63430008070033",
			"opcodes": "PUSH1 0x80 PUSH1 0x40 MSTORE CALLVALUE DUP1 ISZERO PUSH3 0x11 JUMPI PUSH1 0x0 DUP1 REVERT JUMPDEST POP PUSH3 0x1D CALLER PUSH3 0x23 JUMP JUMPDEST PUSH3 0x73 JUMP JUMPDEST PUSH1 0x0 DUP1 SLOAD PUSH1 0x1 PUSH1 0x1 PUSH1 0xA0 SHL SUB DUP4 DUP2 AND PUSH1 0x1 PUSH1 0x1 PUSH1 0xA0 SHL SUB NOT DUP4 AND DUP2 OR DUP5 SSTORE PUSH1 0x40 MLOAD SWAP2 SWAP1 SWAP3 AND SWAP3 DUP4 SWAP2 PUSH32 0x8BE0079C531659141344CD1FD0A4F28419497F9722A3DAAFE3B4186F6B6457E0 SWAP2 SWAP1 LOG3 POP POP JUMP JUMPDEST PUSH2 0x3A6C DUP1 PUSH3 0x83 PUSH1 0x0 CODECOPY PUSH1 0x0 RETURN INVALID PUSH1 0x80 PUSH1 0x40 MSTORE PUSH1 0x4 CALLDATASIZE LT PUSH2 0x8A JUMPI PUSH1 0x0 CALLDATALOAD PUSH1 0xE0 SHR DUP1 PUSH4 0x8DA5CB5B GT PUSH2 0x59 JUMPI DUP1 PUSH4 0x8DA5CB5B EQ PUSH2 0x10D JUMPI DUP1 PUSH4 0xB14E9A72 EQ PUSH2 0x13A JUMPI DUP1 PUSH4 0xD9CAED12 EQ PUSH2 0x15A JUMPI DUP1 PUSH4 0xF064B414 EQ PUSH2 0x17A JUMPI DUP1 PUSH4 0xF2FDE38B EQ PUSH2 0x1A8 JUMPI PUSH1 0x0 DUP1 REVERT JUMPDEST DUP1 PUSH4 0x4782F779 EQ PUSH2 0x96 JUMPI DUP1 PUSH4 0x715018A6 EQ PUSH2 0xB8 JUMPI DUP1 PUSH4 0x84800812 EQ PUSH2 0xCD JUMPI DUP1 PUSH4 0x89C33748 EQ PUSH2 0xED JUMPI PUSH1 0x0 DUP1 REVERT JUMPDEST CALLDATASIZE PUSH2 0x91 JUMPI STOP JUMPDEST PUSH1 0x0 DUP1 REVERT JUMPDEST CALLVALUE DUP1 ISZERO PUSH2 0xA2 JUMPI PUSH1 0x0 DUP1 REVERT JUMPDEST POP PUSH2 0xB6 PUSH2 0xB1 CALLDATASIZE PUSH1 0x4 PUSH2 0x3451 JUMP JUMPDEST PUSH2 0x1C8 JUMP JUMPDEST STOP JUMPDEST CALLVALUE DUP1 ISZERO PUSH2 0xC4 JUMPI PUSH1 0x0 DUP1 REVERT JUMPDEST POP PUSH2 0xB6 PUSH2 0x31F JUMP JUMPDEST CALLVALUE DUP1 ISZERO PUSH2 0xD9 JUMPI PUSH1 0x0 DUP1 REVERT JUMPDEST POP PUSH2 0xB6 PUSH2 0xE8 CALLDATASIZE PUSH1 0x4 PUSH2 0x34BE JUMP JUMPDEST PUSH2 0x355 JUMP JUMPDEST CALLVALUE DUP1 ISZERO PUSH2 0xF9 JUMPI PUSH1 0x0 DUP1 REVERT JUMPDEST POP PUSH2 0xB6 PUSH2 0x108 CALLDATASIZE PUSH1 0x4 PUSH2 0x3417 JUMP JUMPDEST PUSH2 0x1676 JUMP JUMPDEST CALLVALUE DUP1 ISZERO PUSH2 0x119 JUMPI PUSH1 0x0 DUP1 REVERT JUMPDEST POP PUSH1 0x0 SLOAD PUSH1 0x40 MLOAD PUSH1 0x1 PUSH1 0x1 PUSH1 0xA0 SHL SUB SWAP1 SWAP2 AND DUP2 MSTORE PUSH1 0x20 ADD JUMPDEST PUSH1 0x40 MLOAD DUP1 SWAP2 SUB SWAP1 RETURN JUMPDEST CALLVALUE DUP1 ISZERO PUSH2 0x146 JUMPI PUSH1 0x0 DUP1 REVERT JUMPDEST POP PUSH2 0xB6 PUSH2 0x155 CALLDATASIZE PUSH1 0x4 PUSH2 0x368C JUMP JUMPDEST PUSH2 0x17DA JUMP JUMPDEST CALLVALUE DUP1 ISZERO PUSH2 0x166 JUMPI PUSH1 0x0 DUP1 REVERT JUMPDEST POP PUSH2 0xB6 PUSH2 0x175 CALLDATASIZE PUSH1 0x4 PUSH2 0x347D JUMP JUMPDEST PUSH2 0x1D36 JUMP JUMPDEST CALLVALUE DUP1 ISZERO PUSH2 0x186 JUMPI PUSH1 0x0 DUP1 REVERT JUMPDEST POP PUSH2 0x19A PUSH2 0x195 CALLDATASIZE PUSH1 0x4 PUSH2 0x3417 JUMP JUMPDEST PUSH2 0x1F31 JUMP JUMPDEST PUSH1 0x40 MLOAD SWAP1 DUP2 MSTORE PUSH1 0x20 ADD PUSH2 0x131 JUMP JUMPDEST CALLVALUE DUP1 ISZERO PUSH2 0x1B4 JUMPI PUSH1 0x0 DUP1 REVERT JUMPDEST POP PUSH2 0xB6 PUSH2 0x1C3 CALLDATASIZE PUSH1 0x4 PUSH2 0x3417 JUMP JUMPDEST PUSH2 0x1FC5 JUMP JUMPDEST PUSH1 0x0 SLOAD PUSH1 0x1 PUSH1 0x1 PUSH1 0xA0 SHL SUB AND CALLER EQ PUSH2 0x1FB JUMPI PUSH1 0x40 MLOAD PUSH3 0x461BCD PUSH1 0xE5 SHL DUP2 MSTORE PUSH1 0x4 ADD PUSH2 0x1F2 SWAP1 PUSH2 0x37E5 JUMP JUMPDEST PUSH1 0x40 MLOAD DUP1 SWAP2 SUB SWAP1 REVERT JUMPDEST PUSH1 0x1 PUSH1 0x1 PUSH1 0xA0 SHL SUB DUP3 AND PUSH2 0x251 JUMPI PUSH1 0x40 MLOAD PUSH3 0x461BCD PUSH1 0xE5 SHL DUP2 MSTORE PUSH1 0x20 PUSH1 0x4 DUP3 ADD MSTORE PUSH1 0x1B PUSH1 0x24 DUP3 ADD MSTORE PUSH32 0x746F206D757374206E6F74206265207A65726F20616464726573730000000000 PUSH1 0x44 DUP3 ADD MSTORE PUSH1 0x64 ADD PUSH2 0x1F2 JUMP JUMPDEST PUSH1 0x0 DUP2 GT PUSH2 0x2A1 JUMPI PUSH1 0x40 MLOAD PUSH3 0x461BCD PUSH1 0xE5 SHL DUP2 MSTORE PUSH1 0x20 PUSH1 0x4 DUP3 ADD MSTORE PUSH1 0x1C PUSH1 0x24 DUP3 ADD MSTORE PUSH32 0x616D6F756E74206D75737420626967676572207468616E207A65726F00000000 PUSH1 0x44 DUP3 ADD MSTORE PUSH1 0x64 ADD PUSH2 0x1F2 JUMP JUMPDEST PUSH1 0x40 MLOAD PUSH1 0x1 PUSH1 0x1 PUSH1 0xA0 SHL SUB DUP4 AND SWAP1 DUP3 ISZERO PUSH2 0x8FC MUL SWAP1 DUP4 SWAP1 PUSH1 0x0 DUP2 DUP2 DUP2 DUP6 DUP9 DUP9 CALL SWAP4 POP POP POP POP ISZERO DUP1 ISZERO PUSH2 0x2D7 JUMPI RETURNDATASIZE PUSH1 0x0 DUP1 RETURNDATACOPY RETURNDATASIZE PUSH1 0x0 REVERT JUMPDEST POP DUP2 PUSH1 0x1 PUSH1 0x1 PUSH1 0xA0 SHL SUB AND PUSH32 0x566E45B1C8057E725BF62796A7F1D37AE294393CAB069725A09DADDD1AF98B79 DUP3 PUSH1 0x40 MLOAD PUSH2 0x313 SWAP2 DUP2 MSTORE PUSH1 0x20 ADD SWAP1 JUMP JUMPDEST PUSH1 0x40 MLOAD DUP1 SWAP2 SUB SWAP1 LOG2 POP POP JUMP JUMPDEST PUSH1 0x0 SLOAD PUSH1 0x1 PUSH1 0x1 PUSH1 0xA0 SHL SUB AND CALLER EQ PUSH2 0x349 JUMPI PUSH1 0x40 MLOAD PUSH3 0x461BCD PUSH1 0xE5 SHL DUP2 MSTORE PUSH1 0x4 ADD PUSH2 0x1F2 SWAP1 PUSH2 0x37E5 JUMP JUMPDEST PUSH2 0x353 PUSH1 0x0 PUSH2 0x2060 JUMP JUMPDEST JUMP JUMPDEST PUSH2 0x397 PUSH1 0x40 MLOAD DUP1 PUSH1 0xC0 ADD PUSH1 0x40 MSTORE DUP1 PUSH1 0x0 DUP2 MSTORE PUSH1 0x20 ADD PUSH1 0x0 PUSH1 0x1 PUSH1 0x1 PUSH1 0xA0 SHL SUB AND DUP2 MSTORE PUSH1 0x20 ADD PUSH1 0x60 DUP2 MSTORE PUSH1 0x20 ADD PUSH1 0x60 DUP2 MSTORE PUSH1 0x20 ADD PUSH1 0x60 DUP2 MSTORE PUSH1 0x20 ADD PUSH1 0x0 DUP2 MSTORE POP SWAP1 JUMP JUMPDEST PUSH2 0x3A3 DUP3 DUP5 ADD DUP5 PUSH2 0x35DF JUMP JUMPDEST PUSH1 0xA0 DUP8 ADD MSTORE PUSH1 0x80 DUP7 ADD MSTORE PUSH1 0x60 DUP6 ADD MSTORE PUSH1 0x40 DUP5 ADD MSTORE PUSH1 0x1 PUSH1 0x1 PUSH1 0xA0 SHL SUB AND PUSH1 0x20 DUP4 ADD DUP2 SWAP1 MSTORE SWAP1 DUP3 MSTORE CALLER EQ PUSH2 0x400 JUMPI PUSH1 0x40 MLOAD PUSH3 0x461BCD PUSH1 0xE5 SHL DUP2 MSTORE PUSH1 0x20 PUSH1 0x4 DUP3 ADD MSTORE PUSH1 0x5 PUSH1 0x24 DUP3 ADD MSTORE PUSH5 0x10B830B4B9 PUSH1 0xD9 SHL PUSH1 0x44 DUP3 ADD MSTORE PUSH1 0x64 ADD PUSH2 0x1F2 JUMP JUMPDEST PUSH1 0x1 PUSH1 0x1 PUSH1 0xA0 SHL SUB DUP7 AND ADDRESS EQ PUSH2 0x442 JUMPI PUSH1 0x40 MLOAD PUSH3 0x461BCD PUSH1 0xE5 SHL DUP2 MSTORE PUSH1 0x20 PUSH1 0x4 DUP3 ADD MSTORE PUSH1 0x7 PUSH1 0x24 DUP3 ADD MSTORE PUSH7 0x10B9B2B73232B9 PUSH1 0xC9 SHL PUSH1 0x44 DUP3 ADD MSTORE PUSH1 0x64 ADD PUSH2 0x1F2 JUMP JUMPDEST PUSH1 0x0 DUP2 PUSH1 0x80 ADD MLOAD PUSH1 0x3 DUP2 MLOAD DUP2 LT PUSH2 0x45B JUMPI PUSH2 0x45B PUSH2 0x39F5 JUMP JUMPDEST PUSH1 0x20 MUL PUSH1 0x20 ADD ADD MLOAD SWAP1 POP PUSH1 0x0 DUP3 PUSH1 0x80 ADD MLOAD PUSH1 0x2 DUP2 MLOAD DUP2 LT PUSH2 0x47E JUMPI PUSH2 0x47E PUSH2 0x39F5 JUMP JUMPDEST PUSH1 0x20 MUL PUSH1 0x20 ADD ADD MLOAD SWAP1 POP PUSH1 0x0 PUSH2 0x26F7 DUP5 PUSH1 0xA0 ADD MLOAD PUSH1 0x19 PUSH2 0x49E SWAP2 SWAP1 PUSH2 0x3977 JUMP JUMPDEST PUSH2 0x4A8 SWAP2 SWAP1 PUSH2 0x3955 JUMP JUMPDEST DUP5 PUSH1 0xA0 ADD MLOAD PUSH2 0x4B7 SWAP2 SWAP1 PUSH2 0x393D JUMP JUMPDEST PUSH2 0x4C2 SWAP1 PUSH1 0x1 PUSH2 0x393D JUMP JUMPDEST SWAP1 POP PUSH1 0x0 DUP1 PUSH1 0x0 PUSH1 0x60 DUP8 PUSH1 0x0 ADD MLOAD PUSH1 0x1 EQ ISZERO PUSH2 0x6D2 JUMPI PUSH2 0x4FF DUP9 PUSH1 0x80 ADD MLOAD PUSH1 0x0 DUP2 MLOAD DUP2 LT PUSH2 0x4F2 JUMPI PUSH2 0x4F2 PUSH2 0x39F5 JUMP JUMPDEST PUSH1 0x20 MUL PUSH1 0x20 ADD ADD MLOAD PUSH2 0x20B0 JUMP JUMPDEST PUSH2 0x53F JUMPI PUSH1 0x40 MLOAD PUSH3 0x461BCD PUSH1 0xE5 SHL DUP2 MSTORE PUSH1 0x20 PUSH1 0x4 DUP3 ADD MSTORE PUSH1 0x11 PUSH1 0x24 DUP3 ADD MSTORE PUSH17 0x1896B737BA1039BA30B136329031B7B4B7 PUSH1 0x79 SHL PUSH1 0x44 DUP3 ADD MSTORE PUSH1 0x64 ADD PUSH2 0x1F2 JUMP JUMPDEST DUP8 PUSH1 0x80 ADD MLOAD PUSH1 0x1 DUP2 MLOAD DUP2 LT PUSH2 0x556 JUMPI PUSH2 0x556 PUSH2 0x39F5 JUMP JUMPDEST PUSH1 0x20 MUL PUSH1 0x20 ADD ADD MLOAD PUSH1 0x1 PUSH1 0x1 PUSH1 0xA0 SHL SUB AND DUP9 PUSH1 0x80 ADD MLOAD PUSH1 0x0 DUP2 MLOAD DUP2 LT PUSH2 0x57E JUMPI PUSH2 0x57E PUSH2 0x39F5 JUMP JUMPDEST PUSH1 0x20 MUL PUSH1 0x20 ADD ADD MLOAD PUSH1 0x1 PUSH1 0x1 PUSH1 0xA0 SHL SUB AND EQ PUSH2 0x5CF JUMPI PUSH1 0x40 MLOAD PUSH3 0x461BCD PUSH1 0xE5 SHL DUP2 MSTORE PUSH1 0x20 PUSH1 0x4 DUP3 ADD MSTORE PUSH1 0x10 PUSH1 0x24 DUP3 ADD MSTORE PUSH16 0x1896903737BA1039B0B6B29031B7B4B7 PUSH1 0x81 SHL PUSH1 0x44 DUP3 ADD MSTORE PUSH1 0x64 ADD PUSH2 0x1F2 JUMP JUMPDEST PUSH2 0x639 DUP9 PUSH1 0x80 ADD MLOAD PUSH1 0x0 DUP2 MLOAD DUP2 LT PUSH2 0x5E9 JUMPI PUSH2 0x5E9 PUSH2 0x39F5 JUMP JUMPDEST PUSH1 0x20 MUL PUSH1 0x20 ADD ADD MLOAD DUP10 PUSH1 0x80 ADD MLOAD PUSH1 0x1 DUP2 MLOAD DUP2 LT PUSH2 0x608 JUMPI PUSH2 0x608 PUSH2 0x39F5 JUMP JUMPDEST PUSH1 0x20 MUL PUSH1 0x20 ADD ADD MLOAD DUP11 PUSH1 0x80 ADD MLOAD PUSH1 0x4 DUP2 MLOAD DUP2 LT PUSH2 0x627 JUMPI PUSH2 0x627 PUSH2 0x39F5 JUMP JUMPDEST PUSH1 0x20 MUL PUSH1 0x20 ADD ADD MLOAD DUP12 PUSH1 0xA0 ADD MLOAD PUSH2 0x2125 JUMP JUMPDEST POP DUP1 SWAP5 POP POP PUSH2 0x685 DUP9 PUSH1 0x80 ADD MLOAD PUSH1 0x1 DUP2 MLOAD DUP2 LT PUSH2 0x658 JUMPI PUSH2 0x658 PUSH2 0x39F5 JUMP JUMPDEST PUSH1 0x20 MUL PUSH1 0x20 ADD ADD MLOAD DUP10 PUSH1 0x80 ADD MLOAD PUSH1 0x2 DUP2 MLOAD DUP2 LT PUSH2 0x677 JUMPI PUSH2 0x677 PUSH2 0x39F5 JUMP JUMPDEST PUSH1 0x20 MUL PUSH1 0x20 ADD ADD MLOAD DUP7 PUSH2 0x2537 JUMP JUMPDEST SWAP3 POP DUP5 DUP4 GT PUSH2 0x6C1 JUMPI PUSH1 0x40 MLOAD PUSH3 0x461BCD PUSH1 0xE5 SHL DUP2 MSTORE PUSH1 0x20 PUSH1 0x4 DUP3 ADD MSTORE PUSH1 0x8 PUSH1 0x24 DUP3 ADD MSTORE PUSH8 0x6E6F206578747261 PUSH1 0xC0 SHL PUSH1 0x44 DUP3 ADD MSTORE PUSH1 0x64 ADD PUSH2 0x1F2 JUMP JUMPDEST PUSH2 0x6CB DUP6 DUP5 PUSH2 0x3996 JUMP JUMPDEST SWAP2 POP PUSH2 0x1571 JUMP JUMPDEST DUP8 MLOAD PUSH1 0x2 EQ ISZERO PUSH2 0x946 JUMPI PUSH2 0x720 DUP9 PUSH1 0x80 ADD MLOAD PUSH1 0x0 DUP2 MLOAD DUP2 LT PUSH2 0x6F6 JUMPI PUSH2 0x6F6 PUSH2 0x39F5 JUMP JUMPDEST PUSH1 0x20 MUL PUSH1 0x20 ADD ADD MLOAD PUSH1 0x1 PUSH1 0x1 PUSH1 0xA0 SHL SUB AND PUSH20 0xA07C5B74C9B40447A954E1466938B865B6BBEA36 EQ SWAP1 JUMP JUMPDEST ISZERO PUSH2 0x8C1 JUMPI PUSH1 0xA0 DUP9 ADD MLOAD PUSH1 0x40 MLOAD PUSH4 0x2E1A7D4D PUSH1 0xE0 SHL DUP2 MSTORE PUSH1 0x4 DUP2 ADD SWAP2 SWAP1 SWAP2 MSTORE PUSH20 0xBB4CDB9CBD36B01BD1CBAEBF2DE08D9173BC095C SWAP1 PUSH4 0x2E1A7D4D SWAP1 PUSH1 0x24 ADD PUSH1 0x0 PUSH1 0x40 MLOAD DUP1 DUP4 SUB DUP2 PUSH1 0x0 DUP8 DUP1 EXTCODESIZE ISZERO DUP1 ISZERO PUSH2 0x778 JUMPI PUSH1 0x0 DUP1 REVERT JUMPDEST POP GAS CALL ISZERO DUP1 ISZERO PUSH2 0x78C JUMPI RETURNDATASIZE PUSH1 0x0 DUP1 RETURNDATACOPY RETURNDATASIZE PUSH1 0x0 REVERT JUMPDEST POP POP POP POP PUSH2 0x7AA DUP9 PUSH1 0x80 ADD MLOAD PUSH1 0x0 DUP2 MLOAD DUP2 LT PUSH2 0x5E9 JUMPI PUSH2 0x5E9 PUSH2 0x39F5 JUMP JUMPDEST POP DUP1 SWAP5 POP POP PUSH2 0x7C9 DUP9 PUSH1 0x80 ADD MLOAD PUSH1 0x1 DUP2 MLOAD DUP2 LT PUSH2 0x658 JUMPI PUSH2 0x658 PUSH2 0x39F5 JUMP JUMPDEST SWAP3 POP DUP5 DUP4 GT PUSH2 0x809 JUMPI PUSH1 0x40 MLOAD PUSH3 0x461BCD PUSH1 0xE5 SHL DUP2 MSTORE PUSH1 0x20 PUSH1 0x4 DUP3 ADD MSTORE PUSH1 0xC PUSH1 0x24 DUP3 ADD MSTORE PUSH12 0x322E312D6E6F2D6578747261 PUSH1 0xA0 SHL PUSH1 0x44 DUP3 ADD MSTORE PUSH1 0x64 ADD PUSH2 0x1F2 JUMP JUMPDEST PUSH20 0xBB4CDB9CBD36B01BD1CBAEBF2DE08D9173BC095C PUSH1 0x1 PUSH1 0x1 PUSH1 0xA0 SHL SUB AND PUSH4 0xD0E30DB0 DUP5 PUSH1 0x40 MLOAD DUP3 PUSH4 0xFFFFFFFF AND PUSH1 0xE0 SHL DUP2 MSTORE PUSH1 0x4 ADD PUSH1 0x0 PUSH1 0x40 MLOAD DUP1 DUP4 SUB DUP2 DUP6 DUP9 DUP1 EXTCODESIZE ISZERO DUP1 ISZERO PUSH2 0x858 JUMPI PUSH1 0x0 DUP1 REVERT JUMPDEST POP GAS CALL ISZERO DUP1 ISZERO PUSH2 0x86C JUMPI RETURNDATASIZE PUSH1 0x0 DUP1 RETURNDATACOPY RETURNDATASIZE PUSH1 0x0 REVERT JUMPDEST POP POP POP POP POP PUSH1 0x0 DUP6 DUP5 PUSH2 0x87F SWAP2 SWAP1 PUSH2 0x3996 JUMP JUMPDEST SWAP1 POP PUSH2 0x890 DUP2 DUP11 PUSH1 0x60 ADD MLOAD ADDRESS PUSH2 0x2826 JUMP JUMPDEST SWAP2 POP DUP2 PUSH1 0x1 DUP4 MLOAD PUSH2 0x8A1 SWAP2 SWAP1 PUSH2 0x3996 JUMP JUMPDEST DUP2 MLOAD DUP2 LT PUSH2 0x8B1 JUMPI PUSH2 0x8B1 PUSH2 0x39F5 JUMP JUMPDEST PUSH1 0x20 MUL PUSH1 0x20 ADD ADD MLOAD SWAP3 POP POP PUSH2 0x1571 JUMP JUMPDEST PUSH2 0x8DB DUP9 PUSH1 0x80 ADD MLOAD PUSH1 0x0 DUP2 MLOAD DUP2 LT PUSH2 0x5E9 JUMPI PUSH2 0x5E9 PUSH2 0x39F5 JUMP JUMPDEST POP DUP1 SWAP5 POP POP PUSH2 0x8FA DUP9 PUSH1 0x80 ADD MLOAD PUSH1 0x1 DUP2 MLOAD DUP2 LT PUSH2 0x658 JUMPI PUSH2 0x658 PUSH2 0x39F5 JUMP JUMPDEST SWAP3 POP DUP5 DUP4 GT PUSH2 0x93A JUMPI PUSH1 0x40 MLOAD PUSH3 0x461BCD PUSH1 0xE5 SHL DUP2 MSTORE PUSH1 0x20 PUSH1 0x4 DUP3 ADD MSTORE PUSH1 0xC PUSH1 0x24 DUP3 ADD MSTORE PUSH12 0x322E322D6E6F2D6578747261 PUSH1 0xA0 SHL PUSH1 0x44 DUP3 ADD MSTORE PUSH1 0x64 ADD PUSH2 0x1F2 JUMP JUMPDEST PUSH1 0x0 PUSH2 0x87F DUP7 DUP6 PUSH2 0x3996 JUMP JUMPDEST DUP8 MLOAD PUSH1 0x3 EQ ISZERO PUSH2 0xBBC JUMPI PUSH2 0x96A DUP9 PUSH1 0x80 ADD MLOAD PUSH1 0x1 DUP2 MLOAD DUP2 LT PUSH2 0x4F2 JUMPI PUSH2 0x4F2 PUSH2 0x39F5 JUMP JUMPDEST PUSH2 0x9C0 JUMPI PUSH1 0x40 MLOAD PUSH3 0x461BCD PUSH1 0xE5 SHL DUP2 MSTORE PUSH1 0x20 PUSH1 0x4 DUP3 ADD MSTORE PUSH1 0x21 PUSH1 0x24 DUP3 ADD MSTORE PUSH32 0x332D7365697A656420746F6B656E206973206E6F7420737461626C6520636F69 PUSH1 0x44 DUP3 ADD MSTORE PUSH1 0x37 PUSH1 0xF9 SHL PUSH1 0x64 DUP3 ADD MSTORE PUSH1 0x84 ADD PUSH2 0x1F2 JUMP JUMPDEST PUSH2 0x9DA DUP9 PUSH1 0x80 ADD MLOAD PUSH1 0x0 DUP2 MLOAD DUP2 LT PUSH2 0x6F6 JUMPI PUSH2 0x6F6 PUSH2 0x39F5 JUMP JUMPDEST ISZERO PUSH2 0xB14 JUMPI PUSH1 0xA0 DUP9 ADD MLOAD PUSH1 0x40 MLOAD PUSH4 0x2E1A7D4D PUSH1 0xE0 SHL DUP2 MSTORE PUSH1 0x4 DUP2 ADD SWAP2 SWAP1 SWAP2 MSTORE PUSH20 0xBB4CDB9CBD36B01BD1CBAEBF2DE08D9173BC095C SWAP1 PUSH4 0x2E1A7D4D SWAP1 PUSH1 0x24 ADD PUSH1 0x0 PUSH1 0x40 MLOAD DUP1 DUP4 SUB DUP2 PUSH1 0x0 DUP8 DUP1 EXTCODESIZE ISZERO DUP1 ISZERO PUSH2 0xA32 JUMPI PUSH1 0x0 DUP1 REVERT JUMPDEST POP GAS CALL ISZERO DUP1 ISZERO PUSH2 0xA46 JUMPI RETURNDATASIZE PUSH1 0x0 DUP1 RETURNDATACOPY RETURNDATASIZE PUSH1 0x0 REVERT JUMPDEST POP POP POP POP PUSH2 0xA64 DUP9 PUSH1 0x80 ADD MLOAD PUSH1 0x0 DUP2 MLOAD DUP2 LT PUSH2 0x5E9 JUMPI PUSH2 0x5E9 PUSH2 0x39F5 JUMP JUMPDEST POP DUP1 SWAP5 POP POP PUSH2 0xA83 DUP9 PUSH1 0x80 ADD MLOAD PUSH1 0x1 DUP2 MLOAD DUP2 LT PUSH2 0x658 JUMPI PUSH2 0x658 PUSH2 0x39F5 JUMP JUMPDEST SWAP3 POP PUSH2 0xA94 DUP6 DUP10 PUSH1 0x40 ADD MLOAD ADDRESS PUSH2 0x296F JUMP JUMPDEST SWAP1 POP DUP1 PUSH1 0x0 DUP2 MLOAD DUP2 LT PUSH2 0xAA9 JUMPI PUSH2 0xAA9 PUSH2 0x39F5 JUMP JUMPDEST PUSH1 0x20 MUL PUSH1 0x20 ADD ADD MLOAD DUP4 GT PUSH2 0xAEE JUMPI PUSH1 0x40 MLOAD PUSH3 0x461BCD PUSH1 0xE5 SHL DUP2 MSTORE PUSH1 0x20 PUSH1 0x4 DUP3 ADD MSTORE PUSH1 0xC PUSH1 0x24 DUP3 ADD MSTORE PUSH12 0x332E312D6E6F2D6578747261 PUSH1 0xA0 SHL PUSH1 0x44 DUP3 ADD MSTORE PUSH1 0x64 ADD PUSH2 0x1F2 JUMP JUMPDEST DUP1 PUSH1 0x0 DUP2 MLOAD DUP2 LT PUSH2 0xB01 JUMPI PUSH2 0xB01 PUSH2 0x39F5 JUMP JUMPDEST PUSH1 0x20 MUL PUSH1 0x20 ADD ADD MLOAD DUP4 PUSH2 0x6CB SWAP2 SWAP1 PUSH2 0x3996 JUMP JUMPDEST PUSH2 0xB2E DUP9 PUSH1 0x80 ADD MLOAD PUSH1 0x0 DUP2 MLOAD DUP2 LT PUSH2 0x5E9 JUMPI PUSH2 0x5E9 PUSH2 0x39F5 JUMP JUMPDEST POP DUP1 SWAP5 POP POP PUSH2 0xB4D DUP9 PUSH1 0x80 ADD MLOAD PUSH1 0x1 DUP2 MLOAD DUP2 LT PUSH2 0x658 JUMPI PUSH2 0x658 PUSH2 0x39F5 JUMP JUMPDEST SWAP3 POP PUSH2 0xB5E DUP6 DUP10 PUSH1 0x40 ADD MLOAD ADDRESS PUSH2 0x296F JUMP JUMPDEST SWAP1 POP DUP1 PUSH1 0x0 DUP2 MLOAD DUP2 LT PUSH2 0xB73 JUMPI PUSH2 0xB73 PUSH2 0x39F5 JUMP JUMPDEST PUSH1 0x20 MUL PUSH1 0x20 ADD ADD MLOAD DUP4 GT PUSH2 0xAEE JUMPI PUSH1 0x40 MLOAD PUSH3 0x461BCD PUSH1 0xE5 SHL DUP2 MSTORE PUSH1 0x20 PUSH1 0x4 DUP3 ADD MSTORE PUSH1 0x10 PUSH1 0x24 DUP3 ADD MSTORE PUSH16 0x332E322D626E622D6E6F2D6578747261 PUSH1 0x80 SHL PUSH1 0x44 DUP3 ADD MSTORE PUSH1 0x64 ADD PUSH2 0x1F2 JUMP JUMPDEST DUP8 MLOAD PUSH1 0x4 EQ ISZERO PUSH2 0xE2F JUMPI PUSH2 0xBE0 DUP9 PUSH1 0x80 ADD MLOAD PUSH1 0x0 DUP2 MLOAD DUP2 LT PUSH2 0x4F2 JUMPI PUSH2 0x4F2 PUSH2 0x39F5 JUMP JUMPDEST PUSH2 0xC2C JUMPI PUSH1 0x40 MLOAD PUSH3 0x461BCD PUSH1 0xE5 SHL DUP2 MSTORE PUSH1 0x20 PUSH1 0x4 DUP3 ADD MSTORE PUSH1 0x1F PUSH1 0x24 DUP3 ADD MSTORE PUSH32 0x342D7265706179546F6B656E206973206E6F7420737461626C6520636F696E00 PUSH1 0x44 DUP3 ADD MSTORE PUSH1 0x64 ADD PUSH2 0x1F2 JUMP JUMPDEST PUSH2 0xC46 DUP9 PUSH1 0x80 ADD MLOAD PUSH1 0x1 DUP2 MLOAD DUP2 LT PUSH2 0x6F6 JUMPI PUSH2 0x6F6 PUSH2 0x39F5 JUMP JUMPDEST ISZERO PUSH2 0xD7A JUMPI PUSH2 0xC65 DUP9 PUSH1 0x80 ADD MLOAD PUSH1 0x0 DUP2 MLOAD DUP2 LT PUSH2 0x5E9 JUMPI PUSH2 0x5E9 PUSH2 0x39F5 JUMP JUMPDEST POP DUP1 SWAP5 POP POP PUSH2 0xC84 DUP9 PUSH1 0x80 ADD MLOAD PUSH1 0x1 DUP2 MLOAD DUP2 LT PUSH2 0x658 JUMPI PUSH2 0x658 PUSH2 0x39F5 JUMP JUMPDEST SWAP3 POP PUSH20 0xBB4CDB9CBD36B01BD1CBAEBF2DE08D9173BC095C PUSH1 0x1 PUSH1 0x1 PUSH1 0xA0 SHL SUB AND PUSH4 0xD0E30DB0 DUP5 PUSH1 0x40 MLOAD DUP3 PUSH4 0xFFFFFFFF AND PUSH1 0xE0 SHL DUP2 MSTORE PUSH1 0x4 ADD PUSH1 0x0 PUSH1 0x40 MLOAD DUP1 DUP4 SUB DUP2 DUP6 DUP9 DUP1 EXTCODESIZE ISZERO DUP1 ISZERO PUSH2 0xCD5 JUMPI PUSH1 0x0 DUP1 REVERT JUMPDEST POP GAS CALL ISZERO DUP1 ISZERO PUSH2 0xCE9 JUMPI RETURNDATASIZE PUSH1 0x0 DUP1 RETURNDATACOPY RETURNDATASIZE PUSH1 0x0 REVERT JUMPDEST POP POP POP POP POP PUSH2 0xCFD DUP4 DUP10 PUSH1 0x40 ADD MLOAD ADDRESS PUSH2 0x2826 JUMP JUMPDEST SWAP1 POP PUSH1 0x0 DUP2 PUSH1 0x1 DUP4 MLOAD PUSH2 0xD10 SWAP2 SWAP1 PUSH2 0x3996 JUMP JUMPDEST DUP2 MLOAD DUP2 LT PUSH2 0xD20 JUMPI PUSH2 0xD20 PUSH2 0x39F5 JUMP JUMPDEST PUSH1 0x20 MUL PUSH1 0x20 ADD ADD MLOAD SWAP1 POP DUP6 DUP2 GT PUSH2 0xD68 JUMPI PUSH1 0x40 MLOAD PUSH3 0x461BCD PUSH1 0xE5 SHL DUP2 MSTORE PUSH1 0x20 PUSH1 0x4 DUP3 ADD MSTORE PUSH1 0xC PUSH1 0x24 DUP3 ADD MSTORE PUSH12 0x342E312D6E6F206578747261 PUSH1 0xA0 SHL PUSH1 0x44 DUP3 ADD MSTORE PUSH1 0x64 ADD PUSH2 0x1F2 JUMP JUMPDEST PUSH2 0xD72 DUP7 DUP3 PUSH2 0x3996 JUMP JUMPDEST SWAP3 POP POP PUSH2 0x1571 JUMP JUMPDEST PUSH2 0xD94 DUP9 PUSH1 0x80 ADD MLOAD PUSH1 0x0 DUP2 MLOAD DUP2 LT PUSH2 0x5E9 JUMPI PUSH2 0x5E9 PUSH2 0x39F5 JUMP JUMPDEST POP DUP1 SWAP5 POP POP PUSH2 0xDB3 DUP9 PUSH1 0x80 ADD MLOAD PUSH1 0x1 DUP2 MLOAD DUP2 LT PUSH2 0x658 JUMPI PUSH2 0x658 PUSH2 0x39F5 JUMP JUMPDEST SWAP3 POP PUSH2 0xDC4 DUP4 DUP10 PUSH1 0x40 ADD MLOAD ADDRESS PUSH2 0x2826 JUMP JUMPDEST SWAP1 POP PUSH1 0x0 DUP2 PUSH1 0x1 DUP4 MLOAD PUSH2 0xDD7 SWAP2 SWAP1 PUSH2 0x3996 JUMP JUMPDEST DUP2 MLOAD DUP2 LT PUSH2 0xDE7 JUMPI PUSH2 0xDE7 PUSH2 0x39F5 JUMP JUMPDEST PUSH1 0x20 MUL PUSH1 0x20 ADD ADD MLOAD SWAP1 POP DUP6 DUP2 GT PUSH2 0xD68 JUMPI PUSH1 0x40 MLOAD PUSH3 0x461BCD PUSH1 0xE5 SHL DUP2 MSTORE PUSH1 0x20 PUSH1 0x4 DUP3 ADD MSTORE PUSH1 0xC PUSH1 0x24 DUP3 ADD MSTORE PUSH12 0x342E322D6E6F206578747261 PUSH1 0xA0 SHL PUSH1 0x44 DUP3 ADD MSTORE PUSH1 0x64 ADD PUSH2 0x1F2 JUMP JUMPDEST DUP8 MLOAD PUSH1 0x5 EQ ISZERO PUSH2 0x1104 JUMPI PUSH2 0xE53 DUP9 PUSH1 0x80 ADD MLOAD PUSH1 0x0 DUP2 MLOAD DUP2 LT PUSH2 0x6F6 JUMPI PUSH2 0x6F6 PUSH2 0x39F5 JUMP JUMPDEST ISZERO PUSH2 0xF8F JUMPI PUSH1 0xA0 DUP9 ADD MLOAD PUSH1 0x40 MLOAD PUSH4 0x2E1A7D4D PUSH1 0xE0 SHL DUP2 MSTORE PUSH1 0x4 DUP2 ADD SWAP2 SWAP1 SWAP2 MSTORE PUSH20 0xBB4CDB9CBD36B01BD1CBAEBF2DE08D9173BC095C SWAP1 PUSH4 0x2E1A7D4D SWAP1 PUSH1 0x24 ADD PUSH1 0x0 PUSH1 0x40 MLOAD DUP1 DUP4 SUB DUP2 PUSH1 0x0 DUP8 DUP1 EXTCODESIZE ISZERO DUP1 ISZERO PUSH2 0xEAB JUMPI PUSH1 0x0 DUP1 REVERT JUMPDEST POP GAS CALL ISZERO DUP1 ISZERO PUSH2 0xEBF JUMPI RETURNDATASIZE PUSH1 0x0 DUP1 RETURNDATACOPY RETURNDATASIZE PUSH1 0x0 REVERT JUMPDEST POP POP POP POP PUSH2 0xEDD DUP9 PUSH1 0x80 ADD MLOAD PUSH1 0x0 DUP2 MLOAD DUP2 LT PUSH2 0x5E9 JUMPI PUSH2 0x5E9 PUSH2 0x39F5 JUMP JUMPDEST POP DUP1 SWAP5 POP POP PUSH2 0xEFC DUP9 PUSH1 0x80 ADD MLOAD PUSH1 0x1 DUP2 MLOAD DUP2 LT PUSH2 0x658 JUMPI PUSH2 0x658 PUSH2 0x39F5 JUMP JUMPDEST SWAP3 POP PUSH2 0xF0D DUP6 DUP10 PUSH1 0x40 ADD MLOAD ADDRESS PUSH2 0x296F JUMP JUMPDEST SWAP1 POP DUP1 PUSH1 0x0 DUP2 MLOAD DUP2 LT PUSH2 0xF22 JUMPI PUSH2 0xF22 PUSH2 0x39F5 JUMP JUMPDEST PUSH1 0x20 MUL PUSH1 0x20 ADD ADD MLOAD DUP4 GT PUSH2 0xF67 JUMPI PUSH1 0x40 MLOAD PUSH3 0x461BCD PUSH1 0xE5 SHL DUP2 MSTORE PUSH1 0x20 PUSH1 0x4 DUP3 ADD MSTORE PUSH1 0xC PUSH1 0x24 DUP3 ADD MSTORE PUSH12 0x352E312D6E6F206578747261 PUSH1 0xA0 SHL PUSH1 0x44 DUP3 ADD MSTORE PUSH1 0x64 ADD PUSH2 0x1F2 JUMP JUMPDEST PUSH1 0x0 DUP2 PUSH1 0x0 DUP2 MLOAD DUP2 LT PUSH2 0xF7C JUMPI PUSH2 0xF7C PUSH2 0x39F5 JUMP JUMPDEST PUSH1 0x20 MUL PUSH1 0x20 ADD ADD MLOAD DUP5 PUSH2 0x87F SWAP2 SWAP1 PUSH2 0x3996 JUMP JUMPDEST PUSH2 0xFA9 DUP9 PUSH1 0x80 ADD MLOAD PUSH1 0x1 DUP2 MLOAD DUP2 LT PUSH2 0x6F6 JUMPI PUSH2 0x6F6 PUSH2 0x39F5 JUMP JUMPDEST ISZERO PUSH2 0x1060 JUMPI PUSH2 0xFC8 DUP9 PUSH1 0x80 ADD MLOAD PUSH1 0x0 DUP2 MLOAD DUP2 LT PUSH2 0x5E9 JUMPI PUSH2 0x5E9 PUSH2 0x39F5 JUMP JUMPDEST POP DUP1 SWAP5 POP POP PUSH2 0xFE7 DUP9 PUSH1 0x80 ADD MLOAD PUSH1 0x1 DUP2 MLOAD DUP2 LT PUSH2 0x658 JUMPI PUSH2 0x658 PUSH2 0x39F5 JUMP JUMPDEST SWAP3 POP PUSH20 0xBB4CDB9CBD36B01BD1CBAEBF2DE08D9173BC095C PUSH1 0x1 PUSH1 0x1 PUSH1 0xA0 SHL SUB AND PUSH4 0xD0E30DB0 DUP5 PUSH1 0x40 MLOAD DUP3 PUSH4 0xFFFFFFFF AND PUSH1 0xE0 SHL DUP2 MSTORE PUSH1 0x4 ADD PUSH1 0x0 PUSH1 0x40 MLOAD DUP1 DUP4 SUB DUP2 DUP6 DUP9 DUP1 EXTCODESIZE ISZERO DUP1 ISZERO PUSH2 0x1038 JUMPI PUSH1 0x0 DUP1 REVERT JUMPDEST POP GAS CALL ISZERO DUP1 ISZERO PUSH2 0x104C JUMPI RETURNDATASIZE PUSH1 0x0 DUP1 RETURNDATACOPY RETURNDATASIZE PUSH1 0x0 REVERT JUMPDEST POP POP POP POP POP PUSH2 0xF0D DUP6 DUP10 PUSH1 0x40 ADD MLOAD ADDRESS PUSH2 0x296F JUMP JUMPDEST PUSH2 0x107A DUP9 PUSH1 0x80 ADD MLOAD PUSH1 0x0 DUP2 MLOAD DUP2 LT PUSH2 0x5E9 JUMPI PUSH2 0x5E9 PUSH2 0x39F5 JUMP JUMPDEST POP DUP1 SWAP5 POP POP PUSH2 0x1099 DUP9 PUSH1 0x80 ADD MLOAD PUSH1 0x1 DUP2 MLOAD DUP2 LT PUSH2 0x658 JUMPI PUSH2 0x658 PUSH2 0x39F5 JUMP JUMPDEST SWAP3 POP PUSH2 0x10AA DUP6 DUP10 PUSH1 0x40 ADD MLOAD ADDRESS PUSH2 0x296F JUMP JUMPDEST SWAP1 POP DUP1 PUSH1 0x0 DUP2 MLOAD DUP2 LT PUSH2 0x10BF JUMPI PUSH2 0x10BF PUSH2 0x39F5 JUMP JUMPDEST PUSH1 0x20 MUL PUSH1 0x20 ADD ADD MLOAD DUP4 GT PUSH2 0xF67 JUMPI PUSH1 0x40 MLOAD PUSH3 0x461BCD PUSH1 0xE5 SHL DUP2 MSTORE PUSH1 0x20 PUSH1 0x4 DUP3 ADD MSTORE PUSH1 0xC PUSH1 0x24 DUP3 ADD MSTORE PUSH12 0x352E332D6E6F206578747261 PUSH1 0xA0 SHL PUSH1 0x44 DUP3 ADD MSTORE PUSH1 0x64 ADD PUSH2 0x1F2 JUMP JUMPDEST DUP8 MLOAD PUSH1 0x6 EQ ISZERO PUSH2 0x12E4 JUMPI PUSH2 0x1128 DUP9 PUSH1 0x80 ADD MLOAD PUSH1 0x1 DUP2 MLOAD DUP2 LT PUSH2 0x4F2 JUMPI PUSH2 0x4F2 PUSH2 0x39F5 JUMP JUMPDEST PUSH2 0x1174 JUMPI PUSH1 0x40 MLOAD PUSH3 0x461BCD PUSH1 0xE5 SHL DUP2 MSTORE PUSH1 0x20 PUSH1 0x4 DUP3 ADD DUP2 SWAP1 MSTORE PUSH1 0x24 DUP3 ADD MSTORE PUSH32 0x362D7365697A6564546F6B656E206973206E6F7420737461626C6520636F696E PUSH1 0x44 DUP3 ADD MSTORE PUSH1 0x64 ADD PUSH2 0x1F2 JUMP JUMPDEST PUSH1 0x0 PUSH2 0x11E0 DUP10 PUSH1 0x80 ADD MLOAD PUSH1 0x0 DUP2 MLOAD DUP2 LT PUSH2 0x1190 JUMPI PUSH2 0x1190 PUSH2 0x39F5 JUMP JUMPDEST PUSH1 0x20 MUL PUSH1 0x20 ADD ADD MLOAD DUP11 PUSH1 0x80 ADD MLOAD PUSH1 0x1 DUP2 MLOAD DUP2 LT PUSH2 0x11AF JUMPI PUSH2 0x11AF PUSH2 0x39F5 JUMP JUMPDEST PUSH1 0x20 MUL PUSH1 0x20 ADD ADD MLOAD DUP12 PUSH1 0x80 ADD MLOAD PUSH1 0x4 DUP2 MLOAD DUP2 LT PUSH2 0x11CE JUMPI PUSH2 0x11CE PUSH2 0x39F5 JUMP JUMPDEST PUSH1 0x20 MUL PUSH1 0x20 ADD ADD MLOAD DUP13 PUSH1 0xA0 ADD MLOAD PUSH2 0x2125 JUMP JUMPDEST DUP1 SWAP3 POP DUP2 SWAP7 POP POP POP PUSH2 0x122F DUP10 PUSH1 0x80 ADD MLOAD PUSH1 0x1 DUP2 MLOAD DUP2 LT PUSH2 0x1202 JUMPI PUSH2 0x1202 PUSH2 0x39F5 JUMP JUMPDEST PUSH1 0x20 MUL PUSH1 0x20 ADD ADD MLOAD DUP11 PUSH1 0x80 ADD MLOAD PUSH1 0x2 DUP2 MLOAD DUP2 LT PUSH2 0x1221 JUMPI PUSH2 0x1221 PUSH2 0x39F5 JUMP JUMPDEST PUSH1 0x20 MUL PUSH1 0x20 ADD ADD MLOAD DUP8 PUSH2 0x2537 JUMP JUMPDEST SWAP4 POP PUSH1 0x0 DUP10 PUSH1 0xA0 ADD MLOAD DUP3 DUP9 PUSH2 0x1244 SWAP2 SWAP1 PUSH2 0x393D JUMP JUMPDEST PUSH2 0x124E SWAP2 SWAP1 PUSH2 0x3996 JUMP JUMPDEST SWAP1 POP PUSH2 0x125F DUP2 DUP12 PUSH1 0x40 ADD MLOAD ADDRESS PUSH2 0x296F JUMP JUMPDEST POP DUP3 PUSH1 0x0 DUP2 MLOAD DUP2 LT PUSH2 0x1273 JUMPI PUSH2 0x1273 PUSH2 0x39F5 JUMP JUMPDEST PUSH1 0x20 MUL PUSH1 0x20 ADD ADD MLOAD DUP6 GT PUSH2 0x12B5 JUMPI PUSH1 0x40 MLOAD PUSH3 0x461BCD PUSH1 0xE5 SHL DUP2 MSTORE PUSH1 0x20 PUSH1 0x4 DUP3 ADD MSTORE PUSH1 0x9 PUSH1 0x24 DUP3 ADD MSTORE PUSH9 0x362D6E6F6578747261 PUSH1 0xB8 SHL PUSH1 0x44 DUP3 ADD MSTORE PUSH1 0x64 ADD PUSH2 0x1F2 JUMP JUMPDEST DUP3 PUSH1 0x0 DUP2 MLOAD DUP2 LT PUSH2 0x12C8 JUMPI PUSH2 0x12C8 PUSH2 0x39F5 JUMP JUMPDEST PUSH1 0x20 MUL PUSH1 0x20 ADD ADD MLOAD DUP6 PUSH2 0x12DB SWAP2 SWAP1 PUSH2 0x3996 JUMP JUMPDEST SWAP4 POP POP POP PUSH2 0x1571 JUMP JUMPDEST DUP8 MLOAD PUSH1 0x7 EQ ISZERO PUSH2 0x91 JUMPI PUSH2 0x1308 DUP9 PUSH1 0x80 ADD MLOAD PUSH1 0x1 DUP2 MLOAD DUP2 LT PUSH2 0x6F6 JUMPI PUSH2 0x6F6 PUSH2 0x39F5 JUMP JUMPDEST ISZERO PUSH2 0x14A9 JUMPI PUSH1 0x0 PUSH2 0x1329 DUP10 PUSH1 0x80 ADD MLOAD PUSH1 0x0 DUP2 MLOAD DUP2 LT PUSH2 0x1190 JUMPI PUSH2 0x1190 PUSH2 0x39F5 JUMP JUMPDEST DUP1 SWAP3 POP DUP2 SWAP7 POP POP POP PUSH2 0x134B DUP10 PUSH1 0x80 ADD MLOAD PUSH1 0x1 DUP2 MLOAD DUP2 LT PUSH2 0x1202 JUMPI PUSH2 0x1202 PUSH2 0x39F5 JUMP JUMPDEST SWAP4 POP PUSH20 0xBB4CDB9CBD36B01BD1CBAEBF2DE08D9173BC095C PUSH1 0x1 PUSH1 0x1 PUSH1 0xA0 SHL SUB AND PUSH4 0xD0E30DB0 DUP6 PUSH1 0x40 MLOAD DUP3 PUSH4 0xFFFFFFFF AND PUSH1 0xE0 SHL DUP2 MSTORE PUSH1 0x4 ADD PUSH1 0x0 PUSH1 0x40 MLOAD DUP1 DUP4 SUB DUP2 DUP6 DUP9 DUP1 EXTCODESIZE ISZERO DUP1 ISZERO PUSH2 0x139C JUMPI PUSH1 0x0 DUP1 REVERT JUMPDEST POP GAS CALL ISZERO DUP1 ISZERO PUSH2 0x13B0 JUMPI RETURNDATASIZE PUSH1 0x0 DUP1 RETURNDATACOPY RETURNDATASIZE PUSH1 0x0 REVERT JUMPDEST POP POP POP POP POP PUSH1 0x0 DUP10 PUSH1 0xA0 ADD MLOAD DUP3 DUP9 PUSH2 0x13C8 SWAP2 SWAP1 PUSH2 0x393D JUMP JUMPDEST PUSH2 0x13D2 SWAP2 SWAP1 PUSH2 0x3996 JUMP JUMPDEST SWAP1 POP PUSH2 0x13E3 DUP2 DUP12 PUSH1 0x40 ADD MLOAD ADDRESS PUSH2 0x296F JUMP JUMPDEST SWAP3 POP DUP3 PUSH1 0x0 DUP2 MLOAD DUP2 LT PUSH2 0x13F8 JUMPI PUSH2 0x13F8 PUSH2 0x39F5 JUMP JUMPDEST PUSH1 0x20 MUL PUSH1 0x20 ADD ADD MLOAD DUP6 GT PUSH2 0x143D JUMPI PUSH1 0x40 MLOAD PUSH3 0x461BCD PUSH1 0xE5 SHL DUP2 MSTORE PUSH1 0x20 PUSH1 0x4 DUP3 ADD MSTORE PUSH1 0xC PUSH1 0x24 DUP3 ADD MSTORE PUSH12 0x372E312D6E6F206578747261 PUSH1 0xA0 SHL PUSH1 0x44 DUP3 ADD MSTORE PUSH1 0x64 ADD PUSH2 0x1F2 JUMP JUMPDEST PUSH1 0x0 DUP4 PUSH1 0x0 DUP2 MLOAD DUP2 LT PUSH2 0x1452 JUMPI PUSH2 0x1452 PUSH2 0x39F5 JUMP JUMPDEST PUSH1 0x20 MUL PUSH1 0x20 ADD ADD MLOAD DUP7 PUSH2 0x1465 SWAP2 SWAP1 PUSH2 0x3996 JUMP JUMPDEST SWAP1 POP PUSH2 0x1476 DUP2 DUP13 PUSH1 0x60 ADD MLOAD ADDRESS PUSH2 0x2826 JUMP JUMPDEST SWAP4 POP DUP4 PUSH1 0x1 DUP6 MLOAD PUSH2 0x1487 SWAP2 SWAP1 PUSH2 0x3996 JUMP JUMPDEST DUP2 MLOAD DUP2 LT PUSH2 0x1497 JUMPI PUSH2 0x1497 PUSH2 0x39F5 JUMP JUMPDEST PUSH1 0x20 MUL PUSH1 0x20 ADD ADD MLOAD SWAP5 POP POP POP POP PUSH2 0x1571 JUMP JUMPDEST PUSH1 0x0 PUSH2 0x14C5 DUP10 PUSH1 0x80 ADD MLOAD PUSH1 0x0 DUP2 MLOAD DUP2 LT PUSH2 0x1190 JUMPI PUSH2 0x1190 PUSH2 0x39F5 JUMP JUMPDEST DUP1 SWAP3 POP DUP2 SWAP7 POP POP POP PUSH2 0x14E7 DUP10 PUSH1 0x80 ADD MLOAD PUSH1 0x1 DUP2 MLOAD DUP2 LT PUSH2 0x1202 JUMPI PUSH2 0x1202 PUSH2 0x39F5 JUMP JUMPDEST SWAP4 POP PUSH1 0x0 DUP10 PUSH1 0xA0 ADD MLOAD DUP3 DUP9 PUSH2 0x14FC SWAP2 SWAP1 PUSH2 0x393D JUMP JUMPDEST PUSH2 0x1506 SWAP2 SWAP1 PUSH2 0x3996 JUMP JUMPDEST SWAP1 POP PUSH2 0x1517 DUP2 DUP12 PUSH1 0x40 ADD MLOAD ADDRESS PUSH2 0x296F JUMP JUMPDEST SWAP3 POP DUP3 PUSH1 0x0 DUP2 MLOAD DUP2 LT PUSH2 0x152C JUMPI PUSH2 0x152C PUSH2 0x39F5 JUMP JUMPDEST PUSH1 0x20 MUL PUSH1 0x20 ADD ADD MLOAD DUP6 GT PUSH2 0x143D JUMPI PUSH1 0x40 MLOAD PUSH3 0x461BCD PUSH1 0xE5 SHL DUP2 MSTORE PUSH1 0x20 PUSH1 0x4 DUP3 ADD MSTORE PUSH1 0xC PUSH1 0x24 DUP3 ADD MSTORE PUSH12 0x372E322D6E6F206578747261 PUSH1 0xA0 SHL PUSH1 0x44 DUP3 ADD MSTORE PUSH1 0x64 ADD PUSH2 0x1F2 JUMP JUMPDEST PUSH1 0x20 DUP9 ADD MLOAD PUSH1 0x40 MLOAD PUSH4 0xA9059CBB PUSH1 0xE0 SHL DUP2 MSTORE PUSH1 0x1 PUSH1 0x1 PUSH1 0xA0 SHL SUB SWAP2 DUP3 AND PUSH1 0x4 DUP3 ADD MSTORE PUSH1 0x24 DUP2 ADD DUP8 SWAP1 MSTORE SWAP1 DUP9 AND SWAP1 PUSH4 0xA9059CBB SWAP1 PUSH1 0x44 ADD PUSH1 0x20 PUSH1 0x40 MLOAD DUP1 DUP4 SUB DUP2 PUSH1 0x0 DUP8 DUP1 EXTCODESIZE ISZERO DUP1 ISZERO PUSH2 0x15C1 JUMPI PUSH1 0x0 DUP1 REVERT JUMPDEST POP GAS CALL ISZERO DUP1 ISZERO PUSH2 0x15D5 JUMPI RETURNDATASIZE PUSH1 0x0 DUP1 RETURNDATACOPY RETURNDATASIZE PUSH1 0x0 REVERT JUMPDEST POP POP POP POP PUSH1 0x40 MLOAD RETURNDATASIZE PUSH1 0x1F NOT PUSH1 0x1F DUP3 ADD AND DUP3 ADD DUP1 PUSH1 0x40 MSTORE POP DUP2 ADD SWAP1 PUSH2 0x15F9 SWAP2 SWAP1 PUSH2 0x3554 JUMP JUMPDEST POP DUP8 MLOAD PUSH1 0xA0 DUP1 DUP11 ADD MLOAD PUSH1 0x40 DUP1 MLOAD SWAP4 DUP5 MSTORE PUSH1 0x1 PUSH1 0x1 PUSH1 0xA0 SHL SUB DUP1 DUP13 AND PUSH1 0x20 DUP7 ADD MSTORE SWAP1 DUP5 ADD SWAP2 SWAP1 SWAP2 MSTORE DUP9 AND PUSH1 0x60 DUP4 ADD MSTORE PUSH1 0x80 DUP3 ADD DUP8 SWAP1 MSTORE DUP2 ADD DUP5 SWAP1 MSTORE PUSH1 0xC0 DUP2 ADD DUP4 SWAP1 MSTORE PUSH32 0xEE80F069D389B1636BFE8A115FF1D8AD940B394B4D16BB19C8503003D14DD5B4 SWAP1 PUSH1 0xE0 ADD PUSH1 0x40 MLOAD DUP1 SWAP2 SUB SWAP1 LOG1 POP POP POP POP POP POP POP POP POP POP POP POP POP JUMP JUMPDEST PUSH1 0x0 SLOAD PUSH1 0x1 PUSH1 0x1 PUSH1 0xA0 SHL SUB AND CALLER EQ PUSH2 0x16A0 JUMPI PUSH1 0x40 MLOAD PUSH3 0x461BCD PUSH1 0xE5 SHL DUP2 MSTORE PUSH1 0x4 ADD PUSH2 0x1F2 SWAP1 PUSH2 0x37E5 JUMP JUMPDEST PUSH1 0x0 PUSH8 0xDE0B6B3A7640000 SWAP1 POP PUSH20 0xBB4CDB9CBD36B01BD1CBAEBF2DE08D9173BC095C PUSH1 0x1 PUSH1 0x1 PUSH1 0xA0 SHL SUB AND PUSH4 0xD0E30DB0 DUP3 PUSH1 0x40 MLOAD DUP3 PUSH4 0xFFFFFFFF AND PUSH1 0xE0 SHL DUP2 MSTORE PUSH1 0x4 ADD PUSH1 0x0 PUSH1 0x40 MLOAD DUP1 DUP4 SUB DUP2 DUP6 DUP9 DUP1 EXTCODESIZE ISZERO DUP1 ISZERO PUSH2 0x16FC JUMPI PUSH1 0x0 DUP1 REVERT JUMPDEST POP GAS CALL ISZERO DUP1 ISZERO PUSH2 0x1710 JUMPI RETURNDATASIZE PUSH1 0x0 DUP1 RETURNDATACOPY RETURNDATASIZE PUSH1 0x0 REVERT JUMPDEST POP PUSH1 0x0 SWAP4 POP PUSH1 0x2 SWAP3 POP PUSH2 0x1721 SWAP2 POP POP JUMP JUMPDEST PUSH1 0x40 MLOAD SWAP1 DUP1 DUP3 MSTORE DUP1 PUSH1 0x20 MUL PUSH1 0x20 ADD DUP3 ADD PUSH1 0x40 MSTORE DUP1 ISZERO PUSH2 0x174A JUMPI DUP2 PUSH1 0x20 ADD PUSH1 0x20 DUP3 MUL DUP1 CALLDATASIZE DUP4 CALLDATACOPY ADD SWAP1 POP JUMPDEST POP SWAP1 POP PUSH20 0xBB4CDB9CBD36B01BD1CBAEBF2DE08D9173BC095C DUP2 PUSH1 0x0 DUP2 MLOAD DUP2 LT PUSH2 0x1775 JUMPI PUSH2 0x1775 PUSH2 0x39F5 JUMP JUMPDEST PUSH1 0x20 MUL PUSH1 0x20 ADD ADD SWAP1 PUSH1 0x1 PUSH1 0x1 PUSH1 0xA0 SHL SUB AND SWAP1 DUP2 PUSH1 0x1 PUSH1 0x1 PUSH1 0xA0 SHL SUB AND DUP2 MSTORE POP POP DUP3 DUP2 PUSH1 0x1 DUP2 MLOAD DUP2 LT PUSH2 0x17A9 JUMPI PUSH2 0x17A9 PUSH2 0x39F5 JUMP JUMPDEST PUSH1 0x20 MUL PUSH1 0x20 ADD ADD SWAP1 PUSH1 0x1 PUSH1 0x1 PUSH1 0xA0 SHL SUB AND SWAP1 DUP2 PUSH1 0x1 PUSH1 0x1 PUSH1 0xA0 SHL SUB AND DUP2 MSTORE POP POP PUSH2 0x17D4 DUP3 DUP3 ADDRESS PUSH2 0x2826 JUMP JUMPDEST POP POP POP POP JUMP JUMPDEST PUSH1 0x0 PUSH20 0xFD36E2C2A6789DB23113685031D7F16329158384 PUSH4 0x5EC88C79 DUP6 DUP6 PUSH1 0x4 DUP2 DUP2 LT PUSH2 0x1809 JUMPI PUSH2 0x1809 PUSH2 0x39F5 JUMP JUMPDEST SWAP1 POP PUSH1 0x20 MUL ADD PUSH1 0x20 DUP2 ADD SWAP1 PUSH2 0x181E SWAP2 SWAP1 PUSH2 0x3417 JUMP JUMPDEST PUSH1 0x40 MLOAD PUSH1 0x1 PUSH1 0x1 PUSH1 0xE0 SHL SUB NOT PUSH1 0xE0 DUP5 SWAP1 SHL AND DUP2 MSTORE PUSH1 0x1 PUSH1 0x1 PUSH1 0xA0 SHL SUB SWAP1 SWAP2 AND PUSH1 0x4 DUP3 ADD MSTORE PUSH1 0x24 ADD PUSH1 0x60 PUSH1 0x40 MLOAD DUP1 DUP4 SUB DUP2 DUP7 DUP1 EXTCODESIZE ISZERO DUP1 ISZERO PUSH2 0x185D JUMPI PUSH1 0x0 DUP1 REVERT JUMPDEST POP GAS STATICCALL ISZERO DUP1 ISZERO PUSH2 0x1871 JUMPI RETURNDATASIZE PUSH1 0x0 DUP1 RETURNDATACOPY RETURNDATASIZE PUSH1 0x0 REVERT JUMPDEST POP POP POP POP PUSH1 0x40 MLOAD RETURNDATASIZE PUSH1 0x1F NOT PUSH1 0x1F DUP3 ADD AND DUP3 ADD DUP1 PUSH1 0x40 MSTORE POP DUP2 ADD SWAP1 PUSH2 0x1895 SWAP2 SWAP1 PUSH2 0x376E JUMP JUMPDEST SWAP3 POP POP POP PUSH1 0x0 DUP2 GT PUSH2 0x18F3 JUMPI PUSH1 0x40 MLOAD PUSH3 0x461BCD PUSH1 0xE5 SHL DUP2 MSTORE PUSH1 0x20 PUSH1 0x4 DUP3 ADD MSTORE PUSH1 0x21 PUSH1 0x24 DUP3 ADD MSTORE PUSH32 0x73686F727466616C6C206D7573742067726561746572207468616E207A657220 PUSH1 0x44 DUP3 ADD MSTORE PUSH1 0x3 PUSH1 0xFC SHL PUSH1 0x64 DUP3 ADD MSTORE PUSH1 0x84 ADD PUSH2 0x1F2 JUMP JUMPDEST POP PUSH1 0x1 PUSH1 0x0 DUP5 DUP5 PUSH1 0x3 DUP2 DUP2 LT PUSH2 0x190B JUMPI PUSH2 0x190B PUSH2 0x39F5 JUMP JUMPDEST SWAP1 POP PUSH1 0x20 MUL ADD PUSH1 0x20 DUP2 ADD SWAP1 PUSH2 0x1920 SWAP2 SWAP1 PUSH2 0x3417 JUMP JUMPDEST PUSH1 0x1 PUSH1 0x1 PUSH1 0xA0 SHL SUB AND PUSH1 0x1 PUSH1 0x1 PUSH1 0xA0 SHL SUB AND DUP2 MSTORE PUSH1 0x20 ADD SWAP1 DUP2 MSTORE PUSH1 0x20 ADD PUSH1 0x0 KECCAK256 PUSH1 0x0 DUP5 DUP5 PUSH1 0x0 DUP2 DUP2 LT PUSH2 0x1955 JUMPI PUSH2 0x1955 PUSH2 0x39F5 JUMP JUMPDEST SWAP1 POP PUSH1 0x20 MUL ADD PUSH1 0x20 DUP2 ADD SWAP1 PUSH2 0x196A SWAP2 SWAP1 PUSH2 0x3417 JUMP JUMPDEST PUSH1 0x1 PUSH1 0x1 PUSH1 0xA0 SHL SUB AND DUP2 MSTORE PUSH1 0x20 DUP2 ADD SWAP2 SWAP1 SWAP2 MSTORE PUSH1 0x40 ADD PUSH1 0x0 KECCAK256 SLOAD PUSH1 0xFF AND PUSH2 0x1B0B JUMPI DUP3 DUP3 PUSH1 0x3 DUP2 DUP2 LT PUSH2 0x199E JUMPI PUSH2 0x199E PUSH2 0x39F5 JUMP JUMPDEST SWAP1 POP PUSH1 0x20 MUL ADD PUSH1 0x20 DUP2 ADD SWAP1 PUSH2 0x19B3 SWAP2 SWAP1 PUSH2 0x3417 JUMP JUMPDEST PUSH1 0x1 PUSH1 0x1 PUSH1 0xA0 SHL SUB AND PUSH4 0x95EA7B3 DUP5 DUP5 PUSH1 0x0 DUP2 DUP2 LT PUSH2 0x19D4 JUMPI PUSH2 0x19D4 PUSH2 0x39F5 JUMP JUMPDEST SWAP1 POP PUSH1 0x20 MUL ADD PUSH1 0x20 DUP2 ADD SWAP1 PUSH2 0x19E9 SWAP2 SWAP1 PUSH2 0x3417 JUMP JUMPDEST PUSH1 0x40 MLOAD PUSH1 0x1 PUSH1 0x1 PUSH1 0xE0 SHL SUB NOT PUSH1 0xE0 DUP5 SWAP1 SHL AND DUP2 MSTORE PUSH1 0x1 PUSH1 0x1 PUSH1 0xA0 SHL SUB SWAP1 SWAP2 AND PUSH1 0x4 DUP3 ADD MSTORE PUSH1 0x0 NOT PUSH1 0x24 DUP3 ADD MSTORE PUSH1 0x44 ADD PUSH1 0x20 PUSH1 0x40 MLOAD DUP1 DUP4 SUB DUP2 PUSH1 0x0 DUP8 DUP1 EXTCODESIZE ISZERO DUP1 ISZERO PUSH2 0x1A32 JUMPI PUSH1 0x0 DUP1 REVERT JUMPDEST POP GAS CALL ISZERO DUP1 ISZERO PUSH2 0x1A46 JUMPI RETURNDATASIZE PUSH1 0x0 DUP1 RETURNDATACOPY RETURNDATASIZE PUSH1 0x0 REVERT JUMPDEST POP POP POP POP PUSH1 0x40 MLOAD RETURNDATASIZE PUSH1 0x1F NOT PUSH1 0x1F DUP3 ADD AND DUP3 ADD DUP1 PUSH1 0x40 MSTORE POP DUP2 ADD SWAP1 PUSH2 0x1A6A SWAP2 SWAP1 PUSH2 0x3554 JUMP JUMPDEST POP PUSH1 0x1 DUP1 PUSH1 0x0 DUP6 DUP6 PUSH1 0x3 DUP2 DUP2 LT PUSH2 0x1A83 JUMPI PUSH2 0x1A83 PUSH2 0x39F5 JUMP JUMPDEST SWAP1 POP PUSH1 0x20 MUL ADD PUSH1 0x20 DUP2 ADD SWAP1 PUSH2 0x1A98 SWAP2 SWAP1 PUSH2 0x3417 JUMP JUMPDEST PUSH1 0x1 PUSH1 0x1 PUSH1 0xA0 SHL SUB AND PUSH1 0x1 PUSH1 0x1 PUSH1 0xA0 SHL SUB AND DUP2 MSTORE PUSH1 0x20 ADD SWAP1 DUP2 MSTORE PUSH1 0x20 ADD PUSH1 0x0 KECCAK256 PUSH1 0x0 DUP6 DUP6 PUSH1 0x0 DUP2 DUP2 LT PUSH2 0x1ACD JUMPI PUSH2 0x1ACD PUSH2 0x39F5 JUMP JUMPDEST SWAP1 POP PUSH1 0x20 MUL ADD PUSH1 0x20 DUP2 ADD SWAP1 PUSH2 0x1AE2 SWAP2 SWAP1 PUSH2 0x3417 JUMP JUMPDEST PUSH1 0x1 PUSH1 0x1 PUSH1 0xA0 SHL SUB AND DUP2 MSTORE PUSH1 0x20 DUP2 ADD SWAP2 SWAP1 SWAP2 MSTORE PUSH1 0x40 ADD PUSH1 0x0 KECCAK256 DUP1 SLOAD PUSH1 0xFF NOT AND SWAP2 ISZERO ISZERO SWAP2 SWAP1 SWAP2 OR SWAP1 SSTORE JUMPDEST PUSH1 0x0 DUP9 PUSH1 0x1 PUSH1 0x1 PUSH1 0xA0 SHL SUB AND PUSH4 0xDFE1681 PUSH1 0x40 MLOAD DUP2 PUSH4 0xFFFFFFFF AND PUSH1 0xE0 SHL DUP2 MSTORE PUSH1 0x4 ADD PUSH1 0x20 PUSH1 0x40 MLOAD DUP1 DUP4 SUB DUP2 DUP7 DUP1 EXTCODESIZE ISZERO DUP1 ISZERO PUSH2 0x1B46 JUMPI PUSH1 0x0 DUP1 REVERT JUMPDEST POP GAS STATICCALL ISZERO DUP1 ISZERO PUSH2 0x1B5A JUMPI RETURNDATASIZE PUSH1 0x0 DUP1 RETURNDATACOPY RETURNDATASIZE PUSH1 0x0 REVERT JUMPDEST POP POP POP POP PUSH1 0x40 MLOAD RETURNDATASIZE PUSH1 0x1F NOT PUSH1 0x1F DUP3 ADD AND DUP3 ADD DUP1 PUSH1 0x40 MSTORE POP DUP2 ADD SWAP1 PUSH2 0x1B7E SWAP2 SWAP1 PUSH2 0x3434 JUMP JUMPDEST SWAP1 POP PUSH1 0x0 DUP10 PUSH1 0x1 PUSH1 0x1 PUSH1 0xA0 SHL SUB AND PUSH4 0xD21220A7 PUSH1 0x40 MLOAD DUP2 PUSH4 0xFFFFFFFF AND PUSH1 0xE0 SHL DUP2 MSTORE PUSH1 0x4 ADD PUSH1 0x20 PUSH1 0x40 MLOAD DUP1 DUP4 SUB DUP2 DUP7 DUP1 EXTCODESIZE ISZERO DUP1 ISZERO PUSH2 0x1BBB JUMPI PUSH1 0x0 DUP1 REVERT JUMPDEST POP GAS STATICCALL ISZERO DUP1 ISZERO PUSH2 0x1BCF JUMPI RETURNDATASIZE PUSH1 0x0 DUP1 RETURNDATACOPY RETURNDATASIZE PUSH1 0x0 REVERT JUMPDEST POP POP POP POP PUSH1 0x40 MLOAD RETURNDATASIZE PUSH1 0x1F NOT PUSH1 0x1F DUP3 ADD AND DUP3 ADD DUP1 PUSH1 0x40 MSTORE POP DUP2 ADD SWAP1 PUSH2 0x1BF3 SWAP2 SWAP1 PUSH2 0x3434 JUMP JUMPDEST SWAP1 POP PUSH1 0x0 DUP3 PUSH1 0x1 PUSH1 0x1 PUSH1 0xA0 SHL SUB AND DUP7 DUP7 PUSH1 0x3 DUP2 DUP2 LT PUSH2 0x1C14 JUMPI PUSH2 0x1C14 PUSH2 0x39F5 JUMP JUMPDEST SWAP1 POP PUSH1 0x20 MUL ADD PUSH1 0x20 DUP2 ADD SWAP1 PUSH2 0x1C29 SWAP2 SWAP1 PUSH2 0x3417 JUMP JUMPDEST PUSH1 0x1 PUSH1 0x1 PUSH1 0xA0 SHL SUB AND EQ PUSH2 0x1C3E JUMPI PUSH1 0x0 PUSH2 0x1C40 JUMP JUMPDEST DUP4 JUMPDEST SWAP1 POP PUSH1 0x0 DUP3 PUSH1 0x1 PUSH1 0x1 PUSH1 0xA0 SHL SUB AND DUP8 DUP8 PUSH1 0x3 DUP2 DUP2 LT PUSH2 0x1C61 JUMPI PUSH2 0x1C61 PUSH2 0x39F5 JUMP JUMPDEST SWAP1 POP PUSH1 0x20 MUL ADD PUSH1 0x20 DUP2 ADD SWAP1 PUSH2 0x1C76 SWAP2 SWAP1 PUSH2 0x3417 JUMP JUMPDEST PUSH1 0x1 PUSH1 0x1 PUSH1 0xA0 SHL SUB AND EQ PUSH2 0x1C8B JUMPI PUSH1 0x0 PUSH2 0x1C8D JUMP JUMPDEST DUP5 JUMPDEST SWAP1 POP PUSH1 0x0 DUP14 DUP14 DUP14 DUP14 DUP14 DUP14 DUP14 DUP14 DUP14 PUSH1 0x40 MLOAD PUSH1 0x20 ADD PUSH2 0x1CB2 SWAP10 SWAP9 SWAP8 SWAP7 SWAP6 SWAP5 SWAP4 SWAP3 SWAP2 SWAP1 PUSH2 0x3860 JUMP JUMPDEST PUSH1 0x40 DUP1 MLOAD PUSH1 0x1F NOT DUP2 DUP5 SUB ADD DUP2 MSTORE SWAP1 DUP3 SWAP1 MSTORE PUSH4 0x22C0D9F PUSH1 0xE0 SHL DUP3 MSTORE SWAP2 POP PUSH1 0x1 PUSH1 0x1 PUSH1 0xA0 SHL SUB DUP15 AND SWAP1 PUSH4 0x22C0D9F SWAP1 PUSH2 0x1CF4 SWAP1 DUP7 SWAP1 DUP7 SWAP1 ADDRESS SWAP1 DUP8 SWAP1 PUSH1 0x4 ADD PUSH2 0x38CA JUMP JUMPDEST PUSH1 0x0 PUSH1 0x40 MLOAD DUP1 DUP4 SUB DUP2 PUSH1 0x0 DUP8 DUP1 EXTCODESIZE ISZERO DUP1 ISZERO PUSH2 0x1D0E JUMPI PUSH1 0x0 DUP1 REVERT JUMPDEST POP GAS CALL ISZERO DUP1 ISZERO PUSH2 0x1D22 JUMPI RETURNDATASIZE PUSH1 0x0 DUP1 RETURNDATACOPY RETURNDATASIZE PUSH1 0x0 REVERT JUMPDEST POP POP POP POP POP POP POP POP POP POP POP POP POP POP POP POP POP POP JUMP JUMPDEST PUSH1 0x0 SLOAD PUSH1 0x1 PUSH1 0x1 PUSH1 0xA0 SHL SUB AND CALLER EQ PUSH2 0x1D60 JUMPI PUSH1 0x40 MLOAD PUSH3 0x461BCD PUSH1 0xE5 SHL DUP2 MSTORE PUSH1 0x4 ADD PUSH2 0x1F2 SWAP1 PUSH2 0x37E5 JUMP JUMPDEST PUSH1 0x1 PUSH1 0x1 PUSH1 0xA0 SHL SUB DUP4 AND PUSH2 0x1DB6 JUMPI PUSH1 0x40 MLOAD PUSH3 0x461BCD PUSH1 0xE5 SHL DUP2 MSTORE PUSH1 0x20 PUSH1 0x4 DUP3 ADD MSTORE PUSH1 0x1E PUSH1 0x24 DUP3 ADD MSTORE PUSH32 0x746F6B656E206D757374206E6F74206265207A65726F20616464726573730000 PUSH1 0x44 DUP3 ADD MSTORE PUSH1 0x64 ADD PUSH2 0x1F2 JUMP JUMPDEST PUSH1 0x1 PUSH1 0x1 PUSH1 0xA0 SHL SUB DUP3 AND PUSH2 0x1E0C JUMPI PUSH1 0x40 MLOAD PUSH3 0x461BCD PUSH1 0xE5 SHL DUP2 MSTORE PUSH1 0x20 PUSH1 0x4 DUP3 ADD MSTORE PUSH1 0x1B PUSH1 0x24 DUP3 ADD MSTORE PUSH32 0x746F206D757374206E6F74206265207A65726F20616464726573730000000000 PUSH1 0x44 DUP3 ADD MSTORE PUSH1 0x64 ADD PUSH2 0x1F2 JUMP JUMPDEST PUSH1 0x0 DUP2 GT PUSH2 0x1E5C JUMPI PUSH1 0x40 MLOAD PUSH3 0x461BCD PUSH1 0xE5 SHL DUP2 MSTORE PUSH1 0x20 PUSH1 0x4 DUP3 ADD MSTORE PUSH1 0x1C PUSH1 0x24 DUP3 ADD MSTORE PUSH32 0x616D6F756E74206D75737420626967676572207468616E207A65726F00000000 PUSH1 0x44 DUP3 ADD MSTORE PUSH1 0x64 ADD PUSH2 0x1F2 JUMP JUMPDEST PUSH1 0x40 MLOAD PUSH4 0xA9059CBB PUSH1 0xE0 SHL DUP2 MSTORE PUSH1 0x1 PUSH1 0x1 PUSH1 0xA0 SHL SUB DUP4 DUP2 AND PUSH1 0x4 DUP4 ADD MSTORE PUSH1 0x24 DUP3 ADD DUP4 SWAP1 MSTORE DUP5 AND SWAP1 PUSH4 0xA9059CBB SWAP1 PUSH1 0x44 ADD PUSH1 0x20 PUSH1 0x40 MLOAD DUP1 DUP4 SUB DUP2 PUSH1 0x0 DUP8 DUP1 EXTCODESIZE ISZERO DUP1 ISZERO PUSH2 0x1EA6 JUMPI PUSH1 0x0 DUP1 REVERT JUMPDEST POP GAS CALL ISZERO DUP1 ISZERO PUSH2 0x1EBA JUMPI RETURNDATASIZE PUSH1 0x0 DUP1 RETURNDATACOPY RETURNDATASIZE PUSH1 0x0 REVERT JUMPDEST POP POP POP POP PUSH1 0x40 MLOAD RETURNDATASIZE PUSH1 0x1F NOT PUSH1 0x1F DUP3 ADD AND DUP3 ADD DUP1 PUSH1 0x40 MSTORE POP DUP2 ADD SWAP1 PUSH2 0x1EDE SWAP2 SWAP1 PUSH2 0x3554 JUMP JUMPDEST POP DUP2 PUSH1 0x1 PUSH1 0x1 PUSH1 0xA0 SHL SUB AND DUP4 PUSH1 0x1 PUSH1 0x1 PUSH1 0xA0 SHL SUB AND PUSH32 0x9B1BFA7FA9EE420A16E124F794C35AC9F90472ACC99140EB2F6447C714CAD8EB DUP4 PUSH1 0x40 MLOAD PUSH2 0x1F24 SWAP2 DUP2 MSTORE PUSH1 0x20 ADD SWAP1 JUMP JUMPDEST PUSH1 0x40 MLOAD DUP1 SWAP2 SUB SWAP1 LOG3 POP POP POP JUMP JUMPDEST PUSH1 0x40 MLOAD PUSH4 0x15E3F14F PUSH1 0xE1 SHL DUP2 MSTORE PUSH1 0x1 PUSH1 0x1 PUSH1 0xA0 SHL SUB DUP3 AND PUSH1 0x4 DUP3 ADD MSTORE PUSH1 0x0 SWAP1 PUSH20 0xFD36E2C2A6789DB23113685031D7F16329158384 SWAP1 PUSH4 0x2BC7E29E SWAP1 PUSH1 0x24 ADD PUSH1 0x20 PUSH1 0x40 MLOAD DUP1 DUP4 SUB DUP2 DUP7 DUP1 EXTCODESIZE ISZERO DUP1 ISZERO PUSH2 0x1F87 JUMPI PUSH1 0x0 DUP1 REVERT JUMPDEST POP GAS STATICCALL ISZERO DUP1 ISZERO PUSH2 0x1F9B JUMPI RETURNDATASIZE PUSH1 0x0 DUP1 RETURNDATACOPY RETURNDATASIZE PUSH1 0x0 REVERT JUMPDEST POP POP POP POP PUSH1 0x40 MLOAD RETURNDATASIZE PUSH1 0x1F NOT PUSH1 0x1F DUP3 ADD AND DUP3 ADD DUP1 PUSH1 0x40 MSTORE POP DUP2 ADD SWAP1 PUSH2 0x1FBF SWAP2 SWAP1 PUSH2 0x35C6 JUMP JUMPDEST SWAP3 SWAP2 POP POP JUMP JUMPDEST PUSH1 0x0 SLOAD PUSH1 0x1 PUSH1 0x1 PUSH1 0xA0 SHL SUB AND CALLER EQ PUSH2 0x1FEF JUMPI PUSH1 0x40 MLOAD PUSH3 0x461BCD PUSH1 0xE5 SHL DUP2 MSTORE PUSH1 0x4 ADD PUSH2 0x1F2 SWAP1 PUSH2 0x37E5 JUMP JUMPDEST PUSH1 0x1 PUSH1 0x1 PUSH1 0xA0 SHL SUB DUP2 AND PUSH2 0x2054 JUMPI PUSH1 0x40 MLOAD PUSH3 0x461BCD PUSH1 0xE5 SHL DUP2 MSTORE PUSH1 0x20 PUSH1 0x4 DUP3 ADD MSTORE PUSH1 0x26 PUSH1 0x24 DUP3 ADD MSTORE PUSH32 0x4F776E61626C653A206E6577206F776E657220697320746865207A65726F2061 PUSH1 0x44 DUP3 ADD MSTORE PUSH6 0x646472657373 PUSH1 0xD0 SHL PUSH1 0x64 DUP3 ADD MSTORE PUSH1 0x84 ADD PUSH2 0x1F2 JUMP JUMPDEST PUSH2 0x205D DUP2 PUSH2 0x2060 JUMP JUMPDEST POP JUMP JUMPDEST PUSH1 0x0 DUP1 SLOAD PUSH1 0x1 PUSH1 0x1 PUSH1 0xA0 SHL SUB DUP4 DUP2 AND PUSH1 0x1 PUSH1 0x1 PUSH1 0xA0 SHL SUB NOT DUP4 AND DUP2 OR DUP5 SSTORE PUSH1 0x40 MLOAD SWAP2 SWAP1 SWAP3 AND SWAP3 DUP4 SWAP2 PUSH32 0x8BE0079C531659141344CD1FD0A4F28419497F9722A3DAAFE3B4186F6B6457E0 SWAP2 SWAP1 LOG3 POP POP JUMP JUMPDEST PUSH1 0x0 PUSH1 0x1 PUSH1 0x1 PUSH1 0xA0 SHL SUB DUP3 AND PUSH20 0x95C78222B3D6E262426483D42CFA53685A67AB9D EQ DUP1 PUSH2 0x20F9 JUMPI POP PUSH1 0x1 PUSH1 0x1 PUSH1 0xA0 SHL SUB DUP3 AND PUSH20 0xFD5840CD36D94D7229439859C0112A4185BC0255 EQ JUMPDEST DUP1 PUSH2 0x1FBF JUMPI POP PUSH1 0x1 PUSH1 0x1 PUSH1 0xA0 SHL SUB DUP3 AND PUSH20 0x334B3ECB4DCA3593BCCC3C7EBD1A1C1D1780FBF1 EQ SWAP3 SWAP2 POP POP JUMP JUMPDEST PUSH1 0x40 MLOAD PUSH4 0x70A08231 PUSH1 0xE0 SHL DUP2 MSTORE ADDRESS PUSH1 0x4 DUP3 ADD MSTORE PUSH1 0x0 SWAP1 DUP2 SWAP1 DUP6 SWAP1 DUP3 SWAP1 DUP2 SWAP1 DUP2 SWAP1 PUSH1 0x1 PUSH1 0x1 PUSH1 0xA0 SHL SUB DUP6 AND SWAP1 PUSH4 0x70A08231 SWAP1 PUSH1 0x24 ADD PUSH1 0x20 PUSH1 0x40 MLOAD DUP1 DUP4 SUB DUP2 DUP7 DUP1 EXTCODESIZE ISZERO DUP1 ISZERO PUSH2 0x2171 JUMPI PUSH1 0x0 DUP1 REVERT JUMPDEST POP GAS STATICCALL ISZERO DUP1 ISZERO PUSH2 0x2185 JUMPI RETURNDATASIZE PUSH1 0x0 DUP1 RETURNDATACOPY RETURNDATASIZE PUSH1 0x0 REVERT JUMPDEST POP POP POP POP PUSH1 0x40 MLOAD RETURNDATASIZE PUSH1 0x1F NOT PUSH1 0x1F DUP3 ADD AND DUP3 ADD DUP1 PUSH1 0x40 MSTORE POP DUP2 ADD SWAP1 PUSH2 0x21A9 SWAP2 SWAP1 PUSH2 0x35C6 JUMP JUMPDEST SWAP1 POP PUSH20 0xA07C5B74C9B40447A954E1466938B865B6BBEA36 PUSH1 0x1 PUSH1 0x1 PUSH1 0xA0 SHL SUB DUP12 AND EQ ISZERO PUSH2 0x223A JUMPI PUSH1 0x40 MLOAD PUSH4 0x55720515 PUSH1 0xE1 SHL DUP2 MSTORE PUSH1 0x1 PUSH1 0x1 PUSH1 0xA0 SHL SUB DUP10 DUP2 AND PUSH1 0x4 DUP4 ADD MSTORE DUP11 DUP2 AND PUSH1 0x24 DUP4 ADD MSTORE DUP12 AND SWAP1 PUSH4 0xAAE40A2A SWAP1 DUP10 SWAP1 PUSH1 0x44 ADD PUSH1 0x0 PUSH1 0x40 MLOAD DUP1 DUP4 SUB DUP2 DUP6 DUP9 DUP1 EXTCODESIZE ISZERO DUP1 ISZERO PUSH2 0x221C JUMPI PUSH1 0x0 DUP1 REVERT JUMPDEST POP GAS CALL ISZERO DUP1 ISZERO PUSH2 0x2230 JUMPI RETURNDATASIZE PUSH1 0x0 DUP1 RETURNDATACOPY RETURNDATASIZE PUSH1 0x0 REVERT JUMPDEST POP POP POP POP POP PUSH2 0x240B JUMP JUMPDEST PUSH19 0x4065D34C6B18CE4370CED1CEBDE94865DBFAFE PUSH1 0x1 PUSH1 0x1 PUSH1 0xA0 SHL SUB DUP12 AND EQ ISZERO PUSH2 0x2337 JUMPI PUSH1 0x40 MLOAD PUSH4 0x11B3D5E7 PUSH1 0xE0 SHL DUP2 MSTORE PUSH1 0x1 PUSH1 0x1 PUSH1 0xA0 SHL SUB DUP10 DUP2 AND PUSH1 0x4 DUP4 ADD MSTORE PUSH1 0x24 DUP3 ADD DUP10 SWAP1 MSTORE DUP6 DUP2 AND PUSH1 0x44 DUP4 ADD MSTORE DUP12 AND SWAP1 PUSH4 0x11B3D5E7 SWAP1 PUSH1 0x64 ADD PUSH1 0x40 DUP1 MLOAD DUP1 DUP4 SUB DUP2 PUSH1 0x0 DUP8 DUP1 EXTCODESIZE ISZERO DUP1 ISZERO PUSH2 0x22AF JUMPI PUSH1 0x0 DUP1 REVERT JUMPDEST POP GAS CALL ISZERO DUP1 ISZERO PUSH2 0x22C3 JUMPI RETURNDATASIZE PUSH1 0x0 DUP1 RETURNDATACOPY RETURNDATASIZE PUSH1 0x0 REVERT JUMPDEST POP POP POP POP PUSH1 0x40 MLOAD RETURNDATASIZE PUSH1 0x1F NOT PUSH1 0x1F DUP3 ADD AND DUP3 ADD DUP1 PUSH1 0x40 MSTORE POP DUP2 ADD SWAP1 PUSH2 0x22E7 SWAP2 SWAP1 PUSH2 0x374A JUMP JUMPDEST SWAP1 SWAP4 POP SWAP2 POP DUP3 ISZERO PUSH2 0x2332 JUMPI PUSH1 0x40 MLOAD PUSH3 0x461BCD PUSH1 0xE5 SHL DUP2 MSTORE PUSH1 0x20 PUSH1 0x4 DUP3 ADD MSTORE PUSH1 0x15 PUSH1 0x24 DUP3 ADD MSTORE PUSH21 0x3634B8BAB4B230BA32A137B93937BB9032B93937B9 PUSH1 0x59 SHL PUSH1 0x44 DUP3 ADD MSTORE PUSH1 0x64 ADD PUSH2 0x1F2 JUMP JUMPDEST PUSH2 0x240B JUMP JUMPDEST PUSH1 0x40 MLOAD PUSH4 0x7AF1E231 PUSH1 0xE1 SHL DUP2 MSTORE PUSH1 0x1 PUSH1 0x1 PUSH1 0xA0 SHL SUB DUP10 DUP2 AND PUSH1 0x4 DUP4 ADD MSTORE PUSH1 0x24 DUP3 ADD DUP10 SWAP1 MSTORE DUP6 DUP2 AND PUSH1 0x44 DUP4 ADD MSTORE DUP12 SWAP2 SWAP1 DUP3 AND SWAP1 PUSH4 0xF5E3C462 SWAP1 PUSH1 0x64 ADD PUSH1 0x20 PUSH1 0x40 MLOAD DUP1 DUP4 SUB DUP2 PUSH1 0x0 DUP8 DUP1 EXTCODESIZE ISZERO DUP1 ISZERO PUSH2 0x238C JUMPI PUSH1 0x0 DUP1 REVERT JUMPDEST POP GAS CALL ISZERO DUP1 ISZERO PUSH2 0x23A0 JUMPI RETURNDATASIZE PUSH1 0x0 DUP1 RETURNDATACOPY RETURNDATASIZE PUSH1 0x0 REVERT JUMPDEST POP POP POP POP PUSH1 0x40 MLOAD RETURNDATASIZE PUSH1 0x1F NOT PUSH1 0x1F DUP3 ADD AND DUP3 ADD DUP1 PUSH1 0x40 MSTORE POP DUP2 ADD SWAP1 PUSH2 0x23C4 SWAP2 SWAP1 PUSH2 0x35C6 JUMP JUMPDEST ISZERO PUSH2 0x2409 JUMPI PUSH1 0x40 MLOAD PUSH3 0x461BCD PUSH1 0xE5 SHL DUP2 MSTORE PUSH1 0x20 PUSH1 0x4 DUP3 ADD MSTORE PUSH1 0x15 PUSH1 0x24 DUP3 ADD MSTORE PUSH21 0x3634B8BAB4B230BA32A137B93937BB9032B93937B9 PUSH1 0x59 SHL PUSH1 0x44 DUP3 ADD MSTORE PUSH1 0x64 ADD PUSH2 0x1F2 JUMP JUMPDEST POP JUMPDEST PUSH1 0x40 MLOAD PUSH4 0x70A08231 PUSH1 0xE0 SHL DUP2 MSTORE ADDRESS PUSH1 0x4 DUP3 ADD MSTORE PUSH1 0x0 SWAP1 PUSH1 0x1 PUSH1 0x1 PUSH1 0xA0 SHL SUB DUP7 AND SWAP1 PUSH4 0x70A08231 SWAP1 PUSH1 0x24 ADD PUSH1 0x20 PUSH1 0x40 MLOAD DUP1 DUP4 SUB DUP2 DUP7 DUP1 EXTCODESIZE ISZERO DUP1 ISZERO PUSH2 0x244D JUMPI PUSH1 0x0 DUP1 REVERT JUMPDEST POP GAS STATICCALL ISZERO DUP1 ISZERO PUSH2 0x2461 JUMPI RETURNDATASIZE PUSH1 0x0 DUP1 RETURNDATACOPY RETURNDATASIZE PUSH1 0x0 REVERT JUMPDEST POP POP POP POP PUSH1 0x40 MLOAD RETURNDATASIZE PUSH1 0x1F NOT PUSH1 0x1F DUP3 ADD AND DUP3 ADD DUP1 PUSH1 0x40 MSTORE POP DUP2 ADD SWAP1 PUSH2 0x2485 SWAP2 SWAP1 PUSH2 0x35C6 JUMP JUMPDEST SWAP1 POP PUSH1 0x0 PUSH2 0x2493 DUP4 DUP4 PUSH2 0x3996 JUMP JUMPDEST SWAP1 POP PUSH1 0x0 DUP2 GT PUSH2 0x24E5 JUMPI PUSH1 0x40 MLOAD PUSH3 0x461BCD PUSH1 0xE5 SHL DUP2 MSTORE PUSH1 0x20 PUSH1 0x4 DUP3 ADD MSTORE PUSH1 0x1C PUSH1 0x24 DUP3 ADD MSTORE PUSH32 0x7365697A65642056546F6B656E20616D6F756E74206973207A65726F00000000 PUSH1 0x44 DUP3 ADD MSTORE PUSH1 0x64 ADD PUSH2 0x1F2 JUMP JUMPDEST PUSH1 0x40 DUP1 MLOAD DUP11 DUP2 MSTORE PUSH1 0x20 DUP2 ADD DUP7 SWAP1 MSTORE SWAP1 DUP2 ADD DUP3 SWAP1 MSTORE PUSH32 0xFDE0EB536FECEE7FCA644722FC2E6255EE0571307AB7F46F7FEA23FE302D4479 SWAP1 PUSH1 0x60 ADD PUSH1 0x40 MLOAD DUP1 SWAP2 SUB SWAP1 LOG1 SWAP12 SWAP3 SWAP11 POP SWAP2 SWAP9 POP POP POP POP POP POP POP POP POP JUMP JUMPDEST PUSH1 0x0 DUP1 DUP1 DUP1 PUSH20 0xA07C5B74C9B40447A954E1466938B865B6BBEA36 PUSH1 0x1 PUSH1 0x1 PUSH1 0xA0 SHL SUB DUP9 AND EQ ISZERO PUSH2 0x2624 JUMPI PUSH1 0x40 MLOAD PUSH4 0xDB006A75 PUSH1 0xE0 SHL DUP2 MSTORE PUSH1 0x4 DUP2 ADD DUP7 SWAP1 MSTORE SELFBALANCE SWAP4 POP PUSH1 0x1 PUSH1 0x1 PUSH1 0xA0 SHL SUB DUP9 AND SWAP1 PUSH4 0xDB006A75 SWAP1 PUSH1 0x24 ADD PUSH1 0x20 PUSH1 0x40 MLOAD DUP1 DUP4 SUB DUP2 PUSH1 0x0 DUP8 DUP1 EXTCODESIZE ISZERO DUP1 ISZERO PUSH2 0x25A6 JUMPI PUSH1 0x0 DUP1 REVERT JUMPDEST POP GAS CALL ISZERO DUP1 ISZERO PUSH2 0x25BA JUMPI RETURNDATASIZE PUSH1 0x0 DUP1 RETURNDATACOPY RETURNDATASIZE PUSH1 0x0 REVERT JUMPDEST POP POP POP POP PUSH1 0x40 MLOAD RETURNDATASIZE PUSH1 0x1F NOT PUSH1 0x1F DUP3 ADD AND DUP3 ADD DUP1 PUSH1 0x40 MSTORE POP DUP2 ADD SWAP1 PUSH2 0x25DE SWAP2 SWAP1 PUSH2 0x35C6 JUMP JUMPDEST ISZERO PUSH2 0x261C JUMPI PUSH1 0x40 MLOAD PUSH3 0x461BCD PUSH1 0xE5 SHL DUP2 MSTORE PUSH1 0x20 PUSH1 0x4 DUP3 ADD MSTORE PUSH1 0xE PUSH1 0x24 DUP3 ADD MSTORE PUSH14 0x3932B232B2B6902127211032B939 PUSH1 0x91 SHL PUSH1 0x44 DUP3 ADD MSTORE PUSH1 0x64 ADD PUSH2 0x1F2 JUMP JUMPDEST SELFBALANCE SWAP2 POP PUSH2 0x27D4 JUMP JUMPDEST PUSH1 0x40 MLOAD PUSH4 0x70A08231 PUSH1 0xE0 SHL DUP2 MSTORE ADDRESS PUSH1 0x4 DUP3 ADD MSTORE DUP8 SWAP1 DUP8 SWAP1 PUSH1 0x1 PUSH1 0x1 PUSH1 0xA0 SHL SUB DUP3 AND SWAP1 PUSH4 0x70A08231 SWAP1 PUSH1 0x24 ADD PUSH1 0x20 PUSH1 0x40 MLOAD DUP1 DUP4 SUB DUP2 DUP7 DUP1 EXTCODESIZE ISZERO DUP1 ISZERO PUSH2 0x2667 JUMPI PUSH1 0x0 DUP1 REVERT JUMPDEST POP GAS STATICCALL ISZERO DUP1 ISZERO PUSH2 0x267B JUMPI RETURNDATASIZE PUSH1 0x0 DUP1 RETURNDATACOPY RETURNDATASIZE PUSH1 0x0 REVERT JUMPDEST POP POP POP POP PUSH1 0x40 MLOAD RETURNDATASIZE PUSH1 0x1F NOT PUSH1 0x1F DUP3 ADD AND DUP3 ADD DUP1 PUSH1 0x40 MSTORE POP DUP2 ADD SWAP1 PUSH2 0x269F SWAP2 SWAP1 PUSH2 0x35C6 JUMP JUMPDEST PUSH1 0x40 MLOAD PUSH4 0xDB006A75 PUSH1 0xE0 SHL DUP2 MSTORE PUSH1 0x4 DUP2 ADD DUP10 SWAP1 MSTORE SWAP1 SWAP6 POP PUSH1 0x1 PUSH1 0x1 PUSH1 0xA0 SHL SUB DUP4 AND SWAP1 PUSH4 0xDB006A75 SWAP1 PUSH1 0x24 ADD PUSH1 0x20 PUSH1 0x40 MLOAD DUP1 DUP4 SUB DUP2 PUSH1 0x0 DUP8 DUP1 EXTCODESIZE ISZERO DUP1 ISZERO PUSH2 0x26E4 JUMPI PUSH1 0x0 DUP1 REVERT JUMPDEST POP GAS CALL ISZERO DUP1 ISZERO PUSH2 0x26F8 JUMPI RETURNDATASIZE PUSH1 0x0 DUP1 RETURNDATACOPY RETURNDATASIZE PUSH1 0x0 REVERT JUMPDEST POP POP POP POP PUSH1 0x40 MLOAD RETURNDATASIZE PUSH1 0x1F NOT PUSH1 0x1F DUP3 ADD AND DUP3 ADD DUP1 PUSH1 0x40 MSTORE POP DUP2 ADD SWAP1 PUSH2 0x271C SWAP2 SWAP1 PUSH2 0x35C6 JUMP JUMPDEST ISZERO PUSH2 0x2758 JUMPI PUSH1 0x40 MLOAD PUSH3 0x461BCD PUSH1 0xE5 SHL DUP2 MSTORE PUSH1 0x20 PUSH1 0x4 DUP3 ADD MSTORE PUSH1 0xC PUSH1 0x24 DUP3 ADD MSTORE PUSH12 0x3932B232B2B69032B93937B9 PUSH1 0xA1 SHL PUSH1 0x44 DUP3 ADD MSTORE PUSH1 0x64 ADD PUSH2 0x1F2 JUMP JUMPDEST PUSH1 0x40 MLOAD PUSH4 0x70A08231 PUSH1 0xE0 SHL DUP2 MSTORE ADDRESS PUSH1 0x4 DUP3 ADD MSTORE PUSH1 0x1 PUSH1 0x1 PUSH1 0xA0 SHL SUB DUP3 AND SWAP1 PUSH4 0x70A08231 SWAP1 PUSH1 0x24 ADD PUSH1 0x20 PUSH1 0x40 MLOAD DUP1 DUP4 SUB DUP2 DUP7 DUP1 EXTCODESIZE ISZERO DUP1 ISZERO PUSH2 0x2797 JUMPI PUSH1 0x0 DUP1 REVERT JUMPDEST POP GAS STATICCALL ISZERO DUP1 ISZERO PUSH2 0x27AB JUMPI RETURNDATASIZE PUSH1 0x0 DUP1 RETURNDATACOPY RETURNDATASIZE PUSH1 0x0 REVERT JUMPDEST POP POP POP POP PUSH1 0x40 MLOAD RETURNDATASIZE PUSH1 0x1F NOT PUSH1 0x1F DUP3 ADD AND DUP3 ADD DUP1 PUSH1 0x40 MSTORE POP DUP2 ADD SWAP1 PUSH2 0x27CF SWAP2 SWAP1 PUSH2 0x35C6 JUMP JUMPDEST SWAP4 POP POP POP JUMPDEST PUSH2 0x27DE DUP4 DUP4 PUSH2 0x3996 JUMP JUMPDEST PUSH1 0x40 DUP1 MLOAD DUP8 DUP2 MSTORE PUSH1 0x20 DUP2 ADD DUP4 SWAP1 MSTORE SWAP2 SWAP3 POP PUSH32 0x2A500C424B9E55CA96EF57F09281232662A42069DE49730505B2BBD019412DCF SWAP2 ADD PUSH1 0x40 MLOAD DUP1 SWAP2 SUB SWAP1 LOG1 SWAP3 POP POP POP JUMPDEST SWAP4 SWAP3 POP POP POP JUMP JUMPDEST PUSH1 0x60 PUSH2 0x2847 PUSH20 0xCA143CE32FE78F1F7019D7D551A6402FC5350C73 DUP6 DUP6 PUSH2 0x2990 JUMP JUMPDEST SWAP1 POP DUP3 PUSH1 0x0 DUP2 MLOAD DUP2 LT PUSH2 0x285C JUMPI PUSH2 0x285C PUSH2 0x39F5 JUMP JUMPDEST PUSH1 0x20 MUL PUSH1 0x20 ADD ADD MLOAD PUSH1 0x1 PUSH1 0x1 PUSH1 0xA0 SHL SUB AND PUSH4 0xA9059CBB PUSH2 0x28C5 PUSH20 0xCA143CE32FE78F1F7019D7D551A6402FC5350C73 DUP7 PUSH1 0x0 DUP2 MLOAD DUP2 LT PUSH2 0x289D JUMPI PUSH2 0x289D PUSH2 0x39F5 JUMP JUMPDEST PUSH1 0x20 MUL PUSH1 0x20 ADD ADD MLOAD DUP8 PUSH1 0x1 DUP2 MLOAD DUP2 LT PUSH2 0x28B8 JUMPI PUSH2 0x28B8 PUSH2 0x39F5 JUMP JUMPDEST PUSH1 0x20 MUL PUSH1 0x20 ADD ADD MLOAD PUSH2 0x2B1B JUMP JUMPDEST DUP4 PUSH1 0x0 DUP2 MLOAD DUP2 LT PUSH2 0x28D8 JUMPI PUSH2 0x28D8 PUSH2 0x39F5 JUMP JUMPDEST PUSH1 0x20 MUL PUSH1 0x20 ADD ADD MLOAD PUSH1 0x40 MLOAD DUP4 PUSH4 0xFFFFFFFF AND PUSH1 0xE0 SHL DUP2 MSTORE PUSH1 0x4 ADD PUSH2 0x2911 SWAP3 SWAP2 SWAP1 PUSH1 0x1 PUSH1 0x1 PUSH1 0xA0 SHL SUB SWAP3 SWAP1 SWAP3 AND DUP3 MSTORE PUSH1 0x20 DUP3 ADD MSTORE PUSH1 0x40 ADD SWAP1 JUMP JUMPDEST PUSH1 0x20 PUSH1 0x40 MLOAD DUP1 DUP4 SUB DUP2 PUSH1 0x0 DUP8 DUP1 EXTCODESIZE ISZERO DUP1 ISZERO PUSH2 0x292B JUMPI PUSH1 0x0 DUP1 REVERT JUMPDEST POP GAS CALL ISZERO DUP1 ISZERO PUSH2 0x293F JUMPI RETURNDATASIZE PUSH1 0x0 DUP1 RETURNDATACOPY RETURNDATASIZE PUSH1 0x0 REVERT JUMPDEST POP POP POP POP PUSH1 0x40 MLOAD RETURNDATASIZE PUSH1 0x1F NOT PUSH1 0x1F DUP3 ADD AND DUP3 ADD DUP1 PUSH1 0x40 MSTORE POP DUP2 ADD SWAP1 PUSH2 0x2963 SWAP2 SWAP1 PUSH2 0x3554 JUMP JUMPDEST POP PUSH2 0x281F DUP2 DUP5 DUP5 PUSH2 0x2BF3 JUMP JUMPDEST PUSH1 0x60 PUSH2 0x2847 PUSH20 0xCA143CE32FE78F1F7019D7D551A6402FC5350C73 DUP6 DUP6 PUSH2 0x2DD0 JUMP JUMPDEST PUSH1 0x60 PUSH1 0x2 DUP3 MLOAD LT ISZERO PUSH2 0x29E4 JUMPI PUSH1 0x40 MLOAD PUSH3 0x461BCD PUSH1 0xE5 SHL DUP2 MSTORE PUSH1 0x20 PUSH1 0x4 DUP3 ADD MSTORE PUSH1 0x1C PUSH1 0x24 DUP3 ADD MSTORE PUSH32 0x50616E63616B654C6962726172793A20494E56414C49445F5041544800000000 PUSH1 0x44 DUP3 ADD MSTORE PUSH1 0x64 ADD PUSH2 0x1F2 JUMP JUMPDEST DUP2 MLOAD PUSH8 0xFFFFFFFFFFFFFFFF DUP2 GT ISZERO PUSH2 0x29FE JUMPI PUSH2 0x29FE PUSH2 0x3A0B JUMP JUMPDEST PUSH1 0x40 MLOAD SWAP1 DUP1 DUP3 MSTORE DUP1 PUSH1 0x20 MUL PUSH1 0x20 ADD DUP3 ADD PUSH1 0x40 MSTORE DUP1 ISZERO PUSH2 0x2A27 JUMPI DUP2 PUSH1 0x20 ADD PUSH1 0x20 DUP3 MUL DUP1 CALLDATASIZE DUP4 CALLDATACOPY ADD SWAP1 POP JUMPDEST POP SWAP1 POP DUP3 DUP2 PUSH1 0x0 DUP2 MLOAD DUP2 LT PUSH2 0x2A3E JUMPI PUSH2 0x2A3E PUSH2 0x39F5 JUMP JUMPDEST PUSH1 0x20 MUL PUSH1 0x20 ADD ADD DUP2 DUP2 MSTORE POP POP PUSH1 0x0 JUMPDEST PUSH1 0x1 DUP4 MLOAD PUSH2 0x2A5B SWAP2 SWAP1 PUSH2 0x3996 JUMP JUMPDEST DUP2 LT ISZERO PUSH2 0x2B13 JUMPI PUSH1 0x0 DUP1 PUSH2 0x2AAE DUP8 DUP7 DUP6 DUP2 MLOAD DUP2 LT PUSH2 0x2A7B JUMPI PUSH2 0x2A7B PUSH2 0x39F5 JUMP JUMPDEST PUSH1 0x20 MUL PUSH1 0x20 ADD ADD MLOAD DUP8 DUP7 PUSH1 0x1 PUSH2 0x2A91 SWAP2 SWAP1 PUSH2 0x393D JUMP JUMPDEST DUP2 MLOAD DUP2 LT PUSH2 0x2AA1 JUMPI PUSH2 0x2AA1 PUSH2 0x39F5 JUMP JUMPDEST PUSH1 0x20 MUL PUSH1 0x20 ADD ADD MLOAD PUSH2 0x2F51 JUMP JUMPDEST SWAP2 POP SWAP2 POP PUSH2 0x2AD6 DUP5 DUP5 DUP2 MLOAD DUP2 LT PUSH2 0x2AC7 JUMPI PUSH2 0x2AC7 PUSH2 0x39F5 JUMP JUMPDEST PUSH1 0x20 MUL PUSH1 0x20 ADD ADD MLOAD DUP4 DUP4 PUSH2 0x3036 JUMP JUMPDEST DUP5 PUSH2 0x2AE2 DUP6 PUSH1 0x1 PUSH2 0x393D JUMP JUMPDEST DUP2 MLOAD DUP2 LT PUSH2 0x2AF2 JUMPI PUSH2 0x2AF2 PUSH2 0x39F5 JUMP JUMPDEST PUSH1 0x20 MUL PUSH1 0x20 ADD ADD DUP2 DUP2 MSTORE POP POP POP POP DUP1 DUP1 PUSH2 0x2B0B SWAP1 PUSH2 0x39C4 JUMP JUMPDEST SWAP2 POP POP PUSH2 0x2A4D JUMP JUMPDEST POP SWAP4 SWAP3 POP POP POP JUMP JUMPDEST PUSH1 0x0 DUP1 PUSH1 0x0 PUSH2 0x2B2A DUP6 DUP6 PUSH2 0x3112 JUMP JUMPDEST PUSH1 0x40 MLOAD PUSH12 0xFFFFFFFFFFFFFFFFFFFFFFFF NOT PUSH1 0x60 DUP5 DUP2 SHL DUP3 AND PUSH1 0x20 DUP5 ADD MSTORE DUP4 SWAP1 SHL AND PUSH1 0x34 DUP3 ADD MSTORE SWAP2 SWAP4 POP SWAP2 POP DUP7 SWAP1 PUSH1 0x48 ADD PUSH1 0x40 MLOAD PUSH1 0x20 DUP2 DUP4 SUB SUB DUP2 MSTORE SWAP1 PUSH1 0x40 MSTORE DUP1 MLOAD SWAP1 PUSH1 0x20 ADD KECCAK256 PUSH1 0x40 MLOAD PUSH1 0x20 ADD PUSH2 0x2BD1 SWAP3 SWAP2 SWAP1 PUSH1 0x1 PUSH1 0x1 PUSH1 0xF8 SHL SUB NOT DUP2 MSTORE PUSH1 0x60 SWAP3 SWAP1 SWAP3 SHL PUSH12 0xFFFFFFFFFFFFFFFFFFFFFFFF NOT AND PUSH1 0x1 DUP4 ADD MSTORE PUSH1 0x15 DUP3 ADD MSTORE PUSH31 0xFB7F630766E6A796048EA87D01ACD3068E8FF67D078148A3FA3F4A84F69BD5 PUSH1 0x35 DUP3 ADD MSTORE PUSH1 0x55 ADD SWAP1 JUMP JUMPDEST PUSH1 0x40 DUP1 MLOAD PUSH1 0x1F NOT DUP2 DUP5 SUB ADD DUP2 MSTORE SWAP2 SWAP1 MSTORE DUP1 MLOAD PUSH1 0x20 SWAP1 SWAP2 ADD KECCAK256 SWAP7 SWAP6 POP POP POP POP POP POP JUMP JUMPDEST PUSH1 0x0 JUMPDEST PUSH1 0x1 DUP4 MLOAD PUSH2 0x2C04 SWAP2 SWAP1 PUSH2 0x3996 JUMP JUMPDEST DUP2 LT ISZERO PUSH2 0x17D4 JUMPI PUSH1 0x0 DUP1 DUP5 DUP4 DUP2 MLOAD DUP2 LT PUSH2 0x2C20 JUMPI PUSH2 0x2C20 PUSH2 0x39F5 JUMP JUMPDEST PUSH1 0x20 MUL PUSH1 0x20 ADD ADD MLOAD DUP6 DUP5 PUSH1 0x1 PUSH2 0x2C36 SWAP2 SWAP1 PUSH2 0x393D JUMP JUMPDEST DUP2 MLOAD DUP2 LT PUSH2 0x2C46 JUMPI PUSH2 0x2C46 PUSH2 0x39F5 JUMP JUMPDEST PUSH1 0x20 MUL PUSH1 0x20 ADD ADD MLOAD SWAP2 POP SWAP2 POP PUSH1 0x0 PUSH2 0x2C5E DUP4 DUP4 PUSH2 0x3112 JUMP JUMPDEST POP SWAP1 POP PUSH1 0x0 DUP8 PUSH2 0x2C6F DUP7 PUSH1 0x1 PUSH2 0x393D JUMP JUMPDEST DUP2 MLOAD DUP2 LT PUSH2 0x2C7F JUMPI PUSH2 0x2C7F PUSH2 0x39F5 JUMP JUMPDEST PUSH1 0x20 MUL PUSH1 0x20 ADD ADD MLOAD SWAP1 POP PUSH1 0x0 DUP1 DUP4 PUSH1 0x1 PUSH1 0x1 PUSH1 0xA0 SHL SUB AND DUP7 PUSH1 0x1 PUSH1 0x1 PUSH1 0xA0 SHL SUB AND EQ PUSH2 0x2CAD JUMPI DUP3 PUSH1 0x0 PUSH2 0x2CB1 JUMP JUMPDEST PUSH1 0x0 DUP4 JUMPDEST SWAP2 POP SWAP2 POP PUSH1 0x0 PUSH1 0x2 DUP11 MLOAD PUSH2 0x2CC5 SWAP2 SWAP1 PUSH2 0x3996 JUMP JUMPDEST DUP9 LT PUSH2 0x2CD1 JUMPI DUP9 PUSH2 0x2D06 JUMP JUMPDEST PUSH2 0x2D06 PUSH20 0xCA143CE32FE78F1F7019D7D551A6402FC5350C73 DUP8 DUP13 PUSH2 0x2CF6 DUP13 PUSH1 0x2 PUSH2 0x393D JUMP JUMPDEST DUP2 MLOAD DUP2 LT PUSH2 0x28B8 JUMPI PUSH2 0x28B8 PUSH2 0x39F5 JUMP JUMPDEST SWAP1 POP PUSH2 0x2D27 PUSH20 0xCA143CE32FE78F1F7019D7D551A6402FC5350C73 DUP9 DUP9 PUSH2 0x2B1B JUMP JUMPDEST PUSH1 0x1 PUSH1 0x1 PUSH1 0xA0 SHL SUB AND PUSH4 0x22C0D9F DUP5 DUP5 DUP5 PUSH1 0x0 PUSH1 0x40 MLOAD SWAP1 DUP1 DUP3 MSTORE DUP1 PUSH1 0x1F ADD PUSH1 0x1F NOT AND PUSH1 0x20 ADD DUP3 ADD PUSH1 0x40 MSTORE DUP1 ISZERO PUSH2 0x2D64 JUMPI PUSH1 0x20 DUP3 ADD DUP2 DUP1 CALLDATASIZE DUP4 CALLDATACOPY ADD SWAP1 POP JUMPDEST POP PUSH1 0x40 MLOAD DUP6 PUSH4 0xFFFFFFFF AND PUSH1 0xE0 SHL DUP2 MSTORE PUSH1 0x4 ADD PUSH2 0x2D84 SWAP5 SWAP4 SWAP3 SWAP2 SWAP1 PUSH2 0x38CA JUMP JUMPDEST PUSH1 0x0 PUSH1 0x40 MLOAD DUP1 DUP4 SUB DUP2 PUSH1 0x0 DUP8 DUP1 EXTCODESIZE ISZERO DUP1 ISZERO PUSH2 0x2D9E JUMPI PUSH1 0x0 DUP1 REVERT JUMPDEST POP GAS CALL ISZERO DUP1 ISZERO PUSH2 0x2DB2 JUMPI RETURNDATASIZE PUSH1 0x0 DUP1 RETURNDATACOPY RETURNDATASIZE PUSH1 0x0 REVERT JUMPDEST POP POP POP POP POP POP POP POP POP POP POP DUP1 DUP1 PUSH2 0x2DC8 SWAP1 PUSH2 0x39C4 JUMP JUMPDEST SWAP2 POP POP PUSH2 0x2BF6 JUMP JUMPDEST PUSH1 0x60 PUSH1 0x2 DUP3 MLOAD LT ISZERO PUSH2 0x2E24 JUMPI PUSH1 0x40 MLOAD PUSH3 0x461BCD PUSH1 0xE5 SHL DUP2 MSTORE PUSH1 0x20 PUSH1 0x4 DUP3 ADD MSTORE PUSH1 0x1C PUSH1 0x24 DUP3 ADD MSTORE PUSH32 0x50616E63616B654C6962726172793A20494E56414C49445F5041544800000000 PUSH1 0x44 DUP3 ADD MSTORE PUSH1 0x64 ADD PUSH2 0x1F2 JUMP JUMPDEST DUP2 MLOAD PUSH8 0xFFFFFFFFFFFFFFFF DUP2 GT ISZERO PUSH2 0x2E3E JUMPI PUSH2 0x2E3E PUSH2 0x3A0B JUMP JUMPDEST PUSH1 0x40 MLOAD SWAP1 DUP1 DUP3 MSTORE DUP1 PUSH1 0x20 MUL PUSH1 0x20 ADD DUP3 ADD PUSH1 0x40 MSTORE DUP1 ISZERO PUSH2 0x2E67 JUMPI DUP2 PUSH1 0x20 ADD PUSH1 0x20 DUP3 MUL DUP1 CALLDATASIZE DUP4 CALLDATACOPY ADD SWAP1 POP JUMPDEST POP SWAP1 POP DUP3 DUP2 PUSH1 0x1 DUP4 MLOAD PUSH2 0x2E7A SWAP2 SWAP1 PUSH2 0x3996 JUMP JUMPDEST DUP2 MLOAD DUP2 LT PUSH2 0x2E8A JUMPI PUSH2 0x2E8A PUSH2 0x39F5 JUMP JUMPDEST PUSH1 0x20 MUL PUSH1 0x20 ADD ADD DUP2 DUP2 MSTORE POP POP PUSH1 0x0 PUSH1 0x1 DUP4 MLOAD PUSH2 0x2EA6 SWAP2 SWAP1 PUSH2 0x3996 JUMP JUMPDEST SWAP1 POP JUMPDEST DUP1 ISZERO PUSH2 0x2B13 JUMPI PUSH1 0x0 DUP1 PUSH2 0x2EEC DUP8 DUP7 PUSH2 0x2EC2 PUSH1 0x1 DUP8 PUSH2 0x3996 JUMP JUMPDEST DUP2 MLOAD DUP2 LT PUSH2 0x2ED2 JUMPI PUSH2 0x2ED2 PUSH2 0x39F5 JUMP JUMPDEST PUSH1 0x20 MUL PUSH1 0x20 ADD ADD MLOAD DUP8 DUP7 DUP2 MLOAD DUP2 LT PUSH2 0x2AA1 JUMPI PUSH2 0x2AA1 PUSH2 0x39F5 JUMP JUMPDEST SWAP2 POP SWAP2 POP PUSH2 0x2F14 DUP5 DUP5 DUP2 MLOAD DUP2 LT PUSH2 0x2F05 JUMPI PUSH2 0x2F05 PUSH2 0x39F5 JUMP JUMPDEST PUSH1 0x20 MUL PUSH1 0x20 ADD ADD MLOAD DUP4 DUP4 PUSH2 0x3208 JUMP JUMPDEST DUP5 PUSH2 0x2F20 PUSH1 0x1 DUP7 PUSH2 0x3996 JUMP JUMPDEST DUP2 MLOAD DUP2 LT PUSH2 0x2F30 JUMPI PUSH2 0x2F30 PUSH2 0x39F5 JUMP JUMPDEST PUSH1 0x20 MUL PUSH1 0x20 ADD ADD DUP2 DUP2 MSTORE POP POP POP POP DUP1 DUP1 PUSH2 0x2F49 SWAP1 PUSH2 0x39AD JUMP JUMPDEST SWAP2 POP POP PUSH2 0x2EA9 JUMP JUMPDEST PUSH1 0x0 DUP1 PUSH1 0x0 PUSH2 0x2F60 DUP6 DUP6 PUSH2 0x3112 JUMP JUMPDEST POP SWAP1 POP PUSH2 0x2F6E DUP7 DUP7 DUP7 PUSH2 0x2B1B JUMP JUMPDEST POP PUSH1 0x0 DUP1 PUSH2 0x2F7D DUP9 DUP9 DUP9 PUSH2 0x2B1B JUMP JUMPDEST PUSH1 0x1 PUSH1 0x1 PUSH1 0xA0 SHL SUB AND PUSH4 0x902F1AC PUSH1 0x40 MLOAD DUP2 PUSH4 0xFFFFFFFF AND PUSH1 0xE0 SHL DUP2 MSTORE PUSH1 0x4 ADD PUSH1 0x60 PUSH1 0x40 MLOAD DUP1 DUP4 SUB DUP2 DUP7 DUP1 EXTCODESIZE ISZERO DUP1 ISZERO PUSH2 0x2FB5 JUMPI PUSH1 0x0 DUP1 REVERT JUMPDEST POP GAS STATICCALL ISZERO DUP1 ISZERO PUSH2 0x2FC9 JUMPI RETURNDATASIZE PUSH1 0x0 DUP1 RETURNDATACOPY RETURNDATASIZE PUSH1 0x0 REVERT JUMPDEST POP POP POP POP PUSH1 0x40 MLOAD RETURNDATASIZE PUSH1 0x1F NOT PUSH1 0x1F DUP3 ADD AND DUP3 ADD DUP1 PUSH1 0x40 MSTORE POP DUP2 ADD SWAP1 PUSH2 0x2FED SWAP2 SWAP1 PUSH2 0x3576 JUMP JUMPDEST POP PUSH1 0x1 PUSH1 0x1 PUSH1 0x70 SHL SUB AND SWAP2 POP PUSH1 0x1 PUSH1 0x1 PUSH1 0x70 SHL SUB AND SWAP2 POP DUP3 PUSH1 0x1 PUSH1 0x1 PUSH1 0xA0 SHL SUB AND DUP8 PUSH1 0x1 PUSH1 0x1 PUSH1 0xA0 SHL SUB AND EQ PUSH2 0x3024 JUMPI DUP1 DUP3 PUSH2 0x3027 JUMP JUMPDEST DUP2 DUP2 JUMPDEST SWAP1 SWAP10 SWAP1 SWAP9 POP SWAP7 POP POP POP POP POP POP POP JUMP JUMPDEST PUSH1 0x0 DUP1 DUP5 GT PUSH2 0x3099 JUMPI PUSH1 0x40 MLOAD PUSH3 0x461BCD PUSH1 0xE5 SHL DUP2 MSTORE PUSH1 0x20 PUSH1 0x4 DUP3 ADD MSTORE PUSH1 0x29 PUSH1 0x24 DUP3 ADD MSTORE PUSH32 0x50616E63616B654C6962726172793A20494E53554646494349454E545F494E50 PUSH1 0x44 DUP3 ADD MSTORE PUSH9 0x155517D05353D55395 PUSH1 0xBA SHL PUSH1 0x64 DUP3 ADD MSTORE PUSH1 0x84 ADD PUSH2 0x1F2 JUMP JUMPDEST PUSH1 0x0 DUP4 GT DUP1 ISZERO PUSH2 0x30A9 JUMPI POP PUSH1 0x0 DUP3 GT JUMPDEST PUSH2 0x30C5 JUMPI PUSH1 0x40 MLOAD PUSH3 0x461BCD PUSH1 0xE5 SHL DUP2 MSTORE PUSH1 0x4 ADD PUSH2 0x1F2 SWAP1 PUSH2 0x381A JUMP JUMPDEST PUSH1 0x0 PUSH2 0x30D3 DUP6 PUSH2 0x26F7 PUSH2 0x32DF JUMP JUMPDEST SWAP1 POP PUSH1 0x0 PUSH2 0x30E1 DUP3 DUP6 PUSH2 0x32DF JUMP JUMPDEST SWAP1 POP PUSH1 0x0 PUSH2 0x30FB DUP4 PUSH2 0x30F5 DUP9 PUSH2 0x2710 PUSH2 0x32DF JUMP JUMPDEST SWAP1 PUSH2 0x32EB JUMP JUMPDEST SWAP1 POP PUSH2 0x3107 DUP2 DUP4 PUSH2 0x3955 JUMP JUMPDEST SWAP8 SWAP7 POP POP POP POP POP POP POP JUMP JUMPDEST PUSH1 0x0 DUP1 DUP3 PUSH1 0x1 PUSH1 0x1 PUSH1 0xA0 SHL SUB AND DUP5 PUSH1 0x1 PUSH1 0x1 PUSH1 0xA0 SHL SUB AND EQ ISZERO PUSH2 0x3183 JUMPI PUSH1 0x40 MLOAD PUSH3 0x461BCD PUSH1 0xE5 SHL DUP2 MSTORE PUSH1 0x20 PUSH1 0x4 DUP3 ADD MSTORE PUSH1 0x23 PUSH1 0x24 DUP3 ADD MSTORE PUSH32 0x50616E63616B654C6962726172793A204944454E544943414C5F414444524553 PUSH1 0x44 DUP3 ADD MSTORE PUSH3 0x534553 PUSH1 0xE8 SHL PUSH1 0x64 DUP3 ADD MSTORE PUSH1 0x84 ADD PUSH2 0x1F2 JUMP JUMPDEST DUP3 PUSH1 0x1 PUSH1 0x1 PUSH1 0xA0 SHL SUB AND DUP5 PUSH1 0x1 PUSH1 0x1 PUSH1 0xA0 SHL SUB AND LT PUSH2 0x31A3 JUMPI DUP3 DUP5 PUSH2 0x31A6 JUMP JUMPDEST DUP4 DUP4 JUMPDEST SWAP1 SWAP3 POP SWAP1 POP PUSH1 0x1 PUSH1 0x1 PUSH1 0xA0 SHL SUB DUP3 AND PUSH2 0x3201 JUMPI PUSH1 0x40 MLOAD PUSH3 0x461BCD PUSH1 0xE5 SHL DUP2 MSTORE PUSH1 0x20 PUSH1 0x4 DUP3 ADD MSTORE PUSH1 0x1C PUSH1 0x24 DUP3 ADD MSTORE PUSH32 0x50616E63616B654C6962726172793A205A45524F5F4144445245535300000000 PUSH1 0x44 DUP3 ADD MSTORE PUSH1 0x64 ADD PUSH2 0x1F2 JUMP JUMPDEST SWAP3 POP SWAP3 SWAP1 POP JUMP JUMPDEST PUSH1 0x0 DUP1 DUP5 GT PUSH2 0x326C JUMPI PUSH1 0x40 MLOAD PUSH3 0x461BCD PUSH1 0xE5 SHL DUP2 MSTORE PUSH1 0x20 PUSH1 0x4 DUP3 ADD MSTORE PUSH1 0x2A PUSH1 0x24 DUP3 ADD MSTORE PUSH32 0x50616E63616B654C6962726172793A20494E53554646494349454E545F4F5554 PUSH1 0x44 DUP3 ADD MSTORE PUSH10 0x14155517D05353D55395 PUSH1 0xB2 SHL PUSH1 0x64 DUP3 ADD MSTORE PUSH1 0x84 ADD PUSH2 0x1F2 JUMP JUMPDEST PUSH1 0x0 DUP4 GT DUP1 ISZERO PUSH2 0x327C JUMPI POP PUSH1 0x0 DUP3 GT JUMPDEST PUSH2 0x3298 JUMPI PUSH1 0x40 MLOAD PUSH3 0x461BCD PUSH1 0xE5 SHL DUP2 MSTORE PUSH1 0x4 ADD PUSH2 0x1F2 SWAP1 PUSH2 0x381A JUMP JUMPDEST PUSH1 0x0 PUSH2 0x32B0 PUSH2 0x2710 PUSH2 0x32AA DUP7 DUP9 PUSH2 0x32DF JUMP JUMPDEST SWAP1 PUSH2 0x32DF JUMP JUMPDEST SWAP1 POP PUSH1 0x0 PUSH2 0x32C4 PUSH2 0x26F7 PUSH2 0x32AA DUP7 DUP10 PUSH2 0x32F7 JUMP JUMPDEST SWAP1 POP PUSH2 0x32D5 PUSH1 0x1 PUSH2 0x30F5 DUP4 DUP6 PUSH2 0x3955 JUMP JUMPDEST SWAP7 SWAP6 POP POP POP POP POP POP JUMP JUMPDEST PUSH1 0x0 PUSH2 0x281F DUP3 DUP5 PUSH2 0x3977 JUMP JUMPDEST PUSH1 0x0 PUSH2 0x281F DUP3 DUP5 PUSH2 0x393D JUMP JUMPDEST PUSH1 0x0 PUSH2 0x281F DUP3 DUP5 PUSH2 0x3996 JUMP JUMPDEST DUP1 CALLDATALOAD PUSH2 0x330E DUP2 PUSH2 0x3A21 JUMP JUMPDEST SWAP2 SWAP1 POP JUMP JUMPDEST PUSH1 0x0 DUP1 DUP4 PUSH1 0x1F DUP5 ADD SLT PUSH2 0x3325 JUMPI PUSH1 0x0 DUP1 REVERT JUMPDEST POP DUP2 CALLDATALOAD PUSH8 0xFFFFFFFFFFFFFFFF DUP2 GT ISZERO PUSH2 0x333D JUMPI PUSH1 0x0 DUP1 REVERT JUMPDEST PUSH1 0x20 DUP4 ADD SWAP2 POP DUP4 PUSH1 0x20 DUP3 PUSH1 0x5 SHL DUP6 ADD ADD GT ISZERO PUSH2 0x3201 JUMPI PUSH1 0x0 DUP1 REVERT JUMPDEST PUSH1 0x0 DUP3 PUSH1 0x1F DUP4 ADD SLT PUSH2 0x3369 JUMPI PUSH1 0x0 DUP1 REVERT JUMPDEST DUP2 CALLDATALOAD PUSH1 0x20 PUSH8 0xFFFFFFFFFFFFFFFF DUP1 DUP4 GT ISZERO PUSH2 0x3386 JUMPI PUSH2 0x3386 PUSH2 0x3A0B JUMP JUMPDEST DUP3 PUSH1 0x5 SHL PUSH1 0x40 MLOAD PUSH1 0x1F NOT PUSH1 0x3F DUP4 ADD AND DUP2 ADD DUP2 DUP2 LT DUP5 DUP3 GT OR ISZERO PUSH2 0x33AB JUMPI PUSH2 0x33AB PUSH2 0x3A0B JUMP JUMPDEST PUSH1 0x40 MSTORE DUP5 DUP2 MSTORE DUP4 DUP2 ADD SWAP3 POP DUP7 DUP5 ADD DUP3 DUP9 ADD DUP6 ADD DUP10 LT ISZERO PUSH2 0x33CA JUMPI PUSH1 0x0 DUP1 REVERT JUMPDEST PUSH1 0x0 SWAP3 POP JUMPDEST DUP6 DUP4 LT ISZERO PUSH2 0x33F4 JUMPI PUSH2 0x33E0 DUP2 PUSH2 0x3303 JUMP JUMPDEST DUP5 MSTORE SWAP3 DUP5 ADD SWAP3 PUSH1 0x1 SWAP3 SWAP1 SWAP3 ADD SWAP2 DUP5 ADD PUSH2 0x33CF JUMP JUMPDEST POP SWAP8 SWAP7 POP POP POP POP POP POP POP JUMP JUMPDEST DUP1 MLOAD PUSH1 0x1 PUSH1 0x1 PUSH1 0x70 SHL SUB DUP2 AND DUP2 EQ PUSH2 0x330E JUMPI PUSH1 0x0 DUP1 REVERT JUMPDEST PUSH1 0x0 PUSH1 0x20 DUP3 DUP5 SUB SLT ISZERO PUSH2 0x3429 JUMPI PUSH1 0x0 DUP1 REVERT JUMPDEST DUP2 CALLDATALOAD PUSH2 0x281F DUP2 PUSH2 0x3A21 JUMP JUMPDEST PUSH1 0x0 PUSH1 0x20 DUP3 DUP5 SUB SLT ISZERO PUSH2 0x3446 JUMPI PUSH1 0x0 DUP1 REVERT JUMPDEST DUP2 MLOAD PUSH2 0x281F DUP2 PUSH2 0x3A21 JUMP JUMPDEST PUSH1 0x0 DUP1 PUSH1 0x40 DUP4 DUP6 SUB SLT ISZERO PUSH2 0x3464 JUMPI PUSH1 0x0 DUP1 REVERT JUMPDEST DUP3 CALLDATALOAD PUSH2 0x346F DUP2 PUSH2 0x3A21 JUMP JUMPDEST SWAP5 PUSH1 0x20 SWAP4 SWAP1 SWAP4 ADD CALLDATALOAD SWAP4 POP POP POP JUMP JUMPDEST PUSH1 0x0 DUP1 PUSH1 0x0 PUSH1 0x60 DUP5 DUP7 SUB SLT ISZERO PUSH2 0x3492 JUMPI PUSH1 0x0 DUP1 REVERT JUMPDEST DUP4 CALLDATALOAD PUSH2 0x349D DUP2 PUSH2 0x3A21 JUMP JUMPDEST SWAP3 POP PUSH1 0x20 DUP5 ADD CALLDATALOAD PUSH2 0x34AD DUP2 PUSH2 0x3A21 JUMP JUMPDEST SWAP3 SWAP6 SWAP3 SWAP5 POP POP POP PUSH1 0x40 SWAP2 SWAP1 SWAP2 ADD CALLDATALOAD SWAP1 JUMP JUMPDEST PUSH1 0x0 DUP1 PUSH1 0x0 DUP1 PUSH1 0x0 PUSH1 0x80 DUP7 DUP9 SUB SLT ISZERO PUSH2 0x34D6 JUMPI PUSH1 0x0 DUP1 REVERT JUMPDEST DUP6 CALLDATALOAD PUSH2 0x34E1 DUP2 PUSH2 0x3A21 JUMP JUMPDEST SWAP5 POP PUSH1 0x20 DUP7 ADD CALLDATALOAD SWAP4 POP PUSH1 0x40 DUP7 ADD CALLDATALOAD SWAP3 POP PUSH1 0x60 DUP7 ADD CALLDATALOAD PUSH8 0xFFFFFFFFFFFFFFFF DUP1 DUP3 GT ISZERO PUSH2 0x350C JUMPI PUSH1 0x0 DUP1 REVERT JUMPDEST DUP2 DUP9 ADD SWAP2 POP DUP9 PUSH1 0x1F DUP4 ADD SLT PUSH2 0x3520 JUMPI PUSH1 0x0 DUP1 REVERT JUMPDEST DUP2 CALLDATALOAD DUP2 DUP2 GT ISZERO PUSH2 0x352F JUMPI PUSH1 0x0 DUP1 REVERT JUMPDEST DUP10 PUSH1 0x20 DUP3 DUP6 ADD ADD GT ISZERO PUSH2 0x3541 JUMPI PUSH1 0x0 DUP1 REVERT JUMPDEST SWAP7 SWAP10 SWAP6 SWAP9 POP SWAP4 SWAP7 POP PUSH1 0x20 ADD SWAP5 SWAP4 SWAP3 POP POP POP JUMP JUMPDEST PUSH1 0x0 PUSH1 0x20 DUP3 DUP5 SUB SLT ISZERO PUSH2 0x3566 JUMPI PUSH1 0x0 DUP1 REVERT JUMPDEST DUP2 MLOAD DUP1 ISZERO ISZERO DUP2 EQ PUSH2 0x281F JUMPI PUSH1 0x0 DUP1 REVERT JUMPDEST PUSH1 0x0 DUP1 PUSH1 0x0 PUSH1 0x60 DUP5 DUP7 SUB SLT ISZERO PUSH2 0x358B JUMPI PUSH1 0x0 DUP1 REVERT JUMPDEST PUSH2 0x3594 DUP5 PUSH2 0x3400 JUMP JUMPDEST SWAP3 POP PUSH2 0x35A2 PUSH1 0x20 DUP6 ADD PUSH2 0x3400 JUMP JUMPDEST SWAP2 POP PUSH1 0x40 DUP5 ADD MLOAD PUSH4 0xFFFFFFFF DUP2 AND DUP2 EQ PUSH2 0x35BB JUMPI PUSH1 0x0 DUP1 REVERT JUMPDEST DUP1 SWAP2 POP POP SWAP3 POP SWAP3 POP SWAP3 JUMP JUMPDEST PUSH1 0x0 PUSH1 0x20 DUP3 DUP5 SUB SLT ISZERO PUSH2 0x35D8 JUMPI PUSH1 0x0 DUP1 REVERT JUMPDEST POP MLOAD SWAP2 SWAP1 POP JUMP JUMPDEST PUSH1 0x0 DUP1 PUSH1 0x0 DUP1 PUSH1 0x0 DUP1 PUSH1 0xC0 DUP8 DUP10 SUB SLT ISZERO PUSH2 0x35F8 JUMPI PUSH1 0x0 DUP1 REVERT JUMPDEST DUP7 CALLDATALOAD SWAP6 POP PUSH1 0x20 DUP8 ADD CALLDATALOAD PUSH2 0x360A DUP2 PUSH2 0x3A21 JUMP JUMPDEST SWAP5 POP PUSH1 0x40 DUP8 ADD CALLDATALOAD PUSH8 0xFFFFFFFFFFFFFFFF DUP1 DUP3 GT ISZERO PUSH2 0x3627 JUMPI PUSH1 0x0 DUP1 REVERT JUMPDEST PUSH2 0x3633 DUP11 DUP4 DUP12 ADD PUSH2 0x3358 JUMP JUMPDEST SWAP6 POP PUSH1 0x60 DUP10 ADD CALLDATALOAD SWAP2 POP DUP1 DUP3 GT ISZERO PUSH2 0x3649 JUMPI PUSH1 0x0 DUP1 REVERT JUMPDEST PUSH2 0x3655 DUP11 DUP4 DUP12 ADD PUSH2 0x3358 JUMP JUMPDEST SWAP5 POP PUSH1 0x80 DUP10 ADD CALLDATALOAD SWAP2 POP DUP1 DUP3 GT ISZERO PUSH2 0x366B JUMPI PUSH1 0x0 DUP1 REVERT JUMPDEST POP PUSH2 0x3678 DUP10 DUP3 DUP11 ADD PUSH2 0x3358 JUMP JUMPDEST SWAP3 POP POP PUSH1 0xA0 DUP8 ADD CALLDATALOAD SWAP1 POP SWAP3 SWAP6 POP SWAP3 SWAP6 POP SWAP3 SWAP6 JUMP JUMPDEST PUSH1 0x0 DUP1 PUSH1 0x0 DUP1 PUSH1 0x0 DUP1 PUSH1 0x0 DUP1 PUSH1 0x0 PUSH1 0xC0 DUP11 DUP13 SUB SLT ISZERO PUSH2 0x36AA JUMPI PUSH1 0x0 DUP1 REVERT JUMPDEST DUP10 CALLDATALOAD SWAP9 POP PUSH1 0x20 DUP11 ADD CALLDATALOAD PUSH2 0x36BC DUP2 PUSH2 0x3A21 JUMP JUMPDEST SWAP8 POP PUSH1 0x40 DUP11 ADD CALLDATALOAD PUSH8 0xFFFFFFFFFFFFFFFF DUP1 DUP3 GT ISZERO PUSH2 0x36D9 JUMPI PUSH1 0x0 DUP1 REVERT JUMPDEST PUSH2 0x36E5 DUP14 DUP4 DUP15 ADD PUSH2 0x3313 JUMP JUMPDEST SWAP1 SWAP10 POP SWAP8 POP PUSH1 0x60 DUP13 ADD CALLDATALOAD SWAP2 POP DUP1 DUP3 GT ISZERO PUSH2 0x36FE JUMPI PUSH1 0x0 DUP1 REVERT JUMPDEST PUSH2 0x370A DUP14 DUP4 DUP15 ADD PUSH2 0x3313 JUMP JUMPDEST SWAP1 SWAP8 POP SWAP6 POP PUSH1 0x80 DUP13 ADD CALLDATALOAD SWAP2 POP DUP1 DUP3 GT ISZERO PUSH2 0x3723 JUMPI PUSH1 0x0 DUP1 REVERT JUMPDEST POP PUSH2 0x3730 DUP13 DUP3 DUP14 ADD PUSH2 0x3313 JUMP JUMPDEST SWAP11 SWAP14 SWAP10 SWAP13 POP SWAP8 SWAP11 SWAP7 SWAP10 SWAP6 SWAP9 SWAP5 SWAP8 SWAP7 PUSH1 0xA0 ADD CALLDATALOAD SWAP5 SWAP4 POP POP POP POP JUMP JUMPDEST PUSH1 0x0 DUP1 PUSH1 0x40 DUP4 DUP6 SUB SLT ISZERO PUSH2 0x375D JUMPI PUSH1 0x0 DUP1 REVERT JUMPDEST POP POP DUP1 MLOAD PUSH1 0x20 SWAP1 SWAP2 ADD MLOAD SWAP1 SWAP3 SWAP1 SWAP2 POP JUMP JUMPDEST PUSH1 0x0 DUP1 PUSH1 0x0 PUSH1 0x60 DUP5 DUP7 SUB SLT ISZERO PUSH2 0x3783 JUMPI PUSH1 0x0 DUP1 REVERT JUMPDEST DUP4 MLOAD SWAP3 POP PUSH1 0x20 DUP5 ADD MLOAD SWAP2 POP PUSH1 0x40 DUP5 ADD MLOAD SWAP1 POP SWAP3 POP SWAP3 POP SWAP3 JUMP JUMPDEST DUP2 DUP4 MSTORE PUSH1 0x0 PUSH1 0x20 DUP1 DUP6 ADD SWAP5 POP DUP3 PUSH1 0x0 JUMPDEST DUP6 DUP2 LT ISZERO PUSH2 0x37DA JUMPI DUP2 CALLDATALOAD PUSH2 0x37BF DUP2 PUSH2 0x3A21 JUMP JUMPDEST PUSH1 0x1 PUSH1 0x1 PUSH1 0xA0 SHL SUB AND DUP8 MSTORE SWAP6 DUP3 ADD SWAP6 SWAP1 DUP3 ADD SWAP1 PUSH1 0x1 ADD PUSH2 0x37AC JUMP JUMPDEST POP SWAP5 SWAP6 SWAP5 POP POP POP POP POP JUMP JUMPDEST PUSH1 0x20 DUP1 DUP3 MSTORE DUP2 DUP2 ADD MSTORE PUSH32 0x4F776E61626C653A2063616C6C6572206973206E6F7420746865206F776E6572 PUSH1 0x40 DUP3 ADD MSTORE PUSH1 0x60 ADD SWAP1 JUMP JUMPDEST PUSH1 0x20 DUP1 DUP3 MSTORE PUSH1 0x26 SWAP1 DUP3 ADD MSTORE PUSH32 0x50616E63616B654C6962726172793A20494E53554646494349454E545F4C4951 PUSH1 0x40 DUP3 ADD MSTORE PUSH6 0x554944495459 PUSH1 0xD0 SHL PUSH1 0x60 DUP3 ADD MSTORE PUSH1 0x80 ADD SWAP1 JUMP JUMPDEST DUP10 DUP2 MSTORE PUSH1 0x1 PUSH1 0x1 PUSH1 0xA0 SHL SUB DUP10 AND PUSH1 0x20 DUP3 ADD MSTORE PUSH1 0xC0 PUSH1 0x40 DUP3 ADD DUP2 SWAP1 MSTORE PUSH1 0x0 SWAP1 PUSH2 0x388B SWAP1 DUP4 ADD DUP10 DUP12 PUSH2 0x379C JUMP JUMPDEST DUP3 DUP2 SUB PUSH1 0x60 DUP5 ADD MSTORE PUSH2 0x389E DUP2 DUP9 DUP11 PUSH2 0x379C JUMP JUMPDEST SWAP1 POP DUP3 DUP2 SUB PUSH1 0x80 DUP5 ADD MSTORE PUSH2 0x38B3 DUP2 DUP7 DUP9 PUSH2 0x379C JUMP JUMPDEST SWAP2 POP POP DUP3 PUSH1 0xA0 DUP4 ADD MSTORE SWAP11 SWAP10 POP POP POP POP POP POP POP POP POP POP JUMP JUMPDEST DUP5 DUP2 MSTORE PUSH1 0x0 PUSH1 0x20 DUP6 DUP2 DUP5 ADD MSTORE PUSH1 0x1 DUP1 PUSH1 0xA0 SHL SUB DUP6 AND PUSH1 0x40 DUP5 ADD MSTORE PUSH1 0x80 PUSH1 0x60 DUP5 ADD MSTORE DUP4 MLOAD DUP1 PUSH1 0x80 DUP6 ADD MSTORE PUSH1 0x0 JUMPDEST DUP2 DUP2 LT ISZERO PUSH2 0x3912 JUMPI DUP6 DUP2 ADD DUP4 ADD MLOAD DUP6 DUP3 ADD PUSH1 0xA0 ADD MSTORE DUP3 ADD PUSH2 0x38F6 JUMP JUMPDEST DUP2 DUP2 GT ISZERO PUSH2 0x3924 JUMPI PUSH1 0x0 PUSH1 0xA0 DUP4 DUP8 ADD ADD MSTORE JUMPDEST POP PUSH1 0x1F ADD PUSH1 0x1F NOT AND SWAP3 SWAP1 SWAP3 ADD PUSH1 0xA0 ADD SWAP7 SWAP6 POP POP POP POP POP POP JUMP JUMPDEST PUSH1 0x0 DUP3 NOT DUP3 GT ISZERO PUSH2 0x3950 JUMPI PUSH2 0x3950 PUSH2 0x39DF JUMP JUMPDEST POP ADD SWAP1 JUMP JUMPDEST PUSH1 0x0 DUP3 PUSH2 0x3972 JUMPI PUSH4 0x4E487B71 PUSH1 0xE0 SHL PUSH1 0x0 MSTORE PUSH1 0x12 PUSH1 0x4 MSTORE PUSH1 0x24 PUSH1 0x0 REVERT JUMPDEST POP DIV SWAP1 JUMP JUMPDEST PUSH1 0x0 DUP2 PUSH1 0x0 NOT DIV DUP4 GT DUP3 ISZERO ISZERO AND ISZERO PUSH2 0x3991 JUMPI PUSH2 0x3991 PUSH2 0x39DF JUMP JUMPDEST POP MUL SWAP1 JUMP JUMPDEST PUSH1 0x0 DUP3 DUP3 LT ISZERO PUSH2 0x39A8 JUMPI PUSH2 0x39A8 PUSH2 0x39DF JUMP JUMPDEST POP SUB SWAP1 JUMP JUMPDEST PUSH1 0x0 DUP2 PUSH2 0x39BC JUMPI PUSH2 0x39BC PUSH2 0x39DF JUMP JUMPDEST POP PUSH1 0x0 NOT ADD SWAP1 JUMP JUMPDEST PUSH1 0x0 PUSH1 0x0 NOT DUP3 EQ ISZERO PUSH2 0x39D8 JUMPI PUSH2 0x39D8 PUSH2 0x39DF JUMP JUMPDEST POP PUSH1 0x1 ADD SWAP1 JUMP JUMPDEST PUSH4 0x4E487B71 PUSH1 0xE0 SHL PUSH1 0x0 MSTORE PUSH1 0x11 PUSH1 0x4 MSTORE PUSH1 0x24 PUSH1 0x0 REVERT JUMPDEST PUSH4 0x4E487B71 PUSH1 0xE0 SHL PUSH1 0x0 MSTORE PUSH1 0x32 PUSH1 0x4 MSTORE PUSH1 0x24 PUSH1 0x0 REVERT JUMPDEST PUSH4 0x4E487B71 PUSH1 0xE0 SHL PUSH1 0x0 MSTORE PUSH1 0x41 PUSH1 0x4 MSTORE PUSH1 0x24 PUSH1 0x0 REVERT JUMPDEST PUSH1 0x1 PUSH1 0x1 PUSH1 0xA0 SHL SUB DUP2 AND DUP2 EQ PUSH2 0x205D JUMPI PUSH1 0x0 DUP1 REVERT INVALID LOG2 PUSH5 0x6970667358 0x22 SLT KECCAK256 0xC7 GT PUSH8 0x216379D2DCB50DC0 0xE1 SWAP9 PUSH19 0x44A614D8253F5A4C732308199556EA039C5264 PUSH20 0x6F6C634300080700330000000000000000000000 "
		},
		"gasEstimates": {
			"creation": {
				"codeDepositCost": "2991200",
				"executionCost": "29127",
				"totalCost": "3020327"
			},
			"external": {
				"mintedVAIS(address)": "infinite",
				"owner()": "2290",
				"pancakeCall(address,uint256,uint256,bytes)": "infinite",
				"qingsuan(uint256,address,address[],address[],address[],uint256)": "infinite",
				"renounceOwnership()": "28137",
				"swapOneBNBToFlashLoandUnderlyingToken(address)": "infinite",
				"transferOwnership(address)": "infinite",
				"withdraw(address,address,uint256)": "infinite",
				"withdrawETH(address,uint256)": "infinite"
			},
			"internal": {
				"_swap(uint256[] memory,address[] memory,address)": "infinite",
				"chainSwapExactIn(uint256,address[] memory,address)": "infinite",
				"chainSwapExactOut(uint256,address[] memory,address)": "infinite",
				"getSeizedUnderlyingToken(address,address,uint256)": "infinite",
				"getSeizedVToken(address,address,address,uint256)": "infinite",
				"isStableCoin(address)": "140",
				"isVAIController(address)": "infinite",
				"isVBNB(address)": "infinite"
			}
		},
		"methodIdentifiers": {
			"mintedVAIS(address)": "f064b414",
			"owner()": "8da5cb5b",
			"pancakeCall(address,uint256,uint256,bytes)": "84800812",
			"qingsuan(uint256,address,address[],address[],address[],uint256)": "b14e9a72",
			"renounceOwnership()": "715018a6",
			"swapOneBNBToFlashLoandUnderlyingToken(address)": "89c33748",
			"transferOwnership(address)": "f2fde38b",
			"withdraw(address,address,uint256)": "d9caed12",
			"withdrawETH(address,uint256)": "4782f779"
		}
	},
	"abi": [
		{
			"anonymous": false,
			"inputs": [
				{
					"indexed": true,
					"internalType": "address",
					"name": "previousOwner",
					"type": "address"
				},
				{
					"indexed": true,
					"internalType": "address",
					"name": "newOwner",
					"type": "address"
				}
			],
			"name": "OwnershipTransferred",
			"type": "event"
		},
		{
			"anonymous": false,
			"inputs": [
				{
					"indexed": false,
					"internalType": "uint256",
					"name": "scenarioNo",
					"type": "uint256"
				},
				{
					"indexed": false,
					"internalType": "address",
					"name": "repayUnderlyingToken",
					"type": "address"
				},
				{
					"indexed": false,
					"internalType": "uint256",
					"name": "repayAmount",
					"type": "uint256"
				},
				{
					"indexed": false,
					"internalType": "address",
					"name": "seizedUnderlyingToken",
					"type": "address"
				},
				{
					"indexed": false,
					"internalType": "uint256",
					"name": "flashLoanReturnAmount",
					"type": "uint256"
				},
				{
					"indexed": false,
					"internalType": "uint256",
					"name": "seizedUnderlyingAmount",
					"type": "uint256"
				},
				{
					"indexed": false,
					"internalType": "uint256",
					"name": "massProfit",
					"type": "uint256"
				}
			],
			"name": "Scenario",
			"type": "event"
		},
		{
			"anonymous": false,
			"inputs": [
				{
					"indexed": false,
					"internalType": "uint256",
					"name": "",
					"type": "uint256"
				},
				{
					"indexed": false,
					"internalType": "uint256",
					"name": "",
					"type": "uint256"
				}
			],
			"name": "SeizedUnderlyingTokenAmount",
			"type": "event"
		},
		{
			"anonymous": false,
			"inputs": [
				{
					"indexed": false,
					"internalType": "uint256",
					"name": "",
					"type": "uint256"
				},
				{
					"indexed": false,
					"internalType": "uint256",
					"name": "",
					"type": "uint256"
				},
				{
					"indexed": false,
					"internalType": "uint256",
					"name": "",
					"type": "uint256"
				}
			],
			"name": "SeizedVTokenAmount",
			"type": "event"
		},
		{
			"anonymous": false,
			"inputs": [
				{
					"indexed": true,
					"internalType": "address",
					"name": "",
					"type": "address"
				},
				{
					"indexed": true,
					"internalType": "address",
					"name": "",
					"type": "address"
				},
				{
					"indexed": false,
					"internalType": "uint256",
					"name": "",
					"type": "uint256"
				}
			],
			"name": "Withdraw",
			"type": "event"
		},
		{
			"anonymous": false,
			"inputs": [
				{
					"indexed": true,
					"internalType": "address",
					"name": "",
					"type": "address"
				},
				{
					"indexed": false,
					"internalType": "uint256",
					"name": "",
					"type": "uint256"
				}
			],
			"name": "WithdrawETH",
			"type": "event"
		},
		{
			"inputs": [
				{
					"internalType": "address",
					"name": "_account",
					"type": "address"
				}
			],
			"name": "mintedVAIS",
			"outputs": [
				{
					"internalType": "uint256",
					"name": "",
					"type": "uint256"
				}
			],
			"stateMutability": "view",
			"type": "function"
		},
		{
			"inputs": [],
			"name": "owner",
			"outputs": [
				{
					"internalType": "address",
					"name": "",
					"type": "address"
				}
			],
			"stateMutability": "view",
			"type": "function"
		},
		{
			"inputs": [
				{
					"internalType": "address",
					"name": "_sender",
					"type": "address"
				},
				{
					"internalType": "uint256",
					"name": "_amount0",
					"type": "uint256"
				},
				{
					"internalType": "uint256",
					"name": "_amount1",
					"type": "uint256"
				},
				{
					"internalType": "bytes",
					"name": "_data",
					"type": "bytes"
				}
			],
			"name": "pancakeCall",
			"outputs": [],
			"stateMutability": "nonpayable",
			"type": "function"
		},
		{
			"inputs": [
				{
					"internalType": "uint256",
					"name": "_situation",
					"type": "uint256"
				},
				{
					"internalType": "address",
					"name": "_flashLoanFrom",
					"type": "address"
				},
				{
					"internalType": "address[]",
					"name": "_path1",
					"type": "address[]"
				},
				{
					"internalType": "address[]",
					"name": "_path2",
					"type": "address[]"
				},
				{
					"internalType": "address[]",
					"name": "_tokens",
					"type": "address[]"
				},
				{
					"internalType": "uint256",
					"name": "_flashLoanAmount",
					"type": "uint256"
				}
			],
			"name": "qingsuan",
			"outputs": [],
			"stateMutability": "nonpayable",
			"type": "function"
		},
		{
			"inputs": [],
			"name": "renounceOwnership",
			"outputs": [],
			"stateMutability": "nonpayable",
			"type": "function"
		},
		{
			"inputs": [
				{
					"internalType": "address",
					"name": "_flashLoanUnderlyingToken",
					"type": "address"
				}
			],
			"name": "swapOneBNBToFlashLoandUnderlyingToken",
			"outputs": [],
			"stateMutability": "nonpayable",
			"type": "function"
		},
		{
			"inputs": [
				{
					"internalType": "address",
					"name": "newOwner",
					"type": "address"
				}
			],
			"name": "transferOwnership",
			"outputs": [],
			"stateMutability": "nonpayable",
			"type": "function"
		},
		{
			"inputs": [
				{
					"internalType": "address",
					"name": "_token",
					"type": "address"
				},
				{
					"internalType": "address",
					"name": "_to",
					"type": "address"
				},
				{
					"internalType": "uint256",
					"name": "_amount",
					"type": "uint256"
				}
			],
			"name": "withdraw",
			"outputs": [],
			"stateMutability": "nonpayable",
			"type": "function"
		},
		{
			"inputs": [
				{
					"internalType": "address payable",
					"name": "_to",
					"type": "address"
				},
				{
					"internalType": "uint256",
					"name": "_amount",
					"type": "uint256"
				}
			],
			"name": "withdrawETH",
			"outputs": [],
			"stateMutability": "nonpayable",
			"type": "function"
		},
		{
			"stateMutability": "payable",
			"type": "receive"
		}
	]
}