{
	"data": {
		"bytecode": {
			"linkReferences": {},
			"object": "60806040523480156200001157600080fd5b5062000032620000266200003860201b60201c565b6200004060201b60201c565b62000104565b600033905090565b60008060009054906101000a900473ffffffffffffffffffffffffffffffffffffffff169050816000806101000a81548173ffffffffffffffffffffffffffffffffffffffff021916908373ffffffffffffffffffffffffffffffffffffffff1602179055508173ffffffffffffffffffffffffffffffffffffffff168173ffffffffffffffffffffffffffffffffffffffff167f8be0079c531659141344cd1fd0a4f28419497f9722a3daafe3b4186f6b6457e060405160405180910390a35050565b6165e980620001146000396000f3fe6080604052600436106100745760003560e01c80638da5cb5b1161004e5780638da5cb5b146100e9578063b14e9a7214610114578063f2fde38b1461013d578063f3fef3a3146101665761007b565b8063715018a614610080578063848008121461009757806389c33748146100c05761007b565b3661007b57005b600080fd5b34801561008c57600080fd5b5061009561018f565b005b3480156100a357600080fd5b506100be60048036038101906100b99190614882565b610217565b005b3480156100cc57600080fd5b506100e760048036038101906100e291906147e8565b612201565b005b3480156100f557600080fd5b506100fe612394565b60405161010b91906152d2565b60405180910390f35b34801561012057600080fd5b5061013b60048036038101906101369190614a98565b6123bd565b005b34801561014957600080fd5b50610164600480360381019061015f91906147e8565b612c8f565b005b34801561017257600080fd5b5061018d60048036038101906101889190614842565b612d87565b005b610197612f48565b73ffffffffffffffffffffffffffffffffffffffff166101b5612394565b73ffffffffffffffffffffffffffffffffffffffff161461020b576040517f08c379a000000000000000000000000000000000000000000000000000000000815260040161020290615636565b60405180910390fd5b6102156000612f50565b565b61021f614570565b828281019061022e91906149b7565b866000018760200188604001896060018a6080018b60a001868152508690528690528690528673ffffffffffffffffffffffffffffffffffffffff1673ffffffffffffffffffffffffffffffffffffffff1681525086815250505050505050806020015173ffffffffffffffffffffffffffffffffffffffff163373ffffffffffffffffffffffffffffffffffffffff16146102ff576040517f08c379a00000000000000000000000000000000000000000000000000000000081526004016102f6906155f6565b60405180910390fd5b3073ffffffffffffffffffffffffffffffffffffffff168673ffffffffffffffffffffffffffffffffffffffff161461036d576040517f08c379a0000000000000000000000000000000000000000000000000000000008152600401610364906156b6565b60405180910390fd5b60016126f760198360a001516103839190615ac0565b61038d9190615a8f565b8260a0015161039c9190615a39565b6103a69190615a39565b8160c001818152505080608001516004815181106103c7576103c6615d75565b5b60200260200101518160e0019073ffffffffffffffffffffffffffffffffffffffff16908173ffffffffffffffffffffffffffffffffffffffff1681525050600081608001516000815181106104205761041f615d75565b5b602002602001015190506000826080015160018151811061044457610443615d75565b5b602002602001015190506000836080015160038151811061046857610467615d75565b5b602002602001015190506000846080015160028151811061048c5761048b615d75565b5b6020026020010151905060606001866000015114156106f7576104cd86608001516000815181106104c0576104bf615d75565b5b6020026020010151613014565b61050c576040517f08c379a000000000000000000000000000000000000000000000000000000000815260040161050390615696565b60405180910390fd5b856080015160018151811061052457610523615d75565b5b602002602001015173ffffffffffffffffffffffffffffffffffffffff16866080015160008151811061055a57610559615d75565b5b602002602001015173ffffffffffffffffffffffffffffffffffffffff16146105b8576040517f08c379a00000000000000000000000000000000000000000000000000000000081526004016105af90615776565b60405180910390fd5b61062586608001516000815181106105d3576105d2615d75565b5b602002602001015187608001516001815181106105f3576105f2615d75565b5b6020026020010151886080015160048151811061061357610612615d75565b5b60200260200101518960a001516130f4565b508661010001818152505061067e866080015160018151811061064b5761064a615d75565b5b6020026020010151876080015160028151811061066b5761066a615d75565b5b60200260200101518861010001516134c7565b866101200181815250508560c00151866101200151116106d3576040517f08c379a00000000000000000000000000000000000000000000000000000000081526004016106ca906154b6565b60405180910390fd5b8560c001518661012001516106e89190615b1a565b86610140018181525050612105565b600286600001511415610b8357600086604001515114801561071f5750600086606001515114155b61075e576040517f08c379a0000000000000000000000000000000000000000000000000000000008152600401610755906157b6565b60405180910390fd5b610786866080015160008151811061077957610778615d75565b5b60200260200101516137be565b15610a055773bb4cdb9cbd36b01bd1cbaebf2de08d9173bc095c73ffffffffffffffffffffffffffffffffffffffff16632e1a7d4d8760a001516040518263ffffffff1660e01b81526004016107dc91906157f6565b600060405180830381600087803b1580156107f657600080fd5b505af115801561080a573d6000803e3d6000fd5b5050505061087b866080015160008151811061082957610828615d75565b5b6020026020010151876080015160018151811061084957610848615d75565b5b6020026020010151886080015160048151811061086957610868615d75565b5b60200260200101518960a001516130f4565b50866101000181815250506108d486608001516001815181106108a1576108a0615d75565b5b602002602001015187608001516002815181106108c1576108c0615d75565b5b60200260200101518861012001516134c7565b866101200181815250508560c0015186610120015111610929576040517f08c379a000000000000000000000000000000000000000000000000000000000815260040161092090615736565b60405180910390fd5b73bb4cdb9cbd36b01bd1cbaebf2de08d9173bc095c73ffffffffffffffffffffffffffffffffffffffff1663d0e30db08761012001516040518263ffffffff1660e01b81526004016000604051808303818588803b15801561098a57600080fd5b505af115801561099e573d6000803e3d6000fd5b505050505060008660c001518761012001516109ba9190615b1a565b90506109cb8188606001513061380a565b915081600183516109dc9190615b1a565b815181106109ed576109ec615d75565b5b60200260200101518761014001818152505050610b7e565b610a728660800151600081518110610a2057610a1f615d75565b5b60200260200101518760800151600181518110610a4057610a3f615d75565b5b60200260200101518860800151600481518110610a6057610a5f615d75565b5b60200260200101518960a001516130f4565b5086610100018181525050610acb8660800151600181518110610a9857610a97615d75565b5b60200260200101518760800151600281518110610ab857610ab7615d75565b5b60200260200101518861012001516134c7565b866101200181815250508560c0015186610120015111610b20576040517f08c379a0000000000000000000000000000000000000000000000000000000008152600401610b1790615736565b60405180910390fd5b60008660c00151876101200151610b379190615b1a565b9050610b488188606001513061380a565b91508160018351610b599190615b1a565b81518110610b6a57610b69615d75565b5b602002602001015187610140018181525050505b612104565b600386600001511415610fac57610bb88660800151600181518110610bab57610baa615d75565b5b6020026020010151613014565b610bf7576040517f08c379a0000000000000000000000000000000000000000000000000000000008152600401610bee90615676565b60405180910390fd5b610c1f8660800151600081518110610c1257610c11615d75565b5b60200260200101516137be565b15610e295773bb4cdb9cbd36b01bd1cbaebf2de08d9173bc095c73ffffffffffffffffffffffffffffffffffffffff16632e1a7d4d8760a001516040518263ffffffff1660e01b8152600401610c7591906157f6565b600060405180830381600087803b158015610c8f57600080fd5b505af1158015610ca3573d6000803e3d6000fd5b50505050610d148660800151600081518110610cc257610cc1615d75565b5b60200260200101518760800151600181518110610ce257610ce1615d75565b5b60200260200101518860800151600481518110610d0257610d01615d75565b5b60200260200101518960a001516130f4565b5086610100018181525050610d6d8660800151600181518110610d3a57610d39615d75565b5b60200260200101518760800151600281518110610d5a57610d59615d75565b5b60200260200101518861012001516134c7565b86610120018181525050610d8a8660c00151876040015130613957565b905080600081518110610da057610d9f615d75565b5b602002602001015186610120015111610dee576040517f08c379a0000000000000000000000000000000000000000000000000000000008152600401610de5906153f6565b60405180910390fd5b80600081518110610e0257610e01615d75565b5b6020026020010151866101200151610e1a9190615b1a565b86610140018181525050610fa7565b610e968660800151600081518110610e4457610e43615d75565b5b60200260200101518760800151600181518110610e6457610e63615d75565b5b60200260200101518860800151600481518110610e8457610e83615d75565b5b60200260200101518960a001516130f4565b5086610100018181525050610eef8660800151600181518110610ebc57610ebb615d75565b5b60200260200101518760800151600281518110610edc57610edb615d75565b5b60200260200101518861012001516134c7565b86610120018181525050610f0c8660c00151876040015130613957565b905080600081518110610f2257610f21615d75565b5b602002602001015186610120015111610f70576040517f08c379a0000000000000000000000000000000000000000000000000000000008152600401610f67906156f6565b60405180910390fd5b80600081518110610f8457610f83615d75565b5b6020026020010151866101200151610f9c9190615b1a565b866101400181815250505b612103565b6004866000015114156113b857610fe18660800151600081518110610fd457610fd3615d75565b5b6020026020010151613014565b611020576040517f08c379a0000000000000000000000000000000000000000000000000000000008152600401611017906154f6565b60405180910390fd5b611048866080015160018151811061103b5761103a615d75565b5b60200260200101516137be565b1561123f576110ba866080015160008151811061106857611067615d75565b5b6020026020010151876080015160018151811061108857611087615d75565b5b602002602001015188608001516004815181106110a8576110a7615d75565b5b60200260200101518960a001516130f4565b508661010001818152505061111386608001516001815181106110e0576110df615d75565b5b60200260200101518760800151600281518110611100576110ff615d75565b5b60200260200101518861012001516134c7565b8661012001818152505073bb4cdb9cbd36b01bd1cbaebf2de08d9173bc095c73ffffffffffffffffffffffffffffffffffffffff1663d0e30db08761012001516040518263ffffffff1660e01b81526004016000604051808303818588803b15801561117e57600080fd5b505af1158015611192573d6000803e3d6000fd5b50505050506111ab86610120015187604001513061380a565b9050600081600183516111be9190615b1a565b815181106111cf576111ce615d75565b5b602002602001015190508660c00151811161121f576040517f08c379a000000000000000000000000000000000000000000000000000000000815260040161121690615616565b60405180910390fd5b8660c001518161122f9190615b1a565b87610140018181525050506113b3565b6112ac866080015160008151811061125a57611259615d75565b5b6020026020010151876080015160018151811061127a57611279615d75565b5b6020026020010151886080015160048151811061129a57611299615d75565b5b60200260200101518960a001516130f4565b508661010001818152505061130586608001516001815181106112d2576112d1615d75565b5b602002602001015187608001516002815181106112f2576112f1615d75565b5b60200260200101518861012001516134c7565b8661012001818152505061132386610120015187604001513061380a565b9050600081600183516113369190615b1a565b8151811061134757611346615d75565b5b602002602001015190508660c001518111611397576040517f08c379a000000000000000000000000000000000000000000000000000000000815260040161138e90615556565b60405180910390fd5b8660c00151816113a79190615b1a565b87610140018181525050505b612102565b600586600001511415611a5e576113ed86608001516000815181106113e0576113df615d75565b5b60200260200101516137be565b156116355773bb4cdb9cbd36b01bd1cbaebf2de08d9173bc095c73ffffffffffffffffffffffffffffffffffffffff16632e1a7d4d8760a001516040518263ffffffff1660e01b815260040161144391906157f6565b600060405180830381600087803b15801561145d57600080fd5b505af1158015611471573d6000803e3d6000fd5b505050506114e286608001516000815181106114905761148f615d75565b5b602002602001015187608001516001815181106114b0576114af615d75565b5b602002602001015188608001516004815181106114d0576114cf615d75565b5b60200260200101518960a001516130f4565b508661010001818152505061153b866080015160018151811061150857611507615d75565b5b6020026020010151876080015160028151811061152857611527615d75565b5b60200260200101518861012001516134c7565b866101200181815250506115588660c00151876040015130613957565b90508060008151811061156e5761156d615d75565b5b6020026020010151866101200151116115bc576040517f08c379a00000000000000000000000000000000000000000000000000000000081526004016115b390615376565b60405180910390fd5b6000816000815181106115d2576115d1615d75565b5b60200260200101518761012001516115ea9190615b1a565b90506115fb8188606001513061380a565b9150816001835161160c9190615b1a565b8151811061161d5761161c615d75565b5b60200260200101518761014001818152505050611a59565b61165d86608001516001815181106116505761164f615d75565b5b60200260200101516137be565b1561189c576116cf866080015160008151811061167d5761167c615d75565b5b6020026020010151876080015160018151811061169d5761169c615d75565b5b602002602001015188608001516004815181106116bd576116bc615d75565b5b60200260200101518960a001516130f4565b508661010001818152505061172886608001516001815181106116f5576116f4615d75565b5b6020026020010151876080015160028151811061171557611714615d75565b5b60200260200101518861012001516134c7565b8661012001818152505073bb4cdb9cbd36b01bd1cbaebf2de08d9173bc095c73ffffffffffffffffffffffffffffffffffffffff1663d0e30db08761012001516040518263ffffffff1660e01b81526004016000604051808303818588803b15801561179357600080fd5b505af11580156117a7573d6000803e3d6000fd5b50505050506117bf8660c00151876040015130613957565b9050806000815181106117d5576117d4615d75565b5b602002602001015186610120015111611823576040517f08c379a000000000000000000000000000000000000000000000000000000000815260040161181a90615376565b60405180910390fd5b60008160008151811061183957611838615d75565b5b60200260200101518761012001516118519190615b1a565b90506118628188606001513061380a565b915081600183516118739190615b1a565b8151811061188457611883615d75565b5b60200260200101518761014001818152505050611a58565b61190986608001516000815181106118b7576118b6615d75565b5b602002602001015187608001516001815181106118d7576118d6615d75565b5b602002602001015188608001516004815181106118f7576118f6615d75565b5b60200260200101518960a001516130f4565b5086610100018181525050611962866080015160018151811061192f5761192e615d75565b5b6020026020010151876080015160028151811061194f5761194e615d75565b5b60200260200101518861012001516134c7565b8661012001818152505061197f8660c00151876040015130613957565b90508060008151811061199557611994615d75565b5b6020026020010151866101200151116119e3576040517f08c379a00000000000000000000000000000000000000000000000000000000081526004016119da90615656565b60405180910390fd5b6000816000815181106119f9576119f8615d75565b5b6020026020010151876101200151611a119190615b1a565b9050611a228188606001513061380a565b91508160018351611a339190615b1a565b81518110611a4457611a43615d75565b5b602002602001015187610140018181525050505b5b612101565b600686600001511415611c7957611a938660800151600181518110611a8657611a85615d75565b5b6020026020010151613014565b611ad2576040517f08c379a0000000000000000000000000000000000000000000000000000000008152600401611ac9906153b6565b60405180910390fd5b6000611b418760800151600081518110611aef57611aee615d75565b5b60200260200101518860800151600181518110611b0f57611b0e615d75565b5b60200260200101518960800151600481518110611b2f57611b2e615d75565b5b60200260200101518a60a001516130f4565b8861010001819350828152505050611b9d8760800151600181518110611b6a57611b69615d75565b5b60200260200101518860800151600281518110611b8a57611b89615d75565b5b60200260200101518961012001516134c7565b8761012001818152505060008760a00151828960c00151611bbe9190615a39565b611bc89190615b1a565b9050611bd981896040015130613957565b5082600081518110611bee57611bed615d75565b5b602002602001015188610120015111611c3c576040517f08c379a0000000000000000000000000000000000000000000000000000000008152600401611c33906154d6565b60405180910390fd5b82600081518110611c5057611c4f615d75565b5b6020026020010151886101200151611c689190615b1a565b886101400181815250505050612100565b6007866000015114156120fa57611cae8660800151600181518110611ca157611ca0615d75565b5b60200260200101516137be565b15611f13576000611d228760800151600081518110611cd057611ccf615d75565b5b60200260200101518860800151600181518110611cf057611cef615d75565b5b60200260200101518960800151600481518110611d1057611d0f615d75565b5b60200260200101518a60a001516130f4565b8861010001819350828152505050611d7e8760800151600181518110611d4b57611d4a615d75565b5b60200260200101518860800151600281518110611d6b57611d6a615d75565b5b60200260200101518961012001516134c7565b8761012001818152505073bb4cdb9cbd36b01bd1cbaebf2de08d9173bc095c73ffffffffffffffffffffffffffffffffffffffff1663d0e30db08861012001516040518263ffffffff1660e01b81526004016000604051808303818588803b158015611de957600080fd5b505af1158015611dfd573d6000803e3d6000fd5b505050505060008760a00151828960c00151611e199190615a39565b611e239190615b1a565b9050611e3481896040015130613957565b925082600081518110611e4a57611e49615d75565b5b602002602001015188610120015111611e98576040517f08c379a0000000000000000000000000000000000000000000000000000000008152600401611e8f906155d6565b60405180910390fd5b600083600081518110611eae57611ead615d75565b5b6020026020010151896101200151611ec69190615b1a565b9050611ed7818a606001513061380a565b93508360018551611ee89190615b1a565b81518110611ef957611ef8615d75565b5b6020026020010151896101400181815250505050506120f5565b6000611f828760800151600081518110611f3057611f2f615d75565b5b60200260200101518860800151600181518110611f5057611f4f615d75565b5b60200260200101518960800151600481518110611f7057611f6f615d75565b5b60200260200101518a60a001516130f4565b8861010001819350828152505050611fde8760800151600181518110611fab57611faa615d75565b5b60200260200101518860800151600281518110611fcb57611fca615d75565b5b60200260200101518961012001516134c7565b8761012001818152505060008760a00151828960c00151611fff9190615a39565b6120099190615b1a565b905061201a81896040015130613957565b9250826000815181106120305761202f615d75565b5b60200260200101518861012001511161207e576040517f08c379a000000000000000000000000000000000000000000000000000000000815260040161207590615396565b60405180910390fd5b60008360008151811061209457612093615d75565b5b60200260200101518961012001516120ac9190615b1a565b90506120bd818a606001513061380a565b935083600185516120ce9190615b1a565b815181106120df576120de615d75565b5b6020026020010151896101400181815250505050505b6120ff565b600080fd5b5b5b5b5b5b5b8273ffffffffffffffffffffffffffffffffffffffff1663a9059cbb87602001518860c001516040518363ffffffff1660e01b8152600401612148929190615316565b602060405180830381600087803b15801561216257600080fd5b505af1158015612176573d6000803e3d6000fd5b505050506040513d601f19601f8201168201806040525081019061219a919061490a565b507fee80f069d389b1636bfe8a115ff1d8ad940b394b4d16bb19c8503003d14dd5b48660000151848860a00151858a60c001518b61012001518c61014001516040516121ec979695949392919061588d565b60405180910390a15050505050505050505050565b6000670de0b6b3a7640000905073bb4cdb9cbd36b01bd1cbaebf2de08d9173bc095c73ffffffffffffffffffffffffffffffffffffffff1663d0e30db0826040518263ffffffff1660e01b81526004016000604051808303818588803b15801561226a57600080fd5b505af115801561227e573d6000803e3d6000fd5b50505050506000600267ffffffffffffffff8111156122a05761229f615da4565b5b6040519080825280602002602001820160405280156122ce5781602001602082028036833780820191505090505b50905073bb4cdb9cbd36b01bd1cbaebf2de08d9173bc095c816000815181106122fa576122f9615d75565b5b602002602001019073ffffffffffffffffffffffffffffffffffffffff16908173ffffffffffffffffffffffffffffffffffffffff1681525050828160018151811061234957612348615d75565b5b602002602001019073ffffffffffffffffffffffffffffffffffffffff16908173ffffffffffffffffffffffffffffffffffffffff168152505061238e82823061380a565b50505050565b60008060009054906101000a900473ffffffffffffffffffffffffffffffffffffffff16905090565b600189101580156123cf575060078911155b61240e576040517f08c379a000000000000000000000000000000000000000000000000000000000815260040161240590615716565b60405180910390fd5b600073ffffffffffffffffffffffffffffffffffffffff168873ffffffffffffffffffffffffffffffffffffffff16141561247e576040517f08c379a0000000000000000000000000000000000000000000000000000000008152600401612475906155f6565b60405180910390fd5b600073fd36e2c2a6789db23113685031d7f1632915838473ffffffffffffffffffffffffffffffffffffffff16635ec88c79858560048181106124c4576124c3615d75565b5b90506020020160208101906124d991906147e8565b6040518263ffffffff1660e01b81526004016124f591906152d2565b60606040518083038186803b15801561250d57600080fd5b505afa158015612521573d6000803e3d6000fd5b505050506040513d601f19601f820116820180604052508101906125459190614bc7565b925050506000811161258c576040517f08c379a000000000000000000000000000000000000000000000000000000000815260040161258390615516565b60405180910390fd5b60016000858560038181106125a4576125a3615d75565b5b90506020020160208101906125b991906147e8565b73ffffffffffffffffffffffffffffffffffffffff1673ffffffffffffffffffffffffffffffffffffffff16815260200190815260200160002060008585600081811061260957612608615d75565b5b905060200201602081019061261e91906147e8565b73ffffffffffffffffffffffffffffffffffffffff1673ffffffffffffffffffffffffffffffffffffffff16815260200190815260200160002060009054906101000a900460ff1661282f578383600381811061267e5761267d615d75565b5b905060200201602081019061269391906147e8565b73ffffffffffffffffffffffffffffffffffffffff1663095ea7b3858560008181106126c2576126c1615d75565b5b90506020020160208101906126d791906147e8565b6000196040518363ffffffff1660e01b81526004016126f7929190615316565b602060405180830381600087803b15801561271157600080fd5b505af1158015612725573d6000803e3d6000fd5b505050506040513d601f19601f82011682018060405250810190612749919061490a565b5060018060008686600381811061276357612762615d75565b5b905060200201602081019061277891906147e8565b73ffffffffffffffffffffffffffffffffffffffff1673ffffffffffffffffffffffffffffffffffffffff1681526020019081526020016000206000868660008181106127c8576127c7615d75565b5b90506020020160208101906127dd91906147e8565b73ffffffffffffffffffffffffffffffffffffffff1673ffffffffffffffffffffffffffffffffffffffff16815260200190815260200160002060006101000a81548160ff0219169083151502179055505b6128608484600381811061284657612845615d75565b5b905060200201602081019061285b91906147e8565b612201565b60008484600381811061287657612875615d75565b5b905060200201602081019061288b91906147e8565b73ffffffffffffffffffffffffffffffffffffffff166370a08231306040518263ffffffff1660e01b81526004016128c391906152d2565b60206040518083038186803b1580156128db57600080fd5b505afa1580156128ef573d6000803e3d6000fd5b505050506040513d601f19601f82011682018060405250810190612913919061498a565b905060008a73ffffffffffffffffffffffffffffffffffffffff16630dfe16816040518163ffffffff1660e01b815260040160206040518083038186803b15801561295d57600080fd5b505afa158015612971573d6000803e3d6000fd5b505050506040513d601f19601f820116820180604052508101906129959190614815565b905060008b73ffffffffffffffffffffffffffffffffffffffff1663d21220a76040518163ffffffff1660e01b815260040160206040518083038186803b1580156129df57600080fd5b505afa1580156129f3573d6000803e3d6000fd5b505050506040513d601f19601f82011682018060405250810190612a179190614815565b905060008273ffffffffffffffffffffffffffffffffffffffff1688886003818110612a4657612a45615d75565b5b9050602002016020810190612a5b91906147e8565b73ffffffffffffffffffffffffffffffffffffffff1614612a7d576000612a7f565b855b905060008273ffffffffffffffffffffffffffffffffffffffff1689896003818110612aae57612aad615d75565b5b9050602002016020810190612ac391906147e8565b73ffffffffffffffffffffffffffffffffffffffff1614612ae5576000612ae7565b865b905060008f8f8f8f8f8f8f8f8f604051602001612b0c99989796959493929190615811565b60405160208183030381529060405290508e73ffffffffffffffffffffffffffffffffffffffff1663022c0d9f848430856040518563ffffffff1660e01b8152600401612b5c9493929190615925565b600060405180830381600087803b158015612b7657600080fd5b505af1158015612b8a573d6000803e3d6000fd5b5050505060008a8a6003818110612ba457612ba3615d75565b5b9050602002016020810190612bb991906147e8565b73ffffffffffffffffffffffffffffffffffffffff166370a08231306040518263ffffffff1660e01b8152600401612bf191906152d2565b60206040518083038186803b158015612c0957600080fd5b505afa158015612c1d573d6000803e3d6000fd5b505050506040513d601f19601f82011682018060405250810190612c41919061498a565b90507f66ff0161865ce411b20fbb12ecef6d576c0b2397bce9bc4b834e0a9d969bbf248782604051612c749291906158fc565b60405180910390a15050505050505050505050505050505050565b612c97612f48565b73ffffffffffffffffffffffffffffffffffffffff16612cb5612394565b73ffffffffffffffffffffffffffffffffffffffff1614612d0b576040517f08c379a0000000000000000000000000000000000000000000000000000000008152600401612d0290615636565b60405180910390fd5b600073ffffffffffffffffffffffffffffffffffffffff168173ffffffffffffffffffffffffffffffffffffffff161415612d7b576040517f08c379a0000000000000000000000000000000000000000000000000000000008152600401612d7290615436565b60405180910390fd5b612d8481612f50565b50565b612d8f612f48565b73ffffffffffffffffffffffffffffffffffffffff16612dad612394565b73ffffffffffffffffffffffffffffffffffffffff1614612e03576040517f08c379a0000000000000000000000000000000000000000000000000000000008152600401612dfa90615636565b60405180910390fd5b600073ffffffffffffffffffffffffffffffffffffffff168273ffffffffffffffffffffffffffffffffffffffff161415612e73576040517f08c379a0000000000000000000000000000000000000000000000000000000008152600401612e6a90615416565b60405180910390fd5b60008111612eb6576040517f08c379a0000000000000000000000000000000000000000000000000000000008152600401612ead90615576565b60405180910390fd5b8173ffffffffffffffffffffffffffffffffffffffff1663a9059cbb33836040518363ffffffff1660e01b8152600401612ef1929190615316565b602060405180830381600087803b158015612f0b57600080fd5b505af1158015612f1f573d6000803e3d6000fd5b505050506040513d601f19601f82011682018060405250810190612f43919061490a565b505050565b600033905090565b60008060009054906101000a900473ffffffffffffffffffffffffffffffffffffffff169050816000806101000a81548173ffffffffffffffffffffffffffffffffffffffff021916908373ffffffffffffffffffffffffffffffffffffffff1602179055508173ffffffffffffffffffffffffffffffffffffffff168173ffffffffffffffffffffffffffffffffffffffff167f8be0079c531659141344cd1fd0a4f28419497f9722a3daafe3b4186f6b6457e060405160405180910390a35050565b60007395c78222b3d6e262426483d42cfa53685a67ab9d73ffffffffffffffffffffffffffffffffffffffff168273ffffffffffffffffffffffffffffffffffffffff1614806130a3575073fd5840cd36d94d7229439859c0112a4185bc025573ffffffffffffffffffffffffffffffffffffffff168273ffffffffffffffffffffffffffffffffffffffff16145b806130ed575073334b3ecb4dca3593bccc3c7ebd1a1c1d1780fbf173ffffffffffffffffffffffffffffffffffffffff168273ffffffffffffffffffffffffffffffffffffffff16145b9050919050565b600080600085905060008060008373ffffffffffffffffffffffffffffffffffffffff166370a08231306040518263ffffffff1660e01b815260040161313a91906152d2565b60206040518083038186803b15801561315257600080fd5b505afa158015613166573d6000803e3d6000fd5b505050506040513d601f19601f8201168201806040525081019061318a919061498a565b90506131958a6137be565b1561320d578973ffffffffffffffffffffffffffffffffffffffff1663aae40a2a888a8c6040518463ffffffff1660e01b81526004016131d69291906152ed565b6000604051808303818588803b1580156131ef57600080fd5b505af1158015613203573d6000803e3d6000fd5b50505050506133d2565b6132168a613aa4565b156132f9578973ffffffffffffffffffffffffffffffffffffffff166311b3d5e78989876040518463ffffffff1660e01b81526004016132589392919061533f565b6040805180830381600087803b15801561327157600080fd5b505af1158015613285573d6000803e3d6000fd5b505050506040513d601f19601f820116820180604052508101906132a99190614b87565b8093508194505050600083146132f4576040517f08c379a00000000000000000000000000000000000000000000000000000000081526004016132eb906155b6565b60405180910390fd5b6133d1565b60008a905060008173ffffffffffffffffffffffffffffffffffffffff1663f5e3c4628b8b896040518463ffffffff1660e01b815260040161333d9392919061533f565b602060405180830381600087803b15801561335757600080fd5b505af115801561336b573d6000803e3d6000fd5b505050506040513d601f19601f8201168201806040525081019061338f919061498a565b146133cf576040517f08c379a00000000000000000000000000000000000000000000000000000000081526004016133c690615456565b60405180910390fd5b505b5b60008473ffffffffffffffffffffffffffffffffffffffff166370a08231306040518263ffffffff1660e01b815260040161340d91906152d2565b60206040518083038186803b15801561342557600080fd5b505afa158015613439573d6000803e3d6000fd5b505050506040513d601f19601f8201168201806040525081019061345d919061498a565b90506000828261346d9190615b1a565b9050600081116134b2576040517f08c379a00000000000000000000000000000000000000000000000000000000081526004016134a990615536565b60405180910390fd5b80849750975050505050505094509492505050565b6000806000806134d6876137be565b156135b35747925060008773ffffffffffffffffffffffffffffffffffffffff1663db006a75876040518263ffffffff1660e01b815260040161351991906157f6565b602060405180830381600087803b15801561353357600080fd5b505af1158015613547573d6000803e3d6000fd5b505050506040513d601f19601f8201168201806040525081019061356b919061498a565b146135ab576040517f08c379a00000000000000000000000000000000000000000000000000000000081526004016135a290615756565b60405180910390fd5b4791506137a3565b600087905060008790508073ffffffffffffffffffffffffffffffffffffffff166370a08231306040518263ffffffff1660e01b81526004016135f691906152d2565b60206040518083038186803b15801561360e57600080fd5b505afa158015613622573d6000803e3d6000fd5b505050506040513d601f19601f82011682018060405250810190613646919061498a565b945060008273ffffffffffffffffffffffffffffffffffffffff1663db006a75896040518263ffffffff1660e01b815260040161368391906157f6565b602060405180830381600087803b15801561369d57600080fd5b505af11580156136b1573d6000803e3d6000fd5b505050506040513d601f19601f820116820180604052508101906136d5919061498a565b14613715576040517f08c379a000000000000000000000000000000000000000000000000000000000815260040161370c906157d6565b60405180910390fd5b8073ffffffffffffffffffffffffffffffffffffffff166370a08231306040518263ffffffff1660e01b815260040161374e91906152d2565b60206040518083038186803b15801561376657600080fd5b505afa15801561377a573d6000803e3d6000fd5b505050506040513d601f19601f8201168201806040525081019061379e919061498a565b935050505b82826137af9190615b1a565b90508093505050509392505050565b600073a07c5b74c9b40447a954e1466938b865b6bbea3673ffffffffffffffffffffffffffffffffffffffff168273ffffffffffffffffffffffffffffffffffffffff16149050919050565b606061382b73ca143ce32fe78f1f7019d7d551a6402fc5350c738585613af0565b90508260008151811061384157613840615d75565b5b602002602001015173ffffffffffffffffffffffffffffffffffffffff1663a9059cbb6138b973ca143ce32fe78f1f7019d7d551a6402fc5350c73866000815181106138905761388f615d75565b5b6020026020010151876001815181106138ac576138ab615d75565b5b6020026020010151613c7b565b836000815181106138cd576138cc615d75565b5b60200260200101516040518363ffffffff1660e01b81526004016138f2929190615316565b602060405180830381600087803b15801561390c57600080fd5b505af1158015613920573d6000803e3d6000fd5b505050506040513d601f19601f82011682018060405250810190613944919061490a565b50613950818484613ced565b9392505050565b606061397873ca143ce32fe78f1f7019d7d551a6402fc5350c738585613f2e565b90508260008151811061398e5761398d615d75565b5b602002602001015173ffffffffffffffffffffffffffffffffffffffff1663a9059cbb613a0673ca143ce32fe78f1f7019d7d551a6402fc5350c73866000815181106139dd576139dc615d75565b5b6020026020010151876001815181106139f9576139f8615d75565b5b6020026020010151613c7b565b83600081518110613a1a57613a19615d75565b5b60200260200101516040518363ffffffff1660e01b8152600401613a3f929190615316565b602060405180830381600087803b158015613a5957600080fd5b505af1158015613a6d573d6000803e3d6000fd5b505050506040513d601f19601f82011682018060405250810190613a91919061490a565b50613a9d818484613ced565b9392505050565b6000734bd17003473389a42daf6a0a729f6fdb328bbbd773ffffffffffffffffffffffffffffffffffffffff168273ffffffffffffffffffffffffffffffffffffffff16149050919050565b6060600282511015613b37576040517f08c379a0000000000000000000000000000000000000000000000000000000008152600401613b2e90615476565b60405180910390fd5b815167ffffffffffffffff811115613b5257613b51615da4565b5b604051908082528060200260200182016040528015613b805781602001602082028036833780820191505090505b5090508281600081518110613b9857613b97615d75565b5b60200260200101818152505060005b60018351613bb59190615b1a565b811015613c7357600080613c0a87868581518110613bd657613bd5615d75565b5b602002602001015187600187613bec9190615a39565b81518110613bfd57613bfc615d75565b5b60200260200101516140c9565b91509150613c33848481518110613c2457613c23615d75565b5b602002602001015183836141e7565b84600185613c419190615a39565b81518110613c5257613c51615d75565b5b60200260200101818152505050508080613c6b90615ca0565b915050613ba7565b509392505050565b6000806000613c8a85856142ed565b91509150858282604051602001613ca2929190615264565b60405160208183030381529060405280519060200120604051602001613cc9929190615290565b6040516020818303038152906040528051906020012060001c925050509392505050565b60005b60018351613cfe9190615b1a565b811015613f2857600080848381518110613d1b57613d1a615d75565b5b602002602001015185600185613d319190615a39565b81518110613d4257613d41615d75565b5b6020026020010151915091506000613d5a83836142ed565b509050600087600186613d6d9190615a39565b81518110613d7e57613d7d615d75565b5b602002602001015190506000808373ffffffffffffffffffffffffffffffffffffffff168673ffffffffffffffffffffffffffffffffffffffff1614613dc657826000613dca565b6000835b91509150600060028a51613dde9190615b1a565b8810613dea5788613e30565b613e2f73ca143ce32fe78f1f7019d7d551a6402fc5350c73878c60028c613e119190615a39565b81518110613e2257613e21615d75565b5b6020026020010151613c7b565b5b9050613e5173ca143ce32fe78f1f7019d7d551a6402fc5350c738888613c7b565b73ffffffffffffffffffffffffffffffffffffffff1663022c0d9f848484600067ffffffffffffffff811115613e8a57613e89615da4565b5b6040519080825280601f01601f191660200182016040528015613ebc5781602001600182028036833780820191505090505b506040518563ffffffff1660e01b8152600401613edc9493929190615925565b600060405180830381600087803b158015613ef657600080fd5b505af1158015613f0a573d6000803e3d6000fd5b50505050505050505050508080613f2090615ca0565b915050613cf0565b50505050565b6060600282511015613f75576040517f08c379a0000000000000000000000000000000000000000000000000000000008152600401613f6c90615476565b60405180910390fd5b815167ffffffffffffffff811115613f9057613f8f615da4565b5b604051908082528060200260200182016040528015613fbe5781602001602082028036833780820191505090505b509050828160018351613fd19190615b1a565b81518110613fe257613fe1615d75565b5b602002602001018181525050600060018351613ffe9190615b1a565b90505b60008111156140c157600080614058878660018661401f9190615b1a565b815181106140305761402f615d75565b5b602002602001015187868151811061404b5761404a615d75565b5b60200260200101516140c9565b9150915061408184848151811061407257614071615d75565b5b6020026020010151838361441b565b8460018561408f9190615b1a565b815181106140a05761409f615d75565b5b602002602001018181525050505080806140b990615c45565b915050614001565b509392505050565b60008060006140d885856142ed565b5090506140e6868686613c7b565b506000806140f5888888613c7b565b73ffffffffffffffffffffffffffffffffffffffff16630902f1ac6040518163ffffffff1660e01b815260040160606040518083038186803b15801561413a57600080fd5b505afa15801561414e573d6000803e3d6000fd5b505050506040513d601f19601f820116820180604052508101906141729190614937565b506dffffffffffffffffffffffffffff1691506dffffffffffffffffffffffffffff1691508273ffffffffffffffffffffffffffffffffffffffff168773ffffffffffffffffffffffffffffffffffffffff16146141d15780826141d4565b81815b8095508196505050505050935093915050565b600080841161422b576040517f08c379a0000000000000000000000000000000000000000000000000000000008152600401614222906153d6565b60405180910390fd5b60008311801561423b5750600082115b61427a576040517f08c379a000000000000000000000000000000000000000000000000000000000815260040161427190615796565b60405180910390fd5b60006142916126f78661452e90919063ffffffff16565b905060006142a8848361452e90919063ffffffff16565b905060006142d3836142c56127108961452e90919063ffffffff16565b61454490919063ffffffff16565b905080826142e19190615a8f565b93505050509392505050565b6000808273ffffffffffffffffffffffffffffffffffffffff168473ffffffffffffffffffffffffffffffffffffffff16141561435f576040517f08c379a000000000000000000000000000000000000000000000000000000000815260040161435690615596565b60405180910390fd5b8273ffffffffffffffffffffffffffffffffffffffff168473ffffffffffffffffffffffffffffffffffffffff161061439957828461439c565b83835b8092508193505050600073ffffffffffffffffffffffffffffffffffffffff168273ffffffffffffffffffffffffffffffffffffffff161415614414576040517f08c379a000000000000000000000000000000000000000000000000000000000815260040161440b906156d6565b60405180910390fd5b9250929050565b600080841161445f576040517f08c379a000000000000000000000000000000000000000000000000000000000815260040161445690615496565b60405180910390fd5b60008311801561446f5750600082115b6144ae576040517f08c379a00000000000000000000000000000000000000000000000000000000081526004016144a590615796565b60405180910390fd5b60006144d76127106144c9878761452e90919063ffffffff16565b61452e90919063ffffffff16565b905060006145026126f76144f4888761455a90919063ffffffff16565b61452e90919063ffffffff16565b9050614523600182846145159190615a8f565b61454490919063ffffffff16565b925050509392505050565b6000818361453c9190615ac0565b905092915050565b600081836145529190615a39565b905092915050565b600081836145689190615b1a565b905092915050565b60405180610160016040528060008152602001600073ffffffffffffffffffffffffffffffffffffffff1681526020016060815260200160608152602001606081526020016000815260200160008152602001600073ffffffffffffffffffffffffffffffffffffffff1681526020016000815260200160008152602001600081525090565b600061460961460484615996565b615971565b9050808382526020820190508285602086028201111561462c5761462b615ddd565b5b60005b8581101561465c57816146428882614666565b84526020840193506020830192505060018101905061462f565b5050509392505050565b60008135905061467581616529565b92915050565b60008151905061468a81616529565b92915050565b60008135905061469f81616540565b92915050565b60008083601f8401126146bb576146ba615dd8565b5b8235905067ffffffffffffffff8111156146d8576146d7615dd3565b5b6020830191508360208202830111156146f4576146f3615ddd565b5b9250929050565b600082601f8301126147105761470f615dd8565b5b81356147208482602086016145f6565b91505092915050565b60008151905061473881616557565b92915050565b60008083601f84011261475457614753615dd8565b5b8235905067ffffffffffffffff81111561477157614770615dd3565b5b60208301915083600182028301111561478d5761478c615ddd565b5b9250929050565b6000815190506147a38161656e565b92915050565b6000813590506147b881616585565b92915050565b6000815190506147cd81616585565b92915050565b6000815190506147e28161659c565b92915050565b6000602082840312156147fe576147fd615de7565b5b600061480c84828501614666565b91505092915050565b60006020828403121561482b5761482a615de7565b5b60006148398482850161467b565b91505092915050565b6000806040838503121561485957614858615de7565b5b600061486785828601614666565b9250506020614878858286016147a9565b9150509250929050565b60008060008060006080868803121561489e5761489d615de7565b5b60006148ac88828901614666565b95505060206148bd888289016147a9565b94505060406148ce888289016147a9565b935050606086013567ffffffffffffffff8111156148ef576148ee615de2565b5b6148fb8882890161473e565b92509250509295509295909350565b6000602082840312156149205761491f615de7565b5b600061492e84828501614729565b91505092915050565b6000806000606084860312156149505761494f615de7565b5b600061495e86828701614794565b935050602061496f86828701614794565b9250506040614980868287016147d3565b9150509250925092565b6000602082840312156149a05761499f615de7565b5b60006149ae848285016147be565b91505092915050565b60008060008060008060c087890312156149d4576149d3615de7565b5b60006149e289828a016147a9565b96505060206149f389828a01614690565b955050604087013567ffffffffffffffff811115614a1457614a13615de2565b5b614a2089828a016146fb565b945050606087013567ffffffffffffffff811115614a4157614a40615de2565b5b614a4d89828a016146fb565b935050608087013567ffffffffffffffff811115614a6e57614a6d615de2565b5b614a7a89828a016146fb565b92505060a0614a8b89828a016147a9565b9150509295509295509295565b600080600080600080600080600060c08a8c031215614aba57614ab9615de7565b5b6000614ac88c828d016147a9565b9950506020614ad98c828d01614666565b98505060408a013567ffffffffffffffff811115614afa57614af9615de2565b5b614b068c828d016146a5565b975097505060608a013567ffffffffffffffff811115614b2957614b28615de2565b5b614b358c828d016146a5565b955095505060808a013567ffffffffffffffff811115614b5857614b57615de2565b5b614b648c828d016146a5565b935093505060a0614b778c828d016147a9565b9150509295985092959850929598565b60008060408385031215614b9e57614b9d615de7565b5b6000614bac858286016147be565b9250506020614bbd858286016147be565b9150509250929050565b600080600060608486031215614be057614bdf615de7565b5b6000614bee868287016147be565b9350506020614bff868287016147be565b9250506040614c10868287016147be565b9150509250925092565b6000614c268383614c32565b60208301905092915050565b614c3b81615b4e565b82525050565b614c4a81615b4e565b82525050565b614c61614c5c82615b4e565b615ce9565b82525050565b6000614c7383856159e4565b9350614c7e826159c2565b8060005b85811015614cb757614c948284615a22565b614c9e8882614c1a565b9750614ca9836159d7565b925050600181019050614c82565b5085925050509392505050565b614cd5614cd082615b7e565b615cfb565b82525050565b6000614ce6826159cc565b614cf081856159f5565b9350614d00818560208601615c12565b614d0981615dec565b840191505092915050565b614d1d81615bdc565b82525050565b6000614d30600c83615a06565b9150614d3b82615e0a565b602082019050919050565b6000614d53600c83615a06565b9150614d5e82615e33565b602082019050919050565b6000614d76602083615a06565b9150614d8182615e5c565b602082019050919050565b6000614d99602983615a06565b9150614da482615e85565b604082019050919050565b6000614dbc600c83615a06565b9150614dc782615ed4565b602082019050919050565b6000614ddf601883615a06565b9150614dea82615efd565b602082019050919050565b6000614e02602683615a06565b9150614e0d82615f26565b604082019050919050565b6000614e25601683615a06565b9150614e3082615f75565b602082019050919050565b6000614e48601c83615a06565b9150614e5382615f9e565b602082019050919050565b6000614e6b602a83615a06565b9150614e7682615fc7565b604082019050919050565b6000614e8e600883615a06565b9150614e9982616016565b602082019050919050565b6000614eb1600983615a06565b9150614ebc8261603f565b602082019050919050565b6000614ed4601f83615a06565b9150614edf82616068565b602082019050919050565b6000614ef7602183615a06565b9150614f0282616091565b604082019050919050565b6000614f1a601c83615a06565b9150614f25826160e0565b602082019050919050565b6000614f3d600c83615a06565b9150614f4882616109565b602082019050919050565b6000614f60601c83615a06565b9150614f6b82616132565b602082019050919050565b6000614f83602383615a06565b9150614f8e8261615b565b604082019050919050565b6000614fa6601583615a06565b9150614fb1826161aa565b602082019050919050565b6000614fc9600c83615a06565b9150614fd4826161d3565b602082019050919050565b6000614fec600583615a06565b9150614ff7826161fc565b602082019050919050565b600061500f600c83615a06565b915061501a82616225565b602082019050919050565b6000615032600183615a17565b915061503d8261624e565b600182019050919050565b6000615055602083615a06565b915061506082616277565b602082019050919050565b6000615078600c83615a06565b9150615083826162a0565b602082019050919050565b600061509b602083615a17565b91506150a6826162c9565b602082019050919050565b60006150be602183615a06565b91506150c9826162f1565b604082019050919050565b60006150e1601183615a06565b91506150ec82616340565b602082019050919050565b6000615104600783615a06565b915061510f82616369565b602082019050919050565b6000615127601c83615a06565b915061513282616392565b602082019050919050565b600061514a601083615a06565b9150615155826163bb565b602082019050919050565b600061516d600883615a06565b9150615178826163e4565b602082019050919050565b6000615190600c83615a06565b915061519b8261640d565b602082019050919050565b60006151b3600e83615a06565b91506151be82616436565b602082019050919050565b60006151d6601083615a06565b91506151e18261645f565b602082019050919050565b60006151f9602683615a06565b915061520482616488565b604082019050919050565b600061521c600b83615a06565b9150615227826164d7565b602082019050919050565b600061523f600c83615a06565b915061524a82616500565b602082019050919050565b61525e81615bc2565b82525050565b60006152708285614c50565b6014820191506152808284614c50565b6014820191508190509392505050565b600061529b82615025565b91506152a78285614c50565b6014820191506152b78284614cc4565b6020820191506152c68261508e565b91508190509392505050565b60006020820190506152e76000830184614c41565b92915050565b60006040820190506153026000830185614c41565b61530f6020830184614c41565b9392505050565b600060408201905061532b6000830185614c41565b6153386020830184615255565b9392505050565b60006060820190506153546000830186614c41565b6153616020830185615255565b61536e6040830184614d14565b949350505050565b6000602082019050818103600083015261538f81614d23565b9050919050565b600060208201905081810360008301526153af81614d46565b9050919050565b600060208201905081810360008301526153cf81614d69565b9050919050565b600060208201905081810360008301526153ef81614d8c565b9050919050565b6000602082019050818103600083015261540f81614daf565b9050919050565b6000602082019050818103600083015261542f81614dd2565b9050919050565b6000602082019050818103600083015261544f81614df5565b9050919050565b6000602082019050818103600083015261546f81614e18565b9050919050565b6000602082019050818103600083015261548f81614e3b565b9050919050565b600060208201905081810360008301526154af81614e5e565b9050919050565b600060208201905081810360008301526154cf81614e81565b9050919050565b600060208201905081810360008301526154ef81614ea4565b9050919050565b6000602082019050818103600083015261550f81614ec7565b9050919050565b6000602082019050818103600083015261552f81614eea565b9050919050565b6000602082019050818103600083015261554f81614f0d565b9050919050565b6000602082019050818103600083015261556f81614f30565b9050919050565b6000602082019050818103600083015261558f81614f53565b9050919050565b600060208201905081810360008301526155af81614f76565b9050919050565b600060208201905081810360008301526155cf81614f99565b9050919050565b600060208201905081810360008301526155ef81614fbc565b9050919050565b6000602082019050818103600083015261560f81614fdf565b9050919050565b6000602082019050818103600083015261562f81615002565b9050919050565b6000602082019050818103600083015261564f81615048565b9050919050565b6000602082019050818103600083015261566f8161506b565b9050919050565b6000602082019050818103600083015261568f816150b1565b9050919050565b600060208201905081810360008301526156af816150d4565b9050919050565b600060208201905081810360008301526156cf816150f7565b9050919050565b600060208201905081810360008301526156ef8161511a565b9050919050565b6000602082019050818103600083015261570f8161513d565b9050919050565b6000602082019050818103600083015261572f81615160565b9050919050565b6000602082019050818103600083015261574f81615183565b9050919050565b6000602082019050818103600083015261576f816151a6565b9050919050565b6000602082019050818103600083015261578f816151c9565b9050919050565b600060208201905081810360008301526157af816151ec565b9050919050565b600060208201905081810360008301526157cf8161520f565b9050919050565b600060208201905081810360008301526157ef81615232565b9050919050565b600060208201905061580b6000830184615255565b92915050565b600060c082019050615826600083018c615255565b615833602083018b614c41565b818103604083015261584681898b614c67565b9050818103606083015261585b818789614c67565b90508181036080830152615870818587614c67565b905061587f60a0830184615255565b9a9950505050505050505050565b600060e0820190506158a2600083018a615255565b6158af6020830189614c41565b6158bc6040830188615255565b6158c96060830187614c41565b6158d66080830186615255565b6158e360a0830185615255565b6158f060c0830184615255565b98975050505050505050565b60006040820190506159116000830185615255565b61591e6020830184615255565b9392505050565b600060808201905061593a6000830187615255565b6159476020830186615255565b6159546040830185614c41565b81810360608301526159668184614cdb565b905095945050505050565b600061597b61598c565b90506159878282615c6f565b919050565b6000604051905090565b600067ffffffffffffffff8211156159b1576159b0615da4565b5b602082029050602081019050919050565b6000819050919050565b600081519050919050565b6000602082019050919050565b600082825260208201905092915050565b600082825260208201905092915050565b600082825260208201905092915050565b600081905092915050565b6000615a316020840184614666565b905092915050565b6000615a4482615bc2565b9150615a4f83615bc2565b9250827fffffffffffffffffffffffffffffffffffffffffffffffffffffffffffffffff03821115615a8457615a83615d17565b5b828201905092915050565b6000615a9a82615bc2565b9150615aa583615bc2565b925082615ab557615ab4615d46565b5b828204905092915050565b6000615acb82615bc2565b9150615ad683615bc2565b9250817fffffffffffffffffffffffffffffffffffffffffffffffffffffffffffffffff0483118215151615615b0f57615b0e615d17565b5b828202905092915050565b6000615b2582615bc2565b9150615b3083615bc2565b925082821015615b4357615b42615d17565b5b828203905092915050565b6000615b5982615ba2565b9050919050565b6000615b6b82615ba2565b9050919050565b60008115159050919050565b6000819050919050565b60006dffffffffffffffffffffffffffff82169050919050565b600073ffffffffffffffffffffffffffffffffffffffff82169050919050565b6000819050919050565b600063ffffffff82169050919050565b6000615be782615bee565b9050919050565b6000615bf982615c00565b9050919050565b6000615c0b82615ba2565b9050919050565b60005b83811015615c30578082015181840152602081019050615c15565b83811115615c3f576000848401525b50505050565b6000615c5082615bc2565b91506000821415615c6457615c63615d17565b5b600182039050919050565b615c7882615dec565b810181811067ffffffffffffffff82111715615c9757615c96615da4565b5b80604052505050565b6000615cab82615bc2565b91507fffffffffffffffffffffffffffffffffffffffffffffffffffffffffffffffff821415615cde57615cdd615d17565b5b600182019050919050565b6000615cf482615d05565b9050919050565b6000819050919050565b6000615d1082615dfd565b9050919050565b7f4e487b7100000000000000000000000000000000000000000000000000000000600052601160045260246000fd5b7f4e487b7100000000000000000000000000000000000000000000000000000000600052601260045260246000fd5b7f4e487b7100000000000000000000000000000000000000000000000000000000600052603260045260246000fd5b7f4e487b7100000000000000000000000000000000000000000000000000000000600052604160045260246000fd5b600080fd5b600080fd5b600080fd5b600080fd5b600080fd5b6000601f19601f8301169050919050565b60008160601b9050919050565b7f352e312d6e6f2065787472610000000000000000000000000000000000000000600082015250565b7f372e322d6e6f2065787472610000000000000000000000000000000000000000600082015250565b7f362d7365697a6564546f6b656e206973206e6f7420737461626c6520636f696e600082015250565b7f50616e63616b654c6962726172793a20494e53554646494349454e545f494e5060008201527f55545f414d4f554e540000000000000000000000000000000000000000000000602082015250565b7f332e312d6e6f2d65787472610000000000000000000000000000000000000000600082015250565b7f61646472657373206d757374206e6f74206265207a65726f0000000000000000600082015250565b7f4f776e61626c653a206e6577206f776e657220697320746865207a65726f206160008201527f6464726573730000000000000000000000000000000000000000000000000000602082015250565b7f6c6971756964617465426f72726f77206572726f722000000000000000000000600082015250565b7f50616e63616b654c6962726172793a20494e56414c49445f5041544800000000600082015250565b7f50616e63616b654c6962726172793a20494e53554646494349454e545f4f555460008201527f5055545f414d4f554e5400000000000000000000000000000000000000000000602082015250565b7f6e6f206578747261000000000000000000000000000000000000000000000000600082015250565b7f362d6e6f65787472610000000000000000000000000000000000000000000000600082015250565b7f342d7265706179546f6b656e206973206e6f7420737461626c6520636f696e00600082015250565b7f73686f727466616c6c206d7573742067726561746572207468616e207a65722060008201527f3000000000000000000000000000000000000000000000000000000000000000602082015250565b7f7365697a65642056546f6b656e20616d6f756e74206973207a65726f00000000600082015250565b7f342e322d6e6f2065787472610000000000000000000000000000000000000000600082015250565b7f616d6f756e74206d75737420626967676572207468616e207a65726f00000000600082015250565b7f50616e63616b654c6962726172793a204944454e544943414c5f41444452455360008201527f5345530000000000000000000000000000000000000000000000000000000000602082015250565b7f6c6971756964617465426f72726f77206572726f720000000000000000000000600082015250565b7f372e312d6e6f2065787472610000000000000000000000000000000000000000600082015250565b7f2170616972000000000000000000000000000000000000000000000000000000600082015250565b7f342e312d6e6f2065787472610000000000000000000000000000000000000000600082015250565b7fff00000000000000000000000000000000000000000000000000000000000000600082015250565b7f4f776e61626c653a2063616c6c6572206973206e6f7420746865206f776e6572600082015250565b7f352e332d6e6f2065787472610000000000000000000000000000000000000000600082015250565b7efb7f630766e6a796048ea87d01acd3068e8ff67d078148a3fa3f4a84f69bd5600082015250565b7f332d7365697a656420746f6b656e206973206e6f7420737461626c6520636f6960008201527f6e00000000000000000000000000000000000000000000000000000000000000602082015250565b7f312d6e6f7420737461626c6520636f696e000000000000000000000000000000600082015250565b7f2173656e64657200000000000000000000000000000000000000000000000000600082015250565b7f50616e63616b654c6962726172793a205a45524f5f4144445245535300000000600082015250565b7f332e322d626e622d6e6f2d657874726100000000000000000000000000000000600082015250565b7f77726f6e67207369000000000000000000000000000000000000000000000000600082015250565b7f322e312d6e6f2d65787472610000000000000000000000000000000000000000600082015250565b7f72656465656d20424e4220657272000000000000000000000000000000000000600082015250565b7f312d206e6f742073616d6520636f696e00000000000000000000000000000000600082015250565b7f50616e63616b654c6962726172793a20494e53554646494349454e545f4c495160008201527f5549444954590000000000000000000000000000000000000000000000000000602082015250565b7f322e312d70617468657272000000000000000000000000000000000000000000600082015250565b7f72656465656d206572726f720000000000000000000000000000000000000000600082015250565b61653281615b4e565b811461653d57600080fd5b50565b61654981615b60565b811461655457600080fd5b50565b61656081615b72565b811461656b57600080fd5b50565b61657781615b88565b811461658257600080fd5b50565b61658e81615bc2565b811461659957600080fd5b50565b6165a581615bcc565b81146165b057600080fd5b5056fea2646970667358221220e3a7f8d8308428eb870c72ff7ee6f29a3e0b23e22e73b223e33dc0e00c17582264736f6c63430008070033",
			"opcodes": "PUSH1 0x80 PUSH1 0x40 MSTORE CALLVALUE DUP1 ISZERO PUSH3 0x11 JUMPI PUSH1 0x0 DUP1 REVERT JUMPDEST POP PUSH3 0x32 PUSH3 0x26 PUSH3 0x38 PUSH1 0x20 SHL PUSH1 0x20 SHR JUMP JUMPDEST PUSH3 0x40 PUSH1 0x20 SHL PUSH1 0x20 SHR JUMP JUMPDEST PUSH3 0x104 JUMP JUMPDEST PUSH1 0x0 CALLER SWAP1 POP SWAP1 JUMP JUMPDEST PUSH1 0x0 DUP1 PUSH1 0x0 SWAP1 SLOAD SWAP1 PUSH2 0x100 EXP SWAP1 DIV PUSH20 0xFFFFFFFFFFFFFFFFFFFFFFFFFFFFFFFFFFFFFFFF AND SWAP1 POP DUP2 PUSH1 0x0 DUP1 PUSH2 0x100 EXP DUP2 SLOAD DUP2 PUSH20 0xFFFFFFFFFFFFFFFFFFFFFFFFFFFFFFFFFFFFFFFF MUL NOT AND SWAP1 DUP4 PUSH20 0xFFFFFFFFFFFFFFFFFFFFFFFFFFFFFFFFFFFFFFFF AND MUL OR SWAP1 SSTORE POP DUP2 PUSH20 0xFFFFFFFFFFFFFFFFFFFFFFFFFFFFFFFFFFFFFFFF AND DUP2 PUSH20 0xFFFFFFFFFFFFFFFFFFFFFFFFFFFFFFFFFFFFFFFF AND PUSH32 0x8BE0079C531659141344CD1FD0A4F28419497F9722A3DAAFE3B4186F6B6457E0 PUSH1 0x40 MLOAD PUSH1 0x40 MLOAD DUP1 SWAP2 SUB SWAP1 LOG3 POP POP JUMP JUMPDEST PUSH2 0x65E9 DUP1 PUSH3 0x114 PUSH1 0x0 CODECOPY PUSH1 0x0 RETURN INVALID PUSH1 0x80 PUSH1 0x40 MSTORE PUSH1 0x4 CALLDATASIZE LT PUSH2 0x74 JUMPI PUSH1 0x0 CALLDATALOAD PUSH1 0xE0 SHR DUP1 PUSH4 0x8DA5CB5B GT PUSH2 0x4E JUMPI DUP1 PUSH4 0x8DA5CB5B EQ PUSH2 0xE9 JUMPI DUP1 PUSH4 0xB14E9A72 EQ PUSH2 0x114 JUMPI DUP1 PUSH4 0xF2FDE38B EQ PUSH2 0x13D JUMPI DUP1 PUSH4 0xF3FEF3A3 EQ PUSH2 0x166 JUMPI PUSH2 0x7B JUMP JUMPDEST DUP1 PUSH4 0x715018A6 EQ PUSH2 0x80 JUMPI DUP1 PUSH4 0x84800812 EQ PUSH2 0x97 JUMPI DUP1 PUSH4 0x89C33748 EQ PUSH2 0xC0 JUMPI PUSH2 0x7B JUMP JUMPDEST CALLDATASIZE PUSH2 0x7B JUMPI STOP JUMPDEST PUSH1 0x0 DUP1 REVERT JUMPDEST CALLVALUE DUP1 ISZERO PUSH2 0x8C JUMPI PUSH1 0x0 DUP1 REVERT JUMPDEST POP PUSH2 0x95 PUSH2 0x18F JUMP JUMPDEST STOP JUMPDEST CALLVALUE DUP1 ISZERO PUSH2 0xA3 JUMPI PUSH1 0x0 DUP1 REVERT JUMPDEST POP PUSH2 0xBE PUSH1 0x4 DUP1 CALLDATASIZE SUB DUP2 ADD SWAP1 PUSH2 0xB9 SWAP2 SWAP1 PUSH2 0x4882 JUMP JUMPDEST PUSH2 0x217 JUMP JUMPDEST STOP JUMPDEST CALLVALUE DUP1 ISZERO PUSH2 0xCC JUMPI PUSH1 0x0 DUP1 REVERT JUMPDEST POP PUSH2 0xE7 PUSH1 0x4 DUP1 CALLDATASIZE SUB DUP2 ADD SWAP1 PUSH2 0xE2 SWAP2 SWAP1 PUSH2 0x47E8 JUMP JUMPDEST PUSH2 0x2201 JUMP JUMPDEST STOP JUMPDEST CALLVALUE DUP1 ISZERO PUSH2 0xF5 JUMPI PUSH1 0x0 DUP1 REVERT JUMPDEST POP PUSH2 0xFE PUSH2 0x2394 JUMP JUMPDEST PUSH1 0x40 MLOAD PUSH2 0x10B SWAP2 SWAP1 PUSH2 0x52D2 JUMP JUMPDEST PUSH1 0x40 MLOAD DUP1 SWAP2 SUB SWAP1 RETURN JUMPDEST CALLVALUE DUP1 ISZERO PUSH2 0x120 JUMPI PUSH1 0x0 DUP1 REVERT JUMPDEST POP PUSH2 0x13B PUSH1 0x4 DUP1 CALLDATASIZE SUB DUP2 ADD SWAP1 PUSH2 0x136 SWAP2 SWAP1 PUSH2 0x4A98 JUMP JUMPDEST PUSH2 0x23BD JUMP JUMPDEST STOP JUMPDEST CALLVALUE DUP1 ISZERO PUSH2 0x149 JUMPI PUSH1 0x0 DUP1 REVERT JUMPDEST POP PUSH2 0x164 PUSH1 0x4 DUP1 CALLDATASIZE SUB DUP2 ADD SWAP1 PUSH2 0x15F SWAP2 SWAP1 PUSH2 0x47E8 JUMP JUMPDEST PUSH2 0x2C8F JUMP JUMPDEST STOP JUMPDEST CALLVALUE DUP1 ISZERO PUSH2 0x172 JUMPI PUSH1 0x0 DUP1 REVERT JUMPDEST POP PUSH2 0x18D PUSH1 0x4 DUP1 CALLDATASIZE SUB DUP2 ADD SWAP1 PUSH2 0x188 SWAP2 SWAP1 PUSH2 0x4842 JUMP JUMPDEST PUSH2 0x2D87 JUMP JUMPDEST STOP JUMPDEST PUSH2 0x197 PUSH2 0x2F48 JUMP JUMPDEST PUSH20 0xFFFFFFFFFFFFFFFFFFFFFFFFFFFFFFFFFFFFFFFF AND PUSH2 0x1B5 PUSH2 0x2394 JUMP JUMPDEST PUSH20 0xFFFFFFFFFFFFFFFFFFFFFFFFFFFFFFFFFFFFFFFF AND EQ PUSH2 0x20B JUMPI PUSH1 0x40 MLOAD PUSH32 0x8C379A000000000000000000000000000000000000000000000000000000000 DUP2 MSTORE PUSH1 0x4 ADD PUSH2 0x202 SWAP1 PUSH2 0x5636 JUMP JUMPDEST PUSH1 0x40 MLOAD DUP1 SWAP2 SUB SWAP1 REVERT JUMPDEST PUSH2 0x215 PUSH1 0x0 PUSH2 0x2F50 JUMP JUMPDEST JUMP JUMPDEST PUSH2 0x21F PUSH2 0x4570 JUMP JUMPDEST DUP3 DUP3 DUP2 ADD SWAP1 PUSH2 0x22E SWAP2 SWAP1 PUSH2 0x49B7 JUMP JUMPDEST DUP7 PUSH1 0x0 ADD DUP8 PUSH1 0x20 ADD DUP9 PUSH1 0x40 ADD DUP10 PUSH1 0x60 ADD DUP11 PUSH1 0x80 ADD DUP12 PUSH1 0xA0 ADD DUP7 DUP2 MSTORE POP DUP7 SWAP1 MSTORE DUP7 SWAP1 MSTORE DUP7 SWAP1 MSTORE DUP7 PUSH20 0xFFFFFFFFFFFFFFFFFFFFFFFFFFFFFFFFFFFFFFFF AND PUSH20 0xFFFFFFFFFFFFFFFFFFFFFFFFFFFFFFFFFFFFFFFF AND DUP2 MSTORE POP DUP7 DUP2 MSTORE POP POP POP POP POP POP POP DUP1 PUSH1 0x20 ADD MLOAD PUSH20 0xFFFFFFFFFFFFFFFFFFFFFFFFFFFFFFFFFFFFFFFF AND CALLER PUSH20 0xFFFFFFFFFFFFFFFFFFFFFFFFFFFFFFFFFFFFFFFF AND EQ PUSH2 0x2FF JUMPI PUSH1 0x40 MLOAD PUSH32 0x8C379A000000000000000000000000000000000000000000000000000000000 DUP2 MSTORE PUSH1 0x4 ADD PUSH2 0x2F6 SWAP1 PUSH2 0x55F6 JUMP JUMPDEST PUSH1 0x40 MLOAD DUP1 SWAP2 SUB SWAP1 REVERT JUMPDEST ADDRESS PUSH20 0xFFFFFFFFFFFFFFFFFFFFFFFFFFFFFFFFFFFFFFFF AND DUP7 PUSH20 0xFFFFFFFFFFFFFFFFFFFFFFFFFFFFFFFFFFFFFFFF AND EQ PUSH2 0x36D JUMPI PUSH1 0x40 MLOAD PUSH32 0x8C379A000000000000000000000000000000000000000000000000000000000 DUP2 MSTORE PUSH1 0x4 ADD PUSH2 0x364 SWAP1 PUSH2 0x56B6 JUMP JUMPDEST PUSH1 0x40 MLOAD DUP1 SWAP2 SUB SWAP1 REVERT JUMPDEST PUSH1 0x1 PUSH2 0x26F7 PUSH1 0x19 DUP4 PUSH1 0xA0 ADD MLOAD PUSH2 0x383 SWAP2 SWAP1 PUSH2 0x5AC0 JUMP JUMPDEST PUSH2 0x38D SWAP2 SWAP1 PUSH2 0x5A8F JUMP JUMPDEST DUP3 PUSH1 0xA0 ADD MLOAD PUSH2 0x39C SWAP2 SWAP1 PUSH2 0x5A39 JUMP JUMPDEST PUSH2 0x3A6 SWAP2 SWAP1 PUSH2 0x5A39 JUMP JUMPDEST DUP2 PUSH1 0xC0 ADD DUP2 DUP2 MSTORE POP POP DUP1 PUSH1 0x80 ADD MLOAD PUSH1 0x4 DUP2 MLOAD DUP2 LT PUSH2 0x3C7 JUMPI PUSH2 0x3C6 PUSH2 0x5D75 JUMP JUMPDEST JUMPDEST PUSH1 0x20 MUL PUSH1 0x20 ADD ADD MLOAD DUP2 PUSH1 0xE0 ADD SWAP1 PUSH20 0xFFFFFFFFFFFFFFFFFFFFFFFFFFFFFFFFFFFFFFFF AND SWAP1 DUP2 PUSH20 0xFFFFFFFFFFFFFFFFFFFFFFFFFFFFFFFFFFFFFFFF AND DUP2 MSTORE POP POP PUSH1 0x0 DUP2 PUSH1 0x80 ADD MLOAD PUSH1 0x0 DUP2 MLOAD DUP2 LT PUSH2 0x420 JUMPI PUSH2 0x41F PUSH2 0x5D75 JUMP JUMPDEST JUMPDEST PUSH1 0x20 MUL PUSH1 0x20 ADD ADD MLOAD SWAP1 POP PUSH1 0x0 DUP3 PUSH1 0x80 ADD MLOAD PUSH1 0x1 DUP2 MLOAD DUP2 LT PUSH2 0x444 JUMPI PUSH2 0x443 PUSH2 0x5D75 JUMP JUMPDEST JUMPDEST PUSH1 0x20 MUL PUSH1 0x20 ADD ADD MLOAD SWAP1 POP PUSH1 0x0 DUP4 PUSH1 0x80 ADD MLOAD PUSH1 0x3 DUP2 MLOAD DUP2 LT PUSH2 0x468 JUMPI PUSH2 0x467 PUSH2 0x5D75 JUMP JUMPDEST JUMPDEST PUSH1 0x20 MUL PUSH1 0x20 ADD ADD MLOAD SWAP1 POP PUSH1 0x0 DUP5 PUSH1 0x80 ADD MLOAD PUSH1 0x2 DUP2 MLOAD DUP2 LT PUSH2 0x48C JUMPI PUSH2 0x48B PUSH2 0x5D75 JUMP JUMPDEST JUMPDEST PUSH1 0x20 MUL PUSH1 0x20 ADD ADD MLOAD SWAP1 POP PUSH1 0x60 PUSH1 0x1 DUP7 PUSH1 0x0 ADD MLOAD EQ ISZERO PUSH2 0x6F7 JUMPI PUSH2 0x4CD DUP7 PUSH1 0x80 ADD MLOAD PUSH1 0x0 DUP2 MLOAD DUP2 LT PUSH2 0x4C0 JUMPI PUSH2 0x4BF PUSH2 0x5D75 JUMP JUMPDEST JUMPDEST PUSH1 0x20 MUL PUSH1 0x20 ADD ADD MLOAD PUSH2 0x3014 JUMP JUMPDEST PUSH2 0x50C JUMPI PUSH1 0x40 MLOAD PUSH32 0x8C379A000000000000000000000000000000000000000000000000000000000 DUP2 MSTORE PUSH1 0x4 ADD PUSH2 0x503 SWAP1 PUSH2 0x5696 JUMP JUMPDEST PUSH1 0x40 MLOAD DUP1 SWAP2 SUB SWAP1 REVERT JUMPDEST DUP6 PUSH1 0x80 ADD MLOAD PUSH1 0x1 DUP2 MLOAD DUP2 LT PUSH2 0x524 JUMPI PUSH2 0x523 PUSH2 0x5D75 JUMP JUMPDEST JUMPDEST PUSH1 0x20 MUL PUSH1 0x20 ADD ADD MLOAD PUSH20 0xFFFFFFFFFFFFFFFFFFFFFFFFFFFFFFFFFFFFFFFF AND DUP7 PUSH1 0x80 ADD MLOAD PUSH1 0x0 DUP2 MLOAD DUP2 LT PUSH2 0x55A JUMPI PUSH2 0x559 PUSH2 0x5D75 JUMP JUMPDEST JUMPDEST PUSH1 0x20 MUL PUSH1 0x20 ADD ADD MLOAD PUSH20 0xFFFFFFFFFFFFFFFFFFFFFFFFFFFFFFFFFFFFFFFF AND EQ PUSH2 0x5B8 JUMPI PUSH1 0x40 MLOAD PUSH32 0x8C379A000000000000000000000000000000000000000000000000000000000 DUP2 MSTORE PUSH1 0x4 ADD PUSH2 0x5AF SWAP1 PUSH2 0x5776 JUMP JUMPDEST PUSH1 0x40 MLOAD DUP1 SWAP2 SUB SWAP1 REVERT JUMPDEST PUSH2 0x625 DUP7 PUSH1 0x80 ADD MLOAD PUSH1 0x0 DUP2 MLOAD DUP2 LT PUSH2 0x5D3 JUMPI PUSH2 0x5D2 PUSH2 0x5D75 JUMP JUMPDEST JUMPDEST PUSH1 0x20 MUL PUSH1 0x20 ADD ADD MLOAD DUP8 PUSH1 0x80 ADD MLOAD PUSH1 0x1 DUP2 MLOAD DUP2 LT PUSH2 0x5F3 JUMPI PUSH2 0x5F2 PUSH2 0x5D75 JUMP JUMPDEST JUMPDEST PUSH1 0x20 MUL PUSH1 0x20 ADD ADD MLOAD DUP9 PUSH1 0x80 ADD MLOAD PUSH1 0x4 DUP2 MLOAD DUP2 LT PUSH2 0x613 JUMPI PUSH2 0x612 PUSH2 0x5D75 JUMP JUMPDEST JUMPDEST PUSH1 0x20 MUL PUSH1 0x20 ADD ADD MLOAD DUP10 PUSH1 0xA0 ADD MLOAD PUSH2 0x30F4 JUMP JUMPDEST POP DUP7 PUSH2 0x100 ADD DUP2 DUP2 MSTORE POP POP PUSH2 0x67E DUP7 PUSH1 0x80 ADD MLOAD PUSH1 0x1 DUP2 MLOAD DUP2 LT PUSH2 0x64B JUMPI PUSH2 0x64A PUSH2 0x5D75 JUMP JUMPDEST JUMPDEST PUSH1 0x20 MUL PUSH1 0x20 ADD ADD MLOAD DUP8 PUSH1 0x80 ADD MLOAD PUSH1 0x2 DUP2 MLOAD DUP2 LT PUSH2 0x66B JUMPI PUSH2 0x66A PUSH2 0x5D75 JUMP JUMPDEST JUMPDEST PUSH1 0x20 MUL PUSH1 0x20 ADD ADD MLOAD DUP9 PUSH2 0x100 ADD MLOAD PUSH2 0x34C7 JUMP JUMPDEST DUP7 PUSH2 0x120 ADD DUP2 DUP2 MSTORE POP POP DUP6 PUSH1 0xC0 ADD MLOAD DUP7 PUSH2 0x120 ADD MLOAD GT PUSH2 0x6D3 JUMPI PUSH1 0x40 MLOAD PUSH32 0x8C379A000000000000000000000000000000000000000000000000000000000 DUP2 MSTORE PUSH1 0x4 ADD PUSH2 0x6CA SWAP1 PUSH2 0x54B6 JUMP JUMPDEST PUSH1 0x40 MLOAD DUP1 SWAP2 SUB SWAP1 REVERT JUMPDEST DUP6 PUSH1 0xC0 ADD MLOAD DUP7 PUSH2 0x120 ADD MLOAD PUSH2 0x6E8 SWAP2 SWAP1 PUSH2 0x5B1A JUMP JUMPDEST DUP7 PUSH2 0x140 ADD DUP2 DUP2 MSTORE POP POP PUSH2 0x2105 JUMP JUMPDEST PUSH1 0x2 DUP7 PUSH1 0x0 ADD MLOAD EQ ISZERO PUSH2 0xB83 JUMPI PUSH1 0x0 DUP7 PUSH1 0x40 ADD MLOAD MLOAD EQ DUP1 ISZERO PUSH2 0x71F JUMPI POP PUSH1 0x0 DUP7 PUSH1 0x60 ADD MLOAD MLOAD EQ ISZERO JUMPDEST PUSH2 0x75E JUMPI PUSH1 0x40 MLOAD PUSH32 0x8C379A000000000000000000000000000000000000000000000000000000000 DUP2 MSTORE PUSH1 0x4 ADD PUSH2 0x755 SWAP1 PUSH2 0x57B6 JUMP JUMPDEST PUSH1 0x40 MLOAD DUP1 SWAP2 SUB SWAP1 REVERT JUMPDEST PUSH2 0x786 DUP7 PUSH1 0x80 ADD MLOAD PUSH1 0x0 DUP2 MLOAD DUP2 LT PUSH2 0x779 JUMPI PUSH2 0x778 PUSH2 0x5D75 JUMP JUMPDEST JUMPDEST PUSH1 0x20 MUL PUSH1 0x20 ADD ADD MLOAD PUSH2 0x37BE JUMP JUMPDEST ISZERO PUSH2 0xA05 JUMPI PUSH20 0xBB4CDB9CBD36B01BD1CBAEBF2DE08D9173BC095C PUSH20 0xFFFFFFFFFFFFFFFFFFFFFFFFFFFFFFFFFFFFFFFF AND PUSH4 0x2E1A7D4D DUP8 PUSH1 0xA0 ADD MLOAD PUSH1 0x40 MLOAD DUP3 PUSH4 0xFFFFFFFF AND PUSH1 0xE0 SHL DUP2 MSTORE PUSH1 0x4 ADD PUSH2 0x7DC SWAP2 SWAP1 PUSH2 0x57F6 JUMP JUMPDEST PUSH1 0x0 PUSH1 0x40 MLOAD DUP1 DUP4 SUB DUP2 PUSH1 0x0 DUP8 DUP1 EXTCODESIZE ISZERO DUP1 ISZERO PUSH2 0x7F6 JUMPI PUSH1 0x0 DUP1 REVERT JUMPDEST POP GAS CALL ISZERO DUP1 ISZERO PUSH2 0x80A JUMPI RETURNDATASIZE PUSH1 0x0 DUP1 RETURNDATACOPY RETURNDATASIZE PUSH1 0x0 REVERT JUMPDEST POP POP POP POP PUSH2 0x87B DUP7 PUSH1 0x80 ADD MLOAD PUSH1 0x0 DUP2 MLOAD DUP2 LT PUSH2 0x829 JUMPI PUSH2 0x828 PUSH2 0x5D75 JUMP JUMPDEST JUMPDEST PUSH1 0x20 MUL PUSH1 0x20 ADD ADD MLOAD DUP8 PUSH1 0x80 ADD MLOAD PUSH1 0x1 DUP2 MLOAD DUP2 LT PUSH2 0x849 JUMPI PUSH2 0x848 PUSH2 0x5D75 JUMP JUMPDEST JUMPDEST PUSH1 0x20 MUL PUSH1 0x20 ADD ADD MLOAD DUP9 PUSH1 0x80 ADD MLOAD PUSH1 0x4 DUP2 MLOAD DUP2 LT PUSH2 0x869 JUMPI PUSH2 0x868 PUSH2 0x5D75 JUMP JUMPDEST JUMPDEST PUSH1 0x20 MUL PUSH1 0x20 ADD ADD MLOAD DUP10 PUSH1 0xA0 ADD MLOAD PUSH2 0x30F4 JUMP JUMPDEST POP DUP7 PUSH2 0x100 ADD DUP2 DUP2 MSTORE POP POP PUSH2 0x8D4 DUP7 PUSH1 0x80 ADD MLOAD PUSH1 0x1 DUP2 MLOAD DUP2 LT PUSH2 0x8A1 JUMPI PUSH2 0x8A0 PUSH2 0x5D75 JUMP JUMPDEST JUMPDEST PUSH1 0x20 MUL PUSH1 0x20 ADD ADD MLOAD DUP8 PUSH1 0x80 ADD MLOAD PUSH1 0x2 DUP2 MLOAD DUP2 LT PUSH2 0x8C1 JUMPI PUSH2 0x8C0 PUSH2 0x5D75 JUMP JUMPDEST JUMPDEST PUSH1 0x20 MUL PUSH1 0x20 ADD ADD MLOAD DUP9 PUSH2 0x120 ADD MLOAD PUSH2 0x34C7 JUMP JUMPDEST DUP7 PUSH2 0x120 ADD DUP2 DUP2 MSTORE POP POP DUP6 PUSH1 0xC0 ADD MLOAD DUP7 PUSH2 0x120 ADD MLOAD GT PUSH2 0x929 JUMPI PUSH1 0x40 MLOAD PUSH32 0x8C379A000000000000000000000000000000000000000000000000000000000 DUP2 MSTORE PUSH1 0x4 ADD PUSH2 0x920 SWAP1 PUSH2 0x5736 JUMP JUMPDEST PUSH1 0x40 MLOAD DUP1 SWAP2 SUB SWAP1 REVERT JUMPDEST PUSH20 0xBB4CDB9CBD36B01BD1CBAEBF2DE08D9173BC095C PUSH20 0xFFFFFFFFFFFFFFFFFFFFFFFFFFFFFFFFFFFFFFFF AND PUSH4 0xD0E30DB0 DUP8 PUSH2 0x120 ADD MLOAD PUSH1 0x40 MLOAD DUP3 PUSH4 0xFFFFFFFF AND PUSH1 0xE0 SHL DUP2 MSTORE PUSH1 0x4 ADD PUSH1 0x0 PUSH1 0x40 MLOAD DUP1 DUP4 SUB DUP2 DUP6 DUP9 DUP1 EXTCODESIZE ISZERO DUP1 ISZERO PUSH2 0x98A JUMPI PUSH1 0x0 DUP1 REVERT JUMPDEST POP GAS CALL ISZERO DUP1 ISZERO PUSH2 0x99E JUMPI RETURNDATASIZE PUSH1 0x0 DUP1 RETURNDATACOPY RETURNDATASIZE PUSH1 0x0 REVERT JUMPDEST POP POP POP POP POP PUSH1 0x0 DUP7 PUSH1 0xC0 ADD MLOAD DUP8 PUSH2 0x120 ADD MLOAD PUSH2 0x9BA SWAP2 SWAP1 PUSH2 0x5B1A JUMP JUMPDEST SWAP1 POP PUSH2 0x9CB DUP2 DUP9 PUSH1 0x60 ADD MLOAD ADDRESS PUSH2 0x380A JUMP JUMPDEST SWAP2 POP DUP2 PUSH1 0x1 DUP4 MLOAD PUSH2 0x9DC SWAP2 SWAP1 PUSH2 0x5B1A JUMP JUMPDEST DUP2 MLOAD DUP2 LT PUSH2 0x9ED JUMPI PUSH2 0x9EC PUSH2 0x5D75 JUMP JUMPDEST JUMPDEST PUSH1 0x20 MUL PUSH1 0x20 ADD ADD MLOAD DUP8 PUSH2 0x140 ADD DUP2 DUP2 MSTORE POP POP POP PUSH2 0xB7E JUMP JUMPDEST PUSH2 0xA72 DUP7 PUSH1 0x80 ADD MLOAD PUSH1 0x0 DUP2 MLOAD DUP2 LT PUSH2 0xA20 JUMPI PUSH2 0xA1F PUSH2 0x5D75 JUMP JUMPDEST JUMPDEST PUSH1 0x20 MUL PUSH1 0x20 ADD ADD MLOAD DUP8 PUSH1 0x80 ADD MLOAD PUSH1 0x1 DUP2 MLOAD DUP2 LT PUSH2 0xA40 JUMPI PUSH2 0xA3F PUSH2 0x5D75 JUMP JUMPDEST JUMPDEST PUSH1 0x20 MUL PUSH1 0x20 ADD ADD MLOAD DUP9 PUSH1 0x80 ADD MLOAD PUSH1 0x4 DUP2 MLOAD DUP2 LT PUSH2 0xA60 JUMPI PUSH2 0xA5F PUSH2 0x5D75 JUMP JUMPDEST JUMPDEST PUSH1 0x20 MUL PUSH1 0x20 ADD ADD MLOAD DUP10 PUSH1 0xA0 ADD MLOAD PUSH2 0x30F4 JUMP JUMPDEST POP DUP7 PUSH2 0x100 ADD DUP2 DUP2 MSTORE POP POP PUSH2 0xACB DUP7 PUSH1 0x80 ADD MLOAD PUSH1 0x1 DUP2 MLOAD DUP2 LT PUSH2 0xA98 JUMPI PUSH2 0xA97 PUSH2 0x5D75 JUMP JUMPDEST JUMPDEST PUSH1 0x20 MUL PUSH1 0x20 ADD ADD MLOAD DUP8 PUSH1 0x80 ADD MLOAD PUSH1 0x2 DUP2 MLOAD DUP2 LT PUSH2 0xAB8 JUMPI PUSH2 0xAB7 PUSH2 0x5D75 JUMP JUMPDEST JUMPDEST PUSH1 0x20 MUL PUSH1 0x20 ADD ADD MLOAD DUP9 PUSH2 0x120 ADD MLOAD PUSH2 0x34C7 JUMP JUMPDEST DUP7 PUSH2 0x120 ADD DUP2 DUP2 MSTORE POP POP DUP6 PUSH1 0xC0 ADD MLOAD DUP7 PUSH2 0x120 ADD MLOAD GT PUSH2 0xB20 JUMPI PUSH1 0x40 MLOAD PUSH32 0x8C379A000000000000000000000000000000000000000000000000000000000 DUP2 MSTORE PUSH1 0x4 ADD PUSH2 0xB17 SWAP1 PUSH2 0x5736 JUMP JUMPDEST PUSH1 0x40 MLOAD DUP1 SWAP2 SUB SWAP1 REVERT JUMPDEST PUSH1 0x0 DUP7 PUSH1 0xC0 ADD MLOAD DUP8 PUSH2 0x120 ADD MLOAD PUSH2 0xB37 SWAP2 SWAP1 PUSH2 0x5B1A JUMP JUMPDEST SWAP1 POP PUSH2 0xB48 DUP2 DUP9 PUSH1 0x60 ADD MLOAD ADDRESS PUSH2 0x380A JUMP JUMPDEST SWAP2 POP DUP2 PUSH1 0x1 DUP4 MLOAD PUSH2 0xB59 SWAP2 SWAP1 PUSH2 0x5B1A JUMP JUMPDEST DUP2 MLOAD DUP2 LT PUSH2 0xB6A JUMPI PUSH2 0xB69 PUSH2 0x5D75 JUMP JUMPDEST JUMPDEST PUSH1 0x20 MUL PUSH1 0x20 ADD ADD MLOAD DUP8 PUSH2 0x140 ADD DUP2 DUP2 MSTORE POP POP POP JUMPDEST PUSH2 0x2104 JUMP JUMPDEST PUSH1 0x3 DUP7 PUSH1 0x0 ADD MLOAD EQ ISZERO PUSH2 0xFAC JUMPI PUSH2 0xBB8 DUP7 PUSH1 0x80 ADD MLOAD PUSH1 0x1 DUP2 MLOAD DUP2 LT PUSH2 0xBAB JUMPI PUSH2 0xBAA PUSH2 0x5D75 JUMP JUMPDEST JUMPDEST PUSH1 0x20 MUL PUSH1 0x20 ADD ADD MLOAD PUSH2 0x3014 JUMP JUMPDEST PUSH2 0xBF7 JUMPI PUSH1 0x40 MLOAD PUSH32 0x8C379A000000000000000000000000000000000000000000000000000000000 DUP2 MSTORE PUSH1 0x4 ADD PUSH2 0xBEE SWAP1 PUSH2 0x5676 JUMP JUMPDEST PUSH1 0x40 MLOAD DUP1 SWAP2 SUB SWAP1 REVERT JUMPDEST PUSH2 0xC1F DUP7 PUSH1 0x80 ADD MLOAD PUSH1 0x0 DUP2 MLOAD DUP2 LT PUSH2 0xC12 JUMPI PUSH2 0xC11 PUSH2 0x5D75 JUMP JUMPDEST JUMPDEST PUSH1 0x20 MUL PUSH1 0x20 ADD ADD MLOAD PUSH2 0x37BE JUMP JUMPDEST ISZERO PUSH2 0xE29 JUMPI PUSH20 0xBB4CDB9CBD36B01BD1CBAEBF2DE08D9173BC095C PUSH20 0xFFFFFFFFFFFFFFFFFFFFFFFFFFFFFFFFFFFFFFFF AND PUSH4 0x2E1A7D4D DUP8 PUSH1 0xA0 ADD MLOAD PUSH1 0x40 MLOAD DUP3 PUSH4 0xFFFFFFFF AND PUSH1 0xE0 SHL DUP2 MSTORE PUSH1 0x4 ADD PUSH2 0xC75 SWAP2 SWAP1 PUSH2 0x57F6 JUMP JUMPDEST PUSH1 0x0 PUSH1 0x40 MLOAD DUP1 DUP4 SUB DUP2 PUSH1 0x0 DUP8 DUP1 EXTCODESIZE ISZERO DUP1 ISZERO PUSH2 0xC8F JUMPI PUSH1 0x0 DUP1 REVERT JUMPDEST POP GAS CALL ISZERO DUP1 ISZERO PUSH2 0xCA3 JUMPI RETURNDATASIZE PUSH1 0x0 DUP1 RETURNDATACOPY RETURNDATASIZE PUSH1 0x0 REVERT JUMPDEST POP POP POP POP PUSH2 0xD14 DUP7 PUSH1 0x80 ADD MLOAD PUSH1 0x0 DUP2 MLOAD DUP2 LT PUSH2 0xCC2 JUMPI PUSH2 0xCC1 PUSH2 0x5D75 JUMP JUMPDEST JUMPDEST PUSH1 0x20 MUL PUSH1 0x20 ADD ADD MLOAD DUP8 PUSH1 0x80 ADD MLOAD PUSH1 0x1 DUP2 MLOAD DUP2 LT PUSH2 0xCE2 JUMPI PUSH2 0xCE1 PUSH2 0x5D75 JUMP JUMPDEST JUMPDEST PUSH1 0x20 MUL PUSH1 0x20 ADD ADD MLOAD DUP9 PUSH1 0x80 ADD MLOAD PUSH1 0x4 DUP2 MLOAD DUP2 LT PUSH2 0xD02 JUMPI PUSH2 0xD01 PUSH2 0x5D75 JUMP JUMPDEST JUMPDEST PUSH1 0x20 MUL PUSH1 0x20 ADD ADD MLOAD DUP10 PUSH1 0xA0 ADD MLOAD PUSH2 0x30F4 JUMP JUMPDEST POP DUP7 PUSH2 0x100 ADD DUP2 DUP2 MSTORE POP POP PUSH2 0xD6D DUP7 PUSH1 0x80 ADD MLOAD PUSH1 0x1 DUP2 MLOAD DUP2 LT PUSH2 0xD3A JUMPI PUSH2 0xD39 PUSH2 0x5D75 JUMP JUMPDEST JUMPDEST PUSH1 0x20 MUL PUSH1 0x20 ADD ADD MLOAD DUP8 PUSH1 0x80 ADD MLOAD PUSH1 0x2 DUP2 MLOAD DUP2 LT PUSH2 0xD5A JUMPI PUSH2 0xD59 PUSH2 0x5D75 JUMP JUMPDEST JUMPDEST PUSH1 0x20 MUL PUSH1 0x20 ADD ADD MLOAD DUP9 PUSH2 0x120 ADD MLOAD PUSH2 0x34C7 JUMP JUMPDEST DUP7 PUSH2 0x120 ADD DUP2 DUP2 MSTORE POP POP PUSH2 0xD8A DUP7 PUSH1 0xC0 ADD MLOAD DUP8 PUSH1 0x40 ADD MLOAD ADDRESS PUSH2 0x3957 JUMP JUMPDEST SWAP1 POP DUP1 PUSH1 0x0 DUP2 MLOAD DUP2 LT PUSH2 0xDA0 JUMPI PUSH2 0xD9F PUSH2 0x5D75 JUMP JUMPDEST JUMPDEST PUSH1 0x20 MUL PUSH1 0x20 ADD ADD MLOAD DUP7 PUSH2 0x120 ADD MLOAD GT PUSH2 0xDEE JUMPI PUSH1 0x40 MLOAD PUSH32 0x8C379A000000000000000000000000000000000000000000000000000000000 DUP2 MSTORE PUSH1 0x4 ADD PUSH2 0xDE5 SWAP1 PUSH2 0x53F6 JUMP JUMPDEST PUSH1 0x40 MLOAD DUP1 SWAP2 SUB SWAP1 REVERT JUMPDEST DUP1 PUSH1 0x0 DUP2 MLOAD DUP2 LT PUSH2 0xE02 JUMPI PUSH2 0xE01 PUSH2 0x5D75 JUMP JUMPDEST JUMPDEST PUSH1 0x20 MUL PUSH1 0x20 ADD ADD MLOAD DUP7 PUSH2 0x120 ADD MLOAD PUSH2 0xE1A SWAP2 SWAP1 PUSH2 0x5B1A JUMP JUMPDEST DUP7 PUSH2 0x140 ADD DUP2 DUP2 MSTORE POP POP PUSH2 0xFA7 JUMP JUMPDEST PUSH2 0xE96 DUP7 PUSH1 0x80 ADD MLOAD PUSH1 0x0 DUP2 MLOAD DUP2 LT PUSH2 0xE44 JUMPI PUSH2 0xE43 PUSH2 0x5D75 JUMP JUMPDEST JUMPDEST PUSH1 0x20 MUL PUSH1 0x20 ADD ADD MLOAD DUP8 PUSH1 0x80 ADD MLOAD PUSH1 0x1 DUP2 MLOAD DUP2 LT PUSH2 0xE64 JUMPI PUSH2 0xE63 PUSH2 0x5D75 JUMP JUMPDEST JUMPDEST PUSH1 0x20 MUL PUSH1 0x20 ADD ADD MLOAD DUP9 PUSH1 0x80 ADD MLOAD PUSH1 0x4 DUP2 MLOAD DUP2 LT PUSH2 0xE84 JUMPI PUSH2 0xE83 PUSH2 0x5D75 JUMP JUMPDEST JUMPDEST PUSH1 0x20 MUL PUSH1 0x20 ADD ADD MLOAD DUP10 PUSH1 0xA0 ADD MLOAD PUSH2 0x30F4 JUMP JUMPDEST POP DUP7 PUSH2 0x100 ADD DUP2 DUP2 MSTORE POP POP PUSH2 0xEEF DUP7 PUSH1 0x80 ADD MLOAD PUSH1 0x1 DUP2 MLOAD DUP2 LT PUSH2 0xEBC JUMPI PUSH2 0xEBB PUSH2 0x5D75 JUMP JUMPDEST JUMPDEST PUSH1 0x20 MUL PUSH1 0x20 ADD ADD MLOAD DUP8 PUSH1 0x80 ADD MLOAD PUSH1 0x2 DUP2 MLOAD DUP2 LT PUSH2 0xEDC JUMPI PUSH2 0xEDB PUSH2 0x5D75 JUMP JUMPDEST JUMPDEST PUSH1 0x20 MUL PUSH1 0x20 ADD ADD MLOAD DUP9 PUSH2 0x120 ADD MLOAD PUSH2 0x34C7 JUMP JUMPDEST DUP7 PUSH2 0x120 ADD DUP2 DUP2 MSTORE POP POP PUSH2 0xF0C DUP7 PUSH1 0xC0 ADD MLOAD DUP8 PUSH1 0x40 ADD MLOAD ADDRESS PUSH2 0x3957 JUMP JUMPDEST SWAP1 POP DUP1 PUSH1 0x0 DUP2 MLOAD DUP2 LT PUSH2 0xF22 JUMPI PUSH2 0xF21 PUSH2 0x5D75 JUMP JUMPDEST JUMPDEST PUSH1 0x20 MUL PUSH1 0x20 ADD ADD MLOAD DUP7 PUSH2 0x120 ADD MLOAD GT PUSH2 0xF70 JUMPI PUSH1 0x40 MLOAD PUSH32 0x8C379A000000000000000000000000000000000000000000000000000000000 DUP2 MSTORE PUSH1 0x4 ADD PUSH2 0xF67 SWAP1 PUSH2 0x56F6 JUMP JUMPDEST PUSH1 0x40 MLOAD DUP1 SWAP2 SUB SWAP1 REVERT JUMPDEST DUP1 PUSH1 0x0 DUP2 MLOAD DUP2 LT PUSH2 0xF84 JUMPI PUSH2 0xF83 PUSH2 0x5D75 JUMP JUMPDEST JUMPDEST PUSH1 0x20 MUL PUSH1 0x20 ADD ADD MLOAD DUP7 PUSH2 0x120 ADD MLOAD PUSH2 0xF9C SWAP2 SWAP1 PUSH2 0x5B1A JUMP JUMPDEST DUP7 PUSH2 0x140 ADD DUP2 DUP2 MSTORE POP POP JUMPDEST PUSH2 0x2103 JUMP JUMPDEST PUSH1 0x4 DUP7 PUSH1 0x0 ADD MLOAD EQ ISZERO PUSH2 0x13B8 JUMPI PUSH2 0xFE1 DUP7 PUSH1 0x80 ADD MLOAD PUSH1 0x0 DUP2 MLOAD DUP2 LT PUSH2 0xFD4 JUMPI PUSH2 0xFD3 PUSH2 0x5D75 JUMP JUMPDEST JUMPDEST PUSH1 0x20 MUL PUSH1 0x20 ADD ADD MLOAD PUSH2 0x3014 JUMP JUMPDEST PUSH2 0x1020 JUMPI PUSH1 0x40 MLOAD PUSH32 0x8C379A000000000000000000000000000000000000000000000000000000000 DUP2 MSTORE PUSH1 0x4 ADD PUSH2 0x1017 SWAP1 PUSH2 0x54F6 JUMP JUMPDEST PUSH1 0x40 MLOAD DUP1 SWAP2 SUB SWAP1 REVERT JUMPDEST PUSH2 0x1048 DUP7 PUSH1 0x80 ADD MLOAD PUSH1 0x1 DUP2 MLOAD DUP2 LT PUSH2 0x103B JUMPI PUSH2 0x103A PUSH2 0x5D75 JUMP JUMPDEST JUMPDEST PUSH1 0x20 MUL PUSH1 0x20 ADD ADD MLOAD PUSH2 0x37BE JUMP JUMPDEST ISZERO PUSH2 0x123F JUMPI PUSH2 0x10BA DUP7 PUSH1 0x80 ADD MLOAD PUSH1 0x0 DUP2 MLOAD DUP2 LT PUSH2 0x1068 JUMPI PUSH2 0x1067 PUSH2 0x5D75 JUMP JUMPDEST JUMPDEST PUSH1 0x20 MUL PUSH1 0x20 ADD ADD MLOAD DUP8 PUSH1 0x80 ADD MLOAD PUSH1 0x1 DUP2 MLOAD DUP2 LT PUSH2 0x1088 JUMPI PUSH2 0x1087 PUSH2 0x5D75 JUMP JUMPDEST JUMPDEST PUSH1 0x20 MUL PUSH1 0x20 ADD ADD MLOAD DUP9 PUSH1 0x80 ADD MLOAD PUSH1 0x4 DUP2 MLOAD DUP2 LT PUSH2 0x10A8 JUMPI PUSH2 0x10A7 PUSH2 0x5D75 JUMP JUMPDEST JUMPDEST PUSH1 0x20 MUL PUSH1 0x20 ADD ADD MLOAD DUP10 PUSH1 0xA0 ADD MLOAD PUSH2 0x30F4 JUMP JUMPDEST POP DUP7 PUSH2 0x100 ADD DUP2 DUP2 MSTORE POP POP PUSH2 0x1113 DUP7 PUSH1 0x80 ADD MLOAD PUSH1 0x1 DUP2 MLOAD DUP2 LT PUSH2 0x10E0 JUMPI PUSH2 0x10DF PUSH2 0x5D75 JUMP JUMPDEST JUMPDEST PUSH1 0x20 MUL PUSH1 0x20 ADD ADD MLOAD DUP8 PUSH1 0x80 ADD MLOAD PUSH1 0x2 DUP2 MLOAD DUP2 LT PUSH2 0x1100 JUMPI PUSH2 0x10FF PUSH2 0x5D75 JUMP JUMPDEST JUMPDEST PUSH1 0x20 MUL PUSH1 0x20 ADD ADD MLOAD DUP9 PUSH2 0x120 ADD MLOAD PUSH2 0x34C7 JUMP JUMPDEST DUP7 PUSH2 0x120 ADD DUP2 DUP2 MSTORE POP POP PUSH20 0xBB4CDB9CBD36B01BD1CBAEBF2DE08D9173BC095C PUSH20 0xFFFFFFFFFFFFFFFFFFFFFFFFFFFFFFFFFFFFFFFF AND PUSH4 0xD0E30DB0 DUP8 PUSH2 0x120 ADD MLOAD PUSH1 0x40 MLOAD DUP3 PUSH4 0xFFFFFFFF AND PUSH1 0xE0 SHL DUP2 MSTORE PUSH1 0x4 ADD PUSH1 0x0 PUSH1 0x40 MLOAD DUP1 DUP4 SUB DUP2 DUP6 DUP9 DUP1 EXTCODESIZE ISZERO DUP1 ISZERO PUSH2 0x117E JUMPI PUSH1 0x0 DUP1 REVERT JUMPDEST POP GAS CALL ISZERO DUP1 ISZERO PUSH2 0x1192 JUMPI RETURNDATASIZE PUSH1 0x0 DUP1 RETURNDATACOPY RETURNDATASIZE PUSH1 0x0 REVERT JUMPDEST POP POP POP POP POP PUSH2 0x11AB DUP7 PUSH2 0x120 ADD MLOAD DUP8 PUSH1 0x40 ADD MLOAD ADDRESS PUSH2 0x380A JUMP JUMPDEST SWAP1 POP PUSH1 0x0 DUP2 PUSH1 0x1 DUP4 MLOAD PUSH2 0x11BE SWAP2 SWAP1 PUSH2 0x5B1A JUMP JUMPDEST DUP2 MLOAD DUP2 LT PUSH2 0x11CF JUMPI PUSH2 0x11CE PUSH2 0x5D75 JUMP JUMPDEST JUMPDEST PUSH1 0x20 MUL PUSH1 0x20 ADD ADD MLOAD SWAP1 POP DUP7 PUSH1 0xC0 ADD MLOAD DUP2 GT PUSH2 0x121F JUMPI PUSH1 0x40 MLOAD PUSH32 0x8C379A000000000000000000000000000000000000000000000000000000000 DUP2 MSTORE PUSH1 0x4 ADD PUSH2 0x1216 SWAP1 PUSH2 0x5616 JUMP JUMPDEST PUSH1 0x40 MLOAD DUP1 SWAP2 SUB SWAP1 REVERT JUMPDEST DUP7 PUSH1 0xC0 ADD MLOAD DUP2 PUSH2 0x122F SWAP2 SWAP1 PUSH2 0x5B1A JUMP JUMPDEST DUP8 PUSH2 0x140 ADD DUP2 DUP2 MSTORE POP POP POP PUSH2 0x13B3 JUMP JUMPDEST PUSH2 0x12AC DUP7 PUSH1 0x80 ADD MLOAD PUSH1 0x0 DUP2 MLOAD DUP2 LT PUSH2 0x125A JUMPI PUSH2 0x1259 PUSH2 0x5D75 JUMP JUMPDEST JUMPDEST PUSH1 0x20 MUL PUSH1 0x20 ADD ADD MLOAD DUP8 PUSH1 0x80 ADD MLOAD PUSH1 0x1 DUP2 MLOAD DUP2 LT PUSH2 0x127A JUMPI PUSH2 0x1279 PUSH2 0x5D75 JUMP JUMPDEST JUMPDEST PUSH1 0x20 MUL PUSH1 0x20 ADD ADD MLOAD DUP9 PUSH1 0x80 ADD MLOAD PUSH1 0x4 DUP2 MLOAD DUP2 LT PUSH2 0x129A JUMPI PUSH2 0x1299 PUSH2 0x5D75 JUMP JUMPDEST JUMPDEST PUSH1 0x20 MUL PUSH1 0x20 ADD ADD MLOAD DUP10 PUSH1 0xA0 ADD MLOAD PUSH2 0x30F4 JUMP JUMPDEST POP DUP7 PUSH2 0x100 ADD DUP2 DUP2 MSTORE POP POP PUSH2 0x1305 DUP7 PUSH1 0x80 ADD MLOAD PUSH1 0x1 DUP2 MLOAD DUP2 LT PUSH2 0x12D2 JUMPI PUSH2 0x12D1 PUSH2 0x5D75 JUMP JUMPDEST JUMPDEST PUSH1 0x20 MUL PUSH1 0x20 ADD ADD MLOAD DUP8 PUSH1 0x80 ADD MLOAD PUSH1 0x2 DUP2 MLOAD DUP2 LT PUSH2 0x12F2 JUMPI PUSH2 0x12F1 PUSH2 0x5D75 JUMP JUMPDEST JUMPDEST PUSH1 0x20 MUL PUSH1 0x20 ADD ADD MLOAD DUP9 PUSH2 0x120 ADD MLOAD PUSH2 0x34C7 JUMP JUMPDEST DUP7 PUSH2 0x120 ADD DUP2 DUP2 MSTORE POP POP PUSH2 0x1323 DUP7 PUSH2 0x120 ADD MLOAD DUP8 PUSH1 0x40 ADD MLOAD ADDRESS PUSH2 0x380A JUMP JUMPDEST SWAP1 POP PUSH1 0x0 DUP2 PUSH1 0x1 DUP4 MLOAD PUSH2 0x1336 SWAP2 SWAP1 PUSH2 0x5B1A JUMP JUMPDEST DUP2 MLOAD DUP2 LT PUSH2 0x1347 JUMPI PUSH2 0x1346 PUSH2 0x5D75 JUMP JUMPDEST JUMPDEST PUSH1 0x20 MUL PUSH1 0x20 ADD ADD MLOAD SWAP1 POP DUP7 PUSH1 0xC0 ADD MLOAD DUP2 GT PUSH2 0x1397 JUMPI PUSH1 0x40 MLOAD PUSH32 0x8C379A000000000000000000000000000000000000000000000000000000000 DUP2 MSTORE PUSH1 0x4 ADD PUSH2 0x138E SWAP1 PUSH2 0x5556 JUMP JUMPDEST PUSH1 0x40 MLOAD DUP1 SWAP2 SUB SWAP1 REVERT JUMPDEST DUP7 PUSH1 0xC0 ADD MLOAD DUP2 PUSH2 0x13A7 SWAP2 SWAP1 PUSH2 0x5B1A JUMP JUMPDEST DUP8 PUSH2 0x140 ADD DUP2 DUP2 MSTORE POP POP POP JUMPDEST PUSH2 0x2102 JUMP JUMPDEST PUSH1 0x5 DUP7 PUSH1 0x0 ADD MLOAD EQ ISZERO PUSH2 0x1A5E JUMPI PUSH2 0x13ED DUP7 PUSH1 0x80 ADD MLOAD PUSH1 0x0 DUP2 MLOAD DUP2 LT PUSH2 0x13E0 JUMPI PUSH2 0x13DF PUSH2 0x5D75 JUMP JUMPDEST JUMPDEST PUSH1 0x20 MUL PUSH1 0x20 ADD ADD MLOAD PUSH2 0x37BE JUMP JUMPDEST ISZERO PUSH2 0x1635 JUMPI PUSH20 0xBB4CDB9CBD36B01BD1CBAEBF2DE08D9173BC095C PUSH20 0xFFFFFFFFFFFFFFFFFFFFFFFFFFFFFFFFFFFFFFFF AND PUSH4 0x2E1A7D4D DUP8 PUSH1 0xA0 ADD MLOAD PUSH1 0x40 MLOAD DUP3 PUSH4 0xFFFFFFFF AND PUSH1 0xE0 SHL DUP2 MSTORE PUSH1 0x4 ADD PUSH2 0x1443 SWAP2 SWAP1 PUSH2 0x57F6 JUMP JUMPDEST PUSH1 0x0 PUSH1 0x40 MLOAD DUP1 DUP4 SUB DUP2 PUSH1 0x0 DUP8 DUP1 EXTCODESIZE ISZERO DUP1 ISZERO PUSH2 0x145D JUMPI PUSH1 0x0 DUP1 REVERT JUMPDEST POP GAS CALL ISZERO DUP1 ISZERO PUSH2 0x1471 JUMPI RETURNDATASIZE PUSH1 0x0 DUP1 RETURNDATACOPY RETURNDATASIZE PUSH1 0x0 REVERT JUMPDEST POP POP POP POP PUSH2 0x14E2 DUP7 PUSH1 0x80 ADD MLOAD PUSH1 0x0 DUP2 MLOAD DUP2 LT PUSH2 0x1490 JUMPI PUSH2 0x148F PUSH2 0x5D75 JUMP JUMPDEST JUMPDEST PUSH1 0x20 MUL PUSH1 0x20 ADD ADD MLOAD DUP8 PUSH1 0x80 ADD MLOAD PUSH1 0x1 DUP2 MLOAD DUP2 LT PUSH2 0x14B0 JUMPI PUSH2 0x14AF PUSH2 0x5D75 JUMP JUMPDEST JUMPDEST PUSH1 0x20 MUL PUSH1 0x20 ADD ADD MLOAD DUP9 PUSH1 0x80 ADD MLOAD PUSH1 0x4 DUP2 MLOAD DUP2 LT PUSH2 0x14D0 JUMPI PUSH2 0x14CF PUSH2 0x5D75 JUMP JUMPDEST JUMPDEST PUSH1 0x20 MUL PUSH1 0x20 ADD ADD MLOAD DUP10 PUSH1 0xA0 ADD MLOAD PUSH2 0x30F4 JUMP JUMPDEST POP DUP7 PUSH2 0x100 ADD DUP2 DUP2 MSTORE POP POP PUSH2 0x153B DUP7 PUSH1 0x80 ADD MLOAD PUSH1 0x1 DUP2 MLOAD DUP2 LT PUSH2 0x1508 JUMPI PUSH2 0x1507 PUSH2 0x5D75 JUMP JUMPDEST JUMPDEST PUSH1 0x20 MUL PUSH1 0x20 ADD ADD MLOAD DUP8 PUSH1 0x80 ADD MLOAD PUSH1 0x2 DUP2 MLOAD DUP2 LT PUSH2 0x1528 JUMPI PUSH2 0x1527 PUSH2 0x5D75 JUMP JUMPDEST JUMPDEST PUSH1 0x20 MUL PUSH1 0x20 ADD ADD MLOAD DUP9 PUSH2 0x120 ADD MLOAD PUSH2 0x34C7 JUMP JUMPDEST DUP7 PUSH2 0x120 ADD DUP2 DUP2 MSTORE POP POP PUSH2 0x1558 DUP7 PUSH1 0xC0 ADD MLOAD DUP8 PUSH1 0x40 ADD MLOAD ADDRESS PUSH2 0x3957 JUMP JUMPDEST SWAP1 POP DUP1 PUSH1 0x0 DUP2 MLOAD DUP2 LT PUSH2 0x156E JUMPI PUSH2 0x156D PUSH2 0x5D75 JUMP JUMPDEST JUMPDEST PUSH1 0x20 MUL PUSH1 0x20 ADD ADD MLOAD DUP7 PUSH2 0x120 ADD MLOAD GT PUSH2 0x15BC JUMPI PUSH1 0x40 MLOAD PUSH32 0x8C379A000000000000000000000000000000000000000000000000000000000 DUP2 MSTORE PUSH1 0x4 ADD PUSH2 0x15B3 SWAP1 PUSH2 0x5376 JUMP JUMPDEST PUSH1 0x40 MLOAD DUP1 SWAP2 SUB SWAP1 REVERT JUMPDEST PUSH1 0x0 DUP2 PUSH1 0x0 DUP2 MLOAD DUP2 LT PUSH2 0x15D2 JUMPI PUSH2 0x15D1 PUSH2 0x5D75 JUMP JUMPDEST JUMPDEST PUSH1 0x20 MUL PUSH1 0x20 ADD ADD MLOAD DUP8 PUSH2 0x120 ADD MLOAD PUSH2 0x15EA SWAP2 SWAP1 PUSH2 0x5B1A JUMP JUMPDEST SWAP1 POP PUSH2 0x15FB DUP2 DUP9 PUSH1 0x60 ADD MLOAD ADDRESS PUSH2 0x380A JUMP JUMPDEST SWAP2 POP DUP2 PUSH1 0x1 DUP4 MLOAD PUSH2 0x160C SWAP2 SWAP1 PUSH2 0x5B1A JUMP JUMPDEST DUP2 MLOAD DUP2 LT PUSH2 0x161D JUMPI PUSH2 0x161C PUSH2 0x5D75 JUMP JUMPDEST JUMPDEST PUSH1 0x20 MUL PUSH1 0x20 ADD ADD MLOAD DUP8 PUSH2 0x140 ADD DUP2 DUP2 MSTORE POP POP POP PUSH2 0x1A59 JUMP JUMPDEST PUSH2 0x165D DUP7 PUSH1 0x80 ADD MLOAD PUSH1 0x1 DUP2 MLOAD DUP2 LT PUSH2 0x1650 JUMPI PUSH2 0x164F PUSH2 0x5D75 JUMP JUMPDEST JUMPDEST PUSH1 0x20 MUL PUSH1 0x20 ADD ADD MLOAD PUSH2 0x37BE JUMP JUMPDEST ISZERO PUSH2 0x189C JUMPI PUSH2 0x16CF DUP7 PUSH1 0x80 ADD MLOAD PUSH1 0x0 DUP2 MLOAD DUP2 LT PUSH2 0x167D JUMPI PUSH2 0x167C PUSH2 0x5D75 JUMP JUMPDEST JUMPDEST PUSH1 0x20 MUL PUSH1 0x20 ADD ADD MLOAD DUP8 PUSH1 0x80 ADD MLOAD PUSH1 0x1 DUP2 MLOAD DUP2 LT PUSH2 0x169D JUMPI PUSH2 0x169C PUSH2 0x5D75 JUMP JUMPDEST JUMPDEST PUSH1 0x20 MUL PUSH1 0x20 ADD ADD MLOAD DUP9 PUSH1 0x80 ADD MLOAD PUSH1 0x4 DUP2 MLOAD DUP2 LT PUSH2 0x16BD JUMPI PUSH2 0x16BC PUSH2 0x5D75 JUMP JUMPDEST JUMPDEST PUSH1 0x20 MUL PUSH1 0x20 ADD ADD MLOAD DUP10 PUSH1 0xA0 ADD MLOAD PUSH2 0x30F4 JUMP JUMPDEST POP DUP7 PUSH2 0x100 ADD DUP2 DUP2 MSTORE POP POP PUSH2 0x1728 DUP7 PUSH1 0x80 ADD MLOAD PUSH1 0x1 DUP2 MLOAD DUP2 LT PUSH2 0x16F5 JUMPI PUSH2 0x16F4 PUSH2 0x5D75 JUMP JUMPDEST JUMPDEST PUSH1 0x20 MUL PUSH1 0x20 ADD ADD MLOAD DUP8 PUSH1 0x80 ADD MLOAD PUSH1 0x2 DUP2 MLOAD DUP2 LT PUSH2 0x1715 JUMPI PUSH2 0x1714 PUSH2 0x5D75 JUMP JUMPDEST JUMPDEST PUSH1 0x20 MUL PUSH1 0x20 ADD ADD MLOAD DUP9 PUSH2 0x120 ADD MLOAD PUSH2 0x34C7 JUMP JUMPDEST DUP7 PUSH2 0x120 ADD DUP2 DUP2 MSTORE POP POP PUSH20 0xBB4CDB9CBD36B01BD1CBAEBF2DE08D9173BC095C PUSH20 0xFFFFFFFFFFFFFFFFFFFFFFFFFFFFFFFFFFFFFFFF AND PUSH4 0xD0E30DB0 DUP8 PUSH2 0x120 ADD MLOAD PUSH1 0x40 MLOAD DUP3 PUSH4 0xFFFFFFFF AND PUSH1 0xE0 SHL DUP2 MSTORE PUSH1 0x4 ADD PUSH1 0x0 PUSH1 0x40 MLOAD DUP1 DUP4 SUB DUP2 DUP6 DUP9 DUP1 EXTCODESIZE ISZERO DUP1 ISZERO PUSH2 0x1793 JUMPI PUSH1 0x0 DUP1 REVERT JUMPDEST POP GAS CALL ISZERO DUP1 ISZERO PUSH2 0x17A7 JUMPI RETURNDATASIZE PUSH1 0x0 DUP1 RETURNDATACOPY RETURNDATASIZE PUSH1 0x0 REVERT JUMPDEST POP POP POP POP POP PUSH2 0x17BF DUP7 PUSH1 0xC0 ADD MLOAD DUP8 PUSH1 0x40 ADD MLOAD ADDRESS PUSH2 0x3957 JUMP JUMPDEST SWAP1 POP DUP1 PUSH1 0x0 DUP2 MLOAD DUP2 LT PUSH2 0x17D5 JUMPI PUSH2 0x17D4 PUSH2 0x5D75 JUMP JUMPDEST JUMPDEST PUSH1 0x20 MUL PUSH1 0x20 ADD ADD MLOAD DUP7 PUSH2 0x120 ADD MLOAD GT PUSH2 0x1823 JUMPI PUSH1 0x40 MLOAD PUSH32 0x8C379A000000000000000000000000000000000000000000000000000000000 DUP2 MSTORE PUSH1 0x4 ADD PUSH2 0x181A SWAP1 PUSH2 0x5376 JUMP JUMPDEST PUSH1 0x40 MLOAD DUP1 SWAP2 SUB SWAP1 REVERT JUMPDEST PUSH1 0x0 DUP2 PUSH1 0x0 DUP2 MLOAD DUP2 LT PUSH2 0x1839 JUMPI PUSH2 0x1838 PUSH2 0x5D75 JUMP JUMPDEST JUMPDEST PUSH1 0x20 MUL PUSH1 0x20 ADD ADD MLOAD DUP8 PUSH2 0x120 ADD MLOAD PUSH2 0x1851 SWAP2 SWAP1 PUSH2 0x5B1A JUMP JUMPDEST SWAP1 POP PUSH2 0x1862 DUP2 DUP9 PUSH1 0x60 ADD MLOAD ADDRESS PUSH2 0x380A JUMP JUMPDEST SWAP2 POP DUP2 PUSH1 0x1 DUP4 MLOAD PUSH2 0x1873 SWAP2 SWAP1 PUSH2 0x5B1A JUMP JUMPDEST DUP2 MLOAD DUP2 LT PUSH2 0x1884 JUMPI PUSH2 0x1883 PUSH2 0x5D75 JUMP JUMPDEST JUMPDEST PUSH1 0x20 MUL PUSH1 0x20 ADD ADD MLOAD DUP8 PUSH2 0x140 ADD DUP2 DUP2 MSTORE POP POP POP PUSH2 0x1A58 JUMP JUMPDEST PUSH2 0x1909 DUP7 PUSH1 0x80 ADD MLOAD PUSH1 0x0 DUP2 MLOAD DUP2 LT PUSH2 0x18B7 JUMPI PUSH2 0x18B6 PUSH2 0x5D75 JUMP JUMPDEST JUMPDEST PUSH1 0x20 MUL PUSH1 0x20 ADD ADD MLOAD DUP8 PUSH1 0x80 ADD MLOAD PUSH1 0x1 DUP2 MLOAD DUP2 LT PUSH2 0x18D7 JUMPI PUSH2 0x18D6 PUSH2 0x5D75 JUMP JUMPDEST JUMPDEST PUSH1 0x20 MUL PUSH1 0x20 ADD ADD MLOAD DUP9 PUSH1 0x80 ADD MLOAD PUSH1 0x4 DUP2 MLOAD DUP2 LT PUSH2 0x18F7 JUMPI PUSH2 0x18F6 PUSH2 0x5D75 JUMP JUMPDEST JUMPDEST PUSH1 0x20 MUL PUSH1 0x20 ADD ADD MLOAD DUP10 PUSH1 0xA0 ADD MLOAD PUSH2 0x30F4 JUMP JUMPDEST POP DUP7 PUSH2 0x100 ADD DUP2 DUP2 MSTORE POP POP PUSH2 0x1962 DUP7 PUSH1 0x80 ADD MLOAD PUSH1 0x1 DUP2 MLOAD DUP2 LT PUSH2 0x192F JUMPI PUSH2 0x192E PUSH2 0x5D75 JUMP JUMPDEST JUMPDEST PUSH1 0x20 MUL PUSH1 0x20 ADD ADD MLOAD DUP8 PUSH1 0x80 ADD MLOAD PUSH1 0x2 DUP2 MLOAD DUP2 LT PUSH2 0x194F JUMPI PUSH2 0x194E PUSH2 0x5D75 JUMP JUMPDEST JUMPDEST PUSH1 0x20 MUL PUSH1 0x20 ADD ADD MLOAD DUP9 PUSH2 0x120 ADD MLOAD PUSH2 0x34C7 JUMP JUMPDEST DUP7 PUSH2 0x120 ADD DUP2 DUP2 MSTORE POP POP PUSH2 0x197F DUP7 PUSH1 0xC0 ADD MLOAD DUP8 PUSH1 0x40 ADD MLOAD ADDRESS PUSH2 0x3957 JUMP JUMPDEST SWAP1 POP DUP1 PUSH1 0x0 DUP2 MLOAD DUP2 LT PUSH2 0x1995 JUMPI PUSH2 0x1994 PUSH2 0x5D75 JUMP JUMPDEST JUMPDEST PUSH1 0x20 MUL PUSH1 0x20 ADD ADD MLOAD DUP7 PUSH2 0x120 ADD MLOAD GT PUSH2 0x19E3 JUMPI PUSH1 0x40 MLOAD PUSH32 0x8C379A000000000000000000000000000000000000000000000000000000000 DUP2 MSTORE PUSH1 0x4 ADD PUSH2 0x19DA SWAP1 PUSH2 0x5656 JUMP JUMPDEST PUSH1 0x40 MLOAD DUP1 SWAP2 SUB SWAP1 REVERT JUMPDEST PUSH1 0x0 DUP2 PUSH1 0x0 DUP2 MLOAD DUP2 LT PUSH2 0x19F9 JUMPI PUSH2 0x19F8 PUSH2 0x5D75 JUMP JUMPDEST JUMPDEST PUSH1 0x20 MUL PUSH1 0x20 ADD ADD MLOAD DUP8 PUSH2 0x120 ADD MLOAD PUSH2 0x1A11 SWAP2 SWAP1 PUSH2 0x5B1A JUMP JUMPDEST SWAP1 POP PUSH2 0x1A22 DUP2 DUP9 PUSH1 0x60 ADD MLOAD ADDRESS PUSH2 0x380A JUMP JUMPDEST SWAP2 POP DUP2 PUSH1 0x1 DUP4 MLOAD PUSH2 0x1A33 SWAP2 SWAP1 PUSH2 0x5B1A JUMP JUMPDEST DUP2 MLOAD DUP2 LT PUSH2 0x1A44 JUMPI PUSH2 0x1A43 PUSH2 0x5D75 JUMP JUMPDEST JUMPDEST PUSH1 0x20 MUL PUSH1 0x20 ADD ADD MLOAD DUP8 PUSH2 0x140 ADD DUP2 DUP2 MSTORE POP POP POP JUMPDEST JUMPDEST PUSH2 0x2101 JUMP JUMPDEST PUSH1 0x6 DUP7 PUSH1 0x0 ADD MLOAD EQ ISZERO PUSH2 0x1C79 JUMPI PUSH2 0x1A93 DUP7 PUSH1 0x80 ADD MLOAD PUSH1 0x1 DUP2 MLOAD DUP2 LT PUSH2 0x1A86 JUMPI PUSH2 0x1A85 PUSH2 0x5D75 JUMP JUMPDEST JUMPDEST PUSH1 0x20 MUL PUSH1 0x20 ADD ADD MLOAD PUSH2 0x3014 JUMP JUMPDEST PUSH2 0x1AD2 JUMPI PUSH1 0x40 MLOAD PUSH32 0x8C379A000000000000000000000000000000000000000000000000000000000 DUP2 MSTORE PUSH1 0x4 ADD PUSH2 0x1AC9 SWAP1 PUSH2 0x53B6 JUMP JUMPDEST PUSH1 0x40 MLOAD DUP1 SWAP2 SUB SWAP1 REVERT JUMPDEST PUSH1 0x0 PUSH2 0x1B41 DUP8 PUSH1 0x80 ADD MLOAD PUSH1 0x0 DUP2 MLOAD DUP2 LT PUSH2 0x1AEF JUMPI PUSH2 0x1AEE PUSH2 0x5D75 JUMP JUMPDEST JUMPDEST PUSH1 0x20 MUL PUSH1 0x20 ADD ADD MLOAD DUP9 PUSH1 0x80 ADD MLOAD PUSH1 0x1 DUP2 MLOAD DUP2 LT PUSH2 0x1B0F JUMPI PUSH2 0x1B0E PUSH2 0x5D75 JUMP JUMPDEST JUMPDEST PUSH1 0x20 MUL PUSH1 0x20 ADD ADD MLOAD DUP10 PUSH1 0x80 ADD MLOAD PUSH1 0x4 DUP2 MLOAD DUP2 LT PUSH2 0x1B2F JUMPI PUSH2 0x1B2E PUSH2 0x5D75 JUMP JUMPDEST JUMPDEST PUSH1 0x20 MUL PUSH1 0x20 ADD ADD MLOAD DUP11 PUSH1 0xA0 ADD MLOAD PUSH2 0x30F4 JUMP JUMPDEST DUP9 PUSH2 0x100 ADD DUP2 SWAP4 POP DUP3 DUP2 MSTORE POP POP POP PUSH2 0x1B9D DUP8 PUSH1 0x80 ADD MLOAD PUSH1 0x1 DUP2 MLOAD DUP2 LT PUSH2 0x1B6A JUMPI PUSH2 0x1B69 PUSH2 0x5D75 JUMP JUMPDEST JUMPDEST PUSH1 0x20 MUL PUSH1 0x20 ADD ADD MLOAD DUP9 PUSH1 0x80 ADD MLOAD PUSH1 0x2 DUP2 MLOAD DUP2 LT PUSH2 0x1B8A JUMPI PUSH2 0x1B89 PUSH2 0x5D75 JUMP JUMPDEST JUMPDEST PUSH1 0x20 MUL PUSH1 0x20 ADD ADD MLOAD DUP10 PUSH2 0x120 ADD MLOAD PUSH2 0x34C7 JUMP JUMPDEST DUP8 PUSH2 0x120 ADD DUP2 DUP2 MSTORE POP POP PUSH1 0x0 DUP8 PUSH1 0xA0 ADD MLOAD DUP3 DUP10 PUSH1 0xC0 ADD MLOAD PUSH2 0x1BBE SWAP2 SWAP1 PUSH2 0x5A39 JUMP JUMPDEST PUSH2 0x1BC8 SWAP2 SWAP1 PUSH2 0x5B1A JUMP JUMPDEST SWAP1 POP PUSH2 0x1BD9 DUP2 DUP10 PUSH1 0x40 ADD MLOAD ADDRESS PUSH2 0x3957 JUMP JUMPDEST POP DUP3 PUSH1 0x0 DUP2 MLOAD DUP2 LT PUSH2 0x1BEE JUMPI PUSH2 0x1BED PUSH2 0x5D75 JUMP JUMPDEST JUMPDEST PUSH1 0x20 MUL PUSH1 0x20 ADD ADD MLOAD DUP9 PUSH2 0x120 ADD MLOAD GT PUSH2 0x1C3C JUMPI PUSH1 0x40 MLOAD PUSH32 0x8C379A000000000000000000000000000000000000000000000000000000000 DUP2 MSTORE PUSH1 0x4 ADD PUSH2 0x1C33 SWAP1 PUSH2 0x54D6 JUMP JUMPDEST PUSH1 0x40 MLOAD DUP1 SWAP2 SUB SWAP1 REVERT JUMPDEST DUP3 PUSH1 0x0 DUP2 MLOAD DUP2 LT PUSH2 0x1C50 JUMPI PUSH2 0x1C4F PUSH2 0x5D75 JUMP JUMPDEST JUMPDEST PUSH1 0x20 MUL PUSH1 0x20 ADD ADD MLOAD DUP9 PUSH2 0x120 ADD MLOAD PUSH2 0x1C68 SWAP2 SWAP1 PUSH2 0x5B1A JUMP JUMPDEST DUP9 PUSH2 0x140 ADD DUP2 DUP2 MSTORE POP POP POP POP PUSH2 0x2100 JUMP JUMPDEST PUSH1 0x7 DUP7 PUSH1 0x0 ADD MLOAD EQ ISZERO PUSH2 0x20FA JUMPI PUSH2 0x1CAE DUP7 PUSH1 0x80 ADD MLOAD PUSH1 0x1 DUP2 MLOAD DUP2 LT PUSH2 0x1CA1 JUMPI PUSH2 0x1CA0 PUSH2 0x5D75 JUMP JUMPDEST JUMPDEST PUSH1 0x20 MUL PUSH1 0x20 ADD ADD MLOAD PUSH2 0x37BE JUMP JUMPDEST ISZERO PUSH2 0x1F13 JUMPI PUSH1 0x0 PUSH2 0x1D22 DUP8 PUSH1 0x80 ADD MLOAD PUSH1 0x0 DUP2 MLOAD DUP2 LT PUSH2 0x1CD0 JUMPI PUSH2 0x1CCF PUSH2 0x5D75 JUMP JUMPDEST JUMPDEST PUSH1 0x20 MUL PUSH1 0x20 ADD ADD MLOAD DUP9 PUSH1 0x80 ADD MLOAD PUSH1 0x1 DUP2 MLOAD DUP2 LT PUSH2 0x1CF0 JUMPI PUSH2 0x1CEF PUSH2 0x5D75 JUMP JUMPDEST JUMPDEST PUSH1 0x20 MUL PUSH1 0x20 ADD ADD MLOAD DUP10 PUSH1 0x80 ADD MLOAD PUSH1 0x4 DUP2 MLOAD DUP2 LT PUSH2 0x1D10 JUMPI PUSH2 0x1D0F PUSH2 0x5D75 JUMP JUMPDEST JUMPDEST PUSH1 0x20 MUL PUSH1 0x20 ADD ADD MLOAD DUP11 PUSH1 0xA0 ADD MLOAD PUSH2 0x30F4 JUMP JUMPDEST DUP9 PUSH2 0x100 ADD DUP2 SWAP4 POP DUP3 DUP2 MSTORE POP POP POP PUSH2 0x1D7E DUP8 PUSH1 0x80 ADD MLOAD PUSH1 0x1 DUP2 MLOAD DUP2 LT PUSH2 0x1D4B JUMPI PUSH2 0x1D4A PUSH2 0x5D75 JUMP JUMPDEST JUMPDEST PUSH1 0x20 MUL PUSH1 0x20 ADD ADD MLOAD DUP9 PUSH1 0x80 ADD MLOAD PUSH1 0x2 DUP2 MLOAD DUP2 LT PUSH2 0x1D6B JUMPI PUSH2 0x1D6A PUSH2 0x5D75 JUMP JUMPDEST JUMPDEST PUSH1 0x20 MUL PUSH1 0x20 ADD ADD MLOAD DUP10 PUSH2 0x120 ADD MLOAD PUSH2 0x34C7 JUMP JUMPDEST DUP8 PUSH2 0x120 ADD DUP2 DUP2 MSTORE POP POP PUSH20 0xBB4CDB9CBD36B01BD1CBAEBF2DE08D9173BC095C PUSH20 0xFFFFFFFFFFFFFFFFFFFFFFFFFFFFFFFFFFFFFFFF AND PUSH4 0xD0E30DB0 DUP9 PUSH2 0x120 ADD MLOAD PUSH1 0x40 MLOAD DUP3 PUSH4 0xFFFFFFFF AND PUSH1 0xE0 SHL DUP2 MSTORE PUSH1 0x4 ADD PUSH1 0x0 PUSH1 0x40 MLOAD DUP1 DUP4 SUB DUP2 DUP6 DUP9 DUP1 EXTCODESIZE ISZERO DUP1 ISZERO PUSH2 0x1DE9 JUMPI PUSH1 0x0 DUP1 REVERT JUMPDEST POP GAS CALL ISZERO DUP1 ISZERO PUSH2 0x1DFD JUMPI RETURNDATASIZE PUSH1 0x0 DUP1 RETURNDATACOPY RETURNDATASIZE PUSH1 0x0 REVERT JUMPDEST POP POP POP POP POP PUSH1 0x0 DUP8 PUSH1 0xA0 ADD MLOAD DUP3 DUP10 PUSH1 0xC0 ADD MLOAD PUSH2 0x1E19 SWAP2 SWAP1 PUSH2 0x5A39 JUMP JUMPDEST PUSH2 0x1E23 SWAP2 SWAP1 PUSH2 0x5B1A JUMP JUMPDEST SWAP1 POP PUSH2 0x1E34 DUP2 DUP10 PUSH1 0x40 ADD MLOAD ADDRESS PUSH2 0x3957 JUMP JUMPDEST SWAP3 POP DUP3 PUSH1 0x0 DUP2 MLOAD DUP2 LT PUSH2 0x1E4A JUMPI PUSH2 0x1E49 PUSH2 0x5D75 JUMP JUMPDEST JUMPDEST PUSH1 0x20 MUL PUSH1 0x20 ADD ADD MLOAD DUP9 PUSH2 0x120 ADD MLOAD GT PUSH2 0x1E98 JUMPI PUSH1 0x40 MLOAD PUSH32 0x8C379A000000000000000000000000000000000000000000000000000000000 DUP2 MSTORE PUSH1 0x4 ADD PUSH2 0x1E8F SWAP1 PUSH2 0x55D6 JUMP JUMPDEST PUSH1 0x40 MLOAD DUP1 SWAP2 SUB SWAP1 REVERT JUMPDEST PUSH1 0x0 DUP4 PUSH1 0x0 DUP2 MLOAD DUP2 LT PUSH2 0x1EAE JUMPI PUSH2 0x1EAD PUSH2 0x5D75 JUMP JUMPDEST JUMPDEST PUSH1 0x20 MUL PUSH1 0x20 ADD ADD MLOAD DUP10 PUSH2 0x120 ADD MLOAD PUSH2 0x1EC6 SWAP2 SWAP1 PUSH2 0x5B1A JUMP JUMPDEST SWAP1 POP PUSH2 0x1ED7 DUP2 DUP11 PUSH1 0x60 ADD MLOAD ADDRESS PUSH2 0x380A JUMP JUMPDEST SWAP4 POP DUP4 PUSH1 0x1 DUP6 MLOAD PUSH2 0x1EE8 SWAP2 SWAP1 PUSH2 0x5B1A JUMP JUMPDEST DUP2 MLOAD DUP2 LT PUSH2 0x1EF9 JUMPI PUSH2 0x1EF8 PUSH2 0x5D75 JUMP JUMPDEST JUMPDEST PUSH1 0x20 MUL PUSH1 0x20 ADD ADD MLOAD DUP10 PUSH2 0x140 ADD DUP2 DUP2 MSTORE POP POP POP POP POP PUSH2 0x20F5 JUMP JUMPDEST PUSH1 0x0 PUSH2 0x1F82 DUP8 PUSH1 0x80 ADD MLOAD PUSH1 0x0 DUP2 MLOAD DUP2 LT PUSH2 0x1F30 JUMPI PUSH2 0x1F2F PUSH2 0x5D75 JUMP JUMPDEST JUMPDEST PUSH1 0x20 MUL PUSH1 0x20 ADD ADD MLOAD DUP9 PUSH1 0x80 ADD MLOAD PUSH1 0x1 DUP2 MLOAD DUP2 LT PUSH2 0x1F50 JUMPI PUSH2 0x1F4F PUSH2 0x5D75 JUMP JUMPDEST JUMPDEST PUSH1 0x20 MUL PUSH1 0x20 ADD ADD MLOAD DUP10 PUSH1 0x80 ADD MLOAD PUSH1 0x4 DUP2 MLOAD DUP2 LT PUSH2 0x1F70 JUMPI PUSH2 0x1F6F PUSH2 0x5D75 JUMP JUMPDEST JUMPDEST PUSH1 0x20 MUL PUSH1 0x20 ADD ADD MLOAD DUP11 PUSH1 0xA0 ADD MLOAD PUSH2 0x30F4 JUMP JUMPDEST DUP9 PUSH2 0x100 ADD DUP2 SWAP4 POP DUP3 DUP2 MSTORE POP POP POP PUSH2 0x1FDE DUP8 PUSH1 0x80 ADD MLOAD PUSH1 0x1 DUP2 MLOAD DUP2 LT PUSH2 0x1FAB JUMPI PUSH2 0x1FAA PUSH2 0x5D75 JUMP JUMPDEST JUMPDEST PUSH1 0x20 MUL PUSH1 0x20 ADD ADD MLOAD DUP9 PUSH1 0x80 ADD MLOAD PUSH1 0x2 DUP2 MLOAD DUP2 LT PUSH2 0x1FCB JUMPI PUSH2 0x1FCA PUSH2 0x5D75 JUMP JUMPDEST JUMPDEST PUSH1 0x20 MUL PUSH1 0x20 ADD ADD MLOAD DUP10 PUSH2 0x120 ADD MLOAD PUSH2 0x34C7 JUMP JUMPDEST DUP8 PUSH2 0x120 ADD DUP2 DUP2 MSTORE POP POP PUSH1 0x0 DUP8 PUSH1 0xA0 ADD MLOAD DUP3 DUP10 PUSH1 0xC0 ADD MLOAD PUSH2 0x1FFF SWAP2 SWAP1 PUSH2 0x5A39 JUMP JUMPDEST PUSH2 0x2009 SWAP2 SWAP1 PUSH2 0x5B1A JUMP JUMPDEST SWAP1 POP PUSH2 0x201A DUP2 DUP10 PUSH1 0x40 ADD MLOAD ADDRESS PUSH2 0x3957 JUMP JUMPDEST SWAP3 POP DUP3 PUSH1 0x0 DUP2 MLOAD DUP2 LT PUSH2 0x2030 JUMPI PUSH2 0x202F PUSH2 0x5D75 JUMP JUMPDEST JUMPDEST PUSH1 0x20 MUL PUSH1 0x20 ADD ADD MLOAD DUP9 PUSH2 0x120 ADD MLOAD GT PUSH2 0x207E JUMPI PUSH1 0x40 MLOAD PUSH32 0x8C379A000000000000000000000000000000000000000000000000000000000 DUP2 MSTORE PUSH1 0x4 ADD PUSH2 0x2075 SWAP1 PUSH2 0x5396 JUMP JUMPDEST PUSH1 0x40 MLOAD DUP1 SWAP2 SUB SWAP1 REVERT JUMPDEST PUSH1 0x0 DUP4 PUSH1 0x0 DUP2 MLOAD DUP2 LT PUSH2 0x2094 JUMPI PUSH2 0x2093 PUSH2 0x5D75 JUMP JUMPDEST JUMPDEST PUSH1 0x20 MUL PUSH1 0x20 ADD ADD MLOAD DUP10 PUSH2 0x120 ADD MLOAD PUSH2 0x20AC SWAP2 SWAP1 PUSH2 0x5B1A JUMP JUMPDEST SWAP1 POP PUSH2 0x20BD DUP2 DUP11 PUSH1 0x60 ADD MLOAD ADDRESS PUSH2 0x380A JUMP JUMPDEST SWAP4 POP DUP4 PUSH1 0x1 DUP6 MLOAD PUSH2 0x20CE SWAP2 SWAP1 PUSH2 0x5B1A JUMP JUMPDEST DUP2 MLOAD DUP2 LT PUSH2 0x20DF JUMPI PUSH2 0x20DE PUSH2 0x5D75 JUMP JUMPDEST JUMPDEST PUSH1 0x20 MUL PUSH1 0x20 ADD ADD MLOAD DUP10 PUSH2 0x140 ADD DUP2 DUP2 MSTORE POP POP POP POP POP JUMPDEST PUSH2 0x20FF JUMP JUMPDEST PUSH1 0x0 DUP1 REVERT JUMPDEST JUMPDEST JUMPDEST JUMPDEST JUMPDEST JUMPDEST JUMPDEST DUP3 PUSH20 0xFFFFFFFFFFFFFFFFFFFFFFFFFFFFFFFFFFFFFFFF AND PUSH4 0xA9059CBB DUP8 PUSH1 0x20 ADD MLOAD DUP9 PUSH1 0xC0 ADD MLOAD PUSH1 0x40 MLOAD DUP4 PUSH4 0xFFFFFFFF AND PUSH1 0xE0 SHL DUP2 MSTORE PUSH1 0x4 ADD PUSH2 0x2148 SWAP3 SWAP2 SWAP1 PUSH2 0x5316 JUMP JUMPDEST PUSH1 0x20 PUSH1 0x40 MLOAD DUP1 DUP4 SUB DUP2 PUSH1 0x0 DUP8 DUP1 EXTCODESIZE ISZERO DUP1 ISZERO PUSH2 0x2162 JUMPI PUSH1 0x0 DUP1 REVERT JUMPDEST POP GAS CALL ISZERO DUP1 ISZERO PUSH2 0x2176 JUMPI RETURNDATASIZE PUSH1 0x0 DUP1 RETURNDATACOPY RETURNDATASIZE PUSH1 0x0 REVERT JUMPDEST POP POP POP POP PUSH1 0x40 MLOAD RETURNDATASIZE PUSH1 0x1F NOT PUSH1 0x1F DUP3 ADD AND DUP3 ADD DUP1 PUSH1 0x40 MSTORE POP DUP2 ADD SWAP1 PUSH2 0x219A SWAP2 SWAP1 PUSH2 0x490A JUMP JUMPDEST POP PUSH32 0xEE80F069D389B1636BFE8A115FF1D8AD940B394B4D16BB19C8503003D14DD5B4 DUP7 PUSH1 0x0 ADD MLOAD DUP5 DUP9 PUSH1 0xA0 ADD MLOAD DUP6 DUP11 PUSH1 0xC0 ADD MLOAD DUP12 PUSH2 0x120 ADD MLOAD DUP13 PUSH2 0x140 ADD MLOAD PUSH1 0x40 MLOAD PUSH2 0x21EC SWAP8 SWAP7 SWAP6 SWAP5 SWAP4 SWAP3 SWAP2 SWAP1 PUSH2 0x588D JUMP JUMPDEST PUSH1 0x40 MLOAD DUP1 SWAP2 SUB SWAP1 LOG1 POP POP POP POP POP POP POP POP POP POP POP JUMP JUMPDEST PUSH1 0x0 PUSH8 0xDE0B6B3A7640000 SWAP1 POP PUSH20 0xBB4CDB9CBD36B01BD1CBAEBF2DE08D9173BC095C PUSH20 0xFFFFFFFFFFFFFFFFFFFFFFFFFFFFFFFFFFFFFFFF AND PUSH4 0xD0E30DB0 DUP3 PUSH1 0x40 MLOAD DUP3 PUSH4 0xFFFFFFFF AND PUSH1 0xE0 SHL DUP2 MSTORE PUSH1 0x4 ADD PUSH1 0x0 PUSH1 0x40 MLOAD DUP1 DUP4 SUB DUP2 DUP6 DUP9 DUP1 EXTCODESIZE ISZERO DUP1 ISZERO PUSH2 0x226A JUMPI PUSH1 0x0 DUP1 REVERT JUMPDEST POP GAS CALL ISZERO DUP1 ISZERO PUSH2 0x227E JUMPI RETURNDATASIZE PUSH1 0x0 DUP1 RETURNDATACOPY RETURNDATASIZE PUSH1 0x0 REVERT JUMPDEST POP POP POP POP POP PUSH1 0x0 PUSH1 0x2 PUSH8 0xFFFFFFFFFFFFFFFF DUP2 GT ISZERO PUSH2 0x22A0 JUMPI PUSH2 0x229F PUSH2 0x5DA4 JUMP JUMPDEST JUMPDEST PUSH1 0x40 MLOAD SWAP1 DUP1 DUP3 MSTORE DUP1 PUSH1 0x20 MUL PUSH1 0x20 ADD DUP3 ADD PUSH1 0x40 MSTORE DUP1 ISZERO PUSH2 0x22CE JUMPI DUP2 PUSH1 0x20 ADD PUSH1 0x20 DUP3 MUL DUP1 CALLDATASIZE DUP4 CALLDATACOPY DUP1 DUP3 ADD SWAP2 POP POP SWAP1 POP JUMPDEST POP SWAP1 POP PUSH20 0xBB4CDB9CBD36B01BD1CBAEBF2DE08D9173BC095C DUP2 PUSH1 0x0 DUP2 MLOAD DUP2 LT PUSH2 0x22FA JUMPI PUSH2 0x22F9 PUSH2 0x5D75 JUMP JUMPDEST JUMPDEST PUSH1 0x20 MUL PUSH1 0x20 ADD ADD SWAP1 PUSH20 0xFFFFFFFFFFFFFFFFFFFFFFFFFFFFFFFFFFFFFFFF AND SWAP1 DUP2 PUSH20 0xFFFFFFFFFFFFFFFFFFFFFFFFFFFFFFFFFFFFFFFF AND DUP2 MSTORE POP POP DUP3 DUP2 PUSH1 0x1 DUP2 MLOAD DUP2 LT PUSH2 0x2349 JUMPI PUSH2 0x2348 PUSH2 0x5D75 JUMP JUMPDEST JUMPDEST PUSH1 0x20 MUL PUSH1 0x20 ADD ADD SWAP1 PUSH20 0xFFFFFFFFFFFFFFFFFFFFFFFFFFFFFFFFFFFFFFFF AND SWAP1 DUP2 PUSH20 0xFFFFFFFFFFFFFFFFFFFFFFFFFFFFFFFFFFFFFFFF AND DUP2 MSTORE POP POP PUSH2 0x238E DUP3 DUP3 ADDRESS PUSH2 0x380A JUMP JUMPDEST POP POP POP POP JUMP JUMPDEST PUSH1 0x0 DUP1 PUSH1 0x0 SWAP1 SLOAD SWAP1 PUSH2 0x100 EXP SWAP1 DIV PUSH20 0xFFFFFFFFFFFFFFFFFFFFFFFFFFFFFFFFFFFFFFFF AND SWAP1 POP SWAP1 JUMP JUMPDEST PUSH1 0x1 DUP10 LT ISZERO DUP1 ISZERO PUSH2 0x23CF JUMPI POP PUSH1 0x7 DUP10 GT ISZERO JUMPDEST PUSH2 0x240E JUMPI PUSH1 0x40 MLOAD PUSH32 0x8C379A000000000000000000000000000000000000000000000000000000000 DUP2 MSTORE PUSH1 0x4 ADD PUSH2 0x2405 SWAP1 PUSH2 0x5716 JUMP JUMPDEST PUSH1 0x40 MLOAD DUP1 SWAP2 SUB SWAP1 REVERT JUMPDEST PUSH1 0x0 PUSH20 0xFFFFFFFFFFFFFFFFFFFFFFFFFFFFFFFFFFFFFFFF AND DUP9 PUSH20 0xFFFFFFFFFFFFFFFFFFFFFFFFFFFFFFFFFFFFFFFF AND EQ ISZERO PUSH2 0x247E JUMPI PUSH1 0x40 MLOAD PUSH32 0x8C379A000000000000000000000000000000000000000000000000000000000 DUP2 MSTORE PUSH1 0x4 ADD PUSH2 0x2475 SWAP1 PUSH2 0x55F6 JUMP JUMPDEST PUSH1 0x40 MLOAD DUP1 SWAP2 SUB SWAP1 REVERT JUMPDEST PUSH1 0x0 PUSH20 0xFD36E2C2A6789DB23113685031D7F16329158384 PUSH20 0xFFFFFFFFFFFFFFFFFFFFFFFFFFFFFFFFFFFFFFFF AND PUSH4 0x5EC88C79 DUP6 DUP6 PUSH1 0x4 DUP2 DUP2 LT PUSH2 0x24C4 JUMPI PUSH2 0x24C3 PUSH2 0x5D75 JUMP JUMPDEST JUMPDEST SWAP1 POP PUSH1 0x20 MUL ADD PUSH1 0x20 DUP2 ADD SWAP1 PUSH2 0x24D9 SWAP2 SWAP1 PUSH2 0x47E8 JUMP JUMPDEST PUSH1 0x40 MLOAD DUP3 PUSH4 0xFFFFFFFF AND PUSH1 0xE0 SHL DUP2 MSTORE PUSH1 0x4 ADD PUSH2 0x24F5 SWAP2 SWAP1 PUSH2 0x52D2 JUMP JUMPDEST PUSH1 0x60 PUSH1 0x40 MLOAD DUP1 DUP4 SUB DUP2 DUP7 DUP1 EXTCODESIZE ISZERO DUP1 ISZERO PUSH2 0x250D JUMPI PUSH1 0x0 DUP1 REVERT JUMPDEST POP GAS STATICCALL ISZERO DUP1 ISZERO PUSH2 0x2521 JUMPI RETURNDATASIZE PUSH1 0x0 DUP1 RETURNDATACOPY RETURNDATASIZE PUSH1 0x0 REVERT JUMPDEST POP POP POP POP PUSH1 0x40 MLOAD RETURNDATASIZE PUSH1 0x1F NOT PUSH1 0x1F DUP3 ADD AND DUP3 ADD DUP1 PUSH1 0x40 MSTORE POP DUP2 ADD SWAP1 PUSH2 0x2545 SWAP2 SWAP1 PUSH2 0x4BC7 JUMP JUMPDEST SWAP3 POP POP POP PUSH1 0x0 DUP2 GT PUSH2 0x258C JUMPI PUSH1 0x40 MLOAD PUSH32 0x8C379A000000000000000000000000000000000000000000000000000000000 DUP2 MSTORE PUSH1 0x4 ADD PUSH2 0x2583 SWAP1 PUSH2 0x5516 JUMP JUMPDEST PUSH1 0x40 MLOAD DUP1 SWAP2 SUB SWAP1 REVERT JUMPDEST PUSH1 0x1 PUSH1 0x0 DUP6 DUP6 PUSH1 0x3 DUP2 DUP2 LT PUSH2 0x25A4 JUMPI PUSH2 0x25A3 PUSH2 0x5D75 JUMP JUMPDEST JUMPDEST SWAP1 POP PUSH1 0x20 MUL ADD PUSH1 0x20 DUP2 ADD SWAP1 PUSH2 0x25B9 SWAP2 SWAP1 PUSH2 0x47E8 JUMP JUMPDEST PUSH20 0xFFFFFFFFFFFFFFFFFFFFFFFFFFFFFFFFFFFFFFFF AND PUSH20 0xFFFFFFFFFFFFFFFFFFFFFFFFFFFFFFFFFFFFFFFF AND DUP2 MSTORE PUSH1 0x20 ADD SWAP1 DUP2 MSTORE PUSH1 0x20 ADD PUSH1 0x0 KECCAK256 PUSH1 0x0 DUP6 DUP6 PUSH1 0x0 DUP2 DUP2 LT PUSH2 0x2609 JUMPI PUSH2 0x2608 PUSH2 0x5D75 JUMP JUMPDEST JUMPDEST SWAP1 POP PUSH1 0x20 MUL ADD PUSH1 0x20 DUP2 ADD SWAP1 PUSH2 0x261E SWAP2 SWAP1 PUSH2 0x47E8 JUMP JUMPDEST PUSH20 0xFFFFFFFFFFFFFFFFFFFFFFFFFFFFFFFFFFFFFFFF AND PUSH20 0xFFFFFFFFFFFFFFFFFFFFFFFFFFFFFFFFFFFFFFFF AND DUP2 MSTORE PUSH1 0x20 ADD SWAP1 DUP2 MSTORE PUSH1 0x20 ADD PUSH1 0x0 KECCAK256 PUSH1 0x0 SWAP1 SLOAD SWAP1 PUSH2 0x100 EXP SWAP1 DIV PUSH1 0xFF AND PUSH2 0x282F JUMPI DUP4 DUP4 PUSH1 0x3 DUP2 DUP2 LT PUSH2 0x267E JUMPI PUSH2 0x267D PUSH2 0x5D75 JUMP JUMPDEST JUMPDEST SWAP1 POP PUSH1 0x20 MUL ADD PUSH1 0x20 DUP2 ADD SWAP1 PUSH2 0x2693 SWAP2 SWAP1 PUSH2 0x47E8 JUMP JUMPDEST PUSH20 0xFFFFFFFFFFFFFFFFFFFFFFFFFFFFFFFFFFFFFFFF AND PUSH4 0x95EA7B3 DUP6 DUP6 PUSH1 0x0 DUP2 DUP2 LT PUSH2 0x26C2 JUMPI PUSH2 0x26C1 PUSH2 0x5D75 JUMP JUMPDEST JUMPDEST SWAP1 POP PUSH1 0x20 MUL ADD PUSH1 0x20 DUP2 ADD SWAP1 PUSH2 0x26D7 SWAP2 SWAP1 PUSH2 0x47E8 JUMP JUMPDEST PUSH1 0x0 NOT PUSH1 0x40 MLOAD DUP4 PUSH4 0xFFFFFFFF AND PUSH1 0xE0 SHL DUP2 MSTORE PUSH1 0x4 ADD PUSH2 0x26F7 SWAP3 SWAP2 SWAP1 PUSH2 0x5316 JUMP JUMPDEST PUSH1 0x20 PUSH1 0x40 MLOAD DUP1 DUP4 SUB DUP2 PUSH1 0x0 DUP8 DUP1 EXTCODESIZE ISZERO DUP1 ISZERO PUSH2 0x2711 JUMPI PUSH1 0x0 DUP1 REVERT JUMPDEST POP GAS CALL ISZERO DUP1 ISZERO PUSH2 0x2725 JUMPI RETURNDATASIZE PUSH1 0x0 DUP1 RETURNDATACOPY RETURNDATASIZE PUSH1 0x0 REVERT JUMPDEST POP POP POP POP PUSH1 0x40 MLOAD RETURNDATASIZE PUSH1 0x1F NOT PUSH1 0x1F DUP3 ADD AND DUP3 ADD DUP1 PUSH1 0x40 MSTORE POP DUP2 ADD SWAP1 PUSH2 0x2749 SWAP2 SWAP1 PUSH2 0x490A JUMP JUMPDEST POP PUSH1 0x1 DUP1 PUSH1 0x0 DUP7 DUP7 PUSH1 0x3 DUP2 DUP2 LT PUSH2 0x2763 JUMPI PUSH2 0x2762 PUSH2 0x5D75 JUMP JUMPDEST JUMPDEST SWAP1 POP PUSH1 0x20 MUL ADD PUSH1 0x20 DUP2 ADD SWAP1 PUSH2 0x2778 SWAP2 SWAP1 PUSH2 0x47E8 JUMP JUMPDEST PUSH20 0xFFFFFFFFFFFFFFFFFFFFFFFFFFFFFFFFFFFFFFFF AND PUSH20 0xFFFFFFFFFFFFFFFFFFFFFFFFFFFFFFFFFFFFFFFF AND DUP2 MSTORE PUSH1 0x20 ADD SWAP1 DUP2 MSTORE PUSH1 0x20 ADD PUSH1 0x0 KECCAK256 PUSH1 0x0 DUP7 DUP7 PUSH1 0x0 DUP2 DUP2 LT PUSH2 0x27C8 JUMPI PUSH2 0x27C7 PUSH2 0x5D75 JUMP JUMPDEST JUMPDEST SWAP1 POP PUSH1 0x20 MUL ADD PUSH1 0x20 DUP2 ADD SWAP1 PUSH2 0x27DD SWAP2 SWAP1 PUSH2 0x47E8 JUMP JUMPDEST PUSH20 0xFFFFFFFFFFFFFFFFFFFFFFFFFFFFFFFFFFFFFFFF AND PUSH20 0xFFFFFFFFFFFFFFFFFFFFFFFFFFFFFFFFFFFFFFFF AND DUP2 MSTORE PUSH1 0x20 ADD SWAP1 DUP2 MSTORE PUSH1 0x20 ADD PUSH1 0x0 KECCAK256 PUSH1 0x0 PUSH2 0x100 EXP DUP2 SLOAD DUP2 PUSH1 0xFF MUL NOT AND SWAP1 DUP4 ISZERO ISZERO MUL OR SWAP1 SSTORE POP JUMPDEST PUSH2 0x2860 DUP5 DUP5 PUSH1 0x3 DUP2 DUP2 LT PUSH2 0x2846 JUMPI PUSH2 0x2845 PUSH2 0x5D75 JUMP JUMPDEST JUMPDEST SWAP1 POP PUSH1 0x20 MUL ADD PUSH1 0x20 DUP2 ADD SWAP1 PUSH2 0x285B SWAP2 SWAP1 PUSH2 0x47E8 JUMP JUMPDEST PUSH2 0x2201 JUMP JUMPDEST PUSH1 0x0 DUP5 DUP5 PUSH1 0x3 DUP2 DUP2 LT PUSH2 0x2876 JUMPI PUSH2 0x2875 PUSH2 0x5D75 JUMP JUMPDEST JUMPDEST SWAP1 POP PUSH1 0x20 MUL ADD PUSH1 0x20 DUP2 ADD SWAP1 PUSH2 0x288B SWAP2 SWAP1 PUSH2 0x47E8 JUMP JUMPDEST PUSH20 0xFFFFFFFFFFFFFFFFFFFFFFFFFFFFFFFFFFFFFFFF AND PUSH4 0x70A08231 ADDRESS PUSH1 0x40 MLOAD DUP3 PUSH4 0xFFFFFFFF AND PUSH1 0xE0 SHL DUP2 MSTORE PUSH1 0x4 ADD PUSH2 0x28C3 SWAP2 SWAP1 PUSH2 0x52D2 JUMP JUMPDEST PUSH1 0x20 PUSH1 0x40 MLOAD DUP1 DUP4 SUB DUP2 DUP7 DUP1 EXTCODESIZE ISZERO DUP1 ISZERO PUSH2 0x28DB JUMPI PUSH1 0x0 DUP1 REVERT JUMPDEST POP GAS STATICCALL ISZERO DUP1 ISZERO PUSH2 0x28EF JUMPI RETURNDATASIZE PUSH1 0x0 DUP1 RETURNDATACOPY RETURNDATASIZE PUSH1 0x0 REVERT JUMPDEST POP POP POP POP PUSH1 0x40 MLOAD RETURNDATASIZE PUSH1 0x1F NOT PUSH1 0x1F DUP3 ADD AND DUP3 ADD DUP1 PUSH1 0x40 MSTORE POP DUP2 ADD SWAP1 PUSH2 0x2913 SWAP2 SWAP1 PUSH2 0x498A JUMP JUMPDEST SWAP1 POP PUSH1 0x0 DUP11 PUSH20 0xFFFFFFFFFFFFFFFFFFFFFFFFFFFFFFFFFFFFFFFF AND PUSH4 0xDFE1681 PUSH1 0x40 MLOAD DUP2 PUSH4 0xFFFFFFFF AND PUSH1 0xE0 SHL DUP2 MSTORE PUSH1 0x4 ADD PUSH1 0x20 PUSH1 0x40 MLOAD DUP1 DUP4 SUB DUP2 DUP7 DUP1 EXTCODESIZE ISZERO DUP1 ISZERO PUSH2 0x295D JUMPI PUSH1 0x0 DUP1 REVERT JUMPDEST POP GAS STATICCALL ISZERO DUP1 ISZERO PUSH2 0x2971 JUMPI RETURNDATASIZE PUSH1 0x0 DUP1 RETURNDATACOPY RETURNDATASIZE PUSH1 0x0 REVERT JUMPDEST POP POP POP POP PUSH1 0x40 MLOAD RETURNDATASIZE PUSH1 0x1F NOT PUSH1 0x1F DUP3 ADD AND DUP3 ADD DUP1 PUSH1 0x40 MSTORE POP DUP2 ADD SWAP1 PUSH2 0x2995 SWAP2 SWAP1 PUSH2 0x4815 JUMP JUMPDEST SWAP1 POP PUSH1 0x0 DUP12 PUSH20 0xFFFFFFFFFFFFFFFFFFFFFFFFFFFFFFFFFFFFFFFF AND PUSH4 0xD21220A7 PUSH1 0x40 MLOAD DUP2 PUSH4 0xFFFFFFFF AND PUSH1 0xE0 SHL DUP2 MSTORE PUSH1 0x4 ADD PUSH1 0x20 PUSH1 0x40 MLOAD DUP1 DUP4 SUB DUP2 DUP7 DUP1 EXTCODESIZE ISZERO DUP1 ISZERO PUSH2 0x29DF JUMPI PUSH1 0x0 DUP1 REVERT JUMPDEST POP GAS STATICCALL ISZERO DUP1 ISZERO PUSH2 0x29F3 JUMPI RETURNDATASIZE PUSH1 0x0 DUP1 RETURNDATACOPY RETURNDATASIZE PUSH1 0x0 REVERT JUMPDEST POP POP POP POP PUSH1 0x40 MLOAD RETURNDATASIZE PUSH1 0x1F NOT PUSH1 0x1F DUP3 ADD AND DUP3 ADD DUP1 PUSH1 0x40 MSTORE POP DUP2 ADD SWAP1 PUSH2 0x2A17 SWAP2 SWAP1 PUSH2 0x4815 JUMP JUMPDEST SWAP1 POP PUSH1 0x0 DUP3 PUSH20 0xFFFFFFFFFFFFFFFFFFFFFFFFFFFFFFFFFFFFFFFF AND DUP9 DUP9 PUSH1 0x3 DUP2 DUP2 LT PUSH2 0x2A46 JUMPI PUSH2 0x2A45 PUSH2 0x5D75 JUMP JUMPDEST JUMPDEST SWAP1 POP PUSH1 0x20 MUL ADD PUSH1 0x20 DUP2 ADD SWAP1 PUSH2 0x2A5B SWAP2 SWAP1 PUSH2 0x47E8 JUMP JUMPDEST PUSH20 0xFFFFFFFFFFFFFFFFFFFFFFFFFFFFFFFFFFFFFFFF AND EQ PUSH2 0x2A7D JUMPI PUSH1 0x0 PUSH2 0x2A7F JUMP JUMPDEST DUP6 JUMPDEST SWAP1 POP PUSH1 0x0 DUP3 PUSH20 0xFFFFFFFFFFFFFFFFFFFFFFFFFFFFFFFFFFFFFFFF AND DUP10 DUP10 PUSH1 0x3 DUP2 DUP2 LT PUSH2 0x2AAE JUMPI PUSH2 0x2AAD PUSH2 0x5D75 JUMP JUMPDEST JUMPDEST SWAP1 POP PUSH1 0x20 MUL ADD PUSH1 0x20 DUP2 ADD SWAP1 PUSH2 0x2AC3 SWAP2 SWAP1 PUSH2 0x47E8 JUMP JUMPDEST PUSH20 0xFFFFFFFFFFFFFFFFFFFFFFFFFFFFFFFFFFFFFFFF AND EQ PUSH2 0x2AE5 JUMPI PUSH1 0x0 PUSH2 0x2AE7 JUMP JUMPDEST DUP7 JUMPDEST SWAP1 POP PUSH1 0x0 DUP16 DUP16 DUP16 DUP16 DUP16 DUP16 DUP16 DUP16 DUP16 PUSH1 0x40 MLOAD PUSH1 0x20 ADD PUSH2 0x2B0C SWAP10 SWAP9 SWAP8 SWAP7 SWAP6 SWAP5 SWAP4 SWAP3 SWAP2 SWAP1 PUSH2 0x5811 JUMP JUMPDEST PUSH1 0x40 MLOAD PUSH1 0x20 DUP2 DUP4 SUB SUB DUP2 MSTORE SWAP1 PUSH1 0x40 MSTORE SWAP1 POP DUP15 PUSH20 0xFFFFFFFFFFFFFFFFFFFFFFFFFFFFFFFFFFFFFFFF AND PUSH4 0x22C0D9F DUP5 DUP5 ADDRESS DUP6 PUSH1 0x40 MLOAD DUP6 PUSH4 0xFFFFFFFF AND PUSH1 0xE0 SHL DUP2 MSTORE PUSH1 0x4 ADD PUSH2 0x2B5C SWAP5 SWAP4 SWAP3 SWAP2 SWAP1 PUSH2 0x5925 JUMP JUMPDEST PUSH1 0x0 PUSH1 0x40 MLOAD DUP1 DUP4 SUB DUP2 PUSH1 0x0 DUP8 DUP1 EXTCODESIZE ISZERO DUP1 ISZERO PUSH2 0x2B76 JUMPI PUSH1 0x0 DUP1 REVERT JUMPDEST POP GAS CALL ISZERO DUP1 ISZERO PUSH2 0x2B8A JUMPI RETURNDATASIZE PUSH1 0x0 DUP1 RETURNDATACOPY RETURNDATASIZE PUSH1 0x0 REVERT JUMPDEST POP POP POP POP PUSH1 0x0 DUP11 DUP11 PUSH1 0x3 DUP2 DUP2 LT PUSH2 0x2BA4 JUMPI PUSH2 0x2BA3 PUSH2 0x5D75 JUMP JUMPDEST JUMPDEST SWAP1 POP PUSH1 0x20 MUL ADD PUSH1 0x20 DUP2 ADD SWAP1 PUSH2 0x2BB9 SWAP2 SWAP1 PUSH2 0x47E8 JUMP JUMPDEST PUSH20 0xFFFFFFFFFFFFFFFFFFFFFFFFFFFFFFFFFFFFFFFF AND PUSH4 0x70A08231 ADDRESS PUSH1 0x40 MLOAD DUP3 PUSH4 0xFFFFFFFF AND PUSH1 0xE0 SHL DUP2 MSTORE PUSH1 0x4 ADD PUSH2 0x2BF1 SWAP2 SWAP1 PUSH2 0x52D2 JUMP JUMPDEST PUSH1 0x20 PUSH1 0x40 MLOAD DUP1 DUP4 SUB DUP2 DUP7 DUP1 EXTCODESIZE ISZERO DUP1 ISZERO PUSH2 0x2C09 JUMPI PUSH1 0x0 DUP1 REVERT JUMPDEST POP GAS STATICCALL ISZERO DUP1 ISZERO PUSH2 0x2C1D JUMPI RETURNDATASIZE PUSH1 0x0 DUP1 RETURNDATACOPY RETURNDATASIZE PUSH1 0x0 REVERT JUMPDEST POP POP POP POP PUSH1 0x40 MLOAD RETURNDATASIZE PUSH1 0x1F NOT PUSH1 0x1F DUP3 ADD AND DUP3 ADD DUP1 PUSH1 0x40 MSTORE POP DUP2 ADD SWAP1 PUSH2 0x2C41 SWAP2 SWAP1 PUSH2 0x498A JUMP JUMPDEST SWAP1 POP PUSH32 0x66FF0161865CE411B20FBB12ECEF6D576C0B2397BCE9BC4B834E0A9D969BBF24 DUP8 DUP3 PUSH1 0x40 MLOAD PUSH2 0x2C74 SWAP3 SWAP2 SWAP1 PUSH2 0x58FC JUMP JUMPDEST PUSH1 0x40 MLOAD DUP1 SWAP2 SUB SWAP1 LOG1 POP POP POP POP POP POP POP POP POP POP POP POP POP POP POP POP POP JUMP JUMPDEST PUSH2 0x2C97 PUSH2 0x2F48 JUMP JUMPDEST PUSH20 0xFFFFFFFFFFFFFFFFFFFFFFFFFFFFFFFFFFFFFFFF AND PUSH2 0x2CB5 PUSH2 0x2394 JUMP JUMPDEST PUSH20 0xFFFFFFFFFFFFFFFFFFFFFFFFFFFFFFFFFFFFFFFF AND EQ PUSH2 0x2D0B JUMPI PUSH1 0x40 MLOAD PUSH32 0x8C379A000000000000000000000000000000000000000000000000000000000 DUP2 MSTORE PUSH1 0x4 ADD PUSH2 0x2D02 SWAP1 PUSH2 0x5636 JUMP JUMPDEST PUSH1 0x40 MLOAD DUP1 SWAP2 SUB SWAP1 REVERT JUMPDEST PUSH1 0x0 PUSH20 0xFFFFFFFFFFFFFFFFFFFFFFFFFFFFFFFFFFFFFFFF AND DUP2 PUSH20 0xFFFFFFFFFFFFFFFFFFFFFFFFFFFFFFFFFFFFFFFF AND EQ ISZERO PUSH2 0x2D7B JUMPI PUSH1 0x40 MLOAD PUSH32 0x8C379A000000000000000000000000000000000000000000000000000000000 DUP2 MSTORE PUSH1 0x4 ADD PUSH2 0x2D72 SWAP1 PUSH2 0x5436 JUMP JUMPDEST PUSH1 0x40 MLOAD DUP1 SWAP2 SUB SWAP1 REVERT JUMPDEST PUSH2 0x2D84 DUP2 PUSH2 0x2F50 JUMP JUMPDEST POP JUMP JUMPDEST PUSH2 0x2D8F PUSH2 0x2F48 JUMP JUMPDEST PUSH20 0xFFFFFFFFFFFFFFFFFFFFFFFFFFFFFFFFFFFFFFFF AND PUSH2 0x2DAD PUSH2 0x2394 JUMP JUMPDEST PUSH20 0xFFFFFFFFFFFFFFFFFFFFFFFFFFFFFFFFFFFFFFFF AND EQ PUSH2 0x2E03 JUMPI PUSH1 0x40 MLOAD PUSH32 0x8C379A000000000000000000000000000000000000000000000000000000000 DUP2 MSTORE PUSH1 0x4 ADD PUSH2 0x2DFA SWAP1 PUSH2 0x5636 JUMP JUMPDEST PUSH1 0x40 MLOAD DUP1 SWAP2 SUB SWAP1 REVERT JUMPDEST PUSH1 0x0 PUSH20 0xFFFFFFFFFFFFFFFFFFFFFFFFFFFFFFFFFFFFFFFF AND DUP3 PUSH20 0xFFFFFFFFFFFFFFFFFFFFFFFFFFFFFFFFFFFFFFFF AND EQ ISZERO PUSH2 0x2E73 JUMPI PUSH1 0x40 MLOAD PUSH32 0x8C379A000000000000000000000000000000000000000000000000000000000 DUP2 MSTORE PUSH1 0x4 ADD PUSH2 0x2E6A SWAP1 PUSH2 0x5416 JUMP JUMPDEST PUSH1 0x40 MLOAD DUP1 SWAP2 SUB SWAP1 REVERT JUMPDEST PUSH1 0x0 DUP2 GT PUSH2 0x2EB6 JUMPI PUSH1 0x40 MLOAD PUSH32 0x8C379A000000000000000000000000000000000000000000000000000000000 DUP2 MSTORE PUSH1 0x4 ADD PUSH2 0x2EAD SWAP1 PUSH2 0x5576 JUMP JUMPDEST PUSH1 0x40 MLOAD DUP1 SWAP2 SUB SWAP1 REVERT JUMPDEST DUP2 PUSH20 0xFFFFFFFFFFFFFFFFFFFFFFFFFFFFFFFFFFFFFFFF AND PUSH4 0xA9059CBB CALLER DUP4 PUSH1 0x40 MLOAD DUP4 PUSH4 0xFFFFFFFF AND PUSH1 0xE0 SHL DUP2 MSTORE PUSH1 0x4 ADD PUSH2 0x2EF1 SWAP3 SWAP2 SWAP1 PUSH2 0x5316 JUMP JUMPDEST PUSH1 0x20 PUSH1 0x40 MLOAD DUP1 DUP4 SUB DUP2 PUSH1 0x0 DUP8 DUP1 EXTCODESIZE ISZERO DUP1 ISZERO PUSH2 0x2F0B JUMPI PUSH1 0x0 DUP1 REVERT JUMPDEST POP GAS CALL ISZERO DUP1 ISZERO PUSH2 0x2F1F JUMPI RETURNDATASIZE PUSH1 0x0 DUP1 RETURNDATACOPY RETURNDATASIZE PUSH1 0x0 REVERT JUMPDEST POP POP POP POP PUSH1 0x40 MLOAD RETURNDATASIZE PUSH1 0x1F NOT PUSH1 0x1F DUP3 ADD AND DUP3 ADD DUP1 PUSH1 0x40 MSTORE POP DUP2 ADD SWAP1 PUSH2 0x2F43 SWAP2 SWAP1 PUSH2 0x490A JUMP JUMPDEST POP POP POP JUMP JUMPDEST PUSH1 0x0 CALLER SWAP1 POP SWAP1 JUMP JUMPDEST PUSH1 0x0 DUP1 PUSH1 0x0 SWAP1 SLOAD SWAP1 PUSH2 0x100 EXP SWAP1 DIV PUSH20 0xFFFFFFFFFFFFFFFFFFFFFFFFFFFFFFFFFFFFFFFF AND SWAP1 POP DUP2 PUSH1 0x0 DUP1 PUSH2 0x100 EXP DUP2 SLOAD DUP2 PUSH20 0xFFFFFFFFFFFFFFFFFFFFFFFFFFFFFFFFFFFFFFFF MUL NOT AND SWAP1 DUP4 PUSH20 0xFFFFFFFFFFFFFFFFFFFFFFFFFFFFFFFFFFFFFFFF AND MUL OR SWAP1 SSTORE POP DUP2 PUSH20 0xFFFFFFFFFFFFFFFFFFFFFFFFFFFFFFFFFFFFFFFF AND DUP2 PUSH20 0xFFFFFFFFFFFFFFFFFFFFFFFFFFFFFFFFFFFFFFFF AND PUSH32 0x8BE0079C531659141344CD1FD0A4F28419497F9722A3DAAFE3B4186F6B6457E0 PUSH1 0x40 MLOAD PUSH1 0x40 MLOAD DUP1 SWAP2 SUB SWAP1 LOG3 POP POP JUMP JUMPDEST PUSH1 0x0 PUSH20 0x95C78222B3D6E262426483D42CFA53685A67AB9D PUSH20 0xFFFFFFFFFFFFFFFFFFFFFFFFFFFFFFFFFFFFFFFF AND DUP3 PUSH20 0xFFFFFFFFFFFFFFFFFFFFFFFFFFFFFFFFFFFFFFFF AND EQ DUP1 PUSH2 0x30A3 JUMPI POP PUSH20 0xFD5840CD36D94D7229439859C0112A4185BC0255 PUSH20 0xFFFFFFFFFFFFFFFFFFFFFFFFFFFFFFFFFFFFFFFF AND DUP3 PUSH20 0xFFFFFFFFFFFFFFFFFFFFFFFFFFFFFFFFFFFFFFFF AND EQ JUMPDEST DUP1 PUSH2 0x30ED JUMPI POP PUSH20 0x334B3ECB4DCA3593BCCC3C7EBD1A1C1D1780FBF1 PUSH20 0xFFFFFFFFFFFFFFFFFFFFFFFFFFFFFFFFFFFFFFFF AND DUP3 PUSH20 0xFFFFFFFFFFFFFFFFFFFFFFFFFFFFFFFFFFFFFFFF AND EQ JUMPDEST SWAP1 POP SWAP2 SWAP1 POP JUMP JUMPDEST PUSH1 0x0 DUP1 PUSH1 0x0 DUP6 SWAP1 POP PUSH1 0x0 DUP1 PUSH1 0x0 DUP4 PUSH20 0xFFFFFFFFFFFFFFFFFFFFFFFFFFFFFFFFFFFFFFFF AND PUSH4 0x70A08231 ADDRESS PUSH1 0x40 MLOAD DUP3 PUSH4 0xFFFFFFFF AND PUSH1 0xE0 SHL DUP2 MSTORE PUSH1 0x4 ADD PUSH2 0x313A SWAP2 SWAP1 PUSH2 0x52D2 JUMP JUMPDEST PUSH1 0x20 PUSH1 0x40 MLOAD DUP1 DUP4 SUB DUP2 DUP7 DUP1 EXTCODESIZE ISZERO DUP1 ISZERO PUSH2 0x3152 JUMPI PUSH1 0x0 DUP1 REVERT JUMPDEST POP GAS STATICCALL ISZERO DUP1 ISZERO PUSH2 0x3166 JUMPI RETURNDATASIZE PUSH1 0x0 DUP1 RETURNDATACOPY RETURNDATASIZE PUSH1 0x0 REVERT JUMPDEST POP POP POP POP PUSH1 0x40 MLOAD RETURNDATASIZE PUSH1 0x1F NOT PUSH1 0x1F DUP3 ADD AND DUP3 ADD DUP1 PUSH1 0x40 MSTORE POP DUP2 ADD SWAP1 PUSH2 0x318A SWAP2 SWAP1 PUSH2 0x498A JUMP JUMPDEST SWAP1 POP PUSH2 0x3195 DUP11 PUSH2 0x37BE JUMP JUMPDEST ISZERO PUSH2 0x320D JUMPI DUP10 PUSH20 0xFFFFFFFFFFFFFFFFFFFFFFFFFFFFFFFFFFFFFFFF AND PUSH4 0xAAE40A2A DUP9 DUP11 DUP13 PUSH1 0x40 MLOAD DUP5 PUSH4 0xFFFFFFFF AND PUSH1 0xE0 SHL DUP2 MSTORE PUSH1 0x4 ADD PUSH2 0x31D6 SWAP3 SWAP2 SWAP1 PUSH2 0x52ED JUMP JUMPDEST PUSH1 0x0 PUSH1 0x40 MLOAD DUP1 DUP4 SUB DUP2 DUP6 DUP9 DUP1 EXTCODESIZE ISZERO DUP1 ISZERO PUSH2 0x31EF JUMPI PUSH1 0x0 DUP1 REVERT JUMPDEST POP GAS CALL ISZERO DUP1 ISZERO PUSH2 0x3203 JUMPI RETURNDATASIZE PUSH1 0x0 DUP1 RETURNDATACOPY RETURNDATASIZE PUSH1 0x0 REVERT JUMPDEST POP POP POP POP POP PUSH2 0x33D2 JUMP JUMPDEST PUSH2 0x3216 DUP11 PUSH2 0x3AA4 JUMP JUMPDEST ISZERO PUSH2 0x32F9 JUMPI DUP10 PUSH20 0xFFFFFFFFFFFFFFFFFFFFFFFFFFFFFFFFFFFFFFFF AND PUSH4 0x11B3D5E7 DUP10 DUP10 DUP8 PUSH1 0x40 MLOAD DUP5 PUSH4 0xFFFFFFFF AND PUSH1 0xE0 SHL DUP2 MSTORE PUSH1 0x4 ADD PUSH2 0x3258 SWAP4 SWAP3 SWAP2 SWAP1 PUSH2 0x533F JUMP JUMPDEST PUSH1 0x40 DUP1 MLOAD DUP1 DUP4 SUB DUP2 PUSH1 0x0 DUP8 DUP1 EXTCODESIZE ISZERO DUP1 ISZERO PUSH2 0x3271 JUMPI PUSH1 0x0 DUP1 REVERT JUMPDEST POP GAS CALL ISZERO DUP1 ISZERO PUSH2 0x3285 JUMPI RETURNDATASIZE PUSH1 0x0 DUP1 RETURNDATACOPY RETURNDATASIZE PUSH1 0x0 REVERT JUMPDEST POP POP POP POP PUSH1 0x40 MLOAD RETURNDATASIZE PUSH1 0x1F NOT PUSH1 0x1F DUP3 ADD AND DUP3 ADD DUP1 PUSH1 0x40 MSTORE POP DUP2 ADD SWAP1 PUSH2 0x32A9 SWAP2 SWAP1 PUSH2 0x4B87 JUMP JUMPDEST DUP1 SWAP4 POP DUP2 SWAP5 POP POP POP PUSH1 0x0 DUP4 EQ PUSH2 0x32F4 JUMPI PUSH1 0x40 MLOAD PUSH32 0x8C379A000000000000000000000000000000000000000000000000000000000 DUP2 MSTORE PUSH1 0x4 ADD PUSH2 0x32EB SWAP1 PUSH2 0x55B6 JUMP JUMPDEST PUSH1 0x40 MLOAD DUP1 SWAP2 SUB SWAP1 REVERT JUMPDEST PUSH2 0x33D1 JUMP JUMPDEST PUSH1 0x0 DUP11 SWAP1 POP PUSH1 0x0 DUP2 PUSH20 0xFFFFFFFFFFFFFFFFFFFFFFFFFFFFFFFFFFFFFFFF AND PUSH4 0xF5E3C462 DUP12 DUP12 DUP10 PUSH1 0x40 MLOAD DUP5 PUSH4 0xFFFFFFFF AND PUSH1 0xE0 SHL DUP2 MSTORE PUSH1 0x4 ADD PUSH2 0x333D SWAP4 SWAP3 SWAP2 SWAP1 PUSH2 0x533F JUMP JUMPDEST PUSH1 0x20 PUSH1 0x40 MLOAD DUP1 DUP4 SUB DUP2 PUSH1 0x0 DUP8 DUP1 EXTCODESIZE ISZERO DUP1 ISZERO PUSH2 0x3357 JUMPI PUSH1 0x0 DUP1 REVERT JUMPDEST POP GAS CALL ISZERO DUP1 ISZERO PUSH2 0x336B JUMPI RETURNDATASIZE PUSH1 0x0 DUP1 RETURNDATACOPY RETURNDATASIZE PUSH1 0x0 REVERT JUMPDEST POP POP POP POP PUSH1 0x40 MLOAD RETURNDATASIZE PUSH1 0x1F NOT PUSH1 0x1F DUP3 ADD AND DUP3 ADD DUP1 PUSH1 0x40 MSTORE POP DUP2 ADD SWAP1 PUSH2 0x338F SWAP2 SWAP1 PUSH2 0x498A JUMP JUMPDEST EQ PUSH2 0x33CF JUMPI PUSH1 0x40 MLOAD PUSH32 0x8C379A000000000000000000000000000000000000000000000000000000000 DUP2 MSTORE PUSH1 0x4 ADD PUSH2 0x33C6 SWAP1 PUSH2 0x5456 JUMP JUMPDEST PUSH1 0x40 MLOAD DUP1 SWAP2 SUB SWAP1 REVERT JUMPDEST POP JUMPDEST JUMPDEST PUSH1 0x0 DUP5 PUSH20 0xFFFFFFFFFFFFFFFFFFFFFFFFFFFFFFFFFFFFFFFF AND PUSH4 0x70A08231 ADDRESS PUSH1 0x40 MLOAD DUP3 PUSH4 0xFFFFFFFF AND PUSH1 0xE0 SHL DUP2 MSTORE PUSH1 0x4 ADD PUSH2 0x340D SWAP2 SWAP1 PUSH2 0x52D2 JUMP JUMPDEST PUSH1 0x20 PUSH1 0x40 MLOAD DUP1 DUP4 SUB DUP2 DUP7 DUP1 EXTCODESIZE ISZERO DUP1 ISZERO PUSH2 0x3425 JUMPI PUSH1 0x0 DUP1 REVERT JUMPDEST POP GAS STATICCALL ISZERO DUP1 ISZERO PUSH2 0x3439 JUMPI RETURNDATASIZE PUSH1 0x0 DUP1 RETURNDATACOPY RETURNDATASIZE PUSH1 0x0 REVERT JUMPDEST POP POP POP POP PUSH1 0x40 MLOAD RETURNDATASIZE PUSH1 0x1F NOT PUSH1 0x1F DUP3 ADD AND DUP3 ADD DUP1 PUSH1 0x40 MSTORE POP DUP2 ADD SWAP1 PUSH2 0x345D SWAP2 SWAP1 PUSH2 0x498A JUMP JUMPDEST SWAP1 POP PUSH1 0x0 DUP3 DUP3 PUSH2 0x346D SWAP2 SWAP1 PUSH2 0x5B1A JUMP JUMPDEST SWAP1 POP PUSH1 0x0 DUP2 GT PUSH2 0x34B2 JUMPI PUSH1 0x40 MLOAD PUSH32 0x8C379A000000000000000000000000000000000000000000000000000000000 DUP2 MSTORE PUSH1 0x4 ADD PUSH2 0x34A9 SWAP1 PUSH2 0x5536 JUMP JUMPDEST PUSH1 0x40 MLOAD DUP1 SWAP2 SUB SWAP1 REVERT JUMPDEST DUP1 DUP5 SWAP8 POP SWAP8 POP POP POP POP POP POP POP SWAP5 POP SWAP5 SWAP3 POP POP POP JUMP JUMPDEST PUSH1 0x0 DUP1 PUSH1 0x0 DUP1 PUSH2 0x34D6 DUP8 PUSH2 0x37BE JUMP JUMPDEST ISZERO PUSH2 0x35B3 JUMPI SELFBALANCE SWAP3 POP PUSH1 0x0 DUP8 PUSH20 0xFFFFFFFFFFFFFFFFFFFFFFFFFFFFFFFFFFFFFFFF AND PUSH4 0xDB006A75 DUP8 PUSH1 0x40 MLOAD DUP3 PUSH4 0xFFFFFFFF AND PUSH1 0xE0 SHL DUP2 MSTORE PUSH1 0x4 ADD PUSH2 0x3519 SWAP2 SWAP1 PUSH2 0x57F6 JUMP JUMPDEST PUSH1 0x20 PUSH1 0x40 MLOAD DUP1 DUP4 SUB DUP2 PUSH1 0x0 DUP8 DUP1 EXTCODESIZE ISZERO DUP1 ISZERO PUSH2 0x3533 JUMPI PUSH1 0x0 DUP1 REVERT JUMPDEST POP GAS CALL ISZERO DUP1 ISZERO PUSH2 0x3547 JUMPI RETURNDATASIZE PUSH1 0x0 DUP1 RETURNDATACOPY RETURNDATASIZE PUSH1 0x0 REVERT JUMPDEST POP POP POP POP PUSH1 0x40 MLOAD RETURNDATASIZE PUSH1 0x1F NOT PUSH1 0x1F DUP3 ADD AND DUP3 ADD DUP1 PUSH1 0x40 MSTORE POP DUP2 ADD SWAP1 PUSH2 0x356B SWAP2 SWAP1 PUSH2 0x498A JUMP JUMPDEST EQ PUSH2 0x35AB JUMPI PUSH1 0x40 MLOAD PUSH32 0x8C379A000000000000000000000000000000000000000000000000000000000 DUP2 MSTORE PUSH1 0x4 ADD PUSH2 0x35A2 SWAP1 PUSH2 0x5756 JUMP JUMPDEST PUSH1 0x40 MLOAD DUP1 SWAP2 SUB SWAP1 REVERT JUMPDEST SELFBALANCE SWAP2 POP PUSH2 0x37A3 JUMP JUMPDEST PUSH1 0x0 DUP8 SWAP1 POP PUSH1 0x0 DUP8 SWAP1 POP DUP1 PUSH20 0xFFFFFFFFFFFFFFFFFFFFFFFFFFFFFFFFFFFFFFFF AND PUSH4 0x70A08231 ADDRESS PUSH1 0x40 MLOAD DUP3 PUSH4 0xFFFFFFFF AND PUSH1 0xE0 SHL DUP2 MSTORE PUSH1 0x4 ADD PUSH2 0x35F6 SWAP2 SWAP1 PUSH2 0x52D2 JUMP JUMPDEST PUSH1 0x20 PUSH1 0x40 MLOAD DUP1 DUP4 SUB DUP2 DUP7 DUP1 EXTCODESIZE ISZERO DUP1 ISZERO PUSH2 0x360E JUMPI PUSH1 0x0 DUP1 REVERT JUMPDEST POP GAS STATICCALL ISZERO DUP1 ISZERO PUSH2 0x3622 JUMPI RETURNDATASIZE PUSH1 0x0 DUP1 RETURNDATACOPY RETURNDATASIZE PUSH1 0x0 REVERT JUMPDEST POP POP POP POP PUSH1 0x40 MLOAD RETURNDATASIZE PUSH1 0x1F NOT PUSH1 0x1F DUP3 ADD AND DUP3 ADD DUP1 PUSH1 0x40 MSTORE POP DUP2 ADD SWAP1 PUSH2 0x3646 SWAP2 SWAP1 PUSH2 0x498A JUMP JUMPDEST SWAP5 POP PUSH1 0x0 DUP3 PUSH20 0xFFFFFFFFFFFFFFFFFFFFFFFFFFFFFFFFFFFFFFFF AND PUSH4 0xDB006A75 DUP10 PUSH1 0x40 MLOAD DUP3 PUSH4 0xFFFFFFFF AND PUSH1 0xE0 SHL DUP2 MSTORE PUSH1 0x4 ADD PUSH2 0x3683 SWAP2 SWAP1 PUSH2 0x57F6 JUMP JUMPDEST PUSH1 0x20 PUSH1 0x40 MLOAD DUP1 DUP4 SUB DUP2 PUSH1 0x0 DUP8 DUP1 EXTCODESIZE ISZERO DUP1 ISZERO PUSH2 0x369D JUMPI PUSH1 0x0 DUP1 REVERT JUMPDEST POP GAS CALL ISZERO DUP1 ISZERO PUSH2 0x36B1 JUMPI RETURNDATASIZE PUSH1 0x0 DUP1 RETURNDATACOPY RETURNDATASIZE PUSH1 0x0 REVERT JUMPDEST POP POP POP POP PUSH1 0x40 MLOAD RETURNDATASIZE PUSH1 0x1F NOT PUSH1 0x1F DUP3 ADD AND DUP3 ADD DUP1 PUSH1 0x40 MSTORE POP DUP2 ADD SWAP1 PUSH2 0x36D5 SWAP2 SWAP1 PUSH2 0x498A JUMP JUMPDEST EQ PUSH2 0x3715 JUMPI PUSH1 0x40 MLOAD PUSH32 0x8C379A000000000000000000000000000000000000000000000000000000000 DUP2 MSTORE PUSH1 0x4 ADD PUSH2 0x370C SWAP1 PUSH2 0x57D6 JUMP JUMPDEST PUSH1 0x40 MLOAD DUP1 SWAP2 SUB SWAP1 REVERT JUMPDEST DUP1 PUSH20 0xFFFFFFFFFFFFFFFFFFFFFFFFFFFFFFFFFFFFFFFF AND PUSH4 0x70A08231 ADDRESS PUSH1 0x40 MLOAD DUP3 PUSH4 0xFFFFFFFF AND PUSH1 0xE0 SHL DUP2 MSTORE PUSH1 0x4 ADD PUSH2 0x374E SWAP2 SWAP1 PUSH2 0x52D2 JUMP JUMPDEST PUSH1 0x20 PUSH1 0x40 MLOAD DUP1 DUP4 SUB DUP2 DUP7 DUP1 EXTCODESIZE ISZERO DUP1 ISZERO PUSH2 0x3766 JUMPI PUSH1 0x0 DUP1 REVERT JUMPDEST POP GAS STATICCALL ISZERO DUP1 ISZERO PUSH2 0x377A JUMPI RETURNDATASIZE PUSH1 0x0 DUP1 RETURNDATACOPY RETURNDATASIZE PUSH1 0x0 REVERT JUMPDEST POP POP POP POP PUSH1 0x40 MLOAD RETURNDATASIZE PUSH1 0x1F NOT PUSH1 0x1F DUP3 ADD AND DUP3 ADD DUP1 PUSH1 0x40 MSTORE POP DUP2 ADD SWAP1 PUSH2 0x379E SWAP2 SWAP1 PUSH2 0x498A JUMP JUMPDEST SWAP4 POP POP POP JUMPDEST DUP3 DUP3 PUSH2 0x37AF SWAP2 SWAP1 PUSH2 0x5B1A JUMP JUMPDEST SWAP1 POP DUP1 SWAP4 POP POP POP POP SWAP4 SWAP3 POP POP POP JUMP JUMPDEST PUSH1 0x0 PUSH20 0xA07C5B74C9B40447A954E1466938B865B6BBEA36 PUSH20 0xFFFFFFFFFFFFFFFFFFFFFFFFFFFFFFFFFFFFFFFF AND DUP3 PUSH20 0xFFFFFFFFFFFFFFFFFFFFFFFFFFFFFFFFFFFFFFFF AND EQ SWAP1 POP SWAP2 SWAP1 POP JUMP JUMPDEST PUSH1 0x60 PUSH2 0x382B PUSH20 0xCA143CE32FE78F1F7019D7D551A6402FC5350C73 DUP6 DUP6 PUSH2 0x3AF0 JUMP JUMPDEST SWAP1 POP DUP3 PUSH1 0x0 DUP2 MLOAD DUP2 LT PUSH2 0x3841 JUMPI PUSH2 0x3840 PUSH2 0x5D75 JUMP JUMPDEST JUMPDEST PUSH1 0x20 MUL PUSH1 0x20 ADD ADD MLOAD PUSH20 0xFFFFFFFFFFFFFFFFFFFFFFFFFFFFFFFFFFFFFFFF AND PUSH4 0xA9059CBB PUSH2 0x38B9 PUSH20 0xCA143CE32FE78F1F7019D7D551A6402FC5350C73 DUP7 PUSH1 0x0 DUP2 MLOAD DUP2 LT PUSH2 0x3890 JUMPI PUSH2 0x388F PUSH2 0x5D75 JUMP JUMPDEST JUMPDEST PUSH1 0x20 MUL PUSH1 0x20 ADD ADD MLOAD DUP8 PUSH1 0x1 DUP2 MLOAD DUP2 LT PUSH2 0x38AC JUMPI PUSH2 0x38AB PUSH2 0x5D75 JUMP JUMPDEST JUMPDEST PUSH1 0x20 MUL PUSH1 0x20 ADD ADD MLOAD PUSH2 0x3C7B JUMP JUMPDEST DUP4 PUSH1 0x0 DUP2 MLOAD DUP2 LT PUSH2 0x38CD JUMPI PUSH2 0x38CC PUSH2 0x5D75 JUMP JUMPDEST JUMPDEST PUSH1 0x20 MUL PUSH1 0x20 ADD ADD MLOAD PUSH1 0x40 MLOAD DUP4 PUSH4 0xFFFFFFFF AND PUSH1 0xE0 SHL DUP2 MSTORE PUSH1 0x4 ADD PUSH2 0x38F2 SWAP3 SWAP2 SWAP1 PUSH2 0x5316 JUMP JUMPDEST PUSH1 0x20 PUSH1 0x40 MLOAD DUP1 DUP4 SUB DUP2 PUSH1 0x0 DUP8 DUP1 EXTCODESIZE ISZERO DUP1 ISZERO PUSH2 0x390C JUMPI PUSH1 0x0 DUP1 REVERT JUMPDEST POP GAS CALL ISZERO DUP1 ISZERO PUSH2 0x3920 JUMPI RETURNDATASIZE PUSH1 0x0 DUP1 RETURNDATACOPY RETURNDATASIZE PUSH1 0x0 REVERT JUMPDEST POP POP POP POP PUSH1 0x40 MLOAD RETURNDATASIZE PUSH1 0x1F NOT PUSH1 0x1F DUP3 ADD AND DUP3 ADD DUP1 PUSH1 0x40 MSTORE POP DUP2 ADD SWAP1 PUSH2 0x3944 SWAP2 SWAP1 PUSH2 0x490A JUMP JUMPDEST POP PUSH2 0x3950 DUP2 DUP5 DUP5 PUSH2 0x3CED JUMP JUMPDEST SWAP4 SWAP3 POP POP POP JUMP JUMPDEST PUSH1 0x60 PUSH2 0x3978 PUSH20 0xCA143CE32FE78F1F7019D7D551A6402FC5350C73 DUP6 DUP6 PUSH2 0x3F2E JUMP JUMPDEST SWAP1 POP DUP3 PUSH1 0x0 DUP2 MLOAD DUP2 LT PUSH2 0x398E JUMPI PUSH2 0x398D PUSH2 0x5D75 JUMP JUMPDEST JUMPDEST PUSH1 0x20 MUL PUSH1 0x20 ADD ADD MLOAD PUSH20 0xFFFFFFFFFFFFFFFFFFFFFFFFFFFFFFFFFFFFFFFF AND PUSH4 0xA9059CBB PUSH2 0x3A06 PUSH20 0xCA143CE32FE78F1F7019D7D551A6402FC5350C73 DUP7 PUSH1 0x0 DUP2 MLOAD DUP2 LT PUSH2 0x39DD JUMPI PUSH2 0x39DC PUSH2 0x5D75 JUMP JUMPDEST JUMPDEST PUSH1 0x20 MUL PUSH1 0x20 ADD ADD MLOAD DUP8 PUSH1 0x1 DUP2 MLOAD DUP2 LT PUSH2 0x39F9 JUMPI PUSH2 0x39F8 PUSH2 0x5D75 JUMP JUMPDEST JUMPDEST PUSH1 0x20 MUL PUSH1 0x20 ADD ADD MLOAD PUSH2 0x3C7B JUMP JUMPDEST DUP4 PUSH1 0x0 DUP2 MLOAD DUP2 LT PUSH2 0x3A1A JUMPI PUSH2 0x3A19 PUSH2 0x5D75 JUMP JUMPDEST JUMPDEST PUSH1 0x20 MUL PUSH1 0x20 ADD ADD MLOAD PUSH1 0x40 MLOAD DUP4 PUSH4 0xFFFFFFFF AND PUSH1 0xE0 SHL DUP2 MSTORE PUSH1 0x4 ADD PUSH2 0x3A3F SWAP3 SWAP2 SWAP1 PUSH2 0x5316 JUMP JUMPDEST PUSH1 0x20 PUSH1 0x40 MLOAD DUP1 DUP4 SUB DUP2 PUSH1 0x0 DUP8 DUP1 EXTCODESIZE ISZERO DUP1 ISZERO PUSH2 0x3A59 JUMPI PUSH1 0x0 DUP1 REVERT JUMPDEST POP GAS CALL ISZERO DUP1 ISZERO PUSH2 0x3A6D JUMPI RETURNDATASIZE PUSH1 0x0 DUP1 RETURNDATACOPY RETURNDATASIZE PUSH1 0x0 REVERT JUMPDEST POP POP POP POP PUSH1 0x40 MLOAD RETURNDATASIZE PUSH1 0x1F NOT PUSH1 0x1F DUP3 ADD AND DUP3 ADD DUP1 PUSH1 0x40 MSTORE POP DUP2 ADD SWAP1 PUSH2 0x3A91 SWAP2 SWAP1 PUSH2 0x490A JUMP JUMPDEST POP PUSH2 0x3A9D DUP2 DUP5 DUP5 PUSH2 0x3CED JUMP JUMPDEST SWAP4 SWAP3 POP POP POP JUMP JUMPDEST PUSH1 0x0 PUSH20 0x4BD17003473389A42DAF6A0A729F6FDB328BBBD7 PUSH20 0xFFFFFFFFFFFFFFFFFFFFFFFFFFFFFFFFFFFFFFFF AND DUP3 PUSH20 0xFFFFFFFFFFFFFFFFFFFFFFFFFFFFFFFFFFFFFFFF AND EQ SWAP1 POP SWAP2 SWAP1 POP JUMP JUMPDEST PUSH1 0x60 PUSH1 0x2 DUP3 MLOAD LT ISZERO PUSH2 0x3B37 JUMPI PUSH1 0x40 MLOAD PUSH32 0x8C379A000000000000000000000000000000000000000000000000000000000 DUP2 MSTORE PUSH1 0x4 ADD PUSH2 0x3B2E SWAP1 PUSH2 0x5476 JUMP JUMPDEST PUSH1 0x40 MLOAD DUP1 SWAP2 SUB SWAP1 REVERT JUMPDEST DUP2 MLOAD PUSH8 0xFFFFFFFFFFFFFFFF DUP2 GT ISZERO PUSH2 0x3B52 JUMPI PUSH2 0x3B51 PUSH2 0x5DA4 JUMP JUMPDEST JUMPDEST PUSH1 0x40 MLOAD SWAP1 DUP1 DUP3 MSTORE DUP1 PUSH1 0x20 MUL PUSH1 0x20 ADD DUP3 ADD PUSH1 0x40 MSTORE DUP1 ISZERO PUSH2 0x3B80 JUMPI DUP2 PUSH1 0x20 ADD PUSH1 0x20 DUP3 MUL DUP1 CALLDATASIZE DUP4 CALLDATACOPY DUP1 DUP3 ADD SWAP2 POP POP SWAP1 POP JUMPDEST POP SWAP1 POP DUP3 DUP2 PUSH1 0x0 DUP2 MLOAD DUP2 LT PUSH2 0x3B98 JUMPI PUSH2 0x3B97 PUSH2 0x5D75 JUMP JUMPDEST JUMPDEST PUSH1 0x20 MUL PUSH1 0x20 ADD ADD DUP2 DUP2 MSTORE POP POP PUSH1 0x0 JUMPDEST PUSH1 0x1 DUP4 MLOAD PUSH2 0x3BB5 SWAP2 SWAP1 PUSH2 0x5B1A JUMP JUMPDEST DUP2 LT ISZERO PUSH2 0x3C73 JUMPI PUSH1 0x0 DUP1 PUSH2 0x3C0A DUP8 DUP7 DUP6 DUP2 MLOAD DUP2 LT PUSH2 0x3BD6 JUMPI PUSH2 0x3BD5 PUSH2 0x5D75 JUMP JUMPDEST JUMPDEST PUSH1 0x20 MUL PUSH1 0x20 ADD ADD MLOAD DUP8 PUSH1 0x1 DUP8 PUSH2 0x3BEC SWAP2 SWAP1 PUSH2 0x5A39 JUMP JUMPDEST DUP2 MLOAD DUP2 LT PUSH2 0x3BFD JUMPI PUSH2 0x3BFC PUSH2 0x5D75 JUMP JUMPDEST JUMPDEST PUSH1 0x20 MUL PUSH1 0x20 ADD ADD MLOAD PUSH2 0x40C9 JUMP JUMPDEST SWAP2 POP SWAP2 POP PUSH2 0x3C33 DUP5 DUP5 DUP2 MLOAD DUP2 LT PUSH2 0x3C24 JUMPI PUSH2 0x3C23 PUSH2 0x5D75 JUMP JUMPDEST JUMPDEST PUSH1 0x20 MUL PUSH1 0x20 ADD ADD MLOAD DUP4 DUP4 PUSH2 0x41E7 JUMP JUMPDEST DUP5 PUSH1 0x1 DUP6 PUSH2 0x3C41 SWAP2 SWAP1 PUSH2 0x5A39 JUMP JUMPDEST DUP2 MLOAD DUP2 LT PUSH2 0x3C52 JUMPI PUSH2 0x3C51 PUSH2 0x5D75 JUMP JUMPDEST JUMPDEST PUSH1 0x20 MUL PUSH1 0x20 ADD ADD DUP2 DUP2 MSTORE POP POP POP POP DUP1 DUP1 PUSH2 0x3C6B SWAP1 PUSH2 0x5CA0 JUMP JUMPDEST SWAP2 POP POP PUSH2 0x3BA7 JUMP JUMPDEST POP SWAP4 SWAP3 POP POP POP JUMP JUMPDEST PUSH1 0x0 DUP1 PUSH1 0x0 PUSH2 0x3C8A DUP6 DUP6 PUSH2 0x42ED JUMP JUMPDEST SWAP2 POP SWAP2 POP DUP6 DUP3 DUP3 PUSH1 0x40 MLOAD PUSH1 0x20 ADD PUSH2 0x3CA2 SWAP3 SWAP2 SWAP1 PUSH2 0x5264 JUMP JUMPDEST PUSH1 0x40 MLOAD PUSH1 0x20 DUP2 DUP4 SUB SUB DUP2 MSTORE SWAP1 PUSH1 0x40 MSTORE DUP1 MLOAD SWAP1 PUSH1 0x20 ADD KECCAK256 PUSH1 0x40 MLOAD PUSH1 0x20 ADD PUSH2 0x3CC9 SWAP3 SWAP2 SWAP1 PUSH2 0x5290 JUMP JUMPDEST PUSH1 0x40 MLOAD PUSH1 0x20 DUP2 DUP4 SUB SUB DUP2 MSTORE SWAP1 PUSH1 0x40 MSTORE DUP1 MLOAD SWAP1 PUSH1 0x20 ADD KECCAK256 PUSH1 0x0 SHR SWAP3 POP POP POP SWAP4 SWAP3 POP POP POP JUMP JUMPDEST PUSH1 0x0 JUMPDEST PUSH1 0x1 DUP4 MLOAD PUSH2 0x3CFE SWAP2 SWAP1 PUSH2 0x5B1A JUMP JUMPDEST DUP2 LT ISZERO PUSH2 0x3F28 JUMPI PUSH1 0x0 DUP1 DUP5 DUP4 DUP2 MLOAD DUP2 LT PUSH2 0x3D1B JUMPI PUSH2 0x3D1A PUSH2 0x5D75 JUMP JUMPDEST JUMPDEST PUSH1 0x20 MUL PUSH1 0x20 ADD ADD MLOAD DUP6 PUSH1 0x1 DUP6 PUSH2 0x3D31 SWAP2 SWAP1 PUSH2 0x5A39 JUMP JUMPDEST DUP2 MLOAD DUP2 LT PUSH2 0x3D42 JUMPI PUSH2 0x3D41 PUSH2 0x5D75 JUMP JUMPDEST JUMPDEST PUSH1 0x20 MUL PUSH1 0x20 ADD ADD MLOAD SWAP2 POP SWAP2 POP PUSH1 0x0 PUSH2 0x3D5A DUP4 DUP4 PUSH2 0x42ED JUMP JUMPDEST POP SWAP1 POP PUSH1 0x0 DUP8 PUSH1 0x1 DUP7 PUSH2 0x3D6D SWAP2 SWAP1 PUSH2 0x5A39 JUMP JUMPDEST DUP2 MLOAD DUP2 LT PUSH2 0x3D7E JUMPI PUSH2 0x3D7D PUSH2 0x5D75 JUMP JUMPDEST JUMPDEST PUSH1 0x20 MUL PUSH1 0x20 ADD ADD MLOAD SWAP1 POP PUSH1 0x0 DUP1 DUP4 PUSH20 0xFFFFFFFFFFFFFFFFFFFFFFFFFFFFFFFFFFFFFFFF AND DUP7 PUSH20 0xFFFFFFFFFFFFFFFFFFFFFFFFFFFFFFFFFFFFFFFF AND EQ PUSH2 0x3DC6 JUMPI DUP3 PUSH1 0x0 PUSH2 0x3DCA JUMP JUMPDEST PUSH1 0x0 DUP4 JUMPDEST SWAP2 POP SWAP2 POP PUSH1 0x0 PUSH1 0x2 DUP11 MLOAD PUSH2 0x3DDE SWAP2 SWAP1 PUSH2 0x5B1A JUMP JUMPDEST DUP9 LT PUSH2 0x3DEA JUMPI DUP9 PUSH2 0x3E30 JUMP JUMPDEST PUSH2 0x3E2F PUSH20 0xCA143CE32FE78F1F7019D7D551A6402FC5350C73 DUP8 DUP13 PUSH1 0x2 DUP13 PUSH2 0x3E11 SWAP2 SWAP1 PUSH2 0x5A39 JUMP JUMPDEST DUP2 MLOAD DUP2 LT PUSH2 0x3E22 JUMPI PUSH2 0x3E21 PUSH2 0x5D75 JUMP JUMPDEST JUMPDEST PUSH1 0x20 MUL PUSH1 0x20 ADD ADD MLOAD PUSH2 0x3C7B JUMP JUMPDEST JUMPDEST SWAP1 POP PUSH2 0x3E51 PUSH20 0xCA143CE32FE78F1F7019D7D551A6402FC5350C73 DUP9 DUP9 PUSH2 0x3C7B JUMP JUMPDEST PUSH20 0xFFFFFFFFFFFFFFFFFFFFFFFFFFFFFFFFFFFFFFFF AND PUSH4 0x22C0D9F DUP5 DUP5 DUP5 PUSH1 0x0 PUSH8 0xFFFFFFFFFFFFFFFF DUP2 GT ISZERO PUSH2 0x3E8A JUMPI PUSH2 0x3E89 PUSH2 0x5DA4 JUMP JUMPDEST JUMPDEST PUSH1 0x40 MLOAD SWAP1 DUP1 DUP3 MSTORE DUP1 PUSH1 0x1F ADD PUSH1 0x1F NOT AND PUSH1 0x20 ADD DUP3 ADD PUSH1 0x40 MSTORE DUP1 ISZERO PUSH2 0x3EBC JUMPI DUP2 PUSH1 0x20 ADD PUSH1 0x1 DUP3 MUL DUP1 CALLDATASIZE DUP4 CALLDATACOPY DUP1 DUP3 ADD SWAP2 POP POP SWAP1 POP JUMPDEST POP PUSH1 0x40 MLOAD DUP6 PUSH4 0xFFFFFFFF AND PUSH1 0xE0 SHL DUP2 MSTORE PUSH1 0x4 ADD PUSH2 0x3EDC SWAP5 SWAP4 SWAP3 SWAP2 SWAP1 PUSH2 0x5925 JUMP JUMPDEST PUSH1 0x0 PUSH1 0x40 MLOAD DUP1 DUP4 SUB DUP2 PUSH1 0x0 DUP8 DUP1 EXTCODESIZE ISZERO DUP1 ISZERO PUSH2 0x3EF6 JUMPI PUSH1 0x0 DUP1 REVERT JUMPDEST POP GAS CALL ISZERO DUP1 ISZERO PUSH2 0x3F0A JUMPI RETURNDATASIZE PUSH1 0x0 DUP1 RETURNDATACOPY RETURNDATASIZE PUSH1 0x0 REVERT JUMPDEST POP POP POP POP POP POP POP POP POP POP POP DUP1 DUP1 PUSH2 0x3F20 SWAP1 PUSH2 0x5CA0 JUMP JUMPDEST SWAP2 POP POP PUSH2 0x3CF0 JUMP JUMPDEST POP POP POP POP JUMP JUMPDEST PUSH1 0x60 PUSH1 0x2 DUP3 MLOAD LT ISZERO PUSH2 0x3F75 JUMPI PUSH1 0x40 MLOAD PUSH32 0x8C379A000000000000000000000000000000000000000000000000000000000 DUP2 MSTORE PUSH1 0x4 ADD PUSH2 0x3F6C SWAP1 PUSH2 0x5476 JUMP JUMPDEST PUSH1 0x40 MLOAD DUP1 SWAP2 SUB SWAP1 REVERT JUMPDEST DUP2 MLOAD PUSH8 0xFFFFFFFFFFFFFFFF DUP2 GT ISZERO PUSH2 0x3F90 JUMPI PUSH2 0x3F8F PUSH2 0x5DA4 JUMP JUMPDEST JUMPDEST PUSH1 0x40 MLOAD SWAP1 DUP1 DUP3 MSTORE DUP1 PUSH1 0x20 MUL PUSH1 0x20 ADD DUP3 ADD PUSH1 0x40 MSTORE DUP1 ISZERO PUSH2 0x3FBE JUMPI DUP2 PUSH1 0x20 ADD PUSH1 0x20 DUP3 MUL DUP1 CALLDATASIZE DUP4 CALLDATACOPY DUP1 DUP3 ADD SWAP2 POP POP SWAP1 POP JUMPDEST POP SWAP1 POP DUP3 DUP2 PUSH1 0x1 DUP4 MLOAD PUSH2 0x3FD1 SWAP2 SWAP1 PUSH2 0x5B1A JUMP JUMPDEST DUP2 MLOAD DUP2 LT PUSH2 0x3FE2 JUMPI PUSH2 0x3FE1 PUSH2 0x5D75 JUMP JUMPDEST JUMPDEST PUSH1 0x20 MUL PUSH1 0x20 ADD ADD DUP2 DUP2 MSTORE POP POP PUSH1 0x0 PUSH1 0x1 DUP4 MLOAD PUSH2 0x3FFE SWAP2 SWAP1 PUSH2 0x5B1A JUMP JUMPDEST SWAP1 POP JUMPDEST PUSH1 0x0 DUP2 GT ISZERO PUSH2 0x40C1 JUMPI PUSH1 0x0 DUP1 PUSH2 0x4058 DUP8 DUP7 PUSH1 0x1 DUP7 PUSH2 0x401F SWAP2 SWAP1 PUSH2 0x5B1A JUMP JUMPDEST DUP2 MLOAD DUP2 LT PUSH2 0x4030 JUMPI PUSH2 0x402F PUSH2 0x5D75 JUMP JUMPDEST JUMPDEST PUSH1 0x20 MUL PUSH1 0x20 ADD ADD MLOAD DUP8 DUP7 DUP2 MLOAD DUP2 LT PUSH2 0x404B JUMPI PUSH2 0x404A PUSH2 0x5D75 JUMP JUMPDEST JUMPDEST PUSH1 0x20 MUL PUSH1 0x20 ADD ADD MLOAD PUSH2 0x40C9 JUMP JUMPDEST SWAP2 POP SWAP2 POP PUSH2 0x4081 DUP5 DUP5 DUP2 MLOAD DUP2 LT PUSH2 0x4072 JUMPI PUSH2 0x4071 PUSH2 0x5D75 JUMP JUMPDEST JUMPDEST PUSH1 0x20 MUL PUSH1 0x20 ADD ADD MLOAD DUP4 DUP4 PUSH2 0x441B JUMP JUMPDEST DUP5 PUSH1 0x1 DUP6 PUSH2 0x408F SWAP2 SWAP1 PUSH2 0x5B1A JUMP JUMPDEST DUP2 MLOAD DUP2 LT PUSH2 0x40A0 JUMPI PUSH2 0x409F PUSH2 0x5D75 JUMP JUMPDEST JUMPDEST PUSH1 0x20 MUL PUSH1 0x20 ADD ADD DUP2 DUP2 MSTORE POP POP POP POP DUP1 DUP1 PUSH2 0x40B9 SWAP1 PUSH2 0x5C45 JUMP JUMPDEST SWAP2 POP POP PUSH2 0x4001 JUMP JUMPDEST POP SWAP4 SWAP3 POP POP POP JUMP JUMPDEST PUSH1 0x0 DUP1 PUSH1 0x0 PUSH2 0x40D8 DUP6 DUP6 PUSH2 0x42ED JUMP JUMPDEST POP SWAP1 POP PUSH2 0x40E6 DUP7 DUP7 DUP7 PUSH2 0x3C7B JUMP JUMPDEST POP PUSH1 0x0 DUP1 PUSH2 0x40F5 DUP9 DUP9 DUP9 PUSH2 0x3C7B JUMP JUMPDEST PUSH20 0xFFFFFFFFFFFFFFFFFFFFFFFFFFFFFFFFFFFFFFFF AND PUSH4 0x902F1AC PUSH1 0x40 MLOAD DUP2 PUSH4 0xFFFFFFFF AND PUSH1 0xE0 SHL DUP2 MSTORE PUSH1 0x4 ADD PUSH1 0x60 PUSH1 0x40 MLOAD DUP1 DUP4 SUB DUP2 DUP7 DUP1 EXTCODESIZE ISZERO DUP1 ISZERO PUSH2 0x413A JUMPI PUSH1 0x0 DUP1 REVERT JUMPDEST POP GAS STATICCALL ISZERO DUP1 ISZERO PUSH2 0x414E JUMPI RETURNDATASIZE PUSH1 0x0 DUP1 RETURNDATACOPY RETURNDATASIZE PUSH1 0x0 REVERT JUMPDEST POP POP POP POP PUSH1 0x40 MLOAD RETURNDATASIZE PUSH1 0x1F NOT PUSH1 0x1F DUP3 ADD AND DUP3 ADD DUP1 PUSH1 0x40 MSTORE POP DUP2 ADD SWAP1 PUSH2 0x4172 SWAP2 SWAP1 PUSH2 0x4937 JUMP JUMPDEST POP PUSH14 0xFFFFFFFFFFFFFFFFFFFFFFFFFFFF AND SWAP2 POP PUSH14 0xFFFFFFFFFFFFFFFFFFFFFFFFFFFF AND SWAP2 POP DUP3 PUSH20 0xFFFFFFFFFFFFFFFFFFFFFFFFFFFFFFFFFFFFFFFF AND DUP8 PUSH20 0xFFFFFFFFFFFFFFFFFFFFFFFFFFFFFFFFFFFFFFFF AND EQ PUSH2 0x41D1 JUMPI DUP1 DUP3 PUSH2 0x41D4 JUMP JUMPDEST DUP2 DUP2 JUMPDEST DUP1 SWAP6 POP DUP2 SWAP7 POP POP POP POP POP POP SWAP4 POP SWAP4 SWAP2 POP POP JUMP JUMPDEST PUSH1 0x0 DUP1 DUP5 GT PUSH2 0x422B JUMPI PUSH1 0x40 MLOAD PUSH32 0x8C379A000000000000000000000000000000000000000000000000000000000 DUP2 MSTORE PUSH1 0x4 ADD PUSH2 0x4222 SWAP1 PUSH2 0x53D6 JUMP JUMPDEST PUSH1 0x40 MLOAD DUP1 SWAP2 SUB SWAP1 REVERT JUMPDEST PUSH1 0x0 DUP4 GT DUP1 ISZERO PUSH2 0x423B JUMPI POP PUSH1 0x0 DUP3 GT JUMPDEST PUSH2 0x427A JUMPI PUSH1 0x40 MLOAD PUSH32 0x8C379A000000000000000000000000000000000000000000000000000000000 DUP2 MSTORE PUSH1 0x4 ADD PUSH2 0x4271 SWAP1 PUSH2 0x5796 JUMP JUMPDEST PUSH1 0x40 MLOAD DUP1 SWAP2 SUB SWAP1 REVERT JUMPDEST PUSH1 0x0 PUSH2 0x4291 PUSH2 0x26F7 DUP7 PUSH2 0x452E SWAP1 SWAP2 SWAP1 PUSH4 0xFFFFFFFF AND JUMP JUMPDEST SWAP1 POP PUSH1 0x0 PUSH2 0x42A8 DUP5 DUP4 PUSH2 0x452E SWAP1 SWAP2 SWAP1 PUSH4 0xFFFFFFFF AND JUMP JUMPDEST SWAP1 POP PUSH1 0x0 PUSH2 0x42D3 DUP4 PUSH2 0x42C5 PUSH2 0x2710 DUP10 PUSH2 0x452E SWAP1 SWAP2 SWAP1 PUSH4 0xFFFFFFFF AND JUMP JUMPDEST PUSH2 0x4544 SWAP1 SWAP2 SWAP1 PUSH4 0xFFFFFFFF AND JUMP JUMPDEST SWAP1 POP DUP1 DUP3 PUSH2 0x42E1 SWAP2 SWAP1 PUSH2 0x5A8F JUMP JUMPDEST SWAP4 POP POP POP POP SWAP4 SWAP3 POP POP POP JUMP JUMPDEST PUSH1 0x0 DUP1 DUP3 PUSH20 0xFFFFFFFFFFFFFFFFFFFFFFFFFFFFFFFFFFFFFFFF AND DUP5 PUSH20 0xFFFFFFFFFFFFFFFFFFFFFFFFFFFFFFFFFFFFFFFF AND EQ ISZERO PUSH2 0x435F JUMPI PUSH1 0x40 MLOAD PUSH32 0x8C379A000000000000000000000000000000000000000000000000000000000 DUP2 MSTORE PUSH1 0x4 ADD PUSH2 0x4356 SWAP1 PUSH2 0x5596 JUMP JUMPDEST PUSH1 0x40 MLOAD DUP1 SWAP2 SUB SWAP1 REVERT JUMPDEST DUP3 PUSH20 0xFFFFFFFFFFFFFFFFFFFFFFFFFFFFFFFFFFFFFFFF AND DUP5 PUSH20 0xFFFFFFFFFFFFFFFFFFFFFFFFFFFFFFFFFFFFFFFF AND LT PUSH2 0x4399 JUMPI DUP3 DUP5 PUSH2 0x439C JUMP JUMPDEST DUP4 DUP4 JUMPDEST DUP1 SWAP3 POP DUP2 SWAP4 POP POP POP PUSH1 0x0 PUSH20 0xFFFFFFFFFFFFFFFFFFFFFFFFFFFFFFFFFFFFFFFF AND DUP3 PUSH20 0xFFFFFFFFFFFFFFFFFFFFFFFFFFFFFFFFFFFFFFFF AND EQ ISZERO PUSH2 0x4414 JUMPI PUSH1 0x40 MLOAD PUSH32 0x8C379A000000000000000000000000000000000000000000000000000000000 DUP2 MSTORE PUSH1 0x4 ADD PUSH2 0x440B SWAP1 PUSH2 0x56D6 JUMP JUMPDEST PUSH1 0x40 MLOAD DUP1 SWAP2 SUB SWAP1 REVERT JUMPDEST SWAP3 POP SWAP3 SWAP1 POP JUMP JUMPDEST PUSH1 0x0 DUP1 DUP5 GT PUSH2 0x445F JUMPI PUSH1 0x40 MLOAD PUSH32 0x8C379A000000000000000000000000000000000000000000000000000000000 DUP2 MSTORE PUSH1 0x4 ADD PUSH2 0x4456 SWAP1 PUSH2 0x5496 JUMP JUMPDEST PUSH1 0x40 MLOAD DUP1 SWAP2 SUB SWAP1 REVERT JUMPDEST PUSH1 0x0 DUP4 GT DUP1 ISZERO PUSH2 0x446F JUMPI POP PUSH1 0x0 DUP3 GT JUMPDEST PUSH2 0x44AE JUMPI PUSH1 0x40 MLOAD PUSH32 0x8C379A000000000000000000000000000000000000000000000000000000000 DUP2 MSTORE PUSH1 0x4 ADD PUSH2 0x44A5 SWAP1 PUSH2 0x5796 JUMP JUMPDEST PUSH1 0x40 MLOAD DUP1 SWAP2 SUB SWAP1 REVERT JUMPDEST PUSH1 0x0 PUSH2 0x44D7 PUSH2 0x2710 PUSH2 0x44C9 DUP8 DUP8 PUSH2 0x452E SWAP1 SWAP2 SWAP1 PUSH4 0xFFFFFFFF AND JUMP JUMPDEST PUSH2 0x452E SWAP1 SWAP2 SWAP1 PUSH4 0xFFFFFFFF AND JUMP JUMPDEST SWAP1 POP PUSH1 0x0 PUSH2 0x4502 PUSH2 0x26F7 PUSH2 0x44F4 DUP9 DUP8 PUSH2 0x455A SWAP1 SWAP2 SWAP1 PUSH4 0xFFFFFFFF AND JUMP JUMPDEST PUSH2 0x452E SWAP1 SWAP2 SWAP1 PUSH4 0xFFFFFFFF AND JUMP JUMPDEST SWAP1 POP PUSH2 0x4523 PUSH1 0x1 DUP3 DUP5 PUSH2 0x4515 SWAP2 SWAP1 PUSH2 0x5A8F JUMP JUMPDEST PUSH2 0x4544 SWAP1 SWAP2 SWAP1 PUSH4 0xFFFFFFFF AND JUMP JUMPDEST SWAP3 POP POP POP SWAP4 SWAP3 POP POP POP JUMP JUMPDEST PUSH1 0x0 DUP2 DUP4 PUSH2 0x453C SWAP2 SWAP1 PUSH2 0x5AC0 JUMP JUMPDEST SWAP1 POP SWAP3 SWAP2 POP POP JUMP JUMPDEST PUSH1 0x0 DUP2 DUP4 PUSH2 0x4552 SWAP2 SWAP1 PUSH2 0x5A39 JUMP JUMPDEST SWAP1 POP SWAP3 SWAP2 POP POP JUMP JUMPDEST PUSH1 0x0 DUP2 DUP4 PUSH2 0x4568 SWAP2 SWAP1 PUSH2 0x5B1A JUMP JUMPDEST SWAP1 POP SWAP3 SWAP2 POP POP JUMP JUMPDEST PUSH1 0x40 MLOAD DUP1 PUSH2 0x160 ADD PUSH1 0x40 MSTORE DUP1 PUSH1 0x0 DUP2 MSTORE PUSH1 0x20 ADD PUSH1 0x0 PUSH20 0xFFFFFFFFFFFFFFFFFFFFFFFFFFFFFFFFFFFFFFFF AND DUP2 MSTORE PUSH1 0x20 ADD PUSH1 0x60 DUP2 MSTORE PUSH1 0x20 ADD PUSH1 0x60 DUP2 MSTORE PUSH1 0x20 ADD PUSH1 0x60 DUP2 MSTORE PUSH1 0x20 ADD PUSH1 0x0 DUP2 MSTORE PUSH1 0x20 ADD PUSH1 0x0 DUP2 MSTORE PUSH1 0x20 ADD PUSH1 0x0 PUSH20 0xFFFFFFFFFFFFFFFFFFFFFFFFFFFFFFFFFFFFFFFF AND DUP2 MSTORE PUSH1 0x20 ADD PUSH1 0x0 DUP2 MSTORE PUSH1 0x20 ADD PUSH1 0x0 DUP2 MSTORE PUSH1 0x20 ADD PUSH1 0x0 DUP2 MSTORE POP SWAP1 JUMP JUMPDEST PUSH1 0x0 PUSH2 0x4609 PUSH2 0x4604 DUP5 PUSH2 0x5996 JUMP JUMPDEST PUSH2 0x5971 JUMP JUMPDEST SWAP1 POP DUP1 DUP4 DUP3 MSTORE PUSH1 0x20 DUP3 ADD SWAP1 POP DUP3 DUP6 PUSH1 0x20 DUP7 MUL DUP3 ADD GT ISZERO PUSH2 0x462C JUMPI PUSH2 0x462B PUSH2 0x5DDD JUMP JUMPDEST JUMPDEST PUSH1 0x0 JUMPDEST DUP6 DUP2 LT ISZERO PUSH2 0x465C JUMPI DUP2 PUSH2 0x4642 DUP9 DUP3 PUSH2 0x4666 JUMP JUMPDEST DUP5 MSTORE PUSH1 0x20 DUP5 ADD SWAP4 POP PUSH1 0x20 DUP4 ADD SWAP3 POP POP PUSH1 0x1 DUP2 ADD SWAP1 POP PUSH2 0x462F JUMP JUMPDEST POP POP POP SWAP4 SWAP3 POP POP POP JUMP JUMPDEST PUSH1 0x0 DUP2 CALLDATALOAD SWAP1 POP PUSH2 0x4675 DUP2 PUSH2 0x6529 JUMP JUMPDEST SWAP3 SWAP2 POP POP JUMP JUMPDEST PUSH1 0x0 DUP2 MLOAD SWAP1 POP PUSH2 0x468A DUP2 PUSH2 0x6529 JUMP JUMPDEST SWAP3 SWAP2 POP POP JUMP JUMPDEST PUSH1 0x0 DUP2 CALLDATALOAD SWAP1 POP PUSH2 0x469F DUP2 PUSH2 0x6540 JUMP JUMPDEST SWAP3 SWAP2 POP POP JUMP JUMPDEST PUSH1 0x0 DUP1 DUP4 PUSH1 0x1F DUP5 ADD SLT PUSH2 0x46BB JUMPI PUSH2 0x46BA PUSH2 0x5DD8 JUMP JUMPDEST JUMPDEST DUP3 CALLDATALOAD SWAP1 POP PUSH8 0xFFFFFFFFFFFFFFFF DUP2 GT ISZERO PUSH2 0x46D8 JUMPI PUSH2 0x46D7 PUSH2 0x5DD3 JUMP JUMPDEST JUMPDEST PUSH1 0x20 DUP4 ADD SWAP2 POP DUP4 PUSH1 0x20 DUP3 MUL DUP4 ADD GT ISZERO PUSH2 0x46F4 JUMPI PUSH2 0x46F3 PUSH2 0x5DDD JUMP JUMPDEST JUMPDEST SWAP3 POP SWAP3 SWAP1 POP JUMP JUMPDEST PUSH1 0x0 DUP3 PUSH1 0x1F DUP4 ADD SLT PUSH2 0x4710 JUMPI PUSH2 0x470F PUSH2 0x5DD8 JUMP JUMPDEST JUMPDEST DUP2 CALLDATALOAD PUSH2 0x4720 DUP5 DUP3 PUSH1 0x20 DUP7 ADD PUSH2 0x45F6 JUMP JUMPDEST SWAP2 POP POP SWAP3 SWAP2 POP POP JUMP JUMPDEST PUSH1 0x0 DUP2 MLOAD SWAP1 POP PUSH2 0x4738 DUP2 PUSH2 0x6557 JUMP JUMPDEST SWAP3 SWAP2 POP POP JUMP JUMPDEST PUSH1 0x0 DUP1 DUP4 PUSH1 0x1F DUP5 ADD SLT PUSH2 0x4754 JUMPI PUSH2 0x4753 PUSH2 0x5DD8 JUMP JUMPDEST JUMPDEST DUP3 CALLDATALOAD SWAP1 POP PUSH8 0xFFFFFFFFFFFFFFFF DUP2 GT ISZERO PUSH2 0x4771 JUMPI PUSH2 0x4770 PUSH2 0x5DD3 JUMP JUMPDEST JUMPDEST PUSH1 0x20 DUP4 ADD SWAP2 POP DUP4 PUSH1 0x1 DUP3 MUL DUP4 ADD GT ISZERO PUSH2 0x478D JUMPI PUSH2 0x478C PUSH2 0x5DDD JUMP JUMPDEST JUMPDEST SWAP3 POP SWAP3 SWAP1 POP JUMP JUMPDEST PUSH1 0x0 DUP2 MLOAD SWAP1 POP PUSH2 0x47A3 DUP2 PUSH2 0x656E JUMP JUMPDEST SWAP3 SWAP2 POP POP JUMP JUMPDEST PUSH1 0x0 DUP2 CALLDATALOAD SWAP1 POP PUSH2 0x47B8 DUP2 PUSH2 0x6585 JUMP JUMPDEST SWAP3 SWAP2 POP POP JUMP JUMPDEST PUSH1 0x0 DUP2 MLOAD SWAP1 POP PUSH2 0x47CD DUP2 PUSH2 0x6585 JUMP JUMPDEST SWAP3 SWAP2 POP POP JUMP JUMPDEST PUSH1 0x0 DUP2 MLOAD SWAP1 POP PUSH2 0x47E2 DUP2 PUSH2 0x659C JUMP JUMPDEST SWAP3 SWAP2 POP POP JUMP JUMPDEST PUSH1 0x0 PUSH1 0x20 DUP3 DUP5 SUB SLT ISZERO PUSH2 0x47FE JUMPI PUSH2 0x47FD PUSH2 0x5DE7 JUMP JUMPDEST JUMPDEST PUSH1 0x0 PUSH2 0x480C DUP5 DUP3 DUP6 ADD PUSH2 0x4666 JUMP JUMPDEST SWAP2 POP POP SWAP3 SWAP2 POP POP JUMP JUMPDEST PUSH1 0x0 PUSH1 0x20 DUP3 DUP5 SUB SLT ISZERO PUSH2 0x482B JUMPI PUSH2 0x482A PUSH2 0x5DE7 JUMP JUMPDEST JUMPDEST PUSH1 0x0 PUSH2 0x4839 DUP5 DUP3 DUP6 ADD PUSH2 0x467B JUMP JUMPDEST SWAP2 POP POP SWAP3 SWAP2 POP POP JUMP JUMPDEST PUSH1 0x0 DUP1 PUSH1 0x40 DUP4 DUP6 SUB SLT ISZERO PUSH2 0x4859 JUMPI PUSH2 0x4858 PUSH2 0x5DE7 JUMP JUMPDEST JUMPDEST PUSH1 0x0 PUSH2 0x4867 DUP6 DUP3 DUP7 ADD PUSH2 0x4666 JUMP JUMPDEST SWAP3 POP POP PUSH1 0x20 PUSH2 0x4878 DUP6 DUP3 DUP7 ADD PUSH2 0x47A9 JUMP JUMPDEST SWAP2 POP POP SWAP3 POP SWAP3 SWAP1 POP JUMP JUMPDEST PUSH1 0x0 DUP1 PUSH1 0x0 DUP1 PUSH1 0x0 PUSH1 0x80 DUP7 DUP9 SUB SLT ISZERO PUSH2 0x489E JUMPI PUSH2 0x489D PUSH2 0x5DE7 JUMP JUMPDEST JUMPDEST PUSH1 0x0 PUSH2 0x48AC DUP9 DUP3 DUP10 ADD PUSH2 0x4666 JUMP JUMPDEST SWAP6 POP POP PUSH1 0x20 PUSH2 0x48BD DUP9 DUP3 DUP10 ADD PUSH2 0x47A9 JUMP JUMPDEST SWAP5 POP POP PUSH1 0x40 PUSH2 0x48CE DUP9 DUP3 DUP10 ADD PUSH2 0x47A9 JUMP JUMPDEST SWAP4 POP POP PUSH1 0x60 DUP7 ADD CALLDATALOAD PUSH8 0xFFFFFFFFFFFFFFFF DUP2 GT ISZERO PUSH2 0x48EF JUMPI PUSH2 0x48EE PUSH2 0x5DE2 JUMP JUMPDEST JUMPDEST PUSH2 0x48FB DUP9 DUP3 DUP10 ADD PUSH2 0x473E JUMP JUMPDEST SWAP3 POP SWAP3 POP POP SWAP3 SWAP6 POP SWAP3 SWAP6 SWAP1 SWAP4 POP JUMP JUMPDEST PUSH1 0x0 PUSH1 0x20 DUP3 DUP5 SUB SLT ISZERO PUSH2 0x4920 JUMPI PUSH2 0x491F PUSH2 0x5DE7 JUMP JUMPDEST JUMPDEST PUSH1 0x0 PUSH2 0x492E DUP5 DUP3 DUP6 ADD PUSH2 0x4729 JUMP JUMPDEST SWAP2 POP POP SWAP3 SWAP2 POP POP JUMP JUMPDEST PUSH1 0x0 DUP1 PUSH1 0x0 PUSH1 0x60 DUP5 DUP7 SUB SLT ISZERO PUSH2 0x4950 JUMPI PUSH2 0x494F PUSH2 0x5DE7 JUMP JUMPDEST JUMPDEST PUSH1 0x0 PUSH2 0x495E DUP7 DUP3 DUP8 ADD PUSH2 0x4794 JUMP JUMPDEST SWAP4 POP POP PUSH1 0x20 PUSH2 0x496F DUP7 DUP3 DUP8 ADD PUSH2 0x4794 JUMP JUMPDEST SWAP3 POP POP PUSH1 0x40 PUSH2 0x4980 DUP7 DUP3 DUP8 ADD PUSH2 0x47D3 JUMP JUMPDEST SWAP2 POP POP SWAP3 POP SWAP3 POP SWAP3 JUMP JUMPDEST PUSH1 0x0 PUSH1 0x20 DUP3 DUP5 SUB SLT ISZERO PUSH2 0x49A0 JUMPI PUSH2 0x499F PUSH2 0x5DE7 JUMP JUMPDEST JUMPDEST PUSH1 0x0 PUSH2 0x49AE DUP5 DUP3 DUP6 ADD PUSH2 0x47BE JUMP JUMPDEST SWAP2 POP POP SWAP3 SWAP2 POP POP JUMP JUMPDEST PUSH1 0x0 DUP1 PUSH1 0x0 DUP1 PUSH1 0x0 DUP1 PUSH1 0xC0 DUP8 DUP10 SUB SLT ISZERO PUSH2 0x49D4 JUMPI PUSH2 0x49D3 PUSH2 0x5DE7 JUMP JUMPDEST JUMPDEST PUSH1 0x0 PUSH2 0x49E2 DUP10 DUP3 DUP11 ADD PUSH2 0x47A9 JUMP JUMPDEST SWAP7 POP POP PUSH1 0x20 PUSH2 0x49F3 DUP10 DUP3 DUP11 ADD PUSH2 0x4690 JUMP JUMPDEST SWAP6 POP POP PUSH1 0x40 DUP8 ADD CALLDATALOAD PUSH8 0xFFFFFFFFFFFFFFFF DUP2 GT ISZERO PUSH2 0x4A14 JUMPI PUSH2 0x4A13 PUSH2 0x5DE2 JUMP JUMPDEST JUMPDEST PUSH2 0x4A20 DUP10 DUP3 DUP11 ADD PUSH2 0x46FB JUMP JUMPDEST SWAP5 POP POP PUSH1 0x60 DUP8 ADD CALLDATALOAD PUSH8 0xFFFFFFFFFFFFFFFF DUP2 GT ISZERO PUSH2 0x4A41 JUMPI PUSH2 0x4A40 PUSH2 0x5DE2 JUMP JUMPDEST JUMPDEST PUSH2 0x4A4D DUP10 DUP3 DUP11 ADD PUSH2 0x46FB JUMP JUMPDEST SWAP4 POP POP PUSH1 0x80 DUP8 ADD CALLDATALOAD PUSH8 0xFFFFFFFFFFFFFFFF DUP2 GT ISZERO PUSH2 0x4A6E JUMPI PUSH2 0x4A6D PUSH2 0x5DE2 JUMP JUMPDEST JUMPDEST PUSH2 0x4A7A DUP10 DUP3 DUP11 ADD PUSH2 0x46FB JUMP JUMPDEST SWAP3 POP POP PUSH1 0xA0 PUSH2 0x4A8B DUP10 DUP3 DUP11 ADD PUSH2 0x47A9 JUMP JUMPDEST SWAP2 POP POP SWAP3 SWAP6 POP SWAP3 SWAP6 POP SWAP3 SWAP6 JUMP JUMPDEST PUSH1 0x0 DUP1 PUSH1 0x0 DUP1 PUSH1 0x0 DUP1 PUSH1 0x0 DUP1 PUSH1 0x0 PUSH1 0xC0 DUP11 DUP13 SUB SLT ISZERO PUSH2 0x4ABA JUMPI PUSH2 0x4AB9 PUSH2 0x5DE7 JUMP JUMPDEST JUMPDEST PUSH1 0x0 PUSH2 0x4AC8 DUP13 DUP3 DUP14 ADD PUSH2 0x47A9 JUMP JUMPDEST SWAP10 POP POP PUSH1 0x20 PUSH2 0x4AD9 DUP13 DUP3 DUP14 ADD PUSH2 0x4666 JUMP JUMPDEST SWAP9 POP POP PUSH1 0x40 DUP11 ADD CALLDATALOAD PUSH8 0xFFFFFFFFFFFFFFFF DUP2 GT ISZERO PUSH2 0x4AFA JUMPI PUSH2 0x4AF9 PUSH2 0x5DE2 JUMP JUMPDEST JUMPDEST PUSH2 0x4B06 DUP13 DUP3 DUP14 ADD PUSH2 0x46A5 JUMP JUMPDEST SWAP8 POP SWAP8 POP POP PUSH1 0x60 DUP11 ADD CALLDATALOAD PUSH8 0xFFFFFFFFFFFFFFFF DUP2 GT ISZERO PUSH2 0x4B29 JUMPI PUSH2 0x4B28 PUSH2 0x5DE2 JUMP JUMPDEST JUMPDEST PUSH2 0x4B35 DUP13 DUP3 DUP14 ADD PUSH2 0x46A5 JUMP JUMPDEST SWAP6 POP SWAP6 POP POP PUSH1 0x80 DUP11 ADD CALLDATALOAD PUSH8 0xFFFFFFFFFFFFFFFF DUP2 GT ISZERO PUSH2 0x4B58 JUMPI PUSH2 0x4B57 PUSH2 0x5DE2 JUMP JUMPDEST JUMPDEST PUSH2 0x4B64 DUP13 DUP3 DUP14 ADD PUSH2 0x46A5 JUMP JUMPDEST SWAP4 POP SWAP4 POP POP PUSH1 0xA0 PUSH2 0x4B77 DUP13 DUP3 DUP14 ADD PUSH2 0x47A9 JUMP JUMPDEST SWAP2 POP POP SWAP3 SWAP6 SWAP9 POP SWAP3 SWAP6 SWAP9 POP SWAP3 SWAP6 SWAP9 JUMP JUMPDEST PUSH1 0x0 DUP1 PUSH1 0x40 DUP4 DUP6 SUB SLT ISZERO PUSH2 0x4B9E JUMPI PUSH2 0x4B9D PUSH2 0x5DE7 JUMP JUMPDEST JUMPDEST PUSH1 0x0 PUSH2 0x4BAC DUP6 DUP3 DUP7 ADD PUSH2 0x47BE JUMP JUMPDEST SWAP3 POP POP PUSH1 0x20 PUSH2 0x4BBD DUP6 DUP3 DUP7 ADD PUSH2 0x47BE JUMP JUMPDEST SWAP2 POP POP SWAP3 POP SWAP3 SWAP1 POP JUMP JUMPDEST PUSH1 0x0 DUP1 PUSH1 0x0 PUSH1 0x60 DUP5 DUP7 SUB SLT ISZERO PUSH2 0x4BE0 JUMPI PUSH2 0x4BDF PUSH2 0x5DE7 JUMP JUMPDEST JUMPDEST PUSH1 0x0 PUSH2 0x4BEE DUP7 DUP3 DUP8 ADD PUSH2 0x47BE JUMP JUMPDEST SWAP4 POP POP PUSH1 0x20 PUSH2 0x4BFF DUP7 DUP3 DUP8 ADD PUSH2 0x47BE JUMP JUMPDEST SWAP3 POP POP PUSH1 0x40 PUSH2 0x4C10 DUP7 DUP3 DUP8 ADD PUSH2 0x47BE JUMP JUMPDEST SWAP2 POP POP SWAP3 POP SWAP3 POP SWAP3 JUMP JUMPDEST PUSH1 0x0 PUSH2 0x4C26 DUP4 DUP4 PUSH2 0x4C32 JUMP JUMPDEST PUSH1 0x20 DUP4 ADD SWAP1 POP SWAP3 SWAP2 POP POP JUMP JUMPDEST PUSH2 0x4C3B DUP2 PUSH2 0x5B4E JUMP JUMPDEST DUP3 MSTORE POP POP JUMP JUMPDEST PUSH2 0x4C4A DUP2 PUSH2 0x5B4E JUMP JUMPDEST DUP3 MSTORE POP POP JUMP JUMPDEST PUSH2 0x4C61 PUSH2 0x4C5C DUP3 PUSH2 0x5B4E JUMP JUMPDEST PUSH2 0x5CE9 JUMP JUMPDEST DUP3 MSTORE POP POP JUMP JUMPDEST PUSH1 0x0 PUSH2 0x4C73 DUP4 DUP6 PUSH2 0x59E4 JUMP JUMPDEST SWAP4 POP PUSH2 0x4C7E DUP3 PUSH2 0x59C2 JUMP JUMPDEST DUP1 PUSH1 0x0 JUMPDEST DUP6 DUP2 LT ISZERO PUSH2 0x4CB7 JUMPI PUSH2 0x4C94 DUP3 DUP5 PUSH2 0x5A22 JUMP JUMPDEST PUSH2 0x4C9E DUP9 DUP3 PUSH2 0x4C1A JUMP JUMPDEST SWAP8 POP PUSH2 0x4CA9 DUP4 PUSH2 0x59D7 JUMP JUMPDEST SWAP3 POP POP PUSH1 0x1 DUP2 ADD SWAP1 POP PUSH2 0x4C82 JUMP JUMPDEST POP DUP6 SWAP3 POP POP POP SWAP4 SWAP3 POP POP POP JUMP JUMPDEST PUSH2 0x4CD5 PUSH2 0x4CD0 DUP3 PUSH2 0x5B7E JUMP JUMPDEST PUSH2 0x5CFB JUMP JUMPDEST DUP3 MSTORE POP POP JUMP JUMPDEST PUSH1 0x0 PUSH2 0x4CE6 DUP3 PUSH2 0x59CC JUMP JUMPDEST PUSH2 0x4CF0 DUP2 DUP6 PUSH2 0x59F5 JUMP JUMPDEST SWAP4 POP PUSH2 0x4D00 DUP2 DUP6 PUSH1 0x20 DUP7 ADD PUSH2 0x5C12 JUMP JUMPDEST PUSH2 0x4D09 DUP2 PUSH2 0x5DEC JUMP JUMPDEST DUP5 ADD SWAP2 POP POP SWAP3 SWAP2 POP POP JUMP JUMPDEST PUSH2 0x4D1D DUP2 PUSH2 0x5BDC JUMP JUMPDEST DUP3 MSTORE POP POP JUMP JUMPDEST PUSH1 0x0 PUSH2 0x4D30 PUSH1 0xC DUP4 PUSH2 0x5A06 JUMP JUMPDEST SWAP2 POP PUSH2 0x4D3B DUP3 PUSH2 0x5E0A JUMP JUMPDEST PUSH1 0x20 DUP3 ADD SWAP1 POP SWAP2 SWAP1 POP JUMP JUMPDEST PUSH1 0x0 PUSH2 0x4D53 PUSH1 0xC DUP4 PUSH2 0x5A06 JUMP JUMPDEST SWAP2 POP PUSH2 0x4D5E DUP3 PUSH2 0x5E33 JUMP JUMPDEST PUSH1 0x20 DUP3 ADD SWAP1 POP SWAP2 SWAP1 POP JUMP JUMPDEST PUSH1 0x0 PUSH2 0x4D76 PUSH1 0x20 DUP4 PUSH2 0x5A06 JUMP JUMPDEST SWAP2 POP PUSH2 0x4D81 DUP3 PUSH2 0x5E5C JUMP JUMPDEST PUSH1 0x20 DUP3 ADD SWAP1 POP SWAP2 SWAP1 POP JUMP JUMPDEST PUSH1 0x0 PUSH2 0x4D99 PUSH1 0x29 DUP4 PUSH2 0x5A06 JUMP JUMPDEST SWAP2 POP PUSH2 0x4DA4 DUP3 PUSH2 0x5E85 JUMP JUMPDEST PUSH1 0x40 DUP3 ADD SWAP1 POP SWAP2 SWAP1 POP JUMP JUMPDEST PUSH1 0x0 PUSH2 0x4DBC PUSH1 0xC DUP4 PUSH2 0x5A06 JUMP JUMPDEST SWAP2 POP PUSH2 0x4DC7 DUP3 PUSH2 0x5ED4 JUMP JUMPDEST PUSH1 0x20 DUP3 ADD SWAP1 POP SWAP2 SWAP1 POP JUMP JUMPDEST PUSH1 0x0 PUSH2 0x4DDF PUSH1 0x18 DUP4 PUSH2 0x5A06 JUMP JUMPDEST SWAP2 POP PUSH2 0x4DEA DUP3 PUSH2 0x5EFD JUMP JUMPDEST PUSH1 0x20 DUP3 ADD SWAP1 POP SWAP2 SWAP1 POP JUMP JUMPDEST PUSH1 0x0 PUSH2 0x4E02 PUSH1 0x26 DUP4 PUSH2 0x5A06 JUMP JUMPDEST SWAP2 POP PUSH2 0x4E0D DUP3 PUSH2 0x5F26 JUMP JUMPDEST PUSH1 0x40 DUP3 ADD SWAP1 POP SWAP2 SWAP1 POP JUMP JUMPDEST PUSH1 0x0 PUSH2 0x4E25 PUSH1 0x16 DUP4 PUSH2 0x5A06 JUMP JUMPDEST SWAP2 POP PUSH2 0x4E30 DUP3 PUSH2 0x5F75 JUMP JUMPDEST PUSH1 0x20 DUP3 ADD SWAP1 POP SWAP2 SWAP1 POP JUMP JUMPDEST PUSH1 0x0 PUSH2 0x4E48 PUSH1 0x1C DUP4 PUSH2 0x5A06 JUMP JUMPDEST SWAP2 POP PUSH2 0x4E53 DUP3 PUSH2 0x5F9E JUMP JUMPDEST PUSH1 0x20 DUP3 ADD SWAP1 POP SWAP2 SWAP1 POP JUMP JUMPDEST PUSH1 0x0 PUSH2 0x4E6B PUSH1 0x2A DUP4 PUSH2 0x5A06 JUMP JUMPDEST SWAP2 POP PUSH2 0x4E76 DUP3 PUSH2 0x5FC7 JUMP JUMPDEST PUSH1 0x40 DUP3 ADD SWAP1 POP SWAP2 SWAP1 POP JUMP JUMPDEST PUSH1 0x0 PUSH2 0x4E8E PUSH1 0x8 DUP4 PUSH2 0x5A06 JUMP JUMPDEST SWAP2 POP PUSH2 0x4E99 DUP3 PUSH2 0x6016 JUMP JUMPDEST PUSH1 0x20 DUP3 ADD SWAP1 POP SWAP2 SWAP1 POP JUMP JUMPDEST PUSH1 0x0 PUSH2 0x4EB1 PUSH1 0x9 DUP4 PUSH2 0x5A06 JUMP JUMPDEST SWAP2 POP PUSH2 0x4EBC DUP3 PUSH2 0x603F JUMP JUMPDEST PUSH1 0x20 DUP3 ADD SWAP1 POP SWAP2 SWAP1 POP JUMP JUMPDEST PUSH1 0x0 PUSH2 0x4ED4 PUSH1 0x1F DUP4 PUSH2 0x5A06 JUMP JUMPDEST SWAP2 POP PUSH2 0x4EDF DUP3 PUSH2 0x6068 JUMP JUMPDEST PUSH1 0x20 DUP3 ADD SWAP1 POP SWAP2 SWAP1 POP JUMP JUMPDEST PUSH1 0x0 PUSH2 0x4EF7 PUSH1 0x21 DUP4 PUSH2 0x5A06 JUMP JUMPDEST SWAP2 POP PUSH2 0x4F02 DUP3 PUSH2 0x6091 JUMP JUMPDEST PUSH1 0x40 DUP3 ADD SWAP1 POP SWAP2 SWAP1 POP JUMP JUMPDEST PUSH1 0x0 PUSH2 0x4F1A PUSH1 0x1C DUP4 PUSH2 0x5A06 JUMP JUMPDEST SWAP2 POP PUSH2 0x4F25 DUP3 PUSH2 0x60E0 JUMP JUMPDEST PUSH1 0x20 DUP3 ADD SWAP1 POP SWAP2 SWAP1 POP JUMP JUMPDEST PUSH1 0x0 PUSH2 0x4F3D PUSH1 0xC DUP4 PUSH2 0x5A06 JUMP JUMPDEST SWAP2 POP PUSH2 0x4F48 DUP3 PUSH2 0x6109 JUMP JUMPDEST PUSH1 0x20 DUP3 ADD SWAP1 POP SWAP2 SWAP1 POP JUMP JUMPDEST PUSH1 0x0 PUSH2 0x4F60 PUSH1 0x1C DUP4 PUSH2 0x5A06 JUMP JUMPDEST SWAP2 POP PUSH2 0x4F6B DUP3 PUSH2 0x6132 JUMP JUMPDEST PUSH1 0x20 DUP3 ADD SWAP1 POP SWAP2 SWAP1 POP JUMP JUMPDEST PUSH1 0x0 PUSH2 0x4F83 PUSH1 0x23 DUP4 PUSH2 0x5A06 JUMP JUMPDEST SWAP2 POP PUSH2 0x4F8E DUP3 PUSH2 0x615B JUMP JUMPDEST PUSH1 0x40 DUP3 ADD SWAP1 POP SWAP2 SWAP1 POP JUMP JUMPDEST PUSH1 0x0 PUSH2 0x4FA6 PUSH1 0x15 DUP4 PUSH2 0x5A06 JUMP JUMPDEST SWAP2 POP PUSH2 0x4FB1 DUP3 PUSH2 0x61AA JUMP JUMPDEST PUSH1 0x20 DUP3 ADD SWAP1 POP SWAP2 SWAP1 POP JUMP JUMPDEST PUSH1 0x0 PUSH2 0x4FC9 PUSH1 0xC DUP4 PUSH2 0x5A06 JUMP JUMPDEST SWAP2 POP PUSH2 0x4FD4 DUP3 PUSH2 0x61D3 JUMP JUMPDEST PUSH1 0x20 DUP3 ADD SWAP1 POP SWAP2 SWAP1 POP JUMP JUMPDEST PUSH1 0x0 PUSH2 0x4FEC PUSH1 0x5 DUP4 PUSH2 0x5A06 JUMP JUMPDEST SWAP2 POP PUSH2 0x4FF7 DUP3 PUSH2 0x61FC JUMP JUMPDEST PUSH1 0x20 DUP3 ADD SWAP1 POP SWAP2 SWAP1 POP JUMP JUMPDEST PUSH1 0x0 PUSH2 0x500F PUSH1 0xC DUP4 PUSH2 0x5A06 JUMP JUMPDEST SWAP2 POP PUSH2 0x501A DUP3 PUSH2 0x6225 JUMP JUMPDEST PUSH1 0x20 DUP3 ADD SWAP1 POP SWAP2 SWAP1 POP JUMP JUMPDEST PUSH1 0x0 PUSH2 0x5032 PUSH1 0x1 DUP4 PUSH2 0x5A17 JUMP JUMPDEST SWAP2 POP PUSH2 0x503D DUP3 PUSH2 0x624E JUMP JUMPDEST PUSH1 0x1 DUP3 ADD SWAP1 POP SWAP2 SWAP1 POP JUMP JUMPDEST PUSH1 0x0 PUSH2 0x5055 PUSH1 0x20 DUP4 PUSH2 0x5A06 JUMP JUMPDEST SWAP2 POP PUSH2 0x5060 DUP3 PUSH2 0x6277 JUMP JUMPDEST PUSH1 0x20 DUP3 ADD SWAP1 POP SWAP2 SWAP1 POP JUMP JUMPDEST PUSH1 0x0 PUSH2 0x5078 PUSH1 0xC DUP4 PUSH2 0x5A06 JUMP JUMPDEST SWAP2 POP PUSH2 0x5083 DUP3 PUSH2 0x62A0 JUMP JUMPDEST PUSH1 0x20 DUP3 ADD SWAP1 POP SWAP2 SWAP1 POP JUMP JUMPDEST PUSH1 0x0 PUSH2 0x509B PUSH1 0x20 DUP4 PUSH2 0x5A17 JUMP JUMPDEST SWAP2 POP PUSH2 0x50A6 DUP3 PUSH2 0x62C9 JUMP JUMPDEST PUSH1 0x20 DUP3 ADD SWAP1 POP SWAP2 SWAP1 POP JUMP JUMPDEST PUSH1 0x0 PUSH2 0x50BE PUSH1 0x21 DUP4 PUSH2 0x5A06 JUMP JUMPDEST SWAP2 POP PUSH2 0x50C9 DUP3 PUSH2 0x62F1 JUMP JUMPDEST PUSH1 0x40 DUP3 ADD SWAP1 POP SWAP2 SWAP1 POP JUMP JUMPDEST PUSH1 0x0 PUSH2 0x50E1 PUSH1 0x11 DUP4 PUSH2 0x5A06 JUMP JUMPDEST SWAP2 POP PUSH2 0x50EC DUP3 PUSH2 0x6340 JUMP JUMPDEST PUSH1 0x20 DUP3 ADD SWAP1 POP SWAP2 SWAP1 POP JUMP JUMPDEST PUSH1 0x0 PUSH2 0x5104 PUSH1 0x7 DUP4 PUSH2 0x5A06 JUMP JUMPDEST SWAP2 POP PUSH2 0x510F DUP3 PUSH2 0x6369 JUMP JUMPDEST PUSH1 0x20 DUP3 ADD SWAP1 POP SWAP2 SWAP1 POP JUMP JUMPDEST PUSH1 0x0 PUSH2 0x5127 PUSH1 0x1C DUP4 PUSH2 0x5A06 JUMP JUMPDEST SWAP2 POP PUSH2 0x5132 DUP3 PUSH2 0x6392 JUMP JUMPDEST PUSH1 0x20 DUP3 ADD SWAP1 POP SWAP2 SWAP1 POP JUMP JUMPDEST PUSH1 0x0 PUSH2 0x514A PUSH1 0x10 DUP4 PUSH2 0x5A06 JUMP JUMPDEST SWAP2 POP PUSH2 0x5155 DUP3 PUSH2 0x63BB JUMP JUMPDEST PUSH1 0x20 DUP3 ADD SWAP1 POP SWAP2 SWAP1 POP JUMP JUMPDEST PUSH1 0x0 PUSH2 0x516D PUSH1 0x8 DUP4 PUSH2 0x5A06 JUMP JUMPDEST SWAP2 POP PUSH2 0x5178 DUP3 PUSH2 0x63E4 JUMP JUMPDEST PUSH1 0x20 DUP3 ADD SWAP1 POP SWAP2 SWAP1 POP JUMP JUMPDEST PUSH1 0x0 PUSH2 0x5190 PUSH1 0xC DUP4 PUSH2 0x5A06 JUMP JUMPDEST SWAP2 POP PUSH2 0x519B DUP3 PUSH2 0x640D JUMP JUMPDEST PUSH1 0x20 DUP3 ADD SWAP1 POP SWAP2 SWAP1 POP JUMP JUMPDEST PUSH1 0x0 PUSH2 0x51B3 PUSH1 0xE DUP4 PUSH2 0x5A06 JUMP JUMPDEST SWAP2 POP PUSH2 0x51BE DUP3 PUSH2 0x6436 JUMP JUMPDEST PUSH1 0x20 DUP3 ADD SWAP1 POP SWAP2 SWAP1 POP JUMP JUMPDEST PUSH1 0x0 PUSH2 0x51D6 PUSH1 0x10 DUP4 PUSH2 0x5A06 JUMP JUMPDEST SWAP2 POP PUSH2 0x51E1 DUP3 PUSH2 0x645F JUMP JUMPDEST PUSH1 0x20 DUP3 ADD SWAP1 POP SWAP2 SWAP1 POP JUMP JUMPDEST PUSH1 0x0 PUSH2 0x51F9 PUSH1 0x26 DUP4 PUSH2 0x5A06 JUMP JUMPDEST SWAP2 POP PUSH2 0x5204 DUP3 PUSH2 0x6488 JUMP JUMPDEST PUSH1 0x40 DUP3 ADD SWAP1 POP SWAP2 SWAP1 POP JUMP JUMPDEST PUSH1 0x0 PUSH2 0x521C PUSH1 0xB DUP4 PUSH2 0x5A06 JUMP JUMPDEST SWAP2 POP PUSH2 0x5227 DUP3 PUSH2 0x64D7 JUMP JUMPDEST PUSH1 0x20 DUP3 ADD SWAP1 POP SWAP2 SWAP1 POP JUMP JUMPDEST PUSH1 0x0 PUSH2 0x523F PUSH1 0xC DUP4 PUSH2 0x5A06 JUMP JUMPDEST SWAP2 POP PUSH2 0x524A DUP3 PUSH2 0x6500 JUMP JUMPDEST PUSH1 0x20 DUP3 ADD SWAP1 POP SWAP2 SWAP1 POP JUMP JUMPDEST PUSH2 0x525E DUP2 PUSH2 0x5BC2 JUMP JUMPDEST DUP3 MSTORE POP POP JUMP JUMPDEST PUSH1 0x0 PUSH2 0x5270 DUP3 DUP6 PUSH2 0x4C50 JUMP JUMPDEST PUSH1 0x14 DUP3 ADD SWAP2 POP PUSH2 0x5280 DUP3 DUP5 PUSH2 0x4C50 JUMP JUMPDEST PUSH1 0x14 DUP3 ADD SWAP2 POP DUP2 SWAP1 POP SWAP4 SWAP3 POP POP POP JUMP JUMPDEST PUSH1 0x0 PUSH2 0x529B DUP3 PUSH2 0x5025 JUMP JUMPDEST SWAP2 POP PUSH2 0x52A7 DUP3 DUP6 PUSH2 0x4C50 JUMP JUMPDEST PUSH1 0x14 DUP3 ADD SWAP2 POP PUSH2 0x52B7 DUP3 DUP5 PUSH2 0x4CC4 JUMP JUMPDEST PUSH1 0x20 DUP3 ADD SWAP2 POP PUSH2 0x52C6 DUP3 PUSH2 0x508E JUMP JUMPDEST SWAP2 POP DUP2 SWAP1 POP SWAP4 SWAP3 POP POP POP JUMP JUMPDEST PUSH1 0x0 PUSH1 0x20 DUP3 ADD SWAP1 POP PUSH2 0x52E7 PUSH1 0x0 DUP4 ADD DUP5 PUSH2 0x4C41 JUMP JUMPDEST SWAP3 SWAP2 POP POP JUMP JUMPDEST PUSH1 0x0 PUSH1 0x40 DUP3 ADD SWAP1 POP PUSH2 0x5302 PUSH1 0x0 DUP4 ADD DUP6 PUSH2 0x4C41 JUMP JUMPDEST PUSH2 0x530F PUSH1 0x20 DUP4 ADD DUP5 PUSH2 0x4C41 JUMP JUMPDEST SWAP4 SWAP3 POP POP POP JUMP JUMPDEST PUSH1 0x0 PUSH1 0x40 DUP3 ADD SWAP1 POP PUSH2 0x532B PUSH1 0x0 DUP4 ADD DUP6 PUSH2 0x4C41 JUMP JUMPDEST PUSH2 0x5338 PUSH1 0x20 DUP4 ADD DUP5 PUSH2 0x5255 JUMP JUMPDEST SWAP4 SWAP3 POP POP POP JUMP JUMPDEST PUSH1 0x0 PUSH1 0x60 DUP3 ADD SWAP1 POP PUSH2 0x5354 PUSH1 0x0 DUP4 ADD DUP7 PUSH2 0x4C41 JUMP JUMPDEST PUSH2 0x5361 PUSH1 0x20 DUP4 ADD DUP6 PUSH2 0x5255 JUMP JUMPDEST PUSH2 0x536E PUSH1 0x40 DUP4 ADD DUP5 PUSH2 0x4D14 JUMP JUMPDEST SWAP5 SWAP4 POP POP POP POP JUMP JUMPDEST PUSH1 0x0 PUSH1 0x20 DUP3 ADD SWAP1 POP DUP2 DUP2 SUB PUSH1 0x0 DUP4 ADD MSTORE PUSH2 0x538F DUP2 PUSH2 0x4D23 JUMP JUMPDEST SWAP1 POP SWAP2 SWAP1 POP JUMP JUMPDEST PUSH1 0x0 PUSH1 0x20 DUP3 ADD SWAP1 POP DUP2 DUP2 SUB PUSH1 0x0 DUP4 ADD MSTORE PUSH2 0x53AF DUP2 PUSH2 0x4D46 JUMP JUMPDEST SWAP1 POP SWAP2 SWAP1 POP JUMP JUMPDEST PUSH1 0x0 PUSH1 0x20 DUP3 ADD SWAP1 POP DUP2 DUP2 SUB PUSH1 0x0 DUP4 ADD MSTORE PUSH2 0x53CF DUP2 PUSH2 0x4D69 JUMP JUMPDEST SWAP1 POP SWAP2 SWAP1 POP JUMP JUMPDEST PUSH1 0x0 PUSH1 0x20 DUP3 ADD SWAP1 POP DUP2 DUP2 SUB PUSH1 0x0 DUP4 ADD MSTORE PUSH2 0x53EF DUP2 PUSH2 0x4D8C JUMP JUMPDEST SWAP1 POP SWAP2 SWAP1 POP JUMP JUMPDEST PUSH1 0x0 PUSH1 0x20 DUP3 ADD SWAP1 POP DUP2 DUP2 SUB PUSH1 0x0 DUP4 ADD MSTORE PUSH2 0x540F DUP2 PUSH2 0x4DAF JUMP JUMPDEST SWAP1 POP SWAP2 SWAP1 POP JUMP JUMPDEST PUSH1 0x0 PUSH1 0x20 DUP3 ADD SWAP1 POP DUP2 DUP2 SUB PUSH1 0x0 DUP4 ADD MSTORE PUSH2 0x542F DUP2 PUSH2 0x4DD2 JUMP JUMPDEST SWAP1 POP SWAP2 SWAP1 POP JUMP JUMPDEST PUSH1 0x0 PUSH1 0x20 DUP3 ADD SWAP1 POP DUP2 DUP2 SUB PUSH1 0x0 DUP4 ADD MSTORE PUSH2 0x544F DUP2 PUSH2 0x4DF5 JUMP JUMPDEST SWAP1 POP SWAP2 SWAP1 POP JUMP JUMPDEST PUSH1 0x0 PUSH1 0x20 DUP3 ADD SWAP1 POP DUP2 DUP2 SUB PUSH1 0x0 DUP4 ADD MSTORE PUSH2 0x546F DUP2 PUSH2 0x4E18 JUMP JUMPDEST SWAP1 POP SWAP2 SWAP1 POP JUMP JUMPDEST PUSH1 0x0 PUSH1 0x20 DUP3 ADD SWAP1 POP DUP2 DUP2 SUB PUSH1 0x0 DUP4 ADD MSTORE PUSH2 0x548F DUP2 PUSH2 0x4E3B JUMP JUMPDEST SWAP1 POP SWAP2 SWAP1 POP JUMP JUMPDEST PUSH1 0x0 PUSH1 0x20 DUP3 ADD SWAP1 POP DUP2 DUP2 SUB PUSH1 0x0 DUP4 ADD MSTORE PUSH2 0x54AF DUP2 PUSH2 0x4E5E JUMP JUMPDEST SWAP1 POP SWAP2 SWAP1 POP JUMP JUMPDEST PUSH1 0x0 PUSH1 0x20 DUP3 ADD SWAP1 POP DUP2 DUP2 SUB PUSH1 0x0 DUP4 ADD MSTORE PUSH2 0x54CF DUP2 PUSH2 0x4E81 JUMP JUMPDEST SWAP1 POP SWAP2 SWAP1 POP JUMP JUMPDEST PUSH1 0x0 PUSH1 0x20 DUP3 ADD SWAP1 POP DUP2 DUP2 SUB PUSH1 0x0 DUP4 ADD MSTORE PUSH2 0x54EF DUP2 PUSH2 0x4EA4 JUMP JUMPDEST SWAP1 POP SWAP2 SWAP1 POP JUMP JUMPDEST PUSH1 0x0 PUSH1 0x20 DUP3 ADD SWAP1 POP DUP2 DUP2 SUB PUSH1 0x0 DUP4 ADD MSTORE PUSH2 0x550F DUP2 PUSH2 0x4EC7 JUMP JUMPDEST SWAP1 POP SWAP2 SWAP1 POP JUMP JUMPDEST PUSH1 0x0 PUSH1 0x20 DUP3 ADD SWAP1 POP DUP2 DUP2 SUB PUSH1 0x0 DUP4 ADD MSTORE PUSH2 0x552F DUP2 PUSH2 0x4EEA JUMP JUMPDEST SWAP1 POP SWAP2 SWAP1 POP JUMP JUMPDEST PUSH1 0x0 PUSH1 0x20 DUP3 ADD SWAP1 POP DUP2 DUP2 SUB PUSH1 0x0 DUP4 ADD MSTORE PUSH2 0x554F DUP2 PUSH2 0x4F0D JUMP JUMPDEST SWAP1 POP SWAP2 SWAP1 POP JUMP JUMPDEST PUSH1 0x0 PUSH1 0x20 DUP3 ADD SWAP1 POP DUP2 DUP2 SUB PUSH1 0x0 DUP4 ADD MSTORE PUSH2 0x556F DUP2 PUSH2 0x4F30 JUMP JUMPDEST SWAP1 POP SWAP2 SWAP1 POP JUMP JUMPDEST PUSH1 0x0 PUSH1 0x20 DUP3 ADD SWAP1 POP DUP2 DUP2 SUB PUSH1 0x0 DUP4 ADD MSTORE PUSH2 0x558F DUP2 PUSH2 0x4F53 JUMP JUMPDEST SWAP1 POP SWAP2 SWAP1 POP JUMP JUMPDEST PUSH1 0x0 PUSH1 0x20 DUP3 ADD SWAP1 POP DUP2 DUP2 SUB PUSH1 0x0 DUP4 ADD MSTORE PUSH2 0x55AF DUP2 PUSH2 0x4F76 JUMP JUMPDEST SWAP1 POP SWAP2 SWAP1 POP JUMP JUMPDEST PUSH1 0x0 PUSH1 0x20 DUP3 ADD SWAP1 POP DUP2 DUP2 SUB PUSH1 0x0 DUP4 ADD MSTORE PUSH2 0x55CF DUP2 PUSH2 0x4F99 JUMP JUMPDEST SWAP1 POP SWAP2 SWAP1 POP JUMP JUMPDEST PUSH1 0x0 PUSH1 0x20 DUP3 ADD SWAP1 POP DUP2 DUP2 SUB PUSH1 0x0 DUP4 ADD MSTORE PUSH2 0x55EF DUP2 PUSH2 0x4FBC JUMP JUMPDEST SWAP1 POP SWAP2 SWAP1 POP JUMP JUMPDEST PUSH1 0x0 PUSH1 0x20 DUP3 ADD SWAP1 POP DUP2 DUP2 SUB PUSH1 0x0 DUP4 ADD MSTORE PUSH2 0x560F DUP2 PUSH2 0x4FDF JUMP JUMPDEST SWAP1 POP SWAP2 SWAP1 POP JUMP JUMPDEST PUSH1 0x0 PUSH1 0x20 DUP3 ADD SWAP1 POP DUP2 DUP2 SUB PUSH1 0x0 DUP4 ADD MSTORE PUSH2 0x562F DUP2 PUSH2 0x5002 JUMP JUMPDEST SWAP1 POP SWAP2 SWAP1 POP JUMP JUMPDEST PUSH1 0x0 PUSH1 0x20 DUP3 ADD SWAP1 POP DUP2 DUP2 SUB PUSH1 0x0 DUP4 ADD MSTORE PUSH2 0x564F DUP2 PUSH2 0x5048 JUMP JUMPDEST SWAP1 POP SWAP2 SWAP1 POP JUMP JUMPDEST PUSH1 0x0 PUSH1 0x20 DUP3 ADD SWAP1 POP DUP2 DUP2 SUB PUSH1 0x0 DUP4 ADD MSTORE PUSH2 0x566F DUP2 PUSH2 0x506B JUMP JUMPDEST SWAP1 POP SWAP2 SWAP1 POP JUMP JUMPDEST PUSH1 0x0 PUSH1 0x20 DUP3 ADD SWAP1 POP DUP2 DUP2 SUB PUSH1 0x0 DUP4 ADD MSTORE PUSH2 0x568F DUP2 PUSH2 0x50B1 JUMP JUMPDEST SWAP1 POP SWAP2 SWAP1 POP JUMP JUMPDEST PUSH1 0x0 PUSH1 0x20 DUP3 ADD SWAP1 POP DUP2 DUP2 SUB PUSH1 0x0 DUP4 ADD MSTORE PUSH2 0x56AF DUP2 PUSH2 0x50D4 JUMP JUMPDEST SWAP1 POP SWAP2 SWAP1 POP JUMP JUMPDEST PUSH1 0x0 PUSH1 0x20 DUP3 ADD SWAP1 POP DUP2 DUP2 SUB PUSH1 0x0 DUP4 ADD MSTORE PUSH2 0x56CF DUP2 PUSH2 0x50F7 JUMP JUMPDEST SWAP1 POP SWAP2 SWAP1 POP JUMP JUMPDEST PUSH1 0x0 PUSH1 0x20 DUP3 ADD SWAP1 POP DUP2 DUP2 SUB PUSH1 0x0 DUP4 ADD MSTORE PUSH2 0x56EF DUP2 PUSH2 0x511A JUMP JUMPDEST SWAP1 POP SWAP2 SWAP1 POP JUMP JUMPDEST PUSH1 0x0 PUSH1 0x20 DUP3 ADD SWAP1 POP DUP2 DUP2 SUB PUSH1 0x0 DUP4 ADD MSTORE PUSH2 0x570F DUP2 PUSH2 0x513D JUMP JUMPDEST SWAP1 POP SWAP2 SWAP1 POP JUMP JUMPDEST PUSH1 0x0 PUSH1 0x20 DUP3 ADD SWAP1 POP DUP2 DUP2 SUB PUSH1 0x0 DUP4 ADD MSTORE PUSH2 0x572F DUP2 PUSH2 0x5160 JUMP JUMPDEST SWAP1 POP SWAP2 SWAP1 POP JUMP JUMPDEST PUSH1 0x0 PUSH1 0x20 DUP3 ADD SWAP1 POP DUP2 DUP2 SUB PUSH1 0x0 DUP4 ADD MSTORE PUSH2 0x574F DUP2 PUSH2 0x5183 JUMP JUMPDEST SWAP1 POP SWAP2 SWAP1 POP JUMP JUMPDEST PUSH1 0x0 PUSH1 0x20 DUP3 ADD SWAP1 POP DUP2 DUP2 SUB PUSH1 0x0 DUP4 ADD MSTORE PUSH2 0x576F DUP2 PUSH2 0x51A6 JUMP JUMPDEST SWAP1 POP SWAP2 SWAP1 POP JUMP JUMPDEST PUSH1 0x0 PUSH1 0x20 DUP3 ADD SWAP1 POP DUP2 DUP2 SUB PUSH1 0x0 DUP4 ADD MSTORE PUSH2 0x578F DUP2 PUSH2 0x51C9 JUMP JUMPDEST SWAP1 POP SWAP2 SWAP1 POP JUMP JUMPDEST PUSH1 0x0 PUSH1 0x20 DUP3 ADD SWAP1 POP DUP2 DUP2 SUB PUSH1 0x0 DUP4 ADD MSTORE PUSH2 0x57AF DUP2 PUSH2 0x51EC JUMP JUMPDEST SWAP1 POP SWAP2 SWAP1 POP JUMP JUMPDEST PUSH1 0x0 PUSH1 0x20 DUP3 ADD SWAP1 POP DUP2 DUP2 SUB PUSH1 0x0 DUP4 ADD MSTORE PUSH2 0x57CF DUP2 PUSH2 0x520F JUMP JUMPDEST SWAP1 POP SWAP2 SWAP1 POP JUMP JUMPDEST PUSH1 0x0 PUSH1 0x20 DUP3 ADD SWAP1 POP DUP2 DUP2 SUB PUSH1 0x0 DUP4 ADD MSTORE PUSH2 0x57EF DUP2 PUSH2 0x5232 JUMP JUMPDEST SWAP1 POP SWAP2 SWAP1 POP JUMP JUMPDEST PUSH1 0x0 PUSH1 0x20 DUP3 ADD SWAP1 POP PUSH2 0x580B PUSH1 0x0 DUP4 ADD DUP5 PUSH2 0x5255 JUMP JUMPDEST SWAP3 SWAP2 POP POP JUMP JUMPDEST PUSH1 0x0 PUSH1 0xC0 DUP3 ADD SWAP1 POP PUSH2 0x5826 PUSH1 0x0 DUP4 ADD DUP13 PUSH2 0x5255 JUMP JUMPDEST PUSH2 0x5833 PUSH1 0x20 DUP4 ADD DUP12 PUSH2 0x4C41 JUMP JUMPDEST DUP2 DUP2 SUB PUSH1 0x40 DUP4 ADD MSTORE PUSH2 0x5846 DUP2 DUP10 DUP12 PUSH2 0x4C67 JUMP JUMPDEST SWAP1 POP DUP2 DUP2 SUB PUSH1 0x60 DUP4 ADD MSTORE PUSH2 0x585B DUP2 DUP8 DUP10 PUSH2 0x4C67 JUMP JUMPDEST SWAP1 POP DUP2 DUP2 SUB PUSH1 0x80 DUP4 ADD MSTORE PUSH2 0x5870 DUP2 DUP6 DUP8 PUSH2 0x4C67 JUMP JUMPDEST SWAP1 POP PUSH2 0x587F PUSH1 0xA0 DUP4 ADD DUP5 PUSH2 0x5255 JUMP JUMPDEST SWAP11 SWAP10 POP POP POP POP POP POP POP POP POP POP JUMP JUMPDEST PUSH1 0x0 PUSH1 0xE0 DUP3 ADD SWAP1 POP PUSH2 0x58A2 PUSH1 0x0 DUP4 ADD DUP11 PUSH2 0x5255 JUMP JUMPDEST PUSH2 0x58AF PUSH1 0x20 DUP4 ADD DUP10 PUSH2 0x4C41 JUMP JUMPDEST PUSH2 0x58BC PUSH1 0x40 DUP4 ADD DUP9 PUSH2 0x5255 JUMP JUMPDEST PUSH2 0x58C9 PUSH1 0x60 DUP4 ADD DUP8 PUSH2 0x4C41 JUMP JUMPDEST PUSH2 0x58D6 PUSH1 0x80 DUP4 ADD DUP7 PUSH2 0x5255 JUMP JUMPDEST PUSH2 0x58E3 PUSH1 0xA0 DUP4 ADD DUP6 PUSH2 0x5255 JUMP JUMPDEST PUSH2 0x58F0 PUSH1 0xC0 DUP4 ADD DUP5 PUSH2 0x5255 JUMP JUMPDEST SWAP9 SWAP8 POP POP POP POP POP POP POP POP JUMP JUMPDEST PUSH1 0x0 PUSH1 0x40 DUP3 ADD SWAP1 POP PUSH2 0x5911 PUSH1 0x0 DUP4 ADD DUP6 PUSH2 0x5255 JUMP JUMPDEST PUSH2 0x591E PUSH1 0x20 DUP4 ADD DUP5 PUSH2 0x5255 JUMP JUMPDEST SWAP4 SWAP3 POP POP POP JUMP JUMPDEST PUSH1 0x0 PUSH1 0x80 DUP3 ADD SWAP1 POP PUSH2 0x593A PUSH1 0x0 DUP4 ADD DUP8 PUSH2 0x5255 JUMP JUMPDEST PUSH2 0x5947 PUSH1 0x20 DUP4 ADD DUP7 PUSH2 0x5255 JUMP JUMPDEST PUSH2 0x5954 PUSH1 0x40 DUP4 ADD DUP6 PUSH2 0x4C41 JUMP JUMPDEST DUP2 DUP2 SUB PUSH1 0x60 DUP4 ADD MSTORE PUSH2 0x5966 DUP2 DUP5 PUSH2 0x4CDB JUMP JUMPDEST SWAP1 POP SWAP6 SWAP5 POP POP POP POP POP JUMP JUMPDEST PUSH1 0x0 PUSH2 0x597B PUSH2 0x598C JUMP JUMPDEST SWAP1 POP PUSH2 0x5987 DUP3 DUP3 PUSH2 0x5C6F JUMP JUMPDEST SWAP2 SWAP1 POP JUMP JUMPDEST PUSH1 0x0 PUSH1 0x40 MLOAD SWAP1 POP SWAP1 JUMP JUMPDEST PUSH1 0x0 PUSH8 0xFFFFFFFFFFFFFFFF DUP3 GT ISZERO PUSH2 0x59B1 JUMPI PUSH2 0x59B0 PUSH2 0x5DA4 JUMP JUMPDEST JUMPDEST PUSH1 0x20 DUP3 MUL SWAP1 POP PUSH1 0x20 DUP2 ADD SWAP1 POP SWAP2 SWAP1 POP JUMP JUMPDEST PUSH1 0x0 DUP2 SWAP1 POP SWAP2 SWAP1 POP JUMP JUMPDEST PUSH1 0x0 DUP2 MLOAD SWAP1 POP SWAP2 SWAP1 POP JUMP JUMPDEST PUSH1 0x0 PUSH1 0x20 DUP3 ADD SWAP1 POP SWAP2 SWAP1 POP JUMP JUMPDEST PUSH1 0x0 DUP3 DUP3 MSTORE PUSH1 0x20 DUP3 ADD SWAP1 POP SWAP3 SWAP2 POP POP JUMP JUMPDEST PUSH1 0x0 DUP3 DUP3 MSTORE PUSH1 0x20 DUP3 ADD SWAP1 POP SWAP3 SWAP2 POP POP JUMP JUMPDEST PUSH1 0x0 DUP3 DUP3 MSTORE PUSH1 0x20 DUP3 ADD SWAP1 POP SWAP3 SWAP2 POP POP JUMP JUMPDEST PUSH1 0x0 DUP2 SWAP1 POP SWAP3 SWAP2 POP POP JUMP JUMPDEST PUSH1 0x0 PUSH2 0x5A31 PUSH1 0x20 DUP5 ADD DUP5 PUSH2 0x4666 JUMP JUMPDEST SWAP1 POP SWAP3 SWAP2 POP POP JUMP JUMPDEST PUSH1 0x0 PUSH2 0x5A44 DUP3 PUSH2 0x5BC2 JUMP JUMPDEST SWAP2 POP PUSH2 0x5A4F DUP4 PUSH2 0x5BC2 JUMP JUMPDEST SWAP3 POP DUP3 PUSH32 0xFFFFFFFFFFFFFFFFFFFFFFFFFFFFFFFFFFFFFFFFFFFFFFFFFFFFFFFFFFFFFFFF SUB DUP3 GT ISZERO PUSH2 0x5A84 JUMPI PUSH2 0x5A83 PUSH2 0x5D17 JUMP JUMPDEST JUMPDEST DUP3 DUP3 ADD SWAP1 POP SWAP3 SWAP2 POP POP JUMP JUMPDEST PUSH1 0x0 PUSH2 0x5A9A DUP3 PUSH2 0x5BC2 JUMP JUMPDEST SWAP2 POP PUSH2 0x5AA5 DUP4 PUSH2 0x5BC2 JUMP JUMPDEST SWAP3 POP DUP3 PUSH2 0x5AB5 JUMPI PUSH2 0x5AB4 PUSH2 0x5D46 JUMP JUMPDEST JUMPDEST DUP3 DUP3 DIV SWAP1 POP SWAP3 SWAP2 POP POP JUMP JUMPDEST PUSH1 0x0 PUSH2 0x5ACB DUP3 PUSH2 0x5BC2 JUMP JUMPDEST SWAP2 POP PUSH2 0x5AD6 DUP4 PUSH2 0x5BC2 JUMP JUMPDEST SWAP3 POP DUP2 PUSH32 0xFFFFFFFFFFFFFFFFFFFFFFFFFFFFFFFFFFFFFFFFFFFFFFFFFFFFFFFFFFFFFFFF DIV DUP4 GT DUP3 ISZERO ISZERO AND ISZERO PUSH2 0x5B0F JUMPI PUSH2 0x5B0E PUSH2 0x5D17 JUMP JUMPDEST JUMPDEST DUP3 DUP3 MUL SWAP1 POP SWAP3 SWAP2 POP POP JUMP JUMPDEST PUSH1 0x0 PUSH2 0x5B25 DUP3 PUSH2 0x5BC2 JUMP JUMPDEST SWAP2 POP PUSH2 0x5B30 DUP4 PUSH2 0x5BC2 JUMP JUMPDEST SWAP3 POP DUP3 DUP3 LT ISZERO PUSH2 0x5B43 JUMPI PUSH2 0x5B42 PUSH2 0x5D17 JUMP JUMPDEST JUMPDEST DUP3 DUP3 SUB SWAP1 POP SWAP3 SWAP2 POP POP JUMP JUMPDEST PUSH1 0x0 PUSH2 0x5B59 DUP3 PUSH2 0x5BA2 JUMP JUMPDEST SWAP1 POP SWAP2 SWAP1 POP JUMP JUMPDEST PUSH1 0x0 PUSH2 0x5B6B DUP3 PUSH2 0x5BA2 JUMP JUMPDEST SWAP1 POP SWAP2 SWAP1 POP JUMP JUMPDEST PUSH1 0x0 DUP2 ISZERO ISZERO SWAP1 POP SWAP2 SWAP1 POP JUMP JUMPDEST PUSH1 0x0 DUP2 SWAP1 POP SWAP2 SWAP1 POP JUMP JUMPDEST PUSH1 0x0 PUSH14 0xFFFFFFFFFFFFFFFFFFFFFFFFFFFF DUP3 AND SWAP1 POP SWAP2 SWAP1 POP JUMP JUMPDEST PUSH1 0x0 PUSH20 0xFFFFFFFFFFFFFFFFFFFFFFFFFFFFFFFFFFFFFFFF DUP3 AND SWAP1 POP SWAP2 SWAP1 POP JUMP JUMPDEST PUSH1 0x0 DUP2 SWAP1 POP SWAP2 SWAP1 POP JUMP JUMPDEST PUSH1 0x0 PUSH4 0xFFFFFFFF DUP3 AND SWAP1 POP SWAP2 SWAP1 POP JUMP JUMPDEST PUSH1 0x0 PUSH2 0x5BE7 DUP3 PUSH2 0x5BEE JUMP JUMPDEST SWAP1 POP SWAP2 SWAP1 POP JUMP JUMPDEST PUSH1 0x0 PUSH2 0x5BF9 DUP3 PUSH2 0x5C00 JUMP JUMPDEST SWAP1 POP SWAP2 SWAP1 POP JUMP JUMPDEST PUSH1 0x0 PUSH2 0x5C0B DUP3 PUSH2 0x5BA2 JUMP JUMPDEST SWAP1 POP SWAP2 SWAP1 POP JUMP JUMPDEST PUSH1 0x0 JUMPDEST DUP4 DUP2 LT ISZERO PUSH2 0x5C30 JUMPI DUP1 DUP3 ADD MLOAD DUP2 DUP5 ADD MSTORE PUSH1 0x20 DUP2 ADD SWAP1 POP PUSH2 0x5C15 JUMP JUMPDEST DUP4 DUP2 GT ISZERO PUSH2 0x5C3F JUMPI PUSH1 0x0 DUP5 DUP5 ADD MSTORE JUMPDEST POP POP POP POP JUMP JUMPDEST PUSH1 0x0 PUSH2 0x5C50 DUP3 PUSH2 0x5BC2 JUMP JUMPDEST SWAP2 POP PUSH1 0x0 DUP3 EQ ISZERO PUSH2 0x5C64 JUMPI PUSH2 0x5C63 PUSH2 0x5D17 JUMP JUMPDEST JUMPDEST PUSH1 0x1 DUP3 SUB SWAP1 POP SWAP2 SWAP1 POP JUMP JUMPDEST PUSH2 0x5C78 DUP3 PUSH2 0x5DEC JUMP JUMPDEST DUP2 ADD DUP2 DUP2 LT PUSH8 0xFFFFFFFFFFFFFFFF DUP3 GT OR ISZERO PUSH2 0x5C97 JUMPI PUSH2 0x5C96 PUSH2 0x5DA4 JUMP JUMPDEST JUMPDEST DUP1 PUSH1 0x40 MSTORE POP POP POP JUMP JUMPDEST PUSH1 0x0 PUSH2 0x5CAB DUP3 PUSH2 0x5BC2 JUMP JUMPDEST SWAP2 POP PUSH32 0xFFFFFFFFFFFFFFFFFFFFFFFFFFFFFFFFFFFFFFFFFFFFFFFFFFFFFFFFFFFFFFFF DUP3 EQ ISZERO PUSH2 0x5CDE JUMPI PUSH2 0x5CDD PUSH2 0x5D17 JUMP JUMPDEST JUMPDEST PUSH1 0x1 DUP3 ADD SWAP1 POP SWAP2 SWAP1 POP JUMP JUMPDEST PUSH1 0x0 PUSH2 0x5CF4 DUP3 PUSH2 0x5D05 JUMP JUMPDEST SWAP1 POP SWAP2 SWAP1 POP JUMP JUMPDEST PUSH1 0x0 DUP2 SWAP1 POP SWAP2 SWAP1 POP JUMP JUMPDEST PUSH1 0x0 PUSH2 0x5D10 DUP3 PUSH2 0x5DFD JUMP JUMPDEST SWAP1 POP SWAP2 SWAP1 POP JUMP JUMPDEST PUSH32 0x4E487B7100000000000000000000000000000000000000000000000000000000 PUSH1 0x0 MSTORE PUSH1 0x11 PUSH1 0x4 MSTORE PUSH1 0x24 PUSH1 0x0 REVERT JUMPDEST PUSH32 0x4E487B7100000000000000000000000000000000000000000000000000000000 PUSH1 0x0 MSTORE PUSH1 0x12 PUSH1 0x4 MSTORE PUSH1 0x24 PUSH1 0x0 REVERT JUMPDEST PUSH32 0x4E487B7100000000000000000000000000000000000000000000000000000000 PUSH1 0x0 MSTORE PUSH1 0x32 PUSH1 0x4 MSTORE PUSH1 0x24 PUSH1 0x0 REVERT JUMPDEST PUSH32 0x4E487B7100000000000000000000000000000000000000000000000000000000 PUSH1 0x0 MSTORE PUSH1 0x41 PUSH1 0x4 MSTORE PUSH1 0x24 PUSH1 0x0 REVERT JUMPDEST PUSH1 0x0 DUP1 REVERT JUMPDEST PUSH1 0x0 DUP1 REVERT JUMPDEST PUSH1 0x0 DUP1 REVERT JUMPDEST PUSH1 0x0 DUP1 REVERT JUMPDEST PUSH1 0x0 DUP1 REVERT JUMPDEST PUSH1 0x0 PUSH1 0x1F NOT PUSH1 0x1F DUP4 ADD AND SWAP1 POP SWAP2 SWAP1 POP JUMP JUMPDEST PUSH1 0x0 DUP2 PUSH1 0x60 SHL SWAP1 POP SWAP2 SWAP1 POP JUMP JUMPDEST PUSH32 0x352E312D6E6F2065787472610000000000000000000000000000000000000000 PUSH1 0x0 DUP3 ADD MSTORE POP JUMP JUMPDEST PUSH32 0x372E322D6E6F2065787472610000000000000000000000000000000000000000 PUSH1 0x0 DUP3 ADD MSTORE POP JUMP JUMPDEST PUSH32 0x362D7365697A6564546F6B656E206973206E6F7420737461626C6520636F696E PUSH1 0x0 DUP3 ADD MSTORE POP JUMP JUMPDEST PUSH32 0x50616E63616B654C6962726172793A20494E53554646494349454E545F494E50 PUSH1 0x0 DUP3 ADD MSTORE PUSH32 0x55545F414D4F554E540000000000000000000000000000000000000000000000 PUSH1 0x20 DUP3 ADD MSTORE POP JUMP JUMPDEST PUSH32 0x332E312D6E6F2D65787472610000000000000000000000000000000000000000 PUSH1 0x0 DUP3 ADD MSTORE POP JUMP JUMPDEST PUSH32 0x61646472657373206D757374206E6F74206265207A65726F0000000000000000 PUSH1 0x0 DUP3 ADD MSTORE POP JUMP JUMPDEST PUSH32 0x4F776E61626C653A206E6577206F776E657220697320746865207A65726F2061 PUSH1 0x0 DUP3 ADD MSTORE PUSH32 0x6464726573730000000000000000000000000000000000000000000000000000 PUSH1 0x20 DUP3 ADD MSTORE POP JUMP JUMPDEST PUSH32 0x6C6971756964617465426F72726F77206572726F722000000000000000000000 PUSH1 0x0 DUP3 ADD MSTORE POP JUMP JUMPDEST PUSH32 0x50616E63616B654C6962726172793A20494E56414C49445F5041544800000000 PUSH1 0x0 DUP3 ADD MSTORE POP JUMP JUMPDEST PUSH32 0x50616E63616B654C6962726172793A20494E53554646494349454E545F4F5554 PUSH1 0x0 DUP3 ADD MSTORE PUSH32 0x5055545F414D4F554E5400000000000000000000000000000000000000000000 PUSH1 0x20 DUP3 ADD MSTORE POP JUMP JUMPDEST PUSH32 0x6E6F206578747261000000000000000000000000000000000000000000000000 PUSH1 0x0 DUP3 ADD MSTORE POP JUMP JUMPDEST PUSH32 0x362D6E6F65787472610000000000000000000000000000000000000000000000 PUSH1 0x0 DUP3 ADD MSTORE POP JUMP JUMPDEST PUSH32 0x342D7265706179546F6B656E206973206E6F7420737461626C6520636F696E00 PUSH1 0x0 DUP3 ADD MSTORE POP JUMP JUMPDEST PUSH32 0x73686F727466616C6C206D7573742067726561746572207468616E207A657220 PUSH1 0x0 DUP3 ADD MSTORE PUSH32 0x3000000000000000000000000000000000000000000000000000000000000000 PUSH1 0x20 DUP3 ADD MSTORE POP JUMP JUMPDEST PUSH32 0x7365697A65642056546F6B656E20616D6F756E74206973207A65726F00000000 PUSH1 0x0 DUP3 ADD MSTORE POP JUMP JUMPDEST PUSH32 0x342E322D6E6F2065787472610000000000000000000000000000000000000000 PUSH1 0x0 DUP3 ADD MSTORE POP JUMP JUMPDEST PUSH32 0x616D6F756E74206D75737420626967676572207468616E207A65726F00000000 PUSH1 0x0 DUP3 ADD MSTORE POP JUMP JUMPDEST PUSH32 0x50616E63616B654C6962726172793A204944454E544943414C5F414444524553 PUSH1 0x0 DUP3 ADD MSTORE PUSH32 0x5345530000000000000000000000000000000000000000000000000000000000 PUSH1 0x20 DUP3 ADD MSTORE POP JUMP JUMPDEST PUSH32 0x6C6971756964617465426F72726F77206572726F720000000000000000000000 PUSH1 0x0 DUP3 ADD MSTORE POP JUMP JUMPDEST PUSH32 0x372E312D6E6F2065787472610000000000000000000000000000000000000000 PUSH1 0x0 DUP3 ADD MSTORE POP JUMP JUMPDEST PUSH32 0x2170616972000000000000000000000000000000000000000000000000000000 PUSH1 0x0 DUP3 ADD MSTORE POP JUMP JUMPDEST PUSH32 0x342E312D6E6F2065787472610000000000000000000000000000000000000000 PUSH1 0x0 DUP3 ADD MSTORE POP JUMP JUMPDEST PUSH32 0xFF00000000000000000000000000000000000000000000000000000000000000 PUSH1 0x0 DUP3 ADD MSTORE POP JUMP JUMPDEST PUSH32 0x4F776E61626C653A2063616C6C6572206973206E6F7420746865206F776E6572 PUSH1 0x0 DUP3 ADD MSTORE POP JUMP JUMPDEST PUSH32 0x352E332D6E6F2065787472610000000000000000000000000000000000000000 PUSH1 0x0 DUP3 ADD MSTORE POP JUMP JUMPDEST PUSH31 0xFB7F630766E6A796048EA87D01ACD3068E8FF67D078148A3FA3F4A84F69BD5 PUSH1 0x0 DUP3 ADD MSTORE POP JUMP JUMPDEST PUSH32 0x332D7365697A656420746F6B656E206973206E6F7420737461626C6520636F69 PUSH1 0x0 DUP3 ADD MSTORE PUSH32 0x6E00000000000000000000000000000000000000000000000000000000000000 PUSH1 0x20 DUP3 ADD MSTORE POP JUMP JUMPDEST PUSH32 0x312D6E6F7420737461626C6520636F696E000000000000000000000000000000 PUSH1 0x0 DUP3 ADD MSTORE POP JUMP JUMPDEST PUSH32 0x2173656E64657200000000000000000000000000000000000000000000000000 PUSH1 0x0 DUP3 ADD MSTORE POP JUMP JUMPDEST PUSH32 0x50616E63616B654C6962726172793A205A45524F5F4144445245535300000000 PUSH1 0x0 DUP3 ADD MSTORE POP JUMP JUMPDEST PUSH32 0x332E322D626E622D6E6F2D657874726100000000000000000000000000000000 PUSH1 0x0 DUP3 ADD MSTORE POP JUMP JUMPDEST PUSH32 0x77726F6E67207369000000000000000000000000000000000000000000000000 PUSH1 0x0 DUP3 ADD MSTORE POP JUMP JUMPDEST PUSH32 0x322E312D6E6F2D65787472610000000000000000000000000000000000000000 PUSH1 0x0 DUP3 ADD MSTORE POP JUMP JUMPDEST PUSH32 0x72656465656D20424E4220657272000000000000000000000000000000000000 PUSH1 0x0 DUP3 ADD MSTORE POP JUMP JUMPDEST PUSH32 0x312D206E6F742073616D6520636F696E00000000000000000000000000000000 PUSH1 0x0 DUP3 ADD MSTORE POP JUMP JUMPDEST PUSH32 0x50616E63616B654C6962726172793A20494E53554646494349454E545F4C4951 PUSH1 0x0 DUP3 ADD MSTORE PUSH32 0x5549444954590000000000000000000000000000000000000000000000000000 PUSH1 0x20 DUP3 ADD MSTORE POP JUMP JUMPDEST PUSH32 0x322E312D70617468657272000000000000000000000000000000000000000000 PUSH1 0x0 DUP3 ADD MSTORE POP JUMP JUMPDEST PUSH32 0x72656465656D206572726F720000000000000000000000000000000000000000 PUSH1 0x0 DUP3 ADD MSTORE POP JUMP JUMPDEST PUSH2 0x6532 DUP2 PUSH2 0x5B4E JUMP JUMPDEST DUP2 EQ PUSH2 0x653D JUMPI PUSH1 0x0 DUP1 REVERT JUMPDEST POP JUMP JUMPDEST PUSH2 0x6549 DUP2 PUSH2 0x5B60 JUMP JUMPDEST DUP2 EQ PUSH2 0x6554 JUMPI PUSH1 0x0 DUP1 REVERT JUMPDEST POP JUMP JUMPDEST PUSH2 0x6560 DUP2 PUSH2 0x5B72 JUMP JUMPDEST DUP2 EQ PUSH2 0x656B JUMPI PUSH1 0x0 DUP1 REVERT JUMPDEST POP JUMP JUMPDEST PUSH2 0x6577 DUP2 PUSH2 0x5B88 JUMP JUMPDEST DUP2 EQ PUSH2 0x6582 JUMPI PUSH1 0x0 DUP1 REVERT JUMPDEST POP JUMP JUMPDEST PUSH2 0x658E DUP2 PUSH2 0x5BC2 JUMP JUMPDEST DUP2 EQ PUSH2 0x6599 JUMPI PUSH1 0x0 DUP1 REVERT JUMPDEST POP JUMP JUMPDEST PUSH2 0x65A5 DUP2 PUSH2 0x5BCC JUMP JUMPDEST DUP2 EQ PUSH2 0x65B0 JUMPI PUSH1 0x0 DUP1 REVERT JUMPDEST POP JUMP INVALID LOG2 PUSH5 0x6970667358 0x22 SLT KECCAK256 0xE3 0xA7 0xF8 0xD8 ADDRESS DUP5 0x28 0xEB DUP8 0xC PUSH19 0xFF7EE6F29A3E0B23E22E73B223E33DC0E00C17 PC 0x22 PUSH5 0x736F6C6343 STOP ADDMOD SMOD STOP CALLER "
		},
		"gasEstimates": {
			"creation": {
				"codeDepositCost": "5217800",
				"executionCost": "infinite",
				"totalCost": "infinite"
			},
			"external": {
				"owner()": "2522",
				"pancakeCall(address,uint256,uint256,bytes)": "infinite",
				"qingsuan(uint256,address,address[],address[],address[],uint256)": "infinite",
				"renounceOwnership()": "30375",
				"swapOneBNBToFlashLoandUnderlyingToken(address)": "infinite",
				"transferOwnership(address)": "30767",
				"withdraw(address,uint256)": "infinite"
			},
			"internal": {
				"_swap(uint256[] memory,address[] memory,address)": "infinite",
				"chainSwapExactIn(uint256,address[] memory,address)": "infinite",
				"chainSwapExactOut(uint256,address[] memory,address)": "infinite",
				"getSeizedUnderlyingToken(address,address,uint256)": "infinite",
				"getSeizedVToken(address,address,address,uint256)": "infinite",
				"isStableCoin(address)": "126",
				"isVAI(address)": "46",
				"isVBNB(address)": "46"
			}
		},
		"methodIdentifiers": {
			"owner()": "8da5cb5b",
			"pancakeCall(address,uint256,uint256,bytes)": "84800812",
			"qingsuan(uint256,address,address[],address[],address[],uint256)": "b14e9a72",
			"renounceOwnership()": "715018a6",
			"swapOneBNBToFlashLoandUnderlyingToken(address)": "89c33748",
			"transferOwnership(address)": "f2fde38b",
			"withdraw(address,uint256)": "f3fef3a3"
		}
	},
	"abi": [
		{
			"anonymous": false,
			"inputs": [
				{
					"indexed": false,
					"internalType": "uint256",
					"name": "",
					"type": "uint256"
				},
				{
					"indexed": false,
					"internalType": "address",
					"name": "",
					"type": "address"
				},
				{
					"indexed": false,
					"internalType": "address[]",
					"name": "",
					"type": "address[]"
				},
				{
					"indexed": false,
					"internalType": "address[]",
					"name": "",
					"type": "address[]"
				},
				{
					"indexed": false,
					"internalType": "address[]",
					"name": "",
					"type": "address[]"
				},
				{
					"indexed": false,
					"internalType": "uint256",
					"name": "",
					"type": "uint256"
				}
			],
			"name": "Debug1",
			"type": "event"
		},
		{
			"anonymous": false,
			"inputs": [
				{
					"indexed": true,
					"internalType": "address",
					"name": "previousOwner",
					"type": "address"
				},
				{
					"indexed": true,
					"internalType": "address",
					"name": "newOwner",
					"type": "address"
				}
			],
			"name": "OwnershipTransferred",
			"type": "event"
		},
		{
			"anonymous": false,
			"inputs": [
				{
					"indexed": false,
					"internalType": "address",
					"name": "",
					"type": "address"
				},
				{
					"indexed": false,
					"internalType": "uint256",
					"name": "",
					"type": "uint256"
				}
			],
			"name": "PancakeCall",
			"type": "event"
		},
		{
			"anonymous": false,
			"inputs": [
				{
					"indexed": false,
					"internalType": "uint256",
					"name": "",
					"type": "uint256"
				},
				{
					"indexed": false,
					"internalType": "uint256",
					"name": "",
					"type": "uint256"
				}
			],
			"name": "Qingsuan",
			"type": "event"
		},
		{
			"anonymous": false,
			"inputs": [
				{
					"indexed": false,
					"internalType": "uint256",
					"name": "scenarioNo",
					"type": "uint256"
				},
				{
					"indexed": false,
					"internalType": "address",
					"name": "repayUnderlyingToken",
					"type": "address"
				},
				{
					"indexed": false,
					"internalType": "uint256",
					"name": "repayAmount",
					"type": "uint256"
				},
				{
					"indexed": false,
					"internalType": "address",
					"name": "seizedUnderlyingToken",
					"type": "address"
				},
				{
					"indexed": false,
					"internalType": "uint256",
					"name": "flashLoanReturnAmount",
					"type": "uint256"
				},
				{
					"indexed": false,
					"internalType": "uint256",
					"name": "seizedUnderlyingAmount",
					"type": "uint256"
				},
				{
					"indexed": false,
					"internalType": "uint256",
					"name": "massProfit",
					"type": "uint256"
				}
			],
			"name": "Scenario",
			"type": "event"
		},
		{
			"inputs": [],
			"name": "owner",
			"outputs": [
				{
					"internalType": "address",
					"name": "",
					"type": "address"
				}
			],
			"stateMutability": "view",
			"type": "function"
		},
		{
			"inputs": [
				{
					"internalType": "address",
					"name": "_sender",
					"type": "address"
				},
				{
					"internalType": "uint256",
					"name": "_amount0",
					"type": "uint256"
				},
				{
					"internalType": "uint256",
					"name": "_amount1",
					"type": "uint256"
				},
				{
					"internalType": "bytes",
					"name": "_data",
					"type": "bytes"
				}
			],
			"name": "pancakeCall",
			"outputs": [],
			"stateMutability": "nonpayable",
			"type": "function"
		},
		{
			"inputs": [
				{
					"internalType": "uint256",
					"name": "_situation",
					"type": "uint256"
				},
				{
					"internalType": "address",
					"name": "_flashLoanFrom",
					"type": "address"
				},
				{
					"internalType": "address[]",
					"name": "_path1",
					"type": "address[]"
				},
				{
					"internalType": "address[]",
					"name": "_path2",
					"type": "address[]"
				},
				{
					"internalType": "address[]",
					"name": "_tokens",
					"type": "address[]"
				},
				{
					"internalType": "uint256",
					"name": "_flashLoanAmount",
					"type": "uint256"
				}
			],
			"name": "qingsuan",
			"outputs": [],
			"stateMutability": "nonpayable",
			"type": "function"
		},
		{
			"inputs": [],
			"name": "renounceOwnership",
			"outputs": [],
			"stateMutability": "nonpayable",
			"type": "function"
		},
		{
			"inputs": [
				{
					"internalType": "address",
					"name": "_flashLoanUnderlyingToken",
					"type": "address"
				}
			],
			"name": "swapOneBNBToFlashLoandUnderlyingToken",
			"outputs": [],
			"stateMutability": "nonpayable",
			"type": "function"
		},
		{
			"inputs": [
				{
					"internalType": "address",
					"name": "newOwner",
					"type": "address"
				}
			],
			"name": "transferOwnership",
			"outputs": [],
			"stateMutability": "nonpayable",
			"type": "function"
		},
		{
			"inputs": [
				{
					"internalType": "address",
					"name": "_token",
					"type": "address"
				},
				{
					"internalType": "uint256",
					"name": "_amount",
					"type": "uint256"
				}
			],
			"name": "withdraw",
			"outputs": [],
			"stateMutability": "nonpayable",
			"type": "function"
		},
		{
			"stateMutability": "payable",
			"type": "receive"
		}
	]
}