{
	"data": {
		"bytecode": {
			"linkReferences": {},
			"object": "60806040523480156200001157600080fd5b506200001d3362000023565b62000073565b600080546001600160a01b038381166001600160a01b0319831681178455604051919092169283917f8be0079c531659141344cd1fd0a4f28419497f9722a3daafe3b4186f6b6457e09190a35050565b613f9c80620000836000396000f3fe60806040526004361061008a5760003560e01c80638da5cb5b116100595780638da5cb5b1461010d578063b14e9a721461013a578063d9caed121461015a578063f064b4141461017a578063f2fde38b146101a857600080fd5b80634782f77914610096578063715018a6146100b857806384800812146100cd57806389c33748146100ed57600080fd5b3661009157005b600080fd5b3480156100a257600080fd5b506100b66100b1366004613981565b6101c8565b005b3480156100c457600080fd5b506100b661031f565b3480156100d957600080fd5b506100b66100e83660046139ee565b610355565b3480156100f957600080fd5b506100b6610108366004613947565b611859565b34801561011957600080fd5b506000546040516001600160a01b0390911681526020015b60405180910390f35b34801561014657600080fd5b506100b6610155366004613bbc565b6119bd565b34801561016657600080fd5b506100b66101753660046139ad565b612266565b34801561018657600080fd5b5061019a610195366004613947565b612461565b604051908152602001610131565b3480156101b457600080fd5b506100b66101c3366004613947565b6124f5565b6000546001600160a01b031633146101fb5760405162461bcd60e51b81526004016101f290613d15565b60405180910390fd5b6001600160a01b0382166102515760405162461bcd60e51b815260206004820152601b60248201527f746f206d757374206e6f74206265207a65726f2061646472657373000000000060448201526064016101f2565b600081116102a15760405162461bcd60e51b815260206004820152601c60248201527f616d6f756e74206d75737420626967676572207468616e207a65726f0000000060448201526064016101f2565b6040516001600160a01b0383169082156108fc029083906000818181858888f193505050501580156102d7573d6000803e3d6000fd5b50816001600160a01b03167f566e45b1c8057e725bf62796a7f1d37ae294393cab069725a09daddd1af98b798260405161031391815260200190565b60405180910390a25050565b6000546001600160a01b031633146103495760405162461bcd60e51b81526004016101f290613d15565b6103536000612590565b565b6103c46040518061016001604052806000815260200160006001600160a01b03168152602001606081526020016060815260200160608152602001600081526020016000815260200160006001600160a01b031681526020016000815260200160008152602001600081525090565b6103d082840184613b0f565b60a08701526080860152606085015260408401526001600160a01b031660208301819052908252331461042d5760405162461bcd60e51b815260206004820152600560248201526410b830b4b960d91b60448201526064016101f2565b6001600160a01b038616301461046f5760405162461bcd60e51b815260206004820152600760248201526610b9b2b73232b960c91b60448201526064016101f2565b6126f78160a0015160196104839190613ea7565b61048d9190613e85565b8160a0015161049c9190613e6d565b6104a7906001613e6d565b60c08201526080810151805160049081106104c4576104c4613f25565b60209081029190910101516001600160a01b031660e0820152608081015180516000919060039081106104f9576104f9613f25565b602002602001015190506000826080015160028151811061051c5761051c613f25565b6020026020010151905060608360000151600114156107515761055c846080015160008151811061054f5761054f613f25565b60200260200101516125e0565b61059c5760405162461bcd60e51b81526020600482015260116024820152701896b737ba1039ba30b136329031b7b4b760791b60448201526064016101f2565b83608001516001815181106105b3576105b3613f25565b60200260200101516001600160a01b031684608001516000815181106105db576105db613f25565b60200260200101516001600160a01b03161461062c5760405162461bcd60e51b815260206004820152601060248201526f1896903737ba1039b0b6b29031b7b4b760811b60448201526064016101f2565b610696846080015160008151811061064657610646613f25565b6020026020010151856080015160018151811061066557610665613f25565b6020026020010151866080015160048151811061068457610684613f25565b60200260200101518760a00151612655565b50610100850152608084015180516106ec919060019081106106ba576106ba613f25565b602002602001015185608001516002815181106106d9576106d9613f25565b6020026020010151866101000151612a67565b610120850181905260c0850151106107315760405162461bcd60e51b81526020600482015260086024820152676e6f20657874726160c01b60448201526064016101f2565b8360c001518461012001516107469190613ec6565b610140850152611733565b835160021415610a025761079f846080015160008151811061077557610775613f25565b60200260200101516001600160a01b031673a07c5b74c9b40447a954e1466938b865b6bbea361490565b156109645760a0840151604051632e1a7d4d60e01b8152600481019190915273bb4cdb9cbd36b01bd1cbaebf2de08d9173bc095c90632e1a7d4d90602401600060405180830381600087803b1580156107f757600080fd5b505af115801561080b573d6000803e3d6000fd5b50505050610829846080015160008151811061064657610646613f25565b506101008501526080840151805161084d919060019081106106ba576106ba613f25565b610120850181905260c0850151106108965760405162461bcd60e51b815260206004820152600c60248201526b322e312d6e6f2d657874726160a01b60448201526064016101f2565b73bb4cdb9cbd36b01bd1cbaebf2de08d9173bc095c6001600160a01b031663d0e30db08561012001516040518263ffffffff1660e01b81526004016000604051808303818588803b1580156108ea57600080fd5b505af11580156108fe573d6000803e3d6000fd5b505050505060008460c0015185610120015161091a9190613ec6565b905061092b81866060015130612d56565b9150816001835161093c9190613ec6565b8151811061094c5761094c613f25565b60200260200101518561014001818152505050611733565b61097e846080015160008151811061064657610646613f25565b50610100850152608084015180516109a2919060019081106106ba576106ba613f25565b610120850181905260c0850151106109eb5760405162461bcd60e51b815260206004820152600c60248201526b322e322d6e6f2d657874726160a01b60448201526064016101f2565b60008460c0015185610120015161091a9190613ec6565b835160031415610ca557610a26846080015160018151811061054f5761054f613f25565b610a7c5760405162461bcd60e51b815260206004820152602160248201527f332d7365697a656420746f6b656e206973206e6f7420737461626c6520636f696044820152603760f91b60648201526084016101f2565b610a96846080015160008151811061077557610775613f25565b15610be95760a0840151604051632e1a7d4d60e01b8152600481019190915273bb4cdb9cbd36b01bd1cbaebf2de08d9173bc095c90632e1a7d4d90602401600060405180830381600087803b158015610aee57600080fd5b505af1158015610b02573d6000803e3d6000fd5b50505050610b20846080015160008151811061064657610646613f25565b5061010085015260808401518051610b44919060019081106106ba576106ba613f25565b61012085015260c08401516040850151610b5f919030612e9f565b905080600081518110610b7457610b74613f25565b602002602001015184610120015111610bbe5760405162461bcd60e51b815260206004820152600c60248201526b332e312d6e6f2d657874726160a01b60448201526064016101f2565b80600081518110610bd157610bd1613f25565b60200260200101518461012001516107469190613ec6565b610c03846080015160008151811061064657610646613f25565b5061010085015260808401518051610c27919060019081106106ba576106ba613f25565b61012085015260c08401516040850151610c42919030612e9f565b905080600081518110610c5757610c57613f25565b602002602001015184610120015111610bbe5760405162461bcd60e51b815260206004820152601060248201526f332e322d626e622d6e6f2d657874726160801b60448201526064016101f2565b835160041415610f4c57610cc9846080015160008151811061054f5761054f613f25565b610d155760405162461bcd60e51b815260206004820152601f60248201527f342d7265706179546f6b656e206973206e6f7420737461626c6520636f696e0060448201526064016101f2565b610d2f846080015160018151811061077557610775613f25565b15610e8757610d4e846080015160008151811061064657610646613f25565b5061010085015260808401518051610d72919060019081106106ba576106ba613f25565b8461012001818152505073bb4cdb9cbd36b01bd1cbaebf2de08d9173bc095c6001600160a01b031663d0e30db08561012001516040518263ffffffff1660e01b81526004016000604051808303818588803b158015610dd057600080fd5b505af1158015610de4573d6000803e3d6000fd5b5050505050610dfd846101200151856040015130612d56565b905060008160018351610e109190613ec6565b81518110610e2057610e20613f25565b602002602001015190508460c001518111610e6c5760405162461bcd60e51b815260206004820152600c60248201526b342e312d6e6f20657874726160a01b60448201526064016101f2565b60c0850151610e7b9082613ec6565b61014086015250611733565b610ea1846080015160008151811061064657610646613f25565b5061010085015260808401518051610ec5919060019081106106ba576106ba613f25565b61012085018190526040850151610edd919030612d56565b905060008160018351610ef09190613ec6565b81518110610f0057610f00613f25565b602002602001015190508460c001518111610e6c5760405162461bcd60e51b815260206004820152600c60248201526b342e322d6e6f20657874726160a01b60448201526064016101f2565b83516005141561126457610f70846080015160008151811061077557610775613f25565b156110c55760a0840151604051632e1a7d4d60e01b8152600481019190915273bb4cdb9cbd36b01bd1cbaebf2de08d9173bc095c90632e1a7d4d90602401600060405180830381600087803b158015610fc857600080fd5b505af1158015610fdc573d6000803e3d6000fd5b50505050610ffa846080015160008151811061064657610646613f25565b506101008501526080840151805161101e919060019081106106ba576106ba613f25565b61012085015260c08401516040850151611039919030612e9f565b90508060008151811061104e5761104e613f25565b6020026020010151846101200151116110985760405162461bcd60e51b815260206004820152600c60248201526b352e312d6e6f20657874726160a01b60448201526064016101f2565b6000816000815181106110ad576110ad613f25565b602002602001015185610120015161091a9190613ec6565b6110df846080015160018151811061077557610775613f25565b156111ac576110fe846080015160008151811061064657610646613f25565b5061010085015260808401518051611122919060019081106106ba576106ba613f25565b8461012001818152505073bb4cdb9cbd36b01bd1cbaebf2de08d9173bc095c6001600160a01b031663d0e30db08561012001516040518263ffffffff1660e01b81526004016000604051808303818588803b15801561118057600080fd5b505af1158015611194573d6000803e3d6000fd5b50505050506110398460c00151856040015130612e9f565b6111c6846080015160008151811061064657610646613f25565b50610100850152608084015180516111ea919060019081106106ba576106ba613f25565b61012085015260c08401516040850151611205919030612e9f565b90508060008151811061121a5761121a613f25565b6020026020010151846101200151116110985760405162461bcd60e51b815260206004820152600c60248201526b352e332d6e6f20657874726160a01b60448201526064016101f2565b83516006141561146857611288846080015160018151811061054f5761054f613f25565b6112d45760405162461bcd60e51b815260206004820181905260248201527f362d7365697a6564546f6b656e206973206e6f7420737461626c6520636f696e60448201526064016101f2565b600061134085608001516000815181106112f0576112f0613f25565b6020026020010151866080015160018151811061130f5761130f613f25565b6020026020010151876080015160048151811061132e5761132e613f25565b60200260200101518860a00151612655565b866101000181935082815250505061139a856080015160018151811061136857611368613f25565b6020026020010151866080015160028151811061138757611387613f25565b6020026020010151876101000151612a67565b61012086015260a085015160c0860151600091906113b9908490613e6d565b6113c39190613ec6565b90506113d481876040015130612e9f565b50826000815181106113e8576113e8613f25565b60200260200101518661012001511161142f5760405162461bcd60e51b8152602060048201526009602482015268362d6e6f657874726160b81b60448201526064016101f2565b8260008151811061144257611442613f25565b602002602001015186610120015161145a9190613ec6565b610140870152506117339050565b8351600714156100915761148c846080015160018151811061077557610775613f25565b156116565760006114ad85608001516000815181106112f0576112f0613f25565b86610100018193508281525050506114d5856080015160018151811061136857611368613f25565b8561012001818152505073bb4cdb9cbd36b01bd1cbaebf2de08d9173bc095c6001600160a01b031663d0e30db08661012001516040518263ffffffff1660e01b81526004016000604051808303818588803b15801561153357600080fd5b505af1158015611547573d6000803e3d6000fd5b505050505060008560a00151828760c001516115639190613e6d565b61156d9190613ec6565b905061157e81876040015130612e9f565b92508260008151811061159357611593613f25565b6020026020010151866101200151116115dd5760405162461bcd60e51b815260206004820152600c60248201526b372e312d6e6f20657874726160a01b60448201526064016101f2565b6000836000815181106115f2576115f2613f25565b602002602001015187610120015161160a9190613ec6565b905061161b81886060015130612d56565b9350836001855161162c9190613ec6565b8151811061163c5761163c613f25565b602002602001015187610140018181525050505050611733565b600061167285608001516000815181106112f0576112f0613f25565b866101000181935082815250505061169a856080015160018151811061136857611368613f25565b61012086015260a085015160c0860151600091906116b9908490613e6d565b6116c39190613ec6565b90506116d481876040015130612e9f565b9250826000815181106116e9576116e9613f25565b6020026020010151866101200151116115dd5760405162461bcd60e51b815260206004820152600c60248201526b372e322d6e6f20657874726160a01b60448201526064016101f2565b602084015160c085015160405163a9059cbb60e01b81526001600160a01b0386169263a9059cbb9261177b926004016001600160a01b03929092168252602082015260400190565b602060405180830381600087803b15801561179557600080fd5b505af11580156117a9573d6000803e3d6000fd5b505050506040513d601f19601f820116820180604052508101906117cd9190613a84565b50835160a08086015160c0808801516101208901516101408a0151604080519788526001600160a01b03808c1660208a0152908801959095529388166060870152608086019190915292840192909252908201527fee80f069d389b1636bfe8a115ff1d8ad940b394b4d16bb19c8503003d14dd5b49060e00160405180910390a1505050505050505050565b6000546001600160a01b031633146118835760405162461bcd60e51b81526004016101f290613d15565b6000670de0b6b3a7640000905073bb4cdb9cbd36b01bd1cbaebf2de08d9173bc095c6001600160a01b031663d0e30db0826040518263ffffffff1660e01b81526004016000604051808303818588803b1580156118df57600080fd5b505af11580156118f3573d6000803e3d6000fd5b506000935060029250611904915050565b60405190808252806020026020018201604052801561192d578160200160208202803683370190505b50905073bb4cdb9cbd36b01bd1cbaebf2de08d9173bc095c8160008151811061195857611958613f25565b60200260200101906001600160a01b031690816001600160a01b031681525050828160018151811061198c5761198c613f25565b60200260200101906001600160a01b031690816001600160a01b0316815250506119b7828230612d56565b50505050565b600189101580156119cf575060078911155b611a065760405162461bcd60e51b815260206004820152600860248201526777726f6e6720736960c01b60448201526064016101f2565b6001600160a01b038816611a445760405162461bcd60e51b815260206004820152600560248201526410b830b4b960d91b60448201526064016101f2565b600073fd36e2c2a6789db23113685031d7f16329158384635ec88c7985856004818110611a7357611a73613f25565b9050602002016020810190611a889190613947565b6040516001600160e01b031960e084901b1681526001600160a01b03909116600482015260240160606040518083038186803b158015611ac757600080fd5b505afa158015611adb573d6000803e3d6000fd5b505050506040513d601f19601f82011682018060405250810190611aff9190613c9e565b9250505060008111611b5d5760405162461bcd60e51b815260206004820152602160248201527f73686f727466616c6c206d7573742067726561746572207468616e207a6572206044820152600360fc1b60648201526084016101f2565b600073fd36e2c2a6789db23113685031d7f163291583846001600160a01b031663e87554466040518163ffffffff1660e01b815260040160206040518083038186803b158015611bac57600080fd5b505afa158015611bc0573d6000803e3d6000fd5b505050506040513d601f19601f82011682018060405250810190611be49190613af6565b9050600060068c1015611ccd5785856000818110611c0457611c04613f25565b9050602002016020810190611c199190613947565b6001600160a01b03166395dd919387876004818110611c3a57611c3a613f25565b9050602002016020810190611c4f9190613947565b6040516001600160e01b031960e084901b1681526001600160a01b03909116600482015260240160206040518083038186803b158015611c8e57600080fd5b505afa158015611ca2573d6000803e3d6000fd5b505050506040513d601f19601f82011682018060405250810190611cc69190613af6565b9050611d89565b73fd36e2c2a6789db23113685031d7f16329158384632bc7e29e87876004818110611cfa57611cfa613f25565b9050602002016020810190611d0f9190613947565b6040516001600160e01b031960e084901b1681526001600160a01b03909116600482015260240160206040518083038186803b158015611d4e57600080fd5b505afa158015611d62573d6000803e3d6000fd5b505050506040513d601f19601f82011682018060405250810190611d869190613af6565b90505b6000670de0b6b3a7640000611d9e8484613ea7565b611da89190613e85565b905080851115611e205760405162461bcd60e51b815260206004820152603760248201527f666c6173686c6f616e416d6f756e74206d757374206265206c6573732074686160448201527f6e206d6178416c6c6f7765645265706179416d6f756e7400000000000000000060648201526084016101f2565b505050506001600084846003818110611e3b57611e3b613f25565b9050602002016020810190611e509190613947565b6001600160a01b03166001600160a01b03168152602001908152602001600020600084846000818110611e8557611e85613f25565b9050602002016020810190611e9a9190613947565b6001600160a01b0316815260208101919091526040016000205460ff1661203b5782826003818110611ece57611ece613f25565b9050602002016020810190611ee39190613947565b6001600160a01b031663095ea7b384846000818110611f0457611f04613f25565b9050602002016020810190611f199190613947565b6040516001600160e01b031960e084901b1681526001600160a01b0390911660048201526000196024820152604401602060405180830381600087803b158015611f6257600080fd5b505af1158015611f76573d6000803e3d6000fd5b505050506040513d601f19601f82011682018060405250810190611f9a9190613a84565b50600180600085856003818110611fb357611fb3613f25565b9050602002016020810190611fc89190613947565b6001600160a01b03166001600160a01b03168152602001908152602001600020600085856000818110611ffd57611ffd613f25565b90506020020160208101906120129190613947565b6001600160a01b031681526020810191909152604001600020805460ff19169115159190911790555b6000886001600160a01b0316630dfe16816040518163ffffffff1660e01b815260040160206040518083038186803b15801561207657600080fd5b505afa15801561208a573d6000803e3d6000fd5b505050506040513d601f19601f820116820180604052508101906120ae9190613964565b90506000896001600160a01b031663d21220a76040518163ffffffff1660e01b815260040160206040518083038186803b1580156120eb57600080fd5b505afa1580156120ff573d6000803e3d6000fd5b505050506040513d601f19601f820116820180604052508101906121239190613964565b90506000826001600160a01b03168686600381811061214457612144613f25565b90506020020160208101906121599190613947565b6001600160a01b03161461216e576000612170565b835b90506000826001600160a01b03168787600381811061219157612191613f25565b90506020020160208101906121a69190613947565b6001600160a01b0316146121bb5760006121bd565b845b905060008d8d8d8d8d8d8d8d8d6040516020016121e299989796959493929190613d90565b60408051601f198184030181529082905263022c0d9f60e01b825291506001600160a01b038e169063022c0d9f90612224908690869030908790600401613dfa565b600060405180830381600087803b15801561223e57600080fd5b505af1158015612252573d6000803e3d6000fd5b505050505050505050505050505050505050565b6000546001600160a01b031633146122905760405162461bcd60e51b81526004016101f290613d15565b6001600160a01b0383166122e65760405162461bcd60e51b815260206004820152601e60248201527f746f6b656e206d757374206e6f74206265207a65726f2061646472657373000060448201526064016101f2565b6001600160a01b03821661233c5760405162461bcd60e51b815260206004820152601b60248201527f746f206d757374206e6f74206265207a65726f2061646472657373000000000060448201526064016101f2565b6000811161238c5760405162461bcd60e51b815260206004820152601c60248201527f616d6f756e74206d75737420626967676572207468616e207a65726f0000000060448201526064016101f2565b60405163a9059cbb60e01b81526001600160a01b0383811660048301526024820183905284169063a9059cbb90604401602060405180830381600087803b1580156123d657600080fd5b505af11580156123ea573d6000803e3d6000fd5b505050506040513d601f19601f8201168201806040525081019061240e9190613a84565b50816001600160a01b0316836001600160a01b03167f9b1bfa7fa9ee420a16e124f794c35ac9f90472acc99140eb2f6447c714cad8eb8360405161245491815260200190565b60405180910390a3505050565b6040516315e3f14f60e11b81526001600160a01b038216600482015260009073fd36e2c2a6789db23113685031d7f1632915838490632bc7e29e9060240160206040518083038186803b1580156124b757600080fd5b505afa1580156124cb573d6000803e3d6000fd5b505050506040513d601f19601f820116820180604052508101906124ef9190613af6565b92915050565b6000546001600160a01b0316331461251f5760405162461bcd60e51b81526004016101f290613d15565b6001600160a01b0381166125845760405162461bcd60e51b815260206004820152602660248201527f4f776e61626c653a206e6577206f776e657220697320746865207a65726f206160448201526564647265737360d01b60648201526084016101f2565b61258d81612590565b50565b600080546001600160a01b038381166001600160a01b0319831681178455604051919092169283917f8be0079c531659141344cd1fd0a4f28419497f9722a3daafe3b4186f6b6457e09190a35050565b60006001600160a01b0382167395c78222b3d6e262426483d42cfa53685a67ab9d148061262957506001600160a01b03821673fd5840cd36d94d7229439859c0112a4185bc0255145b806124ef57506001600160a01b03821673334b3ecb4dca3593bccc3c7ebd1a1c1d1780fbf11492915050565b6040516370a0823160e01b8152306004820152600090819085908290819081906001600160a01b038516906370a082319060240160206040518083038186803b1580156126a157600080fd5b505afa1580156126b5573d6000803e3d6000fd5b505050506040513d601f19601f820116820180604052508101906126d99190613af6565b905073a07c5b74c9b40447a954e1466938b865b6bbea366001600160a01b038b16141561276a57604051635572051560e11b81526001600160a01b0389811660048301528a811660248301528b169063aae40a2a9089906044016000604051808303818588803b15801561274c57600080fd5b505af1158015612760573d6000803e3d6000fd5b505050505061293b565b724065d34c6b18ce4370ced1cebde94865dbfafe6001600160a01b038b161415612867576040516311b3d5e760e01b81526001600160a01b0389811660048301526024820189905285811660448301528b16906311b3d5e7906064016040805180830381600087803b1580156127df57600080fd5b505af11580156127f3573d6000803e3d6000fd5b505050506040513d601f19601f820116820180604052508101906128179190613c7a565b909350915082156128625760405162461bcd60e51b81526020600482015260156024820152743634b8bab4b230ba32a137b93937bb9032b93937b960591b60448201526064016101f2565b61293b565b604051637af1e23160e11b81526001600160a01b0389811660048301526024820189905285811660448301528b919082169063f5e3c46290606401602060405180830381600087803b1580156128bc57600080fd5b505af11580156128d0573d6000803e3d6000fd5b505050506040513d601f19601f820116820180604052508101906128f49190613af6565b156129395760405162461bcd60e51b81526020600482015260156024820152743634b8bab4b230ba32a137b93937bb9032b93937b960591b60448201526064016101f2565b505b6040516370a0823160e01b81523060048201526000906001600160a01b038616906370a082319060240160206040518083038186803b15801561297d57600080fd5b505afa158015612991573d6000803e3d6000fd5b505050506040513d601f19601f820116820180604052508101906129b59190613af6565b905060006129c38383613ec6565b905060008111612a155760405162461bcd60e51b815260206004820152601c60248201527f7365697a65642056546f6b656e20616d6f756e74206973207a65726f0000000060448201526064016101f2565b604080518a8152602081018690529081018290527ffde0eb536fecee7fca644722fc2e6255ee0571307ab7f46f7fea23fe302d44799060600160405180910390a19b929a509198505050505050505050565b600080808073a07c5b74c9b40447a954e1466938b865b6bbea366001600160a01b0388161415612b545760405163db006a7560e01b8152600481018690524793506001600160a01b0388169063db006a7590602401602060405180830381600087803b158015612ad657600080fd5b505af1158015612aea573d6000803e3d6000fd5b505050506040513d601f19601f82011682018060405250810190612b0e9190613af6565b15612b4c5760405162461bcd60e51b815260206004820152600e60248201526d3932b232b2b6902127211032b93960911b60448201526064016101f2565b479150612d04565b6040516370a0823160e01b8152306004820152879087906001600160a01b038216906370a082319060240160206040518083038186803b158015612b9757600080fd5b505afa158015612bab573d6000803e3d6000fd5b505050506040513d601f19601f82011682018060405250810190612bcf9190613af6565b60405163db006a7560e01b8152600481018990529095506001600160a01b0383169063db006a7590602401602060405180830381600087803b158015612c1457600080fd5b505af1158015612c28573d6000803e3d6000fd5b505050506040513d601f19601f82011682018060405250810190612c4c9190613af6565b15612c885760405162461bcd60e51b815260206004820152600c60248201526b3932b232b2b69032b93937b960a11b60448201526064016101f2565b6040516370a0823160e01b81523060048201526001600160a01b038216906370a082319060240160206040518083038186803b158015612cc757600080fd5b505afa158015612cdb573d6000803e3d6000fd5b505050506040513d601f19601f82011682018060405250810190612cff9190613af6565b935050505b612d0e8383613ec6565b60408051878152602081018390529192507f2a500c424b9e55ca96ef57f09281232662a42069de49730505b2bbd019412dcf910160405180910390a1925050505b9392505050565b6060612d7773ca143ce32fe78f1f7019d7d551a6402fc5350c738585612ec0565b905082600081518110612d8c57612d8c613f25565b60200260200101516001600160a01b031663a9059cbb612df573ca143ce32fe78f1f7019d7d551a6402fc5350c7386600081518110612dcd57612dcd613f25565b602002602001015187600181518110612de857612de8613f25565b602002602001015161304b565b83600081518110612e0857612e08613f25565b60200260200101516040518363ffffffff1660e01b8152600401612e419291906001600160a01b03929092168252602082015260400190565b602060405180830381600087803b158015612e5b57600080fd5b505af1158015612e6f573d6000803e3d6000fd5b505050506040513d601f19601f82011682018060405250810190612e939190613a84565b50612d4f818484613123565b6060612d7773ca143ce32fe78f1f7019d7d551a6402fc5350c738585613300565b6060600282511015612f145760405162461bcd60e51b815260206004820152601c60248201527f50616e63616b654c6962726172793a20494e56414c49445f504154480000000060448201526064016101f2565b815167ffffffffffffffff811115612f2e57612f2e613f3b565b604051908082528060200260200182016040528015612f57578160200160208202803683370190505b5090508281600081518110612f6e57612f6e613f25565b60200260200101818152505060005b60018351612f8b9190613ec6565b81101561304357600080612fde87868581518110612fab57612fab613f25565b602002602001015187866001612fc19190613e6d565b81518110612fd157612fd1613f25565b6020026020010151613481565b91509150613006848481518110612ff757612ff7613f25565b60200260200101518383613566565b84613012856001613e6d565b8151811061302257613022613f25565b6020026020010181815250505050808061303b90613ef4565b915050612f7d565b509392505050565b600080600061305a8585613642565b6040516bffffffffffffffffffffffff19606084811b8216602084015283901b16603482015291935091508690604801604051602081830303815290604052805190602001206040516020016131019291906001600160f81b0319815260609290921b6bffffffffffffffffffffffff1916600183015260158201527efb7f630766e6a796048ea87d01acd3068e8ff67d078148a3fa3f4a84f69bd5603582015260550190565b60408051601f1981840301815291905280516020909101209695505050505050565b60005b600183516131349190613ec6565b8110156119b75760008084838151811061315057613150613f25565b6020026020010151858460016131669190613e6d565b8151811061317657613176613f25565b602002602001015191509150600061318e8383613642565b50905060008761319f866001613e6d565b815181106131af576131af613f25565b60200260200101519050600080836001600160a01b0316866001600160a01b0316146131dd578260006131e1565b6000835b91509150600060028a516131f59190613ec6565b88106132015788613236565b61323673ca143ce32fe78f1f7019d7d551a6402fc5350c73878c6132268c6002613e6d565b81518110612de857612de8613f25565b905061325773ca143ce32fe78f1f7019d7d551a6402fc5350c73888861304b565b6001600160a01b031663022c0d9f84848460006040519080825280601f01601f191660200182016040528015613294576020820181803683370190505b506040518563ffffffff1660e01b81526004016132b49493929190613dfa565b600060405180830381600087803b1580156132ce57600080fd5b505af11580156132e2573d6000803e3d6000fd5b505050505050505050505080806132f890613ef4565b915050613126565b60606002825110156133545760405162461bcd60e51b815260206004820152601c60248201527f50616e63616b654c6962726172793a20494e56414c49445f504154480000000060448201526064016101f2565b815167ffffffffffffffff81111561336e5761336e613f3b565b604051908082528060200260200182016040528015613397578160200160208202803683370190505b5090508281600183516133aa9190613ec6565b815181106133ba576133ba613f25565b6020026020010181815250506000600183516133d69190613ec6565b90505b80156130435760008061341c87866133f2600187613ec6565b8151811061340257613402613f25565b6020026020010151878681518110612fd157612fd1613f25565b9150915061344484848151811061343557613435613f25565b60200260200101518383613738565b84613450600186613ec6565b8151811061346057613460613f25565b6020026020010181815250505050808061347990613edd565b9150506133d9565b60008060006134908585613642565b50905061349e86868661304b565b506000806134ad88888861304b565b6001600160a01b0316630902f1ac6040518163ffffffff1660e01b815260040160606040518083038186803b1580156134e557600080fd5b505afa1580156134f9573d6000803e3d6000fd5b505050506040513d601f19601f8201168201806040525081019061351d9190613aa6565b506001600160701b031691506001600160701b03169150826001600160a01b0316876001600160a01b031614613554578082613557565b81815b90999098509650505050505050565b60008084116135c95760405162461bcd60e51b815260206004820152602960248201527f50616e63616b654c6962726172793a20494e53554646494349454e545f494e50604482015268155517d05353d5539560ba1b60648201526084016101f2565b6000831180156135d95750600082115b6135f55760405162461bcd60e51b81526004016101f290613d4a565b6000613603856126f761380f565b90506000613611828561380f565b9050600061362b836136258861271061380f565b9061381b565b90506136378183613e85565b979650505050505050565b600080826001600160a01b0316846001600160a01b031614156136b35760405162461bcd60e51b815260206004820152602360248201527f50616e63616b654c6962726172793a204944454e544943414c5f41444452455360448201526253455360e81b60648201526084016101f2565b826001600160a01b0316846001600160a01b0316106136d35782846136d6565b83835b90925090506001600160a01b0382166137315760405162461bcd60e51b815260206004820152601c60248201527f50616e63616b654c6962726172793a205a45524f5f414444524553530000000060448201526064016101f2565b9250929050565b600080841161379c5760405162461bcd60e51b815260206004820152602a60248201527f50616e63616b654c6962726172793a20494e53554646494349454e545f4f555460448201526914155517d05353d5539560b21b60648201526084016101f2565b6000831180156137ac5750600082115b6137c85760405162461bcd60e51b81526004016101f290613d4a565b60006137e06127106137da868861380f565b9061380f565b905060006137f46126f76137da8689613827565b905061380560016136258385613e85565b9695505050505050565b6000612d4f8284613ea7565b6000612d4f8284613e6d565b6000612d4f8284613ec6565b803561383e81613f51565b919050565b60008083601f84011261385557600080fd5b50813567ffffffffffffffff81111561386d57600080fd5b6020830191508360208260051b850101111561373157600080fd5b600082601f83011261389957600080fd5b8135602067ffffffffffffffff808311156138b6576138b6613f3b565b8260051b604051601f19603f830116810181811084821117156138db576138db613f3b565b604052848152838101925086840182880185018910156138fa57600080fd5b600092505b858310156139245761391081613833565b8452928401926001929092019184016138ff565b50979650505050505050565b80516001600160701b038116811461383e57600080fd5b60006020828403121561395957600080fd5b8135612d4f81613f51565b60006020828403121561397657600080fd5b8151612d4f81613f51565b6000806040838503121561399457600080fd5b823561399f81613f51565b946020939093013593505050565b6000806000606084860312156139c257600080fd5b83356139cd81613f51565b925060208401356139dd81613f51565b929592945050506040919091013590565b600080600080600060808688031215613a0657600080fd5b8535613a1181613f51565b94506020860135935060408601359250606086013567ffffffffffffffff80821115613a3c57600080fd5b818801915088601f830112613a5057600080fd5b813581811115613a5f57600080fd5b896020828501011115613a7157600080fd5b9699959850939650602001949392505050565b600060208284031215613a9657600080fd5b81518015158114612d4f57600080fd5b600080600060608486031215613abb57600080fd5b613ac484613930565b9250613ad260208501613930565b9150604084015163ffffffff81168114613aeb57600080fd5b809150509250925092565b600060208284031215613b0857600080fd5b5051919050565b60008060008060008060c08789031215613b2857600080fd5b863595506020870135613b3a81613f51565b9450604087013567ffffffffffffffff80821115613b5757600080fd5b613b638a838b01613888565b95506060890135915080821115613b7957600080fd5b613b858a838b01613888565b94506080890135915080821115613b9b57600080fd5b50613ba889828a01613888565b92505060a087013590509295509295509295565b600080600080600080600080600060c08a8c031215613bda57600080fd5b8935985060208a0135613bec81613f51565b975060408a013567ffffffffffffffff80821115613c0957600080fd5b613c158d838e01613843565b909950975060608c0135915080821115613c2e57600080fd5b613c3a8d838e01613843565b909750955060808c0135915080821115613c5357600080fd5b50613c608c828d01613843565b9a9d999c50979a9699959894979660a00135949350505050565b60008060408385031215613c8d57600080fd5b505080516020909101519092909150565b600080600060608486031215613cb357600080fd5b8351925060208401519150604084015190509250925092565b8183526000602080850194508260005b85811015613d0a578135613cef81613f51565b6001600160a01b031687529582019590820190600101613cdc565b509495945050505050565b6020808252818101527f4f776e61626c653a2063616c6c6572206973206e6f7420746865206f776e6572604082015260600190565b60208082526026908201527f50616e63616b654c6962726172793a20494e53554646494349454e545f4c495160408201526555494449545960d01b606082015260800190565b8981526001600160a01b038916602082015260c060408201819052600090613dbb908301898b613ccc565b8281036060840152613dce81888a613ccc565b90508281036080840152613de3818688613ccc565b9150508260a08301529a9950505050505050505050565b84815260006020858184015260018060a01b038516604084015260806060840152835180608085015260005b81811015613e425785810183015185820160a001528201613e26565b81811115613e5457600060a083870101525b50601f01601f19169290920160a0019695505050505050565b60008219821115613e8057613e80613f0f565b500190565b600082613ea257634e487b7160e01b600052601260045260246000fd5b500490565b6000816000190483118215151615613ec157613ec1613f0f565b500290565b600082821015613ed857613ed8613f0f565b500390565b600081613eec57613eec613f0f565b506000190190565b6000600019821415613f0857613f08613f0f565b5060010190565b634e487b7160e01b600052601160045260246000fd5b634e487b7160e01b600052603260045260246000fd5b634e487b7160e01b600052604160045260246000fd5b6001600160a01b038116811461258d57600080fdfea2646970667358221220516c5ff2ee915db4d73fbcc71d305c960e0e082d961fc1af60cb710bd1f899ca64736f6c63430008070033",
			"opcodes": "PUSH1 0x80 PUSH1 0x40 MSTORE CALLVALUE DUP1 ISZERO PUSH3 0x11 JUMPI PUSH1 0x0 DUP1 REVERT JUMPDEST POP PUSH3 0x1D CALLER PUSH3 0x23 JUMP JUMPDEST PUSH3 0x73 JUMP JUMPDEST PUSH1 0x0 DUP1 SLOAD PUSH1 0x1 PUSH1 0x1 PUSH1 0xA0 SHL SUB DUP4 DUP2 AND PUSH1 0x1 PUSH1 0x1 PUSH1 0xA0 SHL SUB NOT DUP4 AND DUP2 OR DUP5 SSTORE PUSH1 0x40 MLOAD SWAP2 SWAP1 SWAP3 AND SWAP3 DUP4 SWAP2 PUSH32 0x8BE0079C531659141344CD1FD0A4F28419497F9722A3DAAFE3B4186F6B6457E0 SWAP2 SWAP1 LOG3 POP POP JUMP JUMPDEST PUSH2 0x3F9C DUP1 PUSH3 0x83 PUSH1 0x0 CODECOPY PUSH1 0x0 RETURN INVALID PUSH1 0x80 PUSH1 0x40 MSTORE PUSH1 0x4 CALLDATASIZE LT PUSH2 0x8A JUMPI PUSH1 0x0 CALLDATALOAD PUSH1 0xE0 SHR DUP1 PUSH4 0x8DA5CB5B GT PUSH2 0x59 JUMPI DUP1 PUSH4 0x8DA5CB5B EQ PUSH2 0x10D JUMPI DUP1 PUSH4 0xB14E9A72 EQ PUSH2 0x13A JUMPI DUP1 PUSH4 0xD9CAED12 EQ PUSH2 0x15A JUMPI DUP1 PUSH4 0xF064B414 EQ PUSH2 0x17A JUMPI DUP1 PUSH4 0xF2FDE38B EQ PUSH2 0x1A8 JUMPI PUSH1 0x0 DUP1 REVERT JUMPDEST DUP1 PUSH4 0x4782F779 EQ PUSH2 0x96 JUMPI DUP1 PUSH4 0x715018A6 EQ PUSH2 0xB8 JUMPI DUP1 PUSH4 0x84800812 EQ PUSH2 0xCD JUMPI DUP1 PUSH4 0x89C33748 EQ PUSH2 0xED JUMPI PUSH1 0x0 DUP1 REVERT JUMPDEST CALLDATASIZE PUSH2 0x91 JUMPI STOP JUMPDEST PUSH1 0x0 DUP1 REVERT JUMPDEST CALLVALUE DUP1 ISZERO PUSH2 0xA2 JUMPI PUSH1 0x0 DUP1 REVERT JUMPDEST POP PUSH2 0xB6 PUSH2 0xB1 CALLDATASIZE PUSH1 0x4 PUSH2 0x3981 JUMP JUMPDEST PUSH2 0x1C8 JUMP JUMPDEST STOP JUMPDEST CALLVALUE DUP1 ISZERO PUSH2 0xC4 JUMPI PUSH1 0x0 DUP1 REVERT JUMPDEST POP PUSH2 0xB6 PUSH2 0x31F JUMP JUMPDEST CALLVALUE DUP1 ISZERO PUSH2 0xD9 JUMPI PUSH1 0x0 DUP1 REVERT JUMPDEST POP PUSH2 0xB6 PUSH2 0xE8 CALLDATASIZE PUSH1 0x4 PUSH2 0x39EE JUMP JUMPDEST PUSH2 0x355 JUMP JUMPDEST CALLVALUE DUP1 ISZERO PUSH2 0xF9 JUMPI PUSH1 0x0 DUP1 REVERT JUMPDEST POP PUSH2 0xB6 PUSH2 0x108 CALLDATASIZE PUSH1 0x4 PUSH2 0x3947 JUMP JUMPDEST PUSH2 0x1859 JUMP JUMPDEST CALLVALUE DUP1 ISZERO PUSH2 0x119 JUMPI PUSH1 0x0 DUP1 REVERT JUMPDEST POP PUSH1 0x0 SLOAD PUSH1 0x40 MLOAD PUSH1 0x1 PUSH1 0x1 PUSH1 0xA0 SHL SUB SWAP1 SWAP2 AND DUP2 MSTORE PUSH1 0x20 ADD JUMPDEST PUSH1 0x40 MLOAD DUP1 SWAP2 SUB SWAP1 RETURN JUMPDEST CALLVALUE DUP1 ISZERO PUSH2 0x146 JUMPI PUSH1 0x0 DUP1 REVERT JUMPDEST POP PUSH2 0xB6 PUSH2 0x155 CALLDATASIZE PUSH1 0x4 PUSH2 0x3BBC JUMP JUMPDEST PUSH2 0x19BD JUMP JUMPDEST CALLVALUE DUP1 ISZERO PUSH2 0x166 JUMPI PUSH1 0x0 DUP1 REVERT JUMPDEST POP PUSH2 0xB6 PUSH2 0x175 CALLDATASIZE PUSH1 0x4 PUSH2 0x39AD JUMP JUMPDEST PUSH2 0x2266 JUMP JUMPDEST CALLVALUE DUP1 ISZERO PUSH2 0x186 JUMPI PUSH1 0x0 DUP1 REVERT JUMPDEST POP PUSH2 0x19A PUSH2 0x195 CALLDATASIZE PUSH1 0x4 PUSH2 0x3947 JUMP JUMPDEST PUSH2 0x2461 JUMP JUMPDEST PUSH1 0x40 MLOAD SWAP1 DUP2 MSTORE PUSH1 0x20 ADD PUSH2 0x131 JUMP JUMPDEST CALLVALUE DUP1 ISZERO PUSH2 0x1B4 JUMPI PUSH1 0x0 DUP1 REVERT JUMPDEST POP PUSH2 0xB6 PUSH2 0x1C3 CALLDATASIZE PUSH1 0x4 PUSH2 0x3947 JUMP JUMPDEST PUSH2 0x24F5 JUMP JUMPDEST PUSH1 0x0 SLOAD PUSH1 0x1 PUSH1 0x1 PUSH1 0xA0 SHL SUB AND CALLER EQ PUSH2 0x1FB JUMPI PUSH1 0x40 MLOAD PUSH3 0x461BCD PUSH1 0xE5 SHL DUP2 MSTORE PUSH1 0x4 ADD PUSH2 0x1F2 SWAP1 PUSH2 0x3D15 JUMP JUMPDEST PUSH1 0x40 MLOAD DUP1 SWAP2 SUB SWAP1 REVERT JUMPDEST PUSH1 0x1 PUSH1 0x1 PUSH1 0xA0 SHL SUB DUP3 AND PUSH2 0x251 JUMPI PUSH1 0x40 MLOAD PUSH3 0x461BCD PUSH1 0xE5 SHL DUP2 MSTORE PUSH1 0x20 PUSH1 0x4 DUP3 ADD MSTORE PUSH1 0x1B PUSH1 0x24 DUP3 ADD MSTORE PUSH32 0x746F206D757374206E6F74206265207A65726F20616464726573730000000000 PUSH1 0x44 DUP3 ADD MSTORE PUSH1 0x64 ADD PUSH2 0x1F2 JUMP JUMPDEST PUSH1 0x0 DUP2 GT PUSH2 0x2A1 JUMPI PUSH1 0x40 MLOAD PUSH3 0x461BCD PUSH1 0xE5 SHL DUP2 MSTORE PUSH1 0x20 PUSH1 0x4 DUP3 ADD MSTORE PUSH1 0x1C PUSH1 0x24 DUP3 ADD MSTORE PUSH32 0x616D6F756E74206D75737420626967676572207468616E207A65726F00000000 PUSH1 0x44 DUP3 ADD MSTORE PUSH1 0x64 ADD PUSH2 0x1F2 JUMP JUMPDEST PUSH1 0x40 MLOAD PUSH1 0x1 PUSH1 0x1 PUSH1 0xA0 SHL SUB DUP4 AND SWAP1 DUP3 ISZERO PUSH2 0x8FC MUL SWAP1 DUP4 SWAP1 PUSH1 0x0 DUP2 DUP2 DUP2 DUP6 DUP9 DUP9 CALL SWAP4 POP POP POP POP ISZERO DUP1 ISZERO PUSH2 0x2D7 JUMPI RETURNDATASIZE PUSH1 0x0 DUP1 RETURNDATACOPY RETURNDATASIZE PUSH1 0x0 REVERT JUMPDEST POP DUP2 PUSH1 0x1 PUSH1 0x1 PUSH1 0xA0 SHL SUB AND PUSH32 0x566E45B1C8057E725BF62796A7F1D37AE294393CAB069725A09DADDD1AF98B79 DUP3 PUSH1 0x40 MLOAD PUSH2 0x313 SWAP2 DUP2 MSTORE PUSH1 0x20 ADD SWAP1 JUMP JUMPDEST PUSH1 0x40 MLOAD DUP1 SWAP2 SUB SWAP1 LOG2 POP POP JUMP JUMPDEST PUSH1 0x0 SLOAD PUSH1 0x1 PUSH1 0x1 PUSH1 0xA0 SHL SUB AND CALLER EQ PUSH2 0x349 JUMPI PUSH1 0x40 MLOAD PUSH3 0x461BCD PUSH1 0xE5 SHL DUP2 MSTORE PUSH1 0x4 ADD PUSH2 0x1F2 SWAP1 PUSH2 0x3D15 JUMP JUMPDEST PUSH2 0x353 PUSH1 0x0 PUSH2 0x2590 JUMP JUMPDEST JUMP JUMPDEST PUSH2 0x3C4 PUSH1 0x40 MLOAD DUP1 PUSH2 0x160 ADD PUSH1 0x40 MSTORE DUP1 PUSH1 0x0 DUP2 MSTORE PUSH1 0x20 ADD PUSH1 0x0 PUSH1 0x1 PUSH1 0x1 PUSH1 0xA0 SHL SUB AND DUP2 MSTORE PUSH1 0x20 ADD PUSH1 0x60 DUP2 MSTORE PUSH1 0x20 ADD PUSH1 0x60 DUP2 MSTORE PUSH1 0x20 ADD PUSH1 0x60 DUP2 MSTORE PUSH1 0x20 ADD PUSH1 0x0 DUP2 MSTORE PUSH1 0x20 ADD PUSH1 0x0 DUP2 MSTORE PUSH1 0x20 ADD PUSH1 0x0 PUSH1 0x1 PUSH1 0x1 PUSH1 0xA0 SHL SUB AND DUP2 MSTORE PUSH1 0x20 ADD PUSH1 0x0 DUP2 MSTORE PUSH1 0x20 ADD PUSH1 0x0 DUP2 MSTORE PUSH1 0x20 ADD PUSH1 0x0 DUP2 MSTORE POP SWAP1 JUMP JUMPDEST PUSH2 0x3D0 DUP3 DUP5 ADD DUP5 PUSH2 0x3B0F JUMP JUMPDEST PUSH1 0xA0 DUP8 ADD MSTORE PUSH1 0x80 DUP7 ADD MSTORE PUSH1 0x60 DUP6 ADD MSTORE PUSH1 0x40 DUP5 ADD MSTORE PUSH1 0x1 PUSH1 0x1 PUSH1 0xA0 SHL SUB AND PUSH1 0x20 DUP4 ADD DUP2 SWAP1 MSTORE SWAP1 DUP3 MSTORE CALLER EQ PUSH2 0x42D JUMPI PUSH1 0x40 MLOAD PUSH3 0x461BCD PUSH1 0xE5 SHL DUP2 MSTORE PUSH1 0x20 PUSH1 0x4 DUP3 ADD MSTORE PUSH1 0x5 PUSH1 0x24 DUP3 ADD MSTORE PUSH5 0x10B830B4B9 PUSH1 0xD9 SHL PUSH1 0x44 DUP3 ADD MSTORE PUSH1 0x64 ADD PUSH2 0x1F2 JUMP JUMPDEST PUSH1 0x1 PUSH1 0x1 PUSH1 0xA0 SHL SUB DUP7 AND ADDRESS EQ PUSH2 0x46F JUMPI PUSH1 0x40 MLOAD PUSH3 0x461BCD PUSH1 0xE5 SHL DUP2 MSTORE PUSH1 0x20 PUSH1 0x4 DUP3 ADD MSTORE PUSH1 0x7 PUSH1 0x24 DUP3 ADD MSTORE PUSH7 0x10B9B2B73232B9 PUSH1 0xC9 SHL PUSH1 0x44 DUP3 ADD MSTORE PUSH1 0x64 ADD PUSH2 0x1F2 JUMP JUMPDEST PUSH2 0x26F7 DUP2 PUSH1 0xA0 ADD MLOAD PUSH1 0x19 PUSH2 0x483 SWAP2 SWAP1 PUSH2 0x3EA7 JUMP JUMPDEST PUSH2 0x48D SWAP2 SWAP1 PUSH2 0x3E85 JUMP JUMPDEST DUP2 PUSH1 0xA0 ADD MLOAD PUSH2 0x49C SWAP2 SWAP1 PUSH2 0x3E6D JUMP JUMPDEST PUSH2 0x4A7 SWAP1 PUSH1 0x1 PUSH2 0x3E6D JUMP JUMPDEST PUSH1 0xC0 DUP3 ADD MSTORE PUSH1 0x80 DUP2 ADD MLOAD DUP1 MLOAD PUSH1 0x4 SWAP1 DUP2 LT PUSH2 0x4C4 JUMPI PUSH2 0x4C4 PUSH2 0x3F25 JUMP JUMPDEST PUSH1 0x20 SWAP1 DUP2 MUL SWAP2 SWAP1 SWAP2 ADD ADD MLOAD PUSH1 0x1 PUSH1 0x1 PUSH1 0xA0 SHL SUB AND PUSH1 0xE0 DUP3 ADD MSTORE PUSH1 0x80 DUP2 ADD MLOAD DUP1 MLOAD PUSH1 0x0 SWAP2 SWAP1 PUSH1 0x3 SWAP1 DUP2 LT PUSH2 0x4F9 JUMPI PUSH2 0x4F9 PUSH2 0x3F25 JUMP JUMPDEST PUSH1 0x20 MUL PUSH1 0x20 ADD ADD MLOAD SWAP1 POP PUSH1 0x0 DUP3 PUSH1 0x80 ADD MLOAD PUSH1 0x2 DUP2 MLOAD DUP2 LT PUSH2 0x51C JUMPI PUSH2 0x51C PUSH2 0x3F25 JUMP JUMPDEST PUSH1 0x20 MUL PUSH1 0x20 ADD ADD MLOAD SWAP1 POP PUSH1 0x60 DUP4 PUSH1 0x0 ADD MLOAD PUSH1 0x1 EQ ISZERO PUSH2 0x751 JUMPI PUSH2 0x55C DUP5 PUSH1 0x80 ADD MLOAD PUSH1 0x0 DUP2 MLOAD DUP2 LT PUSH2 0x54F JUMPI PUSH2 0x54F PUSH2 0x3F25 JUMP JUMPDEST PUSH1 0x20 MUL PUSH1 0x20 ADD ADD MLOAD PUSH2 0x25E0 JUMP JUMPDEST PUSH2 0x59C JUMPI PUSH1 0x40 MLOAD PUSH3 0x461BCD PUSH1 0xE5 SHL DUP2 MSTORE PUSH1 0x20 PUSH1 0x4 DUP3 ADD MSTORE PUSH1 0x11 PUSH1 0x24 DUP3 ADD MSTORE PUSH17 0x1896B737BA1039BA30B136329031B7B4B7 PUSH1 0x79 SHL PUSH1 0x44 DUP3 ADD MSTORE PUSH1 0x64 ADD PUSH2 0x1F2 JUMP JUMPDEST DUP4 PUSH1 0x80 ADD MLOAD PUSH1 0x1 DUP2 MLOAD DUP2 LT PUSH2 0x5B3 JUMPI PUSH2 0x5B3 PUSH2 0x3F25 JUMP JUMPDEST PUSH1 0x20 MUL PUSH1 0x20 ADD ADD MLOAD PUSH1 0x1 PUSH1 0x1 PUSH1 0xA0 SHL SUB AND DUP5 PUSH1 0x80 ADD MLOAD PUSH1 0x0 DUP2 MLOAD DUP2 LT PUSH2 0x5DB JUMPI PUSH2 0x5DB PUSH2 0x3F25 JUMP JUMPDEST PUSH1 0x20 MUL PUSH1 0x20 ADD ADD MLOAD PUSH1 0x1 PUSH1 0x1 PUSH1 0xA0 SHL SUB AND EQ PUSH2 0x62C JUMPI PUSH1 0x40 MLOAD PUSH3 0x461BCD PUSH1 0xE5 SHL DUP2 MSTORE PUSH1 0x20 PUSH1 0x4 DUP3 ADD MSTORE PUSH1 0x10 PUSH1 0x24 DUP3 ADD MSTORE PUSH16 0x1896903737BA1039B0B6B29031B7B4B7 PUSH1 0x81 SHL PUSH1 0x44 DUP3 ADD MSTORE PUSH1 0x64 ADD PUSH2 0x1F2 JUMP JUMPDEST PUSH2 0x696 DUP5 PUSH1 0x80 ADD MLOAD PUSH1 0x0 DUP2 MLOAD DUP2 LT PUSH2 0x646 JUMPI PUSH2 0x646 PUSH2 0x3F25 JUMP JUMPDEST PUSH1 0x20 MUL PUSH1 0x20 ADD ADD MLOAD DUP6 PUSH1 0x80 ADD MLOAD PUSH1 0x1 DUP2 MLOAD DUP2 LT PUSH2 0x665 JUMPI PUSH2 0x665 PUSH2 0x3F25 JUMP JUMPDEST PUSH1 0x20 MUL PUSH1 0x20 ADD ADD MLOAD DUP7 PUSH1 0x80 ADD MLOAD PUSH1 0x4 DUP2 MLOAD DUP2 LT PUSH2 0x684 JUMPI PUSH2 0x684 PUSH2 0x3F25 JUMP JUMPDEST PUSH1 0x20 MUL PUSH1 0x20 ADD ADD MLOAD DUP8 PUSH1 0xA0 ADD MLOAD PUSH2 0x2655 JUMP JUMPDEST POP PUSH2 0x100 DUP6 ADD MSTORE PUSH1 0x80 DUP5 ADD MLOAD DUP1 MLOAD PUSH2 0x6EC SWAP2 SWAP1 PUSH1 0x1 SWAP1 DUP2 LT PUSH2 0x6BA JUMPI PUSH2 0x6BA PUSH2 0x3F25 JUMP JUMPDEST PUSH1 0x20 MUL PUSH1 0x20 ADD ADD MLOAD DUP6 PUSH1 0x80 ADD MLOAD PUSH1 0x2 DUP2 MLOAD DUP2 LT PUSH2 0x6D9 JUMPI PUSH2 0x6D9 PUSH2 0x3F25 JUMP JUMPDEST PUSH1 0x20 MUL PUSH1 0x20 ADD ADD MLOAD DUP7 PUSH2 0x100 ADD MLOAD PUSH2 0x2A67 JUMP JUMPDEST PUSH2 0x120 DUP6 ADD DUP2 SWAP1 MSTORE PUSH1 0xC0 DUP6 ADD MLOAD LT PUSH2 0x731 JUMPI PUSH1 0x40 MLOAD PUSH3 0x461BCD PUSH1 0xE5 SHL DUP2 MSTORE PUSH1 0x20 PUSH1 0x4 DUP3 ADD MSTORE PUSH1 0x8 PUSH1 0x24 DUP3 ADD MSTORE PUSH8 0x6E6F206578747261 PUSH1 0xC0 SHL PUSH1 0x44 DUP3 ADD MSTORE PUSH1 0x64 ADD PUSH2 0x1F2 JUMP JUMPDEST DUP4 PUSH1 0xC0 ADD MLOAD DUP5 PUSH2 0x120 ADD MLOAD PUSH2 0x746 SWAP2 SWAP1 PUSH2 0x3EC6 JUMP JUMPDEST PUSH2 0x140 DUP6 ADD MSTORE PUSH2 0x1733 JUMP JUMPDEST DUP4 MLOAD PUSH1 0x2 EQ ISZERO PUSH2 0xA02 JUMPI PUSH2 0x79F DUP5 PUSH1 0x80 ADD MLOAD PUSH1 0x0 DUP2 MLOAD DUP2 LT PUSH2 0x775 JUMPI PUSH2 0x775 PUSH2 0x3F25 JUMP JUMPDEST PUSH1 0x20 MUL PUSH1 0x20 ADD ADD MLOAD PUSH1 0x1 PUSH1 0x1 PUSH1 0xA0 SHL SUB AND PUSH20 0xA07C5B74C9B40447A954E1466938B865B6BBEA36 EQ SWAP1 JUMP JUMPDEST ISZERO PUSH2 0x964 JUMPI PUSH1 0xA0 DUP5 ADD MLOAD PUSH1 0x40 MLOAD PUSH4 0x2E1A7D4D PUSH1 0xE0 SHL DUP2 MSTORE PUSH1 0x4 DUP2 ADD SWAP2 SWAP1 SWAP2 MSTORE PUSH20 0xBB4CDB9CBD36B01BD1CBAEBF2DE08D9173BC095C SWAP1 PUSH4 0x2E1A7D4D SWAP1 PUSH1 0x24 ADD PUSH1 0x0 PUSH1 0x40 MLOAD DUP1 DUP4 SUB DUP2 PUSH1 0x0 DUP8 DUP1 EXTCODESIZE ISZERO DUP1 ISZERO PUSH2 0x7F7 JUMPI PUSH1 0x0 DUP1 REVERT JUMPDEST POP GAS CALL ISZERO DUP1 ISZERO PUSH2 0x80B JUMPI RETURNDATASIZE PUSH1 0x0 DUP1 RETURNDATACOPY RETURNDATASIZE PUSH1 0x0 REVERT JUMPDEST POP POP POP POP PUSH2 0x829 DUP5 PUSH1 0x80 ADD MLOAD PUSH1 0x0 DUP2 MLOAD DUP2 LT PUSH2 0x646 JUMPI PUSH2 0x646 PUSH2 0x3F25 JUMP JUMPDEST POP PUSH2 0x100 DUP6 ADD MSTORE PUSH1 0x80 DUP5 ADD MLOAD DUP1 MLOAD PUSH2 0x84D SWAP2 SWAP1 PUSH1 0x1 SWAP1 DUP2 LT PUSH2 0x6BA JUMPI PUSH2 0x6BA PUSH2 0x3F25 JUMP JUMPDEST PUSH2 0x120 DUP6 ADD DUP2 SWAP1 MSTORE PUSH1 0xC0 DUP6 ADD MLOAD LT PUSH2 0x896 JUMPI PUSH1 0x40 MLOAD PUSH3 0x461BCD PUSH1 0xE5 SHL DUP2 MSTORE PUSH1 0x20 PUSH1 0x4 DUP3 ADD MSTORE PUSH1 0xC PUSH1 0x24 DUP3 ADD MSTORE PUSH12 0x322E312D6E6F2D6578747261 PUSH1 0xA0 SHL PUSH1 0x44 DUP3 ADD MSTORE PUSH1 0x64 ADD PUSH2 0x1F2 JUMP JUMPDEST PUSH20 0xBB4CDB9CBD36B01BD1CBAEBF2DE08D9173BC095C PUSH1 0x1 PUSH1 0x1 PUSH1 0xA0 SHL SUB AND PUSH4 0xD0E30DB0 DUP6 PUSH2 0x120 ADD MLOAD PUSH1 0x40 MLOAD DUP3 PUSH4 0xFFFFFFFF AND PUSH1 0xE0 SHL DUP2 MSTORE PUSH1 0x4 ADD PUSH1 0x0 PUSH1 0x40 MLOAD DUP1 DUP4 SUB DUP2 DUP6 DUP9 DUP1 EXTCODESIZE ISZERO DUP1 ISZERO PUSH2 0x8EA JUMPI PUSH1 0x0 DUP1 REVERT JUMPDEST POP GAS CALL ISZERO DUP1 ISZERO PUSH2 0x8FE JUMPI RETURNDATASIZE PUSH1 0x0 DUP1 RETURNDATACOPY RETURNDATASIZE PUSH1 0x0 REVERT JUMPDEST POP POP POP POP POP PUSH1 0x0 DUP5 PUSH1 0xC0 ADD MLOAD DUP6 PUSH2 0x120 ADD MLOAD PUSH2 0x91A SWAP2 SWAP1 PUSH2 0x3EC6 JUMP JUMPDEST SWAP1 POP PUSH2 0x92B DUP2 DUP7 PUSH1 0x60 ADD MLOAD ADDRESS PUSH2 0x2D56 JUMP JUMPDEST SWAP2 POP DUP2 PUSH1 0x1 DUP4 MLOAD PUSH2 0x93C SWAP2 SWAP1 PUSH2 0x3EC6 JUMP JUMPDEST DUP2 MLOAD DUP2 LT PUSH2 0x94C JUMPI PUSH2 0x94C PUSH2 0x3F25 JUMP JUMPDEST PUSH1 0x20 MUL PUSH1 0x20 ADD ADD MLOAD DUP6 PUSH2 0x140 ADD DUP2 DUP2 MSTORE POP POP POP PUSH2 0x1733 JUMP JUMPDEST PUSH2 0x97E DUP5 PUSH1 0x80 ADD MLOAD PUSH1 0x0 DUP2 MLOAD DUP2 LT PUSH2 0x646 JUMPI PUSH2 0x646 PUSH2 0x3F25 JUMP JUMPDEST POP PUSH2 0x100 DUP6 ADD MSTORE PUSH1 0x80 DUP5 ADD MLOAD DUP1 MLOAD PUSH2 0x9A2 SWAP2 SWAP1 PUSH1 0x1 SWAP1 DUP2 LT PUSH2 0x6BA JUMPI PUSH2 0x6BA PUSH2 0x3F25 JUMP JUMPDEST PUSH2 0x120 DUP6 ADD DUP2 SWAP1 MSTORE PUSH1 0xC0 DUP6 ADD MLOAD LT PUSH2 0x9EB JUMPI PUSH1 0x40 MLOAD PUSH3 0x461BCD PUSH1 0xE5 SHL DUP2 MSTORE PUSH1 0x20 PUSH1 0x4 DUP3 ADD MSTORE PUSH1 0xC PUSH1 0x24 DUP3 ADD MSTORE PUSH12 0x322E322D6E6F2D6578747261 PUSH1 0xA0 SHL PUSH1 0x44 DUP3 ADD MSTORE PUSH1 0x64 ADD PUSH2 0x1F2 JUMP JUMPDEST PUSH1 0x0 DUP5 PUSH1 0xC0 ADD MLOAD DUP6 PUSH2 0x120 ADD MLOAD PUSH2 0x91A SWAP2 SWAP1 PUSH2 0x3EC6 JUMP JUMPDEST DUP4 MLOAD PUSH1 0x3 EQ ISZERO PUSH2 0xCA5 JUMPI PUSH2 0xA26 DUP5 PUSH1 0x80 ADD MLOAD PUSH1 0x1 DUP2 MLOAD DUP2 LT PUSH2 0x54F JUMPI PUSH2 0x54F PUSH2 0x3F25 JUMP JUMPDEST PUSH2 0xA7C JUMPI PUSH1 0x40 MLOAD PUSH3 0x461BCD PUSH1 0xE5 SHL DUP2 MSTORE PUSH1 0x20 PUSH1 0x4 DUP3 ADD MSTORE PUSH1 0x21 PUSH1 0x24 DUP3 ADD MSTORE PUSH32 0x332D7365697A656420746F6B656E206973206E6F7420737461626C6520636F69 PUSH1 0x44 DUP3 ADD MSTORE PUSH1 0x37 PUSH1 0xF9 SHL PUSH1 0x64 DUP3 ADD MSTORE PUSH1 0x84 ADD PUSH2 0x1F2 JUMP JUMPDEST PUSH2 0xA96 DUP5 PUSH1 0x80 ADD MLOAD PUSH1 0x0 DUP2 MLOAD DUP2 LT PUSH2 0x775 JUMPI PUSH2 0x775 PUSH2 0x3F25 JUMP JUMPDEST ISZERO PUSH2 0xBE9 JUMPI PUSH1 0xA0 DUP5 ADD MLOAD PUSH1 0x40 MLOAD PUSH4 0x2E1A7D4D PUSH1 0xE0 SHL DUP2 MSTORE PUSH1 0x4 DUP2 ADD SWAP2 SWAP1 SWAP2 MSTORE PUSH20 0xBB4CDB9CBD36B01BD1CBAEBF2DE08D9173BC095C SWAP1 PUSH4 0x2E1A7D4D SWAP1 PUSH1 0x24 ADD PUSH1 0x0 PUSH1 0x40 MLOAD DUP1 DUP4 SUB DUP2 PUSH1 0x0 DUP8 DUP1 EXTCODESIZE ISZERO DUP1 ISZERO PUSH2 0xAEE JUMPI PUSH1 0x0 DUP1 REVERT JUMPDEST POP GAS CALL ISZERO DUP1 ISZERO PUSH2 0xB02 JUMPI RETURNDATASIZE PUSH1 0x0 DUP1 RETURNDATACOPY RETURNDATASIZE PUSH1 0x0 REVERT JUMPDEST POP POP POP POP PUSH2 0xB20 DUP5 PUSH1 0x80 ADD MLOAD PUSH1 0x0 DUP2 MLOAD DUP2 LT PUSH2 0x646 JUMPI PUSH2 0x646 PUSH2 0x3F25 JUMP JUMPDEST POP PUSH2 0x100 DUP6 ADD MSTORE PUSH1 0x80 DUP5 ADD MLOAD DUP1 MLOAD PUSH2 0xB44 SWAP2 SWAP1 PUSH1 0x1 SWAP1 DUP2 LT PUSH2 0x6BA JUMPI PUSH2 0x6BA PUSH2 0x3F25 JUMP JUMPDEST PUSH2 0x120 DUP6 ADD MSTORE PUSH1 0xC0 DUP5 ADD MLOAD PUSH1 0x40 DUP6 ADD MLOAD PUSH2 0xB5F SWAP2 SWAP1 ADDRESS PUSH2 0x2E9F JUMP JUMPDEST SWAP1 POP DUP1 PUSH1 0x0 DUP2 MLOAD DUP2 LT PUSH2 0xB74 JUMPI PUSH2 0xB74 PUSH2 0x3F25 JUMP JUMPDEST PUSH1 0x20 MUL PUSH1 0x20 ADD ADD MLOAD DUP5 PUSH2 0x120 ADD MLOAD GT PUSH2 0xBBE JUMPI PUSH1 0x40 MLOAD PUSH3 0x461BCD PUSH1 0xE5 SHL DUP2 MSTORE PUSH1 0x20 PUSH1 0x4 DUP3 ADD MSTORE PUSH1 0xC PUSH1 0x24 DUP3 ADD MSTORE PUSH12 0x332E312D6E6F2D6578747261 PUSH1 0xA0 SHL PUSH1 0x44 DUP3 ADD MSTORE PUSH1 0x64 ADD PUSH2 0x1F2 JUMP JUMPDEST DUP1 PUSH1 0x0 DUP2 MLOAD DUP2 LT PUSH2 0xBD1 JUMPI PUSH2 0xBD1 PUSH2 0x3F25 JUMP JUMPDEST PUSH1 0x20 MUL PUSH1 0x20 ADD ADD MLOAD DUP5 PUSH2 0x120 ADD MLOAD PUSH2 0x746 SWAP2 SWAP1 PUSH2 0x3EC6 JUMP JUMPDEST PUSH2 0xC03 DUP5 PUSH1 0x80 ADD MLOAD PUSH1 0x0 DUP2 MLOAD DUP2 LT PUSH2 0x646 JUMPI PUSH2 0x646 PUSH2 0x3F25 JUMP JUMPDEST POP PUSH2 0x100 DUP6 ADD MSTORE PUSH1 0x80 DUP5 ADD MLOAD DUP1 MLOAD PUSH2 0xC27 SWAP2 SWAP1 PUSH1 0x1 SWAP1 DUP2 LT PUSH2 0x6BA JUMPI PUSH2 0x6BA PUSH2 0x3F25 JUMP JUMPDEST PUSH2 0x120 DUP6 ADD MSTORE PUSH1 0xC0 DUP5 ADD MLOAD PUSH1 0x40 DUP6 ADD MLOAD PUSH2 0xC42 SWAP2 SWAP1 ADDRESS PUSH2 0x2E9F JUMP JUMPDEST SWAP1 POP DUP1 PUSH1 0x0 DUP2 MLOAD DUP2 LT PUSH2 0xC57 JUMPI PUSH2 0xC57 PUSH2 0x3F25 JUMP JUMPDEST PUSH1 0x20 MUL PUSH1 0x20 ADD ADD MLOAD DUP5 PUSH2 0x120 ADD MLOAD GT PUSH2 0xBBE JUMPI PUSH1 0x40 MLOAD PUSH3 0x461BCD PUSH1 0xE5 SHL DUP2 MSTORE PUSH1 0x20 PUSH1 0x4 DUP3 ADD MSTORE PUSH1 0x10 PUSH1 0x24 DUP3 ADD MSTORE PUSH16 0x332E322D626E622D6E6F2D6578747261 PUSH1 0x80 SHL PUSH1 0x44 DUP3 ADD MSTORE PUSH1 0x64 ADD PUSH2 0x1F2 JUMP JUMPDEST DUP4 MLOAD PUSH1 0x4 EQ ISZERO PUSH2 0xF4C JUMPI PUSH2 0xCC9 DUP5 PUSH1 0x80 ADD MLOAD PUSH1 0x0 DUP2 MLOAD DUP2 LT PUSH2 0x54F JUMPI PUSH2 0x54F PUSH2 0x3F25 JUMP JUMPDEST PUSH2 0xD15 JUMPI PUSH1 0x40 MLOAD PUSH3 0x461BCD PUSH1 0xE5 SHL DUP2 MSTORE PUSH1 0x20 PUSH1 0x4 DUP3 ADD MSTORE PUSH1 0x1F PUSH1 0x24 DUP3 ADD MSTORE PUSH32 0x342D7265706179546F6B656E206973206E6F7420737461626C6520636F696E00 PUSH1 0x44 DUP3 ADD MSTORE PUSH1 0x64 ADD PUSH2 0x1F2 JUMP JUMPDEST PUSH2 0xD2F DUP5 PUSH1 0x80 ADD MLOAD PUSH1 0x1 DUP2 MLOAD DUP2 LT PUSH2 0x775 JUMPI PUSH2 0x775 PUSH2 0x3F25 JUMP JUMPDEST ISZERO PUSH2 0xE87 JUMPI PUSH2 0xD4E DUP5 PUSH1 0x80 ADD MLOAD PUSH1 0x0 DUP2 MLOAD DUP2 LT PUSH2 0x646 JUMPI PUSH2 0x646 PUSH2 0x3F25 JUMP JUMPDEST POP PUSH2 0x100 DUP6 ADD MSTORE PUSH1 0x80 DUP5 ADD MLOAD DUP1 MLOAD PUSH2 0xD72 SWAP2 SWAP1 PUSH1 0x1 SWAP1 DUP2 LT PUSH2 0x6BA JUMPI PUSH2 0x6BA PUSH2 0x3F25 JUMP JUMPDEST DUP5 PUSH2 0x120 ADD DUP2 DUP2 MSTORE POP POP PUSH20 0xBB4CDB9CBD36B01BD1CBAEBF2DE08D9173BC095C PUSH1 0x1 PUSH1 0x1 PUSH1 0xA0 SHL SUB AND PUSH4 0xD0E30DB0 DUP6 PUSH2 0x120 ADD MLOAD PUSH1 0x40 MLOAD DUP3 PUSH4 0xFFFFFFFF AND PUSH1 0xE0 SHL DUP2 MSTORE PUSH1 0x4 ADD PUSH1 0x0 PUSH1 0x40 MLOAD DUP1 DUP4 SUB DUP2 DUP6 DUP9 DUP1 EXTCODESIZE ISZERO DUP1 ISZERO PUSH2 0xDD0 JUMPI PUSH1 0x0 DUP1 REVERT JUMPDEST POP GAS CALL ISZERO DUP1 ISZERO PUSH2 0xDE4 JUMPI RETURNDATASIZE PUSH1 0x0 DUP1 RETURNDATACOPY RETURNDATASIZE PUSH1 0x0 REVERT JUMPDEST POP POP POP POP POP PUSH2 0xDFD DUP5 PUSH2 0x120 ADD MLOAD DUP6 PUSH1 0x40 ADD MLOAD ADDRESS PUSH2 0x2D56 JUMP JUMPDEST SWAP1 POP PUSH1 0x0 DUP2 PUSH1 0x1 DUP4 MLOAD PUSH2 0xE10 SWAP2 SWAP1 PUSH2 0x3EC6 JUMP JUMPDEST DUP2 MLOAD DUP2 LT PUSH2 0xE20 JUMPI PUSH2 0xE20 PUSH2 0x3F25 JUMP JUMPDEST PUSH1 0x20 MUL PUSH1 0x20 ADD ADD MLOAD SWAP1 POP DUP5 PUSH1 0xC0 ADD MLOAD DUP2 GT PUSH2 0xE6C JUMPI PUSH1 0x40 MLOAD PUSH3 0x461BCD PUSH1 0xE5 SHL DUP2 MSTORE PUSH1 0x20 PUSH1 0x4 DUP3 ADD MSTORE PUSH1 0xC PUSH1 0x24 DUP3 ADD MSTORE PUSH12 0x342E312D6E6F206578747261 PUSH1 0xA0 SHL PUSH1 0x44 DUP3 ADD MSTORE PUSH1 0x64 ADD PUSH2 0x1F2 JUMP JUMPDEST PUSH1 0xC0 DUP6 ADD MLOAD PUSH2 0xE7B SWAP1 DUP3 PUSH2 0x3EC6 JUMP JUMPDEST PUSH2 0x140 DUP7 ADD MSTORE POP PUSH2 0x1733 JUMP JUMPDEST PUSH2 0xEA1 DUP5 PUSH1 0x80 ADD MLOAD PUSH1 0x0 DUP2 MLOAD DUP2 LT PUSH2 0x646 JUMPI PUSH2 0x646 PUSH2 0x3F25 JUMP JUMPDEST POP PUSH2 0x100 DUP6 ADD MSTORE PUSH1 0x80 DUP5 ADD MLOAD DUP1 MLOAD PUSH2 0xEC5 SWAP2 SWAP1 PUSH1 0x1 SWAP1 DUP2 LT PUSH2 0x6BA JUMPI PUSH2 0x6BA PUSH2 0x3F25 JUMP JUMPDEST PUSH2 0x120 DUP6 ADD DUP2 SWAP1 MSTORE PUSH1 0x40 DUP6 ADD MLOAD PUSH2 0xEDD SWAP2 SWAP1 ADDRESS PUSH2 0x2D56 JUMP JUMPDEST SWAP1 POP PUSH1 0x0 DUP2 PUSH1 0x1 DUP4 MLOAD PUSH2 0xEF0 SWAP2 SWAP1 PUSH2 0x3EC6 JUMP JUMPDEST DUP2 MLOAD DUP2 LT PUSH2 0xF00 JUMPI PUSH2 0xF00 PUSH2 0x3F25 JUMP JUMPDEST PUSH1 0x20 MUL PUSH1 0x20 ADD ADD MLOAD SWAP1 POP DUP5 PUSH1 0xC0 ADD MLOAD DUP2 GT PUSH2 0xE6C JUMPI PUSH1 0x40 MLOAD PUSH3 0x461BCD PUSH1 0xE5 SHL DUP2 MSTORE PUSH1 0x20 PUSH1 0x4 DUP3 ADD MSTORE PUSH1 0xC PUSH1 0x24 DUP3 ADD MSTORE PUSH12 0x342E322D6E6F206578747261 PUSH1 0xA0 SHL PUSH1 0x44 DUP3 ADD MSTORE PUSH1 0x64 ADD PUSH2 0x1F2 JUMP JUMPDEST DUP4 MLOAD PUSH1 0x5 EQ ISZERO PUSH2 0x1264 JUMPI PUSH2 0xF70 DUP5 PUSH1 0x80 ADD MLOAD PUSH1 0x0 DUP2 MLOAD DUP2 LT PUSH2 0x775 JUMPI PUSH2 0x775 PUSH2 0x3F25 JUMP JUMPDEST ISZERO PUSH2 0x10C5 JUMPI PUSH1 0xA0 DUP5 ADD MLOAD PUSH1 0x40 MLOAD PUSH4 0x2E1A7D4D PUSH1 0xE0 SHL DUP2 MSTORE PUSH1 0x4 DUP2 ADD SWAP2 SWAP1 SWAP2 MSTORE PUSH20 0xBB4CDB9CBD36B01BD1CBAEBF2DE08D9173BC095C SWAP1 PUSH4 0x2E1A7D4D SWAP1 PUSH1 0x24 ADD PUSH1 0x0 PUSH1 0x40 MLOAD DUP1 DUP4 SUB DUP2 PUSH1 0x0 DUP8 DUP1 EXTCODESIZE ISZERO DUP1 ISZERO PUSH2 0xFC8 JUMPI PUSH1 0x0 DUP1 REVERT JUMPDEST POP GAS CALL ISZERO DUP1 ISZERO PUSH2 0xFDC JUMPI RETURNDATASIZE PUSH1 0x0 DUP1 RETURNDATACOPY RETURNDATASIZE PUSH1 0x0 REVERT JUMPDEST POP POP POP POP PUSH2 0xFFA DUP5 PUSH1 0x80 ADD MLOAD PUSH1 0x0 DUP2 MLOAD DUP2 LT PUSH2 0x646 JUMPI PUSH2 0x646 PUSH2 0x3F25 JUMP JUMPDEST POP PUSH2 0x100 DUP6 ADD MSTORE PUSH1 0x80 DUP5 ADD MLOAD DUP1 MLOAD PUSH2 0x101E SWAP2 SWAP1 PUSH1 0x1 SWAP1 DUP2 LT PUSH2 0x6BA JUMPI PUSH2 0x6BA PUSH2 0x3F25 JUMP JUMPDEST PUSH2 0x120 DUP6 ADD MSTORE PUSH1 0xC0 DUP5 ADD MLOAD PUSH1 0x40 DUP6 ADD MLOAD PUSH2 0x1039 SWAP2 SWAP1 ADDRESS PUSH2 0x2E9F JUMP JUMPDEST SWAP1 POP DUP1 PUSH1 0x0 DUP2 MLOAD DUP2 LT PUSH2 0x104E JUMPI PUSH2 0x104E PUSH2 0x3F25 JUMP JUMPDEST PUSH1 0x20 MUL PUSH1 0x20 ADD ADD MLOAD DUP5 PUSH2 0x120 ADD MLOAD GT PUSH2 0x1098 JUMPI PUSH1 0x40 MLOAD PUSH3 0x461BCD PUSH1 0xE5 SHL DUP2 MSTORE PUSH1 0x20 PUSH1 0x4 DUP3 ADD MSTORE PUSH1 0xC PUSH1 0x24 DUP3 ADD MSTORE PUSH12 0x352E312D6E6F206578747261 PUSH1 0xA0 SHL PUSH1 0x44 DUP3 ADD MSTORE PUSH1 0x64 ADD PUSH2 0x1F2 JUMP JUMPDEST PUSH1 0x0 DUP2 PUSH1 0x0 DUP2 MLOAD DUP2 LT PUSH2 0x10AD JUMPI PUSH2 0x10AD PUSH2 0x3F25 JUMP JUMPDEST PUSH1 0x20 MUL PUSH1 0x20 ADD ADD MLOAD DUP6 PUSH2 0x120 ADD MLOAD PUSH2 0x91A SWAP2 SWAP1 PUSH2 0x3EC6 JUMP JUMPDEST PUSH2 0x10DF DUP5 PUSH1 0x80 ADD MLOAD PUSH1 0x1 DUP2 MLOAD DUP2 LT PUSH2 0x775 JUMPI PUSH2 0x775 PUSH2 0x3F25 JUMP JUMPDEST ISZERO PUSH2 0x11AC JUMPI PUSH2 0x10FE DUP5 PUSH1 0x80 ADD MLOAD PUSH1 0x0 DUP2 MLOAD DUP2 LT PUSH2 0x646 JUMPI PUSH2 0x646 PUSH2 0x3F25 JUMP JUMPDEST POP PUSH2 0x100 DUP6 ADD MSTORE PUSH1 0x80 DUP5 ADD MLOAD DUP1 MLOAD PUSH2 0x1122 SWAP2 SWAP1 PUSH1 0x1 SWAP1 DUP2 LT PUSH2 0x6BA JUMPI PUSH2 0x6BA PUSH2 0x3F25 JUMP JUMPDEST DUP5 PUSH2 0x120 ADD DUP2 DUP2 MSTORE POP POP PUSH20 0xBB4CDB9CBD36B01BD1CBAEBF2DE08D9173BC095C PUSH1 0x1 PUSH1 0x1 PUSH1 0xA0 SHL SUB AND PUSH4 0xD0E30DB0 DUP6 PUSH2 0x120 ADD MLOAD PUSH1 0x40 MLOAD DUP3 PUSH4 0xFFFFFFFF AND PUSH1 0xE0 SHL DUP2 MSTORE PUSH1 0x4 ADD PUSH1 0x0 PUSH1 0x40 MLOAD DUP1 DUP4 SUB DUP2 DUP6 DUP9 DUP1 EXTCODESIZE ISZERO DUP1 ISZERO PUSH2 0x1180 JUMPI PUSH1 0x0 DUP1 REVERT JUMPDEST POP GAS CALL ISZERO DUP1 ISZERO PUSH2 0x1194 JUMPI RETURNDATASIZE PUSH1 0x0 DUP1 RETURNDATACOPY RETURNDATASIZE PUSH1 0x0 REVERT JUMPDEST POP POP POP POP POP PUSH2 0x1039 DUP5 PUSH1 0xC0 ADD MLOAD DUP6 PUSH1 0x40 ADD MLOAD ADDRESS PUSH2 0x2E9F JUMP JUMPDEST PUSH2 0x11C6 DUP5 PUSH1 0x80 ADD MLOAD PUSH1 0x0 DUP2 MLOAD DUP2 LT PUSH2 0x646 JUMPI PUSH2 0x646 PUSH2 0x3F25 JUMP JUMPDEST POP PUSH2 0x100 DUP6 ADD MSTORE PUSH1 0x80 DUP5 ADD MLOAD DUP1 MLOAD PUSH2 0x11EA SWAP2 SWAP1 PUSH1 0x1 SWAP1 DUP2 LT PUSH2 0x6BA JUMPI PUSH2 0x6BA PUSH2 0x3F25 JUMP JUMPDEST PUSH2 0x120 DUP6 ADD MSTORE PUSH1 0xC0 DUP5 ADD MLOAD PUSH1 0x40 DUP6 ADD MLOAD PUSH2 0x1205 SWAP2 SWAP1 ADDRESS PUSH2 0x2E9F JUMP JUMPDEST SWAP1 POP DUP1 PUSH1 0x0 DUP2 MLOAD DUP2 LT PUSH2 0x121A JUMPI PUSH2 0x121A PUSH2 0x3F25 JUMP JUMPDEST PUSH1 0x20 MUL PUSH1 0x20 ADD ADD MLOAD DUP5 PUSH2 0x120 ADD MLOAD GT PUSH2 0x1098 JUMPI PUSH1 0x40 MLOAD PUSH3 0x461BCD PUSH1 0xE5 SHL DUP2 MSTORE PUSH1 0x20 PUSH1 0x4 DUP3 ADD MSTORE PUSH1 0xC PUSH1 0x24 DUP3 ADD MSTORE PUSH12 0x352E332D6E6F206578747261 PUSH1 0xA0 SHL PUSH1 0x44 DUP3 ADD MSTORE PUSH1 0x64 ADD PUSH2 0x1F2 JUMP JUMPDEST DUP4 MLOAD PUSH1 0x6 EQ ISZERO PUSH2 0x1468 JUMPI PUSH2 0x1288 DUP5 PUSH1 0x80 ADD MLOAD PUSH1 0x1 DUP2 MLOAD DUP2 LT PUSH2 0x54F JUMPI PUSH2 0x54F PUSH2 0x3F25 JUMP JUMPDEST PUSH2 0x12D4 JUMPI PUSH1 0x40 MLOAD PUSH3 0x461BCD PUSH1 0xE5 SHL DUP2 MSTORE PUSH1 0x20 PUSH1 0x4 DUP3 ADD DUP2 SWAP1 MSTORE PUSH1 0x24 DUP3 ADD MSTORE PUSH32 0x362D7365697A6564546F6B656E206973206E6F7420737461626C6520636F696E PUSH1 0x44 DUP3 ADD MSTORE PUSH1 0x64 ADD PUSH2 0x1F2 JUMP JUMPDEST PUSH1 0x0 PUSH2 0x1340 DUP6 PUSH1 0x80 ADD MLOAD PUSH1 0x0 DUP2 MLOAD DUP2 LT PUSH2 0x12F0 JUMPI PUSH2 0x12F0 PUSH2 0x3F25 JUMP JUMPDEST PUSH1 0x20 MUL PUSH1 0x20 ADD ADD MLOAD DUP7 PUSH1 0x80 ADD MLOAD PUSH1 0x1 DUP2 MLOAD DUP2 LT PUSH2 0x130F JUMPI PUSH2 0x130F PUSH2 0x3F25 JUMP JUMPDEST PUSH1 0x20 MUL PUSH1 0x20 ADD ADD MLOAD DUP8 PUSH1 0x80 ADD MLOAD PUSH1 0x4 DUP2 MLOAD DUP2 LT PUSH2 0x132E JUMPI PUSH2 0x132E PUSH2 0x3F25 JUMP JUMPDEST PUSH1 0x20 MUL PUSH1 0x20 ADD ADD MLOAD DUP9 PUSH1 0xA0 ADD MLOAD PUSH2 0x2655 JUMP JUMPDEST DUP7 PUSH2 0x100 ADD DUP2 SWAP4 POP DUP3 DUP2 MSTORE POP POP POP PUSH2 0x139A DUP6 PUSH1 0x80 ADD MLOAD PUSH1 0x1 DUP2 MLOAD DUP2 LT PUSH2 0x1368 JUMPI PUSH2 0x1368 PUSH2 0x3F25 JUMP JUMPDEST PUSH1 0x20 MUL PUSH1 0x20 ADD ADD MLOAD DUP7 PUSH1 0x80 ADD MLOAD PUSH1 0x2 DUP2 MLOAD DUP2 LT PUSH2 0x1387 JUMPI PUSH2 0x1387 PUSH2 0x3F25 JUMP JUMPDEST PUSH1 0x20 MUL PUSH1 0x20 ADD ADD MLOAD DUP8 PUSH2 0x100 ADD MLOAD PUSH2 0x2A67 JUMP JUMPDEST PUSH2 0x120 DUP7 ADD MSTORE PUSH1 0xA0 DUP6 ADD MLOAD PUSH1 0xC0 DUP7 ADD MLOAD PUSH1 0x0 SWAP2 SWAP1 PUSH2 0x13B9 SWAP1 DUP5 SWAP1 PUSH2 0x3E6D JUMP JUMPDEST PUSH2 0x13C3 SWAP2 SWAP1 PUSH2 0x3EC6 JUMP JUMPDEST SWAP1 POP PUSH2 0x13D4 DUP2 DUP8 PUSH1 0x40 ADD MLOAD ADDRESS PUSH2 0x2E9F JUMP JUMPDEST POP DUP3 PUSH1 0x0 DUP2 MLOAD DUP2 LT PUSH2 0x13E8 JUMPI PUSH2 0x13E8 PUSH2 0x3F25 JUMP JUMPDEST PUSH1 0x20 MUL PUSH1 0x20 ADD ADD MLOAD DUP7 PUSH2 0x120 ADD MLOAD GT PUSH2 0x142F JUMPI PUSH1 0x40 MLOAD PUSH3 0x461BCD PUSH1 0xE5 SHL DUP2 MSTORE PUSH1 0x20 PUSH1 0x4 DUP3 ADD MSTORE PUSH1 0x9 PUSH1 0x24 DUP3 ADD MSTORE PUSH9 0x362D6E6F6578747261 PUSH1 0xB8 SHL PUSH1 0x44 DUP3 ADD MSTORE PUSH1 0x64 ADD PUSH2 0x1F2 JUMP JUMPDEST DUP3 PUSH1 0x0 DUP2 MLOAD DUP2 LT PUSH2 0x1442 JUMPI PUSH2 0x1442 PUSH2 0x3F25 JUMP JUMPDEST PUSH1 0x20 MUL PUSH1 0x20 ADD ADD MLOAD DUP7 PUSH2 0x120 ADD MLOAD PUSH2 0x145A SWAP2 SWAP1 PUSH2 0x3EC6 JUMP JUMPDEST PUSH2 0x140 DUP8 ADD MSTORE POP PUSH2 0x1733 SWAP1 POP JUMP JUMPDEST DUP4 MLOAD PUSH1 0x7 EQ ISZERO PUSH2 0x91 JUMPI PUSH2 0x148C DUP5 PUSH1 0x80 ADD MLOAD PUSH1 0x1 DUP2 MLOAD DUP2 LT PUSH2 0x775 JUMPI PUSH2 0x775 PUSH2 0x3F25 JUMP JUMPDEST ISZERO PUSH2 0x1656 JUMPI PUSH1 0x0 PUSH2 0x14AD DUP6 PUSH1 0x80 ADD MLOAD PUSH1 0x0 DUP2 MLOAD DUP2 LT PUSH2 0x12F0 JUMPI PUSH2 0x12F0 PUSH2 0x3F25 JUMP JUMPDEST DUP7 PUSH2 0x100 ADD DUP2 SWAP4 POP DUP3 DUP2 MSTORE POP POP POP PUSH2 0x14D5 DUP6 PUSH1 0x80 ADD MLOAD PUSH1 0x1 DUP2 MLOAD DUP2 LT PUSH2 0x1368 JUMPI PUSH2 0x1368 PUSH2 0x3F25 JUMP JUMPDEST DUP6 PUSH2 0x120 ADD DUP2 DUP2 MSTORE POP POP PUSH20 0xBB4CDB9CBD36B01BD1CBAEBF2DE08D9173BC095C PUSH1 0x1 PUSH1 0x1 PUSH1 0xA0 SHL SUB AND PUSH4 0xD0E30DB0 DUP7 PUSH2 0x120 ADD MLOAD PUSH1 0x40 MLOAD DUP3 PUSH4 0xFFFFFFFF AND PUSH1 0xE0 SHL DUP2 MSTORE PUSH1 0x4 ADD PUSH1 0x0 PUSH1 0x40 MLOAD DUP1 DUP4 SUB DUP2 DUP6 DUP9 DUP1 EXTCODESIZE ISZERO DUP1 ISZERO PUSH2 0x1533 JUMPI PUSH1 0x0 DUP1 REVERT JUMPDEST POP GAS CALL ISZERO DUP1 ISZERO PUSH2 0x1547 JUMPI RETURNDATASIZE PUSH1 0x0 DUP1 RETURNDATACOPY RETURNDATASIZE PUSH1 0x0 REVERT JUMPDEST POP POP POP POP POP PUSH1 0x0 DUP6 PUSH1 0xA0 ADD MLOAD DUP3 DUP8 PUSH1 0xC0 ADD MLOAD PUSH2 0x1563 SWAP2 SWAP1 PUSH2 0x3E6D JUMP JUMPDEST PUSH2 0x156D SWAP2 SWAP1 PUSH2 0x3EC6 JUMP JUMPDEST SWAP1 POP PUSH2 0x157E DUP2 DUP8 PUSH1 0x40 ADD MLOAD ADDRESS PUSH2 0x2E9F JUMP JUMPDEST SWAP3 POP DUP3 PUSH1 0x0 DUP2 MLOAD DUP2 LT PUSH2 0x1593 JUMPI PUSH2 0x1593 PUSH2 0x3F25 JUMP JUMPDEST PUSH1 0x20 MUL PUSH1 0x20 ADD ADD MLOAD DUP7 PUSH2 0x120 ADD MLOAD GT PUSH2 0x15DD JUMPI PUSH1 0x40 MLOAD PUSH3 0x461BCD PUSH1 0xE5 SHL DUP2 MSTORE PUSH1 0x20 PUSH1 0x4 DUP3 ADD MSTORE PUSH1 0xC PUSH1 0x24 DUP3 ADD MSTORE PUSH12 0x372E312D6E6F206578747261 PUSH1 0xA0 SHL PUSH1 0x44 DUP3 ADD MSTORE PUSH1 0x64 ADD PUSH2 0x1F2 JUMP JUMPDEST PUSH1 0x0 DUP4 PUSH1 0x0 DUP2 MLOAD DUP2 LT PUSH2 0x15F2 JUMPI PUSH2 0x15F2 PUSH2 0x3F25 JUMP JUMPDEST PUSH1 0x20 MUL PUSH1 0x20 ADD ADD MLOAD DUP8 PUSH2 0x120 ADD MLOAD PUSH2 0x160A SWAP2 SWAP1 PUSH2 0x3EC6 JUMP JUMPDEST SWAP1 POP PUSH2 0x161B DUP2 DUP9 PUSH1 0x60 ADD MLOAD ADDRESS PUSH2 0x2D56 JUMP JUMPDEST SWAP4 POP DUP4 PUSH1 0x1 DUP6 MLOAD PUSH2 0x162C SWAP2 SWAP1 PUSH2 0x3EC6 JUMP JUMPDEST DUP2 MLOAD DUP2 LT PUSH2 0x163C JUMPI PUSH2 0x163C PUSH2 0x3F25 JUMP JUMPDEST PUSH1 0x20 MUL PUSH1 0x20 ADD ADD MLOAD DUP8 PUSH2 0x140 ADD DUP2 DUP2 MSTORE POP POP POP POP POP PUSH2 0x1733 JUMP JUMPDEST PUSH1 0x0 PUSH2 0x1672 DUP6 PUSH1 0x80 ADD MLOAD PUSH1 0x0 DUP2 MLOAD DUP2 LT PUSH2 0x12F0 JUMPI PUSH2 0x12F0 PUSH2 0x3F25 JUMP JUMPDEST DUP7 PUSH2 0x100 ADD DUP2 SWAP4 POP DUP3 DUP2 MSTORE POP POP POP PUSH2 0x169A DUP6 PUSH1 0x80 ADD MLOAD PUSH1 0x1 DUP2 MLOAD DUP2 LT PUSH2 0x1368 JUMPI PUSH2 0x1368 PUSH2 0x3F25 JUMP JUMPDEST PUSH2 0x120 DUP7 ADD MSTORE PUSH1 0xA0 DUP6 ADD MLOAD PUSH1 0xC0 DUP7 ADD MLOAD PUSH1 0x0 SWAP2 SWAP1 PUSH2 0x16B9 SWAP1 DUP5 SWAP1 PUSH2 0x3E6D JUMP JUMPDEST PUSH2 0x16C3 SWAP2 SWAP1 PUSH2 0x3EC6 JUMP JUMPDEST SWAP1 POP PUSH2 0x16D4 DUP2 DUP8 PUSH1 0x40 ADD MLOAD ADDRESS PUSH2 0x2E9F JUMP JUMPDEST SWAP3 POP DUP3 PUSH1 0x0 DUP2 MLOAD DUP2 LT PUSH2 0x16E9 JUMPI PUSH2 0x16E9 PUSH2 0x3F25 JUMP JUMPDEST PUSH1 0x20 MUL PUSH1 0x20 ADD ADD MLOAD DUP7 PUSH2 0x120 ADD MLOAD GT PUSH2 0x15DD JUMPI PUSH1 0x40 MLOAD PUSH3 0x461BCD PUSH1 0xE5 SHL DUP2 MSTORE PUSH1 0x20 PUSH1 0x4 DUP3 ADD MSTORE PUSH1 0xC PUSH1 0x24 DUP3 ADD MSTORE PUSH12 0x372E322D6E6F206578747261 PUSH1 0xA0 SHL PUSH1 0x44 DUP3 ADD MSTORE PUSH1 0x64 ADD PUSH2 0x1F2 JUMP JUMPDEST PUSH1 0x20 DUP5 ADD MLOAD PUSH1 0xC0 DUP6 ADD MLOAD PUSH1 0x40 MLOAD PUSH4 0xA9059CBB PUSH1 0xE0 SHL DUP2 MSTORE PUSH1 0x1 PUSH1 0x1 PUSH1 0xA0 SHL SUB DUP7 AND SWAP3 PUSH4 0xA9059CBB SWAP3 PUSH2 0x177B SWAP3 PUSH1 0x4 ADD PUSH1 0x1 PUSH1 0x1 PUSH1 0xA0 SHL SUB SWAP3 SWAP1 SWAP3 AND DUP3 MSTORE PUSH1 0x20 DUP3 ADD MSTORE PUSH1 0x40 ADD SWAP1 JUMP JUMPDEST PUSH1 0x20 PUSH1 0x40 MLOAD DUP1 DUP4 SUB DUP2 PUSH1 0x0 DUP8 DUP1 EXTCODESIZE ISZERO DUP1 ISZERO PUSH2 0x1795 JUMPI PUSH1 0x0 DUP1 REVERT JUMPDEST POP GAS CALL ISZERO DUP1 ISZERO PUSH2 0x17A9 JUMPI RETURNDATASIZE PUSH1 0x0 DUP1 RETURNDATACOPY RETURNDATASIZE PUSH1 0x0 REVERT JUMPDEST POP POP POP POP PUSH1 0x40 MLOAD RETURNDATASIZE PUSH1 0x1F NOT PUSH1 0x1F DUP3 ADD AND DUP3 ADD DUP1 PUSH1 0x40 MSTORE POP DUP2 ADD SWAP1 PUSH2 0x17CD SWAP2 SWAP1 PUSH2 0x3A84 JUMP JUMPDEST POP DUP4 MLOAD PUSH1 0xA0 DUP1 DUP7 ADD MLOAD PUSH1 0xC0 DUP1 DUP9 ADD MLOAD PUSH2 0x120 DUP10 ADD MLOAD PUSH2 0x140 DUP11 ADD MLOAD PUSH1 0x40 DUP1 MLOAD SWAP8 DUP9 MSTORE PUSH1 0x1 PUSH1 0x1 PUSH1 0xA0 SHL SUB DUP1 DUP13 AND PUSH1 0x20 DUP11 ADD MSTORE SWAP1 DUP9 ADD SWAP6 SWAP1 SWAP6 MSTORE SWAP4 DUP9 AND PUSH1 0x60 DUP8 ADD MSTORE PUSH1 0x80 DUP7 ADD SWAP2 SWAP1 SWAP2 MSTORE SWAP3 DUP5 ADD SWAP3 SWAP1 SWAP3 MSTORE SWAP1 DUP3 ADD MSTORE PUSH32 0xEE80F069D389B1636BFE8A115FF1D8AD940B394B4D16BB19C8503003D14DD5B4 SWAP1 PUSH1 0xE0 ADD PUSH1 0x40 MLOAD DUP1 SWAP2 SUB SWAP1 LOG1 POP POP POP POP POP POP POP POP POP JUMP JUMPDEST PUSH1 0x0 SLOAD PUSH1 0x1 PUSH1 0x1 PUSH1 0xA0 SHL SUB AND CALLER EQ PUSH2 0x1883 JUMPI PUSH1 0x40 MLOAD PUSH3 0x461BCD PUSH1 0xE5 SHL DUP2 MSTORE PUSH1 0x4 ADD PUSH2 0x1F2 SWAP1 PUSH2 0x3D15 JUMP JUMPDEST PUSH1 0x0 PUSH8 0xDE0B6B3A7640000 SWAP1 POP PUSH20 0xBB4CDB9CBD36B01BD1CBAEBF2DE08D9173BC095C PUSH1 0x1 PUSH1 0x1 PUSH1 0xA0 SHL SUB AND PUSH4 0xD0E30DB0 DUP3 PUSH1 0x40 MLOAD DUP3 PUSH4 0xFFFFFFFF AND PUSH1 0xE0 SHL DUP2 MSTORE PUSH1 0x4 ADD PUSH1 0x0 PUSH1 0x40 MLOAD DUP1 DUP4 SUB DUP2 DUP6 DUP9 DUP1 EXTCODESIZE ISZERO DUP1 ISZERO PUSH2 0x18DF JUMPI PUSH1 0x0 DUP1 REVERT JUMPDEST POP GAS CALL ISZERO DUP1 ISZERO PUSH2 0x18F3 JUMPI RETURNDATASIZE PUSH1 0x0 DUP1 RETURNDATACOPY RETURNDATASIZE PUSH1 0x0 REVERT JUMPDEST POP PUSH1 0x0 SWAP4 POP PUSH1 0x2 SWAP3 POP PUSH2 0x1904 SWAP2 POP POP JUMP JUMPDEST PUSH1 0x40 MLOAD SWAP1 DUP1 DUP3 MSTORE DUP1 PUSH1 0x20 MUL PUSH1 0x20 ADD DUP3 ADD PUSH1 0x40 MSTORE DUP1 ISZERO PUSH2 0x192D JUMPI DUP2 PUSH1 0x20 ADD PUSH1 0x20 DUP3 MUL DUP1 CALLDATASIZE DUP4 CALLDATACOPY ADD SWAP1 POP JUMPDEST POP SWAP1 POP PUSH20 0xBB4CDB9CBD36B01BD1CBAEBF2DE08D9173BC095C DUP2 PUSH1 0x0 DUP2 MLOAD DUP2 LT PUSH2 0x1958 JUMPI PUSH2 0x1958 PUSH2 0x3F25 JUMP JUMPDEST PUSH1 0x20 MUL PUSH1 0x20 ADD ADD SWAP1 PUSH1 0x1 PUSH1 0x1 PUSH1 0xA0 SHL SUB AND SWAP1 DUP2 PUSH1 0x1 PUSH1 0x1 PUSH1 0xA0 SHL SUB AND DUP2 MSTORE POP POP DUP3 DUP2 PUSH1 0x1 DUP2 MLOAD DUP2 LT PUSH2 0x198C JUMPI PUSH2 0x198C PUSH2 0x3F25 JUMP JUMPDEST PUSH1 0x20 MUL PUSH1 0x20 ADD ADD SWAP1 PUSH1 0x1 PUSH1 0x1 PUSH1 0xA0 SHL SUB AND SWAP1 DUP2 PUSH1 0x1 PUSH1 0x1 PUSH1 0xA0 SHL SUB AND DUP2 MSTORE POP POP PUSH2 0x19B7 DUP3 DUP3 ADDRESS PUSH2 0x2D56 JUMP JUMPDEST POP POP POP POP JUMP JUMPDEST PUSH1 0x1 DUP10 LT ISZERO DUP1 ISZERO PUSH2 0x19CF JUMPI POP PUSH1 0x7 DUP10 GT ISZERO JUMPDEST PUSH2 0x1A06 JUMPI PUSH1 0x40 MLOAD PUSH3 0x461BCD PUSH1 0xE5 SHL DUP2 MSTORE PUSH1 0x20 PUSH1 0x4 DUP3 ADD MSTORE PUSH1 0x8 PUSH1 0x24 DUP3 ADD MSTORE PUSH8 0x77726F6E67207369 PUSH1 0xC0 SHL PUSH1 0x44 DUP3 ADD MSTORE PUSH1 0x64 ADD PUSH2 0x1F2 JUMP JUMPDEST PUSH1 0x1 PUSH1 0x1 PUSH1 0xA0 SHL SUB DUP9 AND PUSH2 0x1A44 JUMPI PUSH1 0x40 MLOAD PUSH3 0x461BCD PUSH1 0xE5 SHL DUP2 MSTORE PUSH1 0x20 PUSH1 0x4 DUP3 ADD MSTORE PUSH1 0x5 PUSH1 0x24 DUP3 ADD MSTORE PUSH5 0x10B830B4B9 PUSH1 0xD9 SHL PUSH1 0x44 DUP3 ADD MSTORE PUSH1 0x64 ADD PUSH2 0x1F2 JUMP JUMPDEST PUSH1 0x0 PUSH20 0xFD36E2C2A6789DB23113685031D7F16329158384 PUSH4 0x5EC88C79 DUP6 DUP6 PUSH1 0x4 DUP2 DUP2 LT PUSH2 0x1A73 JUMPI PUSH2 0x1A73 PUSH2 0x3F25 JUMP JUMPDEST SWAP1 POP PUSH1 0x20 MUL ADD PUSH1 0x20 DUP2 ADD SWAP1 PUSH2 0x1A88 SWAP2 SWAP1 PUSH2 0x3947 JUMP JUMPDEST PUSH1 0x40 MLOAD PUSH1 0x1 PUSH1 0x1 PUSH1 0xE0 SHL SUB NOT PUSH1 0xE0 DUP5 SWAP1 SHL AND DUP2 MSTORE PUSH1 0x1 PUSH1 0x1 PUSH1 0xA0 SHL SUB SWAP1 SWAP2 AND PUSH1 0x4 DUP3 ADD MSTORE PUSH1 0x24 ADD PUSH1 0x60 PUSH1 0x40 MLOAD DUP1 DUP4 SUB DUP2 DUP7 DUP1 EXTCODESIZE ISZERO DUP1 ISZERO PUSH2 0x1AC7 JUMPI PUSH1 0x0 DUP1 REVERT JUMPDEST POP GAS STATICCALL ISZERO DUP1 ISZERO PUSH2 0x1ADB JUMPI RETURNDATASIZE PUSH1 0x0 DUP1 RETURNDATACOPY RETURNDATASIZE PUSH1 0x0 REVERT JUMPDEST POP POP POP POP PUSH1 0x40 MLOAD RETURNDATASIZE PUSH1 0x1F NOT PUSH1 0x1F DUP3 ADD AND DUP3 ADD DUP1 PUSH1 0x40 MSTORE POP DUP2 ADD SWAP1 PUSH2 0x1AFF SWAP2 SWAP1 PUSH2 0x3C9E JUMP JUMPDEST SWAP3 POP POP POP PUSH1 0x0 DUP2 GT PUSH2 0x1B5D JUMPI PUSH1 0x40 MLOAD PUSH3 0x461BCD PUSH1 0xE5 SHL DUP2 MSTORE PUSH1 0x20 PUSH1 0x4 DUP3 ADD MSTORE PUSH1 0x21 PUSH1 0x24 DUP3 ADD MSTORE PUSH32 0x73686F727466616C6C206D7573742067726561746572207468616E207A657220 PUSH1 0x44 DUP3 ADD MSTORE PUSH1 0x3 PUSH1 0xFC SHL PUSH1 0x64 DUP3 ADD MSTORE PUSH1 0x84 ADD PUSH2 0x1F2 JUMP JUMPDEST PUSH1 0x0 PUSH20 0xFD36E2C2A6789DB23113685031D7F16329158384 PUSH1 0x1 PUSH1 0x1 PUSH1 0xA0 SHL SUB AND PUSH4 0xE8755446 PUSH1 0x40 MLOAD DUP2 PUSH4 0xFFFFFFFF AND PUSH1 0xE0 SHL DUP2 MSTORE PUSH1 0x4 ADD PUSH1 0x20 PUSH1 0x40 MLOAD DUP1 DUP4 SUB DUP2 DUP7 DUP1 EXTCODESIZE ISZERO DUP1 ISZERO PUSH2 0x1BAC JUMPI PUSH1 0x0 DUP1 REVERT JUMPDEST POP GAS STATICCALL ISZERO DUP1 ISZERO PUSH2 0x1BC0 JUMPI RETURNDATASIZE PUSH1 0x0 DUP1 RETURNDATACOPY RETURNDATASIZE PUSH1 0x0 REVERT JUMPDEST POP POP POP POP PUSH1 0x40 MLOAD RETURNDATASIZE PUSH1 0x1F NOT PUSH1 0x1F DUP3 ADD AND DUP3 ADD DUP1 PUSH1 0x40 MSTORE POP DUP2 ADD SWAP1 PUSH2 0x1BE4 SWAP2 SWAP1 PUSH2 0x3AF6 JUMP JUMPDEST SWAP1 POP PUSH1 0x0 PUSH1 0x6 DUP13 LT ISZERO PUSH2 0x1CCD JUMPI DUP6 DUP6 PUSH1 0x0 DUP2 DUP2 LT PUSH2 0x1C04 JUMPI PUSH2 0x1C04 PUSH2 0x3F25 JUMP JUMPDEST SWAP1 POP PUSH1 0x20 MUL ADD PUSH1 0x20 DUP2 ADD SWAP1 PUSH2 0x1C19 SWAP2 SWAP1 PUSH2 0x3947 JUMP JUMPDEST PUSH1 0x1 PUSH1 0x1 PUSH1 0xA0 SHL SUB AND PUSH4 0x95DD9193 DUP8 DUP8 PUSH1 0x4 DUP2 DUP2 LT PUSH2 0x1C3A JUMPI PUSH2 0x1C3A PUSH2 0x3F25 JUMP JUMPDEST SWAP1 POP PUSH1 0x20 MUL ADD PUSH1 0x20 DUP2 ADD SWAP1 PUSH2 0x1C4F SWAP2 SWAP1 PUSH2 0x3947 JUMP JUMPDEST PUSH1 0x40 MLOAD PUSH1 0x1 PUSH1 0x1 PUSH1 0xE0 SHL SUB NOT PUSH1 0xE0 DUP5 SWAP1 SHL AND DUP2 MSTORE PUSH1 0x1 PUSH1 0x1 PUSH1 0xA0 SHL SUB SWAP1 SWAP2 AND PUSH1 0x4 DUP3 ADD MSTORE PUSH1 0x24 ADD PUSH1 0x20 PUSH1 0x40 MLOAD DUP1 DUP4 SUB DUP2 DUP7 DUP1 EXTCODESIZE ISZERO DUP1 ISZERO PUSH2 0x1C8E JUMPI PUSH1 0x0 DUP1 REVERT JUMPDEST POP GAS STATICCALL ISZERO DUP1 ISZERO PUSH2 0x1CA2 JUMPI RETURNDATASIZE PUSH1 0x0 DUP1 RETURNDATACOPY RETURNDATASIZE PUSH1 0x0 REVERT JUMPDEST POP POP POP POP PUSH1 0x40 MLOAD RETURNDATASIZE PUSH1 0x1F NOT PUSH1 0x1F DUP3 ADD AND DUP3 ADD DUP1 PUSH1 0x40 MSTORE POP DUP2 ADD SWAP1 PUSH2 0x1CC6 SWAP2 SWAP1 PUSH2 0x3AF6 JUMP JUMPDEST SWAP1 POP PUSH2 0x1D89 JUMP JUMPDEST PUSH20 0xFD36E2C2A6789DB23113685031D7F16329158384 PUSH4 0x2BC7E29E DUP8 DUP8 PUSH1 0x4 DUP2 DUP2 LT PUSH2 0x1CFA JUMPI PUSH2 0x1CFA PUSH2 0x3F25 JUMP JUMPDEST SWAP1 POP PUSH1 0x20 MUL ADD PUSH1 0x20 DUP2 ADD SWAP1 PUSH2 0x1D0F SWAP2 SWAP1 PUSH2 0x3947 JUMP JUMPDEST PUSH1 0x40 MLOAD PUSH1 0x1 PUSH1 0x1 PUSH1 0xE0 SHL SUB NOT PUSH1 0xE0 DUP5 SWAP1 SHL AND DUP2 MSTORE PUSH1 0x1 PUSH1 0x1 PUSH1 0xA0 SHL SUB SWAP1 SWAP2 AND PUSH1 0x4 DUP3 ADD MSTORE PUSH1 0x24 ADD PUSH1 0x20 PUSH1 0x40 MLOAD DUP1 DUP4 SUB DUP2 DUP7 DUP1 EXTCODESIZE ISZERO DUP1 ISZERO PUSH2 0x1D4E JUMPI PUSH1 0x0 DUP1 REVERT JUMPDEST POP GAS STATICCALL ISZERO DUP1 ISZERO PUSH2 0x1D62 JUMPI RETURNDATASIZE PUSH1 0x0 DUP1 RETURNDATACOPY RETURNDATASIZE PUSH1 0x0 REVERT JUMPDEST POP POP POP POP PUSH1 0x40 MLOAD RETURNDATASIZE PUSH1 0x1F NOT PUSH1 0x1F DUP3 ADD AND DUP3 ADD DUP1 PUSH1 0x40 MSTORE POP DUP2 ADD SWAP1 PUSH2 0x1D86 SWAP2 SWAP1 PUSH2 0x3AF6 JUMP JUMPDEST SWAP1 POP JUMPDEST PUSH1 0x0 PUSH8 0xDE0B6B3A7640000 PUSH2 0x1D9E DUP5 DUP5 PUSH2 0x3EA7 JUMP JUMPDEST PUSH2 0x1DA8 SWAP2 SWAP1 PUSH2 0x3E85 JUMP JUMPDEST SWAP1 POP DUP1 DUP6 GT ISZERO PUSH2 0x1E20 JUMPI PUSH1 0x40 MLOAD PUSH3 0x461BCD PUSH1 0xE5 SHL DUP2 MSTORE PUSH1 0x20 PUSH1 0x4 DUP3 ADD MSTORE PUSH1 0x37 PUSH1 0x24 DUP3 ADD MSTORE PUSH32 0x666C6173686C6F616E416D6F756E74206D757374206265206C65737320746861 PUSH1 0x44 DUP3 ADD MSTORE PUSH32 0x6E206D6178416C6C6F7765645265706179416D6F756E74000000000000000000 PUSH1 0x64 DUP3 ADD MSTORE PUSH1 0x84 ADD PUSH2 0x1F2 JUMP JUMPDEST POP POP POP POP PUSH1 0x1 PUSH1 0x0 DUP5 DUP5 PUSH1 0x3 DUP2 DUP2 LT PUSH2 0x1E3B JUMPI PUSH2 0x1E3B PUSH2 0x3F25 JUMP JUMPDEST SWAP1 POP PUSH1 0x20 MUL ADD PUSH1 0x20 DUP2 ADD SWAP1 PUSH2 0x1E50 SWAP2 SWAP1 PUSH2 0x3947 JUMP JUMPDEST PUSH1 0x1 PUSH1 0x1 PUSH1 0xA0 SHL SUB AND PUSH1 0x1 PUSH1 0x1 PUSH1 0xA0 SHL SUB AND DUP2 MSTORE PUSH1 0x20 ADD SWAP1 DUP2 MSTORE PUSH1 0x20 ADD PUSH1 0x0 KECCAK256 PUSH1 0x0 DUP5 DUP5 PUSH1 0x0 DUP2 DUP2 LT PUSH2 0x1E85 JUMPI PUSH2 0x1E85 PUSH2 0x3F25 JUMP JUMPDEST SWAP1 POP PUSH1 0x20 MUL ADD PUSH1 0x20 DUP2 ADD SWAP1 PUSH2 0x1E9A SWAP2 SWAP1 PUSH2 0x3947 JUMP JUMPDEST PUSH1 0x1 PUSH1 0x1 PUSH1 0xA0 SHL SUB AND DUP2 MSTORE PUSH1 0x20 DUP2 ADD SWAP2 SWAP1 SWAP2 MSTORE PUSH1 0x40 ADD PUSH1 0x0 KECCAK256 SLOAD PUSH1 0xFF AND PUSH2 0x203B JUMPI DUP3 DUP3 PUSH1 0x3 DUP2 DUP2 LT PUSH2 0x1ECE JUMPI PUSH2 0x1ECE PUSH2 0x3F25 JUMP JUMPDEST SWAP1 POP PUSH1 0x20 MUL ADD PUSH1 0x20 DUP2 ADD SWAP1 PUSH2 0x1EE3 SWAP2 SWAP1 PUSH2 0x3947 JUMP JUMPDEST PUSH1 0x1 PUSH1 0x1 PUSH1 0xA0 SHL SUB AND PUSH4 0x95EA7B3 DUP5 DUP5 PUSH1 0x0 DUP2 DUP2 LT PUSH2 0x1F04 JUMPI PUSH2 0x1F04 PUSH2 0x3F25 JUMP JUMPDEST SWAP1 POP PUSH1 0x20 MUL ADD PUSH1 0x20 DUP2 ADD SWAP1 PUSH2 0x1F19 SWAP2 SWAP1 PUSH2 0x3947 JUMP JUMPDEST PUSH1 0x40 MLOAD PUSH1 0x1 PUSH1 0x1 PUSH1 0xE0 SHL SUB NOT PUSH1 0xE0 DUP5 SWAP1 SHL AND DUP2 MSTORE PUSH1 0x1 PUSH1 0x1 PUSH1 0xA0 SHL SUB SWAP1 SWAP2 AND PUSH1 0x4 DUP3 ADD MSTORE PUSH1 0x0 NOT PUSH1 0x24 DUP3 ADD MSTORE PUSH1 0x44 ADD PUSH1 0x20 PUSH1 0x40 MLOAD DUP1 DUP4 SUB DUP2 PUSH1 0x0 DUP8 DUP1 EXTCODESIZE ISZERO DUP1 ISZERO PUSH2 0x1F62 JUMPI PUSH1 0x0 DUP1 REVERT JUMPDEST POP GAS CALL ISZERO DUP1 ISZERO PUSH2 0x1F76 JUMPI RETURNDATASIZE PUSH1 0x0 DUP1 RETURNDATACOPY RETURNDATASIZE PUSH1 0x0 REVERT JUMPDEST POP POP POP POP PUSH1 0x40 MLOAD RETURNDATASIZE PUSH1 0x1F NOT PUSH1 0x1F DUP3 ADD AND DUP3 ADD DUP1 PUSH1 0x40 MSTORE POP DUP2 ADD SWAP1 PUSH2 0x1F9A SWAP2 SWAP1 PUSH2 0x3A84 JUMP JUMPDEST POP PUSH1 0x1 DUP1 PUSH1 0x0 DUP6 DUP6 PUSH1 0x3 DUP2 DUP2 LT PUSH2 0x1FB3 JUMPI PUSH2 0x1FB3 PUSH2 0x3F25 JUMP JUMPDEST SWAP1 POP PUSH1 0x20 MUL ADD PUSH1 0x20 DUP2 ADD SWAP1 PUSH2 0x1FC8 SWAP2 SWAP1 PUSH2 0x3947 JUMP JUMPDEST PUSH1 0x1 PUSH1 0x1 PUSH1 0xA0 SHL SUB AND PUSH1 0x1 PUSH1 0x1 PUSH1 0xA0 SHL SUB AND DUP2 MSTORE PUSH1 0x20 ADD SWAP1 DUP2 MSTORE PUSH1 0x20 ADD PUSH1 0x0 KECCAK256 PUSH1 0x0 DUP6 DUP6 PUSH1 0x0 DUP2 DUP2 LT PUSH2 0x1FFD JUMPI PUSH2 0x1FFD PUSH2 0x3F25 JUMP JUMPDEST SWAP1 POP PUSH1 0x20 MUL ADD PUSH1 0x20 DUP2 ADD SWAP1 PUSH2 0x2012 SWAP2 SWAP1 PUSH2 0x3947 JUMP JUMPDEST PUSH1 0x1 PUSH1 0x1 PUSH1 0xA0 SHL SUB AND DUP2 MSTORE PUSH1 0x20 DUP2 ADD SWAP2 SWAP1 SWAP2 MSTORE PUSH1 0x40 ADD PUSH1 0x0 KECCAK256 DUP1 SLOAD PUSH1 0xFF NOT AND SWAP2 ISZERO ISZERO SWAP2 SWAP1 SWAP2 OR SWAP1 SSTORE JUMPDEST PUSH1 0x0 DUP9 PUSH1 0x1 PUSH1 0x1 PUSH1 0xA0 SHL SUB AND PUSH4 0xDFE1681 PUSH1 0x40 MLOAD DUP2 PUSH4 0xFFFFFFFF AND PUSH1 0xE0 SHL DUP2 MSTORE PUSH1 0x4 ADD PUSH1 0x20 PUSH1 0x40 MLOAD DUP1 DUP4 SUB DUP2 DUP7 DUP1 EXTCODESIZE ISZERO DUP1 ISZERO PUSH2 0x2076 JUMPI PUSH1 0x0 DUP1 REVERT JUMPDEST POP GAS STATICCALL ISZERO DUP1 ISZERO PUSH2 0x208A JUMPI RETURNDATASIZE PUSH1 0x0 DUP1 RETURNDATACOPY RETURNDATASIZE PUSH1 0x0 REVERT JUMPDEST POP POP POP POP PUSH1 0x40 MLOAD RETURNDATASIZE PUSH1 0x1F NOT PUSH1 0x1F DUP3 ADD AND DUP3 ADD DUP1 PUSH1 0x40 MSTORE POP DUP2 ADD SWAP1 PUSH2 0x20AE SWAP2 SWAP1 PUSH2 0x3964 JUMP JUMPDEST SWAP1 POP PUSH1 0x0 DUP10 PUSH1 0x1 PUSH1 0x1 PUSH1 0xA0 SHL SUB AND PUSH4 0xD21220A7 PUSH1 0x40 MLOAD DUP2 PUSH4 0xFFFFFFFF AND PUSH1 0xE0 SHL DUP2 MSTORE PUSH1 0x4 ADD PUSH1 0x20 PUSH1 0x40 MLOAD DUP1 DUP4 SUB DUP2 DUP7 DUP1 EXTCODESIZE ISZERO DUP1 ISZERO PUSH2 0x20EB JUMPI PUSH1 0x0 DUP1 REVERT JUMPDEST POP GAS STATICCALL ISZERO DUP1 ISZERO PUSH2 0x20FF JUMPI RETURNDATASIZE PUSH1 0x0 DUP1 RETURNDATACOPY RETURNDATASIZE PUSH1 0x0 REVERT JUMPDEST POP POP POP POP PUSH1 0x40 MLOAD RETURNDATASIZE PUSH1 0x1F NOT PUSH1 0x1F DUP3 ADD AND DUP3 ADD DUP1 PUSH1 0x40 MSTORE POP DUP2 ADD SWAP1 PUSH2 0x2123 SWAP2 SWAP1 PUSH2 0x3964 JUMP JUMPDEST SWAP1 POP PUSH1 0x0 DUP3 PUSH1 0x1 PUSH1 0x1 PUSH1 0xA0 SHL SUB AND DUP7 DUP7 PUSH1 0x3 DUP2 DUP2 LT PUSH2 0x2144 JUMPI PUSH2 0x2144 PUSH2 0x3F25 JUMP JUMPDEST SWAP1 POP PUSH1 0x20 MUL ADD PUSH1 0x20 DUP2 ADD SWAP1 PUSH2 0x2159 SWAP2 SWAP1 PUSH2 0x3947 JUMP JUMPDEST PUSH1 0x1 PUSH1 0x1 PUSH1 0xA0 SHL SUB AND EQ PUSH2 0x216E JUMPI PUSH1 0x0 PUSH2 0x2170 JUMP JUMPDEST DUP4 JUMPDEST SWAP1 POP PUSH1 0x0 DUP3 PUSH1 0x1 PUSH1 0x1 PUSH1 0xA0 SHL SUB AND DUP8 DUP8 PUSH1 0x3 DUP2 DUP2 LT PUSH2 0x2191 JUMPI PUSH2 0x2191 PUSH2 0x3F25 JUMP JUMPDEST SWAP1 POP PUSH1 0x20 MUL ADD PUSH1 0x20 DUP2 ADD SWAP1 PUSH2 0x21A6 SWAP2 SWAP1 PUSH2 0x3947 JUMP JUMPDEST PUSH1 0x1 PUSH1 0x1 PUSH1 0xA0 SHL SUB AND EQ PUSH2 0x21BB JUMPI PUSH1 0x0 PUSH2 0x21BD JUMP JUMPDEST DUP5 JUMPDEST SWAP1 POP PUSH1 0x0 DUP14 DUP14 DUP14 DUP14 DUP14 DUP14 DUP14 DUP14 DUP14 PUSH1 0x40 MLOAD PUSH1 0x20 ADD PUSH2 0x21E2 SWAP10 SWAP9 SWAP8 SWAP7 SWAP6 SWAP5 SWAP4 SWAP3 SWAP2 SWAP1 PUSH2 0x3D90 JUMP JUMPDEST PUSH1 0x40 DUP1 MLOAD PUSH1 0x1F NOT DUP2 DUP5 SUB ADD DUP2 MSTORE SWAP1 DUP3 SWAP1 MSTORE PUSH4 0x22C0D9F PUSH1 0xE0 SHL DUP3 MSTORE SWAP2 POP PUSH1 0x1 PUSH1 0x1 PUSH1 0xA0 SHL SUB DUP15 AND SWAP1 PUSH4 0x22C0D9F SWAP1 PUSH2 0x2224 SWAP1 DUP7 SWAP1 DUP7 SWAP1 ADDRESS SWAP1 DUP8 SWAP1 PUSH1 0x4 ADD PUSH2 0x3DFA JUMP JUMPDEST PUSH1 0x0 PUSH1 0x40 MLOAD DUP1 DUP4 SUB DUP2 PUSH1 0x0 DUP8 DUP1 EXTCODESIZE ISZERO DUP1 ISZERO PUSH2 0x223E JUMPI PUSH1 0x0 DUP1 REVERT JUMPDEST POP GAS CALL ISZERO DUP1 ISZERO PUSH2 0x2252 JUMPI RETURNDATASIZE PUSH1 0x0 DUP1 RETURNDATACOPY RETURNDATASIZE PUSH1 0x0 REVERT JUMPDEST POP POP POP POP POP POP POP POP POP POP POP POP POP POP POP POP POP POP JUMP JUMPDEST PUSH1 0x0 SLOAD PUSH1 0x1 PUSH1 0x1 PUSH1 0xA0 SHL SUB AND CALLER EQ PUSH2 0x2290 JUMPI PUSH1 0x40 MLOAD PUSH3 0x461BCD PUSH1 0xE5 SHL DUP2 MSTORE PUSH1 0x4 ADD PUSH2 0x1F2 SWAP1 PUSH2 0x3D15 JUMP JUMPDEST PUSH1 0x1 PUSH1 0x1 PUSH1 0xA0 SHL SUB DUP4 AND PUSH2 0x22E6 JUMPI PUSH1 0x40 MLOAD PUSH3 0x461BCD PUSH1 0xE5 SHL DUP2 MSTORE PUSH1 0x20 PUSH1 0x4 DUP3 ADD MSTORE PUSH1 0x1E PUSH1 0x24 DUP3 ADD MSTORE PUSH32 0x746F6B656E206D757374206E6F74206265207A65726F20616464726573730000 PUSH1 0x44 DUP3 ADD MSTORE PUSH1 0x64 ADD PUSH2 0x1F2 JUMP JUMPDEST PUSH1 0x1 PUSH1 0x1 PUSH1 0xA0 SHL SUB DUP3 AND PUSH2 0x233C JUMPI PUSH1 0x40 MLOAD PUSH3 0x461BCD PUSH1 0xE5 SHL DUP2 MSTORE PUSH1 0x20 PUSH1 0x4 DUP3 ADD MSTORE PUSH1 0x1B PUSH1 0x24 DUP3 ADD MSTORE PUSH32 0x746F206D757374206E6F74206265207A65726F20616464726573730000000000 PUSH1 0x44 DUP3 ADD MSTORE PUSH1 0x64 ADD PUSH2 0x1F2 JUMP JUMPDEST PUSH1 0x0 DUP2 GT PUSH2 0x238C JUMPI PUSH1 0x40 MLOAD PUSH3 0x461BCD PUSH1 0xE5 SHL DUP2 MSTORE PUSH1 0x20 PUSH1 0x4 DUP3 ADD MSTORE PUSH1 0x1C PUSH1 0x24 DUP3 ADD MSTORE PUSH32 0x616D6F756E74206D75737420626967676572207468616E207A65726F00000000 PUSH1 0x44 DUP3 ADD MSTORE PUSH1 0x64 ADD PUSH2 0x1F2 JUMP JUMPDEST PUSH1 0x40 MLOAD PUSH4 0xA9059CBB PUSH1 0xE0 SHL DUP2 MSTORE PUSH1 0x1 PUSH1 0x1 PUSH1 0xA0 SHL SUB DUP4 DUP2 AND PUSH1 0x4 DUP4 ADD MSTORE PUSH1 0x24 DUP3 ADD DUP4 SWAP1 MSTORE DUP5 AND SWAP1 PUSH4 0xA9059CBB SWAP1 PUSH1 0x44 ADD PUSH1 0x20 PUSH1 0x40 MLOAD DUP1 DUP4 SUB DUP2 PUSH1 0x0 DUP8 DUP1 EXTCODESIZE ISZERO DUP1 ISZERO PUSH2 0x23D6 JUMPI PUSH1 0x0 DUP1 REVERT JUMPDEST POP GAS CALL ISZERO DUP1 ISZERO PUSH2 0x23EA JUMPI RETURNDATASIZE PUSH1 0x0 DUP1 RETURNDATACOPY RETURNDATASIZE PUSH1 0x0 REVERT JUMPDEST POP POP POP POP PUSH1 0x40 MLOAD RETURNDATASIZE PUSH1 0x1F NOT PUSH1 0x1F DUP3 ADD AND DUP3 ADD DUP1 PUSH1 0x40 MSTORE POP DUP2 ADD SWAP1 PUSH2 0x240E SWAP2 SWAP1 PUSH2 0x3A84 JUMP JUMPDEST POP DUP2 PUSH1 0x1 PUSH1 0x1 PUSH1 0xA0 SHL SUB AND DUP4 PUSH1 0x1 PUSH1 0x1 PUSH1 0xA0 SHL SUB AND PUSH32 0x9B1BFA7FA9EE420A16E124F794C35AC9F90472ACC99140EB2F6447C714CAD8EB DUP4 PUSH1 0x40 MLOAD PUSH2 0x2454 SWAP2 DUP2 MSTORE PUSH1 0x20 ADD SWAP1 JUMP JUMPDEST PUSH1 0x40 MLOAD DUP1 SWAP2 SUB SWAP1 LOG3 POP POP POP JUMP JUMPDEST PUSH1 0x40 MLOAD PUSH4 0x15E3F14F PUSH1 0xE1 SHL DUP2 MSTORE PUSH1 0x1 PUSH1 0x1 PUSH1 0xA0 SHL SUB DUP3 AND PUSH1 0x4 DUP3 ADD MSTORE PUSH1 0x0 SWAP1 PUSH20 0xFD36E2C2A6789DB23113685031D7F16329158384 SWAP1 PUSH4 0x2BC7E29E SWAP1 PUSH1 0x24 ADD PUSH1 0x20 PUSH1 0x40 MLOAD DUP1 DUP4 SUB DUP2 DUP7 DUP1 EXTCODESIZE ISZERO DUP1 ISZERO PUSH2 0x24B7 JUMPI PUSH1 0x0 DUP1 REVERT JUMPDEST POP GAS STATICCALL ISZERO DUP1 ISZERO PUSH2 0x24CB JUMPI RETURNDATASIZE PUSH1 0x0 DUP1 RETURNDATACOPY RETURNDATASIZE PUSH1 0x0 REVERT JUMPDEST POP POP POP POP PUSH1 0x40 MLOAD RETURNDATASIZE PUSH1 0x1F NOT PUSH1 0x1F DUP3 ADD AND DUP3 ADD DUP1 PUSH1 0x40 MSTORE POP DUP2 ADD SWAP1 PUSH2 0x24EF SWAP2 SWAP1 PUSH2 0x3AF6 JUMP JUMPDEST SWAP3 SWAP2 POP POP JUMP JUMPDEST PUSH1 0x0 SLOAD PUSH1 0x1 PUSH1 0x1 PUSH1 0xA0 SHL SUB AND CALLER EQ PUSH2 0x251F JUMPI PUSH1 0x40 MLOAD PUSH3 0x461BCD PUSH1 0xE5 SHL DUP2 MSTORE PUSH1 0x4 ADD PUSH2 0x1F2 SWAP1 PUSH2 0x3D15 JUMP JUMPDEST PUSH1 0x1 PUSH1 0x1 PUSH1 0xA0 SHL SUB DUP2 AND PUSH2 0x2584 JUMPI PUSH1 0x40 MLOAD PUSH3 0x461BCD PUSH1 0xE5 SHL DUP2 MSTORE PUSH1 0x20 PUSH1 0x4 DUP3 ADD MSTORE PUSH1 0x26 PUSH1 0x24 DUP3 ADD MSTORE PUSH32 0x4F776E61626C653A206E6577206F776E657220697320746865207A65726F2061 PUSH1 0x44 DUP3 ADD MSTORE PUSH6 0x646472657373 PUSH1 0xD0 SHL PUSH1 0x64 DUP3 ADD MSTORE PUSH1 0x84 ADD PUSH2 0x1F2 JUMP JUMPDEST PUSH2 0x258D DUP2 PUSH2 0x2590 JUMP JUMPDEST POP JUMP JUMPDEST PUSH1 0x0 DUP1 SLOAD PUSH1 0x1 PUSH1 0x1 PUSH1 0xA0 SHL SUB DUP4 DUP2 AND PUSH1 0x1 PUSH1 0x1 PUSH1 0xA0 SHL SUB NOT DUP4 AND DUP2 OR DUP5 SSTORE PUSH1 0x40 MLOAD SWAP2 SWAP1 SWAP3 AND SWAP3 DUP4 SWAP2 PUSH32 0x8BE0079C531659141344CD1FD0A4F28419497F9722A3DAAFE3B4186F6B6457E0 SWAP2 SWAP1 LOG3 POP POP JUMP JUMPDEST PUSH1 0x0 PUSH1 0x1 PUSH1 0x1 PUSH1 0xA0 SHL SUB DUP3 AND PUSH20 0x95C78222B3D6E262426483D42CFA53685A67AB9D EQ DUP1 PUSH2 0x2629 JUMPI POP PUSH1 0x1 PUSH1 0x1 PUSH1 0xA0 SHL SUB DUP3 AND PUSH20 0xFD5840CD36D94D7229439859C0112A4185BC0255 EQ JUMPDEST DUP1 PUSH2 0x24EF JUMPI POP PUSH1 0x1 PUSH1 0x1 PUSH1 0xA0 SHL SUB DUP3 AND PUSH20 0x334B3ECB4DCA3593BCCC3C7EBD1A1C1D1780FBF1 EQ SWAP3 SWAP2 POP POP JUMP JUMPDEST PUSH1 0x40 MLOAD PUSH4 0x70A08231 PUSH1 0xE0 SHL DUP2 MSTORE ADDRESS PUSH1 0x4 DUP3 ADD MSTORE PUSH1 0x0 SWAP1 DUP2 SWAP1 DUP6 SWAP1 DUP3 SWAP1 DUP2 SWAP1 DUP2 SWAP1 PUSH1 0x1 PUSH1 0x1 PUSH1 0xA0 SHL SUB DUP6 AND SWAP1 PUSH4 0x70A08231 SWAP1 PUSH1 0x24 ADD PUSH1 0x20 PUSH1 0x40 MLOAD DUP1 DUP4 SUB DUP2 DUP7 DUP1 EXTCODESIZE ISZERO DUP1 ISZERO PUSH2 0x26A1 JUMPI PUSH1 0x0 DUP1 REVERT JUMPDEST POP GAS STATICCALL ISZERO DUP1 ISZERO PUSH2 0x26B5 JUMPI RETURNDATASIZE PUSH1 0x0 DUP1 RETURNDATACOPY RETURNDATASIZE PUSH1 0x0 REVERT JUMPDEST POP POP POP POP PUSH1 0x40 MLOAD RETURNDATASIZE PUSH1 0x1F NOT PUSH1 0x1F DUP3 ADD AND DUP3 ADD DUP1 PUSH1 0x40 MSTORE POP DUP2 ADD SWAP1 PUSH2 0x26D9 SWAP2 SWAP1 PUSH2 0x3AF6 JUMP JUMPDEST SWAP1 POP PUSH20 0xA07C5B74C9B40447A954E1466938B865B6BBEA36 PUSH1 0x1 PUSH1 0x1 PUSH1 0xA0 SHL SUB DUP12 AND EQ ISZERO PUSH2 0x276A JUMPI PUSH1 0x40 MLOAD PUSH4 0x55720515 PUSH1 0xE1 SHL DUP2 MSTORE PUSH1 0x1 PUSH1 0x1 PUSH1 0xA0 SHL SUB DUP10 DUP2 AND PUSH1 0x4 DUP4 ADD MSTORE DUP11 DUP2 AND PUSH1 0x24 DUP4 ADD MSTORE DUP12 AND SWAP1 PUSH4 0xAAE40A2A SWAP1 DUP10 SWAP1 PUSH1 0x44 ADD PUSH1 0x0 PUSH1 0x40 MLOAD DUP1 DUP4 SUB DUP2 DUP6 DUP9 DUP1 EXTCODESIZE ISZERO DUP1 ISZERO PUSH2 0x274C JUMPI PUSH1 0x0 DUP1 REVERT JUMPDEST POP GAS CALL ISZERO DUP1 ISZERO PUSH2 0x2760 JUMPI RETURNDATASIZE PUSH1 0x0 DUP1 RETURNDATACOPY RETURNDATASIZE PUSH1 0x0 REVERT JUMPDEST POP POP POP POP POP PUSH2 0x293B JUMP JUMPDEST PUSH19 0x4065D34C6B18CE4370CED1CEBDE94865DBFAFE PUSH1 0x1 PUSH1 0x1 PUSH1 0xA0 SHL SUB DUP12 AND EQ ISZERO PUSH2 0x2867 JUMPI PUSH1 0x40 MLOAD PUSH4 0x11B3D5E7 PUSH1 0xE0 SHL DUP2 MSTORE PUSH1 0x1 PUSH1 0x1 PUSH1 0xA0 SHL SUB DUP10 DUP2 AND PUSH1 0x4 DUP4 ADD MSTORE PUSH1 0x24 DUP3 ADD DUP10 SWAP1 MSTORE DUP6 DUP2 AND PUSH1 0x44 DUP4 ADD MSTORE DUP12 AND SWAP1 PUSH4 0x11B3D5E7 SWAP1 PUSH1 0x64 ADD PUSH1 0x40 DUP1 MLOAD DUP1 DUP4 SUB DUP2 PUSH1 0x0 DUP8 DUP1 EXTCODESIZE ISZERO DUP1 ISZERO PUSH2 0x27DF JUMPI PUSH1 0x0 DUP1 REVERT JUMPDEST POP GAS CALL ISZERO DUP1 ISZERO PUSH2 0x27F3 JUMPI RETURNDATASIZE PUSH1 0x0 DUP1 RETURNDATACOPY RETURNDATASIZE PUSH1 0x0 REVERT JUMPDEST POP POP POP POP PUSH1 0x40 MLOAD RETURNDATASIZE PUSH1 0x1F NOT PUSH1 0x1F DUP3 ADD AND DUP3 ADD DUP1 PUSH1 0x40 MSTORE POP DUP2 ADD SWAP1 PUSH2 0x2817 SWAP2 SWAP1 PUSH2 0x3C7A JUMP JUMPDEST SWAP1 SWAP4 POP SWAP2 POP DUP3 ISZERO PUSH2 0x2862 JUMPI PUSH1 0x40 MLOAD PUSH3 0x461BCD PUSH1 0xE5 SHL DUP2 MSTORE PUSH1 0x20 PUSH1 0x4 DUP3 ADD MSTORE PUSH1 0x15 PUSH1 0x24 DUP3 ADD MSTORE PUSH21 0x3634B8BAB4B230BA32A137B93937BB9032B93937B9 PUSH1 0x59 SHL PUSH1 0x44 DUP3 ADD MSTORE PUSH1 0x64 ADD PUSH2 0x1F2 JUMP JUMPDEST PUSH2 0x293B JUMP JUMPDEST PUSH1 0x40 MLOAD PUSH4 0x7AF1E231 PUSH1 0xE1 SHL DUP2 MSTORE PUSH1 0x1 PUSH1 0x1 PUSH1 0xA0 SHL SUB DUP10 DUP2 AND PUSH1 0x4 DUP4 ADD MSTORE PUSH1 0x24 DUP3 ADD DUP10 SWAP1 MSTORE DUP6 DUP2 AND PUSH1 0x44 DUP4 ADD MSTORE DUP12 SWAP2 SWAP1 DUP3 AND SWAP1 PUSH4 0xF5E3C462 SWAP1 PUSH1 0x64 ADD PUSH1 0x20 PUSH1 0x40 MLOAD DUP1 DUP4 SUB DUP2 PUSH1 0x0 DUP8 DUP1 EXTCODESIZE ISZERO DUP1 ISZERO PUSH2 0x28BC JUMPI PUSH1 0x0 DUP1 REVERT JUMPDEST POP GAS CALL ISZERO DUP1 ISZERO PUSH2 0x28D0 JUMPI RETURNDATASIZE PUSH1 0x0 DUP1 RETURNDATACOPY RETURNDATASIZE PUSH1 0x0 REVERT JUMPDEST POP POP POP POP PUSH1 0x40 MLOAD RETURNDATASIZE PUSH1 0x1F NOT PUSH1 0x1F DUP3 ADD AND DUP3 ADD DUP1 PUSH1 0x40 MSTORE POP DUP2 ADD SWAP1 PUSH2 0x28F4 SWAP2 SWAP1 PUSH2 0x3AF6 JUMP JUMPDEST ISZERO PUSH2 0x2939 JUMPI PUSH1 0x40 MLOAD PUSH3 0x461BCD PUSH1 0xE5 SHL DUP2 MSTORE PUSH1 0x20 PUSH1 0x4 DUP3 ADD MSTORE PUSH1 0x15 PUSH1 0x24 DUP3 ADD MSTORE PUSH21 0x3634B8BAB4B230BA32A137B93937BB9032B93937B9 PUSH1 0x59 SHL PUSH1 0x44 DUP3 ADD MSTORE PUSH1 0x64 ADD PUSH2 0x1F2 JUMP JUMPDEST POP JUMPDEST PUSH1 0x40 MLOAD PUSH4 0x70A08231 PUSH1 0xE0 SHL DUP2 MSTORE ADDRESS PUSH1 0x4 DUP3 ADD MSTORE PUSH1 0x0 SWAP1 PUSH1 0x1 PUSH1 0x1 PUSH1 0xA0 SHL SUB DUP7 AND SWAP1 PUSH4 0x70A08231 SWAP1 PUSH1 0x24 ADD PUSH1 0x20 PUSH1 0x40 MLOAD DUP1 DUP4 SUB DUP2 DUP7 DUP1 EXTCODESIZE ISZERO DUP1 ISZERO PUSH2 0x297D JUMPI PUSH1 0x0 DUP1 REVERT JUMPDEST POP GAS STATICCALL ISZERO DUP1 ISZERO PUSH2 0x2991 JUMPI RETURNDATASIZE PUSH1 0x0 DUP1 RETURNDATACOPY RETURNDATASIZE PUSH1 0x0 REVERT JUMPDEST POP POP POP POP PUSH1 0x40 MLOAD RETURNDATASIZE PUSH1 0x1F NOT PUSH1 0x1F DUP3 ADD AND DUP3 ADD DUP1 PUSH1 0x40 MSTORE POP DUP2 ADD SWAP1 PUSH2 0x29B5 SWAP2 SWAP1 PUSH2 0x3AF6 JUMP JUMPDEST SWAP1 POP PUSH1 0x0 PUSH2 0x29C3 DUP4 DUP4 PUSH2 0x3EC6 JUMP JUMPDEST SWAP1 POP PUSH1 0x0 DUP2 GT PUSH2 0x2A15 JUMPI PUSH1 0x40 MLOAD PUSH3 0x461BCD PUSH1 0xE5 SHL DUP2 MSTORE PUSH1 0x20 PUSH1 0x4 DUP3 ADD MSTORE PUSH1 0x1C PUSH1 0x24 DUP3 ADD MSTORE PUSH32 0x7365697A65642056546F6B656E20616D6F756E74206973207A65726F00000000 PUSH1 0x44 DUP3 ADD MSTORE PUSH1 0x64 ADD PUSH2 0x1F2 JUMP JUMPDEST PUSH1 0x40 DUP1 MLOAD DUP11 DUP2 MSTORE PUSH1 0x20 DUP2 ADD DUP7 SWAP1 MSTORE SWAP1 DUP2 ADD DUP3 SWAP1 MSTORE PUSH32 0xFDE0EB536FECEE7FCA644722FC2E6255EE0571307AB7F46F7FEA23FE302D4479 SWAP1 PUSH1 0x60 ADD PUSH1 0x40 MLOAD DUP1 SWAP2 SUB SWAP1 LOG1 SWAP12 SWAP3 SWAP11 POP SWAP2 SWAP9 POP POP POP POP POP POP POP POP POP JUMP JUMPDEST PUSH1 0x0 DUP1 DUP1 DUP1 PUSH20 0xA07C5B74C9B40447A954E1466938B865B6BBEA36 PUSH1 0x1 PUSH1 0x1 PUSH1 0xA0 SHL SUB DUP9 AND EQ ISZERO PUSH2 0x2B54 JUMPI PUSH1 0x40 MLOAD PUSH4 0xDB006A75 PUSH1 0xE0 SHL DUP2 MSTORE PUSH1 0x4 DUP2 ADD DUP7 SWAP1 MSTORE SELFBALANCE SWAP4 POP PUSH1 0x1 PUSH1 0x1 PUSH1 0xA0 SHL SUB DUP9 AND SWAP1 PUSH4 0xDB006A75 SWAP1 PUSH1 0x24 ADD PUSH1 0x20 PUSH1 0x40 MLOAD DUP1 DUP4 SUB DUP2 PUSH1 0x0 DUP8 DUP1 EXTCODESIZE ISZERO DUP1 ISZERO PUSH2 0x2AD6 JUMPI PUSH1 0x0 DUP1 REVERT JUMPDEST POP GAS CALL ISZERO DUP1 ISZERO PUSH2 0x2AEA JUMPI RETURNDATASIZE PUSH1 0x0 DUP1 RETURNDATACOPY RETURNDATASIZE PUSH1 0x0 REVERT JUMPDEST POP POP POP POP PUSH1 0x40 MLOAD RETURNDATASIZE PUSH1 0x1F NOT PUSH1 0x1F DUP3 ADD AND DUP3 ADD DUP1 PUSH1 0x40 MSTORE POP DUP2 ADD SWAP1 PUSH2 0x2B0E SWAP2 SWAP1 PUSH2 0x3AF6 JUMP JUMPDEST ISZERO PUSH2 0x2B4C JUMPI PUSH1 0x40 MLOAD PUSH3 0x461BCD PUSH1 0xE5 SHL DUP2 MSTORE PUSH1 0x20 PUSH1 0x4 DUP3 ADD MSTORE PUSH1 0xE PUSH1 0x24 DUP3 ADD MSTORE PUSH14 0x3932B232B2B6902127211032B939 PUSH1 0x91 SHL PUSH1 0x44 DUP3 ADD MSTORE PUSH1 0x64 ADD PUSH2 0x1F2 JUMP JUMPDEST SELFBALANCE SWAP2 POP PUSH2 0x2D04 JUMP JUMPDEST PUSH1 0x40 MLOAD PUSH4 0x70A08231 PUSH1 0xE0 SHL DUP2 MSTORE ADDRESS PUSH1 0x4 DUP3 ADD MSTORE DUP8 SWAP1 DUP8 SWAP1 PUSH1 0x1 PUSH1 0x1 PUSH1 0xA0 SHL SUB DUP3 AND SWAP1 PUSH4 0x70A08231 SWAP1 PUSH1 0x24 ADD PUSH1 0x20 PUSH1 0x40 MLOAD DUP1 DUP4 SUB DUP2 DUP7 DUP1 EXTCODESIZE ISZERO DUP1 ISZERO PUSH2 0x2B97 JUMPI PUSH1 0x0 DUP1 REVERT JUMPDEST POP GAS STATICCALL ISZERO DUP1 ISZERO PUSH2 0x2BAB JUMPI RETURNDATASIZE PUSH1 0x0 DUP1 RETURNDATACOPY RETURNDATASIZE PUSH1 0x0 REVERT JUMPDEST POP POP POP POP PUSH1 0x40 MLOAD RETURNDATASIZE PUSH1 0x1F NOT PUSH1 0x1F DUP3 ADD AND DUP3 ADD DUP1 PUSH1 0x40 MSTORE POP DUP2 ADD SWAP1 PUSH2 0x2BCF SWAP2 SWAP1 PUSH2 0x3AF6 JUMP JUMPDEST PUSH1 0x40 MLOAD PUSH4 0xDB006A75 PUSH1 0xE0 SHL DUP2 MSTORE PUSH1 0x4 DUP2 ADD DUP10 SWAP1 MSTORE SWAP1 SWAP6 POP PUSH1 0x1 PUSH1 0x1 PUSH1 0xA0 SHL SUB DUP4 AND SWAP1 PUSH4 0xDB006A75 SWAP1 PUSH1 0x24 ADD PUSH1 0x20 PUSH1 0x40 MLOAD DUP1 DUP4 SUB DUP2 PUSH1 0x0 DUP8 DUP1 EXTCODESIZE ISZERO DUP1 ISZERO PUSH2 0x2C14 JUMPI PUSH1 0x0 DUP1 REVERT JUMPDEST POP GAS CALL ISZERO DUP1 ISZERO PUSH2 0x2C28 JUMPI RETURNDATASIZE PUSH1 0x0 DUP1 RETURNDATACOPY RETURNDATASIZE PUSH1 0x0 REVERT JUMPDEST POP POP POP POP PUSH1 0x40 MLOAD RETURNDATASIZE PUSH1 0x1F NOT PUSH1 0x1F DUP3 ADD AND DUP3 ADD DUP1 PUSH1 0x40 MSTORE POP DUP2 ADD SWAP1 PUSH2 0x2C4C SWAP2 SWAP1 PUSH2 0x3AF6 JUMP JUMPDEST ISZERO PUSH2 0x2C88 JUMPI PUSH1 0x40 MLOAD PUSH3 0x461BCD PUSH1 0xE5 SHL DUP2 MSTORE PUSH1 0x20 PUSH1 0x4 DUP3 ADD MSTORE PUSH1 0xC PUSH1 0x24 DUP3 ADD MSTORE PUSH12 0x3932B232B2B69032B93937B9 PUSH1 0xA1 SHL PUSH1 0x44 DUP3 ADD MSTORE PUSH1 0x64 ADD PUSH2 0x1F2 JUMP JUMPDEST PUSH1 0x40 MLOAD PUSH4 0x70A08231 PUSH1 0xE0 SHL DUP2 MSTORE ADDRESS PUSH1 0x4 DUP3 ADD MSTORE PUSH1 0x1 PUSH1 0x1 PUSH1 0xA0 SHL SUB DUP3 AND SWAP1 PUSH4 0x70A08231 SWAP1 PUSH1 0x24 ADD PUSH1 0x20 PUSH1 0x40 MLOAD DUP1 DUP4 SUB DUP2 DUP7 DUP1 EXTCODESIZE ISZERO DUP1 ISZERO PUSH2 0x2CC7 JUMPI PUSH1 0x0 DUP1 REVERT JUMPDEST POP GAS STATICCALL ISZERO DUP1 ISZERO PUSH2 0x2CDB JUMPI RETURNDATASIZE PUSH1 0x0 DUP1 RETURNDATACOPY RETURNDATASIZE PUSH1 0x0 REVERT JUMPDEST POP POP POP POP PUSH1 0x40 MLOAD RETURNDATASIZE PUSH1 0x1F NOT PUSH1 0x1F DUP3 ADD AND DUP3 ADD DUP1 PUSH1 0x40 MSTORE POP DUP2 ADD SWAP1 PUSH2 0x2CFF SWAP2 SWAP1 PUSH2 0x3AF6 JUMP JUMPDEST SWAP4 POP POP POP JUMPDEST PUSH2 0x2D0E DUP4 DUP4 PUSH2 0x3EC6 JUMP JUMPDEST PUSH1 0x40 DUP1 MLOAD DUP8 DUP2 MSTORE PUSH1 0x20 DUP2 ADD DUP4 SWAP1 MSTORE SWAP2 SWAP3 POP PUSH32 0x2A500C424B9E55CA96EF57F09281232662A42069DE49730505B2BBD019412DCF SWAP2 ADD PUSH1 0x40 MLOAD DUP1 SWAP2 SUB SWAP1 LOG1 SWAP3 POP POP POP JUMPDEST SWAP4 SWAP3 POP POP POP JUMP JUMPDEST PUSH1 0x60 PUSH2 0x2D77 PUSH20 0xCA143CE32FE78F1F7019D7D551A6402FC5350C73 DUP6 DUP6 PUSH2 0x2EC0 JUMP JUMPDEST SWAP1 POP DUP3 PUSH1 0x0 DUP2 MLOAD DUP2 LT PUSH2 0x2D8C JUMPI PUSH2 0x2D8C PUSH2 0x3F25 JUMP JUMPDEST PUSH1 0x20 MUL PUSH1 0x20 ADD ADD MLOAD PUSH1 0x1 PUSH1 0x1 PUSH1 0xA0 SHL SUB AND PUSH4 0xA9059CBB PUSH2 0x2DF5 PUSH20 0xCA143CE32FE78F1F7019D7D551A6402FC5350C73 DUP7 PUSH1 0x0 DUP2 MLOAD DUP2 LT PUSH2 0x2DCD JUMPI PUSH2 0x2DCD PUSH2 0x3F25 JUMP JUMPDEST PUSH1 0x20 MUL PUSH1 0x20 ADD ADD MLOAD DUP8 PUSH1 0x1 DUP2 MLOAD DUP2 LT PUSH2 0x2DE8 JUMPI PUSH2 0x2DE8 PUSH2 0x3F25 JUMP JUMPDEST PUSH1 0x20 MUL PUSH1 0x20 ADD ADD MLOAD PUSH2 0x304B JUMP JUMPDEST DUP4 PUSH1 0x0 DUP2 MLOAD DUP2 LT PUSH2 0x2E08 JUMPI PUSH2 0x2E08 PUSH2 0x3F25 JUMP JUMPDEST PUSH1 0x20 MUL PUSH1 0x20 ADD ADD MLOAD PUSH1 0x40 MLOAD DUP4 PUSH4 0xFFFFFFFF AND PUSH1 0xE0 SHL DUP2 MSTORE PUSH1 0x4 ADD PUSH2 0x2E41 SWAP3 SWAP2 SWAP1 PUSH1 0x1 PUSH1 0x1 PUSH1 0xA0 SHL SUB SWAP3 SWAP1 SWAP3 AND DUP3 MSTORE PUSH1 0x20 DUP3 ADD MSTORE PUSH1 0x40 ADD SWAP1 JUMP JUMPDEST PUSH1 0x20 PUSH1 0x40 MLOAD DUP1 DUP4 SUB DUP2 PUSH1 0x0 DUP8 DUP1 EXTCODESIZE ISZERO DUP1 ISZERO PUSH2 0x2E5B JUMPI PUSH1 0x0 DUP1 REVERT JUMPDEST POP GAS CALL ISZERO DUP1 ISZERO PUSH2 0x2E6F JUMPI RETURNDATASIZE PUSH1 0x0 DUP1 RETURNDATACOPY RETURNDATASIZE PUSH1 0x0 REVERT JUMPDEST POP POP POP POP PUSH1 0x40 MLOAD RETURNDATASIZE PUSH1 0x1F NOT PUSH1 0x1F DUP3 ADD AND DUP3 ADD DUP1 PUSH1 0x40 MSTORE POP DUP2 ADD SWAP1 PUSH2 0x2E93 SWAP2 SWAP1 PUSH2 0x3A84 JUMP JUMPDEST POP PUSH2 0x2D4F DUP2 DUP5 DUP5 PUSH2 0x3123 JUMP JUMPDEST PUSH1 0x60 PUSH2 0x2D77 PUSH20 0xCA143CE32FE78F1F7019D7D551A6402FC5350C73 DUP6 DUP6 PUSH2 0x3300 JUMP JUMPDEST PUSH1 0x60 PUSH1 0x2 DUP3 MLOAD LT ISZERO PUSH2 0x2F14 JUMPI PUSH1 0x40 MLOAD PUSH3 0x461BCD PUSH1 0xE5 SHL DUP2 MSTORE PUSH1 0x20 PUSH1 0x4 DUP3 ADD MSTORE PUSH1 0x1C PUSH1 0x24 DUP3 ADD MSTORE PUSH32 0x50616E63616B654C6962726172793A20494E56414C49445F5041544800000000 PUSH1 0x44 DUP3 ADD MSTORE PUSH1 0x64 ADD PUSH2 0x1F2 JUMP JUMPDEST DUP2 MLOAD PUSH8 0xFFFFFFFFFFFFFFFF DUP2 GT ISZERO PUSH2 0x2F2E JUMPI PUSH2 0x2F2E PUSH2 0x3F3B JUMP JUMPDEST PUSH1 0x40 MLOAD SWAP1 DUP1 DUP3 MSTORE DUP1 PUSH1 0x20 MUL PUSH1 0x20 ADD DUP3 ADD PUSH1 0x40 MSTORE DUP1 ISZERO PUSH2 0x2F57 JUMPI DUP2 PUSH1 0x20 ADD PUSH1 0x20 DUP3 MUL DUP1 CALLDATASIZE DUP4 CALLDATACOPY ADD SWAP1 POP JUMPDEST POP SWAP1 POP DUP3 DUP2 PUSH1 0x0 DUP2 MLOAD DUP2 LT PUSH2 0x2F6E JUMPI PUSH2 0x2F6E PUSH2 0x3F25 JUMP JUMPDEST PUSH1 0x20 MUL PUSH1 0x20 ADD ADD DUP2 DUP2 MSTORE POP POP PUSH1 0x0 JUMPDEST PUSH1 0x1 DUP4 MLOAD PUSH2 0x2F8B SWAP2 SWAP1 PUSH2 0x3EC6 JUMP JUMPDEST DUP2 LT ISZERO PUSH2 0x3043 JUMPI PUSH1 0x0 DUP1 PUSH2 0x2FDE DUP8 DUP7 DUP6 DUP2 MLOAD DUP2 LT PUSH2 0x2FAB JUMPI PUSH2 0x2FAB PUSH2 0x3F25 JUMP JUMPDEST PUSH1 0x20 MUL PUSH1 0x20 ADD ADD MLOAD DUP8 DUP7 PUSH1 0x1 PUSH2 0x2FC1 SWAP2 SWAP1 PUSH2 0x3E6D JUMP JUMPDEST DUP2 MLOAD DUP2 LT PUSH2 0x2FD1 JUMPI PUSH2 0x2FD1 PUSH2 0x3F25 JUMP JUMPDEST PUSH1 0x20 MUL PUSH1 0x20 ADD ADD MLOAD PUSH2 0x3481 JUMP JUMPDEST SWAP2 POP SWAP2 POP PUSH2 0x3006 DUP5 DUP5 DUP2 MLOAD DUP2 LT PUSH2 0x2FF7 JUMPI PUSH2 0x2FF7 PUSH2 0x3F25 JUMP JUMPDEST PUSH1 0x20 MUL PUSH1 0x20 ADD ADD MLOAD DUP4 DUP4 PUSH2 0x3566 JUMP JUMPDEST DUP5 PUSH2 0x3012 DUP6 PUSH1 0x1 PUSH2 0x3E6D JUMP JUMPDEST DUP2 MLOAD DUP2 LT PUSH2 0x3022 JUMPI PUSH2 0x3022 PUSH2 0x3F25 JUMP JUMPDEST PUSH1 0x20 MUL PUSH1 0x20 ADD ADD DUP2 DUP2 MSTORE POP POP POP POP DUP1 DUP1 PUSH2 0x303B SWAP1 PUSH2 0x3EF4 JUMP JUMPDEST SWAP2 POP POP PUSH2 0x2F7D JUMP JUMPDEST POP SWAP4 SWAP3 POP POP POP JUMP JUMPDEST PUSH1 0x0 DUP1 PUSH1 0x0 PUSH2 0x305A DUP6 DUP6 PUSH2 0x3642 JUMP JUMPDEST PUSH1 0x40 MLOAD PUSH12 0xFFFFFFFFFFFFFFFFFFFFFFFF NOT PUSH1 0x60 DUP5 DUP2 SHL DUP3 AND PUSH1 0x20 DUP5 ADD MSTORE DUP4 SWAP1 SHL AND PUSH1 0x34 DUP3 ADD MSTORE SWAP2 SWAP4 POP SWAP2 POP DUP7 SWAP1 PUSH1 0x48 ADD PUSH1 0x40 MLOAD PUSH1 0x20 DUP2 DUP4 SUB SUB DUP2 MSTORE SWAP1 PUSH1 0x40 MSTORE DUP1 MLOAD SWAP1 PUSH1 0x20 ADD KECCAK256 PUSH1 0x40 MLOAD PUSH1 0x20 ADD PUSH2 0x3101 SWAP3 SWAP2 SWAP1 PUSH1 0x1 PUSH1 0x1 PUSH1 0xF8 SHL SUB NOT DUP2 MSTORE PUSH1 0x60 SWAP3 SWAP1 SWAP3 SHL PUSH12 0xFFFFFFFFFFFFFFFFFFFFFFFF NOT AND PUSH1 0x1 DUP4 ADD MSTORE PUSH1 0x15 DUP3 ADD MSTORE PUSH31 0xFB7F630766E6A796048EA87D01ACD3068E8FF67D078148A3FA3F4A84F69BD5 PUSH1 0x35 DUP3 ADD MSTORE PUSH1 0x55 ADD SWAP1 JUMP JUMPDEST PUSH1 0x40 DUP1 MLOAD PUSH1 0x1F NOT DUP2 DUP5 SUB ADD DUP2 MSTORE SWAP2 SWAP1 MSTORE DUP1 MLOAD PUSH1 0x20 SWAP1 SWAP2 ADD KECCAK256 SWAP7 SWAP6 POP POP POP POP POP POP JUMP JUMPDEST PUSH1 0x0 JUMPDEST PUSH1 0x1 DUP4 MLOAD PUSH2 0x3134 SWAP2 SWAP1 PUSH2 0x3EC6 JUMP JUMPDEST DUP2 LT ISZERO PUSH2 0x19B7 JUMPI PUSH1 0x0 DUP1 DUP5 DUP4 DUP2 MLOAD DUP2 LT PUSH2 0x3150 JUMPI PUSH2 0x3150 PUSH2 0x3F25 JUMP JUMPDEST PUSH1 0x20 MUL PUSH1 0x20 ADD ADD MLOAD DUP6 DUP5 PUSH1 0x1 PUSH2 0x3166 SWAP2 SWAP1 PUSH2 0x3E6D JUMP JUMPDEST DUP2 MLOAD DUP2 LT PUSH2 0x3176 JUMPI PUSH2 0x3176 PUSH2 0x3F25 JUMP JUMPDEST PUSH1 0x20 MUL PUSH1 0x20 ADD ADD MLOAD SWAP2 POP SWAP2 POP PUSH1 0x0 PUSH2 0x318E DUP4 DUP4 PUSH2 0x3642 JUMP JUMPDEST POP SWAP1 POP PUSH1 0x0 DUP8 PUSH2 0x319F DUP7 PUSH1 0x1 PUSH2 0x3E6D JUMP JUMPDEST DUP2 MLOAD DUP2 LT PUSH2 0x31AF JUMPI PUSH2 0x31AF PUSH2 0x3F25 JUMP JUMPDEST PUSH1 0x20 MUL PUSH1 0x20 ADD ADD MLOAD SWAP1 POP PUSH1 0x0 DUP1 DUP4 PUSH1 0x1 PUSH1 0x1 PUSH1 0xA0 SHL SUB AND DUP7 PUSH1 0x1 PUSH1 0x1 PUSH1 0xA0 SHL SUB AND EQ PUSH2 0x31DD JUMPI DUP3 PUSH1 0x0 PUSH2 0x31E1 JUMP JUMPDEST PUSH1 0x0 DUP4 JUMPDEST SWAP2 POP SWAP2 POP PUSH1 0x0 PUSH1 0x2 DUP11 MLOAD PUSH2 0x31F5 SWAP2 SWAP1 PUSH2 0x3EC6 JUMP JUMPDEST DUP9 LT PUSH2 0x3201 JUMPI DUP9 PUSH2 0x3236 JUMP JUMPDEST PUSH2 0x3236 PUSH20 0xCA143CE32FE78F1F7019D7D551A6402FC5350C73 DUP8 DUP13 PUSH2 0x3226 DUP13 PUSH1 0x2 PUSH2 0x3E6D JUMP JUMPDEST DUP2 MLOAD DUP2 LT PUSH2 0x2DE8 JUMPI PUSH2 0x2DE8 PUSH2 0x3F25 JUMP JUMPDEST SWAP1 POP PUSH2 0x3257 PUSH20 0xCA143CE32FE78F1F7019D7D551A6402FC5350C73 DUP9 DUP9 PUSH2 0x304B JUMP JUMPDEST PUSH1 0x1 PUSH1 0x1 PUSH1 0xA0 SHL SUB AND PUSH4 0x22C0D9F DUP5 DUP5 DUP5 PUSH1 0x0 PUSH1 0x40 MLOAD SWAP1 DUP1 DUP3 MSTORE DUP1 PUSH1 0x1F ADD PUSH1 0x1F NOT AND PUSH1 0x20 ADD DUP3 ADD PUSH1 0x40 MSTORE DUP1 ISZERO PUSH2 0x3294 JUMPI PUSH1 0x20 DUP3 ADD DUP2 DUP1 CALLDATASIZE DUP4 CALLDATACOPY ADD SWAP1 POP JUMPDEST POP PUSH1 0x40 MLOAD DUP6 PUSH4 0xFFFFFFFF AND PUSH1 0xE0 SHL DUP2 MSTORE PUSH1 0x4 ADD PUSH2 0x32B4 SWAP5 SWAP4 SWAP3 SWAP2 SWAP1 PUSH2 0x3DFA JUMP JUMPDEST PUSH1 0x0 PUSH1 0x40 MLOAD DUP1 DUP4 SUB DUP2 PUSH1 0x0 DUP8 DUP1 EXTCODESIZE ISZERO DUP1 ISZERO PUSH2 0x32CE JUMPI PUSH1 0x0 DUP1 REVERT JUMPDEST POP GAS CALL ISZERO DUP1 ISZERO PUSH2 0x32E2 JUMPI RETURNDATASIZE PUSH1 0x0 DUP1 RETURNDATACOPY RETURNDATASIZE PUSH1 0x0 REVERT JUMPDEST POP POP POP POP POP POP POP POP POP POP POP DUP1 DUP1 PUSH2 0x32F8 SWAP1 PUSH2 0x3EF4 JUMP JUMPDEST SWAP2 POP POP PUSH2 0x3126 JUMP JUMPDEST PUSH1 0x60 PUSH1 0x2 DUP3 MLOAD LT ISZERO PUSH2 0x3354 JUMPI PUSH1 0x40 MLOAD PUSH3 0x461BCD PUSH1 0xE5 SHL DUP2 MSTORE PUSH1 0x20 PUSH1 0x4 DUP3 ADD MSTORE PUSH1 0x1C PUSH1 0x24 DUP3 ADD MSTORE PUSH32 0x50616E63616B654C6962726172793A20494E56414C49445F5041544800000000 PUSH1 0x44 DUP3 ADD MSTORE PUSH1 0x64 ADD PUSH2 0x1F2 JUMP JUMPDEST DUP2 MLOAD PUSH8 0xFFFFFFFFFFFFFFFF DUP2 GT ISZERO PUSH2 0x336E JUMPI PUSH2 0x336E PUSH2 0x3F3B JUMP JUMPDEST PUSH1 0x40 MLOAD SWAP1 DUP1 DUP3 MSTORE DUP1 PUSH1 0x20 MUL PUSH1 0x20 ADD DUP3 ADD PUSH1 0x40 MSTORE DUP1 ISZERO PUSH2 0x3397 JUMPI DUP2 PUSH1 0x20 ADD PUSH1 0x20 DUP3 MUL DUP1 CALLDATASIZE DUP4 CALLDATACOPY ADD SWAP1 POP JUMPDEST POP SWAP1 POP DUP3 DUP2 PUSH1 0x1 DUP4 MLOAD PUSH2 0x33AA SWAP2 SWAP1 PUSH2 0x3EC6 JUMP JUMPDEST DUP2 MLOAD DUP2 LT PUSH2 0x33BA JUMPI PUSH2 0x33BA PUSH2 0x3F25 JUMP JUMPDEST PUSH1 0x20 MUL PUSH1 0x20 ADD ADD DUP2 DUP2 MSTORE POP POP PUSH1 0x0 PUSH1 0x1 DUP4 MLOAD PUSH2 0x33D6 SWAP2 SWAP1 PUSH2 0x3EC6 JUMP JUMPDEST SWAP1 POP JUMPDEST DUP1 ISZERO PUSH2 0x3043 JUMPI PUSH1 0x0 DUP1 PUSH2 0x341C DUP8 DUP7 PUSH2 0x33F2 PUSH1 0x1 DUP8 PUSH2 0x3EC6 JUMP JUMPDEST DUP2 MLOAD DUP2 LT PUSH2 0x3402 JUMPI PUSH2 0x3402 PUSH2 0x3F25 JUMP JUMPDEST PUSH1 0x20 MUL PUSH1 0x20 ADD ADD MLOAD DUP8 DUP7 DUP2 MLOAD DUP2 LT PUSH2 0x2FD1 JUMPI PUSH2 0x2FD1 PUSH2 0x3F25 JUMP JUMPDEST SWAP2 POP SWAP2 POP PUSH2 0x3444 DUP5 DUP5 DUP2 MLOAD DUP2 LT PUSH2 0x3435 JUMPI PUSH2 0x3435 PUSH2 0x3F25 JUMP JUMPDEST PUSH1 0x20 MUL PUSH1 0x20 ADD ADD MLOAD DUP4 DUP4 PUSH2 0x3738 JUMP JUMPDEST DUP5 PUSH2 0x3450 PUSH1 0x1 DUP7 PUSH2 0x3EC6 JUMP JUMPDEST DUP2 MLOAD DUP2 LT PUSH2 0x3460 JUMPI PUSH2 0x3460 PUSH2 0x3F25 JUMP JUMPDEST PUSH1 0x20 MUL PUSH1 0x20 ADD ADD DUP2 DUP2 MSTORE POP POP POP POP DUP1 DUP1 PUSH2 0x3479 SWAP1 PUSH2 0x3EDD JUMP JUMPDEST SWAP2 POP POP PUSH2 0x33D9 JUMP JUMPDEST PUSH1 0x0 DUP1 PUSH1 0x0 PUSH2 0x3490 DUP6 DUP6 PUSH2 0x3642 JUMP JUMPDEST POP SWAP1 POP PUSH2 0x349E DUP7 DUP7 DUP7 PUSH2 0x304B JUMP JUMPDEST POP PUSH1 0x0 DUP1 PUSH2 0x34AD DUP9 DUP9 DUP9 PUSH2 0x304B JUMP JUMPDEST PUSH1 0x1 PUSH1 0x1 PUSH1 0xA0 SHL SUB AND PUSH4 0x902F1AC PUSH1 0x40 MLOAD DUP2 PUSH4 0xFFFFFFFF AND PUSH1 0xE0 SHL DUP2 MSTORE PUSH1 0x4 ADD PUSH1 0x60 PUSH1 0x40 MLOAD DUP1 DUP4 SUB DUP2 DUP7 DUP1 EXTCODESIZE ISZERO DUP1 ISZERO PUSH2 0x34E5 JUMPI PUSH1 0x0 DUP1 REVERT JUMPDEST POP GAS STATICCALL ISZERO DUP1 ISZERO PUSH2 0x34F9 JUMPI RETURNDATASIZE PUSH1 0x0 DUP1 RETURNDATACOPY RETURNDATASIZE PUSH1 0x0 REVERT JUMPDEST POP POP POP POP PUSH1 0x40 MLOAD RETURNDATASIZE PUSH1 0x1F NOT PUSH1 0x1F DUP3 ADD AND DUP3 ADD DUP1 PUSH1 0x40 MSTORE POP DUP2 ADD SWAP1 PUSH2 0x351D SWAP2 SWAP1 PUSH2 0x3AA6 JUMP JUMPDEST POP PUSH1 0x1 PUSH1 0x1 PUSH1 0x70 SHL SUB AND SWAP2 POP PUSH1 0x1 PUSH1 0x1 PUSH1 0x70 SHL SUB AND SWAP2 POP DUP3 PUSH1 0x1 PUSH1 0x1 PUSH1 0xA0 SHL SUB AND DUP8 PUSH1 0x1 PUSH1 0x1 PUSH1 0xA0 SHL SUB AND EQ PUSH2 0x3554 JUMPI DUP1 DUP3 PUSH2 0x3557 JUMP JUMPDEST DUP2 DUP2 JUMPDEST SWAP1 SWAP10 SWAP1 SWAP9 POP SWAP7 POP POP POP POP POP POP POP JUMP JUMPDEST PUSH1 0x0 DUP1 DUP5 GT PUSH2 0x35C9 JUMPI PUSH1 0x40 MLOAD PUSH3 0x461BCD PUSH1 0xE5 SHL DUP2 MSTORE PUSH1 0x20 PUSH1 0x4 DUP3 ADD MSTORE PUSH1 0x29 PUSH1 0x24 DUP3 ADD MSTORE PUSH32 0x50616E63616B654C6962726172793A20494E53554646494349454E545F494E50 PUSH1 0x44 DUP3 ADD MSTORE PUSH9 0x155517D05353D55395 PUSH1 0xBA SHL PUSH1 0x64 DUP3 ADD MSTORE PUSH1 0x84 ADD PUSH2 0x1F2 JUMP JUMPDEST PUSH1 0x0 DUP4 GT DUP1 ISZERO PUSH2 0x35D9 JUMPI POP PUSH1 0x0 DUP3 GT JUMPDEST PUSH2 0x35F5 JUMPI PUSH1 0x40 MLOAD PUSH3 0x461BCD PUSH1 0xE5 SHL DUP2 MSTORE PUSH1 0x4 ADD PUSH2 0x1F2 SWAP1 PUSH2 0x3D4A JUMP JUMPDEST PUSH1 0x0 PUSH2 0x3603 DUP6 PUSH2 0x26F7 PUSH2 0x380F JUMP JUMPDEST SWAP1 POP PUSH1 0x0 PUSH2 0x3611 DUP3 DUP6 PUSH2 0x380F JUMP JUMPDEST SWAP1 POP PUSH1 0x0 PUSH2 0x362B DUP4 PUSH2 0x3625 DUP9 PUSH2 0x2710 PUSH2 0x380F JUMP JUMPDEST SWAP1 PUSH2 0x381B JUMP JUMPDEST SWAP1 POP PUSH2 0x3637 DUP2 DUP4 PUSH2 0x3E85 JUMP JUMPDEST SWAP8 SWAP7 POP POP POP POP POP POP POP JUMP JUMPDEST PUSH1 0x0 DUP1 DUP3 PUSH1 0x1 PUSH1 0x1 PUSH1 0xA0 SHL SUB AND DUP5 PUSH1 0x1 PUSH1 0x1 PUSH1 0xA0 SHL SUB AND EQ ISZERO PUSH2 0x36B3 JUMPI PUSH1 0x40 MLOAD PUSH3 0x461BCD PUSH1 0xE5 SHL DUP2 MSTORE PUSH1 0x20 PUSH1 0x4 DUP3 ADD MSTORE PUSH1 0x23 PUSH1 0x24 DUP3 ADD MSTORE PUSH32 0x50616E63616B654C6962726172793A204944454E544943414C5F414444524553 PUSH1 0x44 DUP3 ADD MSTORE PUSH3 0x534553 PUSH1 0xE8 SHL PUSH1 0x64 DUP3 ADD MSTORE PUSH1 0x84 ADD PUSH2 0x1F2 JUMP JUMPDEST DUP3 PUSH1 0x1 PUSH1 0x1 PUSH1 0xA0 SHL SUB AND DUP5 PUSH1 0x1 PUSH1 0x1 PUSH1 0xA0 SHL SUB AND LT PUSH2 0x36D3 JUMPI DUP3 DUP5 PUSH2 0x36D6 JUMP JUMPDEST DUP4 DUP4 JUMPDEST SWAP1 SWAP3 POP SWAP1 POP PUSH1 0x1 PUSH1 0x1 PUSH1 0xA0 SHL SUB DUP3 AND PUSH2 0x3731 JUMPI PUSH1 0x40 MLOAD PUSH3 0x461BCD PUSH1 0xE5 SHL DUP2 MSTORE PUSH1 0x20 PUSH1 0x4 DUP3 ADD MSTORE PUSH1 0x1C PUSH1 0x24 DUP3 ADD MSTORE PUSH32 0x50616E63616B654C6962726172793A205A45524F5F4144445245535300000000 PUSH1 0x44 DUP3 ADD MSTORE PUSH1 0x64 ADD PUSH2 0x1F2 JUMP JUMPDEST SWAP3 POP SWAP3 SWAP1 POP JUMP JUMPDEST PUSH1 0x0 DUP1 DUP5 GT PUSH2 0x379C JUMPI PUSH1 0x40 MLOAD PUSH3 0x461BCD PUSH1 0xE5 SHL DUP2 MSTORE PUSH1 0x20 PUSH1 0x4 DUP3 ADD MSTORE PUSH1 0x2A PUSH1 0x24 DUP3 ADD MSTORE PUSH32 0x50616E63616B654C6962726172793A20494E53554646494349454E545F4F5554 PUSH1 0x44 DUP3 ADD MSTORE PUSH10 0x14155517D05353D55395 PUSH1 0xB2 SHL PUSH1 0x64 DUP3 ADD MSTORE PUSH1 0x84 ADD PUSH2 0x1F2 JUMP JUMPDEST PUSH1 0x0 DUP4 GT DUP1 ISZERO PUSH2 0x37AC JUMPI POP PUSH1 0x0 DUP3 GT JUMPDEST PUSH2 0x37C8 JUMPI PUSH1 0x40 MLOAD PUSH3 0x461BCD PUSH1 0xE5 SHL DUP2 MSTORE PUSH1 0x4 ADD PUSH2 0x1F2 SWAP1 PUSH2 0x3D4A JUMP JUMPDEST PUSH1 0x0 PUSH2 0x37E0 PUSH2 0x2710 PUSH2 0x37DA DUP7 DUP9 PUSH2 0x380F JUMP JUMPDEST SWAP1 PUSH2 0x380F JUMP JUMPDEST SWAP1 POP PUSH1 0x0 PUSH2 0x37F4 PUSH2 0x26F7 PUSH2 0x37DA DUP7 DUP10 PUSH2 0x3827 JUMP JUMPDEST SWAP1 POP PUSH2 0x3805 PUSH1 0x1 PUSH2 0x3625 DUP4 DUP6 PUSH2 0x3E85 JUMP JUMPDEST SWAP7 SWAP6 POP POP POP POP POP POP JUMP JUMPDEST PUSH1 0x0 PUSH2 0x2D4F DUP3 DUP5 PUSH2 0x3EA7 JUMP JUMPDEST PUSH1 0x0 PUSH2 0x2D4F DUP3 DUP5 PUSH2 0x3E6D JUMP JUMPDEST PUSH1 0x0 PUSH2 0x2D4F DUP3 DUP5 PUSH2 0x3EC6 JUMP JUMPDEST DUP1 CALLDATALOAD PUSH2 0x383E DUP2 PUSH2 0x3F51 JUMP JUMPDEST SWAP2 SWAP1 POP JUMP JUMPDEST PUSH1 0x0 DUP1 DUP4 PUSH1 0x1F DUP5 ADD SLT PUSH2 0x3855 JUMPI PUSH1 0x0 DUP1 REVERT JUMPDEST POP DUP2 CALLDATALOAD PUSH8 0xFFFFFFFFFFFFFFFF DUP2 GT ISZERO PUSH2 0x386D JUMPI PUSH1 0x0 DUP1 REVERT JUMPDEST PUSH1 0x20 DUP4 ADD SWAP2 POP DUP4 PUSH1 0x20 DUP3 PUSH1 0x5 SHL DUP6 ADD ADD GT ISZERO PUSH2 0x3731 JUMPI PUSH1 0x0 DUP1 REVERT JUMPDEST PUSH1 0x0 DUP3 PUSH1 0x1F DUP4 ADD SLT PUSH2 0x3899 JUMPI PUSH1 0x0 DUP1 REVERT JUMPDEST DUP2 CALLDATALOAD PUSH1 0x20 PUSH8 0xFFFFFFFFFFFFFFFF DUP1 DUP4 GT ISZERO PUSH2 0x38B6 JUMPI PUSH2 0x38B6 PUSH2 0x3F3B JUMP JUMPDEST DUP3 PUSH1 0x5 SHL PUSH1 0x40 MLOAD PUSH1 0x1F NOT PUSH1 0x3F DUP4 ADD AND DUP2 ADD DUP2 DUP2 LT DUP5 DUP3 GT OR ISZERO PUSH2 0x38DB JUMPI PUSH2 0x38DB PUSH2 0x3F3B JUMP JUMPDEST PUSH1 0x40 MSTORE DUP5 DUP2 MSTORE DUP4 DUP2 ADD SWAP3 POP DUP7 DUP5 ADD DUP3 DUP9 ADD DUP6 ADD DUP10 LT ISZERO PUSH2 0x38FA JUMPI PUSH1 0x0 DUP1 REVERT JUMPDEST PUSH1 0x0 SWAP3 POP JUMPDEST DUP6 DUP4 LT ISZERO PUSH2 0x3924 JUMPI PUSH2 0x3910 DUP2 PUSH2 0x3833 JUMP JUMPDEST DUP5 MSTORE SWAP3 DUP5 ADD SWAP3 PUSH1 0x1 SWAP3 SWAP1 SWAP3 ADD SWAP2 DUP5 ADD PUSH2 0x38FF JUMP JUMPDEST POP SWAP8 SWAP7 POP POP POP POP POP POP POP JUMP JUMPDEST DUP1 MLOAD PUSH1 0x1 PUSH1 0x1 PUSH1 0x70 SHL SUB DUP2 AND DUP2 EQ PUSH2 0x383E JUMPI PUSH1 0x0 DUP1 REVERT JUMPDEST PUSH1 0x0 PUSH1 0x20 DUP3 DUP5 SUB SLT ISZERO PUSH2 0x3959 JUMPI PUSH1 0x0 DUP1 REVERT JUMPDEST DUP2 CALLDATALOAD PUSH2 0x2D4F DUP2 PUSH2 0x3F51 JUMP JUMPDEST PUSH1 0x0 PUSH1 0x20 DUP3 DUP5 SUB SLT ISZERO PUSH2 0x3976 JUMPI PUSH1 0x0 DUP1 REVERT JUMPDEST DUP2 MLOAD PUSH2 0x2D4F DUP2 PUSH2 0x3F51 JUMP JUMPDEST PUSH1 0x0 DUP1 PUSH1 0x40 DUP4 DUP6 SUB SLT ISZERO PUSH2 0x3994 JUMPI PUSH1 0x0 DUP1 REVERT JUMPDEST DUP3 CALLDATALOAD PUSH2 0x399F DUP2 PUSH2 0x3F51 JUMP JUMPDEST SWAP5 PUSH1 0x20 SWAP4 SWAP1 SWAP4 ADD CALLDATALOAD SWAP4 POP POP POP JUMP JUMPDEST PUSH1 0x0 DUP1 PUSH1 0x0 PUSH1 0x60 DUP5 DUP7 SUB SLT ISZERO PUSH2 0x39C2 JUMPI PUSH1 0x0 DUP1 REVERT JUMPDEST DUP4 CALLDATALOAD PUSH2 0x39CD DUP2 PUSH2 0x3F51 JUMP JUMPDEST SWAP3 POP PUSH1 0x20 DUP5 ADD CALLDATALOAD PUSH2 0x39DD DUP2 PUSH2 0x3F51 JUMP JUMPDEST SWAP3 SWAP6 SWAP3 SWAP5 POP POP POP PUSH1 0x40 SWAP2 SWAP1 SWAP2 ADD CALLDATALOAD SWAP1 JUMP JUMPDEST PUSH1 0x0 DUP1 PUSH1 0x0 DUP1 PUSH1 0x0 PUSH1 0x80 DUP7 DUP9 SUB SLT ISZERO PUSH2 0x3A06 JUMPI PUSH1 0x0 DUP1 REVERT JUMPDEST DUP6 CALLDATALOAD PUSH2 0x3A11 DUP2 PUSH2 0x3F51 JUMP JUMPDEST SWAP5 POP PUSH1 0x20 DUP7 ADD CALLDATALOAD SWAP4 POP PUSH1 0x40 DUP7 ADD CALLDATALOAD SWAP3 POP PUSH1 0x60 DUP7 ADD CALLDATALOAD PUSH8 0xFFFFFFFFFFFFFFFF DUP1 DUP3 GT ISZERO PUSH2 0x3A3C JUMPI PUSH1 0x0 DUP1 REVERT JUMPDEST DUP2 DUP9 ADD SWAP2 POP DUP9 PUSH1 0x1F DUP4 ADD SLT PUSH2 0x3A50 JUMPI PUSH1 0x0 DUP1 REVERT JUMPDEST DUP2 CALLDATALOAD DUP2 DUP2 GT ISZERO PUSH2 0x3A5F JUMPI PUSH1 0x0 DUP1 REVERT JUMPDEST DUP10 PUSH1 0x20 DUP3 DUP6 ADD ADD GT ISZERO PUSH2 0x3A71 JUMPI PUSH1 0x0 DUP1 REVERT JUMPDEST SWAP7 SWAP10 SWAP6 SWAP9 POP SWAP4 SWAP7 POP PUSH1 0x20 ADD SWAP5 SWAP4 SWAP3 POP POP POP JUMP JUMPDEST PUSH1 0x0 PUSH1 0x20 DUP3 DUP5 SUB SLT ISZERO PUSH2 0x3A96 JUMPI PUSH1 0x0 DUP1 REVERT JUMPDEST DUP2 MLOAD DUP1 ISZERO ISZERO DUP2 EQ PUSH2 0x2D4F JUMPI PUSH1 0x0 DUP1 REVERT JUMPDEST PUSH1 0x0 DUP1 PUSH1 0x0 PUSH1 0x60 DUP5 DUP7 SUB SLT ISZERO PUSH2 0x3ABB JUMPI PUSH1 0x0 DUP1 REVERT JUMPDEST PUSH2 0x3AC4 DUP5 PUSH2 0x3930 JUMP JUMPDEST SWAP3 POP PUSH2 0x3AD2 PUSH1 0x20 DUP6 ADD PUSH2 0x3930 JUMP JUMPDEST SWAP2 POP PUSH1 0x40 DUP5 ADD MLOAD PUSH4 0xFFFFFFFF DUP2 AND DUP2 EQ PUSH2 0x3AEB JUMPI PUSH1 0x0 DUP1 REVERT JUMPDEST DUP1 SWAP2 POP POP SWAP3 POP SWAP3 POP SWAP3 JUMP JUMPDEST PUSH1 0x0 PUSH1 0x20 DUP3 DUP5 SUB SLT ISZERO PUSH2 0x3B08 JUMPI PUSH1 0x0 DUP1 REVERT JUMPDEST POP MLOAD SWAP2 SWAP1 POP JUMP JUMPDEST PUSH1 0x0 DUP1 PUSH1 0x0 DUP1 PUSH1 0x0 DUP1 PUSH1 0xC0 DUP8 DUP10 SUB SLT ISZERO PUSH2 0x3B28 JUMPI PUSH1 0x0 DUP1 REVERT JUMPDEST DUP7 CALLDATALOAD SWAP6 POP PUSH1 0x20 DUP8 ADD CALLDATALOAD PUSH2 0x3B3A DUP2 PUSH2 0x3F51 JUMP JUMPDEST SWAP5 POP PUSH1 0x40 DUP8 ADD CALLDATALOAD PUSH8 0xFFFFFFFFFFFFFFFF DUP1 DUP3 GT ISZERO PUSH2 0x3B57 JUMPI PUSH1 0x0 DUP1 REVERT JUMPDEST PUSH2 0x3B63 DUP11 DUP4 DUP12 ADD PUSH2 0x3888 JUMP JUMPDEST SWAP6 POP PUSH1 0x60 DUP10 ADD CALLDATALOAD SWAP2 POP DUP1 DUP3 GT ISZERO PUSH2 0x3B79 JUMPI PUSH1 0x0 DUP1 REVERT JUMPDEST PUSH2 0x3B85 DUP11 DUP4 DUP12 ADD PUSH2 0x3888 JUMP JUMPDEST SWAP5 POP PUSH1 0x80 DUP10 ADD CALLDATALOAD SWAP2 POP DUP1 DUP3 GT ISZERO PUSH2 0x3B9B JUMPI PUSH1 0x0 DUP1 REVERT JUMPDEST POP PUSH2 0x3BA8 DUP10 DUP3 DUP11 ADD PUSH2 0x3888 JUMP JUMPDEST SWAP3 POP POP PUSH1 0xA0 DUP8 ADD CALLDATALOAD SWAP1 POP SWAP3 SWAP6 POP SWAP3 SWAP6 POP SWAP3 SWAP6 JUMP JUMPDEST PUSH1 0x0 DUP1 PUSH1 0x0 DUP1 PUSH1 0x0 DUP1 PUSH1 0x0 DUP1 PUSH1 0x0 PUSH1 0xC0 DUP11 DUP13 SUB SLT ISZERO PUSH2 0x3BDA JUMPI PUSH1 0x0 DUP1 REVERT JUMPDEST DUP10 CALLDATALOAD SWAP9 POP PUSH1 0x20 DUP11 ADD CALLDATALOAD PUSH2 0x3BEC DUP2 PUSH2 0x3F51 JUMP JUMPDEST SWAP8 POP PUSH1 0x40 DUP11 ADD CALLDATALOAD PUSH8 0xFFFFFFFFFFFFFFFF DUP1 DUP3 GT ISZERO PUSH2 0x3C09 JUMPI PUSH1 0x0 DUP1 REVERT JUMPDEST PUSH2 0x3C15 DUP14 DUP4 DUP15 ADD PUSH2 0x3843 JUMP JUMPDEST SWAP1 SWAP10 POP SWAP8 POP PUSH1 0x60 DUP13 ADD CALLDATALOAD SWAP2 POP DUP1 DUP3 GT ISZERO PUSH2 0x3C2E JUMPI PUSH1 0x0 DUP1 REVERT JUMPDEST PUSH2 0x3C3A DUP14 DUP4 DUP15 ADD PUSH2 0x3843 JUMP JUMPDEST SWAP1 SWAP8 POP SWAP6 POP PUSH1 0x80 DUP13 ADD CALLDATALOAD SWAP2 POP DUP1 DUP3 GT ISZERO PUSH2 0x3C53 JUMPI PUSH1 0x0 DUP1 REVERT JUMPDEST POP PUSH2 0x3C60 DUP13 DUP3 DUP14 ADD PUSH2 0x3843 JUMP JUMPDEST SWAP11 SWAP14 SWAP10 SWAP13 POP SWAP8 SWAP11 SWAP7 SWAP10 SWAP6 SWAP9 SWAP5 SWAP8 SWAP7 PUSH1 0xA0 ADD CALLDATALOAD SWAP5 SWAP4 POP POP POP POP JUMP JUMPDEST PUSH1 0x0 DUP1 PUSH1 0x40 DUP4 DUP6 SUB SLT ISZERO PUSH2 0x3C8D JUMPI PUSH1 0x0 DUP1 REVERT JUMPDEST POP POP DUP1 MLOAD PUSH1 0x20 SWAP1 SWAP2 ADD MLOAD SWAP1 SWAP3 SWAP1 SWAP2 POP JUMP JUMPDEST PUSH1 0x0 DUP1 PUSH1 0x0 PUSH1 0x60 DUP5 DUP7 SUB SLT ISZERO PUSH2 0x3CB3 JUMPI PUSH1 0x0 DUP1 REVERT JUMPDEST DUP4 MLOAD SWAP3 POP PUSH1 0x20 DUP5 ADD MLOAD SWAP2 POP PUSH1 0x40 DUP5 ADD MLOAD SWAP1 POP SWAP3 POP SWAP3 POP SWAP3 JUMP JUMPDEST DUP2 DUP4 MSTORE PUSH1 0x0 PUSH1 0x20 DUP1 DUP6 ADD SWAP5 POP DUP3 PUSH1 0x0 JUMPDEST DUP6 DUP2 LT ISZERO PUSH2 0x3D0A JUMPI DUP2 CALLDATALOAD PUSH2 0x3CEF DUP2 PUSH2 0x3F51 JUMP JUMPDEST PUSH1 0x1 PUSH1 0x1 PUSH1 0xA0 SHL SUB AND DUP8 MSTORE SWAP6 DUP3 ADD SWAP6 SWAP1 DUP3 ADD SWAP1 PUSH1 0x1 ADD PUSH2 0x3CDC JUMP JUMPDEST POP SWAP5 SWAP6 SWAP5 POP POP POP POP POP JUMP JUMPDEST PUSH1 0x20 DUP1 DUP3 MSTORE DUP2 DUP2 ADD MSTORE PUSH32 0x4F776E61626C653A2063616C6C6572206973206E6F7420746865206F776E6572 PUSH1 0x40 DUP3 ADD MSTORE PUSH1 0x60 ADD SWAP1 JUMP JUMPDEST PUSH1 0x20 DUP1 DUP3 MSTORE PUSH1 0x26 SWAP1 DUP3 ADD MSTORE PUSH32 0x50616E63616B654C6962726172793A20494E53554646494349454E545F4C4951 PUSH1 0x40 DUP3 ADD MSTORE PUSH6 0x554944495459 PUSH1 0xD0 SHL PUSH1 0x60 DUP3 ADD MSTORE PUSH1 0x80 ADD SWAP1 JUMP JUMPDEST DUP10 DUP2 MSTORE PUSH1 0x1 PUSH1 0x1 PUSH1 0xA0 SHL SUB DUP10 AND PUSH1 0x20 DUP3 ADD MSTORE PUSH1 0xC0 PUSH1 0x40 DUP3 ADD DUP2 SWAP1 MSTORE PUSH1 0x0 SWAP1 PUSH2 0x3DBB SWAP1 DUP4 ADD DUP10 DUP12 PUSH2 0x3CCC JUMP JUMPDEST DUP3 DUP2 SUB PUSH1 0x60 DUP5 ADD MSTORE PUSH2 0x3DCE DUP2 DUP9 DUP11 PUSH2 0x3CCC JUMP JUMPDEST SWAP1 POP DUP3 DUP2 SUB PUSH1 0x80 DUP5 ADD MSTORE PUSH2 0x3DE3 DUP2 DUP7 DUP9 PUSH2 0x3CCC JUMP JUMPDEST SWAP2 POP POP DUP3 PUSH1 0xA0 DUP4 ADD MSTORE SWAP11 SWAP10 POP POP POP POP POP POP POP POP POP POP JUMP JUMPDEST DUP5 DUP2 MSTORE PUSH1 0x0 PUSH1 0x20 DUP6 DUP2 DUP5 ADD MSTORE PUSH1 0x1 DUP1 PUSH1 0xA0 SHL SUB DUP6 AND PUSH1 0x40 DUP5 ADD MSTORE PUSH1 0x80 PUSH1 0x60 DUP5 ADD MSTORE DUP4 MLOAD DUP1 PUSH1 0x80 DUP6 ADD MSTORE PUSH1 0x0 JUMPDEST DUP2 DUP2 LT ISZERO PUSH2 0x3E42 JUMPI DUP6 DUP2 ADD DUP4 ADD MLOAD DUP6 DUP3 ADD PUSH1 0xA0 ADD MSTORE DUP3 ADD PUSH2 0x3E26 JUMP JUMPDEST DUP2 DUP2 GT ISZERO PUSH2 0x3E54 JUMPI PUSH1 0x0 PUSH1 0xA0 DUP4 DUP8 ADD ADD MSTORE JUMPDEST POP PUSH1 0x1F ADD PUSH1 0x1F NOT AND SWAP3 SWAP1 SWAP3 ADD PUSH1 0xA0 ADD SWAP7 SWAP6 POP POP POP POP POP POP JUMP JUMPDEST PUSH1 0x0 DUP3 NOT DUP3 GT ISZERO PUSH2 0x3E80 JUMPI PUSH2 0x3E80 PUSH2 0x3F0F JUMP JUMPDEST POP ADD SWAP1 JUMP JUMPDEST PUSH1 0x0 DUP3 PUSH2 0x3EA2 JUMPI PUSH4 0x4E487B71 PUSH1 0xE0 SHL PUSH1 0x0 MSTORE PUSH1 0x12 PUSH1 0x4 MSTORE PUSH1 0x24 PUSH1 0x0 REVERT JUMPDEST POP DIV SWAP1 JUMP JUMPDEST PUSH1 0x0 DUP2 PUSH1 0x0 NOT DIV DUP4 GT DUP3 ISZERO ISZERO AND ISZERO PUSH2 0x3EC1 JUMPI PUSH2 0x3EC1 PUSH2 0x3F0F JUMP JUMPDEST POP MUL SWAP1 JUMP JUMPDEST PUSH1 0x0 DUP3 DUP3 LT ISZERO PUSH2 0x3ED8 JUMPI PUSH2 0x3ED8 PUSH2 0x3F0F JUMP JUMPDEST POP SUB SWAP1 JUMP JUMPDEST PUSH1 0x0 DUP2 PUSH2 0x3EEC JUMPI PUSH2 0x3EEC PUSH2 0x3F0F JUMP JUMPDEST POP PUSH1 0x0 NOT ADD SWAP1 JUMP JUMPDEST PUSH1 0x0 PUSH1 0x0 NOT DUP3 EQ ISZERO PUSH2 0x3F08 JUMPI PUSH2 0x3F08 PUSH2 0x3F0F JUMP JUMPDEST POP PUSH1 0x1 ADD SWAP1 JUMP JUMPDEST PUSH4 0x4E487B71 PUSH1 0xE0 SHL PUSH1 0x0 MSTORE PUSH1 0x11 PUSH1 0x4 MSTORE PUSH1 0x24 PUSH1 0x0 REVERT JUMPDEST PUSH4 0x4E487B71 PUSH1 0xE0 SHL PUSH1 0x0 MSTORE PUSH1 0x32 PUSH1 0x4 MSTORE PUSH1 0x24 PUSH1 0x0 REVERT JUMPDEST PUSH4 0x4E487B71 PUSH1 0xE0 SHL PUSH1 0x0 MSTORE PUSH1 0x41 PUSH1 0x4 MSTORE PUSH1 0x24 PUSH1 0x0 REVERT JUMPDEST PUSH1 0x1 PUSH1 0x1 PUSH1 0xA0 SHL SUB DUP2 AND DUP2 EQ PUSH2 0x258D JUMPI PUSH1 0x0 DUP1 REVERT INVALID LOG2 PUSH5 0x6970667358 0x22 SLT KECCAK256 MLOAD PUSH13 0x5FF2EE915DB4D73FBCC71D305C SWAP7 0xE 0xE ADDMOD 0x2D SWAP7 0x1F 0xC1 0xAF PUSH1 0xCB PUSH18 0xBD1F899CA64736F6C634300080700330000 "
		},
		"gasEstimates": {
			"creation": {
				"codeDepositCost": "3256800",
				"executionCost": "29452",
				"totalCost": "3286252"
			},
			"external": {
				"mintedVAIS(address)": "infinite",
				"owner()": "2290",
				"pancakeCall(address,uint256,uint256,bytes)": "infinite",
				"qingsuan(uint256,address,address[],address[],address[],uint256)": "infinite",
				"renounceOwnership()": "28137",
				"swapOneBNBToFlashLoandUnderlyingToken(address)": "infinite",
				"transferOwnership(address)": "infinite",
				"withdraw(address,address,uint256)": "infinite",
				"withdrawETH(address,uint256)": "infinite"
			},
			"internal": {
				"_swap(uint256[] memory,address[] memory,address)": "infinite",
				"chainSwapExactIn(uint256,address[] memory,address)": "infinite",
				"chainSwapExactOut(uint256,address[] memory,address)": "infinite",
				"getSeizedUnderlyingToken(address,address,uint256)": "infinite",
				"getSeizedVToken(address,address,address,uint256)": "infinite",
				"isStableCoin(address)": "140",
				"isVAIController(address)": "infinite",
				"isVBNB(address)": "infinite"
			}
		},
		"methodIdentifiers": {
			"mintedVAIS(address)": "f064b414",
			"owner()": "8da5cb5b",
			"pancakeCall(address,uint256,uint256,bytes)": "84800812",
			"qingsuan(uint256,address,address[],address[],address[],uint256)": "b14e9a72",
			"renounceOwnership()": "715018a6",
			"swapOneBNBToFlashLoandUnderlyingToken(address)": "89c33748",
			"transferOwnership(address)": "f2fde38b",
			"withdraw(address,address,uint256)": "d9caed12",
			"withdrawETH(address,uint256)": "4782f779"
		}
	},
	"abi": [
		{
			"anonymous": false,
			"inputs": [
				{
					"indexed": false,
					"internalType": "uint256",
					"name": "",
					"type": "uint256"
				},
				{
					"indexed": false,
					"internalType": "uint256",
					"name": "",
					"type": "uint256"
				},
				{
					"indexed": false,
					"internalType": "uint256",
					"name": "",
					"type": "uint256"
				}
			],
			"name": "AllowedRepayAmount",
			"type": "event"
		},
		{
			"anonymous": false,
			"inputs": [
				{
					"indexed": true,
					"internalType": "address",
					"name": "previousOwner",
					"type": "address"
				},
				{
					"indexed": true,
					"internalType": "address",
					"name": "newOwner",
					"type": "address"
				}
			],
			"name": "OwnershipTransferred",
			"type": "event"
		},
		{
			"anonymous": false,
			"inputs": [
				{
					"indexed": false,
					"internalType": "uint256",
					"name": "scenarioNo",
					"type": "uint256"
				},
				{
					"indexed": false,
					"internalType": "address",
					"name": "repayUnderlyingToken",
					"type": "address"
				},
				{
					"indexed": false,
					"internalType": "uint256",
					"name": "repayAmount",
					"type": "uint256"
				},
				{
					"indexed": false,
					"internalType": "address",
					"name": "seizedUnderlyingToken",
					"type": "address"
				},
				{
					"indexed": false,
					"internalType": "uint256",
					"name": "flashLoanReturnAmount",
					"type": "uint256"
				},
				{
					"indexed": false,
					"internalType": "uint256",
					"name": "seizedUnderlyingAmount",
					"type": "uint256"
				},
				{
					"indexed": false,
					"internalType": "uint256",
					"name": "massProfit",
					"type": "uint256"
				}
			],
			"name": "Scenario",
			"type": "event"
		},
		{
			"anonymous": false,
			"inputs": [
				{
					"indexed": false,
					"internalType": "uint256",
					"name": "",
					"type": "uint256"
				},
				{
					"indexed": false,
					"internalType": "uint256",
					"name": "",
					"type": "uint256"
				}
			],
			"name": "SeizedUnderlyingTokenAmount",
			"type": "event"
		},
		{
			"anonymous": false,
			"inputs": [
				{
					"indexed": false,
					"internalType": "uint256",
					"name": "",
					"type": "uint256"
				},
				{
					"indexed": false,
					"internalType": "uint256",
					"name": "",
					"type": "uint256"
				},
				{
					"indexed": false,
					"internalType": "uint256",
					"name": "",
					"type": "uint256"
				}
			],
			"name": "SeizedVTokenAmount",
			"type": "event"
		},
		{
			"anonymous": false,
			"inputs": [
				{
					"indexed": true,
					"internalType": "address",
					"name": "",
					"type": "address"
				},
				{
					"indexed": true,
					"internalType": "address",
					"name": "",
					"type": "address"
				},
				{
					"indexed": false,
					"internalType": "uint256",
					"name": "",
					"type": "uint256"
				}
			],
			"name": "Withdraw",
			"type": "event"
		},
		{
			"anonymous": false,
			"inputs": [
				{
					"indexed": true,
					"internalType": "address",
					"name": "",
					"type": "address"
				},
				{
					"indexed": false,
					"internalType": "uint256",
					"name": "",
					"type": "uint256"
				}
			],
			"name": "WithdrawETH",
			"type": "event"
		},
		{
			"inputs": [
				{
					"internalType": "address",
					"name": "_account",
					"type": "address"
				}
			],
			"name": "mintedVAIS",
			"outputs": [
				{
					"internalType": "uint256",
					"name": "",
					"type": "uint256"
				}
			],
			"stateMutability": "view",
			"type": "function"
		},
		{
			"inputs": [],
			"name": "owner",
			"outputs": [
				{
					"internalType": "address",
					"name": "",
					"type": "address"
				}
			],
			"stateMutability": "view",
			"type": "function"
		},
		{
			"inputs": [
				{
					"internalType": "address",
					"name": "_sender",
					"type": "address"
				},
				{
					"internalType": "uint256",
					"name": "_amount0",
					"type": "uint256"
				},
				{
					"internalType": "uint256",
					"name": "_amount1",
					"type": "uint256"
				},
				{
					"internalType": "bytes",
					"name": "_data",
					"type": "bytes"
				}
			],
			"name": "pancakeCall",
			"outputs": [],
			"stateMutability": "nonpayable",
			"type": "function"
		},
		{
			"inputs": [
				{
					"internalType": "uint256",
					"name": "_situation",
					"type": "uint256"
				},
				{
					"internalType": "address",
					"name": "_flashLoanFrom",
					"type": "address"
				},
				{
					"internalType": "address[]",
					"name": "_path1",
					"type": "address[]"
				},
				{
					"internalType": "address[]",
					"name": "_path2",
					"type": "address[]"
				},
				{
					"internalType": "address[]",
					"name": "_tokens",
					"type": "address[]"
				},
				{
					"internalType": "uint256",
					"name": "_flashLoanAmount",
					"type": "uint256"
				}
			],
			"name": "qingsuan",
			"outputs": [],
			"stateMutability": "nonpayable",
			"type": "function"
		},
		{
			"inputs": [],
			"name": "renounceOwnership",
			"outputs": [],
			"stateMutability": "nonpayable",
			"type": "function"
		},
		{
			"inputs": [
				{
					"internalType": "address",
					"name": "_flashLoanUnderlyingToken",
					"type": "address"
				}
			],
			"name": "swapOneBNBToFlashLoandUnderlyingToken",
			"outputs": [],
			"stateMutability": "nonpayable",
			"type": "function"
		},
		{
			"inputs": [
				{
					"internalType": "address",
					"name": "newOwner",
					"type": "address"
				}
			],
			"name": "transferOwnership",
			"outputs": [],
			"stateMutability": "nonpayable",
			"type": "function"
		},
		{
			"inputs": [
				{
					"internalType": "address",
					"name": "_token",
					"type": "address"
				},
				{
					"internalType": "address",
					"name": "_to",
					"type": "address"
				},
				{
					"internalType": "uint256",
					"name": "_amount",
					"type": "uint256"
				}
			],
			"name": "withdraw",
			"outputs": [],
			"stateMutability": "nonpayable",
			"type": "function"
		},
		{
			"inputs": [
				{
					"internalType": "address payable",
					"name": "_to",
					"type": "address"
				},
				{
					"internalType": "uint256",
					"name": "_amount",
					"type": "uint256"
				}
			],
			"name": "withdrawETH",
			"outputs": [],
			"stateMutability": "nonpayable",
			"type": "function"
		},
		{
			"stateMutability": "payable",
			"type": "receive"
		}
	]
}