{
	"data": {
		"bytecode": {
			"linkReferences": {},
			"object": "608060405234801561001057600080fd5b5061001a3361001f565b61006f565b600080546001600160a01b038381166001600160a01b0319831681178455604051919092169283917f8be0079c531659141344cd1fd0a4f28419497f9722a3daafe3b4186f6b6457e09190a35050565b611a838061007e6000396000f3fe60806040526004361061008a5760003560e01c8063b14e9a7211610059578063b14e9a721461010e578063b2c8dfdb1461012e578063e630b99c14610143578063f2fde38b14610158578063f3fef3a31461017857600080fd5b806309c038c414610096578063715018a6146100ad57806384800812146100c25780638da5cb5b146100e257600080fd5b3661009157005b600080fd5b3480156100a257600080fd5b506100ab610198565b005b3480156100b957600080fd5b506100ab61035a565b3480156100ce57600080fd5b506100ab6100dd3660046114ab565b610399565b3480156100ee57600080fd5b50600054604080516001600160a01b039092168252519081900360200190f35b34801561011a57600080fd5b506100ab6101293660046116f8565b61066b565b34801561013a57600080fd5b506100ab610a75565b34801561014f57600080fd5b506100ab610aed565b34801561016457600080fd5b506100ab610173366004611462565b610bcb565b34801561018457600080fd5b506100ab61019336600461147f565b610c66565b604080516002808252606082018352670de0b6b3a764000092600092919060208301908036833701905050905073bb4cdb9cbd36b01bd1cbaebf2de08d9173bc095c816000815181106101ed576101ed611a0c565b60200260200101906001600160a01b031690816001600160a01b03168152505073e9e7cea3dedca5984780bafc599bd69add087d568160018151811061023557610235611a0c565b6001600160a01b039092166020928302919091019091015260405163d06ca61f60e01b81526000907310ed43c718714eb63d5aa57b78b54704e256024e9063d06ca61f9061028990869086906004016118cc565b60006040518083038186803b1580156102a157600080fd5b505afa1580156102b5573d6000803e3d6000fd5b505050506040513d6000823e601f3d908101601f191682016040526102dd9190810190611541565b90507f3098047b3014951b4b206d50413841e96f2bbd01d1d433ab612e68a36aeb23b18160008151811061031357610313611a0c565b60200260200101518260018151811061032e5761032e611a0c565b602002602001015160405161034d929190918252602082015260400190565b60405180910390a1505050565b6000546001600160a01b0316331461038d5760405162461bcd60e51b81526004016103849061182d565b60405180910390fd5b6103976000610dbb565b565b610424604051806101e001604052806000815260200160006001600160a01b03168152602001606081526020016060815260200160608152602001600081526020016000815260200160006001600160a01b03168152602001600081526020016000815260200160008152602001600081526020016000815260200160008152602001600081525090565b6104308284018461164b565b60a08701526080860152606085015260408401526001600160a01b031660208301819052908252331461048d5760405162461bcd60e51b815260206004820152600560248201526410b830b4b960d91b6044820152606401610384565b6001600160a01b03861630146104cf5760405162461bcd60e51b815260206004820152600760248201526610b9b2b73232b960c91b6044820152606401610384565b6126f78160a0015160196104e391906119a5565b6104ed9190611983565b8160a001516104fc919061196b565b61050790600161196b565b60c082015260808101518051600490811061052457610524611a0c565b60209081029190910101516001600160a01b031660e08201526080810151805160009190829061055657610556611a0c565b602002602001015190506000826080015160018151811061057957610579611a0c565b602002602001015190506000836080015160038151811061059c5761059c611a0c565b60200260200101519050600084608001516002815181106105bf576105bf611a0c565b6020026020010151905060607fee80f069d389b1636bfe8a115ff1d8ad940b394b4d16bb19c8503003d14dd5b48660000151848860a00151858a60c001518b6101a001518c6101c0015160405161065697969594939291909687526001600160a01b0395861660208801526040870194909452919093166060850152608084019290925260a083019190915260c082015260e00190565b60405180910390a15050505050505050505050565b6001891015801561067d575060078911155b6106b45760405162461bcd60e51b815260206004820152600860248201526777726f6e6720736960c01b6044820152606401610384565b6001600160a01b0388166106f25760405162461bcd60e51b815260206004820152600560248201526410b830b4b960d91b6044820152606401610384565b600073fd36e2c2a6789db23113685031d7f16329158384635ec88c798585600481811061072157610721611a0c565b90506020020160208101906107369190611462565b6040516001600160e01b031960e084901b1681526001600160a01b03909116600482015260240160606040518083038186803b15801561077557600080fd5b505afa158015610789573d6000803e3d6000fd5b505050506040513d601f19601f820116820180604052508101906107ad91906117b6565b925050506000811161080b5760405162461bcd60e51b815260206004820152602160248201527f73686f727466616c6c206d7573742067726561746572207468616e207a6572206044820152600360fc1b6064820152608401610384565b7f468d929add1fbbfc80e5dfde344a58444d6d5ba8ec3d4b12d8a02a6913e477168a8a8a8a8a8a8a8a8a60405161084a99989796959493929190611862565b60405180910390a1600160008585600381811061086957610869611a0c565b905060200201602081019061087e9190611462565b6001600160a01b03166001600160a01b031681526020019081526020016000206000858560008181106108b3576108b3611a0c565b90506020020160208101906108c89190611462565b6001600160a01b0316815260208101919091526040016000205460ff16610a6957838360038181106108fc576108fc611a0c565b90506020020160208101906109119190611462565b6001600160a01b031663095ea7b38585600081811061093257610932611a0c565b90506020020160208101906109479190611462565b6040516001600160e01b031960e084901b1681526001600160a01b0390911660048201526000196024820152604401602060405180830381600087803b15801561099057600080fd5b505af11580156109a4573d6000803e3d6000fd5b505050506040513d601f19601f820116820180604052508101906109c891906115d9565b506001806000868660038181106109e1576109e1611a0c565b90506020020160208101906109f69190611462565b6001600160a01b03166001600160a01b03168152602001908152602001600020600086866000818110610a2b57610a2b611a0c565b9050602002016020810190610a409190611462565b6001600160a01b031681526020810191909152604001600020805460ff19169115159190911790555b50505050505050505050565b6000670de0b6b3a7640000905073bb4cdb9cbd36b01bd1cbaebf2de08d9173bc095c6001600160a01b031663d0e30db0826040518263ffffffff1660e01b81526004016000604051808303818588803b158015610ad157600080fd5b505af1158015610ae5573d6000803e3d6000fd5b505050505050565b604080516002808252606082018352670de0b6b3a764000092600092919060208301908036833701905050905073bb4cdb9cbd36b01bd1cbaebf2de08d9173bc095c81600081518110610b4257610b42611a0c565b60200260200101906001600160a01b031690816001600160a01b03168152505073e9e7cea3dedca5984780bafc599bd69add087d5681600181518110610b8a57610b8a611a0c565b60200260200101906001600160a01b031690816001600160a01b03168152505060006102dd73ca143ce32fe78f1f7019d7d551a6402fc5350c738484610e0b565b6000546001600160a01b03163314610bf55760405162461bcd60e51b81526004016103849061182d565b6001600160a01b038116610c5a5760405162461bcd60e51b815260206004820152602660248201527f4f776e61626c653a206e6577206f776e657220697320746865207a65726f206160448201526564647265737360d01b6064820152608401610384565b610c6381610dbb565b50565b6000546001600160a01b03163314610c905760405162461bcd60e51b81526004016103849061182d565b6001600160a01b038216610ce65760405162461bcd60e51b815260206004820152601860248201527f61646472657373206d757374206e6f74206265207a65726f00000000000000006044820152606401610384565b60008111610d365760405162461bcd60e51b815260206004820152601c60248201527f616d6f756e74206d75737420626967676572207468616e207a65726f000000006044820152606401610384565b60405163a9059cbb60e01b8152336004820152602481018290526001600160a01b0383169063a9059cbb90604401602060405180830381600087803b158015610d7e57600080fd5b505af1158015610d92573d6000803e3d6000fd5b505050506040513d601f19601f82011682018060405250810190610db691906115d9565b505050565b600080546001600160a01b038381166001600160a01b0319831681178455604051919092169283917f8be0079c531659141344cd1fd0a4f28419497f9722a3daafe3b4186f6b6457e09190a35050565b6060600282511015610e5f5760405162461bcd60e51b815260206004820152601c60248201527f50616e63616b654c6962726172793a20494e56414c49445f50415448000000006044820152606401610384565b815167ffffffffffffffff811115610e7957610e79611a22565b604051908082528060200260200182016040528015610ea2578160200160208202803683370190505b5090508281600081518110610eb957610eb9611a0c565b60200260200101818152505060005b60018351610ed691906119c4565b811015610f8e57600080610f2987868581518110610ef657610ef6611a0c565b602002602001015187866001610f0c919061196b565b81518110610f1c57610f1c611a0c565b6020026020010151610f96565b91509150610f51848481518110610f4257610f42611a0c565b6020026020010151838361107b565b84610f5d85600161196b565b81518110610f6d57610f6d611a0c565b60200260200101818152505050508080610f86906119db565b915050610ec8565b509392505050565b6000806000610fa58585611196565b509050610fb386868661128c565b50600080610fc288888861128c565b6001600160a01b0316630902f1ac6040518163ffffffff1660e01b815260040160606040518083038186803b158015610ffa57600080fd5b505afa15801561100e573d6000803e3d6000fd5b505050506040513d601f19601f8201168201806040525081019061103291906115fb565b506001600160701b031691506001600160701b03169150826001600160a01b0316876001600160a01b03161461106957808261106c565b81815b90999098509650505050505050565b60008084116110de5760405162461bcd60e51b815260206004820152602960248201527f50616e63616b654c6962726172793a20494e53554646494349454e545f494e50604482015268155517d05353d5539560ba1b6064820152608401610384565b6000831180156110ee5750600082115b6111495760405162461bcd60e51b815260206004820152602660248201527f50616e63616b654c6962726172793a20494e53554646494349454e545f4c495160448201526555494449545960d01b6064820152608401610384565b6000611157856103e6611367565b905060006111658285611367565b9050600061117f83611179886103e8611367565b9061137a565b905061118b8183611983565b979650505050505050565b600080826001600160a01b0316846001600160a01b031614156112075760405162461bcd60e51b815260206004820152602360248201527f50616e63616b654c6962726172793a204944454e544943414c5f41444452455360448201526253455360e81b6064820152608401610384565b826001600160a01b0316846001600160a01b03161061122757828461122a565b83835b90925090506001600160a01b0382166112855760405162461bcd60e51b815260206004820152601c60248201527f50616e63616b654c6962726172793a205a45524f5f41444452455353000000006044820152606401610384565b9250929050565b600080600061129b8585611196565b6040516bffffffffffffffffffffffff19606084811b8216602084015283901b16603482015291935091508690604801604051602081830303815290604052805190602001206040516020016113439291906001600160f81b0319815260609290921b6bffffffffffffffffffffffff1916600183015260158201527fd0d4c4cd0848c93cb4fd1f498d7013ee6bfb25783ea21593d5834f5d250ece66603582015260550190565b6040516020818303038152906040528051906020012060601c925050509392505050565b600061137382846119a5565b9392505050565b6000611373828461196b565b60008083601f84011261139857600080fd5b50813567ffffffffffffffff8111156113b057600080fd5b6020830191508360208260051b850101111561128557600080fd5b600082601f8301126113dc57600080fd5b813560206113f16113ec83611947565b611916565b80838252828201915082860187848660051b890101111561141157600080fd5b60005b8581101561143957813561142781611a38565b84529284019290840190600101611414565b5090979650505050505050565b80516001600160701b038116811461145d57600080fd5b919050565b60006020828403121561147457600080fd5b813561137381611a38565b6000806040838503121561149257600080fd5b823561149d81611a38565b946020939093013593505050565b6000806000806000608086880312156114c357600080fd5b85356114ce81611a38565b94506020860135935060408601359250606086013567ffffffffffffffff808211156114f957600080fd5b818801915088601f83011261150d57600080fd5b81358181111561151c57600080fd5b89602082850101111561152e57600080fd5b9699959850939650602001949392505050565b6000602080838503121561155457600080fd5b825167ffffffffffffffff81111561156b57600080fd5b8301601f8101851361157c57600080fd5b805161158a6113ec82611947565b80828252848201915084840188868560051b87010111156115aa57600080fd5b600094505b838510156115cd5780518352600194909401939185019185016115af565b50979650505050505050565b6000602082840312156115eb57600080fd5b8151801515811461137357600080fd5b60008060006060848603121561161057600080fd5b61161984611446565b925061162760208501611446565b9150604084015163ffffffff8116811461164057600080fd5b809150509250925092565b60008060008060008060c0878903121561166457600080fd5b86359550602087013561167681611a38565b9450604087013567ffffffffffffffff8082111561169357600080fd5b61169f8a838b016113cb565b955060608901359150808211156116b557600080fd5b6116c18a838b016113cb565b945060808901359150808211156116d757600080fd5b506116e489828a016113cb565b92505060a087013590509295509295509295565b600080600080600080600080600060c08a8c03121561171657600080fd5b8935985060208a013561172881611a38565b975060408a013567ffffffffffffffff8082111561174557600080fd5b6117518d838e01611386565b909950975060608c013591508082111561176a57600080fd5b6117768d838e01611386565b909750955060808c013591508082111561178f57600080fd5b5061179c8c828d01611386565b9a9d999c50979a9699959894979660a00135949350505050565b6000806000606084860312156117cb57600080fd5b8351925060208401519150604084015190509250925092565b8183526000602080850194508260005b8581101561182257813561180781611a38565b6001600160a01b0316875295820195908201906001016117f4565b509495945050505050565b6020808252818101527f4f776e61626c653a2063616c6c6572206973206e6f7420746865206f776e6572604082015260600190565b8981526001600160a01b038916602082015260c06040820181905260009061188d908301898b6117e4565b82810360608401526118a081888a6117e4565b905082810360808401526118b58186886117e4565b9150508260a08301529a9950505050505050505050565b6000604082018483526020604081850152818551808452606086019150828701935060005b818110156114395784516001600160a01b0316835293830193918301916001016118f1565b604051601f8201601f1916810167ffffffffffffffff8111828210171561193f5761193f611a22565b604052919050565b600067ffffffffffffffff82111561196157611961611a22565b5060051b60200190565b6000821982111561197e5761197e6119f6565b500190565b6000826119a057634e487b7160e01b600052601260045260246000fd5b500490565b60008160001904831182151516156119bf576119bf6119f6565b500290565b6000828210156119d6576119d66119f6565b500390565b60006000198214156119ef576119ef6119f6565b5060010190565b634e487b7160e01b600052601160045260246000fd5b634e487b7160e01b600052603260045260246000fd5b634e487b7160e01b600052604160045260246000fd5b6001600160a01b0381168114610c6357600080fdfea26469706673582212202f5ca29dfe89ecf58c81bc68cf894b5cbe36714c0db0c78d933e97157f32aac764736f6c63430008070033",
			"opcodes": "PUSH1 0x80 PUSH1 0x40 MSTORE CALLVALUE DUP1 ISZERO PUSH2 0x10 JUMPI PUSH1 0x0 DUP1 REVERT JUMPDEST POP PUSH2 0x1A CALLER PUSH2 0x1F JUMP JUMPDEST PUSH2 0x6F JUMP JUMPDEST PUSH1 0x0 DUP1 SLOAD PUSH1 0x1 PUSH1 0x1 PUSH1 0xA0 SHL SUB DUP4 DUP2 AND PUSH1 0x1 PUSH1 0x1 PUSH1 0xA0 SHL SUB NOT DUP4 AND DUP2 OR DUP5 SSTORE PUSH1 0x40 MLOAD SWAP2 SWAP1 SWAP3 AND SWAP3 DUP4 SWAP2 PUSH32 0x8BE0079C531659141344CD1FD0A4F28419497F9722A3DAAFE3B4186F6B6457E0 SWAP2 SWAP1 LOG3 POP POP JUMP JUMPDEST PUSH2 0x1A83 DUP1 PUSH2 0x7E PUSH1 0x0 CODECOPY PUSH1 0x0 RETURN INVALID PUSH1 0x80 PUSH1 0x40 MSTORE PUSH1 0x4 CALLDATASIZE LT PUSH2 0x8A JUMPI PUSH1 0x0 CALLDATALOAD PUSH1 0xE0 SHR DUP1 PUSH4 0xB14E9A72 GT PUSH2 0x59 JUMPI DUP1 PUSH4 0xB14E9A72 EQ PUSH2 0x10E JUMPI DUP1 PUSH4 0xB2C8DFDB EQ PUSH2 0x12E JUMPI DUP1 PUSH4 0xE630B99C EQ PUSH2 0x143 JUMPI DUP1 PUSH4 0xF2FDE38B EQ PUSH2 0x158 JUMPI DUP1 PUSH4 0xF3FEF3A3 EQ PUSH2 0x178 JUMPI PUSH1 0x0 DUP1 REVERT JUMPDEST DUP1 PUSH4 0x9C038C4 EQ PUSH2 0x96 JUMPI DUP1 PUSH4 0x715018A6 EQ PUSH2 0xAD JUMPI DUP1 PUSH4 0x84800812 EQ PUSH2 0xC2 JUMPI DUP1 PUSH4 0x8DA5CB5B EQ PUSH2 0xE2 JUMPI PUSH1 0x0 DUP1 REVERT JUMPDEST CALLDATASIZE PUSH2 0x91 JUMPI STOP JUMPDEST PUSH1 0x0 DUP1 REVERT JUMPDEST CALLVALUE DUP1 ISZERO PUSH2 0xA2 JUMPI PUSH1 0x0 DUP1 REVERT JUMPDEST POP PUSH2 0xAB PUSH2 0x198 JUMP JUMPDEST STOP JUMPDEST CALLVALUE DUP1 ISZERO PUSH2 0xB9 JUMPI PUSH1 0x0 DUP1 REVERT JUMPDEST POP PUSH2 0xAB PUSH2 0x35A JUMP JUMPDEST CALLVALUE DUP1 ISZERO PUSH2 0xCE JUMPI PUSH1 0x0 DUP1 REVERT JUMPDEST POP PUSH2 0xAB PUSH2 0xDD CALLDATASIZE PUSH1 0x4 PUSH2 0x14AB JUMP JUMPDEST PUSH2 0x399 JUMP JUMPDEST CALLVALUE DUP1 ISZERO PUSH2 0xEE JUMPI PUSH1 0x0 DUP1 REVERT JUMPDEST POP PUSH1 0x0 SLOAD PUSH1 0x40 DUP1 MLOAD PUSH1 0x1 PUSH1 0x1 PUSH1 0xA0 SHL SUB SWAP1 SWAP3 AND DUP3 MSTORE MLOAD SWAP1 DUP2 SWAP1 SUB PUSH1 0x20 ADD SWAP1 RETURN JUMPDEST CALLVALUE DUP1 ISZERO PUSH2 0x11A JUMPI PUSH1 0x0 DUP1 REVERT JUMPDEST POP PUSH2 0xAB PUSH2 0x129 CALLDATASIZE PUSH1 0x4 PUSH2 0x16F8 JUMP JUMPDEST PUSH2 0x66B JUMP JUMPDEST CALLVALUE DUP1 ISZERO PUSH2 0x13A JUMPI PUSH1 0x0 DUP1 REVERT JUMPDEST POP PUSH2 0xAB PUSH2 0xA75 JUMP JUMPDEST CALLVALUE DUP1 ISZERO PUSH2 0x14F JUMPI PUSH1 0x0 DUP1 REVERT JUMPDEST POP PUSH2 0xAB PUSH2 0xAED JUMP JUMPDEST CALLVALUE DUP1 ISZERO PUSH2 0x164 JUMPI PUSH1 0x0 DUP1 REVERT JUMPDEST POP PUSH2 0xAB PUSH2 0x173 CALLDATASIZE PUSH1 0x4 PUSH2 0x1462 JUMP JUMPDEST PUSH2 0xBCB JUMP JUMPDEST CALLVALUE DUP1 ISZERO PUSH2 0x184 JUMPI PUSH1 0x0 DUP1 REVERT JUMPDEST POP PUSH2 0xAB PUSH2 0x193 CALLDATASIZE PUSH1 0x4 PUSH2 0x147F JUMP JUMPDEST PUSH2 0xC66 JUMP JUMPDEST PUSH1 0x40 DUP1 MLOAD PUSH1 0x2 DUP1 DUP3 MSTORE PUSH1 0x60 DUP3 ADD DUP4 MSTORE PUSH8 0xDE0B6B3A7640000 SWAP3 PUSH1 0x0 SWAP3 SWAP2 SWAP1 PUSH1 0x20 DUP4 ADD SWAP1 DUP1 CALLDATASIZE DUP4 CALLDATACOPY ADD SWAP1 POP POP SWAP1 POP PUSH20 0xBB4CDB9CBD36B01BD1CBAEBF2DE08D9173BC095C DUP2 PUSH1 0x0 DUP2 MLOAD DUP2 LT PUSH2 0x1ED JUMPI PUSH2 0x1ED PUSH2 0x1A0C JUMP JUMPDEST PUSH1 0x20 MUL PUSH1 0x20 ADD ADD SWAP1 PUSH1 0x1 PUSH1 0x1 PUSH1 0xA0 SHL SUB AND SWAP1 DUP2 PUSH1 0x1 PUSH1 0x1 PUSH1 0xA0 SHL SUB AND DUP2 MSTORE POP POP PUSH20 0xE9E7CEA3DEDCA5984780BAFC599BD69ADD087D56 DUP2 PUSH1 0x1 DUP2 MLOAD DUP2 LT PUSH2 0x235 JUMPI PUSH2 0x235 PUSH2 0x1A0C JUMP JUMPDEST PUSH1 0x1 PUSH1 0x1 PUSH1 0xA0 SHL SUB SWAP1 SWAP3 AND PUSH1 0x20 SWAP3 DUP4 MUL SWAP2 SWAP1 SWAP2 ADD SWAP1 SWAP2 ADD MSTORE PUSH1 0x40 MLOAD PUSH4 0xD06CA61F PUSH1 0xE0 SHL DUP2 MSTORE PUSH1 0x0 SWAP1 PUSH20 0x10ED43C718714EB63D5AA57B78B54704E256024E SWAP1 PUSH4 0xD06CA61F SWAP1 PUSH2 0x289 SWAP1 DUP7 SWAP1 DUP7 SWAP1 PUSH1 0x4 ADD PUSH2 0x18CC JUMP JUMPDEST PUSH1 0x0 PUSH1 0x40 MLOAD DUP1 DUP4 SUB DUP2 DUP7 DUP1 EXTCODESIZE ISZERO DUP1 ISZERO PUSH2 0x2A1 JUMPI PUSH1 0x0 DUP1 REVERT JUMPDEST POP GAS STATICCALL ISZERO DUP1 ISZERO PUSH2 0x2B5 JUMPI RETURNDATASIZE PUSH1 0x0 DUP1 RETURNDATACOPY RETURNDATASIZE PUSH1 0x0 REVERT JUMPDEST POP POP POP POP PUSH1 0x40 MLOAD RETURNDATASIZE PUSH1 0x0 DUP3 RETURNDATACOPY PUSH1 0x1F RETURNDATASIZE SWAP1 DUP2 ADD PUSH1 0x1F NOT AND DUP3 ADD PUSH1 0x40 MSTORE PUSH2 0x2DD SWAP2 SWAP1 DUP2 ADD SWAP1 PUSH2 0x1541 JUMP JUMPDEST SWAP1 POP PUSH32 0x3098047B3014951B4B206D50413841E96F2BBD01D1D433AB612E68A36AEB23B1 DUP2 PUSH1 0x0 DUP2 MLOAD DUP2 LT PUSH2 0x313 JUMPI PUSH2 0x313 PUSH2 0x1A0C JUMP JUMPDEST PUSH1 0x20 MUL PUSH1 0x20 ADD ADD MLOAD DUP3 PUSH1 0x1 DUP2 MLOAD DUP2 LT PUSH2 0x32E JUMPI PUSH2 0x32E PUSH2 0x1A0C JUMP JUMPDEST PUSH1 0x20 MUL PUSH1 0x20 ADD ADD MLOAD PUSH1 0x40 MLOAD PUSH2 0x34D SWAP3 SWAP2 SWAP1 SWAP2 DUP3 MSTORE PUSH1 0x20 DUP3 ADD MSTORE PUSH1 0x40 ADD SWAP1 JUMP JUMPDEST PUSH1 0x40 MLOAD DUP1 SWAP2 SUB SWAP1 LOG1 POP POP POP JUMP JUMPDEST PUSH1 0x0 SLOAD PUSH1 0x1 PUSH1 0x1 PUSH1 0xA0 SHL SUB AND CALLER EQ PUSH2 0x38D JUMPI PUSH1 0x40 MLOAD PUSH3 0x461BCD PUSH1 0xE5 SHL DUP2 MSTORE PUSH1 0x4 ADD PUSH2 0x384 SWAP1 PUSH2 0x182D JUMP JUMPDEST PUSH1 0x40 MLOAD DUP1 SWAP2 SUB SWAP1 REVERT JUMPDEST PUSH2 0x397 PUSH1 0x0 PUSH2 0xDBB JUMP JUMPDEST JUMP JUMPDEST PUSH2 0x424 PUSH1 0x40 MLOAD DUP1 PUSH2 0x1E0 ADD PUSH1 0x40 MSTORE DUP1 PUSH1 0x0 DUP2 MSTORE PUSH1 0x20 ADD PUSH1 0x0 PUSH1 0x1 PUSH1 0x1 PUSH1 0xA0 SHL SUB AND DUP2 MSTORE PUSH1 0x20 ADD PUSH1 0x60 DUP2 MSTORE PUSH1 0x20 ADD PUSH1 0x60 DUP2 MSTORE PUSH1 0x20 ADD PUSH1 0x60 DUP2 MSTORE PUSH1 0x20 ADD PUSH1 0x0 DUP2 MSTORE PUSH1 0x20 ADD PUSH1 0x0 DUP2 MSTORE PUSH1 0x20 ADD PUSH1 0x0 PUSH1 0x1 PUSH1 0x1 PUSH1 0xA0 SHL SUB AND DUP2 MSTORE PUSH1 0x20 ADD PUSH1 0x0 DUP2 MSTORE PUSH1 0x20 ADD PUSH1 0x0 DUP2 MSTORE PUSH1 0x20 ADD PUSH1 0x0 DUP2 MSTORE PUSH1 0x20 ADD PUSH1 0x0 DUP2 MSTORE PUSH1 0x20 ADD PUSH1 0x0 DUP2 MSTORE PUSH1 0x20 ADD PUSH1 0x0 DUP2 MSTORE PUSH1 0x20 ADD PUSH1 0x0 DUP2 MSTORE POP SWAP1 JUMP JUMPDEST PUSH2 0x430 DUP3 DUP5 ADD DUP5 PUSH2 0x164B JUMP JUMPDEST PUSH1 0xA0 DUP8 ADD MSTORE PUSH1 0x80 DUP7 ADD MSTORE PUSH1 0x60 DUP6 ADD MSTORE PUSH1 0x40 DUP5 ADD MSTORE PUSH1 0x1 PUSH1 0x1 PUSH1 0xA0 SHL SUB AND PUSH1 0x20 DUP4 ADD DUP2 SWAP1 MSTORE SWAP1 DUP3 MSTORE CALLER EQ PUSH2 0x48D JUMPI PUSH1 0x40 MLOAD PUSH3 0x461BCD PUSH1 0xE5 SHL DUP2 MSTORE PUSH1 0x20 PUSH1 0x4 DUP3 ADD MSTORE PUSH1 0x5 PUSH1 0x24 DUP3 ADD MSTORE PUSH5 0x10B830B4B9 PUSH1 0xD9 SHL PUSH1 0x44 DUP3 ADD MSTORE PUSH1 0x64 ADD PUSH2 0x384 JUMP JUMPDEST PUSH1 0x1 PUSH1 0x1 PUSH1 0xA0 SHL SUB DUP7 AND ADDRESS EQ PUSH2 0x4CF JUMPI PUSH1 0x40 MLOAD PUSH3 0x461BCD PUSH1 0xE5 SHL DUP2 MSTORE PUSH1 0x20 PUSH1 0x4 DUP3 ADD MSTORE PUSH1 0x7 PUSH1 0x24 DUP3 ADD MSTORE PUSH7 0x10B9B2B73232B9 PUSH1 0xC9 SHL PUSH1 0x44 DUP3 ADD MSTORE PUSH1 0x64 ADD PUSH2 0x384 JUMP JUMPDEST PUSH2 0x26F7 DUP2 PUSH1 0xA0 ADD MLOAD PUSH1 0x19 PUSH2 0x4E3 SWAP2 SWAP1 PUSH2 0x19A5 JUMP JUMPDEST PUSH2 0x4ED SWAP2 SWAP1 PUSH2 0x1983 JUMP JUMPDEST DUP2 PUSH1 0xA0 ADD MLOAD PUSH2 0x4FC SWAP2 SWAP1 PUSH2 0x196B JUMP JUMPDEST PUSH2 0x507 SWAP1 PUSH1 0x1 PUSH2 0x196B JUMP JUMPDEST PUSH1 0xC0 DUP3 ADD MSTORE PUSH1 0x80 DUP2 ADD MLOAD DUP1 MLOAD PUSH1 0x4 SWAP1 DUP2 LT PUSH2 0x524 JUMPI PUSH2 0x524 PUSH2 0x1A0C JUMP JUMPDEST PUSH1 0x20 SWAP1 DUP2 MUL SWAP2 SWAP1 SWAP2 ADD ADD MLOAD PUSH1 0x1 PUSH1 0x1 PUSH1 0xA0 SHL SUB AND PUSH1 0xE0 DUP3 ADD MSTORE PUSH1 0x80 DUP2 ADD MLOAD DUP1 MLOAD PUSH1 0x0 SWAP2 SWAP1 DUP3 SWAP1 PUSH2 0x556 JUMPI PUSH2 0x556 PUSH2 0x1A0C JUMP JUMPDEST PUSH1 0x20 MUL PUSH1 0x20 ADD ADD MLOAD SWAP1 POP PUSH1 0x0 DUP3 PUSH1 0x80 ADD MLOAD PUSH1 0x1 DUP2 MLOAD DUP2 LT PUSH2 0x579 JUMPI PUSH2 0x579 PUSH2 0x1A0C JUMP JUMPDEST PUSH1 0x20 MUL PUSH1 0x20 ADD ADD MLOAD SWAP1 POP PUSH1 0x0 DUP4 PUSH1 0x80 ADD MLOAD PUSH1 0x3 DUP2 MLOAD DUP2 LT PUSH2 0x59C JUMPI PUSH2 0x59C PUSH2 0x1A0C JUMP JUMPDEST PUSH1 0x20 MUL PUSH1 0x20 ADD ADD MLOAD SWAP1 POP PUSH1 0x0 DUP5 PUSH1 0x80 ADD MLOAD PUSH1 0x2 DUP2 MLOAD DUP2 LT PUSH2 0x5BF JUMPI PUSH2 0x5BF PUSH2 0x1A0C JUMP JUMPDEST PUSH1 0x20 MUL PUSH1 0x20 ADD ADD MLOAD SWAP1 POP PUSH1 0x60 PUSH32 0xEE80F069D389B1636BFE8A115FF1D8AD940B394B4D16BB19C8503003D14DD5B4 DUP7 PUSH1 0x0 ADD MLOAD DUP5 DUP9 PUSH1 0xA0 ADD MLOAD DUP6 DUP11 PUSH1 0xC0 ADD MLOAD DUP12 PUSH2 0x1A0 ADD MLOAD DUP13 PUSH2 0x1C0 ADD MLOAD PUSH1 0x40 MLOAD PUSH2 0x656 SWAP8 SWAP7 SWAP6 SWAP5 SWAP4 SWAP3 SWAP2 SWAP1 SWAP7 DUP8 MSTORE PUSH1 0x1 PUSH1 0x1 PUSH1 0xA0 SHL SUB SWAP6 DUP7 AND PUSH1 0x20 DUP9 ADD MSTORE PUSH1 0x40 DUP8 ADD SWAP5 SWAP1 SWAP5 MSTORE SWAP2 SWAP1 SWAP4 AND PUSH1 0x60 DUP6 ADD MSTORE PUSH1 0x80 DUP5 ADD SWAP3 SWAP1 SWAP3 MSTORE PUSH1 0xA0 DUP4 ADD SWAP2 SWAP1 SWAP2 MSTORE PUSH1 0xC0 DUP3 ADD MSTORE PUSH1 0xE0 ADD SWAP1 JUMP JUMPDEST PUSH1 0x40 MLOAD DUP1 SWAP2 SUB SWAP1 LOG1 POP POP POP POP POP POP POP POP POP POP POP JUMP JUMPDEST PUSH1 0x1 DUP10 LT ISZERO DUP1 ISZERO PUSH2 0x67D JUMPI POP PUSH1 0x7 DUP10 GT ISZERO JUMPDEST PUSH2 0x6B4 JUMPI PUSH1 0x40 MLOAD PUSH3 0x461BCD PUSH1 0xE5 SHL DUP2 MSTORE PUSH1 0x20 PUSH1 0x4 DUP3 ADD MSTORE PUSH1 0x8 PUSH1 0x24 DUP3 ADD MSTORE PUSH8 0x77726F6E67207369 PUSH1 0xC0 SHL PUSH1 0x44 DUP3 ADD MSTORE PUSH1 0x64 ADD PUSH2 0x384 JUMP JUMPDEST PUSH1 0x1 PUSH1 0x1 PUSH1 0xA0 SHL SUB DUP9 AND PUSH2 0x6F2 JUMPI PUSH1 0x40 MLOAD PUSH3 0x461BCD PUSH1 0xE5 SHL DUP2 MSTORE PUSH1 0x20 PUSH1 0x4 DUP3 ADD MSTORE PUSH1 0x5 PUSH1 0x24 DUP3 ADD MSTORE PUSH5 0x10B830B4B9 PUSH1 0xD9 SHL PUSH1 0x44 DUP3 ADD MSTORE PUSH1 0x64 ADD PUSH2 0x384 JUMP JUMPDEST PUSH1 0x0 PUSH20 0xFD36E2C2A6789DB23113685031D7F16329158384 PUSH4 0x5EC88C79 DUP6 DUP6 PUSH1 0x4 DUP2 DUP2 LT PUSH2 0x721 JUMPI PUSH2 0x721 PUSH2 0x1A0C JUMP JUMPDEST SWAP1 POP PUSH1 0x20 MUL ADD PUSH1 0x20 DUP2 ADD SWAP1 PUSH2 0x736 SWAP2 SWAP1 PUSH2 0x1462 JUMP JUMPDEST PUSH1 0x40 MLOAD PUSH1 0x1 PUSH1 0x1 PUSH1 0xE0 SHL SUB NOT PUSH1 0xE0 DUP5 SWAP1 SHL AND DUP2 MSTORE PUSH1 0x1 PUSH1 0x1 PUSH1 0xA0 SHL SUB SWAP1 SWAP2 AND PUSH1 0x4 DUP3 ADD MSTORE PUSH1 0x24 ADD PUSH1 0x60 PUSH1 0x40 MLOAD DUP1 DUP4 SUB DUP2 DUP7 DUP1 EXTCODESIZE ISZERO DUP1 ISZERO PUSH2 0x775 JUMPI PUSH1 0x0 DUP1 REVERT JUMPDEST POP GAS STATICCALL ISZERO DUP1 ISZERO PUSH2 0x789 JUMPI RETURNDATASIZE PUSH1 0x0 DUP1 RETURNDATACOPY RETURNDATASIZE PUSH1 0x0 REVERT JUMPDEST POP POP POP POP PUSH1 0x40 MLOAD RETURNDATASIZE PUSH1 0x1F NOT PUSH1 0x1F DUP3 ADD AND DUP3 ADD DUP1 PUSH1 0x40 MSTORE POP DUP2 ADD SWAP1 PUSH2 0x7AD SWAP2 SWAP1 PUSH2 0x17B6 JUMP JUMPDEST SWAP3 POP POP POP PUSH1 0x0 DUP2 GT PUSH2 0x80B JUMPI PUSH1 0x40 MLOAD PUSH3 0x461BCD PUSH1 0xE5 SHL DUP2 MSTORE PUSH1 0x20 PUSH1 0x4 DUP3 ADD MSTORE PUSH1 0x21 PUSH1 0x24 DUP3 ADD MSTORE PUSH32 0x73686F727466616C6C206D7573742067726561746572207468616E207A657220 PUSH1 0x44 DUP3 ADD MSTORE PUSH1 0x3 PUSH1 0xFC SHL PUSH1 0x64 DUP3 ADD MSTORE PUSH1 0x84 ADD PUSH2 0x384 JUMP JUMPDEST PUSH32 0x468D929ADD1FBBFC80E5DFDE344A58444D6D5BA8EC3D4B12D8A02A6913E47716 DUP11 DUP11 DUP11 DUP11 DUP11 DUP11 DUP11 DUP11 DUP11 PUSH1 0x40 MLOAD PUSH2 0x84A SWAP10 SWAP9 SWAP8 SWAP7 SWAP6 SWAP5 SWAP4 SWAP3 SWAP2 SWAP1 PUSH2 0x1862 JUMP JUMPDEST PUSH1 0x40 MLOAD DUP1 SWAP2 SUB SWAP1 LOG1 PUSH1 0x1 PUSH1 0x0 DUP6 DUP6 PUSH1 0x3 DUP2 DUP2 LT PUSH2 0x869 JUMPI PUSH2 0x869 PUSH2 0x1A0C JUMP JUMPDEST SWAP1 POP PUSH1 0x20 MUL ADD PUSH1 0x20 DUP2 ADD SWAP1 PUSH2 0x87E SWAP2 SWAP1 PUSH2 0x1462 JUMP JUMPDEST PUSH1 0x1 PUSH1 0x1 PUSH1 0xA0 SHL SUB AND PUSH1 0x1 PUSH1 0x1 PUSH1 0xA0 SHL SUB AND DUP2 MSTORE PUSH1 0x20 ADD SWAP1 DUP2 MSTORE PUSH1 0x20 ADD PUSH1 0x0 KECCAK256 PUSH1 0x0 DUP6 DUP6 PUSH1 0x0 DUP2 DUP2 LT PUSH2 0x8B3 JUMPI PUSH2 0x8B3 PUSH2 0x1A0C JUMP JUMPDEST SWAP1 POP PUSH1 0x20 MUL ADD PUSH1 0x20 DUP2 ADD SWAP1 PUSH2 0x8C8 SWAP2 SWAP1 PUSH2 0x1462 JUMP JUMPDEST PUSH1 0x1 PUSH1 0x1 PUSH1 0xA0 SHL SUB AND DUP2 MSTORE PUSH1 0x20 DUP2 ADD SWAP2 SWAP1 SWAP2 MSTORE PUSH1 0x40 ADD PUSH1 0x0 KECCAK256 SLOAD PUSH1 0xFF AND PUSH2 0xA69 JUMPI DUP4 DUP4 PUSH1 0x3 DUP2 DUP2 LT PUSH2 0x8FC JUMPI PUSH2 0x8FC PUSH2 0x1A0C JUMP JUMPDEST SWAP1 POP PUSH1 0x20 MUL ADD PUSH1 0x20 DUP2 ADD SWAP1 PUSH2 0x911 SWAP2 SWAP1 PUSH2 0x1462 JUMP JUMPDEST PUSH1 0x1 PUSH1 0x1 PUSH1 0xA0 SHL SUB AND PUSH4 0x95EA7B3 DUP6 DUP6 PUSH1 0x0 DUP2 DUP2 LT PUSH2 0x932 JUMPI PUSH2 0x932 PUSH2 0x1A0C JUMP JUMPDEST SWAP1 POP PUSH1 0x20 MUL ADD PUSH1 0x20 DUP2 ADD SWAP1 PUSH2 0x947 SWAP2 SWAP1 PUSH2 0x1462 JUMP JUMPDEST PUSH1 0x40 MLOAD PUSH1 0x1 PUSH1 0x1 PUSH1 0xE0 SHL SUB NOT PUSH1 0xE0 DUP5 SWAP1 SHL AND DUP2 MSTORE PUSH1 0x1 PUSH1 0x1 PUSH1 0xA0 SHL SUB SWAP1 SWAP2 AND PUSH1 0x4 DUP3 ADD MSTORE PUSH1 0x0 NOT PUSH1 0x24 DUP3 ADD MSTORE PUSH1 0x44 ADD PUSH1 0x20 PUSH1 0x40 MLOAD DUP1 DUP4 SUB DUP2 PUSH1 0x0 DUP8 DUP1 EXTCODESIZE ISZERO DUP1 ISZERO PUSH2 0x990 JUMPI PUSH1 0x0 DUP1 REVERT JUMPDEST POP GAS CALL ISZERO DUP1 ISZERO PUSH2 0x9A4 JUMPI RETURNDATASIZE PUSH1 0x0 DUP1 RETURNDATACOPY RETURNDATASIZE PUSH1 0x0 REVERT JUMPDEST POP POP POP POP PUSH1 0x40 MLOAD RETURNDATASIZE PUSH1 0x1F NOT PUSH1 0x1F DUP3 ADD AND DUP3 ADD DUP1 PUSH1 0x40 MSTORE POP DUP2 ADD SWAP1 PUSH2 0x9C8 SWAP2 SWAP1 PUSH2 0x15D9 JUMP JUMPDEST POP PUSH1 0x1 DUP1 PUSH1 0x0 DUP7 DUP7 PUSH1 0x3 DUP2 DUP2 LT PUSH2 0x9E1 JUMPI PUSH2 0x9E1 PUSH2 0x1A0C JUMP JUMPDEST SWAP1 POP PUSH1 0x20 MUL ADD PUSH1 0x20 DUP2 ADD SWAP1 PUSH2 0x9F6 SWAP2 SWAP1 PUSH2 0x1462 JUMP JUMPDEST PUSH1 0x1 PUSH1 0x1 PUSH1 0xA0 SHL SUB AND PUSH1 0x1 PUSH1 0x1 PUSH1 0xA0 SHL SUB AND DUP2 MSTORE PUSH1 0x20 ADD SWAP1 DUP2 MSTORE PUSH1 0x20 ADD PUSH1 0x0 KECCAK256 PUSH1 0x0 DUP7 DUP7 PUSH1 0x0 DUP2 DUP2 LT PUSH2 0xA2B JUMPI PUSH2 0xA2B PUSH2 0x1A0C JUMP JUMPDEST SWAP1 POP PUSH1 0x20 MUL ADD PUSH1 0x20 DUP2 ADD SWAP1 PUSH2 0xA40 SWAP2 SWAP1 PUSH2 0x1462 JUMP JUMPDEST PUSH1 0x1 PUSH1 0x1 PUSH1 0xA0 SHL SUB AND DUP2 MSTORE PUSH1 0x20 DUP2 ADD SWAP2 SWAP1 SWAP2 MSTORE PUSH1 0x40 ADD PUSH1 0x0 KECCAK256 DUP1 SLOAD PUSH1 0xFF NOT AND SWAP2 ISZERO ISZERO SWAP2 SWAP1 SWAP2 OR SWAP1 SSTORE JUMPDEST POP POP POP POP POP POP POP POP POP POP JUMP JUMPDEST PUSH1 0x0 PUSH8 0xDE0B6B3A7640000 SWAP1 POP PUSH20 0xBB4CDB9CBD36B01BD1CBAEBF2DE08D9173BC095C PUSH1 0x1 PUSH1 0x1 PUSH1 0xA0 SHL SUB AND PUSH4 0xD0E30DB0 DUP3 PUSH1 0x40 MLOAD DUP3 PUSH4 0xFFFFFFFF AND PUSH1 0xE0 SHL DUP2 MSTORE PUSH1 0x4 ADD PUSH1 0x0 PUSH1 0x40 MLOAD DUP1 DUP4 SUB DUP2 DUP6 DUP9 DUP1 EXTCODESIZE ISZERO DUP1 ISZERO PUSH2 0xAD1 JUMPI PUSH1 0x0 DUP1 REVERT JUMPDEST POP GAS CALL ISZERO DUP1 ISZERO PUSH2 0xAE5 JUMPI RETURNDATASIZE PUSH1 0x0 DUP1 RETURNDATACOPY RETURNDATASIZE PUSH1 0x0 REVERT JUMPDEST POP POP POP POP POP POP JUMP JUMPDEST PUSH1 0x40 DUP1 MLOAD PUSH1 0x2 DUP1 DUP3 MSTORE PUSH1 0x60 DUP3 ADD DUP4 MSTORE PUSH8 0xDE0B6B3A7640000 SWAP3 PUSH1 0x0 SWAP3 SWAP2 SWAP1 PUSH1 0x20 DUP4 ADD SWAP1 DUP1 CALLDATASIZE DUP4 CALLDATACOPY ADD SWAP1 POP POP SWAP1 POP PUSH20 0xBB4CDB9CBD36B01BD1CBAEBF2DE08D9173BC095C DUP2 PUSH1 0x0 DUP2 MLOAD DUP2 LT PUSH2 0xB42 JUMPI PUSH2 0xB42 PUSH2 0x1A0C JUMP JUMPDEST PUSH1 0x20 MUL PUSH1 0x20 ADD ADD SWAP1 PUSH1 0x1 PUSH1 0x1 PUSH1 0xA0 SHL SUB AND SWAP1 DUP2 PUSH1 0x1 PUSH1 0x1 PUSH1 0xA0 SHL SUB AND DUP2 MSTORE POP POP PUSH20 0xE9E7CEA3DEDCA5984780BAFC599BD69ADD087D56 DUP2 PUSH1 0x1 DUP2 MLOAD DUP2 LT PUSH2 0xB8A JUMPI PUSH2 0xB8A PUSH2 0x1A0C JUMP JUMPDEST PUSH1 0x20 MUL PUSH1 0x20 ADD ADD SWAP1 PUSH1 0x1 PUSH1 0x1 PUSH1 0xA0 SHL SUB AND SWAP1 DUP2 PUSH1 0x1 PUSH1 0x1 PUSH1 0xA0 SHL SUB AND DUP2 MSTORE POP POP PUSH1 0x0 PUSH2 0x2DD PUSH20 0xCA143CE32FE78F1F7019D7D551A6402FC5350C73 DUP5 DUP5 PUSH2 0xE0B JUMP JUMPDEST PUSH1 0x0 SLOAD PUSH1 0x1 PUSH1 0x1 PUSH1 0xA0 SHL SUB AND CALLER EQ PUSH2 0xBF5 JUMPI PUSH1 0x40 MLOAD PUSH3 0x461BCD PUSH1 0xE5 SHL DUP2 MSTORE PUSH1 0x4 ADD PUSH2 0x384 SWAP1 PUSH2 0x182D JUMP JUMPDEST PUSH1 0x1 PUSH1 0x1 PUSH1 0xA0 SHL SUB DUP2 AND PUSH2 0xC5A JUMPI PUSH1 0x40 MLOAD PUSH3 0x461BCD PUSH1 0xE5 SHL DUP2 MSTORE PUSH1 0x20 PUSH1 0x4 DUP3 ADD MSTORE PUSH1 0x26 PUSH1 0x24 DUP3 ADD MSTORE PUSH32 0x4F776E61626C653A206E6577206F776E657220697320746865207A65726F2061 PUSH1 0x44 DUP3 ADD MSTORE PUSH6 0x646472657373 PUSH1 0xD0 SHL PUSH1 0x64 DUP3 ADD MSTORE PUSH1 0x84 ADD PUSH2 0x384 JUMP JUMPDEST PUSH2 0xC63 DUP2 PUSH2 0xDBB JUMP JUMPDEST POP JUMP JUMPDEST PUSH1 0x0 SLOAD PUSH1 0x1 PUSH1 0x1 PUSH1 0xA0 SHL SUB AND CALLER EQ PUSH2 0xC90 JUMPI PUSH1 0x40 MLOAD PUSH3 0x461BCD PUSH1 0xE5 SHL DUP2 MSTORE PUSH1 0x4 ADD PUSH2 0x384 SWAP1 PUSH2 0x182D JUMP JUMPDEST PUSH1 0x1 PUSH1 0x1 PUSH1 0xA0 SHL SUB DUP3 AND PUSH2 0xCE6 JUMPI PUSH1 0x40 MLOAD PUSH3 0x461BCD PUSH1 0xE5 SHL DUP2 MSTORE PUSH1 0x20 PUSH1 0x4 DUP3 ADD MSTORE PUSH1 0x18 PUSH1 0x24 DUP3 ADD MSTORE PUSH32 0x61646472657373206D757374206E6F74206265207A65726F0000000000000000 PUSH1 0x44 DUP3 ADD MSTORE PUSH1 0x64 ADD PUSH2 0x384 JUMP JUMPDEST PUSH1 0x0 DUP2 GT PUSH2 0xD36 JUMPI PUSH1 0x40 MLOAD PUSH3 0x461BCD PUSH1 0xE5 SHL DUP2 MSTORE PUSH1 0x20 PUSH1 0x4 DUP3 ADD MSTORE PUSH1 0x1C PUSH1 0x24 DUP3 ADD MSTORE PUSH32 0x616D6F756E74206D75737420626967676572207468616E207A65726F00000000 PUSH1 0x44 DUP3 ADD MSTORE PUSH1 0x64 ADD PUSH2 0x384 JUMP JUMPDEST PUSH1 0x40 MLOAD PUSH4 0xA9059CBB PUSH1 0xE0 SHL DUP2 MSTORE CALLER PUSH1 0x4 DUP3 ADD MSTORE PUSH1 0x24 DUP2 ADD DUP3 SWAP1 MSTORE PUSH1 0x1 PUSH1 0x1 PUSH1 0xA0 SHL SUB DUP4 AND SWAP1 PUSH4 0xA9059CBB SWAP1 PUSH1 0x44 ADD PUSH1 0x20 PUSH1 0x40 MLOAD DUP1 DUP4 SUB DUP2 PUSH1 0x0 DUP8 DUP1 EXTCODESIZE ISZERO DUP1 ISZERO PUSH2 0xD7E JUMPI PUSH1 0x0 DUP1 REVERT JUMPDEST POP GAS CALL ISZERO DUP1 ISZERO PUSH2 0xD92 JUMPI RETURNDATASIZE PUSH1 0x0 DUP1 RETURNDATACOPY RETURNDATASIZE PUSH1 0x0 REVERT JUMPDEST POP POP POP POP PUSH1 0x40 MLOAD RETURNDATASIZE PUSH1 0x1F NOT PUSH1 0x1F DUP3 ADD AND DUP3 ADD DUP1 PUSH1 0x40 MSTORE POP DUP2 ADD SWAP1 PUSH2 0xDB6 SWAP2 SWAP1 PUSH2 0x15D9 JUMP JUMPDEST POP POP POP JUMP JUMPDEST PUSH1 0x0 DUP1 SLOAD PUSH1 0x1 PUSH1 0x1 PUSH1 0xA0 SHL SUB DUP4 DUP2 AND PUSH1 0x1 PUSH1 0x1 PUSH1 0xA0 SHL SUB NOT DUP4 AND DUP2 OR DUP5 SSTORE PUSH1 0x40 MLOAD SWAP2 SWAP1 SWAP3 AND SWAP3 DUP4 SWAP2 PUSH32 0x8BE0079C531659141344CD1FD0A4F28419497F9722A3DAAFE3B4186F6B6457E0 SWAP2 SWAP1 LOG3 POP POP JUMP JUMPDEST PUSH1 0x60 PUSH1 0x2 DUP3 MLOAD LT ISZERO PUSH2 0xE5F JUMPI PUSH1 0x40 MLOAD PUSH3 0x461BCD PUSH1 0xE5 SHL DUP2 MSTORE PUSH1 0x20 PUSH1 0x4 DUP3 ADD MSTORE PUSH1 0x1C PUSH1 0x24 DUP3 ADD MSTORE PUSH32 0x50616E63616B654C6962726172793A20494E56414C49445F5041544800000000 PUSH1 0x44 DUP3 ADD MSTORE PUSH1 0x64 ADD PUSH2 0x384 JUMP JUMPDEST DUP2 MLOAD PUSH8 0xFFFFFFFFFFFFFFFF DUP2 GT ISZERO PUSH2 0xE79 JUMPI PUSH2 0xE79 PUSH2 0x1A22 JUMP JUMPDEST PUSH1 0x40 MLOAD SWAP1 DUP1 DUP3 MSTORE DUP1 PUSH1 0x20 MUL PUSH1 0x20 ADD DUP3 ADD PUSH1 0x40 MSTORE DUP1 ISZERO PUSH2 0xEA2 JUMPI DUP2 PUSH1 0x20 ADD PUSH1 0x20 DUP3 MUL DUP1 CALLDATASIZE DUP4 CALLDATACOPY ADD SWAP1 POP JUMPDEST POP SWAP1 POP DUP3 DUP2 PUSH1 0x0 DUP2 MLOAD DUP2 LT PUSH2 0xEB9 JUMPI PUSH2 0xEB9 PUSH2 0x1A0C JUMP JUMPDEST PUSH1 0x20 MUL PUSH1 0x20 ADD ADD DUP2 DUP2 MSTORE POP POP PUSH1 0x0 JUMPDEST PUSH1 0x1 DUP4 MLOAD PUSH2 0xED6 SWAP2 SWAP1 PUSH2 0x19C4 JUMP JUMPDEST DUP2 LT ISZERO PUSH2 0xF8E JUMPI PUSH1 0x0 DUP1 PUSH2 0xF29 DUP8 DUP7 DUP6 DUP2 MLOAD DUP2 LT PUSH2 0xEF6 JUMPI PUSH2 0xEF6 PUSH2 0x1A0C JUMP JUMPDEST PUSH1 0x20 MUL PUSH1 0x20 ADD ADD MLOAD DUP8 DUP7 PUSH1 0x1 PUSH2 0xF0C SWAP2 SWAP1 PUSH2 0x196B JUMP JUMPDEST DUP2 MLOAD DUP2 LT PUSH2 0xF1C JUMPI PUSH2 0xF1C PUSH2 0x1A0C JUMP JUMPDEST PUSH1 0x20 MUL PUSH1 0x20 ADD ADD MLOAD PUSH2 0xF96 JUMP JUMPDEST SWAP2 POP SWAP2 POP PUSH2 0xF51 DUP5 DUP5 DUP2 MLOAD DUP2 LT PUSH2 0xF42 JUMPI PUSH2 0xF42 PUSH2 0x1A0C JUMP JUMPDEST PUSH1 0x20 MUL PUSH1 0x20 ADD ADD MLOAD DUP4 DUP4 PUSH2 0x107B JUMP JUMPDEST DUP5 PUSH2 0xF5D DUP6 PUSH1 0x1 PUSH2 0x196B JUMP JUMPDEST DUP2 MLOAD DUP2 LT PUSH2 0xF6D JUMPI PUSH2 0xF6D PUSH2 0x1A0C JUMP JUMPDEST PUSH1 0x20 MUL PUSH1 0x20 ADD ADD DUP2 DUP2 MSTORE POP POP POP POP DUP1 DUP1 PUSH2 0xF86 SWAP1 PUSH2 0x19DB JUMP JUMPDEST SWAP2 POP POP PUSH2 0xEC8 JUMP JUMPDEST POP SWAP4 SWAP3 POP POP POP JUMP JUMPDEST PUSH1 0x0 DUP1 PUSH1 0x0 PUSH2 0xFA5 DUP6 DUP6 PUSH2 0x1196 JUMP JUMPDEST POP SWAP1 POP PUSH2 0xFB3 DUP7 DUP7 DUP7 PUSH2 0x128C JUMP JUMPDEST POP PUSH1 0x0 DUP1 PUSH2 0xFC2 DUP9 DUP9 DUP9 PUSH2 0x128C JUMP JUMPDEST PUSH1 0x1 PUSH1 0x1 PUSH1 0xA0 SHL SUB AND PUSH4 0x902F1AC PUSH1 0x40 MLOAD DUP2 PUSH4 0xFFFFFFFF AND PUSH1 0xE0 SHL DUP2 MSTORE PUSH1 0x4 ADD PUSH1 0x60 PUSH1 0x40 MLOAD DUP1 DUP4 SUB DUP2 DUP7 DUP1 EXTCODESIZE ISZERO DUP1 ISZERO PUSH2 0xFFA JUMPI PUSH1 0x0 DUP1 REVERT JUMPDEST POP GAS STATICCALL ISZERO DUP1 ISZERO PUSH2 0x100E JUMPI RETURNDATASIZE PUSH1 0x0 DUP1 RETURNDATACOPY RETURNDATASIZE PUSH1 0x0 REVERT JUMPDEST POP POP POP POP PUSH1 0x40 MLOAD RETURNDATASIZE PUSH1 0x1F NOT PUSH1 0x1F DUP3 ADD AND DUP3 ADD DUP1 PUSH1 0x40 MSTORE POP DUP2 ADD SWAP1 PUSH2 0x1032 SWAP2 SWAP1 PUSH2 0x15FB JUMP JUMPDEST POP PUSH1 0x1 PUSH1 0x1 PUSH1 0x70 SHL SUB AND SWAP2 POP PUSH1 0x1 PUSH1 0x1 PUSH1 0x70 SHL SUB AND SWAP2 POP DUP3 PUSH1 0x1 PUSH1 0x1 PUSH1 0xA0 SHL SUB AND DUP8 PUSH1 0x1 PUSH1 0x1 PUSH1 0xA0 SHL SUB AND EQ PUSH2 0x1069 JUMPI DUP1 DUP3 PUSH2 0x106C JUMP JUMPDEST DUP2 DUP2 JUMPDEST SWAP1 SWAP10 SWAP1 SWAP9 POP SWAP7 POP POP POP POP POP POP POP JUMP JUMPDEST PUSH1 0x0 DUP1 DUP5 GT PUSH2 0x10DE JUMPI PUSH1 0x40 MLOAD PUSH3 0x461BCD PUSH1 0xE5 SHL DUP2 MSTORE PUSH1 0x20 PUSH1 0x4 DUP3 ADD MSTORE PUSH1 0x29 PUSH1 0x24 DUP3 ADD MSTORE PUSH32 0x50616E63616B654C6962726172793A20494E53554646494349454E545F494E50 PUSH1 0x44 DUP3 ADD MSTORE PUSH9 0x155517D05353D55395 PUSH1 0xBA SHL PUSH1 0x64 DUP3 ADD MSTORE PUSH1 0x84 ADD PUSH2 0x384 JUMP JUMPDEST PUSH1 0x0 DUP4 GT DUP1 ISZERO PUSH2 0x10EE JUMPI POP PUSH1 0x0 DUP3 GT JUMPDEST PUSH2 0x1149 JUMPI PUSH1 0x40 MLOAD PUSH3 0x461BCD PUSH1 0xE5 SHL DUP2 MSTORE PUSH1 0x20 PUSH1 0x4 DUP3 ADD MSTORE PUSH1 0x26 PUSH1 0x24 DUP3 ADD MSTORE PUSH32 0x50616E63616B654C6962726172793A20494E53554646494349454E545F4C4951 PUSH1 0x44 DUP3 ADD MSTORE PUSH6 0x554944495459 PUSH1 0xD0 SHL PUSH1 0x64 DUP3 ADD MSTORE PUSH1 0x84 ADD PUSH2 0x384 JUMP JUMPDEST PUSH1 0x0 PUSH2 0x1157 DUP6 PUSH2 0x3E6 PUSH2 0x1367 JUMP JUMPDEST SWAP1 POP PUSH1 0x0 PUSH2 0x1165 DUP3 DUP6 PUSH2 0x1367 JUMP JUMPDEST SWAP1 POP PUSH1 0x0 PUSH2 0x117F DUP4 PUSH2 0x1179 DUP9 PUSH2 0x3E8 PUSH2 0x1367 JUMP JUMPDEST SWAP1 PUSH2 0x137A JUMP JUMPDEST SWAP1 POP PUSH2 0x118B DUP2 DUP4 PUSH2 0x1983 JUMP JUMPDEST SWAP8 SWAP7 POP POP POP POP POP POP POP JUMP JUMPDEST PUSH1 0x0 DUP1 DUP3 PUSH1 0x1 PUSH1 0x1 PUSH1 0xA0 SHL SUB AND DUP5 PUSH1 0x1 PUSH1 0x1 PUSH1 0xA0 SHL SUB AND EQ ISZERO PUSH2 0x1207 JUMPI PUSH1 0x40 MLOAD PUSH3 0x461BCD PUSH1 0xE5 SHL DUP2 MSTORE PUSH1 0x20 PUSH1 0x4 DUP3 ADD MSTORE PUSH1 0x23 PUSH1 0x24 DUP3 ADD MSTORE PUSH32 0x50616E63616B654C6962726172793A204944454E544943414C5F414444524553 PUSH1 0x44 DUP3 ADD MSTORE PUSH3 0x534553 PUSH1 0xE8 SHL PUSH1 0x64 DUP3 ADD MSTORE PUSH1 0x84 ADD PUSH2 0x384 JUMP JUMPDEST DUP3 PUSH1 0x1 PUSH1 0x1 PUSH1 0xA0 SHL SUB AND DUP5 PUSH1 0x1 PUSH1 0x1 PUSH1 0xA0 SHL SUB AND LT PUSH2 0x1227 JUMPI DUP3 DUP5 PUSH2 0x122A JUMP JUMPDEST DUP4 DUP4 JUMPDEST SWAP1 SWAP3 POP SWAP1 POP PUSH1 0x1 PUSH1 0x1 PUSH1 0xA0 SHL SUB DUP3 AND PUSH2 0x1285 JUMPI PUSH1 0x40 MLOAD PUSH3 0x461BCD PUSH1 0xE5 SHL DUP2 MSTORE PUSH1 0x20 PUSH1 0x4 DUP3 ADD MSTORE PUSH1 0x1C PUSH1 0x24 DUP3 ADD MSTORE PUSH32 0x50616E63616B654C6962726172793A205A45524F5F4144445245535300000000 PUSH1 0x44 DUP3 ADD MSTORE PUSH1 0x64 ADD PUSH2 0x384 JUMP JUMPDEST SWAP3 POP SWAP3 SWAP1 POP JUMP JUMPDEST PUSH1 0x0 DUP1 PUSH1 0x0 PUSH2 0x129B DUP6 DUP6 PUSH2 0x1196 JUMP JUMPDEST PUSH1 0x40 MLOAD PUSH12 0xFFFFFFFFFFFFFFFFFFFFFFFF NOT PUSH1 0x60 DUP5 DUP2 SHL DUP3 AND PUSH1 0x20 DUP5 ADD MSTORE DUP4 SWAP1 SHL AND PUSH1 0x34 DUP3 ADD MSTORE SWAP2 SWAP4 POP SWAP2 POP DUP7 SWAP1 PUSH1 0x48 ADD PUSH1 0x40 MLOAD PUSH1 0x20 DUP2 DUP4 SUB SUB DUP2 MSTORE SWAP1 PUSH1 0x40 MSTORE DUP1 MLOAD SWAP1 PUSH1 0x20 ADD KECCAK256 PUSH1 0x40 MLOAD PUSH1 0x20 ADD PUSH2 0x1343 SWAP3 SWAP2 SWAP1 PUSH1 0x1 PUSH1 0x1 PUSH1 0xF8 SHL SUB NOT DUP2 MSTORE PUSH1 0x60 SWAP3 SWAP1 SWAP3 SHL PUSH12 0xFFFFFFFFFFFFFFFFFFFFFFFF NOT AND PUSH1 0x1 DUP4 ADD MSTORE PUSH1 0x15 DUP3 ADD MSTORE PUSH32 0xD0D4C4CD0848C93CB4FD1F498D7013EE6BFB25783EA21593D5834F5D250ECE66 PUSH1 0x35 DUP3 ADD MSTORE PUSH1 0x55 ADD SWAP1 JUMP JUMPDEST PUSH1 0x40 MLOAD PUSH1 0x20 DUP2 DUP4 SUB SUB DUP2 MSTORE SWAP1 PUSH1 0x40 MSTORE DUP1 MLOAD SWAP1 PUSH1 0x20 ADD KECCAK256 PUSH1 0x60 SHR SWAP3 POP POP POP SWAP4 SWAP3 POP POP POP JUMP JUMPDEST PUSH1 0x0 PUSH2 0x1373 DUP3 DUP5 PUSH2 0x19A5 JUMP JUMPDEST SWAP4 SWAP3 POP POP POP JUMP JUMPDEST PUSH1 0x0 PUSH2 0x1373 DUP3 DUP5 PUSH2 0x196B JUMP JUMPDEST PUSH1 0x0 DUP1 DUP4 PUSH1 0x1F DUP5 ADD SLT PUSH2 0x1398 JUMPI PUSH1 0x0 DUP1 REVERT JUMPDEST POP DUP2 CALLDATALOAD PUSH8 0xFFFFFFFFFFFFFFFF DUP2 GT ISZERO PUSH2 0x13B0 JUMPI PUSH1 0x0 DUP1 REVERT JUMPDEST PUSH1 0x20 DUP4 ADD SWAP2 POP DUP4 PUSH1 0x20 DUP3 PUSH1 0x5 SHL DUP6 ADD ADD GT ISZERO PUSH2 0x1285 JUMPI PUSH1 0x0 DUP1 REVERT JUMPDEST PUSH1 0x0 DUP3 PUSH1 0x1F DUP4 ADD SLT PUSH2 0x13DC JUMPI PUSH1 0x0 DUP1 REVERT JUMPDEST DUP2 CALLDATALOAD PUSH1 0x20 PUSH2 0x13F1 PUSH2 0x13EC DUP4 PUSH2 0x1947 JUMP JUMPDEST PUSH2 0x1916 JUMP JUMPDEST DUP1 DUP4 DUP3 MSTORE DUP3 DUP3 ADD SWAP2 POP DUP3 DUP7 ADD DUP8 DUP5 DUP7 PUSH1 0x5 SHL DUP10 ADD ADD GT ISZERO PUSH2 0x1411 JUMPI PUSH1 0x0 DUP1 REVERT JUMPDEST PUSH1 0x0 JUMPDEST DUP6 DUP2 LT ISZERO PUSH2 0x1439 JUMPI DUP2 CALLDATALOAD PUSH2 0x1427 DUP2 PUSH2 0x1A38 JUMP JUMPDEST DUP5 MSTORE SWAP3 DUP5 ADD SWAP3 SWAP1 DUP5 ADD SWAP1 PUSH1 0x1 ADD PUSH2 0x1414 JUMP JUMPDEST POP SWAP1 SWAP8 SWAP7 POP POP POP POP POP POP POP JUMP JUMPDEST DUP1 MLOAD PUSH1 0x1 PUSH1 0x1 PUSH1 0x70 SHL SUB DUP2 AND DUP2 EQ PUSH2 0x145D JUMPI PUSH1 0x0 DUP1 REVERT JUMPDEST SWAP2 SWAP1 POP JUMP JUMPDEST PUSH1 0x0 PUSH1 0x20 DUP3 DUP5 SUB SLT ISZERO PUSH2 0x1474 JUMPI PUSH1 0x0 DUP1 REVERT JUMPDEST DUP2 CALLDATALOAD PUSH2 0x1373 DUP2 PUSH2 0x1A38 JUMP JUMPDEST PUSH1 0x0 DUP1 PUSH1 0x40 DUP4 DUP6 SUB SLT ISZERO PUSH2 0x1492 JUMPI PUSH1 0x0 DUP1 REVERT JUMPDEST DUP3 CALLDATALOAD PUSH2 0x149D DUP2 PUSH2 0x1A38 JUMP JUMPDEST SWAP5 PUSH1 0x20 SWAP4 SWAP1 SWAP4 ADD CALLDATALOAD SWAP4 POP POP POP JUMP JUMPDEST PUSH1 0x0 DUP1 PUSH1 0x0 DUP1 PUSH1 0x0 PUSH1 0x80 DUP7 DUP9 SUB SLT ISZERO PUSH2 0x14C3 JUMPI PUSH1 0x0 DUP1 REVERT JUMPDEST DUP6 CALLDATALOAD PUSH2 0x14CE DUP2 PUSH2 0x1A38 JUMP JUMPDEST SWAP5 POP PUSH1 0x20 DUP7 ADD CALLDATALOAD SWAP4 POP PUSH1 0x40 DUP7 ADD CALLDATALOAD SWAP3 POP PUSH1 0x60 DUP7 ADD CALLDATALOAD PUSH8 0xFFFFFFFFFFFFFFFF DUP1 DUP3 GT ISZERO PUSH2 0x14F9 JUMPI PUSH1 0x0 DUP1 REVERT JUMPDEST DUP2 DUP9 ADD SWAP2 POP DUP9 PUSH1 0x1F DUP4 ADD SLT PUSH2 0x150D JUMPI PUSH1 0x0 DUP1 REVERT JUMPDEST DUP2 CALLDATALOAD DUP2 DUP2 GT ISZERO PUSH2 0x151C JUMPI PUSH1 0x0 DUP1 REVERT JUMPDEST DUP10 PUSH1 0x20 DUP3 DUP6 ADD ADD GT ISZERO PUSH2 0x152E JUMPI PUSH1 0x0 DUP1 REVERT JUMPDEST SWAP7 SWAP10 SWAP6 SWAP9 POP SWAP4 SWAP7 POP PUSH1 0x20 ADD SWAP5 SWAP4 SWAP3 POP POP POP JUMP JUMPDEST PUSH1 0x0 PUSH1 0x20 DUP1 DUP4 DUP6 SUB SLT ISZERO PUSH2 0x1554 JUMPI PUSH1 0x0 DUP1 REVERT JUMPDEST DUP3 MLOAD PUSH8 0xFFFFFFFFFFFFFFFF DUP2 GT ISZERO PUSH2 0x156B JUMPI PUSH1 0x0 DUP1 REVERT JUMPDEST DUP4 ADD PUSH1 0x1F DUP2 ADD DUP6 SGT PUSH2 0x157C JUMPI PUSH1 0x0 DUP1 REVERT JUMPDEST DUP1 MLOAD PUSH2 0x158A PUSH2 0x13EC DUP3 PUSH2 0x1947 JUMP JUMPDEST DUP1 DUP3 DUP3 MSTORE DUP5 DUP3 ADD SWAP2 POP DUP5 DUP5 ADD DUP9 DUP7 DUP6 PUSH1 0x5 SHL DUP8 ADD ADD GT ISZERO PUSH2 0x15AA JUMPI PUSH1 0x0 DUP1 REVERT JUMPDEST PUSH1 0x0 SWAP5 POP JUMPDEST DUP4 DUP6 LT ISZERO PUSH2 0x15CD JUMPI DUP1 MLOAD DUP4 MSTORE PUSH1 0x1 SWAP5 SWAP1 SWAP5 ADD SWAP4 SWAP2 DUP6 ADD SWAP2 DUP6 ADD PUSH2 0x15AF JUMP JUMPDEST POP SWAP8 SWAP7 POP POP POP POP POP POP POP JUMP JUMPDEST PUSH1 0x0 PUSH1 0x20 DUP3 DUP5 SUB SLT ISZERO PUSH2 0x15EB JUMPI PUSH1 0x0 DUP1 REVERT JUMPDEST DUP2 MLOAD DUP1 ISZERO ISZERO DUP2 EQ PUSH2 0x1373 JUMPI PUSH1 0x0 DUP1 REVERT JUMPDEST PUSH1 0x0 DUP1 PUSH1 0x0 PUSH1 0x60 DUP5 DUP7 SUB SLT ISZERO PUSH2 0x1610 JUMPI PUSH1 0x0 DUP1 REVERT JUMPDEST PUSH2 0x1619 DUP5 PUSH2 0x1446 JUMP JUMPDEST SWAP3 POP PUSH2 0x1627 PUSH1 0x20 DUP6 ADD PUSH2 0x1446 JUMP JUMPDEST SWAP2 POP PUSH1 0x40 DUP5 ADD MLOAD PUSH4 0xFFFFFFFF DUP2 AND DUP2 EQ PUSH2 0x1640 JUMPI PUSH1 0x0 DUP1 REVERT JUMPDEST DUP1 SWAP2 POP POP SWAP3 POP SWAP3 POP SWAP3 JUMP JUMPDEST PUSH1 0x0 DUP1 PUSH1 0x0 DUP1 PUSH1 0x0 DUP1 PUSH1 0xC0 DUP8 DUP10 SUB SLT ISZERO PUSH2 0x1664 JUMPI PUSH1 0x0 DUP1 REVERT JUMPDEST DUP7 CALLDATALOAD SWAP6 POP PUSH1 0x20 DUP8 ADD CALLDATALOAD PUSH2 0x1676 DUP2 PUSH2 0x1A38 JUMP JUMPDEST SWAP5 POP PUSH1 0x40 DUP8 ADD CALLDATALOAD PUSH8 0xFFFFFFFFFFFFFFFF DUP1 DUP3 GT ISZERO PUSH2 0x1693 JUMPI PUSH1 0x0 DUP1 REVERT JUMPDEST PUSH2 0x169F DUP11 DUP4 DUP12 ADD PUSH2 0x13CB JUMP JUMPDEST SWAP6 POP PUSH1 0x60 DUP10 ADD CALLDATALOAD SWAP2 POP DUP1 DUP3 GT ISZERO PUSH2 0x16B5 JUMPI PUSH1 0x0 DUP1 REVERT JUMPDEST PUSH2 0x16C1 DUP11 DUP4 DUP12 ADD PUSH2 0x13CB JUMP JUMPDEST SWAP5 POP PUSH1 0x80 DUP10 ADD CALLDATALOAD SWAP2 POP DUP1 DUP3 GT ISZERO PUSH2 0x16D7 JUMPI PUSH1 0x0 DUP1 REVERT JUMPDEST POP PUSH2 0x16E4 DUP10 DUP3 DUP11 ADD PUSH2 0x13CB JUMP JUMPDEST SWAP3 POP POP PUSH1 0xA0 DUP8 ADD CALLDATALOAD SWAP1 POP SWAP3 SWAP6 POP SWAP3 SWAP6 POP SWAP3 SWAP6 JUMP JUMPDEST PUSH1 0x0 DUP1 PUSH1 0x0 DUP1 PUSH1 0x0 DUP1 PUSH1 0x0 DUP1 PUSH1 0x0 PUSH1 0xC0 DUP11 DUP13 SUB SLT ISZERO PUSH2 0x1716 JUMPI PUSH1 0x0 DUP1 REVERT JUMPDEST DUP10 CALLDATALOAD SWAP9 POP PUSH1 0x20 DUP11 ADD CALLDATALOAD PUSH2 0x1728 DUP2 PUSH2 0x1A38 JUMP JUMPDEST SWAP8 POP PUSH1 0x40 DUP11 ADD CALLDATALOAD PUSH8 0xFFFFFFFFFFFFFFFF DUP1 DUP3 GT ISZERO PUSH2 0x1745 JUMPI PUSH1 0x0 DUP1 REVERT JUMPDEST PUSH2 0x1751 DUP14 DUP4 DUP15 ADD PUSH2 0x1386 JUMP JUMPDEST SWAP1 SWAP10 POP SWAP8 POP PUSH1 0x60 DUP13 ADD CALLDATALOAD SWAP2 POP DUP1 DUP3 GT ISZERO PUSH2 0x176A JUMPI PUSH1 0x0 DUP1 REVERT JUMPDEST PUSH2 0x1776 DUP14 DUP4 DUP15 ADD PUSH2 0x1386 JUMP JUMPDEST SWAP1 SWAP8 POP SWAP6 POP PUSH1 0x80 DUP13 ADD CALLDATALOAD SWAP2 POP DUP1 DUP3 GT ISZERO PUSH2 0x178F JUMPI PUSH1 0x0 DUP1 REVERT JUMPDEST POP PUSH2 0x179C DUP13 DUP3 DUP14 ADD PUSH2 0x1386 JUMP JUMPDEST SWAP11 SWAP14 SWAP10 SWAP13 POP SWAP8 SWAP11 SWAP7 SWAP10 SWAP6 SWAP9 SWAP5 SWAP8 SWAP7 PUSH1 0xA0 ADD CALLDATALOAD SWAP5 SWAP4 POP POP POP POP JUMP JUMPDEST PUSH1 0x0 DUP1 PUSH1 0x0 PUSH1 0x60 DUP5 DUP7 SUB SLT ISZERO PUSH2 0x17CB JUMPI PUSH1 0x0 DUP1 REVERT JUMPDEST DUP4 MLOAD SWAP3 POP PUSH1 0x20 DUP5 ADD MLOAD SWAP2 POP PUSH1 0x40 DUP5 ADD MLOAD SWAP1 POP SWAP3 POP SWAP3 POP SWAP3 JUMP JUMPDEST DUP2 DUP4 MSTORE PUSH1 0x0 PUSH1 0x20 DUP1 DUP6 ADD SWAP5 POP DUP3 PUSH1 0x0 JUMPDEST DUP6 DUP2 LT ISZERO PUSH2 0x1822 JUMPI DUP2 CALLDATALOAD PUSH2 0x1807 DUP2 PUSH2 0x1A38 JUMP JUMPDEST PUSH1 0x1 PUSH1 0x1 PUSH1 0xA0 SHL SUB AND DUP8 MSTORE SWAP6 DUP3 ADD SWAP6 SWAP1 DUP3 ADD SWAP1 PUSH1 0x1 ADD PUSH2 0x17F4 JUMP JUMPDEST POP SWAP5 SWAP6 SWAP5 POP POP POP POP POP JUMP JUMPDEST PUSH1 0x20 DUP1 DUP3 MSTORE DUP2 DUP2 ADD MSTORE PUSH32 0x4F776E61626C653A2063616C6C6572206973206E6F7420746865206F776E6572 PUSH1 0x40 DUP3 ADD MSTORE PUSH1 0x60 ADD SWAP1 JUMP JUMPDEST DUP10 DUP2 MSTORE PUSH1 0x1 PUSH1 0x1 PUSH1 0xA0 SHL SUB DUP10 AND PUSH1 0x20 DUP3 ADD MSTORE PUSH1 0xC0 PUSH1 0x40 DUP3 ADD DUP2 SWAP1 MSTORE PUSH1 0x0 SWAP1 PUSH2 0x188D SWAP1 DUP4 ADD DUP10 DUP12 PUSH2 0x17E4 JUMP JUMPDEST DUP3 DUP2 SUB PUSH1 0x60 DUP5 ADD MSTORE PUSH2 0x18A0 DUP2 DUP9 DUP11 PUSH2 0x17E4 JUMP JUMPDEST SWAP1 POP DUP3 DUP2 SUB PUSH1 0x80 DUP5 ADD MSTORE PUSH2 0x18B5 DUP2 DUP7 DUP9 PUSH2 0x17E4 JUMP JUMPDEST SWAP2 POP POP DUP3 PUSH1 0xA0 DUP4 ADD MSTORE SWAP11 SWAP10 POP POP POP POP POP POP POP POP POP POP JUMP JUMPDEST PUSH1 0x0 PUSH1 0x40 DUP3 ADD DUP5 DUP4 MSTORE PUSH1 0x20 PUSH1 0x40 DUP2 DUP6 ADD MSTORE DUP2 DUP6 MLOAD DUP1 DUP5 MSTORE PUSH1 0x60 DUP7 ADD SWAP2 POP DUP3 DUP8 ADD SWAP4 POP PUSH1 0x0 JUMPDEST DUP2 DUP2 LT ISZERO PUSH2 0x1439 JUMPI DUP5 MLOAD PUSH1 0x1 PUSH1 0x1 PUSH1 0xA0 SHL SUB AND DUP4 MSTORE SWAP4 DUP4 ADD SWAP4 SWAP2 DUP4 ADD SWAP2 PUSH1 0x1 ADD PUSH2 0x18F1 JUMP JUMPDEST PUSH1 0x40 MLOAD PUSH1 0x1F DUP3 ADD PUSH1 0x1F NOT AND DUP2 ADD PUSH8 0xFFFFFFFFFFFFFFFF DUP2 GT DUP3 DUP3 LT OR ISZERO PUSH2 0x193F JUMPI PUSH2 0x193F PUSH2 0x1A22 JUMP JUMPDEST PUSH1 0x40 MSTORE SWAP2 SWAP1 POP JUMP JUMPDEST PUSH1 0x0 PUSH8 0xFFFFFFFFFFFFFFFF DUP3 GT ISZERO PUSH2 0x1961 JUMPI PUSH2 0x1961 PUSH2 0x1A22 JUMP JUMPDEST POP PUSH1 0x5 SHL PUSH1 0x20 ADD SWAP1 JUMP JUMPDEST PUSH1 0x0 DUP3 NOT DUP3 GT ISZERO PUSH2 0x197E JUMPI PUSH2 0x197E PUSH2 0x19F6 JUMP JUMPDEST POP ADD SWAP1 JUMP JUMPDEST PUSH1 0x0 DUP3 PUSH2 0x19A0 JUMPI PUSH4 0x4E487B71 PUSH1 0xE0 SHL PUSH1 0x0 MSTORE PUSH1 0x12 PUSH1 0x4 MSTORE PUSH1 0x24 PUSH1 0x0 REVERT JUMPDEST POP DIV SWAP1 JUMP JUMPDEST PUSH1 0x0 DUP2 PUSH1 0x0 NOT DIV DUP4 GT DUP3 ISZERO ISZERO AND ISZERO PUSH2 0x19BF JUMPI PUSH2 0x19BF PUSH2 0x19F6 JUMP JUMPDEST POP MUL SWAP1 JUMP JUMPDEST PUSH1 0x0 DUP3 DUP3 LT ISZERO PUSH2 0x19D6 JUMPI PUSH2 0x19D6 PUSH2 0x19F6 JUMP JUMPDEST POP SUB SWAP1 JUMP JUMPDEST PUSH1 0x0 PUSH1 0x0 NOT DUP3 EQ ISZERO PUSH2 0x19EF JUMPI PUSH2 0x19EF PUSH2 0x19F6 JUMP JUMPDEST POP PUSH1 0x1 ADD SWAP1 JUMP JUMPDEST PUSH4 0x4E487B71 PUSH1 0xE0 SHL PUSH1 0x0 MSTORE PUSH1 0x11 PUSH1 0x4 MSTORE PUSH1 0x24 PUSH1 0x0 REVERT JUMPDEST PUSH4 0x4E487B71 PUSH1 0xE0 SHL PUSH1 0x0 MSTORE PUSH1 0x32 PUSH1 0x4 MSTORE PUSH1 0x24 PUSH1 0x0 REVERT JUMPDEST PUSH4 0x4E487B71 PUSH1 0xE0 SHL PUSH1 0x0 MSTORE PUSH1 0x41 PUSH1 0x4 MSTORE PUSH1 0x24 PUSH1 0x0 REVERT JUMPDEST PUSH1 0x1 PUSH1 0x1 PUSH1 0xA0 SHL SUB DUP2 AND DUP2 EQ PUSH2 0xC63 JUMPI PUSH1 0x0 DUP1 REVERT INVALID LOG2 PUSH5 0x6970667358 0x22 SLT KECCAK256 0x2F 0x5C LOG2 SWAP14 INVALID DUP10 0xEC CREATE2 DUP13 DUP2 0xBC PUSH9 0xCF894B5CBE36714C0D 0xB0 0xC7 DUP14 SWAP4 RETURNDATACOPY SWAP8 ISZERO PUSH32 0x32AAC764736F6C63430008070033000000000000000000000000000000000000 "
		},
		"gasEstimates": {
			"creation": {
				"codeDepositCost": "1357400",
				"executionCost": "27258",
				"totalCost": "1384658"
			},
			"external": {
				"depositOneBNB()": "infinite",
				"owner()": "2359",
				"pancakeCall(address,uint256,uint256,bytes)": "infinite",
				"qingsuan(uint256,address,address[],address[],address[],uint256)": "infinite",
				"renounceOwnership()": "28137",
				"swapOneWBNBToBUSD1()": "infinite",
				"swapOneWBNBToBUSD2()": "infinite",
				"transferOwnership(address)": "infinite",
				"withdraw(address,uint256)": "infinite"
			},
			"internal": {
				"_swap(uint256[] memory,address[] memory,address)": "infinite",
				"chainSwapExactIn(uint256,address[] memory,address)": "infinite",
				"chainSwapExactOut(uint256,address[] memory,address)": "infinite",
				"isStableCoin(address)": "infinite",
				"isVBNB(address)": "infinite"
			}
		},
		"methodIdentifiers": {
			"depositOneBNB()": "b2c8dfdb",
			"owner()": "8da5cb5b",
			"pancakeCall(address,uint256,uint256,bytes)": "84800812",
			"qingsuan(uint256,address,address[],address[],address[],uint256)": "b14e9a72",
			"renounceOwnership()": "715018a6",
			"swapOneWBNBToBUSD1()": "09c038c4",
			"swapOneWBNBToBUSD2()": "e630b99c",
			"transferOwnership(address)": "f2fde38b",
			"withdraw(address,uint256)": "f3fef3a3"
		}
	},
	"abi": [
		{
			"inputs": [],
			"stateMutability": "nonpayable",
			"type": "constructor"
		},
		{
			"anonymous": false,
			"inputs": [
				{
					"indexed": false,
					"internalType": "uint256",
					"name": "",
					"type": "uint256"
				},
				{
					"indexed": false,
					"internalType": "address",
					"name": "",
					"type": "address"
				},
				{
					"indexed": false,
					"internalType": "address[]",
					"name": "",
					"type": "address[]"
				},
				{
					"indexed": false,
					"internalType": "address[]",
					"name": "",
					"type": "address[]"
				},
				{
					"indexed": false,
					"internalType": "address[]",
					"name": "",
					"type": "address[]"
				},
				{
					"indexed": false,
					"internalType": "uint256",
					"name": "",
					"type": "uint256"
				}
			],
			"name": "Debug1",
			"type": "event"
		},
		{
			"anonymous": false,
			"inputs": [
				{
					"indexed": true,
					"internalType": "address",
					"name": "previousOwner",
					"type": "address"
				},
				{
					"indexed": true,
					"internalType": "address",
					"name": "newOwner",
					"type": "address"
				}
			],
			"name": "OwnershipTransferred",
			"type": "event"
		},
		{
			"anonymous": false,
			"inputs": [
				{
					"indexed": false,
					"internalType": "uint256",
					"name": "scenarioNo",
					"type": "uint256"
				},
				{
					"indexed": false,
					"internalType": "address",
					"name": "repayUnderlyingToken",
					"type": "address"
				},
				{
					"indexed": false,
					"internalType": "uint256",
					"name": "repayAmount",
					"type": "uint256"
				},
				{
					"indexed": false,
					"internalType": "address",
					"name": "seizedUnderlyingToken",
					"type": "address"
				},
				{
					"indexed": false,
					"internalType": "uint256",
					"name": "flashLoanReturnAmount",
					"type": "uint256"
				},
				{
					"indexed": false,
					"internalType": "uint256",
					"name": "seizedUnderlyingAmount",
					"type": "uint256"
				},
				{
					"indexed": false,
					"internalType": "uint256",
					"name": "massProfit",
					"type": "uint256"
				}
			],
			"name": "Scenario",
			"type": "event"
		},
		{
			"anonymous": false,
			"inputs": [
				{
					"indexed": false,
					"internalType": "uint256",
					"name": "",
					"type": "uint256"
				},
				{
					"indexed": false,
					"internalType": "uint256",
					"name": "",
					"type": "uint256"
				}
			],
			"name": "SwapOneWBNBToUSDT",
			"type": "event"
		},
		{
			"inputs": [],
			"name": "depositOneBNB",
			"outputs": [],
			"stateMutability": "nonpayable",
			"type": "function"
		},
		{
			"inputs": [],
			"name": "owner",
			"outputs": [
				{
					"internalType": "address",
					"name": "",
					"type": "address"
				}
			],
			"stateMutability": "view",
			"type": "function"
		},
		{
			"inputs": [
				{
					"internalType": "address",
					"name": "_sender",
					"type": "address"
				},
				{
					"internalType": "uint256",
					"name": "_amount0",
					"type": "uint256"
				},
				{
					"internalType": "uint256",
					"name": "_amount1",
					"type": "uint256"
				},
				{
					"internalType": "bytes",
					"name": "_data",
					"type": "bytes"
				}
			],
			"name": "pancakeCall",
			"outputs": [],
			"stateMutability": "nonpayable",
			"type": "function"
		},
		{
			"inputs": [
				{
					"internalType": "uint256",
					"name": "_situation",
					"type": "uint256"
				},
				{
					"internalType": "address",
					"name": "_flashLoanFrom",
					"type": "address"
				},
				{
					"internalType": "address[]",
					"name": "_path1",
					"type": "address[]"
				},
				{
					"internalType": "address[]",
					"name": "_path2",
					"type": "address[]"
				},
				{
					"internalType": "address[]",
					"name": "_tokens",
					"type": "address[]"
				},
				{
					"internalType": "uint256",
					"name": "_flashLoanAmount",
					"type": "uint256"
				}
			],
			"name": "qingsuan",
			"outputs": [],
			"stateMutability": "nonpayable",
			"type": "function"
		},
		{
			"inputs": [],
			"name": "renounceOwnership",
			"outputs": [],
			"stateMutability": "nonpayable",
			"type": "function"
		},
		{
			"inputs": [],
			"name": "swapOneWBNBToBUSD1",
			"outputs": [],
			"stateMutability": "nonpayable",
			"type": "function"
		},
		{
			"inputs": [],
			"name": "swapOneWBNBToBUSD2",
			"outputs": [],
			"stateMutability": "nonpayable",
			"type": "function"
		},
		{
			"inputs": [
				{
					"internalType": "address",
					"name": "newOwner",
					"type": "address"
				}
			],
			"name": "transferOwnership",
			"outputs": [],
			"stateMutability": "nonpayable",
			"type": "function"
		},
		{
			"inputs": [
				{
					"internalType": "address",
					"name": "_token",
					"type": "address"
				},
				{
					"internalType": "uint256",
					"name": "_amount",
					"type": "uint256"
				}
			],
			"name": "withdraw",
			"outputs": [],
			"stateMutability": "nonpayable",
			"type": "function"
		},
		{
			"stateMutability": "payable",
			"type": "receive"
		}
	]
}