{
	"data": {
		"bytecode": {
			"linkReferences": {},
			"object": "608060405234801561001057600080fd5b5061572280620000216000396000f3fe608060405234801561001057600080fd5b50600436106100365760003560e01c8063848008121461003b578063b14e9a7214610050575b600080fd5b61004e6100493660046151b1565b610063565b005b61004e61005e36600461537f565b61424e565b6100ee604051806101e001604052806000815260200160006001600160a01b03168152602001606081526020016060815260200160608152602001600081526020016000815260200160006001600160a01b03168152602001600081526020016000815260200160008152602001600081526020016000815260200160008152602001600081525090565b6100fa828401846152d2565b60a08701526080860152606085015260408401526001600160a01b031660208301819052908252331461015c5760405162461bcd60e51b815260206004820152600560248201526410b830b4b960d91b60448201526064015b60405180910390fd5b6001600160a01b038616301461019e5760405162461bcd60e51b815260206004820152600760248201526610b9b2b73232b960c91b6044820152606401610153565b6126f78160a0015160196101b2919061562a565b6101bc9190615608565b8160a001516101cb91906155f0565b6101d69060016155f0565b60c08201526080810151805160049081106101f3576101f36156a8565b60209081029190910101516001600160a01b031660e082015260808101518051600091908290610225576102256156a8565b6020026020010151905060008260800151600181518110610248576102486156a8565b602002602001015190506000836080015160038151811061026b5761026b6156a8565b602002602001015190506000846080015160028151811061028e5761028e6156a8565b602002602001015190506060856000015160011415610851576040860151511580156102bd5750606086015151155b6102f55760405162461bcd60e51b81526020600482015260096024820152681896b830ba3432b93960b91b6044820152606401610153565b61031c866080015160008151811061030f5761030f6156a8565b6020026020010151614500565b61035c5760405162461bcd60e51b81526020600482015260116024820152701896b737ba1039ba30b136329031b7b4b760791b6044820152606401610153565b8560800151600181518110610373576103736156a8565b60200260200101516001600160a01b0316866080015160008151811061039b5761039b6156a8565b60200260200101516001600160a01b0316146103ec5760405162461bcd60e51b815260206004820152601060248201526f1896903737ba1039b0b6b29031b7b4b760811b6044820152606401610153565b6040516370a0823160e01b81523060048201526001600160a01b038516906370a082319060240160206040518083038186803b15801561042b57600080fd5b505afa15801561043f573d6000803e3d6000fd5b505050506040513d601f19601f8201168201806040525081019061046391906152b9565b61010087015260e086015160a0870151604051637af1e23160e11b81526001600160a01b0388169263f5e3c4629261049f9289906004016154aa565b602060405180830381600087803b1580156104b957600080fd5b505af11580156104cd573d6000803e3d6000fd5b505050506040513d601f19601f820116820180604052508101906104f191906152b9565b1561053e5760405162461bcd60e51b815260206004820152601860248201527f312d6c6971756964617465426f72726f77206572726f722000000000000000006044820152606401610153565b6040516370a0823160e01b81523060048201526001600160a01b038516906370a082319060240160206040518083038186803b15801561057d57600080fd5b505afa158015610591573d6000803e3d6000fd5b505050506040513d601f19601f820116820180604052508101906105b591906152b9565b61012087018190526101008701516105cc91615649565b61014087018190526106205760405162461bcd60e51b815260206004820152601e60248201527f312d7365697a65642076746f6b656e20616d6f756e74206973207a65726f00006044820152606401610153565b6040516370a0823160e01b81523060048201526001600160a01b038316906370a082319060240160206040518083038186803b15801561065f57600080fd5b505afa158015610673573d6000803e3d6000fd5b505050506040513d601f19601f8201168201806040525081019061069791906152b9565b61016087015261014086015160405163db006a7560e01b815260048101919091526001600160a01b0385169063db006a7590602401602060405180830381600087803b1580156106e657600080fd5b505af11580156106fa573d6000803e3d6000fd5b505050506040513d601f19601f8201168201806040525081019061071e91906152b9565b1561075c5760405162461bcd60e51b815260206004820152600e60248201526d1896b932b232b2b69032b93937b960911b6044820152606401610153565b6040516370a0823160e01b81523060048201526001600160a01b038316906370a082319060240160206040518083038186803b15801561079b57600080fd5b505afa1580156107af573d6000803e3d6000fd5b505050506040513d601f19601f820116820180604052508101906107d391906152b9565b61018087018190526101608701516107ea91615649565b6101a0870181905260c0870151106108315760405162461bcd60e51b815260206004820152600a602482015269312d6e6f20657874726160b01b6044820152606401610153565b8560c00151866101a001516108469190615649565b6101c0870152614126565b8551600214156111f057604086015151158015610872575060608601515115155b6108ac5760405162461bcd60e51b815260206004820152600b60248201526a19171896b830ba3432b93960a91b6044820152606401610153565b6108f086608001516000815181106108c6576108c66156a8565b60200260200101516001600160a01b031673a07c5b74c9b40447a954e1466938b865b6bbea361490565b15610d905760a0860151604051632e1a7d4d60e01b8152600481019190915273bb4cdb9cbd36b01bd1cbaebf2de08d9173bc095c90632e1a7d4d90602401600060405180830381600087803b15801561094857600080fd5b505af115801561095c573d6000803e3d6000fd5b50506040516370a0823160e01b81523060048201526001600160a01b03871692506370a08231915060240160206040518083038186803b15801561099f57600080fd5b505afa1580156109b3573d6000803e3d6000fd5b505050506040513d601f19601f820116820180604052508101906109d791906152b9565b610100870152608086015180516000906109f3576109f36156a8565b60200260200101516001600160a01b031663aae40a2a8760a001518860e001518960800151600181518110610a2a57610a2a6156a8565b60200260200101516040518463ffffffff1660e01b8152600401610a649291906001600160a01b0392831681529116602082015260400190565b6000604051808303818588803b158015610a7d57600080fd5b505af1158015610a91573d6000803e3d6000fd5b50506040516370a0823160e01b81523060048201526001600160a01b03881693506370a082319250602401905060206040518083038186803b158015610ad657600080fd5b505afa158015610aea573d6000803e3d6000fd5b505050506040513d601f19601f82011682018060405250810190610b0e91906152b9565b6101208701819052610100870151610b2591615649565b6101408701819052610b795760405162461bcd60e51b815260206004820181905260248201527f322e312d7365697a65642076746f6b656e20616d6f756e74206973207a65726f6044820152606401610153565b47610160870152608086015180516001908110610b9857610b986156a8565b60200260200101516001600160a01b031663db006a758761014001516040518263ffffffff1660e01b8152600401610bd291815260200190565b602060405180830381600087803b158015610bec57600080fd5b505af1158015610c00573d6000803e3d6000fd5b505050506040513d601f19601f82011682018060405250810190610c2491906152b9565b15610c615760405162461bcd60e51b815260206004820152600d60248201526c19171896b932b232b2b6b2b93960991b6044820152606401610153565b476101808701819052610160870151610c7991615649565b6101a0870181905260c087015110610cc25760405162461bcd60e51b815260206004820152600c60248201526b322e312d6e6f2d657874726160a01b6044820152606401610153565b73bb4cdb9cbd36b01bd1cbaebf2de08d9173bc095c6001600160a01b031663d0e30db0876101a001516040518263ffffffff1660e01b81526004016000604051808303818588803b158015610d1657600080fd5b505af1158015610d2a573d6000803e3d6000fd5b505050505060008660c00151876101a00151610d469190615649565b9050610d5781886060015130614576565b91508160018351610d689190615649565b81518110610d7857610d786156a8565b6020026020010151876101c001818152505050614126565b6040516370a0823160e01b81523060048201526001600160a01b038516906370a082319060240160206040518083038186803b158015610dcf57600080fd5b505afa158015610de3573d6000803e3d6000fd5b505050506040513d601f19601f82011682018060405250810190610e0791906152b9565b61010087015260e086015160a0870151604051637af1e23160e11b81526001600160a01b0388169263f5e3c46292610e439289906004016154aa565b602060405180830381600087803b158015610e5d57600080fd5b505af1158015610e71573d6000803e3d6000fd5b505050506040513d601f19601f82011682018060405250810190610e9591906152b9565b15610ee25760405162461bcd60e51b815260206004820152601a60248201527f322e322d6c6971756964617465426f72726f77206572726f72200000000000006044820152606401610153565b6040516370a0823160e01b81523060048201526001600160a01b038516906370a082319060240160206040518083038186803b158015610f2157600080fd5b505afa158015610f35573d6000803e3d6000fd5b505050506040513d601f19601f82011682018060405250810190610f5991906152b9565b6101208701819052610100870151610f7091615649565b6101408701819052610fc45760405162461bcd60e51b815260206004820181905260248201527f322e322d7365697a65642076746f6b656e20616d6f756e74206973207a65726f6044820152606401610153565b6040516370a0823160e01b81523060048201526001600160a01b038316906370a082319060240160206040518083038186803b15801561100357600080fd5b505afa158015611017573d6000803e3d6000fd5b505050506040513d601f19601f8201168201806040525081019061103b91906152b9565b61016087015261014086015160405163db006a7560e01b815260048101919091526001600160a01b0385169063db006a7590602401602060405180830381600087803b15801561108a57600080fd5b505af115801561109e573d6000803e3d6000fd5b505050506040513d601f19601f820116820180604052508101906110c291906152b9565b156111025760405162461bcd60e51b815260206004820152601060248201526f19171916b932b232b2b69032b93937b960811b6044820152606401610153565b6040516370a0823160e01b81523060048201526001600160a01b038316906370a082319060240160206040518083038186803b15801561114157600080fd5b505afa158015611155573d6000803e3d6000fd5b505050506040513d601f19601f8201168201806040525081019061117991906152b9565b610180870181905261016087015161119091615649565b6101a0870181905260c0870151106111d95760405162461bcd60e51b815260206004820152600c60248201526b322e322d6e6f20657874726160a01b6044820152606401610153565b60008660c00151876101a00151610d469190615649565b855160031415611bf957611214866080015160018151811061030f5761030f6156a8565b61126a5760405162461bcd60e51b815260206004820152602160248201527f332d7365697a656420746f6b656e206973206e6f7420737461626c6520636f696044820152603760f91b6064820152608401610153565b61128486608001516000815181106108c6576108c66156a8565b1561177b5760a0860151604051632e1a7d4d60e01b8152600481019190915273bb4cdb9cbd36b01bd1cbaebf2de08d9173bc095c90632e1a7d4d90602401600060405180830381600087803b1580156112dc57600080fd5b505af11580156112f0573d6000803e3d6000fd5b50506040516370a0823160e01b81523060048201526001600160a01b03871692506370a08231915060240160206040518083038186803b15801561133357600080fd5b505afa158015611347573d6000803e3d6000fd5b505050506040513d601f19601f8201168201806040525081019061136b91906152b9565b61010087015260808601518051600090611387576113876156a8565b60200260200101516001600160a01b031663aae40a2a8760a001518860e0015189608001516001815181106113be576113be6156a8565b60200260200101516040518463ffffffff1660e01b81526004016113f89291906001600160a01b0392831681529116602082015260400190565b6000604051808303818588803b15801561141157600080fd5b505af1158015611425573d6000803e3d6000fd5b50506040516370a0823160e01b81523060048201526001600160a01b03881693506370a082319250602401905060206040518083038186803b15801561146a57600080fd5b505afa15801561147e573d6000803e3d6000fd5b505050506040513d601f19601f820116820180604052508101906114a291906152b9565b61012087018190526101008701516114b991615649565b610140870181905261150d5760405162461bcd60e51b815260206004820181905260248201527f332e312d7365697a65642076746f6b656e20616d6f756e74206973207a65726f6044820152606401610153565b6040516370a0823160e01b81523060048201526001600160a01b038316906370a082319060240160206040518083038186803b15801561154c57600080fd5b505afa158015611560573d6000803e3d6000fd5b505050506040513d601f19601f8201168201806040525081019061158491906152b9565b61016087015261014086015160405163db006a7560e01b815260048101919091526001600160a01b0385169063db006a7590602401602060405180830381600087803b1580156115d357600080fd5b505af11580156115e7573d6000803e3d6000fd5b505050506040513d601f19601f8201168201806040525081019061160b91906152b9565b156116485760405162461bcd60e51b815260206004820152600d60248201526c19971896b932b232b2b6b2b93960991b6044820152606401610153565b6040516370a0823160e01b81523060048201526001600160a01b038316906370a082319060240160206040518083038186803b15801561168757600080fd5b505afa15801561169b573d6000803e3d6000fd5b505050506040513d601f19601f820116820180604052508101906116bf91906152b9565b61018087018190526101608701516116d691615649565b6101a087015260c086015160408701516116f19190306146c6565b905080600081518110611706576117066156a8565b6020026020010151866101a00151116117505760405162461bcd60e51b815260206004820152600c60248201526b332e312d6e6f2d657874726160a01b6044820152606401610153565b80600081518110611763576117636156a8565b6020026020010151866101a001516108469190615649565b6040516370a0823160e01b81523060048201526001600160a01b038516906370a082319060240160206040518083038186803b1580156117ba57600080fd5b505afa1580156117ce573d6000803e3d6000fd5b505050506040513d601f19601f820116820180604052508101906117f291906152b9565b61010087015260e086015160a0870151604051637af1e23160e11b81526001600160a01b0388169263f5e3c4629261182e9289906004016154aa565b602060405180830381600087803b15801561184857600080fd5b505af115801561185c573d6000803e3d6000fd5b505050506040513d601f19601f8201168201806040525081019061188091906152b9565b156118cd5760405162461bcd60e51b815260206004820152601a60248201527f332e322d6c6971756964617465426f72726f77206572726f72200000000000006044820152606401610153565b6040516370a0823160e01b81523060048201526001600160a01b038516906370a082319060240160206040518083038186803b15801561190c57600080fd5b505afa158015611920573d6000803e3d6000fd5b505050506040513d601f19601f8201168201806040525081019061194491906152b9565b610120870181905261010087015161195b91615649565b61014087018190526119af5760405162461bcd60e51b815260206004820181905260248201527f332e322d7365697a65642076746f6b656e20616d6f756e74206973207a65726f6044820152606401610153565b6040516370a0823160e01b81523060048201526001600160a01b038316906370a082319060240160206040518083038186803b1580156119ee57600080fd5b505afa158015611a02573d6000803e3d6000fd5b505050506040513d601f19601f82011682018060405250810190611a2691906152b9565b61016087015261014086015160405163db006a7560e01b815260048101919091526001600160a01b0385169063db006a7590602401602060405180830381600087803b158015611a7557600080fd5b505af1158015611a89573d6000803e3d6000fd5b505050506040513d601f19601f82011682018060405250810190611aad91906152b9565b15611aed5760405162461bcd60e51b815260206004820152601060248201526f19971916b932b232b2b69032b93937b960811b6044820152606401610153565b6040516370a0823160e01b81523060048201526001600160a01b038316906370a082319060240160206040518083038186803b158015611b2c57600080fd5b505afa158015611b40573d6000803e3d6000fd5b505050506040513d601f19601f82011682018060405250810190611b6491906152b9565b6101808701819052610160870151611b7b91615649565b6101a087015260c08601516040870151611b969190306146c6565b905080600081518110611bab57611bab6156a8565b6020026020010151866101a00151116117505760405162461bcd60e51b815260206004820152601060248201526f332e322d626e622d6e6f2d657874726160801b6044820152606401610153565b85516004141561255b57611c1d866080015160008151811061030f5761030f6156a8565b611c695760405162461bcd60e51b815260206004820152601f60248201527f342d7265706179546f6b656e206973206e6f7420737461626c6520636f696e006044820152606401610153565b611c8386608001516001815181106108c6576108c66156a8565b156120d4576040516370a0823160e01b81523060048201526001600160a01b038516906370a082319060240160206040518083038186803b158015611cc757600080fd5b505afa158015611cdb573d6000803e3d6000fd5b505050506040513d601f19601f82011682018060405250810190611cff91906152b9565b61010087015260e086015160a0870151604051637af1e23160e11b81526001600160a01b0388169263f5e3c46292611d3b9289906004016154aa565b602060405180830381600087803b158015611d5557600080fd5b505af1158015611d69573d6000803e3d6000fd5b505050506040513d601f19601f82011682018060405250810190611d8d91906152b9565b15611dda5760405162461bcd60e51b815260206004820152601a60248201527f342e312d6c6971756964617465426f72726f77206572726f72200000000000006044820152606401610153565b6040516370a0823160e01b81523060048201526001600160a01b038516906370a082319060240160206040518083038186803b158015611e1957600080fd5b505afa158015611e2d573d6000803e3d6000fd5b505050506040513d601f19601f82011682018060405250810190611e5191906152b9565b6101208701819052610100870151611e6891615649565b6101408701819052611ebc5760405162461bcd60e51b815260206004820181905260248201527f342e312d7365697a65642076746f6b656e20616d6f756e74206973207a65726f6044820152606401610153565b47610160870152608086015180516001908110611edb57611edb6156a8565b60200260200101516001600160a01b031663db006a758761014001516040518263ffffffff1660e01b8152600401611f1591815260200190565b602060405180830381600087803b158015611f2f57600080fd5b505af1158015611f43573d6000803e3d6000fd5b505050506040513d601f19601f82011682018060405250810190611f6791906152b9565b15611fa75760405162461bcd60e51b815260206004820152601060248201526f1a171896b932b232b2b69032b93937b960811b6044820152606401610153565b476101808701819052610160870151611fbf91615649565b866101a001818152505073bb4cdb9cbd36b01bd1cbaebf2de08d9173bc095c6001600160a01b031663d0e30db0876101a001516040518263ffffffff1660e01b81526004016000604051808303818588803b15801561201d57600080fd5b505af1158015612031573d6000803e3d6000fd5b505050505061204a866101a00151876040015130614576565b90506000816001835161205d9190615649565b8151811061206d5761206d6156a8565b602002602001015190508660c0015181116120b95760405162461bcd60e51b815260206004820152600c60248201526b342e312d6e6f20657874726160a01b6044820152606401610153565b60c08701516120c89082615649565b6101c088015250614126565b6040516370a0823160e01b81523060048201526001600160a01b038516906370a082319060240160206040518083038186803b15801561211357600080fd5b505afa158015612127573d6000803e3d6000fd5b505050506040513d601f19601f8201168201806040525081019061214b91906152b9565b61010087015260e086015160a0870151604051637af1e23160e11b81526001600160a01b0388169263f5e3c462926121879289906004016154aa565b602060405180830381600087803b1580156121a157600080fd5b505af11580156121b5573d6000803e3d6000fd5b505050506040513d601f19601f820116820180604052508101906121d991906152b9565b156122265760405162461bcd60e51b815260206004820152601a60248201527f342e322d6c6971756964617465426f72726f77206572726f72200000000000006044820152606401610153565b6040516370a0823160e01b81523060048201526001600160a01b038516906370a082319060240160206040518083038186803b15801561226557600080fd5b505afa158015612279573d6000803e3d6000fd5b505050506040513d601f19601f8201168201806040525081019061229d91906152b9565b61012087018190526101008701516122b491615649565b61014087018190526123085760405162461bcd60e51b815260206004820181905260248201527f342e322d7365697a65642076746f6b656e20616d6f756e74206973207a65726f6044820152606401610153565b6040516370a0823160e01b81523060048201526001600160a01b038316906370a082319060240160206040518083038186803b15801561234757600080fd5b505afa15801561235b573d6000803e3d6000fd5b505050506040513d601f19601f8201168201806040525081019061237f91906152b9565b61016087015261014086015160405163db006a7560e01b815260048101919091526001600160a01b0385169063db006a7590602401602060405180830381600087803b1580156123ce57600080fd5b505af11580156123e2573d6000803e3d6000fd5b505050506040513d601f19601f8201168201806040525081019061240691906152b9565b156124465760405162461bcd60e51b815260206004820152601060248201526f1a171916b932b232b2b69032b93937b960811b6044820152606401610153565b6040516370a0823160e01b81523060048201526001600160a01b038316906370a082319060240160206040518083038186803b15801561248557600080fd5b505afa158015612499573d6000803e3d6000fd5b505050506040513d601f19601f820116820180604052508101906124bd91906152b9565b61018087018190526101608701516124d491615649565b6101a0870181905260408701516124ec919030614576565b9050600081600183516124ff9190615649565b8151811061250f5761250f6156a8565b602002602001015190508660c0015181116120b95760405162461bcd60e51b815260206004820152600c60248201526b342e322d6e6f20657874726160a01b6044820152606401610153565b8551600514156132d55761257f86608001516000815181106108c6576108c66156a8565b15612a7b5760a0860151604051632e1a7d4d60e01b8152600481019190915273bb4cdb9cbd36b01bd1cbaebf2de08d9173bc095c90632e1a7d4d90602401600060405180830381600087803b1580156125d757600080fd5b505af11580156125eb573d6000803e3d6000fd5b50506040516370a0823160e01b81523060048201526001600160a01b03871692506370a08231915060240160206040518083038186803b15801561262e57600080fd5b505afa158015612642573d6000803e3d6000fd5b505050506040513d601f19601f8201168201806040525081019061266691906152b9565b61010087015260808601518051600090612682576126826156a8565b60200260200101516001600160a01b031663aae40a2a8760a001518860e0015189608001516001815181106126b9576126b96156a8565b60200260200101516040518463ffffffff1660e01b81526004016126f39291906001600160a01b0392831681529116602082015260400190565b6000604051808303818588803b15801561270c57600080fd5b505af1158015612720573d6000803e3d6000fd5b50506040516370a0823160e01b81523060048201526001600160a01b03881693506370a082319250602401905060206040518083038186803b15801561276557600080fd5b505afa158015612779573d6000803e3d6000fd5b505050506040513d601f19601f8201168201806040525081019061279d91906152b9565b61012087018190526101008701516127b491615649565b61014087018190526128085760405162461bcd60e51b815260206004820181905260248201527f352e312d7365697a65642076746f6b656e20616d6f756e74206973207a65726f6044820152606401610153565b6040516370a0823160e01b81523060048201526001600160a01b038316906370a082319060240160206040518083038186803b15801561284757600080fd5b505afa15801561285b573d6000803e3d6000fd5b505050506040513d601f19601f8201168201806040525081019061287f91906152b9565b61016087015261014086015160405163db006a7560e01b815260048101919091526001600160a01b0385169063db006a7590602401602060405180830381600087803b1580156128ce57600080fd5b505af11580156128e2573d6000803e3d6000fd5b505050506040513d601f19601f8201168201806040525081019061290691906152b9565b156129465760405162461bcd60e51b815260206004820152601060248201526f1a971896b932b232b2b69032b93937b960811b6044820152606401610153565b6040516370a0823160e01b81523060048201526001600160a01b038316906370a082319060240160206040518083038186803b15801561298557600080fd5b505afa158015612999573d6000803e3d6000fd5b505050506040513d601f19601f820116820180604052508101906129bd91906152b9565b61018087018190526101608701516129d491615649565b6101a087015260c086015160408701516129ef9190306146c6565b905080600081518110612a0457612a046156a8565b6020026020010151866101a0015111612a4e5760405162461bcd60e51b815260206004820152600c60248201526b352e312d6e6f20657874726160a01b6044820152606401610153565b600081600081518110612a6357612a636156a8565b6020026020010151876101a00151610d469190615649565b612a9586608001516001815181106108c6576108c66156a8565b15612e5b576040516370a0823160e01b81523060048201526001600160a01b038516906370a082319060240160206040518083038186803b158015612ad957600080fd5b505afa158015612aed573d6000803e3d6000fd5b505050506040513d601f19601f82011682018060405250810190612b1191906152b9565b61010087015260e086015160a0870151604051637af1e23160e11b81526001600160a01b0388169263f5e3c46292612b4d9289906004016154aa565b602060405180830381600087803b158015612b6757600080fd5b505af1158015612b7b573d6000803e3d6000fd5b505050506040513d601f19601f82011682018060405250810190612b9f91906152b9565b15612bec5760405162461bcd60e51b815260206004820152601960248201527f352e322d6c6971756964617465426f72726f77206572726f72000000000000006044820152606401610153565b6040516370a0823160e01b81523060048201526001600160a01b038516906370a082319060240160206040518083038186803b158015612c2b57600080fd5b505afa158015612c3f573d6000803e3d6000fd5b505050506040513d601f19601f82011682018060405250810190612c6391906152b9565b6101208701819052610100870151612c7a91615649565b6101408701819052612cce5760405162461bcd60e51b815260206004820181905260248201527f352e322d7365697a65642076746f6b656e20616d6f756e74206973207a65726f6044820152606401610153565b47610160870152608086015180516001908110612ced57612ced6156a8565b60200260200101516001600160a01b031663db006a758761014001516040518263ffffffff1660e01b8152600401612d2791815260200190565b602060405180830381600087803b158015612d4157600080fd5b505af1158015612d55573d6000803e3d6000fd5b505050506040513d601f19601f82011682018060405250810190612d7991906152b9565b15612db95760405162461bcd60e51b815260206004820152601060248201526f1a971916b932b232b2b69032b93937b960811b6044820152606401610153565b476101808701819052610160870151612dd191615649565b866101a001818152505073bb4cdb9cbd36b01bd1cbaebf2de08d9173bc095c6001600160a01b031663d0e30db0876101a001516040518263ffffffff1660e01b81526004016000604051808303818588803b158015612e2f57600080fd5b505af1158015612e43573d6000803e3d6000fd5b50505050506129ef8660c001518760400151306146c6565b6040516370a0823160e01b81523060048201526001600160a01b038516906370a082319060240160206040518083038186803b158015612e9a57600080fd5b505afa158015612eae573d6000803e3d6000fd5b505050506040513d601f19601f82011682018060405250810190612ed291906152b9565b61010087015260e086015160a0870151604051637af1e23160e11b81526001600160a01b0388169263f5e3c46292612f0e9289906004016154aa565b602060405180830381600087803b158015612f2857600080fd5b505af1158015612f3c573d6000803e3d6000fd5b505050506040513d601f19601f82011682018060405250810190612f6091906152b9565b15612fad5760405162461bcd60e51b815260206004820152601a60248201527f352e332d6c6971756964617465426f72726f77206572726f72200000000000006044820152606401610153565b6040516370a0823160e01b81523060048201526001600160a01b038516906370a082319060240160206040518083038186803b158015612fec57600080fd5b505afa158015613000573d6000803e3d6000fd5b505050506040513d601f19601f8201168201806040525081019061302491906152b9565b610120870181905261010087015161303b91615649565b610140870181905261308f5760405162461bcd60e51b815260206004820181905260248201527f352e332d7365697a65642076746f6b656e20616d6f756e74206973207a65726f6044820152606401610153565b6040516370a0823160e01b81523060048201526001600160a01b038316906370a082319060240160206040518083038186803b1580156130ce57600080fd5b505afa1580156130e2573d6000803e3d6000fd5b505050506040513d601f19601f8201168201806040525081019061310691906152b9565b61016087015261014086015160405163db006a7560e01b815260048101919091526001600160a01b0385169063db006a7590602401602060405180830381600087803b15801561315557600080fd5b505af1158015613169573d6000803e3d6000fd5b505050506040513d601f19601f8201168201806040525081019061318d91906152b9565b156131cd5760405162461bcd60e51b815260206004820152601060248201526f1a971996b932b232b2b69032b93937b960811b6044820152606401610153565b6040516370a0823160e01b81523060048201526001600160a01b038316906370a082319060240160206040518083038186803b15801561320c57600080fd5b505afa158015613220573d6000803e3d6000fd5b505050506040513d601f19601f8201168201806040525081019061324491906152b9565b610180870181905261016087015161325b91615649565b6101a087015260c086015160408701516132769190306146c6565b90508060008151811061328b5761328b6156a8565b6020026020010151866101a0015111612a4e5760405162461bcd60e51b815260206004820152600c60248201526b352e332d6e6f20657874726160a01b6044820152606401610153565b85516006141561383b576132f9866080015160018151811061030f5761030f6156a8565b6133455760405162461bcd60e51b815260206004820181905260248201527f362d7365697a6564546f6b656e206973206e6f7420737461626c6520636f696e6044820152606401610153565b6040516370a0823160e01b81523060048201526001600160a01b038516906370a082319060240160206040518083038186803b15801561338457600080fd5b505afa158015613398573d6000803e3d6000fd5b505050506040513d601f19601f820116820180604052508101906133bc91906152b9565b61010087015260808601518051600091829182906133dc576133dc6156a8565b60200260200101516001600160a01b03166311b3d5e78960e001518a60a00151896040518463ffffffff1660e01b815260040161341b939291906154aa565b6040805180830381600087803b15801561343457600080fd5b505af1158015613448573d6000803e3d6000fd5b505050506040513d601f19601f8201168201806040525081019061346c919061543d565b91509150816000146134c05760405162461bcd60e51b815260206004820152601860248201527f362d6c6971756964617465426f72726f77206572726f722000000000000000006044820152606401610153565b6040516370a0823160e01b81523060048201526001600160a01b038716906370a082319060240160206040518083038186803b1580156134ff57600080fd5b505afa158015613513573d6000803e3d6000fd5b505050506040513d601f19601f8201168201806040525081019061353791906152b9565b610120890181905261010089015161354e91615649565b61014089018190526135a25760405162461bcd60e51b815260206004820152601e60248201527f362d7365697a65642076746f6b656e20616d6f756e74206973207a65726f00006044820152606401610153565b6040516370a0823160e01b81523060048201526001600160a01b038516906370a082319060240160206040518083038186803b1580156135e157600080fd5b505afa1580156135f5573d6000803e3d6000fd5b505050506040513d601f19601f8201168201806040525081019061361991906152b9565b61016089015261014088015160405163db006a7560e01b815260048101919091526001600160a01b0387169063db006a7590602401602060405180830381600087803b15801561366857600080fd5b505af115801561367c573d6000803e3d6000fd5b505050506040513d601f19601f820116820180604052508101906136a091906152b9565b156136de5760405162461bcd60e51b815260206004820152600e60248201526d1b16b932b232b2b69032b93937b960911b6044820152606401610153565b6040516370a0823160e01b81523060048201526001600160a01b038516906370a082319060240160206040518083038186803b15801561371d57600080fd5b505afa158015613731573d6000803e3d6000fd5b505050506040513d601f19601f8201168201806040525081019061375591906152b9565b610180890181905261016089015161376c91615649565b6101a089015260a088015160c08901516000919061378b9084906155f0565b6137959190615649565b90506137a6818a60400151306146c6565b50836000815181106137ba576137ba6156a8565b6020026020010151896101a00151116138015760405162461bcd60e51b8152602060048201526009602482015268362d6e6f657874726160b81b6044820152606401610153565b83600081518110613814576138146156a8565b6020026020010151896101a0015161382c9190615649565b6101c08a015250614126915050565b8551600714156100365761385f86608001516001815181106108c6576108c66156a8565b15613d4b576040516370a0823160e01b81523060048201526001600160a01b038516906370a082319060240160206040518083038186803b1580156138a357600080fd5b505afa1580156138b7573d6000803e3d6000fd5b505050506040513d601f19601f820116820180604052508101906138db91906152b9565b61016087015260808601518051600091829182906138fb576138fb6156a8565b60200260200101516001600160a01b03166311b3d5e78960e001518a60a00151896040518463ffffffff1660e01b815260040161393a939291906154aa565b6040805180830381600087803b15801561395357600080fd5b505af1158015613967573d6000803e3d6000fd5b505050506040513d601f19601f8201168201806040525081019061398b919061543d565b91509150816000146139df5760405162461bcd60e51b815260206004820152601a60248201527f372e312d6c6971756964617465426f72726f77206572726f72200000000000006044820152606401610153565b6040516370a0823160e01b81523060048201526001600160a01b038716906370a082319060240160206040518083038186803b158015613a1e57600080fd5b505afa158015613a32573d6000803e3d6000fd5b505050506040513d601f19601f82011682018060405250810190613a5691906152b9565b610180890152610100880151610120890151613a729190615649565b6101408901819052613ac65760405162461bcd60e51b815260206004820181905260248201527f372e312d7365697a65642076746f6b656e20616d6f756e74206973207a65726f6044820152606401610153565b47610160890152608088015180516001908110613ae557613ae56156a8565b60200260200101516001600160a01b031663db006a758961014001516040518263ffffffff1660e01b8152600401613b1f91815260200190565b602060405180830381600087803b158015613b3957600080fd5b505af1158015613b4d573d6000803e3d6000fd5b505050506040513d601f19601f82011682018060405250810190613b7191906152b9565b15613bb15760405162461bcd60e51b815260206004820152601060248201526f1b971896b932b232b2b69032b93937b960811b6044820152606401610153565b476101808901819052610160890151613bc991615649565b886101a001818152505073bb4cdb9cbd36b01bd1cbaebf2de08d9173bc095c6001600160a01b031663d0e30db0896101a001516040518263ffffffff1660e01b81526004016000604051808303818588803b158015613c2757600080fd5b505af1158015613c3b573d6000803e3d6000fd5b505050505060008860a00151828a60c00151613c5791906155f0565b613c619190615649565b9050613c72818a60400151306146c6565b935083600081518110613c8757613c876156a8565b6020026020010151896101a0015111613cd15760405162461bcd60e51b815260206004820152600c60248201526b372e312d6e6f20657874726160a01b6044820152606401610153565b600084600081518110613ce657613ce66156a8565b60200260200101518a6101a00151613cfe9190615649565b9050613d0f818b6060015130614576565b94508460018651613d209190615649565b81518110613d3057613d306156a8565b60200260200101518a6101c001818152505050505050614126565b6040516370a0823160e01b81523060048201526001600160a01b038516906370a082319060240160206040518083038186803b158015613d8a57600080fd5b505afa158015613d9e573d6000803e3d6000fd5b505050506040513d601f19601f82011682018060405250810190613dc291906152b9565b6101608701526080860151805160009182918290613de257613de26156a8565b60200260200101516001600160a01b03166311b3d5e78960e001518a60a00151896040518463ffffffff1660e01b8152600401613e21939291906154aa565b6040805180830381600087803b158015613e3a57600080fd5b505af1158015613e4e573d6000803e3d6000fd5b505050506040513d601f19601f82011682018060405250810190613e72919061543d565b9150915081600014613ec65760405162461bcd60e51b815260206004820152601960248201527f372e322d6c6971756964617465426f72726f77206572726f72000000000000006044820152606401610153565b6040516370a0823160e01b81523060048201526001600160a01b038716906370a082319060240160206040518083038186803b158015613f0557600080fd5b505afa158015613f19573d6000803e3d6000fd5b505050506040513d601f19601f82011682018060405250810190613f3d91906152b9565b610180890152610100880151610120890151613f599190615649565b6101408901819052613fad5760405162461bcd60e51b815260206004820181905260248201527f372e322d7365697a65642076746f6b656e20616d6f756e74206973207a65726f6044820152606401610153565b4761016089015261014088015160405163db006a7560e01b815260048101919091526001600160a01b0387169063db006a7590602401602060405180830381600087803b158015613ffd57600080fd5b505af1158015614011573d6000803e3d6000fd5b505050506040513d601f19601f8201168201806040525081019061403591906152b9565b156140755760405162461bcd60e51b815260206004820152601060248201526f1b971916b932b232b2b69032b93937b960811b6044820152606401610153565b47610180890181905261016089015161408d91615649565b6101a089015260a088015160c0890151600091906140ac9084906155f0565b6140b69190615649565b90506140c7818a60400151306146c6565b9350836000815181106140dc576140dc6156a8565b6020026020010151896101a0015111613cd15760405162461bcd60e51b815260206004820152600c60248201526b372e322d6e6f20657874726160a01b6044820152606401610153565b602086015160c087015160405163a9059cbb60e01b81526001600160a01b0386169263a9059cbb9261416e926004016001600160a01b03929092168252602082015260400190565b602060405180830381600087803b15801561418857600080fd5b505af115801561419c573d6000803e3d6000fd5b505050506040513d601f19601f820116820180604052508101906141c09190615247565b50855160a08088015160c0808a01516101a08b01516101c08c0151604080519788526001600160a01b03808c1660208a0152908801959095529388166060870152608086019190915292840192909252908201527fee80f069d389b1636bfe8a115ff1d8ad940b394b4d16bb19c8503003d14dd5b49060e00160405180910390a15050505050505050505050565b60018910158015614260575060058911155b6142975760405162461bcd60e51b815260206004820152600860248201526777726f6e6720736960c01b6044820152606401610153565b6001600160a01b0388166142d55760405162461bcd60e51b815260206004820152600560248201526410b830b4b960d91b6044820152606401610153565b6000886001600160a01b0316630dfe16816040518163ffffffff1660e01b815260040160206040518083038186803b15801561431057600080fd5b505afa158015614324573d6000803e3d6000fd5b505050506040513d601f19601f820116820180604052508101906143489190615194565b90506000896001600160a01b031663d21220a76040518163ffffffff1660e01b815260040160206040518083038186803b15801561438557600080fd5b505afa158015614399573d6000803e3d6000fd5b505050506040513d601f19601f820116820180604052508101906143bd9190615194565b90506000826001600160a01b0316868660038181106143de576143de6156a8565b90506020020160208101906143f39190615177565b6001600160a01b03161461440857600061440a565b835b90506000826001600160a01b03168787600381811061442b5761442b6156a8565b90506020020160208101906144409190615177565b6001600160a01b031614614455576000614457565b845b905060008d8d8d8d8d8d8d8d8d60405160200161447c99989796959493929190615513565b60408051601f198184030181529082905263022c0d9f60e01b825291506001600160a01b038e169063022c0d9f906144be90869086903090879060040161557d565b600060405180830381600087803b1580156144d857600080fd5b505af11580156144ec573d6000803e3d6000fd5b505050505050505050505050505050505050565b60006001600160a01b0382167395c78222b3d6e262426483d42cfa53685a67ab9d148061454957506001600160a01b03821673fd5840cd36d94d7229439859c0112a4185bc0255145b8061457057506001600160a01b03821673334b3ecb4dca3593bccc3c7ebd1a1c1d1780fbf1145b92915050565b606061459773ca143ce32fe78f1f7019d7d551a6402fc5350c7385856146e7565b9050826000815181106145ac576145ac6156a8565b60200260200101516001600160a01b031663a9059cbb61461573ca143ce32fe78f1f7019d7d551a6402fc5350c73866000815181106145ed576145ed6156a8565b602002602001015187600181518110614608576146086156a8565b6020026020010151614872565b83600081518110614628576146286156a8565b60200260200101516040518363ffffffff1660e01b81526004016146619291906001600160a01b03929092168252602082015260400190565b602060405180830381600087803b15801561467b57600080fd5b505af115801561468f573d6000803e3d6000fd5b505050506040513d601f19601f820116820180604052508101906146b39190615247565b506146bf81848461494d565b9392505050565b606061459773ca143ce32fe78f1f7019d7d551a6402fc5350c738585614b30565b606060028251101561473b5760405162461bcd60e51b815260206004820152601c60248201527f50616e63616b654c6962726172793a20494e56414c49445f50415448000000006044820152606401610153565b815167ffffffffffffffff811115614755576147556156be565b60405190808252806020026020018201604052801561477e578160200160208202803683370190505b5090508281600081518110614795576147956156a8565b60200260200101818152505060005b600183516147b29190615649565b81101561486a57600080614805878685815181106147d2576147d26156a8565b6020026020010151878660016147e891906155f0565b815181106147f8576147f86156a8565b6020026020010151614cb1565b9150915061482d84848151811061481e5761481e6156a8565b60200260200101518383614d96565b846148398560016155f0565b81518110614849576148496156a8565b6020026020010181815250505050808061486290615677565b9150506147a4565b509392505050565b60008060006148818585614e72565b6040516bffffffffffffffffffffffff19606084811b8216602084015283901b16603482015291935091508690604801604051602081830303815290604052805190602001206040516020016149299291906001600160f81b0319815260609290921b6bffffffffffffffffffffffff1916600183015260158201527fd0d4c4cd0848c93cb4fd1f498d7013ee6bfb25783ea21593d5834f5d250ece66603582015260550190565b6040516020818303038152906040528051906020012060601c925050509392505050565b60005b6001835161495e9190615649565b811015614b2a5760008084838151811061497a5761497a6156a8565b60200260200101518584600161499091906155f0565b815181106149a0576149a06156a8565b60200260200101519150915060006149b88383614e72565b5090506000876149c98660016155f0565b815181106149d9576149d96156a8565b60200260200101519050600080836001600160a01b0316866001600160a01b031614614a0757826000614a0b565b6000835b91509150600060028a51614a1f9190615649565b8810614a2b5788614a60565b614a6073ca143ce32fe78f1f7019d7d551a6402fc5350c73878c614a508c60026155f0565b81518110614608576146086156a8565b9050614a8173ca143ce32fe78f1f7019d7d551a6402fc5350c738888614872565b6001600160a01b031663022c0d9f84848460006040519080825280601f01601f191660200182016040528015614abe576020820181803683370190505b506040518563ffffffff1660e01b8152600401614ade949392919061557d565b600060405180830381600087803b158015614af857600080fd5b505af1158015614b0c573d6000803e3d6000fd5b50505050505050505050508080614b2290615677565b915050614950565b50505050565b6060600282511015614b845760405162461bcd60e51b815260206004820152601c60248201527f50616e63616b654c6962726172793a20494e56414c49445f50415448000000006044820152606401610153565b815167ffffffffffffffff811115614b9e57614b9e6156be565b604051908082528060200260200182016040528015614bc7578160200160208202803683370190505b509050828160018351614bda9190615649565b81518110614bea57614bea6156a8565b602002602001018181525050600060018351614c069190615649565b90505b801561486a57600080614c4c8786614c22600187615649565b81518110614c3257614c326156a8565b60200260200101518786815181106147f8576147f86156a8565b91509150614c74848481518110614c6557614c656156a8565b60200260200101518383614f68565b84614c80600186615649565b81518110614c9057614c906156a8565b60200260200101818152505050508080614ca990615660565b915050614c09565b6000806000614cc08585614e72565b509050614cce868686614872565b50600080614cdd888888614872565b6001600160a01b0316630902f1ac6040518163ffffffff1660e01b815260040160606040518083038186803b158015614d1557600080fd5b505afa158015614d29573d6000803e3d6000fd5b505050506040513d601f19601f82011682018060405250810190614d4d9190615269565b506001600160701b031691506001600160701b03169150826001600160a01b0316876001600160a01b031614614d84578082614d87565b81815b90999098509650505050505050565b6000808411614df95760405162461bcd60e51b815260206004820152602960248201527f50616e63616b654c6962726172793a20494e53554646494349454e545f494e50604482015268155517d05353d5539560ba1b6064820152608401610153565b600083118015614e095750600082115b614e255760405162461bcd60e51b8152600401610153906154cd565b6000614e33856103e661503f565b90506000614e41828561503f565b90506000614e5b83614e55886103e861503f565b9061504b565b9050614e678183615608565b979650505050505050565b600080826001600160a01b0316846001600160a01b03161415614ee35760405162461bcd60e51b815260206004820152602360248201527f50616e63616b654c6962726172793a204944454e544943414c5f41444452455360448201526253455360e81b6064820152608401610153565b826001600160a01b0316846001600160a01b031610614f03578284614f06565b83835b90925090506001600160a01b038216614f615760405162461bcd60e51b815260206004820152601c60248201527f50616e63616b654c6962726172793a205a45524f5f41444452455353000000006044820152606401610153565b9250929050565b6000808411614fcc5760405162461bcd60e51b815260206004820152602a60248201527f50616e63616b654c6962726172793a20494e53554646494349454e545f4f555460448201526914155517d05353d5539560b21b6064820152608401610153565b600083118015614fdc5750600082115b614ff85760405162461bcd60e51b8152600401610153906154cd565b60006150106103e861500a868861503f565b9061503f565b905060006150246103e661500a8689615057565b90506150356001614e558385615608565b9695505050505050565b60006146bf828461562a565b60006146bf82846155f0565b60006146bf8284615649565b803561506e816156d4565b919050565b60008083601f84011261508557600080fd5b50813567ffffffffffffffff81111561509d57600080fd5b6020830191508360208260051b8501011115614f6157600080fd5b600082601f8301126150c957600080fd5b8135602067ffffffffffffffff808311156150e6576150e66156be565b8260051b604051601f19603f8301168101818110848211171561510b5761510b6156be565b6040528481528381019250868401828801850189101561512a57600080fd5b600092505b858310156151545761514081615063565b84529284019260019290920191840161512f565b50979650505050505050565b80516001600160701b038116811461506e57600080fd5b60006020828403121561518957600080fd5b81356146bf816156d4565b6000602082840312156151a657600080fd5b81516146bf816156d4565b6000806000806000608086880312156151c957600080fd5b85356151d4816156d4565b94506020860135935060408601359250606086013567ffffffffffffffff808211156151ff57600080fd5b818801915088601f83011261521357600080fd5b81358181111561522257600080fd5b89602082850101111561523457600080fd5b9699959850939650602001949392505050565b60006020828403121561525957600080fd5b815180151581146146bf57600080fd5b60008060006060848603121561527e57600080fd5b61528784615160565b925061529560208501615160565b9150604084015163ffffffff811681146152ae57600080fd5b809150509250925092565b6000602082840312156152cb57600080fd5b5051919050565b60008060008060008060c087890312156152eb57600080fd5b8635955060208701356152fd816156d4565b9450604087013567ffffffffffffffff8082111561531a57600080fd5b6153268a838b016150b8565b9550606089013591508082111561533c57600080fd5b6153488a838b016150b8565b9450608089013591508082111561535e57600080fd5b5061536b89828a016150b8565b92505060a087013590509295509295509295565b600080600080600080600080600060c08a8c03121561539d57600080fd5b8935985060208a01356153af816156d4565b975060408a013567ffffffffffffffff808211156153cc57600080fd5b6153d88d838e01615073565b909950975060608c01359150808211156153f157600080fd5b6153fd8d838e01615073565b909750955060808c013591508082111561541657600080fd5b506154238c828d01615073565b9a9d999c50979a9699959894979660a00135949350505050565b6000806040838503121561545057600080fd5b505080516020909101519092909150565b8183526000602080850194508260005b8581101561549f578135615484816156d4565b6001600160a01b031687529582019590820190600101615471565b509495945050505050565b6001600160a01b0393841681526020810192909252909116604082015260600190565b60208082526026908201527f50616e63616b654c6962726172793a20494e53554646494349454e545f4c495160408201526555494449545960d01b606082015260800190565b8981526001600160a01b038916602082015260c06040820181905260009061553e908301898b615461565b828103606084015261555181888a615461565b90508281036080840152615566818688615461565b9150508260a08301529a9950505050505050505050565b84815260006020858184015260018060a01b038516604084015260806060840152835180608085015260005b818110156155c55785810183015185820160a0015282016155a9565b818111156155d757600060a083870101525b50601f01601f19169290920160a0019695505050505050565b6000821982111561560357615603615692565b500190565b60008261562557634e487b7160e01b600052601260045260246000fd5b500490565b600081600019048311821515161561564457615644615692565b500290565b60008282101561565b5761565b615692565b500390565b60008161566f5761566f615692565b506000190190565b600060001982141561568b5761568b615692565b5060010190565b634e487b7160e01b600052601160045260246000fd5b634e487b7160e01b600052603260045260246000fd5b634e487b7160e01b600052604160045260246000fd5b6001600160a01b03811681146156e957600080fd5b5056fea26469706673582212200b6b1b30bd3583f51223e0fcd8260e77d5bb505c7118ea00f5884c8ef23679b364736f6c63430008070033",
			"opcodes": "PUSH1 0x80 PUSH1 0x40 MSTORE CALLVALUE DUP1 ISZERO PUSH2 0x10 JUMPI PUSH1 0x0 DUP1 REVERT JUMPDEST POP PUSH2 0x5722 DUP1 PUSH3 0x21 PUSH1 0x0 CODECOPY PUSH1 0x0 RETURN INVALID PUSH1 0x80 PUSH1 0x40 MSTORE CALLVALUE DUP1 ISZERO PUSH2 0x10 JUMPI PUSH1 0x0 DUP1 REVERT JUMPDEST POP PUSH1 0x4 CALLDATASIZE LT PUSH2 0x36 JUMPI PUSH1 0x0 CALLDATALOAD PUSH1 0xE0 SHR DUP1 PUSH4 0x84800812 EQ PUSH2 0x3B JUMPI DUP1 PUSH4 0xB14E9A72 EQ PUSH2 0x50 JUMPI JUMPDEST PUSH1 0x0 DUP1 REVERT JUMPDEST PUSH2 0x4E PUSH2 0x49 CALLDATASIZE PUSH1 0x4 PUSH2 0x51B1 JUMP JUMPDEST PUSH2 0x63 JUMP JUMPDEST STOP JUMPDEST PUSH2 0x4E PUSH2 0x5E CALLDATASIZE PUSH1 0x4 PUSH2 0x537F JUMP JUMPDEST PUSH2 0x424E JUMP JUMPDEST PUSH2 0xEE PUSH1 0x40 MLOAD DUP1 PUSH2 0x1E0 ADD PUSH1 0x40 MSTORE DUP1 PUSH1 0x0 DUP2 MSTORE PUSH1 0x20 ADD PUSH1 0x0 PUSH1 0x1 PUSH1 0x1 PUSH1 0xA0 SHL SUB AND DUP2 MSTORE PUSH1 0x20 ADD PUSH1 0x60 DUP2 MSTORE PUSH1 0x20 ADD PUSH1 0x60 DUP2 MSTORE PUSH1 0x20 ADD PUSH1 0x60 DUP2 MSTORE PUSH1 0x20 ADD PUSH1 0x0 DUP2 MSTORE PUSH1 0x20 ADD PUSH1 0x0 DUP2 MSTORE PUSH1 0x20 ADD PUSH1 0x0 PUSH1 0x1 PUSH1 0x1 PUSH1 0xA0 SHL SUB AND DUP2 MSTORE PUSH1 0x20 ADD PUSH1 0x0 DUP2 MSTORE PUSH1 0x20 ADD PUSH1 0x0 DUP2 MSTORE PUSH1 0x20 ADD PUSH1 0x0 DUP2 MSTORE PUSH1 0x20 ADD PUSH1 0x0 DUP2 MSTORE PUSH1 0x20 ADD PUSH1 0x0 DUP2 MSTORE PUSH1 0x20 ADD PUSH1 0x0 DUP2 MSTORE PUSH1 0x20 ADD PUSH1 0x0 DUP2 MSTORE POP SWAP1 JUMP JUMPDEST PUSH2 0xFA DUP3 DUP5 ADD DUP5 PUSH2 0x52D2 JUMP JUMPDEST PUSH1 0xA0 DUP8 ADD MSTORE PUSH1 0x80 DUP7 ADD MSTORE PUSH1 0x60 DUP6 ADD MSTORE PUSH1 0x40 DUP5 ADD MSTORE PUSH1 0x1 PUSH1 0x1 PUSH1 0xA0 SHL SUB AND PUSH1 0x20 DUP4 ADD DUP2 SWAP1 MSTORE SWAP1 DUP3 MSTORE CALLER EQ PUSH2 0x15C JUMPI PUSH1 0x40 MLOAD PUSH3 0x461BCD PUSH1 0xE5 SHL DUP2 MSTORE PUSH1 0x20 PUSH1 0x4 DUP3 ADD MSTORE PUSH1 0x5 PUSH1 0x24 DUP3 ADD MSTORE PUSH5 0x10B830B4B9 PUSH1 0xD9 SHL PUSH1 0x44 DUP3 ADD MSTORE PUSH1 0x64 ADD JUMPDEST PUSH1 0x40 MLOAD DUP1 SWAP2 SUB SWAP1 REVERT JUMPDEST PUSH1 0x1 PUSH1 0x1 PUSH1 0xA0 SHL SUB DUP7 AND ADDRESS EQ PUSH2 0x19E JUMPI PUSH1 0x40 MLOAD PUSH3 0x461BCD PUSH1 0xE5 SHL DUP2 MSTORE PUSH1 0x20 PUSH1 0x4 DUP3 ADD MSTORE PUSH1 0x7 PUSH1 0x24 DUP3 ADD MSTORE PUSH7 0x10B9B2B73232B9 PUSH1 0xC9 SHL PUSH1 0x44 DUP3 ADD MSTORE PUSH1 0x64 ADD PUSH2 0x153 JUMP JUMPDEST PUSH2 0x26F7 DUP2 PUSH1 0xA0 ADD MLOAD PUSH1 0x19 PUSH2 0x1B2 SWAP2 SWAP1 PUSH2 0x562A JUMP JUMPDEST PUSH2 0x1BC SWAP2 SWAP1 PUSH2 0x5608 JUMP JUMPDEST DUP2 PUSH1 0xA0 ADD MLOAD PUSH2 0x1CB SWAP2 SWAP1 PUSH2 0x55F0 JUMP JUMPDEST PUSH2 0x1D6 SWAP1 PUSH1 0x1 PUSH2 0x55F0 JUMP JUMPDEST PUSH1 0xC0 DUP3 ADD MSTORE PUSH1 0x80 DUP2 ADD MLOAD DUP1 MLOAD PUSH1 0x4 SWAP1 DUP2 LT PUSH2 0x1F3 JUMPI PUSH2 0x1F3 PUSH2 0x56A8 JUMP JUMPDEST PUSH1 0x20 SWAP1 DUP2 MUL SWAP2 SWAP1 SWAP2 ADD ADD MLOAD PUSH1 0x1 PUSH1 0x1 PUSH1 0xA0 SHL SUB AND PUSH1 0xE0 DUP3 ADD MSTORE PUSH1 0x80 DUP2 ADD MLOAD DUP1 MLOAD PUSH1 0x0 SWAP2 SWAP1 DUP3 SWAP1 PUSH2 0x225 JUMPI PUSH2 0x225 PUSH2 0x56A8 JUMP JUMPDEST PUSH1 0x20 MUL PUSH1 0x20 ADD ADD MLOAD SWAP1 POP PUSH1 0x0 DUP3 PUSH1 0x80 ADD MLOAD PUSH1 0x1 DUP2 MLOAD DUP2 LT PUSH2 0x248 JUMPI PUSH2 0x248 PUSH2 0x56A8 JUMP JUMPDEST PUSH1 0x20 MUL PUSH1 0x20 ADD ADD MLOAD SWAP1 POP PUSH1 0x0 DUP4 PUSH1 0x80 ADD MLOAD PUSH1 0x3 DUP2 MLOAD DUP2 LT PUSH2 0x26B JUMPI PUSH2 0x26B PUSH2 0x56A8 JUMP JUMPDEST PUSH1 0x20 MUL PUSH1 0x20 ADD ADD MLOAD SWAP1 POP PUSH1 0x0 DUP5 PUSH1 0x80 ADD MLOAD PUSH1 0x2 DUP2 MLOAD DUP2 LT PUSH2 0x28E JUMPI PUSH2 0x28E PUSH2 0x56A8 JUMP JUMPDEST PUSH1 0x20 MUL PUSH1 0x20 ADD ADD MLOAD SWAP1 POP PUSH1 0x60 DUP6 PUSH1 0x0 ADD MLOAD PUSH1 0x1 EQ ISZERO PUSH2 0x851 JUMPI PUSH1 0x40 DUP7 ADD MLOAD MLOAD ISZERO DUP1 ISZERO PUSH2 0x2BD JUMPI POP PUSH1 0x60 DUP7 ADD MLOAD MLOAD ISZERO JUMPDEST PUSH2 0x2F5 JUMPI PUSH1 0x40 MLOAD PUSH3 0x461BCD PUSH1 0xE5 SHL DUP2 MSTORE PUSH1 0x20 PUSH1 0x4 DUP3 ADD MSTORE PUSH1 0x9 PUSH1 0x24 DUP3 ADD MSTORE PUSH9 0x1896B830BA3432B939 PUSH1 0xB9 SHL PUSH1 0x44 DUP3 ADD MSTORE PUSH1 0x64 ADD PUSH2 0x153 JUMP JUMPDEST PUSH2 0x31C DUP7 PUSH1 0x80 ADD MLOAD PUSH1 0x0 DUP2 MLOAD DUP2 LT PUSH2 0x30F JUMPI PUSH2 0x30F PUSH2 0x56A8 JUMP JUMPDEST PUSH1 0x20 MUL PUSH1 0x20 ADD ADD MLOAD PUSH2 0x4500 JUMP JUMPDEST PUSH2 0x35C JUMPI PUSH1 0x40 MLOAD PUSH3 0x461BCD PUSH1 0xE5 SHL DUP2 MSTORE PUSH1 0x20 PUSH1 0x4 DUP3 ADD MSTORE PUSH1 0x11 PUSH1 0x24 DUP3 ADD MSTORE PUSH17 0x1896B737BA1039BA30B136329031B7B4B7 PUSH1 0x79 SHL PUSH1 0x44 DUP3 ADD MSTORE PUSH1 0x64 ADD PUSH2 0x153 JUMP JUMPDEST DUP6 PUSH1 0x80 ADD MLOAD PUSH1 0x1 DUP2 MLOAD DUP2 LT PUSH2 0x373 JUMPI PUSH2 0x373 PUSH2 0x56A8 JUMP JUMPDEST PUSH1 0x20 MUL PUSH1 0x20 ADD ADD MLOAD PUSH1 0x1 PUSH1 0x1 PUSH1 0xA0 SHL SUB AND DUP7 PUSH1 0x80 ADD MLOAD PUSH1 0x0 DUP2 MLOAD DUP2 LT PUSH2 0x39B JUMPI PUSH2 0x39B PUSH2 0x56A8 JUMP JUMPDEST PUSH1 0x20 MUL PUSH1 0x20 ADD ADD MLOAD PUSH1 0x1 PUSH1 0x1 PUSH1 0xA0 SHL SUB AND EQ PUSH2 0x3EC JUMPI PUSH1 0x40 MLOAD PUSH3 0x461BCD PUSH1 0xE5 SHL DUP2 MSTORE PUSH1 0x20 PUSH1 0x4 DUP3 ADD MSTORE PUSH1 0x10 PUSH1 0x24 DUP3 ADD MSTORE PUSH16 0x1896903737BA1039B0B6B29031B7B4B7 PUSH1 0x81 SHL PUSH1 0x44 DUP3 ADD MSTORE PUSH1 0x64 ADD PUSH2 0x153 JUMP JUMPDEST PUSH1 0x40 MLOAD PUSH4 0x70A08231 PUSH1 0xE0 SHL DUP2 MSTORE ADDRESS PUSH1 0x4 DUP3 ADD MSTORE PUSH1 0x1 PUSH1 0x1 PUSH1 0xA0 SHL SUB DUP6 AND SWAP1 PUSH4 0x70A08231 SWAP1 PUSH1 0x24 ADD PUSH1 0x20 PUSH1 0x40 MLOAD DUP1 DUP4 SUB DUP2 DUP7 DUP1 EXTCODESIZE ISZERO DUP1 ISZERO PUSH2 0x42B JUMPI PUSH1 0x0 DUP1 REVERT JUMPDEST POP GAS STATICCALL ISZERO DUP1 ISZERO PUSH2 0x43F JUMPI RETURNDATASIZE PUSH1 0x0 DUP1 RETURNDATACOPY RETURNDATASIZE PUSH1 0x0 REVERT JUMPDEST POP POP POP POP PUSH1 0x40 MLOAD RETURNDATASIZE PUSH1 0x1F NOT PUSH1 0x1F DUP3 ADD AND DUP3 ADD DUP1 PUSH1 0x40 MSTORE POP DUP2 ADD SWAP1 PUSH2 0x463 SWAP2 SWAP1 PUSH2 0x52B9 JUMP JUMPDEST PUSH2 0x100 DUP8 ADD MSTORE PUSH1 0xE0 DUP7 ADD MLOAD PUSH1 0xA0 DUP8 ADD MLOAD PUSH1 0x40 MLOAD PUSH4 0x7AF1E231 PUSH1 0xE1 SHL DUP2 MSTORE PUSH1 0x1 PUSH1 0x1 PUSH1 0xA0 SHL SUB DUP9 AND SWAP3 PUSH4 0xF5E3C462 SWAP3 PUSH2 0x49F SWAP3 DUP10 SWAP1 PUSH1 0x4 ADD PUSH2 0x54AA JUMP JUMPDEST PUSH1 0x20 PUSH1 0x40 MLOAD DUP1 DUP4 SUB DUP2 PUSH1 0x0 DUP8 DUP1 EXTCODESIZE ISZERO DUP1 ISZERO PUSH2 0x4B9 JUMPI PUSH1 0x0 DUP1 REVERT JUMPDEST POP GAS CALL ISZERO DUP1 ISZERO PUSH2 0x4CD JUMPI RETURNDATASIZE PUSH1 0x0 DUP1 RETURNDATACOPY RETURNDATASIZE PUSH1 0x0 REVERT JUMPDEST POP POP POP POP PUSH1 0x40 MLOAD RETURNDATASIZE PUSH1 0x1F NOT PUSH1 0x1F DUP3 ADD AND DUP3 ADD DUP1 PUSH1 0x40 MSTORE POP DUP2 ADD SWAP1 PUSH2 0x4F1 SWAP2 SWAP1 PUSH2 0x52B9 JUMP JUMPDEST ISZERO PUSH2 0x53E JUMPI PUSH1 0x40 MLOAD PUSH3 0x461BCD PUSH1 0xE5 SHL DUP2 MSTORE PUSH1 0x20 PUSH1 0x4 DUP3 ADD MSTORE PUSH1 0x18 PUSH1 0x24 DUP3 ADD MSTORE PUSH32 0x312D6C6971756964617465426F72726F77206572726F72200000000000000000 PUSH1 0x44 DUP3 ADD MSTORE PUSH1 0x64 ADD PUSH2 0x153 JUMP JUMPDEST PUSH1 0x40 MLOAD PUSH4 0x70A08231 PUSH1 0xE0 SHL DUP2 MSTORE ADDRESS PUSH1 0x4 DUP3 ADD MSTORE PUSH1 0x1 PUSH1 0x1 PUSH1 0xA0 SHL SUB DUP6 AND SWAP1 PUSH4 0x70A08231 SWAP1 PUSH1 0x24 ADD PUSH1 0x20 PUSH1 0x40 MLOAD DUP1 DUP4 SUB DUP2 DUP7 DUP1 EXTCODESIZE ISZERO DUP1 ISZERO PUSH2 0x57D JUMPI PUSH1 0x0 DUP1 REVERT JUMPDEST POP GAS STATICCALL ISZERO DUP1 ISZERO PUSH2 0x591 JUMPI RETURNDATASIZE PUSH1 0x0 DUP1 RETURNDATACOPY RETURNDATASIZE PUSH1 0x0 REVERT JUMPDEST POP POP POP POP PUSH1 0x40 MLOAD RETURNDATASIZE PUSH1 0x1F NOT PUSH1 0x1F DUP3 ADD AND DUP3 ADD DUP1 PUSH1 0x40 MSTORE POP DUP2 ADD SWAP1 PUSH2 0x5B5 SWAP2 SWAP1 PUSH2 0x52B9 JUMP JUMPDEST PUSH2 0x120 DUP8 ADD DUP2 SWAP1 MSTORE PUSH2 0x100 DUP8 ADD MLOAD PUSH2 0x5CC SWAP2 PUSH2 0x5649 JUMP JUMPDEST PUSH2 0x140 DUP8 ADD DUP2 SWAP1 MSTORE PUSH2 0x620 JUMPI PUSH1 0x40 MLOAD PUSH3 0x461BCD PUSH1 0xE5 SHL DUP2 MSTORE PUSH1 0x20 PUSH1 0x4 DUP3 ADD MSTORE PUSH1 0x1E PUSH1 0x24 DUP3 ADD MSTORE PUSH32 0x312D7365697A65642076746F6B656E20616D6F756E74206973207A65726F0000 PUSH1 0x44 DUP3 ADD MSTORE PUSH1 0x64 ADD PUSH2 0x153 JUMP JUMPDEST PUSH1 0x40 MLOAD PUSH4 0x70A08231 PUSH1 0xE0 SHL DUP2 MSTORE ADDRESS PUSH1 0x4 DUP3 ADD MSTORE PUSH1 0x1 PUSH1 0x1 PUSH1 0xA0 SHL SUB DUP4 AND SWAP1 PUSH4 0x70A08231 SWAP1 PUSH1 0x24 ADD PUSH1 0x20 PUSH1 0x40 MLOAD DUP1 DUP4 SUB DUP2 DUP7 DUP1 EXTCODESIZE ISZERO DUP1 ISZERO PUSH2 0x65F JUMPI PUSH1 0x0 DUP1 REVERT JUMPDEST POP GAS STATICCALL ISZERO DUP1 ISZERO PUSH2 0x673 JUMPI RETURNDATASIZE PUSH1 0x0 DUP1 RETURNDATACOPY RETURNDATASIZE PUSH1 0x0 REVERT JUMPDEST POP POP POP POP PUSH1 0x40 MLOAD RETURNDATASIZE PUSH1 0x1F NOT PUSH1 0x1F DUP3 ADD AND DUP3 ADD DUP1 PUSH1 0x40 MSTORE POP DUP2 ADD SWAP1 PUSH2 0x697 SWAP2 SWAP1 PUSH2 0x52B9 JUMP JUMPDEST PUSH2 0x160 DUP8 ADD MSTORE PUSH2 0x140 DUP7 ADD MLOAD PUSH1 0x40 MLOAD PUSH4 0xDB006A75 PUSH1 0xE0 SHL DUP2 MSTORE PUSH1 0x4 DUP2 ADD SWAP2 SWAP1 SWAP2 MSTORE PUSH1 0x1 PUSH1 0x1 PUSH1 0xA0 SHL SUB DUP6 AND SWAP1 PUSH4 0xDB006A75 SWAP1 PUSH1 0x24 ADD PUSH1 0x20 PUSH1 0x40 MLOAD DUP1 DUP4 SUB DUP2 PUSH1 0x0 DUP8 DUP1 EXTCODESIZE ISZERO DUP1 ISZERO PUSH2 0x6E6 JUMPI PUSH1 0x0 DUP1 REVERT JUMPDEST POP GAS CALL ISZERO DUP1 ISZERO PUSH2 0x6FA JUMPI RETURNDATASIZE PUSH1 0x0 DUP1 RETURNDATACOPY RETURNDATASIZE PUSH1 0x0 REVERT JUMPDEST POP POP POP POP PUSH1 0x40 MLOAD RETURNDATASIZE PUSH1 0x1F NOT PUSH1 0x1F DUP3 ADD AND DUP3 ADD DUP1 PUSH1 0x40 MSTORE POP DUP2 ADD SWAP1 PUSH2 0x71E SWAP2 SWAP1 PUSH2 0x52B9 JUMP JUMPDEST ISZERO PUSH2 0x75C JUMPI PUSH1 0x40 MLOAD PUSH3 0x461BCD PUSH1 0xE5 SHL DUP2 MSTORE PUSH1 0x20 PUSH1 0x4 DUP3 ADD MSTORE PUSH1 0xE PUSH1 0x24 DUP3 ADD MSTORE PUSH14 0x1896B932B232B2B69032B93937B9 PUSH1 0x91 SHL PUSH1 0x44 DUP3 ADD MSTORE PUSH1 0x64 ADD PUSH2 0x153 JUMP JUMPDEST PUSH1 0x40 MLOAD PUSH4 0x70A08231 PUSH1 0xE0 SHL DUP2 MSTORE ADDRESS PUSH1 0x4 DUP3 ADD MSTORE PUSH1 0x1 PUSH1 0x1 PUSH1 0xA0 SHL SUB DUP4 AND SWAP1 PUSH4 0x70A08231 SWAP1 PUSH1 0x24 ADD PUSH1 0x20 PUSH1 0x40 MLOAD DUP1 DUP4 SUB DUP2 DUP7 DUP1 EXTCODESIZE ISZERO DUP1 ISZERO PUSH2 0x79B JUMPI PUSH1 0x0 DUP1 REVERT JUMPDEST POP GAS STATICCALL ISZERO DUP1 ISZERO PUSH2 0x7AF JUMPI RETURNDATASIZE PUSH1 0x0 DUP1 RETURNDATACOPY RETURNDATASIZE PUSH1 0x0 REVERT JUMPDEST POP POP POP POP PUSH1 0x40 MLOAD RETURNDATASIZE PUSH1 0x1F NOT PUSH1 0x1F DUP3 ADD AND DUP3 ADD DUP1 PUSH1 0x40 MSTORE POP DUP2 ADD SWAP1 PUSH2 0x7D3 SWAP2 SWAP1 PUSH2 0x52B9 JUMP JUMPDEST PUSH2 0x180 DUP8 ADD DUP2 SWAP1 MSTORE PUSH2 0x160 DUP8 ADD MLOAD PUSH2 0x7EA SWAP2 PUSH2 0x5649 JUMP JUMPDEST PUSH2 0x1A0 DUP8 ADD DUP2 SWAP1 MSTORE PUSH1 0xC0 DUP8 ADD MLOAD LT PUSH2 0x831 JUMPI PUSH1 0x40 MLOAD PUSH3 0x461BCD PUSH1 0xE5 SHL DUP2 MSTORE PUSH1 0x20 PUSH1 0x4 DUP3 ADD MSTORE PUSH1 0xA PUSH1 0x24 DUP3 ADD MSTORE PUSH10 0x312D6E6F206578747261 PUSH1 0xB0 SHL PUSH1 0x44 DUP3 ADD MSTORE PUSH1 0x64 ADD PUSH2 0x153 JUMP JUMPDEST DUP6 PUSH1 0xC0 ADD MLOAD DUP7 PUSH2 0x1A0 ADD MLOAD PUSH2 0x846 SWAP2 SWAP1 PUSH2 0x5649 JUMP JUMPDEST PUSH2 0x1C0 DUP8 ADD MSTORE PUSH2 0x4126 JUMP JUMPDEST DUP6 MLOAD PUSH1 0x2 EQ ISZERO PUSH2 0x11F0 JUMPI PUSH1 0x40 DUP7 ADD MLOAD MLOAD ISZERO DUP1 ISZERO PUSH2 0x872 JUMPI POP PUSH1 0x60 DUP7 ADD MLOAD MLOAD ISZERO ISZERO JUMPDEST PUSH2 0x8AC JUMPI PUSH1 0x40 MLOAD PUSH3 0x461BCD PUSH1 0xE5 SHL DUP2 MSTORE PUSH1 0x20 PUSH1 0x4 DUP3 ADD MSTORE PUSH1 0xB PUSH1 0x24 DUP3 ADD MSTORE PUSH11 0x19171896B830BA3432B939 PUSH1 0xA9 SHL PUSH1 0x44 DUP3 ADD MSTORE PUSH1 0x64 ADD PUSH2 0x153 JUMP JUMPDEST PUSH2 0x8F0 DUP7 PUSH1 0x80 ADD MLOAD PUSH1 0x0 DUP2 MLOAD DUP2 LT PUSH2 0x8C6 JUMPI PUSH2 0x8C6 PUSH2 0x56A8 JUMP JUMPDEST PUSH1 0x20 MUL PUSH1 0x20 ADD ADD MLOAD PUSH1 0x1 PUSH1 0x1 PUSH1 0xA0 SHL SUB AND PUSH20 0xA07C5B74C9B40447A954E1466938B865B6BBEA36 EQ SWAP1 JUMP JUMPDEST ISZERO PUSH2 0xD90 JUMPI PUSH1 0xA0 DUP7 ADD MLOAD PUSH1 0x40 MLOAD PUSH4 0x2E1A7D4D PUSH1 0xE0 SHL DUP2 MSTORE PUSH1 0x4 DUP2 ADD SWAP2 SWAP1 SWAP2 MSTORE PUSH20 0xBB4CDB9CBD36B01BD1CBAEBF2DE08D9173BC095C SWAP1 PUSH4 0x2E1A7D4D SWAP1 PUSH1 0x24 ADD PUSH1 0x0 PUSH1 0x40 MLOAD DUP1 DUP4 SUB DUP2 PUSH1 0x0 DUP8 DUP1 EXTCODESIZE ISZERO DUP1 ISZERO PUSH2 0x948 JUMPI PUSH1 0x0 DUP1 REVERT JUMPDEST POP GAS CALL ISZERO DUP1 ISZERO PUSH2 0x95C JUMPI RETURNDATASIZE PUSH1 0x0 DUP1 RETURNDATACOPY RETURNDATASIZE PUSH1 0x0 REVERT JUMPDEST POP POP PUSH1 0x40 MLOAD PUSH4 0x70A08231 PUSH1 0xE0 SHL DUP2 MSTORE ADDRESS PUSH1 0x4 DUP3 ADD MSTORE PUSH1 0x1 PUSH1 0x1 PUSH1 0xA0 SHL SUB DUP8 AND SWAP3 POP PUSH4 0x70A08231 SWAP2 POP PUSH1 0x24 ADD PUSH1 0x20 PUSH1 0x40 MLOAD DUP1 DUP4 SUB DUP2 DUP7 DUP1 EXTCODESIZE ISZERO DUP1 ISZERO PUSH2 0x99F JUMPI PUSH1 0x0 DUP1 REVERT JUMPDEST POP GAS STATICCALL ISZERO DUP1 ISZERO PUSH2 0x9B3 JUMPI RETURNDATASIZE PUSH1 0x0 DUP1 RETURNDATACOPY RETURNDATASIZE PUSH1 0x0 REVERT JUMPDEST POP POP POP POP PUSH1 0x40 MLOAD RETURNDATASIZE PUSH1 0x1F NOT PUSH1 0x1F DUP3 ADD AND DUP3 ADD DUP1 PUSH1 0x40 MSTORE POP DUP2 ADD SWAP1 PUSH2 0x9D7 SWAP2 SWAP1 PUSH2 0x52B9 JUMP JUMPDEST PUSH2 0x100 DUP8 ADD MSTORE PUSH1 0x80 DUP7 ADD MLOAD DUP1 MLOAD PUSH1 0x0 SWAP1 PUSH2 0x9F3 JUMPI PUSH2 0x9F3 PUSH2 0x56A8 JUMP JUMPDEST PUSH1 0x20 MUL PUSH1 0x20 ADD ADD MLOAD PUSH1 0x1 PUSH1 0x1 PUSH1 0xA0 SHL SUB AND PUSH4 0xAAE40A2A DUP8 PUSH1 0xA0 ADD MLOAD DUP9 PUSH1 0xE0 ADD MLOAD DUP10 PUSH1 0x80 ADD MLOAD PUSH1 0x1 DUP2 MLOAD DUP2 LT PUSH2 0xA2A JUMPI PUSH2 0xA2A PUSH2 0x56A8 JUMP JUMPDEST PUSH1 0x20 MUL PUSH1 0x20 ADD ADD MLOAD PUSH1 0x40 MLOAD DUP5 PUSH4 0xFFFFFFFF AND PUSH1 0xE0 SHL DUP2 MSTORE PUSH1 0x4 ADD PUSH2 0xA64 SWAP3 SWAP2 SWAP1 PUSH1 0x1 PUSH1 0x1 PUSH1 0xA0 SHL SUB SWAP3 DUP4 AND DUP2 MSTORE SWAP2 AND PUSH1 0x20 DUP3 ADD MSTORE PUSH1 0x40 ADD SWAP1 JUMP JUMPDEST PUSH1 0x0 PUSH1 0x40 MLOAD DUP1 DUP4 SUB DUP2 DUP6 DUP9 DUP1 EXTCODESIZE ISZERO DUP1 ISZERO PUSH2 0xA7D JUMPI PUSH1 0x0 DUP1 REVERT JUMPDEST POP GAS CALL ISZERO DUP1 ISZERO PUSH2 0xA91 JUMPI RETURNDATASIZE PUSH1 0x0 DUP1 RETURNDATACOPY RETURNDATASIZE PUSH1 0x0 REVERT JUMPDEST POP POP PUSH1 0x40 MLOAD PUSH4 0x70A08231 PUSH1 0xE0 SHL DUP2 MSTORE ADDRESS PUSH1 0x4 DUP3 ADD MSTORE PUSH1 0x1 PUSH1 0x1 PUSH1 0xA0 SHL SUB DUP9 AND SWAP4 POP PUSH4 0x70A08231 SWAP3 POP PUSH1 0x24 ADD SWAP1 POP PUSH1 0x20 PUSH1 0x40 MLOAD DUP1 DUP4 SUB DUP2 DUP7 DUP1 EXTCODESIZE ISZERO DUP1 ISZERO PUSH2 0xAD6 JUMPI PUSH1 0x0 DUP1 REVERT JUMPDEST POP GAS STATICCALL ISZERO DUP1 ISZERO PUSH2 0xAEA JUMPI RETURNDATASIZE PUSH1 0x0 DUP1 RETURNDATACOPY RETURNDATASIZE PUSH1 0x0 REVERT JUMPDEST POP POP POP POP PUSH1 0x40 MLOAD RETURNDATASIZE PUSH1 0x1F NOT PUSH1 0x1F DUP3 ADD AND DUP3 ADD DUP1 PUSH1 0x40 MSTORE POP DUP2 ADD SWAP1 PUSH2 0xB0E SWAP2 SWAP1 PUSH2 0x52B9 JUMP JUMPDEST PUSH2 0x120 DUP8 ADD DUP2 SWAP1 MSTORE PUSH2 0x100 DUP8 ADD MLOAD PUSH2 0xB25 SWAP2 PUSH2 0x5649 JUMP JUMPDEST PUSH2 0x140 DUP8 ADD DUP2 SWAP1 MSTORE PUSH2 0xB79 JUMPI PUSH1 0x40 MLOAD PUSH3 0x461BCD PUSH1 0xE5 SHL DUP2 MSTORE PUSH1 0x20 PUSH1 0x4 DUP3 ADD DUP2 SWAP1 MSTORE PUSH1 0x24 DUP3 ADD MSTORE PUSH32 0x322E312D7365697A65642076746F6B656E20616D6F756E74206973207A65726F PUSH1 0x44 DUP3 ADD MSTORE PUSH1 0x64 ADD PUSH2 0x153 JUMP JUMPDEST SELFBALANCE PUSH2 0x160 DUP8 ADD MSTORE PUSH1 0x80 DUP7 ADD MLOAD DUP1 MLOAD PUSH1 0x1 SWAP1 DUP2 LT PUSH2 0xB98 JUMPI PUSH2 0xB98 PUSH2 0x56A8 JUMP JUMPDEST PUSH1 0x20 MUL PUSH1 0x20 ADD ADD MLOAD PUSH1 0x1 PUSH1 0x1 PUSH1 0xA0 SHL SUB AND PUSH4 0xDB006A75 DUP8 PUSH2 0x140 ADD MLOAD PUSH1 0x40 MLOAD DUP3 PUSH4 0xFFFFFFFF AND PUSH1 0xE0 SHL DUP2 MSTORE PUSH1 0x4 ADD PUSH2 0xBD2 SWAP2 DUP2 MSTORE PUSH1 0x20 ADD SWAP1 JUMP JUMPDEST PUSH1 0x20 PUSH1 0x40 MLOAD DUP1 DUP4 SUB DUP2 PUSH1 0x0 DUP8 DUP1 EXTCODESIZE ISZERO DUP1 ISZERO PUSH2 0xBEC JUMPI PUSH1 0x0 DUP1 REVERT JUMPDEST POP GAS CALL ISZERO DUP1 ISZERO PUSH2 0xC00 JUMPI RETURNDATASIZE PUSH1 0x0 DUP1 RETURNDATACOPY RETURNDATASIZE PUSH1 0x0 REVERT JUMPDEST POP POP POP POP PUSH1 0x40 MLOAD RETURNDATASIZE PUSH1 0x1F NOT PUSH1 0x1F DUP3 ADD AND DUP3 ADD DUP1 PUSH1 0x40 MSTORE POP DUP2 ADD SWAP1 PUSH2 0xC24 SWAP2 SWAP1 PUSH2 0x52B9 JUMP JUMPDEST ISZERO PUSH2 0xC61 JUMPI PUSH1 0x40 MLOAD PUSH3 0x461BCD PUSH1 0xE5 SHL DUP2 MSTORE PUSH1 0x20 PUSH1 0x4 DUP3 ADD MSTORE PUSH1 0xD PUSH1 0x24 DUP3 ADD MSTORE PUSH13 0x19171896B932B232B2B6B2B939 PUSH1 0x99 SHL PUSH1 0x44 DUP3 ADD MSTORE PUSH1 0x64 ADD PUSH2 0x153 JUMP JUMPDEST SELFBALANCE PUSH2 0x180 DUP8 ADD DUP2 SWAP1 MSTORE PUSH2 0x160 DUP8 ADD MLOAD PUSH2 0xC79 SWAP2 PUSH2 0x5649 JUMP JUMPDEST PUSH2 0x1A0 DUP8 ADD DUP2 SWAP1 MSTORE PUSH1 0xC0 DUP8 ADD MLOAD LT PUSH2 0xCC2 JUMPI PUSH1 0x40 MLOAD PUSH3 0x461BCD PUSH1 0xE5 SHL DUP2 MSTORE PUSH1 0x20 PUSH1 0x4 DUP3 ADD MSTORE PUSH1 0xC PUSH1 0x24 DUP3 ADD MSTORE PUSH12 0x322E312D6E6F2D6578747261 PUSH1 0xA0 SHL PUSH1 0x44 DUP3 ADD MSTORE PUSH1 0x64 ADD PUSH2 0x153 JUMP JUMPDEST PUSH20 0xBB4CDB9CBD36B01BD1CBAEBF2DE08D9173BC095C PUSH1 0x1 PUSH1 0x1 PUSH1 0xA0 SHL SUB AND PUSH4 0xD0E30DB0 DUP8 PUSH2 0x1A0 ADD MLOAD PUSH1 0x40 MLOAD DUP3 PUSH4 0xFFFFFFFF AND PUSH1 0xE0 SHL DUP2 MSTORE PUSH1 0x4 ADD PUSH1 0x0 PUSH1 0x40 MLOAD DUP1 DUP4 SUB DUP2 DUP6 DUP9 DUP1 EXTCODESIZE ISZERO DUP1 ISZERO PUSH2 0xD16 JUMPI PUSH1 0x0 DUP1 REVERT JUMPDEST POP GAS CALL ISZERO DUP1 ISZERO PUSH2 0xD2A JUMPI RETURNDATASIZE PUSH1 0x0 DUP1 RETURNDATACOPY RETURNDATASIZE PUSH1 0x0 REVERT JUMPDEST POP POP POP POP POP PUSH1 0x0 DUP7 PUSH1 0xC0 ADD MLOAD DUP8 PUSH2 0x1A0 ADD MLOAD PUSH2 0xD46 SWAP2 SWAP1 PUSH2 0x5649 JUMP JUMPDEST SWAP1 POP PUSH2 0xD57 DUP2 DUP9 PUSH1 0x60 ADD MLOAD ADDRESS PUSH2 0x4576 JUMP JUMPDEST SWAP2 POP DUP2 PUSH1 0x1 DUP4 MLOAD PUSH2 0xD68 SWAP2 SWAP1 PUSH2 0x5649 JUMP JUMPDEST DUP2 MLOAD DUP2 LT PUSH2 0xD78 JUMPI PUSH2 0xD78 PUSH2 0x56A8 JUMP JUMPDEST PUSH1 0x20 MUL PUSH1 0x20 ADD ADD MLOAD DUP8 PUSH2 0x1C0 ADD DUP2 DUP2 MSTORE POP POP POP PUSH2 0x4126 JUMP JUMPDEST PUSH1 0x40 MLOAD PUSH4 0x70A08231 PUSH1 0xE0 SHL DUP2 MSTORE ADDRESS PUSH1 0x4 DUP3 ADD MSTORE PUSH1 0x1 PUSH1 0x1 PUSH1 0xA0 SHL SUB DUP6 AND SWAP1 PUSH4 0x70A08231 SWAP1 PUSH1 0x24 ADD PUSH1 0x20 PUSH1 0x40 MLOAD DUP1 DUP4 SUB DUP2 DUP7 DUP1 EXTCODESIZE ISZERO DUP1 ISZERO PUSH2 0xDCF JUMPI PUSH1 0x0 DUP1 REVERT JUMPDEST POP GAS STATICCALL ISZERO DUP1 ISZERO PUSH2 0xDE3 JUMPI RETURNDATASIZE PUSH1 0x0 DUP1 RETURNDATACOPY RETURNDATASIZE PUSH1 0x0 REVERT JUMPDEST POP POP POP POP PUSH1 0x40 MLOAD RETURNDATASIZE PUSH1 0x1F NOT PUSH1 0x1F DUP3 ADD AND DUP3 ADD DUP1 PUSH1 0x40 MSTORE POP DUP2 ADD SWAP1 PUSH2 0xE07 SWAP2 SWAP1 PUSH2 0x52B9 JUMP JUMPDEST PUSH2 0x100 DUP8 ADD MSTORE PUSH1 0xE0 DUP7 ADD MLOAD PUSH1 0xA0 DUP8 ADD MLOAD PUSH1 0x40 MLOAD PUSH4 0x7AF1E231 PUSH1 0xE1 SHL DUP2 MSTORE PUSH1 0x1 PUSH1 0x1 PUSH1 0xA0 SHL SUB DUP9 AND SWAP3 PUSH4 0xF5E3C462 SWAP3 PUSH2 0xE43 SWAP3 DUP10 SWAP1 PUSH1 0x4 ADD PUSH2 0x54AA JUMP JUMPDEST PUSH1 0x20 PUSH1 0x40 MLOAD DUP1 DUP4 SUB DUP2 PUSH1 0x0 DUP8 DUP1 EXTCODESIZE ISZERO DUP1 ISZERO PUSH2 0xE5D JUMPI PUSH1 0x0 DUP1 REVERT JUMPDEST POP GAS CALL ISZERO DUP1 ISZERO PUSH2 0xE71 JUMPI RETURNDATASIZE PUSH1 0x0 DUP1 RETURNDATACOPY RETURNDATASIZE PUSH1 0x0 REVERT JUMPDEST POP POP POP POP PUSH1 0x40 MLOAD RETURNDATASIZE PUSH1 0x1F NOT PUSH1 0x1F DUP3 ADD AND DUP3 ADD DUP1 PUSH1 0x40 MSTORE POP DUP2 ADD SWAP1 PUSH2 0xE95 SWAP2 SWAP1 PUSH2 0x52B9 JUMP JUMPDEST ISZERO PUSH2 0xEE2 JUMPI PUSH1 0x40 MLOAD PUSH3 0x461BCD PUSH1 0xE5 SHL DUP2 MSTORE PUSH1 0x20 PUSH1 0x4 DUP3 ADD MSTORE PUSH1 0x1A PUSH1 0x24 DUP3 ADD MSTORE PUSH32 0x322E322D6C6971756964617465426F72726F77206572726F7220000000000000 PUSH1 0x44 DUP3 ADD MSTORE PUSH1 0x64 ADD PUSH2 0x153 JUMP JUMPDEST PUSH1 0x40 MLOAD PUSH4 0x70A08231 PUSH1 0xE0 SHL DUP2 MSTORE ADDRESS PUSH1 0x4 DUP3 ADD MSTORE PUSH1 0x1 PUSH1 0x1 PUSH1 0xA0 SHL SUB DUP6 AND SWAP1 PUSH4 0x70A08231 SWAP1 PUSH1 0x24 ADD PUSH1 0x20 PUSH1 0x40 MLOAD DUP1 DUP4 SUB DUP2 DUP7 DUP1 EXTCODESIZE ISZERO DUP1 ISZERO PUSH2 0xF21 JUMPI PUSH1 0x0 DUP1 REVERT JUMPDEST POP GAS STATICCALL ISZERO DUP1 ISZERO PUSH2 0xF35 JUMPI RETURNDATASIZE PUSH1 0x0 DUP1 RETURNDATACOPY RETURNDATASIZE PUSH1 0x0 REVERT JUMPDEST POP POP POP POP PUSH1 0x40 MLOAD RETURNDATASIZE PUSH1 0x1F NOT PUSH1 0x1F DUP3 ADD AND DUP3 ADD DUP1 PUSH1 0x40 MSTORE POP DUP2 ADD SWAP1 PUSH2 0xF59 SWAP2 SWAP1 PUSH2 0x52B9 JUMP JUMPDEST PUSH2 0x120 DUP8 ADD DUP2 SWAP1 MSTORE PUSH2 0x100 DUP8 ADD MLOAD PUSH2 0xF70 SWAP2 PUSH2 0x5649 JUMP JUMPDEST PUSH2 0x140 DUP8 ADD DUP2 SWAP1 MSTORE PUSH2 0xFC4 JUMPI PUSH1 0x40 MLOAD PUSH3 0x461BCD PUSH1 0xE5 SHL DUP2 MSTORE PUSH1 0x20 PUSH1 0x4 DUP3 ADD DUP2 SWAP1 MSTORE PUSH1 0x24 DUP3 ADD MSTORE PUSH32 0x322E322D7365697A65642076746F6B656E20616D6F756E74206973207A65726F PUSH1 0x44 DUP3 ADD MSTORE PUSH1 0x64 ADD PUSH2 0x153 JUMP JUMPDEST PUSH1 0x40 MLOAD PUSH4 0x70A08231 PUSH1 0xE0 SHL DUP2 MSTORE ADDRESS PUSH1 0x4 DUP3 ADD MSTORE PUSH1 0x1 PUSH1 0x1 PUSH1 0xA0 SHL SUB DUP4 AND SWAP1 PUSH4 0x70A08231 SWAP1 PUSH1 0x24 ADD PUSH1 0x20 PUSH1 0x40 MLOAD DUP1 DUP4 SUB DUP2 DUP7 DUP1 EXTCODESIZE ISZERO DUP1 ISZERO PUSH2 0x1003 JUMPI PUSH1 0x0 DUP1 REVERT JUMPDEST POP GAS STATICCALL ISZERO DUP1 ISZERO PUSH2 0x1017 JUMPI RETURNDATASIZE PUSH1 0x0 DUP1 RETURNDATACOPY RETURNDATASIZE PUSH1 0x0 REVERT JUMPDEST POP POP POP POP PUSH1 0x40 MLOAD RETURNDATASIZE PUSH1 0x1F NOT PUSH1 0x1F DUP3 ADD AND DUP3 ADD DUP1 PUSH1 0x40 MSTORE POP DUP2 ADD SWAP1 PUSH2 0x103B SWAP2 SWAP1 PUSH2 0x52B9 JUMP JUMPDEST PUSH2 0x160 DUP8 ADD MSTORE PUSH2 0x140 DUP7 ADD MLOAD PUSH1 0x40 MLOAD PUSH4 0xDB006A75 PUSH1 0xE0 SHL DUP2 MSTORE PUSH1 0x4 DUP2 ADD SWAP2 SWAP1 SWAP2 MSTORE PUSH1 0x1 PUSH1 0x1 PUSH1 0xA0 SHL SUB DUP6 AND SWAP1 PUSH4 0xDB006A75 SWAP1 PUSH1 0x24 ADD PUSH1 0x20 PUSH1 0x40 MLOAD DUP1 DUP4 SUB DUP2 PUSH1 0x0 DUP8 DUP1 EXTCODESIZE ISZERO DUP1 ISZERO PUSH2 0x108A JUMPI PUSH1 0x0 DUP1 REVERT JUMPDEST POP GAS CALL ISZERO DUP1 ISZERO PUSH2 0x109E JUMPI RETURNDATASIZE PUSH1 0x0 DUP1 RETURNDATACOPY RETURNDATASIZE PUSH1 0x0 REVERT JUMPDEST POP POP POP POP PUSH1 0x40 MLOAD RETURNDATASIZE PUSH1 0x1F NOT PUSH1 0x1F DUP3 ADD AND DUP3 ADD DUP1 PUSH1 0x40 MSTORE POP DUP2 ADD SWAP1 PUSH2 0x10C2 SWAP2 SWAP1 PUSH2 0x52B9 JUMP JUMPDEST ISZERO PUSH2 0x1102 JUMPI PUSH1 0x40 MLOAD PUSH3 0x461BCD PUSH1 0xE5 SHL DUP2 MSTORE PUSH1 0x20 PUSH1 0x4 DUP3 ADD MSTORE PUSH1 0x10 PUSH1 0x24 DUP3 ADD MSTORE PUSH16 0x19171916B932B232B2B69032B93937B9 PUSH1 0x81 SHL PUSH1 0x44 DUP3 ADD MSTORE PUSH1 0x64 ADD PUSH2 0x153 JUMP JUMPDEST PUSH1 0x40 MLOAD PUSH4 0x70A08231 PUSH1 0xE0 SHL DUP2 MSTORE ADDRESS PUSH1 0x4 DUP3 ADD MSTORE PUSH1 0x1 PUSH1 0x1 PUSH1 0xA0 SHL SUB DUP4 AND SWAP1 PUSH4 0x70A08231 SWAP1 PUSH1 0x24 ADD PUSH1 0x20 PUSH1 0x40 MLOAD DUP1 DUP4 SUB DUP2 DUP7 DUP1 EXTCODESIZE ISZERO DUP1 ISZERO PUSH2 0x1141 JUMPI PUSH1 0x0 DUP1 REVERT JUMPDEST POP GAS STATICCALL ISZERO DUP1 ISZERO PUSH2 0x1155 JUMPI RETURNDATASIZE PUSH1 0x0 DUP1 RETURNDATACOPY RETURNDATASIZE PUSH1 0x0 REVERT JUMPDEST POP POP POP POP PUSH1 0x40 MLOAD RETURNDATASIZE PUSH1 0x1F NOT PUSH1 0x1F DUP3 ADD AND DUP3 ADD DUP1 PUSH1 0x40 MSTORE POP DUP2 ADD SWAP1 PUSH2 0x1179 SWAP2 SWAP1 PUSH2 0x52B9 JUMP JUMPDEST PUSH2 0x180 DUP8 ADD DUP2 SWAP1 MSTORE PUSH2 0x160 DUP8 ADD MLOAD PUSH2 0x1190 SWAP2 PUSH2 0x5649 JUMP JUMPDEST PUSH2 0x1A0 DUP8 ADD DUP2 SWAP1 MSTORE PUSH1 0xC0 DUP8 ADD MLOAD LT PUSH2 0x11D9 JUMPI PUSH1 0x40 MLOAD PUSH3 0x461BCD PUSH1 0xE5 SHL DUP2 MSTORE PUSH1 0x20 PUSH1 0x4 DUP3 ADD MSTORE PUSH1 0xC PUSH1 0x24 DUP3 ADD MSTORE PUSH12 0x322E322D6E6F206578747261 PUSH1 0xA0 SHL PUSH1 0x44 DUP3 ADD MSTORE PUSH1 0x64 ADD PUSH2 0x153 JUMP JUMPDEST PUSH1 0x0 DUP7 PUSH1 0xC0 ADD MLOAD DUP8 PUSH2 0x1A0 ADD MLOAD PUSH2 0xD46 SWAP2 SWAP1 PUSH2 0x5649 JUMP JUMPDEST DUP6 MLOAD PUSH1 0x3 EQ ISZERO PUSH2 0x1BF9 JUMPI PUSH2 0x1214 DUP7 PUSH1 0x80 ADD MLOAD PUSH1 0x1 DUP2 MLOAD DUP2 LT PUSH2 0x30F JUMPI PUSH2 0x30F PUSH2 0x56A8 JUMP JUMPDEST PUSH2 0x126A JUMPI PUSH1 0x40 MLOAD PUSH3 0x461BCD PUSH1 0xE5 SHL DUP2 MSTORE PUSH1 0x20 PUSH1 0x4 DUP3 ADD MSTORE PUSH1 0x21 PUSH1 0x24 DUP3 ADD MSTORE PUSH32 0x332D7365697A656420746F6B656E206973206E6F7420737461626C6520636F69 PUSH1 0x44 DUP3 ADD MSTORE PUSH1 0x37 PUSH1 0xF9 SHL PUSH1 0x64 DUP3 ADD MSTORE PUSH1 0x84 ADD PUSH2 0x153 JUMP JUMPDEST PUSH2 0x1284 DUP7 PUSH1 0x80 ADD MLOAD PUSH1 0x0 DUP2 MLOAD DUP2 LT PUSH2 0x8C6 JUMPI PUSH2 0x8C6 PUSH2 0x56A8 JUMP JUMPDEST ISZERO PUSH2 0x177B JUMPI PUSH1 0xA0 DUP7 ADD MLOAD PUSH1 0x40 MLOAD PUSH4 0x2E1A7D4D PUSH1 0xE0 SHL DUP2 MSTORE PUSH1 0x4 DUP2 ADD SWAP2 SWAP1 SWAP2 MSTORE PUSH20 0xBB4CDB9CBD36B01BD1CBAEBF2DE08D9173BC095C SWAP1 PUSH4 0x2E1A7D4D SWAP1 PUSH1 0x24 ADD PUSH1 0x0 PUSH1 0x40 MLOAD DUP1 DUP4 SUB DUP2 PUSH1 0x0 DUP8 DUP1 EXTCODESIZE ISZERO DUP1 ISZERO PUSH2 0x12DC JUMPI PUSH1 0x0 DUP1 REVERT JUMPDEST POP GAS CALL ISZERO DUP1 ISZERO PUSH2 0x12F0 JUMPI RETURNDATASIZE PUSH1 0x0 DUP1 RETURNDATACOPY RETURNDATASIZE PUSH1 0x0 REVERT JUMPDEST POP POP PUSH1 0x40 MLOAD PUSH4 0x70A08231 PUSH1 0xE0 SHL DUP2 MSTORE ADDRESS PUSH1 0x4 DUP3 ADD MSTORE PUSH1 0x1 PUSH1 0x1 PUSH1 0xA0 SHL SUB DUP8 AND SWAP3 POP PUSH4 0x70A08231 SWAP2 POP PUSH1 0x24 ADD PUSH1 0x20 PUSH1 0x40 MLOAD DUP1 DUP4 SUB DUP2 DUP7 DUP1 EXTCODESIZE ISZERO DUP1 ISZERO PUSH2 0x1333 JUMPI PUSH1 0x0 DUP1 REVERT JUMPDEST POP GAS STATICCALL ISZERO DUP1 ISZERO PUSH2 0x1347 JUMPI RETURNDATASIZE PUSH1 0x0 DUP1 RETURNDATACOPY RETURNDATASIZE PUSH1 0x0 REVERT JUMPDEST POP POP POP POP PUSH1 0x40 MLOAD RETURNDATASIZE PUSH1 0x1F NOT PUSH1 0x1F DUP3 ADD AND DUP3 ADD DUP1 PUSH1 0x40 MSTORE POP DUP2 ADD SWAP1 PUSH2 0x136B SWAP2 SWAP1 PUSH2 0x52B9 JUMP JUMPDEST PUSH2 0x100 DUP8 ADD MSTORE PUSH1 0x80 DUP7 ADD MLOAD DUP1 MLOAD PUSH1 0x0 SWAP1 PUSH2 0x1387 JUMPI PUSH2 0x1387 PUSH2 0x56A8 JUMP JUMPDEST PUSH1 0x20 MUL PUSH1 0x20 ADD ADD MLOAD PUSH1 0x1 PUSH1 0x1 PUSH1 0xA0 SHL SUB AND PUSH4 0xAAE40A2A DUP8 PUSH1 0xA0 ADD MLOAD DUP9 PUSH1 0xE0 ADD MLOAD DUP10 PUSH1 0x80 ADD MLOAD PUSH1 0x1 DUP2 MLOAD DUP2 LT PUSH2 0x13BE JUMPI PUSH2 0x13BE PUSH2 0x56A8 JUMP JUMPDEST PUSH1 0x20 MUL PUSH1 0x20 ADD ADD MLOAD PUSH1 0x40 MLOAD DUP5 PUSH4 0xFFFFFFFF AND PUSH1 0xE0 SHL DUP2 MSTORE PUSH1 0x4 ADD PUSH2 0x13F8 SWAP3 SWAP2 SWAP1 PUSH1 0x1 PUSH1 0x1 PUSH1 0xA0 SHL SUB SWAP3 DUP4 AND DUP2 MSTORE SWAP2 AND PUSH1 0x20 DUP3 ADD MSTORE PUSH1 0x40 ADD SWAP1 JUMP JUMPDEST PUSH1 0x0 PUSH1 0x40 MLOAD DUP1 DUP4 SUB DUP2 DUP6 DUP9 DUP1 EXTCODESIZE ISZERO DUP1 ISZERO PUSH2 0x1411 JUMPI PUSH1 0x0 DUP1 REVERT JUMPDEST POP GAS CALL ISZERO DUP1 ISZERO PUSH2 0x1425 JUMPI RETURNDATASIZE PUSH1 0x0 DUP1 RETURNDATACOPY RETURNDATASIZE PUSH1 0x0 REVERT JUMPDEST POP POP PUSH1 0x40 MLOAD PUSH4 0x70A08231 PUSH1 0xE0 SHL DUP2 MSTORE ADDRESS PUSH1 0x4 DUP3 ADD MSTORE PUSH1 0x1 PUSH1 0x1 PUSH1 0xA0 SHL SUB DUP9 AND SWAP4 POP PUSH4 0x70A08231 SWAP3 POP PUSH1 0x24 ADD SWAP1 POP PUSH1 0x20 PUSH1 0x40 MLOAD DUP1 DUP4 SUB DUP2 DUP7 DUP1 EXTCODESIZE ISZERO DUP1 ISZERO PUSH2 0x146A JUMPI PUSH1 0x0 DUP1 REVERT JUMPDEST POP GAS STATICCALL ISZERO DUP1 ISZERO PUSH2 0x147E JUMPI RETURNDATASIZE PUSH1 0x0 DUP1 RETURNDATACOPY RETURNDATASIZE PUSH1 0x0 REVERT JUMPDEST POP POP POP POP PUSH1 0x40 MLOAD RETURNDATASIZE PUSH1 0x1F NOT PUSH1 0x1F DUP3 ADD AND DUP3 ADD DUP1 PUSH1 0x40 MSTORE POP DUP2 ADD SWAP1 PUSH2 0x14A2 SWAP2 SWAP1 PUSH2 0x52B9 JUMP JUMPDEST PUSH2 0x120 DUP8 ADD DUP2 SWAP1 MSTORE PUSH2 0x100 DUP8 ADD MLOAD PUSH2 0x14B9 SWAP2 PUSH2 0x5649 JUMP JUMPDEST PUSH2 0x140 DUP8 ADD DUP2 SWAP1 MSTORE PUSH2 0x150D JUMPI PUSH1 0x40 MLOAD PUSH3 0x461BCD PUSH1 0xE5 SHL DUP2 MSTORE PUSH1 0x20 PUSH1 0x4 DUP3 ADD DUP2 SWAP1 MSTORE PUSH1 0x24 DUP3 ADD MSTORE PUSH32 0x332E312D7365697A65642076746F6B656E20616D6F756E74206973207A65726F PUSH1 0x44 DUP3 ADD MSTORE PUSH1 0x64 ADD PUSH2 0x153 JUMP JUMPDEST PUSH1 0x40 MLOAD PUSH4 0x70A08231 PUSH1 0xE0 SHL DUP2 MSTORE ADDRESS PUSH1 0x4 DUP3 ADD MSTORE PUSH1 0x1 PUSH1 0x1 PUSH1 0xA0 SHL SUB DUP4 AND SWAP1 PUSH4 0x70A08231 SWAP1 PUSH1 0x24 ADD PUSH1 0x20 PUSH1 0x40 MLOAD DUP1 DUP4 SUB DUP2 DUP7 DUP1 EXTCODESIZE ISZERO DUP1 ISZERO PUSH2 0x154C JUMPI PUSH1 0x0 DUP1 REVERT JUMPDEST POP GAS STATICCALL ISZERO DUP1 ISZERO PUSH2 0x1560 JUMPI RETURNDATASIZE PUSH1 0x0 DUP1 RETURNDATACOPY RETURNDATASIZE PUSH1 0x0 REVERT JUMPDEST POP POP POP POP PUSH1 0x40 MLOAD RETURNDATASIZE PUSH1 0x1F NOT PUSH1 0x1F DUP3 ADD AND DUP3 ADD DUP1 PUSH1 0x40 MSTORE POP DUP2 ADD SWAP1 PUSH2 0x1584 SWAP2 SWAP1 PUSH2 0x52B9 JUMP JUMPDEST PUSH2 0x160 DUP8 ADD MSTORE PUSH2 0x140 DUP7 ADD MLOAD PUSH1 0x40 MLOAD PUSH4 0xDB006A75 PUSH1 0xE0 SHL DUP2 MSTORE PUSH1 0x4 DUP2 ADD SWAP2 SWAP1 SWAP2 MSTORE PUSH1 0x1 PUSH1 0x1 PUSH1 0xA0 SHL SUB DUP6 AND SWAP1 PUSH4 0xDB006A75 SWAP1 PUSH1 0x24 ADD PUSH1 0x20 PUSH1 0x40 MLOAD DUP1 DUP4 SUB DUP2 PUSH1 0x0 DUP8 DUP1 EXTCODESIZE ISZERO DUP1 ISZERO PUSH2 0x15D3 JUMPI PUSH1 0x0 DUP1 REVERT JUMPDEST POP GAS CALL ISZERO DUP1 ISZERO PUSH2 0x15E7 JUMPI RETURNDATASIZE PUSH1 0x0 DUP1 RETURNDATACOPY RETURNDATASIZE PUSH1 0x0 REVERT JUMPDEST POP POP POP POP PUSH1 0x40 MLOAD RETURNDATASIZE PUSH1 0x1F NOT PUSH1 0x1F DUP3 ADD AND DUP3 ADD DUP1 PUSH1 0x40 MSTORE POP DUP2 ADD SWAP1 PUSH2 0x160B SWAP2 SWAP1 PUSH2 0x52B9 JUMP JUMPDEST ISZERO PUSH2 0x1648 JUMPI PUSH1 0x40 MLOAD PUSH3 0x461BCD PUSH1 0xE5 SHL DUP2 MSTORE PUSH1 0x20 PUSH1 0x4 DUP3 ADD MSTORE PUSH1 0xD PUSH1 0x24 DUP3 ADD MSTORE PUSH13 0x19971896B932B232B2B6B2B939 PUSH1 0x99 SHL PUSH1 0x44 DUP3 ADD MSTORE PUSH1 0x64 ADD PUSH2 0x153 JUMP JUMPDEST PUSH1 0x40 MLOAD PUSH4 0x70A08231 PUSH1 0xE0 SHL DUP2 MSTORE ADDRESS PUSH1 0x4 DUP3 ADD MSTORE PUSH1 0x1 PUSH1 0x1 PUSH1 0xA0 SHL SUB DUP4 AND SWAP1 PUSH4 0x70A08231 SWAP1 PUSH1 0x24 ADD PUSH1 0x20 PUSH1 0x40 MLOAD DUP1 DUP4 SUB DUP2 DUP7 DUP1 EXTCODESIZE ISZERO DUP1 ISZERO PUSH2 0x1687 JUMPI PUSH1 0x0 DUP1 REVERT JUMPDEST POP GAS STATICCALL ISZERO DUP1 ISZERO PUSH2 0x169B JUMPI RETURNDATASIZE PUSH1 0x0 DUP1 RETURNDATACOPY RETURNDATASIZE PUSH1 0x0 REVERT JUMPDEST POP POP POP POP PUSH1 0x40 MLOAD RETURNDATASIZE PUSH1 0x1F NOT PUSH1 0x1F DUP3 ADD AND DUP3 ADD DUP1 PUSH1 0x40 MSTORE POP DUP2 ADD SWAP1 PUSH2 0x16BF SWAP2 SWAP1 PUSH2 0x52B9 JUMP JUMPDEST PUSH2 0x180 DUP8 ADD DUP2 SWAP1 MSTORE PUSH2 0x160 DUP8 ADD MLOAD PUSH2 0x16D6 SWAP2 PUSH2 0x5649 JUMP JUMPDEST PUSH2 0x1A0 DUP8 ADD MSTORE PUSH1 0xC0 DUP7 ADD MLOAD PUSH1 0x40 DUP8 ADD MLOAD PUSH2 0x16F1 SWAP2 SWAP1 ADDRESS PUSH2 0x46C6 JUMP JUMPDEST SWAP1 POP DUP1 PUSH1 0x0 DUP2 MLOAD DUP2 LT PUSH2 0x1706 JUMPI PUSH2 0x1706 PUSH2 0x56A8 JUMP JUMPDEST PUSH1 0x20 MUL PUSH1 0x20 ADD ADD MLOAD DUP7 PUSH2 0x1A0 ADD MLOAD GT PUSH2 0x1750 JUMPI PUSH1 0x40 MLOAD PUSH3 0x461BCD PUSH1 0xE5 SHL DUP2 MSTORE PUSH1 0x20 PUSH1 0x4 DUP3 ADD MSTORE PUSH1 0xC PUSH1 0x24 DUP3 ADD MSTORE PUSH12 0x332E312D6E6F2D6578747261 PUSH1 0xA0 SHL PUSH1 0x44 DUP3 ADD MSTORE PUSH1 0x64 ADD PUSH2 0x153 JUMP JUMPDEST DUP1 PUSH1 0x0 DUP2 MLOAD DUP2 LT PUSH2 0x1763 JUMPI PUSH2 0x1763 PUSH2 0x56A8 JUMP JUMPDEST PUSH1 0x20 MUL PUSH1 0x20 ADD ADD MLOAD DUP7 PUSH2 0x1A0 ADD MLOAD PUSH2 0x846 SWAP2 SWAP1 PUSH2 0x5649 JUMP JUMPDEST PUSH1 0x40 MLOAD PUSH4 0x70A08231 PUSH1 0xE0 SHL DUP2 MSTORE ADDRESS PUSH1 0x4 DUP3 ADD MSTORE PUSH1 0x1 PUSH1 0x1 PUSH1 0xA0 SHL SUB DUP6 AND SWAP1 PUSH4 0x70A08231 SWAP1 PUSH1 0x24 ADD PUSH1 0x20 PUSH1 0x40 MLOAD DUP1 DUP4 SUB DUP2 DUP7 DUP1 EXTCODESIZE ISZERO DUP1 ISZERO PUSH2 0x17BA JUMPI PUSH1 0x0 DUP1 REVERT JUMPDEST POP GAS STATICCALL ISZERO DUP1 ISZERO PUSH2 0x17CE JUMPI RETURNDATASIZE PUSH1 0x0 DUP1 RETURNDATACOPY RETURNDATASIZE PUSH1 0x0 REVERT JUMPDEST POP POP POP POP PUSH1 0x40 MLOAD RETURNDATASIZE PUSH1 0x1F NOT PUSH1 0x1F DUP3 ADD AND DUP3 ADD DUP1 PUSH1 0x40 MSTORE POP DUP2 ADD SWAP1 PUSH2 0x17F2 SWAP2 SWAP1 PUSH2 0x52B9 JUMP JUMPDEST PUSH2 0x100 DUP8 ADD MSTORE PUSH1 0xE0 DUP7 ADD MLOAD PUSH1 0xA0 DUP8 ADD MLOAD PUSH1 0x40 MLOAD PUSH4 0x7AF1E231 PUSH1 0xE1 SHL DUP2 MSTORE PUSH1 0x1 PUSH1 0x1 PUSH1 0xA0 SHL SUB DUP9 AND SWAP3 PUSH4 0xF5E3C462 SWAP3 PUSH2 0x182E SWAP3 DUP10 SWAP1 PUSH1 0x4 ADD PUSH2 0x54AA JUMP JUMPDEST PUSH1 0x20 PUSH1 0x40 MLOAD DUP1 DUP4 SUB DUP2 PUSH1 0x0 DUP8 DUP1 EXTCODESIZE ISZERO DUP1 ISZERO PUSH2 0x1848 JUMPI PUSH1 0x0 DUP1 REVERT JUMPDEST POP GAS CALL ISZERO DUP1 ISZERO PUSH2 0x185C JUMPI RETURNDATASIZE PUSH1 0x0 DUP1 RETURNDATACOPY RETURNDATASIZE PUSH1 0x0 REVERT JUMPDEST POP POP POP POP PUSH1 0x40 MLOAD RETURNDATASIZE PUSH1 0x1F NOT PUSH1 0x1F DUP3 ADD AND DUP3 ADD DUP1 PUSH1 0x40 MSTORE POP DUP2 ADD SWAP1 PUSH2 0x1880 SWAP2 SWAP1 PUSH2 0x52B9 JUMP JUMPDEST ISZERO PUSH2 0x18CD JUMPI PUSH1 0x40 MLOAD PUSH3 0x461BCD PUSH1 0xE5 SHL DUP2 MSTORE PUSH1 0x20 PUSH1 0x4 DUP3 ADD MSTORE PUSH1 0x1A PUSH1 0x24 DUP3 ADD MSTORE PUSH32 0x332E322D6C6971756964617465426F72726F77206572726F7220000000000000 PUSH1 0x44 DUP3 ADD MSTORE PUSH1 0x64 ADD PUSH2 0x153 JUMP JUMPDEST PUSH1 0x40 MLOAD PUSH4 0x70A08231 PUSH1 0xE0 SHL DUP2 MSTORE ADDRESS PUSH1 0x4 DUP3 ADD MSTORE PUSH1 0x1 PUSH1 0x1 PUSH1 0xA0 SHL SUB DUP6 AND SWAP1 PUSH4 0x70A08231 SWAP1 PUSH1 0x24 ADD PUSH1 0x20 PUSH1 0x40 MLOAD DUP1 DUP4 SUB DUP2 DUP7 DUP1 EXTCODESIZE ISZERO DUP1 ISZERO PUSH2 0x190C JUMPI PUSH1 0x0 DUP1 REVERT JUMPDEST POP GAS STATICCALL ISZERO DUP1 ISZERO PUSH2 0x1920 JUMPI RETURNDATASIZE PUSH1 0x0 DUP1 RETURNDATACOPY RETURNDATASIZE PUSH1 0x0 REVERT JUMPDEST POP POP POP POP PUSH1 0x40 MLOAD RETURNDATASIZE PUSH1 0x1F NOT PUSH1 0x1F DUP3 ADD AND DUP3 ADD DUP1 PUSH1 0x40 MSTORE POP DUP2 ADD SWAP1 PUSH2 0x1944 SWAP2 SWAP1 PUSH2 0x52B9 JUMP JUMPDEST PUSH2 0x120 DUP8 ADD DUP2 SWAP1 MSTORE PUSH2 0x100 DUP8 ADD MLOAD PUSH2 0x195B SWAP2 PUSH2 0x5649 JUMP JUMPDEST PUSH2 0x140 DUP8 ADD DUP2 SWAP1 MSTORE PUSH2 0x19AF JUMPI PUSH1 0x40 MLOAD PUSH3 0x461BCD PUSH1 0xE5 SHL DUP2 MSTORE PUSH1 0x20 PUSH1 0x4 DUP3 ADD DUP2 SWAP1 MSTORE PUSH1 0x24 DUP3 ADD MSTORE PUSH32 0x332E322D7365697A65642076746F6B656E20616D6F756E74206973207A65726F PUSH1 0x44 DUP3 ADD MSTORE PUSH1 0x64 ADD PUSH2 0x153 JUMP JUMPDEST PUSH1 0x40 MLOAD PUSH4 0x70A08231 PUSH1 0xE0 SHL DUP2 MSTORE ADDRESS PUSH1 0x4 DUP3 ADD MSTORE PUSH1 0x1 PUSH1 0x1 PUSH1 0xA0 SHL SUB DUP4 AND SWAP1 PUSH4 0x70A08231 SWAP1 PUSH1 0x24 ADD PUSH1 0x20 PUSH1 0x40 MLOAD DUP1 DUP4 SUB DUP2 DUP7 DUP1 EXTCODESIZE ISZERO DUP1 ISZERO PUSH2 0x19EE JUMPI PUSH1 0x0 DUP1 REVERT JUMPDEST POP GAS STATICCALL ISZERO DUP1 ISZERO PUSH2 0x1A02 JUMPI RETURNDATASIZE PUSH1 0x0 DUP1 RETURNDATACOPY RETURNDATASIZE PUSH1 0x0 REVERT JUMPDEST POP POP POP POP PUSH1 0x40 MLOAD RETURNDATASIZE PUSH1 0x1F NOT PUSH1 0x1F DUP3 ADD AND DUP3 ADD DUP1 PUSH1 0x40 MSTORE POP DUP2 ADD SWAP1 PUSH2 0x1A26 SWAP2 SWAP1 PUSH2 0x52B9 JUMP JUMPDEST PUSH2 0x160 DUP8 ADD MSTORE PUSH2 0x140 DUP7 ADD MLOAD PUSH1 0x40 MLOAD PUSH4 0xDB006A75 PUSH1 0xE0 SHL DUP2 MSTORE PUSH1 0x4 DUP2 ADD SWAP2 SWAP1 SWAP2 MSTORE PUSH1 0x1 PUSH1 0x1 PUSH1 0xA0 SHL SUB DUP6 AND SWAP1 PUSH4 0xDB006A75 SWAP1 PUSH1 0x24 ADD PUSH1 0x20 PUSH1 0x40 MLOAD DUP1 DUP4 SUB DUP2 PUSH1 0x0 DUP8 DUP1 EXTCODESIZE ISZERO DUP1 ISZERO PUSH2 0x1A75 JUMPI PUSH1 0x0 DUP1 REVERT JUMPDEST POP GAS CALL ISZERO DUP1 ISZERO PUSH2 0x1A89 JUMPI RETURNDATASIZE PUSH1 0x0 DUP1 RETURNDATACOPY RETURNDATASIZE PUSH1 0x0 REVERT JUMPDEST POP POP POP POP PUSH1 0x40 MLOAD RETURNDATASIZE PUSH1 0x1F NOT PUSH1 0x1F DUP3 ADD AND DUP3 ADD DUP1 PUSH1 0x40 MSTORE POP DUP2 ADD SWAP1 PUSH2 0x1AAD SWAP2 SWAP1 PUSH2 0x52B9 JUMP JUMPDEST ISZERO PUSH2 0x1AED JUMPI PUSH1 0x40 MLOAD PUSH3 0x461BCD PUSH1 0xE5 SHL DUP2 MSTORE PUSH1 0x20 PUSH1 0x4 DUP3 ADD MSTORE PUSH1 0x10 PUSH1 0x24 DUP3 ADD MSTORE PUSH16 0x19971916B932B232B2B69032B93937B9 PUSH1 0x81 SHL PUSH1 0x44 DUP3 ADD MSTORE PUSH1 0x64 ADD PUSH2 0x153 JUMP JUMPDEST PUSH1 0x40 MLOAD PUSH4 0x70A08231 PUSH1 0xE0 SHL DUP2 MSTORE ADDRESS PUSH1 0x4 DUP3 ADD MSTORE PUSH1 0x1 PUSH1 0x1 PUSH1 0xA0 SHL SUB DUP4 AND SWAP1 PUSH4 0x70A08231 SWAP1 PUSH1 0x24 ADD PUSH1 0x20 PUSH1 0x40 MLOAD DUP1 DUP4 SUB DUP2 DUP7 DUP1 EXTCODESIZE ISZERO DUP1 ISZERO PUSH2 0x1B2C JUMPI PUSH1 0x0 DUP1 REVERT JUMPDEST POP GAS STATICCALL ISZERO DUP1 ISZERO PUSH2 0x1B40 JUMPI RETURNDATASIZE PUSH1 0x0 DUP1 RETURNDATACOPY RETURNDATASIZE PUSH1 0x0 REVERT JUMPDEST POP POP POP POP PUSH1 0x40 MLOAD RETURNDATASIZE PUSH1 0x1F NOT PUSH1 0x1F DUP3 ADD AND DUP3 ADD DUP1 PUSH1 0x40 MSTORE POP DUP2 ADD SWAP1 PUSH2 0x1B64 SWAP2 SWAP1 PUSH2 0x52B9 JUMP JUMPDEST PUSH2 0x180 DUP8 ADD DUP2 SWAP1 MSTORE PUSH2 0x160 DUP8 ADD MLOAD PUSH2 0x1B7B SWAP2 PUSH2 0x5649 JUMP JUMPDEST PUSH2 0x1A0 DUP8 ADD MSTORE PUSH1 0xC0 DUP7 ADD MLOAD PUSH1 0x40 DUP8 ADD MLOAD PUSH2 0x1B96 SWAP2 SWAP1 ADDRESS PUSH2 0x46C6 JUMP JUMPDEST SWAP1 POP DUP1 PUSH1 0x0 DUP2 MLOAD DUP2 LT PUSH2 0x1BAB JUMPI PUSH2 0x1BAB PUSH2 0x56A8 JUMP JUMPDEST PUSH1 0x20 MUL PUSH1 0x20 ADD ADD MLOAD DUP7 PUSH2 0x1A0 ADD MLOAD GT PUSH2 0x1750 JUMPI PUSH1 0x40 MLOAD PUSH3 0x461BCD PUSH1 0xE5 SHL DUP2 MSTORE PUSH1 0x20 PUSH1 0x4 DUP3 ADD MSTORE PUSH1 0x10 PUSH1 0x24 DUP3 ADD MSTORE PUSH16 0x332E322D626E622D6E6F2D6578747261 PUSH1 0x80 SHL PUSH1 0x44 DUP3 ADD MSTORE PUSH1 0x64 ADD PUSH2 0x153 JUMP JUMPDEST DUP6 MLOAD PUSH1 0x4 EQ ISZERO PUSH2 0x255B JUMPI PUSH2 0x1C1D DUP7 PUSH1 0x80 ADD MLOAD PUSH1 0x0 DUP2 MLOAD DUP2 LT PUSH2 0x30F JUMPI PUSH2 0x30F PUSH2 0x56A8 JUMP JUMPDEST PUSH2 0x1C69 JUMPI PUSH1 0x40 MLOAD PUSH3 0x461BCD PUSH1 0xE5 SHL DUP2 MSTORE PUSH1 0x20 PUSH1 0x4 DUP3 ADD MSTORE PUSH1 0x1F PUSH1 0x24 DUP3 ADD MSTORE PUSH32 0x342D7265706179546F6B656E206973206E6F7420737461626C6520636F696E00 PUSH1 0x44 DUP3 ADD MSTORE PUSH1 0x64 ADD PUSH2 0x153 JUMP JUMPDEST PUSH2 0x1C83 DUP7 PUSH1 0x80 ADD MLOAD PUSH1 0x1 DUP2 MLOAD DUP2 LT PUSH2 0x8C6 JUMPI PUSH2 0x8C6 PUSH2 0x56A8 JUMP JUMPDEST ISZERO PUSH2 0x20D4 JUMPI PUSH1 0x40 MLOAD PUSH4 0x70A08231 PUSH1 0xE0 SHL DUP2 MSTORE ADDRESS PUSH1 0x4 DUP3 ADD MSTORE PUSH1 0x1 PUSH1 0x1 PUSH1 0xA0 SHL SUB DUP6 AND SWAP1 PUSH4 0x70A08231 SWAP1 PUSH1 0x24 ADD PUSH1 0x20 PUSH1 0x40 MLOAD DUP1 DUP4 SUB DUP2 DUP7 DUP1 EXTCODESIZE ISZERO DUP1 ISZERO PUSH2 0x1CC7 JUMPI PUSH1 0x0 DUP1 REVERT JUMPDEST POP GAS STATICCALL ISZERO DUP1 ISZERO PUSH2 0x1CDB JUMPI RETURNDATASIZE PUSH1 0x0 DUP1 RETURNDATACOPY RETURNDATASIZE PUSH1 0x0 REVERT JUMPDEST POP POP POP POP PUSH1 0x40 MLOAD RETURNDATASIZE PUSH1 0x1F NOT PUSH1 0x1F DUP3 ADD AND DUP3 ADD DUP1 PUSH1 0x40 MSTORE POP DUP2 ADD SWAP1 PUSH2 0x1CFF SWAP2 SWAP1 PUSH2 0x52B9 JUMP JUMPDEST PUSH2 0x100 DUP8 ADD MSTORE PUSH1 0xE0 DUP7 ADD MLOAD PUSH1 0xA0 DUP8 ADD MLOAD PUSH1 0x40 MLOAD PUSH4 0x7AF1E231 PUSH1 0xE1 SHL DUP2 MSTORE PUSH1 0x1 PUSH1 0x1 PUSH1 0xA0 SHL SUB DUP9 AND SWAP3 PUSH4 0xF5E3C462 SWAP3 PUSH2 0x1D3B SWAP3 DUP10 SWAP1 PUSH1 0x4 ADD PUSH2 0x54AA JUMP JUMPDEST PUSH1 0x20 PUSH1 0x40 MLOAD DUP1 DUP4 SUB DUP2 PUSH1 0x0 DUP8 DUP1 EXTCODESIZE ISZERO DUP1 ISZERO PUSH2 0x1D55 JUMPI PUSH1 0x0 DUP1 REVERT JUMPDEST POP GAS CALL ISZERO DUP1 ISZERO PUSH2 0x1D69 JUMPI RETURNDATASIZE PUSH1 0x0 DUP1 RETURNDATACOPY RETURNDATASIZE PUSH1 0x0 REVERT JUMPDEST POP POP POP POP PUSH1 0x40 MLOAD RETURNDATASIZE PUSH1 0x1F NOT PUSH1 0x1F DUP3 ADD AND DUP3 ADD DUP1 PUSH1 0x40 MSTORE POP DUP2 ADD SWAP1 PUSH2 0x1D8D SWAP2 SWAP1 PUSH2 0x52B9 JUMP JUMPDEST ISZERO PUSH2 0x1DDA JUMPI PUSH1 0x40 MLOAD PUSH3 0x461BCD PUSH1 0xE5 SHL DUP2 MSTORE PUSH1 0x20 PUSH1 0x4 DUP3 ADD MSTORE PUSH1 0x1A PUSH1 0x24 DUP3 ADD MSTORE PUSH32 0x342E312D6C6971756964617465426F72726F77206572726F7220000000000000 PUSH1 0x44 DUP3 ADD MSTORE PUSH1 0x64 ADD PUSH2 0x153 JUMP JUMPDEST PUSH1 0x40 MLOAD PUSH4 0x70A08231 PUSH1 0xE0 SHL DUP2 MSTORE ADDRESS PUSH1 0x4 DUP3 ADD MSTORE PUSH1 0x1 PUSH1 0x1 PUSH1 0xA0 SHL SUB DUP6 AND SWAP1 PUSH4 0x70A08231 SWAP1 PUSH1 0x24 ADD PUSH1 0x20 PUSH1 0x40 MLOAD DUP1 DUP4 SUB DUP2 DUP7 DUP1 EXTCODESIZE ISZERO DUP1 ISZERO PUSH2 0x1E19 JUMPI PUSH1 0x0 DUP1 REVERT JUMPDEST POP GAS STATICCALL ISZERO DUP1 ISZERO PUSH2 0x1E2D JUMPI RETURNDATASIZE PUSH1 0x0 DUP1 RETURNDATACOPY RETURNDATASIZE PUSH1 0x0 REVERT JUMPDEST POP POP POP POP PUSH1 0x40 MLOAD RETURNDATASIZE PUSH1 0x1F NOT PUSH1 0x1F DUP3 ADD AND DUP3 ADD DUP1 PUSH1 0x40 MSTORE POP DUP2 ADD SWAP1 PUSH2 0x1E51 SWAP2 SWAP1 PUSH2 0x52B9 JUMP JUMPDEST PUSH2 0x120 DUP8 ADD DUP2 SWAP1 MSTORE PUSH2 0x100 DUP8 ADD MLOAD PUSH2 0x1E68 SWAP2 PUSH2 0x5649 JUMP JUMPDEST PUSH2 0x140 DUP8 ADD DUP2 SWAP1 MSTORE PUSH2 0x1EBC JUMPI PUSH1 0x40 MLOAD PUSH3 0x461BCD PUSH1 0xE5 SHL DUP2 MSTORE PUSH1 0x20 PUSH1 0x4 DUP3 ADD DUP2 SWAP1 MSTORE PUSH1 0x24 DUP3 ADD MSTORE PUSH32 0x342E312D7365697A65642076746F6B656E20616D6F756E74206973207A65726F PUSH1 0x44 DUP3 ADD MSTORE PUSH1 0x64 ADD PUSH2 0x153 JUMP JUMPDEST SELFBALANCE PUSH2 0x160 DUP8 ADD MSTORE PUSH1 0x80 DUP7 ADD MLOAD DUP1 MLOAD PUSH1 0x1 SWAP1 DUP2 LT PUSH2 0x1EDB JUMPI PUSH2 0x1EDB PUSH2 0x56A8 JUMP JUMPDEST PUSH1 0x20 MUL PUSH1 0x20 ADD ADD MLOAD PUSH1 0x1 PUSH1 0x1 PUSH1 0xA0 SHL SUB AND PUSH4 0xDB006A75 DUP8 PUSH2 0x140 ADD MLOAD PUSH1 0x40 MLOAD DUP3 PUSH4 0xFFFFFFFF AND PUSH1 0xE0 SHL DUP2 MSTORE PUSH1 0x4 ADD PUSH2 0x1F15 SWAP2 DUP2 MSTORE PUSH1 0x20 ADD SWAP1 JUMP JUMPDEST PUSH1 0x20 PUSH1 0x40 MLOAD DUP1 DUP4 SUB DUP2 PUSH1 0x0 DUP8 DUP1 EXTCODESIZE ISZERO DUP1 ISZERO PUSH2 0x1F2F JUMPI PUSH1 0x0 DUP1 REVERT JUMPDEST POP GAS CALL ISZERO DUP1 ISZERO PUSH2 0x1F43 JUMPI RETURNDATASIZE PUSH1 0x0 DUP1 RETURNDATACOPY RETURNDATASIZE PUSH1 0x0 REVERT JUMPDEST POP POP POP POP PUSH1 0x40 MLOAD RETURNDATASIZE PUSH1 0x1F NOT PUSH1 0x1F DUP3 ADD AND DUP3 ADD DUP1 PUSH1 0x40 MSTORE POP DUP2 ADD SWAP1 PUSH2 0x1F67 SWAP2 SWAP1 PUSH2 0x52B9 JUMP JUMPDEST ISZERO PUSH2 0x1FA7 JUMPI PUSH1 0x40 MLOAD PUSH3 0x461BCD PUSH1 0xE5 SHL DUP2 MSTORE PUSH1 0x20 PUSH1 0x4 DUP3 ADD MSTORE PUSH1 0x10 PUSH1 0x24 DUP3 ADD MSTORE PUSH16 0x1A171896B932B232B2B69032B93937B9 PUSH1 0x81 SHL PUSH1 0x44 DUP3 ADD MSTORE PUSH1 0x64 ADD PUSH2 0x153 JUMP JUMPDEST SELFBALANCE PUSH2 0x180 DUP8 ADD DUP2 SWAP1 MSTORE PUSH2 0x160 DUP8 ADD MLOAD PUSH2 0x1FBF SWAP2 PUSH2 0x5649 JUMP JUMPDEST DUP7 PUSH2 0x1A0 ADD DUP2 DUP2 MSTORE POP POP PUSH20 0xBB4CDB9CBD36B01BD1CBAEBF2DE08D9173BC095C PUSH1 0x1 PUSH1 0x1 PUSH1 0xA0 SHL SUB AND PUSH4 0xD0E30DB0 DUP8 PUSH2 0x1A0 ADD MLOAD PUSH1 0x40 MLOAD DUP3 PUSH4 0xFFFFFFFF AND PUSH1 0xE0 SHL DUP2 MSTORE PUSH1 0x4 ADD PUSH1 0x0 PUSH1 0x40 MLOAD DUP1 DUP4 SUB DUP2 DUP6 DUP9 DUP1 EXTCODESIZE ISZERO DUP1 ISZERO PUSH2 0x201D JUMPI PUSH1 0x0 DUP1 REVERT JUMPDEST POP GAS CALL ISZERO DUP1 ISZERO PUSH2 0x2031 JUMPI RETURNDATASIZE PUSH1 0x0 DUP1 RETURNDATACOPY RETURNDATASIZE PUSH1 0x0 REVERT JUMPDEST POP POP POP POP POP PUSH2 0x204A DUP7 PUSH2 0x1A0 ADD MLOAD DUP8 PUSH1 0x40 ADD MLOAD ADDRESS PUSH2 0x4576 JUMP JUMPDEST SWAP1 POP PUSH1 0x0 DUP2 PUSH1 0x1 DUP4 MLOAD PUSH2 0x205D SWAP2 SWAP1 PUSH2 0x5649 JUMP JUMPDEST DUP2 MLOAD DUP2 LT PUSH2 0x206D JUMPI PUSH2 0x206D PUSH2 0x56A8 JUMP JUMPDEST PUSH1 0x20 MUL PUSH1 0x20 ADD ADD MLOAD SWAP1 POP DUP7 PUSH1 0xC0 ADD MLOAD DUP2 GT PUSH2 0x20B9 JUMPI PUSH1 0x40 MLOAD PUSH3 0x461BCD PUSH1 0xE5 SHL DUP2 MSTORE PUSH1 0x20 PUSH1 0x4 DUP3 ADD MSTORE PUSH1 0xC PUSH1 0x24 DUP3 ADD MSTORE PUSH12 0x342E312D6E6F206578747261 PUSH1 0xA0 SHL PUSH1 0x44 DUP3 ADD MSTORE PUSH1 0x64 ADD PUSH2 0x153 JUMP JUMPDEST PUSH1 0xC0 DUP8 ADD MLOAD PUSH2 0x20C8 SWAP1 DUP3 PUSH2 0x5649 JUMP JUMPDEST PUSH2 0x1C0 DUP9 ADD MSTORE POP PUSH2 0x4126 JUMP JUMPDEST PUSH1 0x40 MLOAD PUSH4 0x70A08231 PUSH1 0xE0 SHL DUP2 MSTORE ADDRESS PUSH1 0x4 DUP3 ADD MSTORE PUSH1 0x1 PUSH1 0x1 PUSH1 0xA0 SHL SUB DUP6 AND SWAP1 PUSH4 0x70A08231 SWAP1 PUSH1 0x24 ADD PUSH1 0x20 PUSH1 0x40 MLOAD DUP1 DUP4 SUB DUP2 DUP7 DUP1 EXTCODESIZE ISZERO DUP1 ISZERO PUSH2 0x2113 JUMPI PUSH1 0x0 DUP1 REVERT JUMPDEST POP GAS STATICCALL ISZERO DUP1 ISZERO PUSH2 0x2127 JUMPI RETURNDATASIZE PUSH1 0x0 DUP1 RETURNDATACOPY RETURNDATASIZE PUSH1 0x0 REVERT JUMPDEST POP POP POP POP PUSH1 0x40 MLOAD RETURNDATASIZE PUSH1 0x1F NOT PUSH1 0x1F DUP3 ADD AND DUP3 ADD DUP1 PUSH1 0x40 MSTORE POP DUP2 ADD SWAP1 PUSH2 0x214B SWAP2 SWAP1 PUSH2 0x52B9 JUMP JUMPDEST PUSH2 0x100 DUP8 ADD MSTORE PUSH1 0xE0 DUP7 ADD MLOAD PUSH1 0xA0 DUP8 ADD MLOAD PUSH1 0x40 MLOAD PUSH4 0x7AF1E231 PUSH1 0xE1 SHL DUP2 MSTORE PUSH1 0x1 PUSH1 0x1 PUSH1 0xA0 SHL SUB DUP9 AND SWAP3 PUSH4 0xF5E3C462 SWAP3 PUSH2 0x2187 SWAP3 DUP10 SWAP1 PUSH1 0x4 ADD PUSH2 0x54AA JUMP JUMPDEST PUSH1 0x20 PUSH1 0x40 MLOAD DUP1 DUP4 SUB DUP2 PUSH1 0x0 DUP8 DUP1 EXTCODESIZE ISZERO DUP1 ISZERO PUSH2 0x21A1 JUMPI PUSH1 0x0 DUP1 REVERT JUMPDEST POP GAS CALL ISZERO DUP1 ISZERO PUSH2 0x21B5 JUMPI RETURNDATASIZE PUSH1 0x0 DUP1 RETURNDATACOPY RETURNDATASIZE PUSH1 0x0 REVERT JUMPDEST POP POP POP POP PUSH1 0x40 MLOAD RETURNDATASIZE PUSH1 0x1F NOT PUSH1 0x1F DUP3 ADD AND DUP3 ADD DUP1 PUSH1 0x40 MSTORE POP DUP2 ADD SWAP1 PUSH2 0x21D9 SWAP2 SWAP1 PUSH2 0x52B9 JUMP JUMPDEST ISZERO PUSH2 0x2226 JUMPI PUSH1 0x40 MLOAD PUSH3 0x461BCD PUSH1 0xE5 SHL DUP2 MSTORE PUSH1 0x20 PUSH1 0x4 DUP3 ADD MSTORE PUSH1 0x1A PUSH1 0x24 DUP3 ADD MSTORE PUSH32 0x342E322D6C6971756964617465426F72726F77206572726F7220000000000000 PUSH1 0x44 DUP3 ADD MSTORE PUSH1 0x64 ADD PUSH2 0x153 JUMP JUMPDEST PUSH1 0x40 MLOAD PUSH4 0x70A08231 PUSH1 0xE0 SHL DUP2 MSTORE ADDRESS PUSH1 0x4 DUP3 ADD MSTORE PUSH1 0x1 PUSH1 0x1 PUSH1 0xA0 SHL SUB DUP6 AND SWAP1 PUSH4 0x70A08231 SWAP1 PUSH1 0x24 ADD PUSH1 0x20 PUSH1 0x40 MLOAD DUP1 DUP4 SUB DUP2 DUP7 DUP1 EXTCODESIZE ISZERO DUP1 ISZERO PUSH2 0x2265 JUMPI PUSH1 0x0 DUP1 REVERT JUMPDEST POP GAS STATICCALL ISZERO DUP1 ISZERO PUSH2 0x2279 JUMPI RETURNDATASIZE PUSH1 0x0 DUP1 RETURNDATACOPY RETURNDATASIZE PUSH1 0x0 REVERT JUMPDEST POP POP POP POP PUSH1 0x40 MLOAD RETURNDATASIZE PUSH1 0x1F NOT PUSH1 0x1F DUP3 ADD AND DUP3 ADD DUP1 PUSH1 0x40 MSTORE POP DUP2 ADD SWAP1 PUSH2 0x229D SWAP2 SWAP1 PUSH2 0x52B9 JUMP JUMPDEST PUSH2 0x120 DUP8 ADD DUP2 SWAP1 MSTORE PUSH2 0x100 DUP8 ADD MLOAD PUSH2 0x22B4 SWAP2 PUSH2 0x5649 JUMP JUMPDEST PUSH2 0x140 DUP8 ADD DUP2 SWAP1 MSTORE PUSH2 0x2308 JUMPI PUSH1 0x40 MLOAD PUSH3 0x461BCD PUSH1 0xE5 SHL DUP2 MSTORE PUSH1 0x20 PUSH1 0x4 DUP3 ADD DUP2 SWAP1 MSTORE PUSH1 0x24 DUP3 ADD MSTORE PUSH32 0x342E322D7365697A65642076746F6B656E20616D6F756E74206973207A65726F PUSH1 0x44 DUP3 ADD MSTORE PUSH1 0x64 ADD PUSH2 0x153 JUMP JUMPDEST PUSH1 0x40 MLOAD PUSH4 0x70A08231 PUSH1 0xE0 SHL DUP2 MSTORE ADDRESS PUSH1 0x4 DUP3 ADD MSTORE PUSH1 0x1 PUSH1 0x1 PUSH1 0xA0 SHL SUB DUP4 AND SWAP1 PUSH4 0x70A08231 SWAP1 PUSH1 0x24 ADD PUSH1 0x20 PUSH1 0x40 MLOAD DUP1 DUP4 SUB DUP2 DUP7 DUP1 EXTCODESIZE ISZERO DUP1 ISZERO PUSH2 0x2347 JUMPI PUSH1 0x0 DUP1 REVERT JUMPDEST POP GAS STATICCALL ISZERO DUP1 ISZERO PUSH2 0x235B JUMPI RETURNDATASIZE PUSH1 0x0 DUP1 RETURNDATACOPY RETURNDATASIZE PUSH1 0x0 REVERT JUMPDEST POP POP POP POP PUSH1 0x40 MLOAD RETURNDATASIZE PUSH1 0x1F NOT PUSH1 0x1F DUP3 ADD AND DUP3 ADD DUP1 PUSH1 0x40 MSTORE POP DUP2 ADD SWAP1 PUSH2 0x237F SWAP2 SWAP1 PUSH2 0x52B9 JUMP JUMPDEST PUSH2 0x160 DUP8 ADD MSTORE PUSH2 0x140 DUP7 ADD MLOAD PUSH1 0x40 MLOAD PUSH4 0xDB006A75 PUSH1 0xE0 SHL DUP2 MSTORE PUSH1 0x4 DUP2 ADD SWAP2 SWAP1 SWAP2 MSTORE PUSH1 0x1 PUSH1 0x1 PUSH1 0xA0 SHL SUB DUP6 AND SWAP1 PUSH4 0xDB006A75 SWAP1 PUSH1 0x24 ADD PUSH1 0x20 PUSH1 0x40 MLOAD DUP1 DUP4 SUB DUP2 PUSH1 0x0 DUP8 DUP1 EXTCODESIZE ISZERO DUP1 ISZERO PUSH2 0x23CE JUMPI PUSH1 0x0 DUP1 REVERT JUMPDEST POP GAS CALL ISZERO DUP1 ISZERO PUSH2 0x23E2 JUMPI RETURNDATASIZE PUSH1 0x0 DUP1 RETURNDATACOPY RETURNDATASIZE PUSH1 0x0 REVERT JUMPDEST POP POP POP POP PUSH1 0x40 MLOAD RETURNDATASIZE PUSH1 0x1F NOT PUSH1 0x1F DUP3 ADD AND DUP3 ADD DUP1 PUSH1 0x40 MSTORE POP DUP2 ADD SWAP1 PUSH2 0x2406 SWAP2 SWAP1 PUSH2 0x52B9 JUMP JUMPDEST ISZERO PUSH2 0x2446 JUMPI PUSH1 0x40 MLOAD PUSH3 0x461BCD PUSH1 0xE5 SHL DUP2 MSTORE PUSH1 0x20 PUSH1 0x4 DUP3 ADD MSTORE PUSH1 0x10 PUSH1 0x24 DUP3 ADD MSTORE PUSH16 0x1A171916B932B232B2B69032B93937B9 PUSH1 0x81 SHL PUSH1 0x44 DUP3 ADD MSTORE PUSH1 0x64 ADD PUSH2 0x153 JUMP JUMPDEST PUSH1 0x40 MLOAD PUSH4 0x70A08231 PUSH1 0xE0 SHL DUP2 MSTORE ADDRESS PUSH1 0x4 DUP3 ADD MSTORE PUSH1 0x1 PUSH1 0x1 PUSH1 0xA0 SHL SUB DUP4 AND SWAP1 PUSH4 0x70A08231 SWAP1 PUSH1 0x24 ADD PUSH1 0x20 PUSH1 0x40 MLOAD DUP1 DUP4 SUB DUP2 DUP7 DUP1 EXTCODESIZE ISZERO DUP1 ISZERO PUSH2 0x2485 JUMPI PUSH1 0x0 DUP1 REVERT JUMPDEST POP GAS STATICCALL ISZERO DUP1 ISZERO PUSH2 0x2499 JUMPI RETURNDATASIZE PUSH1 0x0 DUP1 RETURNDATACOPY RETURNDATASIZE PUSH1 0x0 REVERT JUMPDEST POP POP POP POP PUSH1 0x40 MLOAD RETURNDATASIZE PUSH1 0x1F NOT PUSH1 0x1F DUP3 ADD AND DUP3 ADD DUP1 PUSH1 0x40 MSTORE POP DUP2 ADD SWAP1 PUSH2 0x24BD SWAP2 SWAP1 PUSH2 0x52B9 JUMP JUMPDEST PUSH2 0x180 DUP8 ADD DUP2 SWAP1 MSTORE PUSH2 0x160 DUP8 ADD MLOAD PUSH2 0x24D4 SWAP2 PUSH2 0x5649 JUMP JUMPDEST PUSH2 0x1A0 DUP8 ADD DUP2 SWAP1 MSTORE PUSH1 0x40 DUP8 ADD MLOAD PUSH2 0x24EC SWAP2 SWAP1 ADDRESS PUSH2 0x4576 JUMP JUMPDEST SWAP1 POP PUSH1 0x0 DUP2 PUSH1 0x1 DUP4 MLOAD PUSH2 0x24FF SWAP2 SWAP1 PUSH2 0x5649 JUMP JUMPDEST DUP2 MLOAD DUP2 LT PUSH2 0x250F JUMPI PUSH2 0x250F PUSH2 0x56A8 JUMP JUMPDEST PUSH1 0x20 MUL PUSH1 0x20 ADD ADD MLOAD SWAP1 POP DUP7 PUSH1 0xC0 ADD MLOAD DUP2 GT PUSH2 0x20B9 JUMPI PUSH1 0x40 MLOAD PUSH3 0x461BCD PUSH1 0xE5 SHL DUP2 MSTORE PUSH1 0x20 PUSH1 0x4 DUP3 ADD MSTORE PUSH1 0xC PUSH1 0x24 DUP3 ADD MSTORE PUSH12 0x342E322D6E6F206578747261 PUSH1 0xA0 SHL PUSH1 0x44 DUP3 ADD MSTORE PUSH1 0x64 ADD PUSH2 0x153 JUMP JUMPDEST DUP6 MLOAD PUSH1 0x5 EQ ISZERO PUSH2 0x32D5 JUMPI PUSH2 0x257F DUP7 PUSH1 0x80 ADD MLOAD PUSH1 0x0 DUP2 MLOAD DUP2 LT PUSH2 0x8C6 JUMPI PUSH2 0x8C6 PUSH2 0x56A8 JUMP JUMPDEST ISZERO PUSH2 0x2A7B JUMPI PUSH1 0xA0 DUP7 ADD MLOAD PUSH1 0x40 MLOAD PUSH4 0x2E1A7D4D PUSH1 0xE0 SHL DUP2 MSTORE PUSH1 0x4 DUP2 ADD SWAP2 SWAP1 SWAP2 MSTORE PUSH20 0xBB4CDB9CBD36B01BD1CBAEBF2DE08D9173BC095C SWAP1 PUSH4 0x2E1A7D4D SWAP1 PUSH1 0x24 ADD PUSH1 0x0 PUSH1 0x40 MLOAD DUP1 DUP4 SUB DUP2 PUSH1 0x0 DUP8 DUP1 EXTCODESIZE ISZERO DUP1 ISZERO PUSH2 0x25D7 JUMPI PUSH1 0x0 DUP1 REVERT JUMPDEST POP GAS CALL ISZERO DUP1 ISZERO PUSH2 0x25EB JUMPI RETURNDATASIZE PUSH1 0x0 DUP1 RETURNDATACOPY RETURNDATASIZE PUSH1 0x0 REVERT JUMPDEST POP POP PUSH1 0x40 MLOAD PUSH4 0x70A08231 PUSH1 0xE0 SHL DUP2 MSTORE ADDRESS PUSH1 0x4 DUP3 ADD MSTORE PUSH1 0x1 PUSH1 0x1 PUSH1 0xA0 SHL SUB DUP8 AND SWAP3 POP PUSH4 0x70A08231 SWAP2 POP PUSH1 0x24 ADD PUSH1 0x20 PUSH1 0x40 MLOAD DUP1 DUP4 SUB DUP2 DUP7 DUP1 EXTCODESIZE ISZERO DUP1 ISZERO PUSH2 0x262E JUMPI PUSH1 0x0 DUP1 REVERT JUMPDEST POP GAS STATICCALL ISZERO DUP1 ISZERO PUSH2 0x2642 JUMPI RETURNDATASIZE PUSH1 0x0 DUP1 RETURNDATACOPY RETURNDATASIZE PUSH1 0x0 REVERT JUMPDEST POP POP POP POP PUSH1 0x40 MLOAD RETURNDATASIZE PUSH1 0x1F NOT PUSH1 0x1F DUP3 ADD AND DUP3 ADD DUP1 PUSH1 0x40 MSTORE POP DUP2 ADD SWAP1 PUSH2 0x2666 SWAP2 SWAP1 PUSH2 0x52B9 JUMP JUMPDEST PUSH2 0x100 DUP8 ADD MSTORE PUSH1 0x80 DUP7 ADD MLOAD DUP1 MLOAD PUSH1 0x0 SWAP1 PUSH2 0x2682 JUMPI PUSH2 0x2682 PUSH2 0x56A8 JUMP JUMPDEST PUSH1 0x20 MUL PUSH1 0x20 ADD ADD MLOAD PUSH1 0x1 PUSH1 0x1 PUSH1 0xA0 SHL SUB AND PUSH4 0xAAE40A2A DUP8 PUSH1 0xA0 ADD MLOAD DUP9 PUSH1 0xE0 ADD MLOAD DUP10 PUSH1 0x80 ADD MLOAD PUSH1 0x1 DUP2 MLOAD DUP2 LT PUSH2 0x26B9 JUMPI PUSH2 0x26B9 PUSH2 0x56A8 JUMP JUMPDEST PUSH1 0x20 MUL PUSH1 0x20 ADD ADD MLOAD PUSH1 0x40 MLOAD DUP5 PUSH4 0xFFFFFFFF AND PUSH1 0xE0 SHL DUP2 MSTORE PUSH1 0x4 ADD PUSH2 0x26F3 SWAP3 SWAP2 SWAP1 PUSH1 0x1 PUSH1 0x1 PUSH1 0xA0 SHL SUB SWAP3 DUP4 AND DUP2 MSTORE SWAP2 AND PUSH1 0x20 DUP3 ADD MSTORE PUSH1 0x40 ADD SWAP1 JUMP JUMPDEST PUSH1 0x0 PUSH1 0x40 MLOAD DUP1 DUP4 SUB DUP2 DUP6 DUP9 DUP1 EXTCODESIZE ISZERO DUP1 ISZERO PUSH2 0x270C JUMPI PUSH1 0x0 DUP1 REVERT JUMPDEST POP GAS CALL ISZERO DUP1 ISZERO PUSH2 0x2720 JUMPI RETURNDATASIZE PUSH1 0x0 DUP1 RETURNDATACOPY RETURNDATASIZE PUSH1 0x0 REVERT JUMPDEST POP POP PUSH1 0x40 MLOAD PUSH4 0x70A08231 PUSH1 0xE0 SHL DUP2 MSTORE ADDRESS PUSH1 0x4 DUP3 ADD MSTORE PUSH1 0x1 PUSH1 0x1 PUSH1 0xA0 SHL SUB DUP9 AND SWAP4 POP PUSH4 0x70A08231 SWAP3 POP PUSH1 0x24 ADD SWAP1 POP PUSH1 0x20 PUSH1 0x40 MLOAD DUP1 DUP4 SUB DUP2 DUP7 DUP1 EXTCODESIZE ISZERO DUP1 ISZERO PUSH2 0x2765 JUMPI PUSH1 0x0 DUP1 REVERT JUMPDEST POP GAS STATICCALL ISZERO DUP1 ISZERO PUSH2 0x2779 JUMPI RETURNDATASIZE PUSH1 0x0 DUP1 RETURNDATACOPY RETURNDATASIZE PUSH1 0x0 REVERT JUMPDEST POP POP POP POP PUSH1 0x40 MLOAD RETURNDATASIZE PUSH1 0x1F NOT PUSH1 0x1F DUP3 ADD AND DUP3 ADD DUP1 PUSH1 0x40 MSTORE POP DUP2 ADD SWAP1 PUSH2 0x279D SWAP2 SWAP1 PUSH2 0x52B9 JUMP JUMPDEST PUSH2 0x120 DUP8 ADD DUP2 SWAP1 MSTORE PUSH2 0x100 DUP8 ADD MLOAD PUSH2 0x27B4 SWAP2 PUSH2 0x5649 JUMP JUMPDEST PUSH2 0x140 DUP8 ADD DUP2 SWAP1 MSTORE PUSH2 0x2808 JUMPI PUSH1 0x40 MLOAD PUSH3 0x461BCD PUSH1 0xE5 SHL DUP2 MSTORE PUSH1 0x20 PUSH1 0x4 DUP3 ADD DUP2 SWAP1 MSTORE PUSH1 0x24 DUP3 ADD MSTORE PUSH32 0x352E312D7365697A65642076746F6B656E20616D6F756E74206973207A65726F PUSH1 0x44 DUP3 ADD MSTORE PUSH1 0x64 ADD PUSH2 0x153 JUMP JUMPDEST PUSH1 0x40 MLOAD PUSH4 0x70A08231 PUSH1 0xE0 SHL DUP2 MSTORE ADDRESS PUSH1 0x4 DUP3 ADD MSTORE PUSH1 0x1 PUSH1 0x1 PUSH1 0xA0 SHL SUB DUP4 AND SWAP1 PUSH4 0x70A08231 SWAP1 PUSH1 0x24 ADD PUSH1 0x20 PUSH1 0x40 MLOAD DUP1 DUP4 SUB DUP2 DUP7 DUP1 EXTCODESIZE ISZERO DUP1 ISZERO PUSH2 0x2847 JUMPI PUSH1 0x0 DUP1 REVERT JUMPDEST POP GAS STATICCALL ISZERO DUP1 ISZERO PUSH2 0x285B JUMPI RETURNDATASIZE PUSH1 0x0 DUP1 RETURNDATACOPY RETURNDATASIZE PUSH1 0x0 REVERT JUMPDEST POP POP POP POP PUSH1 0x40 MLOAD RETURNDATASIZE PUSH1 0x1F NOT PUSH1 0x1F DUP3 ADD AND DUP3 ADD DUP1 PUSH1 0x40 MSTORE POP DUP2 ADD SWAP1 PUSH2 0x287F SWAP2 SWAP1 PUSH2 0x52B9 JUMP JUMPDEST PUSH2 0x160 DUP8 ADD MSTORE PUSH2 0x140 DUP7 ADD MLOAD PUSH1 0x40 MLOAD PUSH4 0xDB006A75 PUSH1 0xE0 SHL DUP2 MSTORE PUSH1 0x4 DUP2 ADD SWAP2 SWAP1 SWAP2 MSTORE PUSH1 0x1 PUSH1 0x1 PUSH1 0xA0 SHL SUB DUP6 AND SWAP1 PUSH4 0xDB006A75 SWAP1 PUSH1 0x24 ADD PUSH1 0x20 PUSH1 0x40 MLOAD DUP1 DUP4 SUB DUP2 PUSH1 0x0 DUP8 DUP1 EXTCODESIZE ISZERO DUP1 ISZERO PUSH2 0x28CE JUMPI PUSH1 0x0 DUP1 REVERT JUMPDEST POP GAS CALL ISZERO DUP1 ISZERO PUSH2 0x28E2 JUMPI RETURNDATASIZE PUSH1 0x0 DUP1 RETURNDATACOPY RETURNDATASIZE PUSH1 0x0 REVERT JUMPDEST POP POP POP POP PUSH1 0x40 MLOAD RETURNDATASIZE PUSH1 0x1F NOT PUSH1 0x1F DUP3 ADD AND DUP3 ADD DUP1 PUSH1 0x40 MSTORE POP DUP2 ADD SWAP1 PUSH2 0x2906 SWAP2 SWAP1 PUSH2 0x52B9 JUMP JUMPDEST ISZERO PUSH2 0x2946 JUMPI PUSH1 0x40 MLOAD PUSH3 0x461BCD PUSH1 0xE5 SHL DUP2 MSTORE PUSH1 0x20 PUSH1 0x4 DUP3 ADD MSTORE PUSH1 0x10 PUSH1 0x24 DUP3 ADD MSTORE PUSH16 0x1A971896B932B232B2B69032B93937B9 PUSH1 0x81 SHL PUSH1 0x44 DUP3 ADD MSTORE PUSH1 0x64 ADD PUSH2 0x153 JUMP JUMPDEST PUSH1 0x40 MLOAD PUSH4 0x70A08231 PUSH1 0xE0 SHL DUP2 MSTORE ADDRESS PUSH1 0x4 DUP3 ADD MSTORE PUSH1 0x1 PUSH1 0x1 PUSH1 0xA0 SHL SUB DUP4 AND SWAP1 PUSH4 0x70A08231 SWAP1 PUSH1 0x24 ADD PUSH1 0x20 PUSH1 0x40 MLOAD DUP1 DUP4 SUB DUP2 DUP7 DUP1 EXTCODESIZE ISZERO DUP1 ISZERO PUSH2 0x2985 JUMPI PUSH1 0x0 DUP1 REVERT JUMPDEST POP GAS STATICCALL ISZERO DUP1 ISZERO PUSH2 0x2999 JUMPI RETURNDATASIZE PUSH1 0x0 DUP1 RETURNDATACOPY RETURNDATASIZE PUSH1 0x0 REVERT JUMPDEST POP POP POP POP PUSH1 0x40 MLOAD RETURNDATASIZE PUSH1 0x1F NOT PUSH1 0x1F DUP3 ADD AND DUP3 ADD DUP1 PUSH1 0x40 MSTORE POP DUP2 ADD SWAP1 PUSH2 0x29BD SWAP2 SWAP1 PUSH2 0x52B9 JUMP JUMPDEST PUSH2 0x180 DUP8 ADD DUP2 SWAP1 MSTORE PUSH2 0x160 DUP8 ADD MLOAD PUSH2 0x29D4 SWAP2 PUSH2 0x5649 JUMP JUMPDEST PUSH2 0x1A0 DUP8 ADD MSTORE PUSH1 0xC0 DUP7 ADD MLOAD PUSH1 0x40 DUP8 ADD MLOAD PUSH2 0x29EF SWAP2 SWAP1 ADDRESS PUSH2 0x46C6 JUMP JUMPDEST SWAP1 POP DUP1 PUSH1 0x0 DUP2 MLOAD DUP2 LT PUSH2 0x2A04 JUMPI PUSH2 0x2A04 PUSH2 0x56A8 JUMP JUMPDEST PUSH1 0x20 MUL PUSH1 0x20 ADD ADD MLOAD DUP7 PUSH2 0x1A0 ADD MLOAD GT PUSH2 0x2A4E JUMPI PUSH1 0x40 MLOAD PUSH3 0x461BCD PUSH1 0xE5 SHL DUP2 MSTORE PUSH1 0x20 PUSH1 0x4 DUP3 ADD MSTORE PUSH1 0xC PUSH1 0x24 DUP3 ADD MSTORE PUSH12 0x352E312D6E6F206578747261 PUSH1 0xA0 SHL PUSH1 0x44 DUP3 ADD MSTORE PUSH1 0x64 ADD PUSH2 0x153 JUMP JUMPDEST PUSH1 0x0 DUP2 PUSH1 0x0 DUP2 MLOAD DUP2 LT PUSH2 0x2A63 JUMPI PUSH2 0x2A63 PUSH2 0x56A8 JUMP JUMPDEST PUSH1 0x20 MUL PUSH1 0x20 ADD ADD MLOAD DUP8 PUSH2 0x1A0 ADD MLOAD PUSH2 0xD46 SWAP2 SWAP1 PUSH2 0x5649 JUMP JUMPDEST PUSH2 0x2A95 DUP7 PUSH1 0x80 ADD MLOAD PUSH1 0x1 DUP2 MLOAD DUP2 LT PUSH2 0x8C6 JUMPI PUSH2 0x8C6 PUSH2 0x56A8 JUMP JUMPDEST ISZERO PUSH2 0x2E5B JUMPI PUSH1 0x40 MLOAD PUSH4 0x70A08231 PUSH1 0xE0 SHL DUP2 MSTORE ADDRESS PUSH1 0x4 DUP3 ADD MSTORE PUSH1 0x1 PUSH1 0x1 PUSH1 0xA0 SHL SUB DUP6 AND SWAP1 PUSH4 0x70A08231 SWAP1 PUSH1 0x24 ADD PUSH1 0x20 PUSH1 0x40 MLOAD DUP1 DUP4 SUB DUP2 DUP7 DUP1 EXTCODESIZE ISZERO DUP1 ISZERO PUSH2 0x2AD9 JUMPI PUSH1 0x0 DUP1 REVERT JUMPDEST POP GAS STATICCALL ISZERO DUP1 ISZERO PUSH2 0x2AED JUMPI RETURNDATASIZE PUSH1 0x0 DUP1 RETURNDATACOPY RETURNDATASIZE PUSH1 0x0 REVERT JUMPDEST POP POP POP POP PUSH1 0x40 MLOAD RETURNDATASIZE PUSH1 0x1F NOT PUSH1 0x1F DUP3 ADD AND DUP3 ADD DUP1 PUSH1 0x40 MSTORE POP DUP2 ADD SWAP1 PUSH2 0x2B11 SWAP2 SWAP1 PUSH2 0x52B9 JUMP JUMPDEST PUSH2 0x100 DUP8 ADD MSTORE PUSH1 0xE0 DUP7 ADD MLOAD PUSH1 0xA0 DUP8 ADD MLOAD PUSH1 0x40 MLOAD PUSH4 0x7AF1E231 PUSH1 0xE1 SHL DUP2 MSTORE PUSH1 0x1 PUSH1 0x1 PUSH1 0xA0 SHL SUB DUP9 AND SWAP3 PUSH4 0xF5E3C462 SWAP3 PUSH2 0x2B4D SWAP3 DUP10 SWAP1 PUSH1 0x4 ADD PUSH2 0x54AA JUMP JUMPDEST PUSH1 0x20 PUSH1 0x40 MLOAD DUP1 DUP4 SUB DUP2 PUSH1 0x0 DUP8 DUP1 EXTCODESIZE ISZERO DUP1 ISZERO PUSH2 0x2B67 JUMPI PUSH1 0x0 DUP1 REVERT JUMPDEST POP GAS CALL ISZERO DUP1 ISZERO PUSH2 0x2B7B JUMPI RETURNDATASIZE PUSH1 0x0 DUP1 RETURNDATACOPY RETURNDATASIZE PUSH1 0x0 REVERT JUMPDEST POP POP POP POP PUSH1 0x40 MLOAD RETURNDATASIZE PUSH1 0x1F NOT PUSH1 0x1F DUP3 ADD AND DUP3 ADD DUP1 PUSH1 0x40 MSTORE POP DUP2 ADD SWAP1 PUSH2 0x2B9F SWAP2 SWAP1 PUSH2 0x52B9 JUMP JUMPDEST ISZERO PUSH2 0x2BEC JUMPI PUSH1 0x40 MLOAD PUSH3 0x461BCD PUSH1 0xE5 SHL DUP2 MSTORE PUSH1 0x20 PUSH1 0x4 DUP3 ADD MSTORE PUSH1 0x19 PUSH1 0x24 DUP3 ADD MSTORE PUSH32 0x352E322D6C6971756964617465426F72726F77206572726F7200000000000000 PUSH1 0x44 DUP3 ADD MSTORE PUSH1 0x64 ADD PUSH2 0x153 JUMP JUMPDEST PUSH1 0x40 MLOAD PUSH4 0x70A08231 PUSH1 0xE0 SHL DUP2 MSTORE ADDRESS PUSH1 0x4 DUP3 ADD MSTORE PUSH1 0x1 PUSH1 0x1 PUSH1 0xA0 SHL SUB DUP6 AND SWAP1 PUSH4 0x70A08231 SWAP1 PUSH1 0x24 ADD PUSH1 0x20 PUSH1 0x40 MLOAD DUP1 DUP4 SUB DUP2 DUP7 DUP1 EXTCODESIZE ISZERO DUP1 ISZERO PUSH2 0x2C2B JUMPI PUSH1 0x0 DUP1 REVERT JUMPDEST POP GAS STATICCALL ISZERO DUP1 ISZERO PUSH2 0x2C3F JUMPI RETURNDATASIZE PUSH1 0x0 DUP1 RETURNDATACOPY RETURNDATASIZE PUSH1 0x0 REVERT JUMPDEST POP POP POP POP PUSH1 0x40 MLOAD RETURNDATASIZE PUSH1 0x1F NOT PUSH1 0x1F DUP3 ADD AND DUP3 ADD DUP1 PUSH1 0x40 MSTORE POP DUP2 ADD SWAP1 PUSH2 0x2C63 SWAP2 SWAP1 PUSH2 0x52B9 JUMP JUMPDEST PUSH2 0x120 DUP8 ADD DUP2 SWAP1 MSTORE PUSH2 0x100 DUP8 ADD MLOAD PUSH2 0x2C7A SWAP2 PUSH2 0x5649 JUMP JUMPDEST PUSH2 0x140 DUP8 ADD DUP2 SWAP1 MSTORE PUSH2 0x2CCE JUMPI PUSH1 0x40 MLOAD PUSH3 0x461BCD PUSH1 0xE5 SHL DUP2 MSTORE PUSH1 0x20 PUSH1 0x4 DUP3 ADD DUP2 SWAP1 MSTORE PUSH1 0x24 DUP3 ADD MSTORE PUSH32 0x352E322D7365697A65642076746F6B656E20616D6F756E74206973207A65726F PUSH1 0x44 DUP3 ADD MSTORE PUSH1 0x64 ADD PUSH2 0x153 JUMP JUMPDEST SELFBALANCE PUSH2 0x160 DUP8 ADD MSTORE PUSH1 0x80 DUP7 ADD MLOAD DUP1 MLOAD PUSH1 0x1 SWAP1 DUP2 LT PUSH2 0x2CED JUMPI PUSH2 0x2CED PUSH2 0x56A8 JUMP JUMPDEST PUSH1 0x20 MUL PUSH1 0x20 ADD ADD MLOAD PUSH1 0x1 PUSH1 0x1 PUSH1 0xA0 SHL SUB AND PUSH4 0xDB006A75 DUP8 PUSH2 0x140 ADD MLOAD PUSH1 0x40 MLOAD DUP3 PUSH4 0xFFFFFFFF AND PUSH1 0xE0 SHL DUP2 MSTORE PUSH1 0x4 ADD PUSH2 0x2D27 SWAP2 DUP2 MSTORE PUSH1 0x20 ADD SWAP1 JUMP JUMPDEST PUSH1 0x20 PUSH1 0x40 MLOAD DUP1 DUP4 SUB DUP2 PUSH1 0x0 DUP8 DUP1 EXTCODESIZE ISZERO DUP1 ISZERO PUSH2 0x2D41 JUMPI PUSH1 0x0 DUP1 REVERT JUMPDEST POP GAS CALL ISZERO DUP1 ISZERO PUSH2 0x2D55 JUMPI RETURNDATASIZE PUSH1 0x0 DUP1 RETURNDATACOPY RETURNDATASIZE PUSH1 0x0 REVERT JUMPDEST POP POP POP POP PUSH1 0x40 MLOAD RETURNDATASIZE PUSH1 0x1F NOT PUSH1 0x1F DUP3 ADD AND DUP3 ADD DUP1 PUSH1 0x40 MSTORE POP DUP2 ADD SWAP1 PUSH2 0x2D79 SWAP2 SWAP1 PUSH2 0x52B9 JUMP JUMPDEST ISZERO PUSH2 0x2DB9 JUMPI PUSH1 0x40 MLOAD PUSH3 0x461BCD PUSH1 0xE5 SHL DUP2 MSTORE PUSH1 0x20 PUSH1 0x4 DUP3 ADD MSTORE PUSH1 0x10 PUSH1 0x24 DUP3 ADD MSTORE PUSH16 0x1A971916B932B232B2B69032B93937B9 PUSH1 0x81 SHL PUSH1 0x44 DUP3 ADD MSTORE PUSH1 0x64 ADD PUSH2 0x153 JUMP JUMPDEST SELFBALANCE PUSH2 0x180 DUP8 ADD DUP2 SWAP1 MSTORE PUSH2 0x160 DUP8 ADD MLOAD PUSH2 0x2DD1 SWAP2 PUSH2 0x5649 JUMP JUMPDEST DUP7 PUSH2 0x1A0 ADD DUP2 DUP2 MSTORE POP POP PUSH20 0xBB4CDB9CBD36B01BD1CBAEBF2DE08D9173BC095C PUSH1 0x1 PUSH1 0x1 PUSH1 0xA0 SHL SUB AND PUSH4 0xD0E30DB0 DUP8 PUSH2 0x1A0 ADD MLOAD PUSH1 0x40 MLOAD DUP3 PUSH4 0xFFFFFFFF AND PUSH1 0xE0 SHL DUP2 MSTORE PUSH1 0x4 ADD PUSH1 0x0 PUSH1 0x40 MLOAD DUP1 DUP4 SUB DUP2 DUP6 DUP9 DUP1 EXTCODESIZE ISZERO DUP1 ISZERO PUSH2 0x2E2F JUMPI PUSH1 0x0 DUP1 REVERT JUMPDEST POP GAS CALL ISZERO DUP1 ISZERO PUSH2 0x2E43 JUMPI RETURNDATASIZE PUSH1 0x0 DUP1 RETURNDATACOPY RETURNDATASIZE PUSH1 0x0 REVERT JUMPDEST POP POP POP POP POP PUSH2 0x29EF DUP7 PUSH1 0xC0 ADD MLOAD DUP8 PUSH1 0x40 ADD MLOAD ADDRESS PUSH2 0x46C6 JUMP JUMPDEST PUSH1 0x40 MLOAD PUSH4 0x70A08231 PUSH1 0xE0 SHL DUP2 MSTORE ADDRESS PUSH1 0x4 DUP3 ADD MSTORE PUSH1 0x1 PUSH1 0x1 PUSH1 0xA0 SHL SUB DUP6 AND SWAP1 PUSH4 0x70A08231 SWAP1 PUSH1 0x24 ADD PUSH1 0x20 PUSH1 0x40 MLOAD DUP1 DUP4 SUB DUP2 DUP7 DUP1 EXTCODESIZE ISZERO DUP1 ISZERO PUSH2 0x2E9A JUMPI PUSH1 0x0 DUP1 REVERT JUMPDEST POP GAS STATICCALL ISZERO DUP1 ISZERO PUSH2 0x2EAE JUMPI RETURNDATASIZE PUSH1 0x0 DUP1 RETURNDATACOPY RETURNDATASIZE PUSH1 0x0 REVERT JUMPDEST POP POP POP POP PUSH1 0x40 MLOAD RETURNDATASIZE PUSH1 0x1F NOT PUSH1 0x1F DUP3 ADD AND DUP3 ADD DUP1 PUSH1 0x40 MSTORE POP DUP2 ADD SWAP1 PUSH2 0x2ED2 SWAP2 SWAP1 PUSH2 0x52B9 JUMP JUMPDEST PUSH2 0x100 DUP8 ADD MSTORE PUSH1 0xE0 DUP7 ADD MLOAD PUSH1 0xA0 DUP8 ADD MLOAD PUSH1 0x40 MLOAD PUSH4 0x7AF1E231 PUSH1 0xE1 SHL DUP2 MSTORE PUSH1 0x1 PUSH1 0x1 PUSH1 0xA0 SHL SUB DUP9 AND SWAP3 PUSH4 0xF5E3C462 SWAP3 PUSH2 0x2F0E SWAP3 DUP10 SWAP1 PUSH1 0x4 ADD PUSH2 0x54AA JUMP JUMPDEST PUSH1 0x20 PUSH1 0x40 MLOAD DUP1 DUP4 SUB DUP2 PUSH1 0x0 DUP8 DUP1 EXTCODESIZE ISZERO DUP1 ISZERO PUSH2 0x2F28 JUMPI PUSH1 0x0 DUP1 REVERT JUMPDEST POP GAS CALL ISZERO DUP1 ISZERO PUSH2 0x2F3C JUMPI RETURNDATASIZE PUSH1 0x0 DUP1 RETURNDATACOPY RETURNDATASIZE PUSH1 0x0 REVERT JUMPDEST POP POP POP POP PUSH1 0x40 MLOAD RETURNDATASIZE PUSH1 0x1F NOT PUSH1 0x1F DUP3 ADD AND DUP3 ADD DUP1 PUSH1 0x40 MSTORE POP DUP2 ADD SWAP1 PUSH2 0x2F60 SWAP2 SWAP1 PUSH2 0x52B9 JUMP JUMPDEST ISZERO PUSH2 0x2FAD JUMPI PUSH1 0x40 MLOAD PUSH3 0x461BCD PUSH1 0xE5 SHL DUP2 MSTORE PUSH1 0x20 PUSH1 0x4 DUP3 ADD MSTORE PUSH1 0x1A PUSH1 0x24 DUP3 ADD MSTORE PUSH32 0x352E332D6C6971756964617465426F72726F77206572726F7220000000000000 PUSH1 0x44 DUP3 ADD MSTORE PUSH1 0x64 ADD PUSH2 0x153 JUMP JUMPDEST PUSH1 0x40 MLOAD PUSH4 0x70A08231 PUSH1 0xE0 SHL DUP2 MSTORE ADDRESS PUSH1 0x4 DUP3 ADD MSTORE PUSH1 0x1 PUSH1 0x1 PUSH1 0xA0 SHL SUB DUP6 AND SWAP1 PUSH4 0x70A08231 SWAP1 PUSH1 0x24 ADD PUSH1 0x20 PUSH1 0x40 MLOAD DUP1 DUP4 SUB DUP2 DUP7 DUP1 EXTCODESIZE ISZERO DUP1 ISZERO PUSH2 0x2FEC JUMPI PUSH1 0x0 DUP1 REVERT JUMPDEST POP GAS STATICCALL ISZERO DUP1 ISZERO PUSH2 0x3000 JUMPI RETURNDATASIZE PUSH1 0x0 DUP1 RETURNDATACOPY RETURNDATASIZE PUSH1 0x0 REVERT JUMPDEST POP POP POP POP PUSH1 0x40 MLOAD RETURNDATASIZE PUSH1 0x1F NOT PUSH1 0x1F DUP3 ADD AND DUP3 ADD DUP1 PUSH1 0x40 MSTORE POP DUP2 ADD SWAP1 PUSH2 0x3024 SWAP2 SWAP1 PUSH2 0x52B9 JUMP JUMPDEST PUSH2 0x120 DUP8 ADD DUP2 SWAP1 MSTORE PUSH2 0x100 DUP8 ADD MLOAD PUSH2 0x303B SWAP2 PUSH2 0x5649 JUMP JUMPDEST PUSH2 0x140 DUP8 ADD DUP2 SWAP1 MSTORE PUSH2 0x308F JUMPI PUSH1 0x40 MLOAD PUSH3 0x461BCD PUSH1 0xE5 SHL DUP2 MSTORE PUSH1 0x20 PUSH1 0x4 DUP3 ADD DUP2 SWAP1 MSTORE PUSH1 0x24 DUP3 ADD MSTORE PUSH32 0x352E332D7365697A65642076746F6B656E20616D6F756E74206973207A65726F PUSH1 0x44 DUP3 ADD MSTORE PUSH1 0x64 ADD PUSH2 0x153 JUMP JUMPDEST PUSH1 0x40 MLOAD PUSH4 0x70A08231 PUSH1 0xE0 SHL DUP2 MSTORE ADDRESS PUSH1 0x4 DUP3 ADD MSTORE PUSH1 0x1 PUSH1 0x1 PUSH1 0xA0 SHL SUB DUP4 AND SWAP1 PUSH4 0x70A08231 SWAP1 PUSH1 0x24 ADD PUSH1 0x20 PUSH1 0x40 MLOAD DUP1 DUP4 SUB DUP2 DUP7 DUP1 EXTCODESIZE ISZERO DUP1 ISZERO PUSH2 0x30CE JUMPI PUSH1 0x0 DUP1 REVERT JUMPDEST POP GAS STATICCALL ISZERO DUP1 ISZERO PUSH2 0x30E2 JUMPI RETURNDATASIZE PUSH1 0x0 DUP1 RETURNDATACOPY RETURNDATASIZE PUSH1 0x0 REVERT JUMPDEST POP POP POP POP PUSH1 0x40 MLOAD RETURNDATASIZE PUSH1 0x1F NOT PUSH1 0x1F DUP3 ADD AND DUP3 ADD DUP1 PUSH1 0x40 MSTORE POP DUP2 ADD SWAP1 PUSH2 0x3106 SWAP2 SWAP1 PUSH2 0x52B9 JUMP JUMPDEST PUSH2 0x160 DUP8 ADD MSTORE PUSH2 0x140 DUP7 ADD MLOAD PUSH1 0x40 MLOAD PUSH4 0xDB006A75 PUSH1 0xE0 SHL DUP2 MSTORE PUSH1 0x4 DUP2 ADD SWAP2 SWAP1 SWAP2 MSTORE PUSH1 0x1 PUSH1 0x1 PUSH1 0xA0 SHL SUB DUP6 AND SWAP1 PUSH4 0xDB006A75 SWAP1 PUSH1 0x24 ADD PUSH1 0x20 PUSH1 0x40 MLOAD DUP1 DUP4 SUB DUP2 PUSH1 0x0 DUP8 DUP1 EXTCODESIZE ISZERO DUP1 ISZERO PUSH2 0x3155 JUMPI PUSH1 0x0 DUP1 REVERT JUMPDEST POP GAS CALL ISZERO DUP1 ISZERO PUSH2 0x3169 JUMPI RETURNDATASIZE PUSH1 0x0 DUP1 RETURNDATACOPY RETURNDATASIZE PUSH1 0x0 REVERT JUMPDEST POP POP POP POP PUSH1 0x40 MLOAD RETURNDATASIZE PUSH1 0x1F NOT PUSH1 0x1F DUP3 ADD AND DUP3 ADD DUP1 PUSH1 0x40 MSTORE POP DUP2 ADD SWAP1 PUSH2 0x318D SWAP2 SWAP1 PUSH2 0x52B9 JUMP JUMPDEST ISZERO PUSH2 0x31CD JUMPI PUSH1 0x40 MLOAD PUSH3 0x461BCD PUSH1 0xE5 SHL DUP2 MSTORE PUSH1 0x20 PUSH1 0x4 DUP3 ADD MSTORE PUSH1 0x10 PUSH1 0x24 DUP3 ADD MSTORE PUSH16 0x1A971996B932B232B2B69032B93937B9 PUSH1 0x81 SHL PUSH1 0x44 DUP3 ADD MSTORE PUSH1 0x64 ADD PUSH2 0x153 JUMP JUMPDEST PUSH1 0x40 MLOAD PUSH4 0x70A08231 PUSH1 0xE0 SHL DUP2 MSTORE ADDRESS PUSH1 0x4 DUP3 ADD MSTORE PUSH1 0x1 PUSH1 0x1 PUSH1 0xA0 SHL SUB DUP4 AND SWAP1 PUSH4 0x70A08231 SWAP1 PUSH1 0x24 ADD PUSH1 0x20 PUSH1 0x40 MLOAD DUP1 DUP4 SUB DUP2 DUP7 DUP1 EXTCODESIZE ISZERO DUP1 ISZERO PUSH2 0x320C JUMPI PUSH1 0x0 DUP1 REVERT JUMPDEST POP GAS STATICCALL ISZERO DUP1 ISZERO PUSH2 0x3220 JUMPI RETURNDATASIZE PUSH1 0x0 DUP1 RETURNDATACOPY RETURNDATASIZE PUSH1 0x0 REVERT JUMPDEST POP POP POP POP PUSH1 0x40 MLOAD RETURNDATASIZE PUSH1 0x1F NOT PUSH1 0x1F DUP3 ADD AND DUP3 ADD DUP1 PUSH1 0x40 MSTORE POP DUP2 ADD SWAP1 PUSH2 0x3244 SWAP2 SWAP1 PUSH2 0x52B9 JUMP JUMPDEST PUSH2 0x180 DUP8 ADD DUP2 SWAP1 MSTORE PUSH2 0x160 DUP8 ADD MLOAD PUSH2 0x325B SWAP2 PUSH2 0x5649 JUMP JUMPDEST PUSH2 0x1A0 DUP8 ADD MSTORE PUSH1 0xC0 DUP7 ADD MLOAD PUSH1 0x40 DUP8 ADD MLOAD PUSH2 0x3276 SWAP2 SWAP1 ADDRESS PUSH2 0x46C6 JUMP JUMPDEST SWAP1 POP DUP1 PUSH1 0x0 DUP2 MLOAD DUP2 LT PUSH2 0x328B JUMPI PUSH2 0x328B PUSH2 0x56A8 JUMP JUMPDEST PUSH1 0x20 MUL PUSH1 0x20 ADD ADD MLOAD DUP7 PUSH2 0x1A0 ADD MLOAD GT PUSH2 0x2A4E JUMPI PUSH1 0x40 MLOAD PUSH3 0x461BCD PUSH1 0xE5 SHL DUP2 MSTORE PUSH1 0x20 PUSH1 0x4 DUP3 ADD MSTORE PUSH1 0xC PUSH1 0x24 DUP3 ADD MSTORE PUSH12 0x352E332D6E6F206578747261 PUSH1 0xA0 SHL PUSH1 0x44 DUP3 ADD MSTORE PUSH1 0x64 ADD PUSH2 0x153 JUMP JUMPDEST DUP6 MLOAD PUSH1 0x6 EQ ISZERO PUSH2 0x383B JUMPI PUSH2 0x32F9 DUP7 PUSH1 0x80 ADD MLOAD PUSH1 0x1 DUP2 MLOAD DUP2 LT PUSH2 0x30F JUMPI PUSH2 0x30F PUSH2 0x56A8 JUMP JUMPDEST PUSH2 0x3345 JUMPI PUSH1 0x40 MLOAD PUSH3 0x461BCD PUSH1 0xE5 SHL DUP2 MSTORE PUSH1 0x20 PUSH1 0x4 DUP3 ADD DUP2 SWAP1 MSTORE PUSH1 0x24 DUP3 ADD MSTORE PUSH32 0x362D7365697A6564546F6B656E206973206E6F7420737461626C6520636F696E PUSH1 0x44 DUP3 ADD MSTORE PUSH1 0x64 ADD PUSH2 0x153 JUMP JUMPDEST PUSH1 0x40 MLOAD PUSH4 0x70A08231 PUSH1 0xE0 SHL DUP2 MSTORE ADDRESS PUSH1 0x4 DUP3 ADD MSTORE PUSH1 0x1 PUSH1 0x1 PUSH1 0xA0 SHL SUB DUP6 AND SWAP1 PUSH4 0x70A08231 SWAP1 PUSH1 0x24 ADD PUSH1 0x20 PUSH1 0x40 MLOAD DUP1 DUP4 SUB DUP2 DUP7 DUP1 EXTCODESIZE ISZERO DUP1 ISZERO PUSH2 0x3384 JUMPI PUSH1 0x0 DUP1 REVERT JUMPDEST POP GAS STATICCALL ISZERO DUP1 ISZERO PUSH2 0x3398 JUMPI RETURNDATASIZE PUSH1 0x0 DUP1 RETURNDATACOPY RETURNDATASIZE PUSH1 0x0 REVERT JUMPDEST POP POP POP POP PUSH1 0x40 MLOAD RETURNDATASIZE PUSH1 0x1F NOT PUSH1 0x1F DUP3 ADD AND DUP3 ADD DUP1 PUSH1 0x40 MSTORE POP DUP2 ADD SWAP1 PUSH2 0x33BC SWAP2 SWAP1 PUSH2 0x52B9 JUMP JUMPDEST PUSH2 0x100 DUP8 ADD MSTORE PUSH1 0x80 DUP7 ADD MLOAD DUP1 MLOAD PUSH1 0x0 SWAP2 DUP3 SWAP2 DUP3 SWAP1 PUSH2 0x33DC JUMPI PUSH2 0x33DC PUSH2 0x56A8 JUMP JUMPDEST PUSH1 0x20 MUL PUSH1 0x20 ADD ADD MLOAD PUSH1 0x1 PUSH1 0x1 PUSH1 0xA0 SHL SUB AND PUSH4 0x11B3D5E7 DUP10 PUSH1 0xE0 ADD MLOAD DUP11 PUSH1 0xA0 ADD MLOAD DUP10 PUSH1 0x40 MLOAD DUP5 PUSH4 0xFFFFFFFF AND PUSH1 0xE0 SHL DUP2 MSTORE PUSH1 0x4 ADD PUSH2 0x341B SWAP4 SWAP3 SWAP2 SWAP1 PUSH2 0x54AA JUMP JUMPDEST PUSH1 0x40 DUP1 MLOAD DUP1 DUP4 SUB DUP2 PUSH1 0x0 DUP8 DUP1 EXTCODESIZE ISZERO DUP1 ISZERO PUSH2 0x3434 JUMPI PUSH1 0x0 DUP1 REVERT JUMPDEST POP GAS CALL ISZERO DUP1 ISZERO PUSH2 0x3448 JUMPI RETURNDATASIZE PUSH1 0x0 DUP1 RETURNDATACOPY RETURNDATASIZE PUSH1 0x0 REVERT JUMPDEST POP POP POP POP PUSH1 0x40 MLOAD RETURNDATASIZE PUSH1 0x1F NOT PUSH1 0x1F DUP3 ADD AND DUP3 ADD DUP1 PUSH1 0x40 MSTORE POP DUP2 ADD SWAP1 PUSH2 0x346C SWAP2 SWAP1 PUSH2 0x543D JUMP JUMPDEST SWAP2 POP SWAP2 POP DUP2 PUSH1 0x0 EQ PUSH2 0x34C0 JUMPI PUSH1 0x40 MLOAD PUSH3 0x461BCD PUSH1 0xE5 SHL DUP2 MSTORE PUSH1 0x20 PUSH1 0x4 DUP3 ADD MSTORE PUSH1 0x18 PUSH1 0x24 DUP3 ADD MSTORE PUSH32 0x362D6C6971756964617465426F72726F77206572726F72200000000000000000 PUSH1 0x44 DUP3 ADD MSTORE PUSH1 0x64 ADD PUSH2 0x153 JUMP JUMPDEST PUSH1 0x40 MLOAD PUSH4 0x70A08231 PUSH1 0xE0 SHL DUP2 MSTORE ADDRESS PUSH1 0x4 DUP3 ADD MSTORE PUSH1 0x1 PUSH1 0x1 PUSH1 0xA0 SHL SUB DUP8 AND SWAP1 PUSH4 0x70A08231 SWAP1 PUSH1 0x24 ADD PUSH1 0x20 PUSH1 0x40 MLOAD DUP1 DUP4 SUB DUP2 DUP7 DUP1 EXTCODESIZE ISZERO DUP1 ISZERO PUSH2 0x34FF JUMPI PUSH1 0x0 DUP1 REVERT JUMPDEST POP GAS STATICCALL ISZERO DUP1 ISZERO PUSH2 0x3513 JUMPI RETURNDATASIZE PUSH1 0x0 DUP1 RETURNDATACOPY RETURNDATASIZE PUSH1 0x0 REVERT JUMPDEST POP POP POP POP PUSH1 0x40 MLOAD RETURNDATASIZE PUSH1 0x1F NOT PUSH1 0x1F DUP3 ADD AND DUP3 ADD DUP1 PUSH1 0x40 MSTORE POP DUP2 ADD SWAP1 PUSH2 0x3537 SWAP2 SWAP1 PUSH2 0x52B9 JUMP JUMPDEST PUSH2 0x120 DUP10 ADD DUP2 SWAP1 MSTORE PUSH2 0x100 DUP10 ADD MLOAD PUSH2 0x354E SWAP2 PUSH2 0x5649 JUMP JUMPDEST PUSH2 0x140 DUP10 ADD DUP2 SWAP1 MSTORE PUSH2 0x35A2 JUMPI PUSH1 0x40 MLOAD PUSH3 0x461BCD PUSH1 0xE5 SHL DUP2 MSTORE PUSH1 0x20 PUSH1 0x4 DUP3 ADD MSTORE PUSH1 0x1E PUSH1 0x24 DUP3 ADD MSTORE PUSH32 0x362D7365697A65642076746F6B656E20616D6F756E74206973207A65726F0000 PUSH1 0x44 DUP3 ADD MSTORE PUSH1 0x64 ADD PUSH2 0x153 JUMP JUMPDEST PUSH1 0x40 MLOAD PUSH4 0x70A08231 PUSH1 0xE0 SHL DUP2 MSTORE ADDRESS PUSH1 0x4 DUP3 ADD MSTORE PUSH1 0x1 PUSH1 0x1 PUSH1 0xA0 SHL SUB DUP6 AND SWAP1 PUSH4 0x70A08231 SWAP1 PUSH1 0x24 ADD PUSH1 0x20 PUSH1 0x40 MLOAD DUP1 DUP4 SUB DUP2 DUP7 DUP1 EXTCODESIZE ISZERO DUP1 ISZERO PUSH2 0x35E1 JUMPI PUSH1 0x0 DUP1 REVERT JUMPDEST POP GAS STATICCALL ISZERO DUP1 ISZERO PUSH2 0x35F5 JUMPI RETURNDATASIZE PUSH1 0x0 DUP1 RETURNDATACOPY RETURNDATASIZE PUSH1 0x0 REVERT JUMPDEST POP POP POP POP PUSH1 0x40 MLOAD RETURNDATASIZE PUSH1 0x1F NOT PUSH1 0x1F DUP3 ADD AND DUP3 ADD DUP1 PUSH1 0x40 MSTORE POP DUP2 ADD SWAP1 PUSH2 0x3619 SWAP2 SWAP1 PUSH2 0x52B9 JUMP JUMPDEST PUSH2 0x160 DUP10 ADD MSTORE PUSH2 0x140 DUP9 ADD MLOAD PUSH1 0x40 MLOAD PUSH4 0xDB006A75 PUSH1 0xE0 SHL DUP2 MSTORE PUSH1 0x4 DUP2 ADD SWAP2 SWAP1 SWAP2 MSTORE PUSH1 0x1 PUSH1 0x1 PUSH1 0xA0 SHL SUB DUP8 AND SWAP1 PUSH4 0xDB006A75 SWAP1 PUSH1 0x24 ADD PUSH1 0x20 PUSH1 0x40 MLOAD DUP1 DUP4 SUB DUP2 PUSH1 0x0 DUP8 DUP1 EXTCODESIZE ISZERO DUP1 ISZERO PUSH2 0x3668 JUMPI PUSH1 0x0 DUP1 REVERT JUMPDEST POP GAS CALL ISZERO DUP1 ISZERO PUSH2 0x367C JUMPI RETURNDATASIZE PUSH1 0x0 DUP1 RETURNDATACOPY RETURNDATASIZE PUSH1 0x0 REVERT JUMPDEST POP POP POP POP PUSH1 0x40 MLOAD RETURNDATASIZE PUSH1 0x1F NOT PUSH1 0x1F DUP3 ADD AND DUP3 ADD DUP1 PUSH1 0x40 MSTORE POP DUP2 ADD SWAP1 PUSH2 0x36A0 SWAP2 SWAP1 PUSH2 0x52B9 JUMP JUMPDEST ISZERO PUSH2 0x36DE JUMPI PUSH1 0x40 MLOAD PUSH3 0x461BCD PUSH1 0xE5 SHL DUP2 MSTORE PUSH1 0x20 PUSH1 0x4 DUP3 ADD MSTORE PUSH1 0xE PUSH1 0x24 DUP3 ADD MSTORE PUSH14 0x1B16B932B232B2B69032B93937B9 PUSH1 0x91 SHL PUSH1 0x44 DUP3 ADD MSTORE PUSH1 0x64 ADD PUSH2 0x153 JUMP JUMPDEST PUSH1 0x40 MLOAD PUSH4 0x70A08231 PUSH1 0xE0 SHL DUP2 MSTORE ADDRESS PUSH1 0x4 DUP3 ADD MSTORE PUSH1 0x1 PUSH1 0x1 PUSH1 0xA0 SHL SUB DUP6 AND SWAP1 PUSH4 0x70A08231 SWAP1 PUSH1 0x24 ADD PUSH1 0x20 PUSH1 0x40 MLOAD DUP1 DUP4 SUB DUP2 DUP7 DUP1 EXTCODESIZE ISZERO DUP1 ISZERO PUSH2 0x371D JUMPI PUSH1 0x0 DUP1 REVERT JUMPDEST POP GAS STATICCALL ISZERO DUP1 ISZERO PUSH2 0x3731 JUMPI RETURNDATASIZE PUSH1 0x0 DUP1 RETURNDATACOPY RETURNDATASIZE PUSH1 0x0 REVERT JUMPDEST POP POP POP POP PUSH1 0x40 MLOAD RETURNDATASIZE PUSH1 0x1F NOT PUSH1 0x1F DUP3 ADD AND DUP3 ADD DUP1 PUSH1 0x40 MSTORE POP DUP2 ADD SWAP1 PUSH2 0x3755 SWAP2 SWAP1 PUSH2 0x52B9 JUMP JUMPDEST PUSH2 0x180 DUP10 ADD DUP2 SWAP1 MSTORE PUSH2 0x160 DUP10 ADD MLOAD PUSH2 0x376C SWAP2 PUSH2 0x5649 JUMP JUMPDEST PUSH2 0x1A0 DUP10 ADD MSTORE PUSH1 0xA0 DUP9 ADD MLOAD PUSH1 0xC0 DUP10 ADD MLOAD PUSH1 0x0 SWAP2 SWAP1 PUSH2 0x378B SWAP1 DUP5 SWAP1 PUSH2 0x55F0 JUMP JUMPDEST PUSH2 0x3795 SWAP2 SWAP1 PUSH2 0x5649 JUMP JUMPDEST SWAP1 POP PUSH2 0x37A6 DUP2 DUP11 PUSH1 0x40 ADD MLOAD ADDRESS PUSH2 0x46C6 JUMP JUMPDEST POP DUP4 PUSH1 0x0 DUP2 MLOAD DUP2 LT PUSH2 0x37BA JUMPI PUSH2 0x37BA PUSH2 0x56A8 JUMP JUMPDEST PUSH1 0x20 MUL PUSH1 0x20 ADD ADD MLOAD DUP10 PUSH2 0x1A0 ADD MLOAD GT PUSH2 0x3801 JUMPI PUSH1 0x40 MLOAD PUSH3 0x461BCD PUSH1 0xE5 SHL DUP2 MSTORE PUSH1 0x20 PUSH1 0x4 DUP3 ADD MSTORE PUSH1 0x9 PUSH1 0x24 DUP3 ADD MSTORE PUSH9 0x362D6E6F6578747261 PUSH1 0xB8 SHL PUSH1 0x44 DUP3 ADD MSTORE PUSH1 0x64 ADD PUSH2 0x153 JUMP JUMPDEST DUP4 PUSH1 0x0 DUP2 MLOAD DUP2 LT PUSH2 0x3814 JUMPI PUSH2 0x3814 PUSH2 0x56A8 JUMP JUMPDEST PUSH1 0x20 MUL PUSH1 0x20 ADD ADD MLOAD DUP10 PUSH2 0x1A0 ADD MLOAD PUSH2 0x382C SWAP2 SWAP1 PUSH2 0x5649 JUMP JUMPDEST PUSH2 0x1C0 DUP11 ADD MSTORE POP PUSH2 0x4126 SWAP2 POP POP JUMP JUMPDEST DUP6 MLOAD PUSH1 0x7 EQ ISZERO PUSH2 0x36 JUMPI PUSH2 0x385F DUP7 PUSH1 0x80 ADD MLOAD PUSH1 0x1 DUP2 MLOAD DUP2 LT PUSH2 0x8C6 JUMPI PUSH2 0x8C6 PUSH2 0x56A8 JUMP JUMPDEST ISZERO PUSH2 0x3D4B JUMPI PUSH1 0x40 MLOAD PUSH4 0x70A08231 PUSH1 0xE0 SHL DUP2 MSTORE ADDRESS PUSH1 0x4 DUP3 ADD MSTORE PUSH1 0x1 PUSH1 0x1 PUSH1 0xA0 SHL SUB DUP6 AND SWAP1 PUSH4 0x70A08231 SWAP1 PUSH1 0x24 ADD PUSH1 0x20 PUSH1 0x40 MLOAD DUP1 DUP4 SUB DUP2 DUP7 DUP1 EXTCODESIZE ISZERO DUP1 ISZERO PUSH2 0x38A3 JUMPI PUSH1 0x0 DUP1 REVERT JUMPDEST POP GAS STATICCALL ISZERO DUP1 ISZERO PUSH2 0x38B7 JUMPI RETURNDATASIZE PUSH1 0x0 DUP1 RETURNDATACOPY RETURNDATASIZE PUSH1 0x0 REVERT JUMPDEST POP POP POP POP PUSH1 0x40 MLOAD RETURNDATASIZE PUSH1 0x1F NOT PUSH1 0x1F DUP3 ADD AND DUP3 ADD DUP1 PUSH1 0x40 MSTORE POP DUP2 ADD SWAP1 PUSH2 0x38DB SWAP2 SWAP1 PUSH2 0x52B9 JUMP JUMPDEST PUSH2 0x160 DUP8 ADD MSTORE PUSH1 0x80 DUP7 ADD MLOAD DUP1 MLOAD PUSH1 0x0 SWAP2 DUP3 SWAP2 DUP3 SWAP1 PUSH2 0x38FB JUMPI PUSH2 0x38FB PUSH2 0x56A8 JUMP JUMPDEST PUSH1 0x20 MUL PUSH1 0x20 ADD ADD MLOAD PUSH1 0x1 PUSH1 0x1 PUSH1 0xA0 SHL SUB AND PUSH4 0x11B3D5E7 DUP10 PUSH1 0xE0 ADD MLOAD DUP11 PUSH1 0xA0 ADD MLOAD DUP10 PUSH1 0x40 MLOAD DUP5 PUSH4 0xFFFFFFFF AND PUSH1 0xE0 SHL DUP2 MSTORE PUSH1 0x4 ADD PUSH2 0x393A SWAP4 SWAP3 SWAP2 SWAP1 PUSH2 0x54AA JUMP JUMPDEST PUSH1 0x40 DUP1 MLOAD DUP1 DUP4 SUB DUP2 PUSH1 0x0 DUP8 DUP1 EXTCODESIZE ISZERO DUP1 ISZERO PUSH2 0x3953 JUMPI PUSH1 0x0 DUP1 REVERT JUMPDEST POP GAS CALL ISZERO DUP1 ISZERO PUSH2 0x3967 JUMPI RETURNDATASIZE PUSH1 0x0 DUP1 RETURNDATACOPY RETURNDATASIZE PUSH1 0x0 REVERT JUMPDEST POP POP POP POP PUSH1 0x40 MLOAD RETURNDATASIZE PUSH1 0x1F NOT PUSH1 0x1F DUP3 ADD AND DUP3 ADD DUP1 PUSH1 0x40 MSTORE POP DUP2 ADD SWAP1 PUSH2 0x398B SWAP2 SWAP1 PUSH2 0x543D JUMP JUMPDEST SWAP2 POP SWAP2 POP DUP2 PUSH1 0x0 EQ PUSH2 0x39DF JUMPI PUSH1 0x40 MLOAD PUSH3 0x461BCD PUSH1 0xE5 SHL DUP2 MSTORE PUSH1 0x20 PUSH1 0x4 DUP3 ADD MSTORE PUSH1 0x1A PUSH1 0x24 DUP3 ADD MSTORE PUSH32 0x372E312D6C6971756964617465426F72726F77206572726F7220000000000000 PUSH1 0x44 DUP3 ADD MSTORE PUSH1 0x64 ADD PUSH2 0x153 JUMP JUMPDEST PUSH1 0x40 MLOAD PUSH4 0x70A08231 PUSH1 0xE0 SHL DUP2 MSTORE ADDRESS PUSH1 0x4 DUP3 ADD MSTORE PUSH1 0x1 PUSH1 0x1 PUSH1 0xA0 SHL SUB DUP8 AND SWAP1 PUSH4 0x70A08231 SWAP1 PUSH1 0x24 ADD PUSH1 0x20 PUSH1 0x40 MLOAD DUP1 DUP4 SUB DUP2 DUP7 DUP1 EXTCODESIZE ISZERO DUP1 ISZERO PUSH2 0x3A1E JUMPI PUSH1 0x0 DUP1 REVERT JUMPDEST POP GAS STATICCALL ISZERO DUP1 ISZERO PUSH2 0x3A32 JUMPI RETURNDATASIZE PUSH1 0x0 DUP1 RETURNDATACOPY RETURNDATASIZE PUSH1 0x0 REVERT JUMPDEST POP POP POP POP PUSH1 0x40 MLOAD RETURNDATASIZE PUSH1 0x1F NOT PUSH1 0x1F DUP3 ADD AND DUP3 ADD DUP1 PUSH1 0x40 MSTORE POP DUP2 ADD SWAP1 PUSH2 0x3A56 SWAP2 SWAP1 PUSH2 0x52B9 JUMP JUMPDEST PUSH2 0x180 DUP10 ADD MSTORE PUSH2 0x100 DUP9 ADD MLOAD PUSH2 0x120 DUP10 ADD MLOAD PUSH2 0x3A72 SWAP2 SWAP1 PUSH2 0x5649 JUMP JUMPDEST PUSH2 0x140 DUP10 ADD DUP2 SWAP1 MSTORE PUSH2 0x3AC6 JUMPI PUSH1 0x40 MLOAD PUSH3 0x461BCD PUSH1 0xE5 SHL DUP2 MSTORE PUSH1 0x20 PUSH1 0x4 DUP3 ADD DUP2 SWAP1 MSTORE PUSH1 0x24 DUP3 ADD MSTORE PUSH32 0x372E312D7365697A65642076746F6B656E20616D6F756E74206973207A65726F PUSH1 0x44 DUP3 ADD MSTORE PUSH1 0x64 ADD PUSH2 0x153 JUMP JUMPDEST SELFBALANCE PUSH2 0x160 DUP10 ADD MSTORE PUSH1 0x80 DUP9 ADD MLOAD DUP1 MLOAD PUSH1 0x1 SWAP1 DUP2 LT PUSH2 0x3AE5 JUMPI PUSH2 0x3AE5 PUSH2 0x56A8 JUMP JUMPDEST PUSH1 0x20 MUL PUSH1 0x20 ADD ADD MLOAD PUSH1 0x1 PUSH1 0x1 PUSH1 0xA0 SHL SUB AND PUSH4 0xDB006A75 DUP10 PUSH2 0x140 ADD MLOAD PUSH1 0x40 MLOAD DUP3 PUSH4 0xFFFFFFFF AND PUSH1 0xE0 SHL DUP2 MSTORE PUSH1 0x4 ADD PUSH2 0x3B1F SWAP2 DUP2 MSTORE PUSH1 0x20 ADD SWAP1 JUMP JUMPDEST PUSH1 0x20 PUSH1 0x40 MLOAD DUP1 DUP4 SUB DUP2 PUSH1 0x0 DUP8 DUP1 EXTCODESIZE ISZERO DUP1 ISZERO PUSH2 0x3B39 JUMPI PUSH1 0x0 DUP1 REVERT JUMPDEST POP GAS CALL ISZERO DUP1 ISZERO PUSH2 0x3B4D JUMPI RETURNDATASIZE PUSH1 0x0 DUP1 RETURNDATACOPY RETURNDATASIZE PUSH1 0x0 REVERT JUMPDEST POP POP POP POP PUSH1 0x40 MLOAD RETURNDATASIZE PUSH1 0x1F NOT PUSH1 0x1F DUP3 ADD AND DUP3 ADD DUP1 PUSH1 0x40 MSTORE POP DUP2 ADD SWAP1 PUSH2 0x3B71 SWAP2 SWAP1 PUSH2 0x52B9 JUMP JUMPDEST ISZERO PUSH2 0x3BB1 JUMPI PUSH1 0x40 MLOAD PUSH3 0x461BCD PUSH1 0xE5 SHL DUP2 MSTORE PUSH1 0x20 PUSH1 0x4 DUP3 ADD MSTORE PUSH1 0x10 PUSH1 0x24 DUP3 ADD MSTORE PUSH16 0x1B971896B932B232B2B69032B93937B9 PUSH1 0x81 SHL PUSH1 0x44 DUP3 ADD MSTORE PUSH1 0x64 ADD PUSH2 0x153 JUMP JUMPDEST SELFBALANCE PUSH2 0x180 DUP10 ADD DUP2 SWAP1 MSTORE PUSH2 0x160 DUP10 ADD MLOAD PUSH2 0x3BC9 SWAP2 PUSH2 0x5649 JUMP JUMPDEST DUP9 PUSH2 0x1A0 ADD DUP2 DUP2 MSTORE POP POP PUSH20 0xBB4CDB9CBD36B01BD1CBAEBF2DE08D9173BC095C PUSH1 0x1 PUSH1 0x1 PUSH1 0xA0 SHL SUB AND PUSH4 0xD0E30DB0 DUP10 PUSH2 0x1A0 ADD MLOAD PUSH1 0x40 MLOAD DUP3 PUSH4 0xFFFFFFFF AND PUSH1 0xE0 SHL DUP2 MSTORE PUSH1 0x4 ADD PUSH1 0x0 PUSH1 0x40 MLOAD DUP1 DUP4 SUB DUP2 DUP6 DUP9 DUP1 EXTCODESIZE ISZERO DUP1 ISZERO PUSH2 0x3C27 JUMPI PUSH1 0x0 DUP1 REVERT JUMPDEST POP GAS CALL ISZERO DUP1 ISZERO PUSH2 0x3C3B JUMPI RETURNDATASIZE PUSH1 0x0 DUP1 RETURNDATACOPY RETURNDATASIZE PUSH1 0x0 REVERT JUMPDEST POP POP POP POP POP PUSH1 0x0 DUP9 PUSH1 0xA0 ADD MLOAD DUP3 DUP11 PUSH1 0xC0 ADD MLOAD PUSH2 0x3C57 SWAP2 SWAP1 PUSH2 0x55F0 JUMP JUMPDEST PUSH2 0x3C61 SWAP2 SWAP1 PUSH2 0x5649 JUMP JUMPDEST SWAP1 POP PUSH2 0x3C72 DUP2 DUP11 PUSH1 0x40 ADD MLOAD ADDRESS PUSH2 0x46C6 JUMP JUMPDEST SWAP4 POP DUP4 PUSH1 0x0 DUP2 MLOAD DUP2 LT PUSH2 0x3C87 JUMPI PUSH2 0x3C87 PUSH2 0x56A8 JUMP JUMPDEST PUSH1 0x20 MUL PUSH1 0x20 ADD ADD MLOAD DUP10 PUSH2 0x1A0 ADD MLOAD GT PUSH2 0x3CD1 JUMPI PUSH1 0x40 MLOAD PUSH3 0x461BCD PUSH1 0xE5 SHL DUP2 MSTORE PUSH1 0x20 PUSH1 0x4 DUP3 ADD MSTORE PUSH1 0xC PUSH1 0x24 DUP3 ADD MSTORE PUSH12 0x372E312D6E6F206578747261 PUSH1 0xA0 SHL PUSH1 0x44 DUP3 ADD MSTORE PUSH1 0x64 ADD PUSH2 0x153 JUMP JUMPDEST PUSH1 0x0 DUP5 PUSH1 0x0 DUP2 MLOAD DUP2 LT PUSH2 0x3CE6 JUMPI PUSH2 0x3CE6 PUSH2 0x56A8 JUMP JUMPDEST PUSH1 0x20 MUL PUSH1 0x20 ADD ADD MLOAD DUP11 PUSH2 0x1A0 ADD MLOAD PUSH2 0x3CFE SWAP2 SWAP1 PUSH2 0x5649 JUMP JUMPDEST SWAP1 POP PUSH2 0x3D0F DUP2 DUP12 PUSH1 0x60 ADD MLOAD ADDRESS PUSH2 0x4576 JUMP JUMPDEST SWAP5 POP DUP5 PUSH1 0x1 DUP7 MLOAD PUSH2 0x3D20 SWAP2 SWAP1 PUSH2 0x5649 JUMP JUMPDEST DUP2 MLOAD DUP2 LT PUSH2 0x3D30 JUMPI PUSH2 0x3D30 PUSH2 0x56A8 JUMP JUMPDEST PUSH1 0x20 MUL PUSH1 0x20 ADD ADD MLOAD DUP11 PUSH2 0x1C0 ADD DUP2 DUP2 MSTORE POP POP POP POP POP POP PUSH2 0x4126 JUMP JUMPDEST PUSH1 0x40 MLOAD PUSH4 0x70A08231 PUSH1 0xE0 SHL DUP2 MSTORE ADDRESS PUSH1 0x4 DUP3 ADD MSTORE PUSH1 0x1 PUSH1 0x1 PUSH1 0xA0 SHL SUB DUP6 AND SWAP1 PUSH4 0x70A08231 SWAP1 PUSH1 0x24 ADD PUSH1 0x20 PUSH1 0x40 MLOAD DUP1 DUP4 SUB DUP2 DUP7 DUP1 EXTCODESIZE ISZERO DUP1 ISZERO PUSH2 0x3D8A JUMPI PUSH1 0x0 DUP1 REVERT JUMPDEST POP GAS STATICCALL ISZERO DUP1 ISZERO PUSH2 0x3D9E JUMPI RETURNDATASIZE PUSH1 0x0 DUP1 RETURNDATACOPY RETURNDATASIZE PUSH1 0x0 REVERT JUMPDEST POP POP POP POP PUSH1 0x40 MLOAD RETURNDATASIZE PUSH1 0x1F NOT PUSH1 0x1F DUP3 ADD AND DUP3 ADD DUP1 PUSH1 0x40 MSTORE POP DUP2 ADD SWAP1 PUSH2 0x3DC2 SWAP2 SWAP1 PUSH2 0x52B9 JUMP JUMPDEST PUSH2 0x160 DUP8 ADD MSTORE PUSH1 0x80 DUP7 ADD MLOAD DUP1 MLOAD PUSH1 0x0 SWAP2 DUP3 SWAP2 DUP3 SWAP1 PUSH2 0x3DE2 JUMPI PUSH2 0x3DE2 PUSH2 0x56A8 JUMP JUMPDEST PUSH1 0x20 MUL PUSH1 0x20 ADD ADD MLOAD PUSH1 0x1 PUSH1 0x1 PUSH1 0xA0 SHL SUB AND PUSH4 0x11B3D5E7 DUP10 PUSH1 0xE0 ADD MLOAD DUP11 PUSH1 0xA0 ADD MLOAD DUP10 PUSH1 0x40 MLOAD DUP5 PUSH4 0xFFFFFFFF AND PUSH1 0xE0 SHL DUP2 MSTORE PUSH1 0x4 ADD PUSH2 0x3E21 SWAP4 SWAP3 SWAP2 SWAP1 PUSH2 0x54AA JUMP JUMPDEST PUSH1 0x40 DUP1 MLOAD DUP1 DUP4 SUB DUP2 PUSH1 0x0 DUP8 DUP1 EXTCODESIZE ISZERO DUP1 ISZERO PUSH2 0x3E3A JUMPI PUSH1 0x0 DUP1 REVERT JUMPDEST POP GAS CALL ISZERO DUP1 ISZERO PUSH2 0x3E4E JUMPI RETURNDATASIZE PUSH1 0x0 DUP1 RETURNDATACOPY RETURNDATASIZE PUSH1 0x0 REVERT JUMPDEST POP POP POP POP PUSH1 0x40 MLOAD RETURNDATASIZE PUSH1 0x1F NOT PUSH1 0x1F DUP3 ADD AND DUP3 ADD DUP1 PUSH1 0x40 MSTORE POP DUP2 ADD SWAP1 PUSH2 0x3E72 SWAP2 SWAP1 PUSH2 0x543D JUMP JUMPDEST SWAP2 POP SWAP2 POP DUP2 PUSH1 0x0 EQ PUSH2 0x3EC6 JUMPI PUSH1 0x40 MLOAD PUSH3 0x461BCD PUSH1 0xE5 SHL DUP2 MSTORE PUSH1 0x20 PUSH1 0x4 DUP3 ADD MSTORE PUSH1 0x19 PUSH1 0x24 DUP3 ADD MSTORE PUSH32 0x372E322D6C6971756964617465426F72726F77206572726F7200000000000000 PUSH1 0x44 DUP3 ADD MSTORE PUSH1 0x64 ADD PUSH2 0x153 JUMP JUMPDEST PUSH1 0x40 MLOAD PUSH4 0x70A08231 PUSH1 0xE0 SHL DUP2 MSTORE ADDRESS PUSH1 0x4 DUP3 ADD MSTORE PUSH1 0x1 PUSH1 0x1 PUSH1 0xA0 SHL SUB DUP8 AND SWAP1 PUSH4 0x70A08231 SWAP1 PUSH1 0x24 ADD PUSH1 0x20 PUSH1 0x40 MLOAD DUP1 DUP4 SUB DUP2 DUP7 DUP1 EXTCODESIZE ISZERO DUP1 ISZERO PUSH2 0x3F05 JUMPI PUSH1 0x0 DUP1 REVERT JUMPDEST POP GAS STATICCALL ISZERO DUP1 ISZERO PUSH2 0x3F19 JUMPI RETURNDATASIZE PUSH1 0x0 DUP1 RETURNDATACOPY RETURNDATASIZE PUSH1 0x0 REVERT JUMPDEST POP POP POP POP PUSH1 0x40 MLOAD RETURNDATASIZE PUSH1 0x1F NOT PUSH1 0x1F DUP3 ADD AND DUP3 ADD DUP1 PUSH1 0x40 MSTORE POP DUP2 ADD SWAP1 PUSH2 0x3F3D SWAP2 SWAP1 PUSH2 0x52B9 JUMP JUMPDEST PUSH2 0x180 DUP10 ADD MSTORE PUSH2 0x100 DUP9 ADD MLOAD PUSH2 0x120 DUP10 ADD MLOAD PUSH2 0x3F59 SWAP2 SWAP1 PUSH2 0x5649 JUMP JUMPDEST PUSH2 0x140 DUP10 ADD DUP2 SWAP1 MSTORE PUSH2 0x3FAD JUMPI PUSH1 0x40 MLOAD PUSH3 0x461BCD PUSH1 0xE5 SHL DUP2 MSTORE PUSH1 0x20 PUSH1 0x4 DUP3 ADD DUP2 SWAP1 MSTORE PUSH1 0x24 DUP3 ADD MSTORE PUSH32 0x372E322D7365697A65642076746F6B656E20616D6F756E74206973207A65726F PUSH1 0x44 DUP3 ADD MSTORE PUSH1 0x64 ADD PUSH2 0x153 JUMP JUMPDEST SELFBALANCE PUSH2 0x160 DUP10 ADD MSTORE PUSH2 0x140 DUP9 ADD MLOAD PUSH1 0x40 MLOAD PUSH4 0xDB006A75 PUSH1 0xE0 SHL DUP2 MSTORE PUSH1 0x4 DUP2 ADD SWAP2 SWAP1 SWAP2 MSTORE PUSH1 0x1 PUSH1 0x1 PUSH1 0xA0 SHL SUB DUP8 AND SWAP1 PUSH4 0xDB006A75 SWAP1 PUSH1 0x24 ADD PUSH1 0x20 PUSH1 0x40 MLOAD DUP1 DUP4 SUB DUP2 PUSH1 0x0 DUP8 DUP1 EXTCODESIZE ISZERO DUP1 ISZERO PUSH2 0x3FFD JUMPI PUSH1 0x0 DUP1 REVERT JUMPDEST POP GAS CALL ISZERO DUP1 ISZERO PUSH2 0x4011 JUMPI RETURNDATASIZE PUSH1 0x0 DUP1 RETURNDATACOPY RETURNDATASIZE PUSH1 0x0 REVERT JUMPDEST POP POP POP POP PUSH1 0x40 MLOAD RETURNDATASIZE PUSH1 0x1F NOT PUSH1 0x1F DUP3 ADD AND DUP3 ADD DUP1 PUSH1 0x40 MSTORE POP DUP2 ADD SWAP1 PUSH2 0x4035 SWAP2 SWAP1 PUSH2 0x52B9 JUMP JUMPDEST ISZERO PUSH2 0x4075 JUMPI PUSH1 0x40 MLOAD PUSH3 0x461BCD PUSH1 0xE5 SHL DUP2 MSTORE PUSH1 0x20 PUSH1 0x4 DUP3 ADD MSTORE PUSH1 0x10 PUSH1 0x24 DUP3 ADD MSTORE PUSH16 0x1B971916B932B232B2B69032B93937B9 PUSH1 0x81 SHL PUSH1 0x44 DUP3 ADD MSTORE PUSH1 0x64 ADD PUSH2 0x153 JUMP JUMPDEST SELFBALANCE PUSH2 0x180 DUP10 ADD DUP2 SWAP1 MSTORE PUSH2 0x160 DUP10 ADD MLOAD PUSH2 0x408D SWAP2 PUSH2 0x5649 JUMP JUMPDEST PUSH2 0x1A0 DUP10 ADD MSTORE PUSH1 0xA0 DUP9 ADD MLOAD PUSH1 0xC0 DUP10 ADD MLOAD PUSH1 0x0 SWAP2 SWAP1 PUSH2 0x40AC SWAP1 DUP5 SWAP1 PUSH2 0x55F0 JUMP JUMPDEST PUSH2 0x40B6 SWAP2 SWAP1 PUSH2 0x5649 JUMP JUMPDEST SWAP1 POP PUSH2 0x40C7 DUP2 DUP11 PUSH1 0x40 ADD MLOAD ADDRESS PUSH2 0x46C6 JUMP JUMPDEST SWAP4 POP DUP4 PUSH1 0x0 DUP2 MLOAD DUP2 LT PUSH2 0x40DC JUMPI PUSH2 0x40DC PUSH2 0x56A8 JUMP JUMPDEST PUSH1 0x20 MUL PUSH1 0x20 ADD ADD MLOAD DUP10 PUSH2 0x1A0 ADD MLOAD GT PUSH2 0x3CD1 JUMPI PUSH1 0x40 MLOAD PUSH3 0x461BCD PUSH1 0xE5 SHL DUP2 MSTORE PUSH1 0x20 PUSH1 0x4 DUP3 ADD MSTORE PUSH1 0xC PUSH1 0x24 DUP3 ADD MSTORE PUSH12 0x372E322D6E6F206578747261 PUSH1 0xA0 SHL PUSH1 0x44 DUP3 ADD MSTORE PUSH1 0x64 ADD PUSH2 0x153 JUMP JUMPDEST PUSH1 0x20 DUP7 ADD MLOAD PUSH1 0xC0 DUP8 ADD MLOAD PUSH1 0x40 MLOAD PUSH4 0xA9059CBB PUSH1 0xE0 SHL DUP2 MSTORE PUSH1 0x1 PUSH1 0x1 PUSH1 0xA0 SHL SUB DUP7 AND SWAP3 PUSH4 0xA9059CBB SWAP3 PUSH2 0x416E SWAP3 PUSH1 0x4 ADD PUSH1 0x1 PUSH1 0x1 PUSH1 0xA0 SHL SUB SWAP3 SWAP1 SWAP3 AND DUP3 MSTORE PUSH1 0x20 DUP3 ADD MSTORE PUSH1 0x40 ADD SWAP1 JUMP JUMPDEST PUSH1 0x20 PUSH1 0x40 MLOAD DUP1 DUP4 SUB DUP2 PUSH1 0x0 DUP8 DUP1 EXTCODESIZE ISZERO DUP1 ISZERO PUSH2 0x4188 JUMPI PUSH1 0x0 DUP1 REVERT JUMPDEST POP GAS CALL ISZERO DUP1 ISZERO PUSH2 0x419C JUMPI RETURNDATASIZE PUSH1 0x0 DUP1 RETURNDATACOPY RETURNDATASIZE PUSH1 0x0 REVERT JUMPDEST POP POP POP POP PUSH1 0x40 MLOAD RETURNDATASIZE PUSH1 0x1F NOT PUSH1 0x1F DUP3 ADD AND DUP3 ADD DUP1 PUSH1 0x40 MSTORE POP DUP2 ADD SWAP1 PUSH2 0x41C0 SWAP2 SWAP1 PUSH2 0x5247 JUMP JUMPDEST POP DUP6 MLOAD PUSH1 0xA0 DUP1 DUP9 ADD MLOAD PUSH1 0xC0 DUP1 DUP11 ADD MLOAD PUSH2 0x1A0 DUP12 ADD MLOAD PUSH2 0x1C0 DUP13 ADD MLOAD PUSH1 0x40 DUP1 MLOAD SWAP8 DUP9 MSTORE PUSH1 0x1 PUSH1 0x1 PUSH1 0xA0 SHL SUB DUP1 DUP13 AND PUSH1 0x20 DUP11 ADD MSTORE SWAP1 DUP9 ADD SWAP6 SWAP1 SWAP6 MSTORE SWAP4 DUP9 AND PUSH1 0x60 DUP8 ADD MSTORE PUSH1 0x80 DUP7 ADD SWAP2 SWAP1 SWAP2 MSTORE SWAP3 DUP5 ADD SWAP3 SWAP1 SWAP3 MSTORE SWAP1 DUP3 ADD MSTORE PUSH32 0xEE80F069D389B1636BFE8A115FF1D8AD940B394B4D16BB19C8503003D14DD5B4 SWAP1 PUSH1 0xE0 ADD PUSH1 0x40 MLOAD DUP1 SWAP2 SUB SWAP1 LOG1 POP POP POP POP POP POP POP POP POP POP POP JUMP JUMPDEST PUSH1 0x1 DUP10 LT ISZERO DUP1 ISZERO PUSH2 0x4260 JUMPI POP PUSH1 0x5 DUP10 GT ISZERO JUMPDEST PUSH2 0x4297 JUMPI PUSH1 0x40 MLOAD PUSH3 0x461BCD PUSH1 0xE5 SHL DUP2 MSTORE PUSH1 0x20 PUSH1 0x4 DUP3 ADD MSTORE PUSH1 0x8 PUSH1 0x24 DUP3 ADD MSTORE PUSH8 0x77726F6E67207369 PUSH1 0xC0 SHL PUSH1 0x44 DUP3 ADD MSTORE PUSH1 0x64 ADD PUSH2 0x153 JUMP JUMPDEST PUSH1 0x1 PUSH1 0x1 PUSH1 0xA0 SHL SUB DUP9 AND PUSH2 0x42D5 JUMPI PUSH1 0x40 MLOAD PUSH3 0x461BCD PUSH1 0xE5 SHL DUP2 MSTORE PUSH1 0x20 PUSH1 0x4 DUP3 ADD MSTORE PUSH1 0x5 PUSH1 0x24 DUP3 ADD MSTORE PUSH5 0x10B830B4B9 PUSH1 0xD9 SHL PUSH1 0x44 DUP3 ADD MSTORE PUSH1 0x64 ADD PUSH2 0x153 JUMP JUMPDEST PUSH1 0x0 DUP9 PUSH1 0x1 PUSH1 0x1 PUSH1 0xA0 SHL SUB AND PUSH4 0xDFE1681 PUSH1 0x40 MLOAD DUP2 PUSH4 0xFFFFFFFF AND PUSH1 0xE0 SHL DUP2 MSTORE PUSH1 0x4 ADD PUSH1 0x20 PUSH1 0x40 MLOAD DUP1 DUP4 SUB DUP2 DUP7 DUP1 EXTCODESIZE ISZERO DUP1 ISZERO PUSH2 0x4310 JUMPI PUSH1 0x0 DUP1 REVERT JUMPDEST POP GAS STATICCALL ISZERO DUP1 ISZERO PUSH2 0x4324 JUMPI RETURNDATASIZE PUSH1 0x0 DUP1 RETURNDATACOPY RETURNDATASIZE PUSH1 0x0 REVERT JUMPDEST POP POP POP POP PUSH1 0x40 MLOAD RETURNDATASIZE PUSH1 0x1F NOT PUSH1 0x1F DUP3 ADD AND DUP3 ADD DUP1 PUSH1 0x40 MSTORE POP DUP2 ADD SWAP1 PUSH2 0x4348 SWAP2 SWAP1 PUSH2 0x5194 JUMP JUMPDEST SWAP1 POP PUSH1 0x0 DUP10 PUSH1 0x1 PUSH1 0x1 PUSH1 0xA0 SHL SUB AND PUSH4 0xD21220A7 PUSH1 0x40 MLOAD DUP2 PUSH4 0xFFFFFFFF AND PUSH1 0xE0 SHL DUP2 MSTORE PUSH1 0x4 ADD PUSH1 0x20 PUSH1 0x40 MLOAD DUP1 DUP4 SUB DUP2 DUP7 DUP1 EXTCODESIZE ISZERO DUP1 ISZERO PUSH2 0x4385 JUMPI PUSH1 0x0 DUP1 REVERT JUMPDEST POP GAS STATICCALL ISZERO DUP1 ISZERO PUSH2 0x4399 JUMPI RETURNDATASIZE PUSH1 0x0 DUP1 RETURNDATACOPY RETURNDATASIZE PUSH1 0x0 REVERT JUMPDEST POP POP POP POP PUSH1 0x40 MLOAD RETURNDATASIZE PUSH1 0x1F NOT PUSH1 0x1F DUP3 ADD AND DUP3 ADD DUP1 PUSH1 0x40 MSTORE POP DUP2 ADD SWAP1 PUSH2 0x43BD SWAP2 SWAP1 PUSH2 0x5194 JUMP JUMPDEST SWAP1 POP PUSH1 0x0 DUP3 PUSH1 0x1 PUSH1 0x1 PUSH1 0xA0 SHL SUB AND DUP7 DUP7 PUSH1 0x3 DUP2 DUP2 LT PUSH2 0x43DE JUMPI PUSH2 0x43DE PUSH2 0x56A8 JUMP JUMPDEST SWAP1 POP PUSH1 0x20 MUL ADD PUSH1 0x20 DUP2 ADD SWAP1 PUSH2 0x43F3 SWAP2 SWAP1 PUSH2 0x5177 JUMP JUMPDEST PUSH1 0x1 PUSH1 0x1 PUSH1 0xA0 SHL SUB AND EQ PUSH2 0x4408 JUMPI PUSH1 0x0 PUSH2 0x440A JUMP JUMPDEST DUP4 JUMPDEST SWAP1 POP PUSH1 0x0 DUP3 PUSH1 0x1 PUSH1 0x1 PUSH1 0xA0 SHL SUB AND DUP8 DUP8 PUSH1 0x3 DUP2 DUP2 LT PUSH2 0x442B JUMPI PUSH2 0x442B PUSH2 0x56A8 JUMP JUMPDEST SWAP1 POP PUSH1 0x20 MUL ADD PUSH1 0x20 DUP2 ADD SWAP1 PUSH2 0x4440 SWAP2 SWAP1 PUSH2 0x5177 JUMP JUMPDEST PUSH1 0x1 PUSH1 0x1 PUSH1 0xA0 SHL SUB AND EQ PUSH2 0x4455 JUMPI PUSH1 0x0 PUSH2 0x4457 JUMP JUMPDEST DUP5 JUMPDEST SWAP1 POP PUSH1 0x0 DUP14 DUP14 DUP14 DUP14 DUP14 DUP14 DUP14 DUP14 DUP14 PUSH1 0x40 MLOAD PUSH1 0x20 ADD PUSH2 0x447C SWAP10 SWAP9 SWAP8 SWAP7 SWAP6 SWAP5 SWAP4 SWAP3 SWAP2 SWAP1 PUSH2 0x5513 JUMP JUMPDEST PUSH1 0x40 DUP1 MLOAD PUSH1 0x1F NOT DUP2 DUP5 SUB ADD DUP2 MSTORE SWAP1 DUP3 SWAP1 MSTORE PUSH4 0x22C0D9F PUSH1 0xE0 SHL DUP3 MSTORE SWAP2 POP PUSH1 0x1 PUSH1 0x1 PUSH1 0xA0 SHL SUB DUP15 AND SWAP1 PUSH4 0x22C0D9F SWAP1 PUSH2 0x44BE SWAP1 DUP7 SWAP1 DUP7 SWAP1 ADDRESS SWAP1 DUP8 SWAP1 PUSH1 0x4 ADD PUSH2 0x557D JUMP JUMPDEST PUSH1 0x0 PUSH1 0x40 MLOAD DUP1 DUP4 SUB DUP2 PUSH1 0x0 DUP8 DUP1 EXTCODESIZE ISZERO DUP1 ISZERO PUSH2 0x44D8 JUMPI PUSH1 0x0 DUP1 REVERT JUMPDEST POP GAS CALL ISZERO DUP1 ISZERO PUSH2 0x44EC JUMPI RETURNDATASIZE PUSH1 0x0 DUP1 RETURNDATACOPY RETURNDATASIZE PUSH1 0x0 REVERT JUMPDEST POP POP POP POP POP POP POP POP POP POP POP POP POP POP POP POP POP POP JUMP JUMPDEST PUSH1 0x0 PUSH1 0x1 PUSH1 0x1 PUSH1 0xA0 SHL SUB DUP3 AND PUSH20 0x95C78222B3D6E262426483D42CFA53685A67AB9D EQ DUP1 PUSH2 0x4549 JUMPI POP PUSH1 0x1 PUSH1 0x1 PUSH1 0xA0 SHL SUB DUP3 AND PUSH20 0xFD5840CD36D94D7229439859C0112A4185BC0255 EQ JUMPDEST DUP1 PUSH2 0x4570 JUMPI POP PUSH1 0x1 PUSH1 0x1 PUSH1 0xA0 SHL SUB DUP3 AND PUSH20 0x334B3ECB4DCA3593BCCC3C7EBD1A1C1D1780FBF1 EQ JUMPDEST SWAP3 SWAP2 POP POP JUMP JUMPDEST PUSH1 0x60 PUSH2 0x4597 PUSH20 0xCA143CE32FE78F1F7019D7D551A6402FC5350C73 DUP6 DUP6 PUSH2 0x46E7 JUMP JUMPDEST SWAP1 POP DUP3 PUSH1 0x0 DUP2 MLOAD DUP2 LT PUSH2 0x45AC JUMPI PUSH2 0x45AC PUSH2 0x56A8 JUMP JUMPDEST PUSH1 0x20 MUL PUSH1 0x20 ADD ADD MLOAD PUSH1 0x1 PUSH1 0x1 PUSH1 0xA0 SHL SUB AND PUSH4 0xA9059CBB PUSH2 0x4615 PUSH20 0xCA143CE32FE78F1F7019D7D551A6402FC5350C73 DUP7 PUSH1 0x0 DUP2 MLOAD DUP2 LT PUSH2 0x45ED JUMPI PUSH2 0x45ED PUSH2 0x56A8 JUMP JUMPDEST PUSH1 0x20 MUL PUSH1 0x20 ADD ADD MLOAD DUP8 PUSH1 0x1 DUP2 MLOAD DUP2 LT PUSH2 0x4608 JUMPI PUSH2 0x4608 PUSH2 0x56A8 JUMP JUMPDEST PUSH1 0x20 MUL PUSH1 0x20 ADD ADD MLOAD PUSH2 0x4872 JUMP JUMPDEST DUP4 PUSH1 0x0 DUP2 MLOAD DUP2 LT PUSH2 0x4628 JUMPI PUSH2 0x4628 PUSH2 0x56A8 JUMP JUMPDEST PUSH1 0x20 MUL PUSH1 0x20 ADD ADD MLOAD PUSH1 0x40 MLOAD DUP4 PUSH4 0xFFFFFFFF AND PUSH1 0xE0 SHL DUP2 MSTORE PUSH1 0x4 ADD PUSH2 0x4661 SWAP3 SWAP2 SWAP1 PUSH1 0x1 PUSH1 0x1 PUSH1 0xA0 SHL SUB SWAP3 SWAP1 SWAP3 AND DUP3 MSTORE PUSH1 0x20 DUP3 ADD MSTORE PUSH1 0x40 ADD SWAP1 JUMP JUMPDEST PUSH1 0x20 PUSH1 0x40 MLOAD DUP1 DUP4 SUB DUP2 PUSH1 0x0 DUP8 DUP1 EXTCODESIZE ISZERO DUP1 ISZERO PUSH2 0x467B JUMPI PUSH1 0x0 DUP1 REVERT JUMPDEST POP GAS CALL ISZERO DUP1 ISZERO PUSH2 0x468F JUMPI RETURNDATASIZE PUSH1 0x0 DUP1 RETURNDATACOPY RETURNDATASIZE PUSH1 0x0 REVERT JUMPDEST POP POP POP POP PUSH1 0x40 MLOAD RETURNDATASIZE PUSH1 0x1F NOT PUSH1 0x1F DUP3 ADD AND DUP3 ADD DUP1 PUSH1 0x40 MSTORE POP DUP2 ADD SWAP1 PUSH2 0x46B3 SWAP2 SWAP1 PUSH2 0x5247 JUMP JUMPDEST POP PUSH2 0x46BF DUP2 DUP5 DUP5 PUSH2 0x494D JUMP JUMPDEST SWAP4 SWAP3 POP POP POP JUMP JUMPDEST PUSH1 0x60 PUSH2 0x4597 PUSH20 0xCA143CE32FE78F1F7019D7D551A6402FC5350C73 DUP6 DUP6 PUSH2 0x4B30 JUMP JUMPDEST PUSH1 0x60 PUSH1 0x2 DUP3 MLOAD LT ISZERO PUSH2 0x473B JUMPI PUSH1 0x40 MLOAD PUSH3 0x461BCD PUSH1 0xE5 SHL DUP2 MSTORE PUSH1 0x20 PUSH1 0x4 DUP3 ADD MSTORE PUSH1 0x1C PUSH1 0x24 DUP3 ADD MSTORE PUSH32 0x50616E63616B654C6962726172793A20494E56414C49445F5041544800000000 PUSH1 0x44 DUP3 ADD MSTORE PUSH1 0x64 ADD PUSH2 0x153 JUMP JUMPDEST DUP2 MLOAD PUSH8 0xFFFFFFFFFFFFFFFF DUP2 GT ISZERO PUSH2 0x4755 JUMPI PUSH2 0x4755 PUSH2 0x56BE JUMP JUMPDEST PUSH1 0x40 MLOAD SWAP1 DUP1 DUP3 MSTORE DUP1 PUSH1 0x20 MUL PUSH1 0x20 ADD DUP3 ADD PUSH1 0x40 MSTORE DUP1 ISZERO PUSH2 0x477E JUMPI DUP2 PUSH1 0x20 ADD PUSH1 0x20 DUP3 MUL DUP1 CALLDATASIZE DUP4 CALLDATACOPY ADD SWAP1 POP JUMPDEST POP SWAP1 POP DUP3 DUP2 PUSH1 0x0 DUP2 MLOAD DUP2 LT PUSH2 0x4795 JUMPI PUSH2 0x4795 PUSH2 0x56A8 JUMP JUMPDEST PUSH1 0x20 MUL PUSH1 0x20 ADD ADD DUP2 DUP2 MSTORE POP POP PUSH1 0x0 JUMPDEST PUSH1 0x1 DUP4 MLOAD PUSH2 0x47B2 SWAP2 SWAP1 PUSH2 0x5649 JUMP JUMPDEST DUP2 LT ISZERO PUSH2 0x486A JUMPI PUSH1 0x0 DUP1 PUSH2 0x4805 DUP8 DUP7 DUP6 DUP2 MLOAD DUP2 LT PUSH2 0x47D2 JUMPI PUSH2 0x47D2 PUSH2 0x56A8 JUMP JUMPDEST PUSH1 0x20 MUL PUSH1 0x20 ADD ADD MLOAD DUP8 DUP7 PUSH1 0x1 PUSH2 0x47E8 SWAP2 SWAP1 PUSH2 0x55F0 JUMP JUMPDEST DUP2 MLOAD DUP2 LT PUSH2 0x47F8 JUMPI PUSH2 0x47F8 PUSH2 0x56A8 JUMP JUMPDEST PUSH1 0x20 MUL PUSH1 0x20 ADD ADD MLOAD PUSH2 0x4CB1 JUMP JUMPDEST SWAP2 POP SWAP2 POP PUSH2 0x482D DUP5 DUP5 DUP2 MLOAD DUP2 LT PUSH2 0x481E JUMPI PUSH2 0x481E PUSH2 0x56A8 JUMP JUMPDEST PUSH1 0x20 MUL PUSH1 0x20 ADD ADD MLOAD DUP4 DUP4 PUSH2 0x4D96 JUMP JUMPDEST DUP5 PUSH2 0x4839 DUP6 PUSH1 0x1 PUSH2 0x55F0 JUMP JUMPDEST DUP2 MLOAD DUP2 LT PUSH2 0x4849 JUMPI PUSH2 0x4849 PUSH2 0x56A8 JUMP JUMPDEST PUSH1 0x20 MUL PUSH1 0x20 ADD ADD DUP2 DUP2 MSTORE POP POP POP POP DUP1 DUP1 PUSH2 0x4862 SWAP1 PUSH2 0x5677 JUMP JUMPDEST SWAP2 POP POP PUSH2 0x47A4 JUMP JUMPDEST POP SWAP4 SWAP3 POP POP POP JUMP JUMPDEST PUSH1 0x0 DUP1 PUSH1 0x0 PUSH2 0x4881 DUP6 DUP6 PUSH2 0x4E72 JUMP JUMPDEST PUSH1 0x40 MLOAD PUSH12 0xFFFFFFFFFFFFFFFFFFFFFFFF NOT PUSH1 0x60 DUP5 DUP2 SHL DUP3 AND PUSH1 0x20 DUP5 ADD MSTORE DUP4 SWAP1 SHL AND PUSH1 0x34 DUP3 ADD MSTORE SWAP2 SWAP4 POP SWAP2 POP DUP7 SWAP1 PUSH1 0x48 ADD PUSH1 0x40 MLOAD PUSH1 0x20 DUP2 DUP4 SUB SUB DUP2 MSTORE SWAP1 PUSH1 0x40 MSTORE DUP1 MLOAD SWAP1 PUSH1 0x20 ADD KECCAK256 PUSH1 0x40 MLOAD PUSH1 0x20 ADD PUSH2 0x4929 SWAP3 SWAP2 SWAP1 PUSH1 0x1 PUSH1 0x1 PUSH1 0xF8 SHL SUB NOT DUP2 MSTORE PUSH1 0x60 SWAP3 SWAP1 SWAP3 SHL PUSH12 0xFFFFFFFFFFFFFFFFFFFFFFFF NOT AND PUSH1 0x1 DUP4 ADD MSTORE PUSH1 0x15 DUP3 ADD MSTORE PUSH32 0xD0D4C4CD0848C93CB4FD1F498D7013EE6BFB25783EA21593D5834F5D250ECE66 PUSH1 0x35 DUP3 ADD MSTORE PUSH1 0x55 ADD SWAP1 JUMP JUMPDEST PUSH1 0x40 MLOAD PUSH1 0x20 DUP2 DUP4 SUB SUB DUP2 MSTORE SWAP1 PUSH1 0x40 MSTORE DUP1 MLOAD SWAP1 PUSH1 0x20 ADD KECCAK256 PUSH1 0x60 SHR SWAP3 POP POP POP SWAP4 SWAP3 POP POP POP JUMP JUMPDEST PUSH1 0x0 JUMPDEST PUSH1 0x1 DUP4 MLOAD PUSH2 0x495E SWAP2 SWAP1 PUSH2 0x5649 JUMP JUMPDEST DUP2 LT ISZERO PUSH2 0x4B2A JUMPI PUSH1 0x0 DUP1 DUP5 DUP4 DUP2 MLOAD DUP2 LT PUSH2 0x497A JUMPI PUSH2 0x497A PUSH2 0x56A8 JUMP JUMPDEST PUSH1 0x20 MUL PUSH1 0x20 ADD ADD MLOAD DUP6 DUP5 PUSH1 0x1 PUSH2 0x4990 SWAP2 SWAP1 PUSH2 0x55F0 JUMP JUMPDEST DUP2 MLOAD DUP2 LT PUSH2 0x49A0 JUMPI PUSH2 0x49A0 PUSH2 0x56A8 JUMP JUMPDEST PUSH1 0x20 MUL PUSH1 0x20 ADD ADD MLOAD SWAP2 POP SWAP2 POP PUSH1 0x0 PUSH2 0x49B8 DUP4 DUP4 PUSH2 0x4E72 JUMP JUMPDEST POP SWAP1 POP PUSH1 0x0 DUP8 PUSH2 0x49C9 DUP7 PUSH1 0x1 PUSH2 0x55F0 JUMP JUMPDEST DUP2 MLOAD DUP2 LT PUSH2 0x49D9 JUMPI PUSH2 0x49D9 PUSH2 0x56A8 JUMP JUMPDEST PUSH1 0x20 MUL PUSH1 0x20 ADD ADD MLOAD SWAP1 POP PUSH1 0x0 DUP1 DUP4 PUSH1 0x1 PUSH1 0x1 PUSH1 0xA0 SHL SUB AND DUP7 PUSH1 0x1 PUSH1 0x1 PUSH1 0xA0 SHL SUB AND EQ PUSH2 0x4A07 JUMPI DUP3 PUSH1 0x0 PUSH2 0x4A0B JUMP JUMPDEST PUSH1 0x0 DUP4 JUMPDEST SWAP2 POP SWAP2 POP PUSH1 0x0 PUSH1 0x2 DUP11 MLOAD PUSH2 0x4A1F SWAP2 SWAP1 PUSH2 0x5649 JUMP JUMPDEST DUP9 LT PUSH2 0x4A2B JUMPI DUP9 PUSH2 0x4A60 JUMP JUMPDEST PUSH2 0x4A60 PUSH20 0xCA143CE32FE78F1F7019D7D551A6402FC5350C73 DUP8 DUP13 PUSH2 0x4A50 DUP13 PUSH1 0x2 PUSH2 0x55F0 JUMP JUMPDEST DUP2 MLOAD DUP2 LT PUSH2 0x4608 JUMPI PUSH2 0x4608 PUSH2 0x56A8 JUMP JUMPDEST SWAP1 POP PUSH2 0x4A81 PUSH20 0xCA143CE32FE78F1F7019D7D551A6402FC5350C73 DUP9 DUP9 PUSH2 0x4872 JUMP JUMPDEST PUSH1 0x1 PUSH1 0x1 PUSH1 0xA0 SHL SUB AND PUSH4 0x22C0D9F DUP5 DUP5 DUP5 PUSH1 0x0 PUSH1 0x40 MLOAD SWAP1 DUP1 DUP3 MSTORE DUP1 PUSH1 0x1F ADD PUSH1 0x1F NOT AND PUSH1 0x20 ADD DUP3 ADD PUSH1 0x40 MSTORE DUP1 ISZERO PUSH2 0x4ABE JUMPI PUSH1 0x20 DUP3 ADD DUP2 DUP1 CALLDATASIZE DUP4 CALLDATACOPY ADD SWAP1 POP JUMPDEST POP PUSH1 0x40 MLOAD DUP6 PUSH4 0xFFFFFFFF AND PUSH1 0xE0 SHL DUP2 MSTORE PUSH1 0x4 ADD PUSH2 0x4ADE SWAP5 SWAP4 SWAP3 SWAP2 SWAP1 PUSH2 0x557D JUMP JUMPDEST PUSH1 0x0 PUSH1 0x40 MLOAD DUP1 DUP4 SUB DUP2 PUSH1 0x0 DUP8 DUP1 EXTCODESIZE ISZERO DUP1 ISZERO PUSH2 0x4AF8 JUMPI PUSH1 0x0 DUP1 REVERT JUMPDEST POP GAS CALL ISZERO DUP1 ISZERO PUSH2 0x4B0C JUMPI RETURNDATASIZE PUSH1 0x0 DUP1 RETURNDATACOPY RETURNDATASIZE PUSH1 0x0 REVERT JUMPDEST POP POP POP POP POP POP POP POP POP POP POP DUP1 DUP1 PUSH2 0x4B22 SWAP1 PUSH2 0x5677 JUMP JUMPDEST SWAP2 POP POP PUSH2 0x4950 JUMP JUMPDEST POP POP POP POP JUMP JUMPDEST PUSH1 0x60 PUSH1 0x2 DUP3 MLOAD LT ISZERO PUSH2 0x4B84 JUMPI PUSH1 0x40 MLOAD PUSH3 0x461BCD PUSH1 0xE5 SHL DUP2 MSTORE PUSH1 0x20 PUSH1 0x4 DUP3 ADD MSTORE PUSH1 0x1C PUSH1 0x24 DUP3 ADD MSTORE PUSH32 0x50616E63616B654C6962726172793A20494E56414C49445F5041544800000000 PUSH1 0x44 DUP3 ADD MSTORE PUSH1 0x64 ADD PUSH2 0x153 JUMP JUMPDEST DUP2 MLOAD PUSH8 0xFFFFFFFFFFFFFFFF DUP2 GT ISZERO PUSH2 0x4B9E JUMPI PUSH2 0x4B9E PUSH2 0x56BE JUMP JUMPDEST PUSH1 0x40 MLOAD SWAP1 DUP1 DUP3 MSTORE DUP1 PUSH1 0x20 MUL PUSH1 0x20 ADD DUP3 ADD PUSH1 0x40 MSTORE DUP1 ISZERO PUSH2 0x4BC7 JUMPI DUP2 PUSH1 0x20 ADD PUSH1 0x20 DUP3 MUL DUP1 CALLDATASIZE DUP4 CALLDATACOPY ADD SWAP1 POP JUMPDEST POP SWAP1 POP DUP3 DUP2 PUSH1 0x1 DUP4 MLOAD PUSH2 0x4BDA SWAP2 SWAP1 PUSH2 0x5649 JUMP JUMPDEST DUP2 MLOAD DUP2 LT PUSH2 0x4BEA JUMPI PUSH2 0x4BEA PUSH2 0x56A8 JUMP JUMPDEST PUSH1 0x20 MUL PUSH1 0x20 ADD ADD DUP2 DUP2 MSTORE POP POP PUSH1 0x0 PUSH1 0x1 DUP4 MLOAD PUSH2 0x4C06 SWAP2 SWAP1 PUSH2 0x5649 JUMP JUMPDEST SWAP1 POP JUMPDEST DUP1 ISZERO PUSH2 0x486A JUMPI PUSH1 0x0 DUP1 PUSH2 0x4C4C DUP8 DUP7 PUSH2 0x4C22 PUSH1 0x1 DUP8 PUSH2 0x5649 JUMP JUMPDEST DUP2 MLOAD DUP2 LT PUSH2 0x4C32 JUMPI PUSH2 0x4C32 PUSH2 0x56A8 JUMP JUMPDEST PUSH1 0x20 MUL PUSH1 0x20 ADD ADD MLOAD DUP8 DUP7 DUP2 MLOAD DUP2 LT PUSH2 0x47F8 JUMPI PUSH2 0x47F8 PUSH2 0x56A8 JUMP JUMPDEST SWAP2 POP SWAP2 POP PUSH2 0x4C74 DUP5 DUP5 DUP2 MLOAD DUP2 LT PUSH2 0x4C65 JUMPI PUSH2 0x4C65 PUSH2 0x56A8 JUMP JUMPDEST PUSH1 0x20 MUL PUSH1 0x20 ADD ADD MLOAD DUP4 DUP4 PUSH2 0x4F68 JUMP JUMPDEST DUP5 PUSH2 0x4C80 PUSH1 0x1 DUP7 PUSH2 0x5649 JUMP JUMPDEST DUP2 MLOAD DUP2 LT PUSH2 0x4C90 JUMPI PUSH2 0x4C90 PUSH2 0x56A8 JUMP JUMPDEST PUSH1 0x20 MUL PUSH1 0x20 ADD ADD DUP2 DUP2 MSTORE POP POP POP POP DUP1 DUP1 PUSH2 0x4CA9 SWAP1 PUSH2 0x5660 JUMP JUMPDEST SWAP2 POP POP PUSH2 0x4C09 JUMP JUMPDEST PUSH1 0x0 DUP1 PUSH1 0x0 PUSH2 0x4CC0 DUP6 DUP6 PUSH2 0x4E72 JUMP JUMPDEST POP SWAP1 POP PUSH2 0x4CCE DUP7 DUP7 DUP7 PUSH2 0x4872 JUMP JUMPDEST POP PUSH1 0x0 DUP1 PUSH2 0x4CDD DUP9 DUP9 DUP9 PUSH2 0x4872 JUMP JUMPDEST PUSH1 0x1 PUSH1 0x1 PUSH1 0xA0 SHL SUB AND PUSH4 0x902F1AC PUSH1 0x40 MLOAD DUP2 PUSH4 0xFFFFFFFF AND PUSH1 0xE0 SHL DUP2 MSTORE PUSH1 0x4 ADD PUSH1 0x60 PUSH1 0x40 MLOAD DUP1 DUP4 SUB DUP2 DUP7 DUP1 EXTCODESIZE ISZERO DUP1 ISZERO PUSH2 0x4D15 JUMPI PUSH1 0x0 DUP1 REVERT JUMPDEST POP GAS STATICCALL ISZERO DUP1 ISZERO PUSH2 0x4D29 JUMPI RETURNDATASIZE PUSH1 0x0 DUP1 RETURNDATACOPY RETURNDATASIZE PUSH1 0x0 REVERT JUMPDEST POP POP POP POP PUSH1 0x40 MLOAD RETURNDATASIZE PUSH1 0x1F NOT PUSH1 0x1F DUP3 ADD AND DUP3 ADD DUP1 PUSH1 0x40 MSTORE POP DUP2 ADD SWAP1 PUSH2 0x4D4D SWAP2 SWAP1 PUSH2 0x5269 JUMP JUMPDEST POP PUSH1 0x1 PUSH1 0x1 PUSH1 0x70 SHL SUB AND SWAP2 POP PUSH1 0x1 PUSH1 0x1 PUSH1 0x70 SHL SUB AND SWAP2 POP DUP3 PUSH1 0x1 PUSH1 0x1 PUSH1 0xA0 SHL SUB AND DUP8 PUSH1 0x1 PUSH1 0x1 PUSH1 0xA0 SHL SUB AND EQ PUSH2 0x4D84 JUMPI DUP1 DUP3 PUSH2 0x4D87 JUMP JUMPDEST DUP2 DUP2 JUMPDEST SWAP1 SWAP10 SWAP1 SWAP9 POP SWAP7 POP POP POP POP POP POP POP JUMP JUMPDEST PUSH1 0x0 DUP1 DUP5 GT PUSH2 0x4DF9 JUMPI PUSH1 0x40 MLOAD PUSH3 0x461BCD PUSH1 0xE5 SHL DUP2 MSTORE PUSH1 0x20 PUSH1 0x4 DUP3 ADD MSTORE PUSH1 0x29 PUSH1 0x24 DUP3 ADD MSTORE PUSH32 0x50616E63616B654C6962726172793A20494E53554646494349454E545F494E50 PUSH1 0x44 DUP3 ADD MSTORE PUSH9 0x155517D05353D55395 PUSH1 0xBA SHL PUSH1 0x64 DUP3 ADD MSTORE PUSH1 0x84 ADD PUSH2 0x153 JUMP JUMPDEST PUSH1 0x0 DUP4 GT DUP1 ISZERO PUSH2 0x4E09 JUMPI POP PUSH1 0x0 DUP3 GT JUMPDEST PUSH2 0x4E25 JUMPI PUSH1 0x40 MLOAD PUSH3 0x461BCD PUSH1 0xE5 SHL DUP2 MSTORE PUSH1 0x4 ADD PUSH2 0x153 SWAP1 PUSH2 0x54CD JUMP JUMPDEST PUSH1 0x0 PUSH2 0x4E33 DUP6 PUSH2 0x3E6 PUSH2 0x503F JUMP JUMPDEST SWAP1 POP PUSH1 0x0 PUSH2 0x4E41 DUP3 DUP6 PUSH2 0x503F JUMP JUMPDEST SWAP1 POP PUSH1 0x0 PUSH2 0x4E5B DUP4 PUSH2 0x4E55 DUP9 PUSH2 0x3E8 PUSH2 0x503F JUMP JUMPDEST SWAP1 PUSH2 0x504B JUMP JUMPDEST SWAP1 POP PUSH2 0x4E67 DUP2 DUP4 PUSH2 0x5608 JUMP JUMPDEST SWAP8 SWAP7 POP POP POP POP POP POP POP JUMP JUMPDEST PUSH1 0x0 DUP1 DUP3 PUSH1 0x1 PUSH1 0x1 PUSH1 0xA0 SHL SUB AND DUP5 PUSH1 0x1 PUSH1 0x1 PUSH1 0xA0 SHL SUB AND EQ ISZERO PUSH2 0x4EE3 JUMPI PUSH1 0x40 MLOAD PUSH3 0x461BCD PUSH1 0xE5 SHL DUP2 MSTORE PUSH1 0x20 PUSH1 0x4 DUP3 ADD MSTORE PUSH1 0x23 PUSH1 0x24 DUP3 ADD MSTORE PUSH32 0x50616E63616B654C6962726172793A204944454E544943414C5F414444524553 PUSH1 0x44 DUP3 ADD MSTORE PUSH3 0x534553 PUSH1 0xE8 SHL PUSH1 0x64 DUP3 ADD MSTORE PUSH1 0x84 ADD PUSH2 0x153 JUMP JUMPDEST DUP3 PUSH1 0x1 PUSH1 0x1 PUSH1 0xA0 SHL SUB AND DUP5 PUSH1 0x1 PUSH1 0x1 PUSH1 0xA0 SHL SUB AND LT PUSH2 0x4F03 JUMPI DUP3 DUP5 PUSH2 0x4F06 JUMP JUMPDEST DUP4 DUP4 JUMPDEST SWAP1 SWAP3 POP SWAP1 POP PUSH1 0x1 PUSH1 0x1 PUSH1 0xA0 SHL SUB DUP3 AND PUSH2 0x4F61 JUMPI PUSH1 0x40 MLOAD PUSH3 0x461BCD PUSH1 0xE5 SHL DUP2 MSTORE PUSH1 0x20 PUSH1 0x4 DUP3 ADD MSTORE PUSH1 0x1C PUSH1 0x24 DUP3 ADD MSTORE PUSH32 0x50616E63616B654C6962726172793A205A45524F5F4144445245535300000000 PUSH1 0x44 DUP3 ADD MSTORE PUSH1 0x64 ADD PUSH2 0x153 JUMP JUMPDEST SWAP3 POP SWAP3 SWAP1 POP JUMP JUMPDEST PUSH1 0x0 DUP1 DUP5 GT PUSH2 0x4FCC JUMPI PUSH1 0x40 MLOAD PUSH3 0x461BCD PUSH1 0xE5 SHL DUP2 MSTORE PUSH1 0x20 PUSH1 0x4 DUP3 ADD MSTORE PUSH1 0x2A PUSH1 0x24 DUP3 ADD MSTORE PUSH32 0x50616E63616B654C6962726172793A20494E53554646494349454E545F4F5554 PUSH1 0x44 DUP3 ADD MSTORE PUSH10 0x14155517D05353D55395 PUSH1 0xB2 SHL PUSH1 0x64 DUP3 ADD MSTORE PUSH1 0x84 ADD PUSH2 0x153 JUMP JUMPDEST PUSH1 0x0 DUP4 GT DUP1 ISZERO PUSH2 0x4FDC JUMPI POP PUSH1 0x0 DUP3 GT JUMPDEST PUSH2 0x4FF8 JUMPI PUSH1 0x40 MLOAD PUSH3 0x461BCD PUSH1 0xE5 SHL DUP2 MSTORE PUSH1 0x4 ADD PUSH2 0x153 SWAP1 PUSH2 0x54CD JUMP JUMPDEST PUSH1 0x0 PUSH2 0x5010 PUSH2 0x3E8 PUSH2 0x500A DUP7 DUP9 PUSH2 0x503F JUMP JUMPDEST SWAP1 PUSH2 0x503F JUMP JUMPDEST SWAP1 POP PUSH1 0x0 PUSH2 0x5024 PUSH2 0x3E6 PUSH2 0x500A DUP7 DUP10 PUSH2 0x5057 JUMP JUMPDEST SWAP1 POP PUSH2 0x5035 PUSH1 0x1 PUSH2 0x4E55 DUP4 DUP6 PUSH2 0x5608 JUMP JUMPDEST SWAP7 SWAP6 POP POP POP POP POP POP JUMP JUMPDEST PUSH1 0x0 PUSH2 0x46BF DUP3 DUP5 PUSH2 0x562A JUMP JUMPDEST PUSH1 0x0 PUSH2 0x46BF DUP3 DUP5 PUSH2 0x55F0 JUMP JUMPDEST PUSH1 0x0 PUSH2 0x46BF DUP3 DUP5 PUSH2 0x5649 JUMP JUMPDEST DUP1 CALLDATALOAD PUSH2 0x506E DUP2 PUSH2 0x56D4 JUMP JUMPDEST SWAP2 SWAP1 POP JUMP JUMPDEST PUSH1 0x0 DUP1 DUP4 PUSH1 0x1F DUP5 ADD SLT PUSH2 0x5085 JUMPI PUSH1 0x0 DUP1 REVERT JUMPDEST POP DUP2 CALLDATALOAD PUSH8 0xFFFFFFFFFFFFFFFF DUP2 GT ISZERO PUSH2 0x509D JUMPI PUSH1 0x0 DUP1 REVERT JUMPDEST PUSH1 0x20 DUP4 ADD SWAP2 POP DUP4 PUSH1 0x20 DUP3 PUSH1 0x5 SHL DUP6 ADD ADD GT ISZERO PUSH2 0x4F61 JUMPI PUSH1 0x0 DUP1 REVERT JUMPDEST PUSH1 0x0 DUP3 PUSH1 0x1F DUP4 ADD SLT PUSH2 0x50C9 JUMPI PUSH1 0x0 DUP1 REVERT JUMPDEST DUP2 CALLDATALOAD PUSH1 0x20 PUSH8 0xFFFFFFFFFFFFFFFF DUP1 DUP4 GT ISZERO PUSH2 0x50E6 JUMPI PUSH2 0x50E6 PUSH2 0x56BE JUMP JUMPDEST DUP3 PUSH1 0x5 SHL PUSH1 0x40 MLOAD PUSH1 0x1F NOT PUSH1 0x3F DUP4 ADD AND DUP2 ADD DUP2 DUP2 LT DUP5 DUP3 GT OR ISZERO PUSH2 0x510B JUMPI PUSH2 0x510B PUSH2 0x56BE JUMP JUMPDEST PUSH1 0x40 MSTORE DUP5 DUP2 MSTORE DUP4 DUP2 ADD SWAP3 POP DUP7 DUP5 ADD DUP3 DUP9 ADD DUP6 ADD DUP10 LT ISZERO PUSH2 0x512A JUMPI PUSH1 0x0 DUP1 REVERT JUMPDEST PUSH1 0x0 SWAP3 POP JUMPDEST DUP6 DUP4 LT ISZERO PUSH2 0x5154 JUMPI PUSH2 0x5140 DUP2 PUSH2 0x5063 JUMP JUMPDEST DUP5 MSTORE SWAP3 DUP5 ADD SWAP3 PUSH1 0x1 SWAP3 SWAP1 SWAP3 ADD SWAP2 DUP5 ADD PUSH2 0x512F JUMP JUMPDEST POP SWAP8 SWAP7 POP POP POP POP POP POP POP JUMP JUMPDEST DUP1 MLOAD PUSH1 0x1 PUSH1 0x1 PUSH1 0x70 SHL SUB DUP2 AND DUP2 EQ PUSH2 0x506E JUMPI PUSH1 0x0 DUP1 REVERT JUMPDEST PUSH1 0x0 PUSH1 0x20 DUP3 DUP5 SUB SLT ISZERO PUSH2 0x5189 JUMPI PUSH1 0x0 DUP1 REVERT JUMPDEST DUP2 CALLDATALOAD PUSH2 0x46BF DUP2 PUSH2 0x56D4 JUMP JUMPDEST PUSH1 0x0 PUSH1 0x20 DUP3 DUP5 SUB SLT ISZERO PUSH2 0x51A6 JUMPI PUSH1 0x0 DUP1 REVERT JUMPDEST DUP2 MLOAD PUSH2 0x46BF DUP2 PUSH2 0x56D4 JUMP JUMPDEST PUSH1 0x0 DUP1 PUSH1 0x0 DUP1 PUSH1 0x0 PUSH1 0x80 DUP7 DUP9 SUB SLT ISZERO PUSH2 0x51C9 JUMPI PUSH1 0x0 DUP1 REVERT JUMPDEST DUP6 CALLDATALOAD PUSH2 0x51D4 DUP2 PUSH2 0x56D4 JUMP JUMPDEST SWAP5 POP PUSH1 0x20 DUP7 ADD CALLDATALOAD SWAP4 POP PUSH1 0x40 DUP7 ADD CALLDATALOAD SWAP3 POP PUSH1 0x60 DUP7 ADD CALLDATALOAD PUSH8 0xFFFFFFFFFFFFFFFF DUP1 DUP3 GT ISZERO PUSH2 0x51FF JUMPI PUSH1 0x0 DUP1 REVERT JUMPDEST DUP2 DUP9 ADD SWAP2 POP DUP9 PUSH1 0x1F DUP4 ADD SLT PUSH2 0x5213 JUMPI PUSH1 0x0 DUP1 REVERT JUMPDEST DUP2 CALLDATALOAD DUP2 DUP2 GT ISZERO PUSH2 0x5222 JUMPI PUSH1 0x0 DUP1 REVERT JUMPDEST DUP10 PUSH1 0x20 DUP3 DUP6 ADD ADD GT ISZERO PUSH2 0x5234 JUMPI PUSH1 0x0 DUP1 REVERT JUMPDEST SWAP7 SWAP10 SWAP6 SWAP9 POP SWAP4 SWAP7 POP PUSH1 0x20 ADD SWAP5 SWAP4 SWAP3 POP POP POP JUMP JUMPDEST PUSH1 0x0 PUSH1 0x20 DUP3 DUP5 SUB SLT ISZERO PUSH2 0x5259 JUMPI PUSH1 0x0 DUP1 REVERT JUMPDEST DUP2 MLOAD DUP1 ISZERO ISZERO DUP2 EQ PUSH2 0x46BF JUMPI PUSH1 0x0 DUP1 REVERT JUMPDEST PUSH1 0x0 DUP1 PUSH1 0x0 PUSH1 0x60 DUP5 DUP7 SUB SLT ISZERO PUSH2 0x527E JUMPI PUSH1 0x0 DUP1 REVERT JUMPDEST PUSH2 0x5287 DUP5 PUSH2 0x5160 JUMP JUMPDEST SWAP3 POP PUSH2 0x5295 PUSH1 0x20 DUP6 ADD PUSH2 0x5160 JUMP JUMPDEST SWAP2 POP PUSH1 0x40 DUP5 ADD MLOAD PUSH4 0xFFFFFFFF DUP2 AND DUP2 EQ PUSH2 0x52AE JUMPI PUSH1 0x0 DUP1 REVERT JUMPDEST DUP1 SWAP2 POP POP SWAP3 POP SWAP3 POP SWAP3 JUMP JUMPDEST PUSH1 0x0 PUSH1 0x20 DUP3 DUP5 SUB SLT ISZERO PUSH2 0x52CB JUMPI PUSH1 0x0 DUP1 REVERT JUMPDEST POP MLOAD SWAP2 SWAP1 POP JUMP JUMPDEST PUSH1 0x0 DUP1 PUSH1 0x0 DUP1 PUSH1 0x0 DUP1 PUSH1 0xC0 DUP8 DUP10 SUB SLT ISZERO PUSH2 0x52EB JUMPI PUSH1 0x0 DUP1 REVERT JUMPDEST DUP7 CALLDATALOAD SWAP6 POP PUSH1 0x20 DUP8 ADD CALLDATALOAD PUSH2 0x52FD DUP2 PUSH2 0x56D4 JUMP JUMPDEST SWAP5 POP PUSH1 0x40 DUP8 ADD CALLDATALOAD PUSH8 0xFFFFFFFFFFFFFFFF DUP1 DUP3 GT ISZERO PUSH2 0x531A JUMPI PUSH1 0x0 DUP1 REVERT JUMPDEST PUSH2 0x5326 DUP11 DUP4 DUP12 ADD PUSH2 0x50B8 JUMP JUMPDEST SWAP6 POP PUSH1 0x60 DUP10 ADD CALLDATALOAD SWAP2 POP DUP1 DUP3 GT ISZERO PUSH2 0x533C JUMPI PUSH1 0x0 DUP1 REVERT JUMPDEST PUSH2 0x5348 DUP11 DUP4 DUP12 ADD PUSH2 0x50B8 JUMP JUMPDEST SWAP5 POP PUSH1 0x80 DUP10 ADD CALLDATALOAD SWAP2 POP DUP1 DUP3 GT ISZERO PUSH2 0x535E JUMPI PUSH1 0x0 DUP1 REVERT JUMPDEST POP PUSH2 0x536B DUP10 DUP3 DUP11 ADD PUSH2 0x50B8 JUMP JUMPDEST SWAP3 POP POP PUSH1 0xA0 DUP8 ADD CALLDATALOAD SWAP1 POP SWAP3 SWAP6 POP SWAP3 SWAP6 POP SWAP3 SWAP6 JUMP JUMPDEST PUSH1 0x0 DUP1 PUSH1 0x0 DUP1 PUSH1 0x0 DUP1 PUSH1 0x0 DUP1 PUSH1 0x0 PUSH1 0xC0 DUP11 DUP13 SUB SLT ISZERO PUSH2 0x539D JUMPI PUSH1 0x0 DUP1 REVERT JUMPDEST DUP10 CALLDATALOAD SWAP9 POP PUSH1 0x20 DUP11 ADD CALLDATALOAD PUSH2 0x53AF DUP2 PUSH2 0x56D4 JUMP JUMPDEST SWAP8 POP PUSH1 0x40 DUP11 ADD CALLDATALOAD PUSH8 0xFFFFFFFFFFFFFFFF DUP1 DUP3 GT ISZERO PUSH2 0x53CC JUMPI PUSH1 0x0 DUP1 REVERT JUMPDEST PUSH2 0x53D8 DUP14 DUP4 DUP15 ADD PUSH2 0x5073 JUMP JUMPDEST SWAP1 SWAP10 POP SWAP8 POP PUSH1 0x60 DUP13 ADD CALLDATALOAD SWAP2 POP DUP1 DUP3 GT ISZERO PUSH2 0x53F1 JUMPI PUSH1 0x0 DUP1 REVERT JUMPDEST PUSH2 0x53FD DUP14 DUP4 DUP15 ADD PUSH2 0x5073 JUMP JUMPDEST SWAP1 SWAP8 POP SWAP6 POP PUSH1 0x80 DUP13 ADD CALLDATALOAD SWAP2 POP DUP1 DUP3 GT ISZERO PUSH2 0x5416 JUMPI PUSH1 0x0 DUP1 REVERT JUMPDEST POP PUSH2 0x5423 DUP13 DUP3 DUP14 ADD PUSH2 0x5073 JUMP JUMPDEST SWAP11 SWAP14 SWAP10 SWAP13 POP SWAP8 SWAP11 SWAP7 SWAP10 SWAP6 SWAP9 SWAP5 SWAP8 SWAP7 PUSH1 0xA0 ADD CALLDATALOAD SWAP5 SWAP4 POP POP POP POP JUMP JUMPDEST PUSH1 0x0 DUP1 PUSH1 0x40 DUP4 DUP6 SUB SLT ISZERO PUSH2 0x5450 JUMPI PUSH1 0x0 DUP1 REVERT JUMPDEST POP POP DUP1 MLOAD PUSH1 0x20 SWAP1 SWAP2 ADD MLOAD SWAP1 SWAP3 SWAP1 SWAP2 POP JUMP JUMPDEST DUP2 DUP4 MSTORE PUSH1 0x0 PUSH1 0x20 DUP1 DUP6 ADD SWAP5 POP DUP3 PUSH1 0x0 JUMPDEST DUP6 DUP2 LT ISZERO PUSH2 0x549F JUMPI DUP2 CALLDATALOAD PUSH2 0x5484 DUP2 PUSH2 0x56D4 JUMP JUMPDEST PUSH1 0x1 PUSH1 0x1 PUSH1 0xA0 SHL SUB AND DUP8 MSTORE SWAP6 DUP3 ADD SWAP6 SWAP1 DUP3 ADD SWAP1 PUSH1 0x1 ADD PUSH2 0x5471 JUMP JUMPDEST POP SWAP5 SWAP6 SWAP5 POP POP POP POP POP JUMP JUMPDEST PUSH1 0x1 PUSH1 0x1 PUSH1 0xA0 SHL SUB SWAP4 DUP5 AND DUP2 MSTORE PUSH1 0x20 DUP2 ADD SWAP3 SWAP1 SWAP3 MSTORE SWAP1 SWAP2 AND PUSH1 0x40 DUP3 ADD MSTORE PUSH1 0x60 ADD SWAP1 JUMP JUMPDEST PUSH1 0x20 DUP1 DUP3 MSTORE PUSH1 0x26 SWAP1 DUP3 ADD MSTORE PUSH32 0x50616E63616B654C6962726172793A20494E53554646494349454E545F4C4951 PUSH1 0x40 DUP3 ADD MSTORE PUSH6 0x554944495459 PUSH1 0xD0 SHL PUSH1 0x60 DUP3 ADD MSTORE PUSH1 0x80 ADD SWAP1 JUMP JUMPDEST DUP10 DUP2 MSTORE PUSH1 0x1 PUSH1 0x1 PUSH1 0xA0 SHL SUB DUP10 AND PUSH1 0x20 DUP3 ADD MSTORE PUSH1 0xC0 PUSH1 0x40 DUP3 ADD DUP2 SWAP1 MSTORE PUSH1 0x0 SWAP1 PUSH2 0x553E SWAP1 DUP4 ADD DUP10 DUP12 PUSH2 0x5461 JUMP JUMPDEST DUP3 DUP2 SUB PUSH1 0x60 DUP5 ADD MSTORE PUSH2 0x5551 DUP2 DUP9 DUP11 PUSH2 0x5461 JUMP JUMPDEST SWAP1 POP DUP3 DUP2 SUB PUSH1 0x80 DUP5 ADD MSTORE PUSH2 0x5566 DUP2 DUP7 DUP9 PUSH2 0x5461 JUMP JUMPDEST SWAP2 POP POP DUP3 PUSH1 0xA0 DUP4 ADD MSTORE SWAP11 SWAP10 POP POP POP POP POP POP POP POP POP POP JUMP JUMPDEST DUP5 DUP2 MSTORE PUSH1 0x0 PUSH1 0x20 DUP6 DUP2 DUP5 ADD MSTORE PUSH1 0x1 DUP1 PUSH1 0xA0 SHL SUB DUP6 AND PUSH1 0x40 DUP5 ADD MSTORE PUSH1 0x80 PUSH1 0x60 DUP5 ADD MSTORE DUP4 MLOAD DUP1 PUSH1 0x80 DUP6 ADD MSTORE PUSH1 0x0 JUMPDEST DUP2 DUP2 LT ISZERO PUSH2 0x55C5 JUMPI DUP6 DUP2 ADD DUP4 ADD MLOAD DUP6 DUP3 ADD PUSH1 0xA0 ADD MSTORE DUP3 ADD PUSH2 0x55A9 JUMP JUMPDEST DUP2 DUP2 GT ISZERO PUSH2 0x55D7 JUMPI PUSH1 0x0 PUSH1 0xA0 DUP4 DUP8 ADD ADD MSTORE JUMPDEST POP PUSH1 0x1F ADD PUSH1 0x1F NOT AND SWAP3 SWAP1 SWAP3 ADD PUSH1 0xA0 ADD SWAP7 SWAP6 POP POP POP POP POP POP JUMP JUMPDEST PUSH1 0x0 DUP3 NOT DUP3 GT ISZERO PUSH2 0x5603 JUMPI PUSH2 0x5603 PUSH2 0x5692 JUMP JUMPDEST POP ADD SWAP1 JUMP JUMPDEST PUSH1 0x0 DUP3 PUSH2 0x5625 JUMPI PUSH4 0x4E487B71 PUSH1 0xE0 SHL PUSH1 0x0 MSTORE PUSH1 0x12 PUSH1 0x4 MSTORE PUSH1 0x24 PUSH1 0x0 REVERT JUMPDEST POP DIV SWAP1 JUMP JUMPDEST PUSH1 0x0 DUP2 PUSH1 0x0 NOT DIV DUP4 GT DUP3 ISZERO ISZERO AND ISZERO PUSH2 0x5644 JUMPI PUSH2 0x5644 PUSH2 0x5692 JUMP JUMPDEST POP MUL SWAP1 JUMP JUMPDEST PUSH1 0x0 DUP3 DUP3 LT ISZERO PUSH2 0x565B JUMPI PUSH2 0x565B PUSH2 0x5692 JUMP JUMPDEST POP SUB SWAP1 JUMP JUMPDEST PUSH1 0x0 DUP2 PUSH2 0x566F JUMPI PUSH2 0x566F PUSH2 0x5692 JUMP JUMPDEST POP PUSH1 0x0 NOT ADD SWAP1 JUMP JUMPDEST PUSH1 0x0 PUSH1 0x0 NOT DUP3 EQ ISZERO PUSH2 0x568B JUMPI PUSH2 0x568B PUSH2 0x5692 JUMP JUMPDEST POP PUSH1 0x1 ADD SWAP1 JUMP JUMPDEST PUSH4 0x4E487B71 PUSH1 0xE0 SHL PUSH1 0x0 MSTORE PUSH1 0x11 PUSH1 0x4 MSTORE PUSH1 0x24 PUSH1 0x0 REVERT JUMPDEST PUSH4 0x4E487B71 PUSH1 0xE0 SHL PUSH1 0x0 MSTORE PUSH1 0x32 PUSH1 0x4 MSTORE PUSH1 0x24 PUSH1 0x0 REVERT JUMPDEST PUSH4 0x4E487B71 PUSH1 0xE0 SHL PUSH1 0x0 MSTORE PUSH1 0x41 PUSH1 0x4 MSTORE PUSH1 0x24 PUSH1 0x0 REVERT JUMPDEST PUSH1 0x1 PUSH1 0x1 PUSH1 0xA0 SHL SUB DUP2 AND DUP2 EQ PUSH2 0x56E9 JUMPI PUSH1 0x0 DUP1 REVERT JUMPDEST POP JUMP INVALID LOG2 PUSH5 0x6970667358 0x22 SLT KECCAK256 SIGNEXTEND PUSH12 0x1B30BD3583F51223E0FCD826 0xE PUSH24 0xD5BB505C7118EA00F5884C8EF23679B364736F6C63430008 SMOD STOP CALLER "
		},
		"gasEstimates": {
			"creation": {
				"codeDepositCost": "4461200",
				"executionCost": "5190",
				"totalCost": "4466390"
			},
			"external": {
				"pancakeCall(address,uint256,uint256,bytes)": "infinite",
				"qingsuan(uint256,address,address[],address[],address[],uint256)": "infinite"
			},
			"internal": {
				"_swap(uint256[] memory,address[] memory,address)": "infinite",
				"chainSwapExactIn(uint256,address[] memory,address)": "infinite",
				"chainSwapExactOut(uint256,address[] memory,address)": "infinite",
				"isStableCoin(address)": "141",
				"isVBNB(address)": "infinite"
			}
		},
		"methodIdentifiers": {
			"pancakeCall(address,uint256,uint256,bytes)": "84800812",
			"qingsuan(uint256,address,address[],address[],address[],uint256)": "b14e9a72"
		}
	},
	"abi": [
		{
			"anonymous": false,
			"inputs": [
				{
					"indexed": false,
					"internalType": "uint256",
					"name": "seizedUnderlyingAmount",
					"type": "uint256"
				},
				{
					"indexed": false,
					"internalType": "uint256",
					"name": "massProfit",
					"type": "uint256"
				}
			],
			"name": "Profit",
			"type": "event"
		},
		{
			"anonymous": false,
			"inputs": [
				{
					"indexed": false,
					"internalType": "uint256",
					"name": "scenarioNo",
					"type": "uint256"
				},
				{
					"indexed": false,
					"internalType": "address",
					"name": "repayUnderlyingToken",
					"type": "address"
				},
				{
					"indexed": false,
					"internalType": "uint256",
					"name": "repayAmount",
					"type": "uint256"
				},
				{
					"indexed": false,
					"internalType": "address",
					"name": "seizedUnderlyingToken",
					"type": "address"
				},
				{
					"indexed": false,
					"internalType": "uint256",
					"name": "flashLoanReturnAmount",
					"type": "uint256"
				},
				{
					"indexed": false,
					"internalType": "uint256",
					"name": "seizedUnderlyingAmount",
					"type": "uint256"
				},
				{
					"indexed": false,
					"internalType": "uint256",
					"name": "massProfit",
					"type": "uint256"
				}
			],
			"name": "Scenario",
			"type": "event"
		},
		{
			"inputs": [
				{
					"internalType": "address",
					"name": "_sender",
					"type": "address"
				},
				{
					"internalType": "uint256",
					"name": "_amount0",
					"type": "uint256"
				},
				{
					"internalType": "uint256",
					"name": "_amount1",
					"type": "uint256"
				},
				{
					"internalType": "bytes",
					"name": "_data",
					"type": "bytes"
				}
			],
			"name": "pancakeCall",
			"outputs": [],
			"stateMutability": "nonpayable",
			"type": "function"
		},
		{
			"inputs": [
				{
					"internalType": "uint256",
					"name": "_situation",
					"type": "uint256"
				},
				{
					"internalType": "address",
					"name": "_flashLoanFrom",
					"type": "address"
				},
				{
					"internalType": "address[]",
					"name": "_path1",
					"type": "address[]"
				},
				{
					"internalType": "address[]",
					"name": "_path2",
					"type": "address[]"
				},
				{
					"internalType": "address[]",
					"name": "_tokens",
					"type": "address[]"
				},
				{
					"internalType": "uint256",
					"name": "_flashLoanAmount",
					"type": "uint256"
				}
			],
			"name": "qingsuan",
			"outputs": [],
			"stateMutability": "nonpayable",
			"type": "function"
		}
	]
}