{
	"data": {
		"bytecode": {
			"linkReferences": {},
			"object": "60806040523480156200001157600080fd5b506200001d3362000023565b62000073565b600080546001600160a01b038381166001600160a01b0319831681178455604051919092169283917f8be0079c531659141344cd1fd0a4f28419497f9722a3daafe3b4186f6b6457e09190a35050565b615e6580620000836000396000f3fe6080604052600436106100595760003560e01c8063715018a614610065578063848008121461007c5780638da5cb5b1461009c578063b14e9a72146100c8578063f2fde38b146100e8578063f3fef3a31461010857600080fd5b3661006057005b600080fd5b34801561007157600080fd5b5061007a610128565b005b34801561008857600080fd5b5061007a610097366004615894565b610167565b3480156100a857600080fd5b50600054604080516001600160a01b039092168252519081900360200190f35b3480156100d457600080fd5b5061007a6100e3366004615a62565b61434d565b3480156100f457600080fd5b5061007a61010336600461582e565b614977565b34801561011457600080fd5b5061007a610123366004615868565b614a12565b6000546001600160a01b0316331461015b5760405162461bcd60e51b815260040161015290615bde565b60405180910390fd5b6101656000614b67565b565b6101f2604051806101e001604052806000815260200160006001600160a01b03168152602001606081526020016060815260200160608152602001600081526020016000815260200160006001600160a01b03168152602001600081526020016000815260200160008152602001600081526020016000815260200160008152602001600081525090565b6101fe828401846159b5565b60a08701526080860152606085015260408401526001600160a01b031660208301819052908252331461025b5760405162461bcd60e51b815260206004820152600560248201526410b830b4b960d91b6044820152606401610152565b6001600160a01b038616301461029d5760405162461bcd60e51b815260206004820152600760248201526610b9b2b73232b960c91b6044820152606401610152565b6126f78160a0015160196102b19190615d70565b6102bb9190615d4e565b8160a001516102ca9190615d36565b6102d5906001615d36565b60c08201526080810151805160049081106102f2576102f2615dee565b60209081029190910101516001600160a01b031660e08201526080810151805160009190829061032457610324615dee565b602002602001015190506000826080015160018151811061034757610347615dee565b602002602001015190506000836080015160038151811061036a5761036a615dee565b602002602001015190506000846080015160028151811061038d5761038d615dee565b602002602001015190506060856000015160011415610950576040860151511580156103bc5750606086015151155b6103f45760405162461bcd60e51b81526020600482015260096024820152681896b830ba3432b93960b91b6044820152606401610152565b61041b866080015160008151811061040e5761040e615dee565b6020026020010151614bb7565b61045b5760405162461bcd60e51b81526020600482015260116024820152701896b737ba1039ba30b136329031b7b4b760791b6044820152606401610152565b856080015160018151811061047257610472615dee565b60200260200101516001600160a01b0316866080015160008151811061049a5761049a615dee565b60200260200101516001600160a01b0316146104eb5760405162461bcd60e51b815260206004820152601060248201526f1896903737ba1039b0b6b29031b7b4b760811b6044820152606401610152565b6040516370a0823160e01b81523060048201526001600160a01b038516906370a082319060240160206040518083038186803b15801561052a57600080fd5b505afa15801561053e573d6000803e3d6000fd5b505050506040513d601f19601f82011682018060405250810190610562919061599c565b61010087015260e086015160a0870151604051637af1e23160e11b81526001600160a01b0388169263f5e3c4629261059e928990600401615bbb565b602060405180830381600087803b1580156105b857600080fd5b505af11580156105cc573d6000803e3d6000fd5b505050506040513d601f19601f820116820180604052508101906105f0919061599c565b1561063d5760405162461bcd60e51b815260206004820152601860248201527f312d6c6971756964617465426f72726f77206572726f722000000000000000006044820152606401610152565b6040516370a0823160e01b81523060048201526001600160a01b038516906370a082319060240160206040518083038186803b15801561067c57600080fd5b505afa158015610690573d6000803e3d6000fd5b505050506040513d601f19601f820116820180604052508101906106b4919061599c565b61012087018190526101008701516106cb91615d8f565b610140870181905261071f5760405162461bcd60e51b815260206004820152601e60248201527f312d7365697a65642076746f6b656e20616d6f756e74206973207a65726f00006044820152606401610152565b6040516370a0823160e01b81523060048201526001600160a01b038316906370a082319060240160206040518083038186803b15801561075e57600080fd5b505afa158015610772573d6000803e3d6000fd5b505050506040513d601f19601f82011682018060405250810190610796919061599c565b61016087015261014086015160405163db006a7560e01b815260048101919091526001600160a01b0385169063db006a7590602401602060405180830381600087803b1580156107e557600080fd5b505af11580156107f9573d6000803e3d6000fd5b505050506040513d601f19601f8201168201806040525081019061081d919061599c565b1561085b5760405162461bcd60e51b815260206004820152600e60248201526d1896b932b232b2b69032b93937b960911b6044820152606401610152565b6040516370a0823160e01b81523060048201526001600160a01b038316906370a082319060240160206040518083038186803b15801561089a57600080fd5b505afa1580156108ae573d6000803e3d6000fd5b505050506040513d601f19601f820116820180604052508101906108d2919061599c565b61018087018190526101608701516108e991615d8f565b6101a0870181905260c0870151106109305760405162461bcd60e51b815260206004820152600a602482015269312d6e6f20657874726160b01b6044820152606401610152565b8560c00151866101a001516109459190615d8f565b6101c0870152614225565b8551600214156112ef57604086015151158015610971575060608601515115155b6109ab5760405162461bcd60e51b815260206004820152600b60248201526a19171896b830ba3432b93960a91b6044820152606401610152565b6109ef86608001516000815181106109c5576109c5615dee565b60200260200101516001600160a01b031673a07c5b74c9b40447a954e1466938b865b6bbea361490565b15610e8f5760a0860151604051632e1a7d4d60e01b8152600481019190915273bb4cdb9cbd36b01bd1cbaebf2de08d9173bc095c90632e1a7d4d90602401600060405180830381600087803b158015610a4757600080fd5b505af1158015610a5b573d6000803e3d6000fd5b50506040516370a0823160e01b81523060048201526001600160a01b03871692506370a08231915060240160206040518083038186803b158015610a9e57600080fd5b505afa158015610ab2573d6000803e3d6000fd5b505050506040513d601f19601f82011682018060405250810190610ad6919061599c565b61010087015260808601518051600090610af257610af2615dee565b60200260200101516001600160a01b031663aae40a2a8760a001518860e001518960800151600181518110610b2957610b29615dee565b60200260200101516040518463ffffffff1660e01b8152600401610b639291906001600160a01b0392831681529116602082015260400190565b6000604051808303818588803b158015610b7c57600080fd5b505af1158015610b90573d6000803e3d6000fd5b50506040516370a0823160e01b81523060048201526001600160a01b03881693506370a082319250602401905060206040518083038186803b158015610bd557600080fd5b505afa158015610be9573d6000803e3d6000fd5b505050506040513d601f19601f82011682018060405250810190610c0d919061599c565b6101208701819052610100870151610c2491615d8f565b6101408701819052610c785760405162461bcd60e51b815260206004820181905260248201527f322e312d7365697a65642076746f6b656e20616d6f756e74206973207a65726f6044820152606401610152565b47610160870152608086015180516001908110610c9757610c97615dee565b60200260200101516001600160a01b031663db006a758761014001516040518263ffffffff1660e01b8152600401610cd191815260200190565b602060405180830381600087803b158015610ceb57600080fd5b505af1158015610cff573d6000803e3d6000fd5b505050506040513d601f19601f82011682018060405250810190610d23919061599c565b15610d605760405162461bcd60e51b815260206004820152600d60248201526c19171896b932b232b2b6b2b93960991b6044820152606401610152565b476101808701819052610160870151610d7891615d8f565b6101a0870181905260c087015110610dc15760405162461bcd60e51b815260206004820152600c60248201526b322e312d6e6f2d657874726160a01b6044820152606401610152565b73bb4cdb9cbd36b01bd1cbaebf2de08d9173bc095c6001600160a01b031663d0e30db0876101a001516040518263ffffffff1660e01b81526004016000604051808303818588803b158015610e1557600080fd5b505af1158015610e29573d6000803e3d6000fd5b505050505060008660c00151876101a00151610e459190615d8f565b9050610e5681886060015130614c2d565b91508160018351610e679190615d8f565b81518110610e7757610e77615dee565b6020026020010151876101c001818152505050614225565b6040516370a0823160e01b81523060048201526001600160a01b038516906370a082319060240160206040518083038186803b158015610ece57600080fd5b505afa158015610ee2573d6000803e3d6000fd5b505050506040513d601f19601f82011682018060405250810190610f06919061599c565b61010087015260e086015160a0870151604051637af1e23160e11b81526001600160a01b0388169263f5e3c46292610f42928990600401615bbb565b602060405180830381600087803b158015610f5c57600080fd5b505af1158015610f70573d6000803e3d6000fd5b505050506040513d601f19601f82011682018060405250810190610f94919061599c565b15610fe15760405162461bcd60e51b815260206004820152601a60248201527f322e322d6c6971756964617465426f72726f77206572726f72200000000000006044820152606401610152565b6040516370a0823160e01b81523060048201526001600160a01b038516906370a082319060240160206040518083038186803b15801561102057600080fd5b505afa158015611034573d6000803e3d6000fd5b505050506040513d601f19601f82011682018060405250810190611058919061599c565b610120870181905261010087015161106f91615d8f565b61014087018190526110c35760405162461bcd60e51b815260206004820181905260248201527f322e322d7365697a65642076746f6b656e20616d6f756e74206973207a65726f6044820152606401610152565b6040516370a0823160e01b81523060048201526001600160a01b038316906370a082319060240160206040518083038186803b15801561110257600080fd5b505afa158015611116573d6000803e3d6000fd5b505050506040513d601f19601f8201168201806040525081019061113a919061599c565b61016087015261014086015160405163db006a7560e01b815260048101919091526001600160a01b0385169063db006a7590602401602060405180830381600087803b15801561118957600080fd5b505af115801561119d573d6000803e3d6000fd5b505050506040513d601f19601f820116820180604052508101906111c1919061599c565b156112015760405162461bcd60e51b815260206004820152601060248201526f19171916b932b232b2b69032b93937b960811b6044820152606401610152565b6040516370a0823160e01b81523060048201526001600160a01b038316906370a082319060240160206040518083038186803b15801561124057600080fd5b505afa158015611254573d6000803e3d6000fd5b505050506040513d601f19601f82011682018060405250810190611278919061599c565b610180870181905261016087015161128f91615d8f565b6101a0870181905260c0870151106112d85760405162461bcd60e51b815260206004820152600c60248201526b322e322d6e6f20657874726160a01b6044820152606401610152565b60008660c00151876101a00151610e459190615d8f565b855160031415611cf857611313866080015160018151811061040e5761040e615dee565b6113695760405162461bcd60e51b815260206004820152602160248201527f332d7365697a656420746f6b656e206973206e6f7420737461626c6520636f696044820152603760f91b6064820152608401610152565b61138386608001516000815181106109c5576109c5615dee565b1561187a5760a0860151604051632e1a7d4d60e01b8152600481019190915273bb4cdb9cbd36b01bd1cbaebf2de08d9173bc095c90632e1a7d4d90602401600060405180830381600087803b1580156113db57600080fd5b505af11580156113ef573d6000803e3d6000fd5b50506040516370a0823160e01b81523060048201526001600160a01b03871692506370a08231915060240160206040518083038186803b15801561143257600080fd5b505afa158015611446573d6000803e3d6000fd5b505050506040513d601f19601f8201168201806040525081019061146a919061599c565b6101008701526080860151805160009061148657611486615dee565b60200260200101516001600160a01b031663aae40a2a8760a001518860e0015189608001516001815181106114bd576114bd615dee565b60200260200101516040518463ffffffff1660e01b81526004016114f79291906001600160a01b0392831681529116602082015260400190565b6000604051808303818588803b15801561151057600080fd5b505af1158015611524573d6000803e3d6000fd5b50506040516370a0823160e01b81523060048201526001600160a01b03881693506370a082319250602401905060206040518083038186803b15801561156957600080fd5b505afa15801561157d573d6000803e3d6000fd5b505050506040513d601f19601f820116820180604052508101906115a1919061599c565b61012087018190526101008701516115b891615d8f565b610140870181905261160c5760405162461bcd60e51b815260206004820181905260248201527f332e312d7365697a65642076746f6b656e20616d6f756e74206973207a65726f6044820152606401610152565b6040516370a0823160e01b81523060048201526001600160a01b038316906370a082319060240160206040518083038186803b15801561164b57600080fd5b505afa15801561165f573d6000803e3d6000fd5b505050506040513d601f19601f82011682018060405250810190611683919061599c565b61016087015261014086015160405163db006a7560e01b815260048101919091526001600160a01b0385169063db006a7590602401602060405180830381600087803b1580156116d257600080fd5b505af11580156116e6573d6000803e3d6000fd5b505050506040513d601f19601f8201168201806040525081019061170a919061599c565b156117475760405162461bcd60e51b815260206004820152600d60248201526c19971896b932b232b2b6b2b93960991b6044820152606401610152565b6040516370a0823160e01b81523060048201526001600160a01b038316906370a082319060240160206040518083038186803b15801561178657600080fd5b505afa15801561179a573d6000803e3d6000fd5b505050506040513d601f19601f820116820180604052508101906117be919061599c565b61018087018190526101608701516117d591615d8f565b6101a087015260c086015160408701516117f0919030614d7d565b90508060008151811061180557611805615dee565b6020026020010151866101a001511161184f5760405162461bcd60e51b815260206004820152600c60248201526b332e312d6e6f2d657874726160a01b6044820152606401610152565b8060008151811061186257611862615dee565b6020026020010151866101a001516109459190615d8f565b6040516370a0823160e01b81523060048201526001600160a01b038516906370a082319060240160206040518083038186803b1580156118b957600080fd5b505afa1580156118cd573d6000803e3d6000fd5b505050506040513d601f19601f820116820180604052508101906118f1919061599c565b61010087015260e086015160a0870151604051637af1e23160e11b81526001600160a01b0388169263f5e3c4629261192d928990600401615bbb565b602060405180830381600087803b15801561194757600080fd5b505af115801561195b573d6000803e3d6000fd5b505050506040513d601f19601f8201168201806040525081019061197f919061599c565b156119cc5760405162461bcd60e51b815260206004820152601a60248201527f332e322d6c6971756964617465426f72726f77206572726f72200000000000006044820152606401610152565b6040516370a0823160e01b81523060048201526001600160a01b038516906370a082319060240160206040518083038186803b158015611a0b57600080fd5b505afa158015611a1f573d6000803e3d6000fd5b505050506040513d601f19601f82011682018060405250810190611a43919061599c565b6101208701819052610100870151611a5a91615d8f565b6101408701819052611aae5760405162461bcd60e51b815260206004820181905260248201527f332e322d7365697a65642076746f6b656e20616d6f756e74206973207a65726f6044820152606401610152565b6040516370a0823160e01b81523060048201526001600160a01b038316906370a082319060240160206040518083038186803b158015611aed57600080fd5b505afa158015611b01573d6000803e3d6000fd5b505050506040513d601f19601f82011682018060405250810190611b25919061599c565b61016087015261014086015160405163db006a7560e01b815260048101919091526001600160a01b0385169063db006a7590602401602060405180830381600087803b158015611b7457600080fd5b505af1158015611b88573d6000803e3d6000fd5b505050506040513d601f19601f82011682018060405250810190611bac919061599c565b15611bec5760405162461bcd60e51b815260206004820152601060248201526f19971916b932b232b2b69032b93937b960811b6044820152606401610152565b6040516370a0823160e01b81523060048201526001600160a01b038316906370a082319060240160206040518083038186803b158015611c2b57600080fd5b505afa158015611c3f573d6000803e3d6000fd5b505050506040513d601f19601f82011682018060405250810190611c63919061599c565b6101808701819052610160870151611c7a91615d8f565b6101a087015260c08601516040870151611c95919030614d7d565b905080600081518110611caa57611caa615dee565b6020026020010151866101a001511161184f5760405162461bcd60e51b815260206004820152601060248201526f332e322d626e622d6e6f2d657874726160801b6044820152606401610152565b85516004141561265a57611d1c866080015160008151811061040e5761040e615dee565b611d685760405162461bcd60e51b815260206004820152601f60248201527f342d7265706179546f6b656e206973206e6f7420737461626c6520636f696e006044820152606401610152565b611d8286608001516001815181106109c5576109c5615dee565b156121d3576040516370a0823160e01b81523060048201526001600160a01b038516906370a082319060240160206040518083038186803b158015611dc657600080fd5b505afa158015611dda573d6000803e3d6000fd5b505050506040513d601f19601f82011682018060405250810190611dfe919061599c565b61010087015260e086015160a0870151604051637af1e23160e11b81526001600160a01b0388169263f5e3c46292611e3a928990600401615bbb565b602060405180830381600087803b158015611e5457600080fd5b505af1158015611e68573d6000803e3d6000fd5b505050506040513d601f19601f82011682018060405250810190611e8c919061599c565b15611ed95760405162461bcd60e51b815260206004820152601a60248201527f342e312d6c6971756964617465426f72726f77206572726f72200000000000006044820152606401610152565b6040516370a0823160e01b81523060048201526001600160a01b038516906370a082319060240160206040518083038186803b158015611f1857600080fd5b505afa158015611f2c573d6000803e3d6000fd5b505050506040513d601f19601f82011682018060405250810190611f50919061599c565b6101208701819052610100870151611f6791615d8f565b6101408701819052611fbb5760405162461bcd60e51b815260206004820181905260248201527f342e312d7365697a65642076746f6b656e20616d6f756e74206973207a65726f6044820152606401610152565b47610160870152608086015180516001908110611fda57611fda615dee565b60200260200101516001600160a01b031663db006a758761014001516040518263ffffffff1660e01b815260040161201491815260200190565b602060405180830381600087803b15801561202e57600080fd5b505af1158015612042573d6000803e3d6000fd5b505050506040513d601f19601f82011682018060405250810190612066919061599c565b156120a65760405162461bcd60e51b815260206004820152601060248201526f1a171896b932b232b2b69032b93937b960811b6044820152606401610152565b4761018087018190526101608701516120be91615d8f565b866101a001818152505073bb4cdb9cbd36b01bd1cbaebf2de08d9173bc095c6001600160a01b031663d0e30db0876101a001516040518263ffffffff1660e01b81526004016000604051808303818588803b15801561211c57600080fd5b505af1158015612130573d6000803e3d6000fd5b5050505050612149866101a00151876040015130614c2d565b90506000816001835161215c9190615d8f565b8151811061216c5761216c615dee565b602002602001015190508660c0015181116121b85760405162461bcd60e51b815260206004820152600c60248201526b342e312d6e6f20657874726160a01b6044820152606401610152565b60c08701516121c79082615d8f565b6101c088015250614225565b6040516370a0823160e01b81523060048201526001600160a01b038516906370a082319060240160206040518083038186803b15801561221257600080fd5b505afa158015612226573d6000803e3d6000fd5b505050506040513d601f19601f8201168201806040525081019061224a919061599c565b61010087015260e086015160a0870151604051637af1e23160e11b81526001600160a01b0388169263f5e3c46292612286928990600401615bbb565b602060405180830381600087803b1580156122a057600080fd5b505af11580156122b4573d6000803e3d6000fd5b505050506040513d601f19601f820116820180604052508101906122d8919061599c565b156123255760405162461bcd60e51b815260206004820152601a60248201527f342e322d6c6971756964617465426f72726f77206572726f72200000000000006044820152606401610152565b6040516370a0823160e01b81523060048201526001600160a01b038516906370a082319060240160206040518083038186803b15801561236457600080fd5b505afa158015612378573d6000803e3d6000fd5b505050506040513d601f19601f8201168201806040525081019061239c919061599c565b61012087018190526101008701516123b391615d8f565b61014087018190526124075760405162461bcd60e51b815260206004820181905260248201527f342e322d7365697a65642076746f6b656e20616d6f756e74206973207a65726f6044820152606401610152565b6040516370a0823160e01b81523060048201526001600160a01b038316906370a082319060240160206040518083038186803b15801561244657600080fd5b505afa15801561245a573d6000803e3d6000fd5b505050506040513d601f19601f8201168201806040525081019061247e919061599c565b61016087015261014086015160405163db006a7560e01b815260048101919091526001600160a01b0385169063db006a7590602401602060405180830381600087803b1580156124cd57600080fd5b505af11580156124e1573d6000803e3d6000fd5b505050506040513d601f19601f82011682018060405250810190612505919061599c565b156125455760405162461bcd60e51b815260206004820152601060248201526f1a171916b932b232b2b69032b93937b960811b6044820152606401610152565b6040516370a0823160e01b81523060048201526001600160a01b038316906370a082319060240160206040518083038186803b15801561258457600080fd5b505afa158015612598573d6000803e3d6000fd5b505050506040513d601f19601f820116820180604052508101906125bc919061599c565b61018087018190526101608701516125d391615d8f565b6101a0870181905260408701516125eb919030614c2d565b9050600081600183516125fe9190615d8f565b8151811061260e5761260e615dee565b602002602001015190508660c0015181116121b85760405162461bcd60e51b815260206004820152600c60248201526b342e322d6e6f20657874726160a01b6044820152606401610152565b8551600514156133d45761267e86608001516000815181106109c5576109c5615dee565b15612b7a5760a0860151604051632e1a7d4d60e01b8152600481019190915273bb4cdb9cbd36b01bd1cbaebf2de08d9173bc095c90632e1a7d4d90602401600060405180830381600087803b1580156126d657600080fd5b505af11580156126ea573d6000803e3d6000fd5b50506040516370a0823160e01b81523060048201526001600160a01b03871692506370a08231915060240160206040518083038186803b15801561272d57600080fd5b505afa158015612741573d6000803e3d6000fd5b505050506040513d601f19601f82011682018060405250810190612765919061599c565b6101008701526080860151805160009061278157612781615dee565b60200260200101516001600160a01b031663aae40a2a8760a001518860e0015189608001516001815181106127b8576127b8615dee565b60200260200101516040518463ffffffff1660e01b81526004016127f29291906001600160a01b0392831681529116602082015260400190565b6000604051808303818588803b15801561280b57600080fd5b505af115801561281f573d6000803e3d6000fd5b50506040516370a0823160e01b81523060048201526001600160a01b03881693506370a082319250602401905060206040518083038186803b15801561286457600080fd5b505afa158015612878573d6000803e3d6000fd5b505050506040513d601f19601f8201168201806040525081019061289c919061599c565b61012087018190526101008701516128b391615d8f565b61014087018190526129075760405162461bcd60e51b815260206004820181905260248201527f352e312d7365697a65642076746f6b656e20616d6f756e74206973207a65726f6044820152606401610152565b6040516370a0823160e01b81523060048201526001600160a01b038316906370a082319060240160206040518083038186803b15801561294657600080fd5b505afa15801561295a573d6000803e3d6000fd5b505050506040513d601f19601f8201168201806040525081019061297e919061599c565b61016087015261014086015160405163db006a7560e01b815260048101919091526001600160a01b0385169063db006a7590602401602060405180830381600087803b1580156129cd57600080fd5b505af11580156129e1573d6000803e3d6000fd5b505050506040513d601f19601f82011682018060405250810190612a05919061599c565b15612a455760405162461bcd60e51b815260206004820152601060248201526f1a971896b932b232b2b69032b93937b960811b6044820152606401610152565b6040516370a0823160e01b81523060048201526001600160a01b038316906370a082319060240160206040518083038186803b158015612a8457600080fd5b505afa158015612a98573d6000803e3d6000fd5b505050506040513d601f19601f82011682018060405250810190612abc919061599c565b6101808701819052610160870151612ad391615d8f565b6101a087015260c08601516040870151612aee919030614d7d565b905080600081518110612b0357612b03615dee565b6020026020010151866101a0015111612b4d5760405162461bcd60e51b815260206004820152600c60248201526b352e312d6e6f20657874726160a01b6044820152606401610152565b600081600081518110612b6257612b62615dee565b6020026020010151876101a00151610e459190615d8f565b612b9486608001516001815181106109c5576109c5615dee565b15612f5a576040516370a0823160e01b81523060048201526001600160a01b038516906370a082319060240160206040518083038186803b158015612bd857600080fd5b505afa158015612bec573d6000803e3d6000fd5b505050506040513d601f19601f82011682018060405250810190612c10919061599c565b61010087015260e086015160a0870151604051637af1e23160e11b81526001600160a01b0388169263f5e3c46292612c4c928990600401615bbb565b602060405180830381600087803b158015612c6657600080fd5b505af1158015612c7a573d6000803e3d6000fd5b505050506040513d601f19601f82011682018060405250810190612c9e919061599c565b15612ceb5760405162461bcd60e51b815260206004820152601960248201527f352e322d6c6971756964617465426f72726f77206572726f72000000000000006044820152606401610152565b6040516370a0823160e01b81523060048201526001600160a01b038516906370a082319060240160206040518083038186803b158015612d2a57600080fd5b505afa158015612d3e573d6000803e3d6000fd5b505050506040513d601f19601f82011682018060405250810190612d62919061599c565b6101208701819052610100870151612d7991615d8f565b6101408701819052612dcd5760405162461bcd60e51b815260206004820181905260248201527f352e322d7365697a65642076746f6b656e20616d6f756e74206973207a65726f6044820152606401610152565b47610160870152608086015180516001908110612dec57612dec615dee565b60200260200101516001600160a01b031663db006a758761014001516040518263ffffffff1660e01b8152600401612e2691815260200190565b602060405180830381600087803b158015612e4057600080fd5b505af1158015612e54573d6000803e3d6000fd5b505050506040513d601f19601f82011682018060405250810190612e78919061599c565b15612eb85760405162461bcd60e51b815260206004820152601060248201526f1a971916b932b232b2b69032b93937b960811b6044820152606401610152565b476101808701819052610160870151612ed091615d8f565b866101a001818152505073bb4cdb9cbd36b01bd1cbaebf2de08d9173bc095c6001600160a01b031663d0e30db0876101a001516040518263ffffffff1660e01b81526004016000604051808303818588803b158015612f2e57600080fd5b505af1158015612f42573d6000803e3d6000fd5b5050505050612aee8660c00151876040015130614d7d565b6040516370a0823160e01b81523060048201526001600160a01b038516906370a082319060240160206040518083038186803b158015612f9957600080fd5b505afa158015612fad573d6000803e3d6000fd5b505050506040513d601f19601f82011682018060405250810190612fd1919061599c565b61010087015260e086015160a0870151604051637af1e23160e11b81526001600160a01b0388169263f5e3c4629261300d928990600401615bbb565b602060405180830381600087803b15801561302757600080fd5b505af115801561303b573d6000803e3d6000fd5b505050506040513d601f19601f8201168201806040525081019061305f919061599c565b156130ac5760405162461bcd60e51b815260206004820152601a60248201527f352e332d6c6971756964617465426f72726f77206572726f72200000000000006044820152606401610152565b6040516370a0823160e01b81523060048201526001600160a01b038516906370a082319060240160206040518083038186803b1580156130eb57600080fd5b505afa1580156130ff573d6000803e3d6000fd5b505050506040513d601f19601f82011682018060405250810190613123919061599c565b610120870181905261010087015161313a91615d8f565b610140870181905261318e5760405162461bcd60e51b815260206004820181905260248201527f352e332d7365697a65642076746f6b656e20616d6f756e74206973207a65726f6044820152606401610152565b6040516370a0823160e01b81523060048201526001600160a01b038316906370a082319060240160206040518083038186803b1580156131cd57600080fd5b505afa1580156131e1573d6000803e3d6000fd5b505050506040513d601f19601f82011682018060405250810190613205919061599c565b61016087015261014086015160405163db006a7560e01b815260048101919091526001600160a01b0385169063db006a7590602401602060405180830381600087803b15801561325457600080fd5b505af1158015613268573d6000803e3d6000fd5b505050506040513d601f19601f8201168201806040525081019061328c919061599c565b156132cc5760405162461bcd60e51b815260206004820152601060248201526f1a971996b932b232b2b69032b93937b960811b6044820152606401610152565b6040516370a0823160e01b81523060048201526001600160a01b038316906370a082319060240160206040518083038186803b15801561330b57600080fd5b505afa15801561331f573d6000803e3d6000fd5b505050506040513d601f19601f82011682018060405250810190613343919061599c565b610180870181905261016087015161335a91615d8f565b6101a087015260c08601516040870151613375919030614d7d565b90508060008151811061338a5761338a615dee565b6020026020010151866101a0015111612b4d5760405162461bcd60e51b815260206004820152600c60248201526b352e332d6e6f20657874726160a01b6044820152606401610152565b85516006141561393a576133f8866080015160018151811061040e5761040e615dee565b6134445760405162461bcd60e51b815260206004820181905260248201527f362d7365697a6564546f6b656e206973206e6f7420737461626c6520636f696e6044820152606401610152565b6040516370a0823160e01b81523060048201526001600160a01b038516906370a082319060240160206040518083038186803b15801561348357600080fd5b505afa158015613497573d6000803e3d6000fd5b505050506040513d601f19601f820116820180604052508101906134bb919061599c565b61010087015260808601518051600091829182906134db576134db615dee565b60200260200101516001600160a01b03166311b3d5e78960e001518a60a00151896040518463ffffffff1660e01b815260040161351a93929190615bbb565b6040805180830381600087803b15801561353357600080fd5b505af1158015613547573d6000803e3d6000fd5b505050506040513d601f19601f8201168201806040525081019061356b9190615b20565b91509150816000146135bf5760405162461bcd60e51b815260206004820152601860248201527f362d6c6971756964617465426f72726f77206572726f722000000000000000006044820152606401610152565b6040516370a0823160e01b81523060048201526001600160a01b038716906370a082319060240160206040518083038186803b1580156135fe57600080fd5b505afa158015613612573d6000803e3d6000fd5b505050506040513d601f19601f82011682018060405250810190613636919061599c565b610120890181905261010089015161364d91615d8f565b61014089018190526136a15760405162461bcd60e51b815260206004820152601e60248201527f362d7365697a65642076746f6b656e20616d6f756e74206973207a65726f00006044820152606401610152565b6040516370a0823160e01b81523060048201526001600160a01b038516906370a082319060240160206040518083038186803b1580156136e057600080fd5b505afa1580156136f4573d6000803e3d6000fd5b505050506040513d601f19601f82011682018060405250810190613718919061599c565b61016089015261014088015160405163db006a7560e01b815260048101919091526001600160a01b0387169063db006a7590602401602060405180830381600087803b15801561376757600080fd5b505af115801561377b573d6000803e3d6000fd5b505050506040513d601f19601f8201168201806040525081019061379f919061599c565b156137dd5760405162461bcd60e51b815260206004820152600e60248201526d1b16b932b232b2b69032b93937b960911b6044820152606401610152565b6040516370a0823160e01b81523060048201526001600160a01b038516906370a082319060240160206040518083038186803b15801561381c57600080fd5b505afa158015613830573d6000803e3d6000fd5b505050506040513d601f19601f82011682018060405250810190613854919061599c565b610180890181905261016089015161386b91615d8f565b6101a089015260a088015160c08901516000919061388a908490615d36565b6138949190615d8f565b90506138a5818a6040015130614d7d565b50836000815181106138b9576138b9615dee565b6020026020010151896101a00151116139005760405162461bcd60e51b8152602060048201526009602482015268362d6e6f657874726160b81b6044820152606401610152565b8360008151811061391357613913615dee565b6020026020010151896101a0015161392b9190615d8f565b6101c08a015250614225915050565b8551600714156100605761395e86608001516001815181106109c5576109c5615dee565b15613e4a576040516370a0823160e01b81523060048201526001600160a01b038516906370a082319060240160206040518083038186803b1580156139a257600080fd5b505afa1580156139b6573d6000803e3d6000fd5b505050506040513d601f19601f820116820180604052508101906139da919061599c565b61016087015260808601518051600091829182906139fa576139fa615dee565b60200260200101516001600160a01b03166311b3d5e78960e001518a60a00151896040518463ffffffff1660e01b8152600401613a3993929190615bbb565b6040805180830381600087803b158015613a5257600080fd5b505af1158015613a66573d6000803e3d6000fd5b505050506040513d601f19601f82011682018060405250810190613a8a9190615b20565b9150915081600014613ade5760405162461bcd60e51b815260206004820152601a60248201527f372e312d6c6971756964617465426f72726f77206572726f72200000000000006044820152606401610152565b6040516370a0823160e01b81523060048201526001600160a01b038716906370a082319060240160206040518083038186803b158015613b1d57600080fd5b505afa158015613b31573d6000803e3d6000fd5b505050506040513d601f19601f82011682018060405250810190613b55919061599c565b610180890152610100880151610120890151613b719190615d8f565b6101408901819052613bc55760405162461bcd60e51b815260206004820181905260248201527f372e312d7365697a65642076746f6b656e20616d6f756e74206973207a65726f6044820152606401610152565b47610160890152608088015180516001908110613be457613be4615dee565b60200260200101516001600160a01b031663db006a758961014001516040518263ffffffff1660e01b8152600401613c1e91815260200190565b602060405180830381600087803b158015613c3857600080fd5b505af1158015613c4c573d6000803e3d6000fd5b505050506040513d601f19601f82011682018060405250810190613c70919061599c565b15613cb05760405162461bcd60e51b815260206004820152601060248201526f1b971896b932b232b2b69032b93937b960811b6044820152606401610152565b476101808901819052610160890151613cc891615d8f565b886101a001818152505073bb4cdb9cbd36b01bd1cbaebf2de08d9173bc095c6001600160a01b031663d0e30db0896101a001516040518263ffffffff1660e01b81526004016000604051808303818588803b158015613d2657600080fd5b505af1158015613d3a573d6000803e3d6000fd5b505050505060008860a00151828a60c00151613d569190615d36565b613d609190615d8f565b9050613d71818a6040015130614d7d565b935083600081518110613d8657613d86615dee565b6020026020010151896101a0015111613dd05760405162461bcd60e51b815260206004820152600c60248201526b372e312d6e6f20657874726160a01b6044820152606401610152565b600084600081518110613de557613de5615dee565b60200260200101518a6101a00151613dfd9190615d8f565b9050613e0e818b6060015130614c2d565b94508460018651613e1f9190615d8f565b81518110613e2f57613e2f615dee565b60200260200101518a6101c001818152505050505050614225565b6040516370a0823160e01b81523060048201526001600160a01b038516906370a082319060240160206040518083038186803b158015613e8957600080fd5b505afa158015613e9d573d6000803e3d6000fd5b505050506040513d601f19601f82011682018060405250810190613ec1919061599c565b6101608701526080860151805160009182918290613ee157613ee1615dee565b60200260200101516001600160a01b03166311b3d5e78960e001518a60a00151896040518463ffffffff1660e01b8152600401613f2093929190615bbb565b6040805180830381600087803b158015613f3957600080fd5b505af1158015613f4d573d6000803e3d6000fd5b505050506040513d601f19601f82011682018060405250810190613f719190615b20565b9150915081600014613fc55760405162461bcd60e51b815260206004820152601960248201527f372e322d6c6971756964617465426f72726f77206572726f72000000000000006044820152606401610152565b6040516370a0823160e01b81523060048201526001600160a01b038716906370a082319060240160206040518083038186803b15801561400457600080fd5b505afa158015614018573d6000803e3d6000fd5b505050506040513d601f19601f8201168201806040525081019061403c919061599c565b6101808901526101008801516101208901516140589190615d8f565b61014089018190526140ac5760405162461bcd60e51b815260206004820181905260248201527f372e322d7365697a65642076746f6b656e20616d6f756e74206973207a65726f6044820152606401610152565b4761016089015261014088015160405163db006a7560e01b815260048101919091526001600160a01b0387169063db006a7590602401602060405180830381600087803b1580156140fc57600080fd5b505af1158015614110573d6000803e3d6000fd5b505050506040513d601f19601f82011682018060405250810190614134919061599c565b156141745760405162461bcd60e51b815260206004820152601060248201526f1b971916b932b232b2b69032b93937b960811b6044820152606401610152565b47610180890181905261016089015161418c91615d8f565b6101a089015260a088015160c0890151600091906141ab908490615d36565b6141b59190615d8f565b90506141c6818a6040015130614d7d565b9350836000815181106141db576141db615dee565b6020026020010151896101a0015111613dd05760405162461bcd60e51b815260206004820152600c60248201526b372e322d6e6f20657874726160a01b6044820152606401610152565b602086015160c087015160405163a9059cbb60e01b81526001600160a01b0386169263a9059cbb9261426d926004016001600160a01b03929092168252602082015260400190565b602060405180830381600087803b15801561428757600080fd5b505af115801561429b573d6000803e3d6000fd5b505050506040513d601f19601f820116820180604052508101906142bf919061592a565b50855160a08088015160c0808a01516101a08b01516101c08c0151604080519788526001600160a01b03808c1660208a0152908801959095529388166060870152608086019190915292840192909252908201527fee80f069d389b1636bfe8a115ff1d8ad940b394b4d16bb19c8503003d14dd5b49060e00160405180910390a15050505050505050505050565b6001891015801561435f575060078911155b6143965760405162461bcd60e51b815260206004820152600860248201526777726f6e6720736960c01b6044820152606401610152565b6001600160a01b0388166143d45760405162461bcd60e51b815260206004820152600560248201526410b830b4b960d91b6044820152606401610152565b600073fd36e2c2a6789db23113685031d7f16329158384635ec88c798585600481811061440357614403615dee565b9050602002016020810190614418919061582e565b6040516001600160e01b031960e084901b1681526001600160a01b03909116600482015260240160606040518083038186803b15801561445757600080fd5b505afa15801561446b573d6000803e3d6000fd5b505050506040513d601f19601f8201168201806040525081019061448f9190615b44565b92505050600081116144ed5760405162461bcd60e51b815260206004820152602160248201527f73686f727466616c6c206d7573742067726561746572207468616e207a6572206044820152600360fc1b6064820152608401610152565b7f468d929add1fbbfc80e5dfde344a58444d6d5ba8ec3d4b12d8a02a6913e477168a8a8a8a8a8a8a8a8a60405161452c99989796959493929190615c59565b60405180910390a1600160008585600381811061454b5761454b615dee565b9050602002016020810190614560919061582e565b6001600160a01b03166001600160a01b0316815260200190815260200160002060008585600081811061459557614595615dee565b90506020020160208101906145aa919061582e565b6001600160a01b0316815260208101919091526040016000205460ff1661474b57838360038181106145de576145de615dee565b90506020020160208101906145f3919061582e565b6001600160a01b031663095ea7b38585600081811061461457614614615dee565b9050602002016020810190614629919061582e565b6040516001600160e01b031960e084901b1681526001600160a01b0390911660048201526000196024820152604401602060405180830381600087803b15801561467257600080fd5b505af1158015614686573d6000803e3d6000fd5b505050506040513d601f19601f820116820180604052508101906146aa919061592a565b506001806000868660038181106146c3576146c3615dee565b90506020020160208101906146d8919061582e565b6001600160a01b03166001600160a01b0316815260200190815260200160002060008686600081811061470d5761470d615dee565b9050602002016020810190614722919061582e565b6001600160a01b031681526020810191909152604001600020805460ff19169115159190911790555b6000896001600160a01b0316630dfe16816040518163ffffffff1660e01b815260040160206040518083038186803b15801561478657600080fd5b505afa15801561479a573d6000803e3d6000fd5b505050506040513d601f19601f820116820180604052508101906147be919061584b565b905060008a6001600160a01b031663d21220a76040518163ffffffff1660e01b815260040160206040518083038186803b1580156147fb57600080fd5b505afa15801561480f573d6000803e3d6000fd5b505050506040513d601f19601f82011682018060405250810190614833919061584b565b90506000826001600160a01b03168787600381811061485457614854615dee565b9050602002016020810190614869919061582e565b6001600160a01b03161461487e576000614880565b845b90506000826001600160a01b0316888860038181106148a1576148a1615dee565b90506020020160208101906148b6919061582e565b6001600160a01b0316146148cb5760006148cd565b855b905060008e8e8e8e8e8e8e8e8e6040516020016148f299989796959493929190615c59565b60408051601f198184030181529082905263022c0d9f60e01b825291506001600160a01b038f169063022c0d9f90614934908690869030908790600401615cc3565b600060405180830381600087803b15801561494e57600080fd5b505af1158015614962573d6000803e3d6000fd5b50505050505050505050505050505050505050565b6000546001600160a01b031633146149a15760405162461bcd60e51b815260040161015290615bde565b6001600160a01b038116614a065760405162461bcd60e51b815260206004820152602660248201527f4f776e61626c653a206e6577206f776e657220697320746865207a65726f206160448201526564647265737360d01b6064820152608401610152565b614a0f81614b67565b50565b6000546001600160a01b03163314614a3c5760405162461bcd60e51b815260040161015290615bde565b6001600160a01b038216614a925760405162461bcd60e51b815260206004820152601860248201527f61646472657373206d757374206e6f74206265207a65726f00000000000000006044820152606401610152565b60008111614ae25760405162461bcd60e51b815260206004820152601c60248201527f616d6f756e74206d75737420626967676572207468616e207a65726f000000006044820152606401610152565b60405163a9059cbb60e01b8152336004820152602481018290526001600160a01b0383169063a9059cbb90604401602060405180830381600087803b158015614b2a57600080fd5b505af1158015614b3e573d6000803e3d6000fd5b505050506040513d601f19601f82011682018060405250810190614b62919061592a565b505050565b600080546001600160a01b038381166001600160a01b0319831681178455604051919092169283917f8be0079c531659141344cd1fd0a4f28419497f9722a3daafe3b4186f6b6457e09190a35050565b60006001600160a01b0382167395c78222b3d6e262426483d42cfa53685a67ab9d1480614c0057506001600160a01b03821673fd5840cd36d94d7229439859c0112a4185bc0255145b80614c2757506001600160a01b03821673334b3ecb4dca3593bccc3c7ebd1a1c1d1780fbf1145b92915050565b6060614c4e73ca143ce32fe78f1f7019d7d551a6402fc5350c738585614d9e565b905082600081518110614c6357614c63615dee565b60200260200101516001600160a01b031663a9059cbb614ccc73ca143ce32fe78f1f7019d7d551a6402fc5350c7386600081518110614ca457614ca4615dee565b602002602001015187600181518110614cbf57614cbf615dee565b6020026020010151614f29565b83600081518110614cdf57614cdf615dee565b60200260200101516040518363ffffffff1660e01b8152600401614d189291906001600160a01b03929092168252602082015260400190565b602060405180830381600087803b158015614d3257600080fd5b505af1158015614d46573d6000803e3d6000fd5b505050506040513d601f19601f82011682018060405250810190614d6a919061592a565b50614d76818484615004565b9392505050565b6060614c4e73ca143ce32fe78f1f7019d7d551a6402fc5350c7385856151e7565b6060600282511015614df25760405162461bcd60e51b815260206004820152601c60248201527f50616e63616b654c6962726172793a20494e56414c49445f50415448000000006044820152606401610152565b815167ffffffffffffffff811115614e0c57614e0c615e04565b604051908082528060200260200182016040528015614e35578160200160208202803683370190505b5090508281600081518110614e4c57614e4c615dee565b60200260200101818152505060005b60018351614e699190615d8f565b811015614f2157600080614ebc87868581518110614e8957614e89615dee565b602002602001015187866001614e9f9190615d36565b81518110614eaf57614eaf615dee565b6020026020010151615368565b91509150614ee4848481518110614ed557614ed5615dee565b6020026020010151838361544d565b84614ef0856001615d36565b81518110614f0057614f00615dee565b60200260200101818152505050508080614f1990615dbd565b915050614e5b565b509392505050565b6000806000614f388585615529565b6040516bffffffffffffffffffffffff19606084811b8216602084015283901b1660348201529193509150869060480160405160208183030381529060405280519060200120604051602001614fe09291906001600160f81b0319815260609290921b6bffffffffffffffffffffffff1916600183015260158201527fd0d4c4cd0848c93cb4fd1f498d7013ee6bfb25783ea21593d5834f5d250ece66603582015260550190565b6040516020818303038152906040528051906020012060601c925050509392505050565b60005b600183516150159190615d8f565b8110156151e15760008084838151811061503157615031615dee565b6020026020010151858460016150479190615d36565b8151811061505757615057615dee565b602002602001015191509150600061506f8383615529565b509050600087615080866001615d36565b8151811061509057615090615dee565b60200260200101519050600080836001600160a01b0316866001600160a01b0316146150be578260006150c2565b6000835b91509150600060028a516150d69190615d8f565b88106150e25788615117565b61511773ca143ce32fe78f1f7019d7d551a6402fc5350c73878c6151078c6002615d36565b81518110614cbf57614cbf615dee565b905061513873ca143ce32fe78f1f7019d7d551a6402fc5350c738888614f29565b6001600160a01b031663022c0d9f84848460006040519080825280601f01601f191660200182016040528015615175576020820181803683370190505b506040518563ffffffff1660e01b81526004016151959493929190615cc3565b600060405180830381600087803b1580156151af57600080fd5b505af11580156151c3573d6000803e3d6000fd5b505050505050505050505080806151d990615dbd565b915050615007565b50505050565b606060028251101561523b5760405162461bcd60e51b815260206004820152601c60248201527f50616e63616b654c6962726172793a20494e56414c49445f50415448000000006044820152606401610152565b815167ffffffffffffffff81111561525557615255615e04565b60405190808252806020026020018201604052801561527e578160200160208202803683370190505b5090508281600183516152919190615d8f565b815181106152a1576152a1615dee565b6020026020010181815250506000600183516152bd9190615d8f565b90505b8015614f215760008061530387866152d9600187615d8f565b815181106152e9576152e9615dee565b6020026020010151878681518110614eaf57614eaf615dee565b9150915061532b84848151811061531c5761531c615dee565b6020026020010151838361561f565b84615337600186615d8f565b8151811061534757615347615dee565b6020026020010181815250505050808061536090615da6565b9150506152c0565b60008060006153778585615529565b509050615385868686614f29565b50600080615394888888614f29565b6001600160a01b0316630902f1ac6040518163ffffffff1660e01b815260040160606040518083038186803b1580156153cc57600080fd5b505afa1580156153e0573d6000803e3d6000fd5b505050506040513d601f19601f82011682018060405250810190615404919061594c565b506001600160701b031691506001600160701b03169150826001600160a01b0316876001600160a01b03161461543b57808261543e565b81815b90999098509650505050505050565b60008084116154b05760405162461bcd60e51b815260206004820152602960248201527f50616e63616b654c6962726172793a20494e53554646494349454e545f494e50604482015268155517d05353d5539560ba1b6064820152608401610152565b6000831180156154c05750600082115b6154dc5760405162461bcd60e51b815260040161015290615c13565b60006154ea856103e66156f6565b905060006154f882856156f6565b905060006155128361550c886103e86156f6565b90615702565b905061551e8183615d4e565b979650505050505050565b600080826001600160a01b0316846001600160a01b0316141561559a5760405162461bcd60e51b815260206004820152602360248201527f50616e63616b654c6962726172793a204944454e544943414c5f41444452455360448201526253455360e81b6064820152608401610152565b826001600160a01b0316846001600160a01b0316106155ba5782846155bd565b83835b90925090506001600160a01b0382166156185760405162461bcd60e51b815260206004820152601c60248201527f50616e63616b654c6962726172793a205a45524f5f41444452455353000000006044820152606401610152565b9250929050565b60008084116156835760405162461bcd60e51b815260206004820152602a60248201527f50616e63616b654c6962726172793a20494e53554646494349454e545f4f555460448201526914155517d05353d5539560b21b6064820152608401610152565b6000831180156156935750600082115b6156af5760405162461bcd60e51b815260040161015290615c13565b60006156c76103e86156c186886156f6565b906156f6565b905060006156db6103e66156c1868961570e565b90506156ec600161550c8385615d4e565b9695505050505050565b6000614d768284615d70565b6000614d768284615d36565b6000614d768284615d8f565b803561572581615e1a565b919050565b60008083601f84011261573c57600080fd5b50813567ffffffffffffffff81111561575457600080fd5b6020830191508360208260051b850101111561561857600080fd5b600082601f83011261578057600080fd5b8135602067ffffffffffffffff8083111561579d5761579d615e04565b8260051b604051601f19603f830116810181811084821117156157c2576157c2615e04565b604052848152838101925086840182880185018910156157e157600080fd5b600092505b8583101561580b576157f78161571a565b8452928401926001929092019184016157e6565b50979650505050505050565b80516001600160701b038116811461572557600080fd5b60006020828403121561584057600080fd5b8135614d7681615e1a565b60006020828403121561585d57600080fd5b8151614d7681615e1a565b6000806040838503121561587b57600080fd5b823561588681615e1a565b946020939093013593505050565b6000806000806000608086880312156158ac57600080fd5b85356158b781615e1a565b94506020860135935060408601359250606086013567ffffffffffffffff808211156158e257600080fd5b818801915088601f8301126158f657600080fd5b81358181111561590557600080fd5b89602082850101111561591757600080fd5b9699959850939650602001949392505050565b60006020828403121561593c57600080fd5b81518015158114614d7657600080fd5b60008060006060848603121561596157600080fd5b61596a84615817565b925061597860208501615817565b9150604084015163ffffffff8116811461599157600080fd5b809150509250925092565b6000602082840312156159ae57600080fd5b5051919050565b60008060008060008060c087890312156159ce57600080fd5b8635955060208701356159e081615e1a565b9450604087013567ffffffffffffffff808211156159fd57600080fd5b615a098a838b0161576f565b95506060890135915080821115615a1f57600080fd5b615a2b8a838b0161576f565b94506080890135915080821115615a4157600080fd5b50615a4e89828a0161576f565b92505060a087013590509295509295509295565b600080600080600080600080600060c08a8c031215615a8057600080fd5b8935985060208a0135615a9281615e1a565b975060408a013567ffffffffffffffff80821115615aaf57600080fd5b615abb8d838e0161572a565b909950975060608c0135915080821115615ad457600080fd5b615ae08d838e0161572a565b909750955060808c0135915080821115615af957600080fd5b50615b068c828d0161572a565b9a9d999c50979a9699959894979660a00135949350505050565b60008060408385031215615b3357600080fd5b505080516020909101519092909150565b600080600060608486031215615b5957600080fd5b8351925060208401519150604084015190509250925092565b8183526000602080850194508260005b85811015615bb0578135615b9581615e1a565b6001600160a01b031687529582019590820190600101615b82565b509495945050505050565b6001600160a01b0393841681526020810192909252909116604082015260600190565b6020808252818101527f4f776e61626c653a2063616c6c6572206973206e6f7420746865206f776e6572604082015260600190565b60208082526026908201527f50616e63616b654c6962726172793a20494e53554646494349454e545f4c495160408201526555494449545960d01b606082015260800190565b8981526001600160a01b038916602082015260c060408201819052600090615c84908301898b615b72565b8281036060840152615c9781888a615b72565b90508281036080840152615cac818688615b72565b9150508260a08301529a9950505050505050505050565b84815260006020858184015260018060a01b038516604084015260806060840152835180608085015260005b81811015615d0b5785810183015185820160a001528201615cef565b81811115615d1d57600060a083870101525b50601f01601f19169290920160a0019695505050505050565b60008219821115615d4957615d49615dd8565b500190565b600082615d6b57634e487b7160e01b600052601260045260246000fd5b500490565b6000816000190483118215151615615d8a57615d8a615dd8565b500290565b600082821015615da157615da1615dd8565b500390565b600081615db557615db5615dd8565b506000190190565b6000600019821415615dd157615dd1615dd8565b5060010190565b634e487b7160e01b600052601160045260246000fd5b634e487b7160e01b600052603260045260246000fd5b634e487b7160e01b600052604160045260246000fd5b6001600160a01b0381168114614a0f57600080fdfea2646970667358221220ef823fc680104d39b1b32137405fcca054b08db434fc416b9a17cb6a5b5673cf64736f6c63430008070033",
			"opcodes": "PUSH1 0x80 PUSH1 0x40 MSTORE CALLVALUE DUP1 ISZERO PUSH3 0x11 JUMPI PUSH1 0x0 DUP1 REVERT JUMPDEST POP PUSH3 0x1D CALLER PUSH3 0x23 JUMP JUMPDEST PUSH3 0x73 JUMP JUMPDEST PUSH1 0x0 DUP1 SLOAD PUSH1 0x1 PUSH1 0x1 PUSH1 0xA0 SHL SUB DUP4 DUP2 AND PUSH1 0x1 PUSH1 0x1 PUSH1 0xA0 SHL SUB NOT DUP4 AND DUP2 OR DUP5 SSTORE PUSH1 0x40 MLOAD SWAP2 SWAP1 SWAP3 AND SWAP3 DUP4 SWAP2 PUSH32 0x8BE0079C531659141344CD1FD0A4F28419497F9722A3DAAFE3B4186F6B6457E0 SWAP2 SWAP1 LOG3 POP POP JUMP JUMPDEST PUSH2 0x5E65 DUP1 PUSH3 0x83 PUSH1 0x0 CODECOPY PUSH1 0x0 RETURN INVALID PUSH1 0x80 PUSH1 0x40 MSTORE PUSH1 0x4 CALLDATASIZE LT PUSH2 0x59 JUMPI PUSH1 0x0 CALLDATALOAD PUSH1 0xE0 SHR DUP1 PUSH4 0x715018A6 EQ PUSH2 0x65 JUMPI DUP1 PUSH4 0x84800812 EQ PUSH2 0x7C JUMPI DUP1 PUSH4 0x8DA5CB5B EQ PUSH2 0x9C JUMPI DUP1 PUSH4 0xB14E9A72 EQ PUSH2 0xC8 JUMPI DUP1 PUSH4 0xF2FDE38B EQ PUSH2 0xE8 JUMPI DUP1 PUSH4 0xF3FEF3A3 EQ PUSH2 0x108 JUMPI PUSH1 0x0 DUP1 REVERT JUMPDEST CALLDATASIZE PUSH2 0x60 JUMPI STOP JUMPDEST PUSH1 0x0 DUP1 REVERT JUMPDEST CALLVALUE DUP1 ISZERO PUSH2 0x71 JUMPI PUSH1 0x0 DUP1 REVERT JUMPDEST POP PUSH2 0x7A PUSH2 0x128 JUMP JUMPDEST STOP JUMPDEST CALLVALUE DUP1 ISZERO PUSH2 0x88 JUMPI PUSH1 0x0 DUP1 REVERT JUMPDEST POP PUSH2 0x7A PUSH2 0x97 CALLDATASIZE PUSH1 0x4 PUSH2 0x5894 JUMP JUMPDEST PUSH2 0x167 JUMP JUMPDEST CALLVALUE DUP1 ISZERO PUSH2 0xA8 JUMPI PUSH1 0x0 DUP1 REVERT JUMPDEST POP PUSH1 0x0 SLOAD PUSH1 0x40 DUP1 MLOAD PUSH1 0x1 PUSH1 0x1 PUSH1 0xA0 SHL SUB SWAP1 SWAP3 AND DUP3 MSTORE MLOAD SWAP1 DUP2 SWAP1 SUB PUSH1 0x20 ADD SWAP1 RETURN JUMPDEST CALLVALUE DUP1 ISZERO PUSH2 0xD4 JUMPI PUSH1 0x0 DUP1 REVERT JUMPDEST POP PUSH2 0x7A PUSH2 0xE3 CALLDATASIZE PUSH1 0x4 PUSH2 0x5A62 JUMP JUMPDEST PUSH2 0x434D JUMP JUMPDEST CALLVALUE DUP1 ISZERO PUSH2 0xF4 JUMPI PUSH1 0x0 DUP1 REVERT JUMPDEST POP PUSH2 0x7A PUSH2 0x103 CALLDATASIZE PUSH1 0x4 PUSH2 0x582E JUMP JUMPDEST PUSH2 0x4977 JUMP JUMPDEST CALLVALUE DUP1 ISZERO PUSH2 0x114 JUMPI PUSH1 0x0 DUP1 REVERT JUMPDEST POP PUSH2 0x7A PUSH2 0x123 CALLDATASIZE PUSH1 0x4 PUSH2 0x5868 JUMP JUMPDEST PUSH2 0x4A12 JUMP JUMPDEST PUSH1 0x0 SLOAD PUSH1 0x1 PUSH1 0x1 PUSH1 0xA0 SHL SUB AND CALLER EQ PUSH2 0x15B JUMPI PUSH1 0x40 MLOAD PUSH3 0x461BCD PUSH1 0xE5 SHL DUP2 MSTORE PUSH1 0x4 ADD PUSH2 0x152 SWAP1 PUSH2 0x5BDE JUMP JUMPDEST PUSH1 0x40 MLOAD DUP1 SWAP2 SUB SWAP1 REVERT JUMPDEST PUSH2 0x165 PUSH1 0x0 PUSH2 0x4B67 JUMP JUMPDEST JUMP JUMPDEST PUSH2 0x1F2 PUSH1 0x40 MLOAD DUP1 PUSH2 0x1E0 ADD PUSH1 0x40 MSTORE DUP1 PUSH1 0x0 DUP2 MSTORE PUSH1 0x20 ADD PUSH1 0x0 PUSH1 0x1 PUSH1 0x1 PUSH1 0xA0 SHL SUB AND DUP2 MSTORE PUSH1 0x20 ADD PUSH1 0x60 DUP2 MSTORE PUSH1 0x20 ADD PUSH1 0x60 DUP2 MSTORE PUSH1 0x20 ADD PUSH1 0x60 DUP2 MSTORE PUSH1 0x20 ADD PUSH1 0x0 DUP2 MSTORE PUSH1 0x20 ADD PUSH1 0x0 DUP2 MSTORE PUSH1 0x20 ADD PUSH1 0x0 PUSH1 0x1 PUSH1 0x1 PUSH1 0xA0 SHL SUB AND DUP2 MSTORE PUSH1 0x20 ADD PUSH1 0x0 DUP2 MSTORE PUSH1 0x20 ADD PUSH1 0x0 DUP2 MSTORE PUSH1 0x20 ADD PUSH1 0x0 DUP2 MSTORE PUSH1 0x20 ADD PUSH1 0x0 DUP2 MSTORE PUSH1 0x20 ADD PUSH1 0x0 DUP2 MSTORE PUSH1 0x20 ADD PUSH1 0x0 DUP2 MSTORE PUSH1 0x20 ADD PUSH1 0x0 DUP2 MSTORE POP SWAP1 JUMP JUMPDEST PUSH2 0x1FE DUP3 DUP5 ADD DUP5 PUSH2 0x59B5 JUMP JUMPDEST PUSH1 0xA0 DUP8 ADD MSTORE PUSH1 0x80 DUP7 ADD MSTORE PUSH1 0x60 DUP6 ADD MSTORE PUSH1 0x40 DUP5 ADD MSTORE PUSH1 0x1 PUSH1 0x1 PUSH1 0xA0 SHL SUB AND PUSH1 0x20 DUP4 ADD DUP2 SWAP1 MSTORE SWAP1 DUP3 MSTORE CALLER EQ PUSH2 0x25B JUMPI PUSH1 0x40 MLOAD PUSH3 0x461BCD PUSH1 0xE5 SHL DUP2 MSTORE PUSH1 0x20 PUSH1 0x4 DUP3 ADD MSTORE PUSH1 0x5 PUSH1 0x24 DUP3 ADD MSTORE PUSH5 0x10B830B4B9 PUSH1 0xD9 SHL PUSH1 0x44 DUP3 ADD MSTORE PUSH1 0x64 ADD PUSH2 0x152 JUMP JUMPDEST PUSH1 0x1 PUSH1 0x1 PUSH1 0xA0 SHL SUB DUP7 AND ADDRESS EQ PUSH2 0x29D JUMPI PUSH1 0x40 MLOAD PUSH3 0x461BCD PUSH1 0xE5 SHL DUP2 MSTORE PUSH1 0x20 PUSH1 0x4 DUP3 ADD MSTORE PUSH1 0x7 PUSH1 0x24 DUP3 ADD MSTORE PUSH7 0x10B9B2B73232B9 PUSH1 0xC9 SHL PUSH1 0x44 DUP3 ADD MSTORE PUSH1 0x64 ADD PUSH2 0x152 JUMP JUMPDEST PUSH2 0x26F7 DUP2 PUSH1 0xA0 ADD MLOAD PUSH1 0x19 PUSH2 0x2B1 SWAP2 SWAP1 PUSH2 0x5D70 JUMP JUMPDEST PUSH2 0x2BB SWAP2 SWAP1 PUSH2 0x5D4E JUMP JUMPDEST DUP2 PUSH1 0xA0 ADD MLOAD PUSH2 0x2CA SWAP2 SWAP1 PUSH2 0x5D36 JUMP JUMPDEST PUSH2 0x2D5 SWAP1 PUSH1 0x1 PUSH2 0x5D36 JUMP JUMPDEST PUSH1 0xC0 DUP3 ADD MSTORE PUSH1 0x80 DUP2 ADD MLOAD DUP1 MLOAD PUSH1 0x4 SWAP1 DUP2 LT PUSH2 0x2F2 JUMPI PUSH2 0x2F2 PUSH2 0x5DEE JUMP JUMPDEST PUSH1 0x20 SWAP1 DUP2 MUL SWAP2 SWAP1 SWAP2 ADD ADD MLOAD PUSH1 0x1 PUSH1 0x1 PUSH1 0xA0 SHL SUB AND PUSH1 0xE0 DUP3 ADD MSTORE PUSH1 0x80 DUP2 ADD MLOAD DUP1 MLOAD PUSH1 0x0 SWAP2 SWAP1 DUP3 SWAP1 PUSH2 0x324 JUMPI PUSH2 0x324 PUSH2 0x5DEE JUMP JUMPDEST PUSH1 0x20 MUL PUSH1 0x20 ADD ADD MLOAD SWAP1 POP PUSH1 0x0 DUP3 PUSH1 0x80 ADD MLOAD PUSH1 0x1 DUP2 MLOAD DUP2 LT PUSH2 0x347 JUMPI PUSH2 0x347 PUSH2 0x5DEE JUMP JUMPDEST PUSH1 0x20 MUL PUSH1 0x20 ADD ADD MLOAD SWAP1 POP PUSH1 0x0 DUP4 PUSH1 0x80 ADD MLOAD PUSH1 0x3 DUP2 MLOAD DUP2 LT PUSH2 0x36A JUMPI PUSH2 0x36A PUSH2 0x5DEE JUMP JUMPDEST PUSH1 0x20 MUL PUSH1 0x20 ADD ADD MLOAD SWAP1 POP PUSH1 0x0 DUP5 PUSH1 0x80 ADD MLOAD PUSH1 0x2 DUP2 MLOAD DUP2 LT PUSH2 0x38D JUMPI PUSH2 0x38D PUSH2 0x5DEE JUMP JUMPDEST PUSH1 0x20 MUL PUSH1 0x20 ADD ADD MLOAD SWAP1 POP PUSH1 0x60 DUP6 PUSH1 0x0 ADD MLOAD PUSH1 0x1 EQ ISZERO PUSH2 0x950 JUMPI PUSH1 0x40 DUP7 ADD MLOAD MLOAD ISZERO DUP1 ISZERO PUSH2 0x3BC JUMPI POP PUSH1 0x60 DUP7 ADD MLOAD MLOAD ISZERO JUMPDEST PUSH2 0x3F4 JUMPI PUSH1 0x40 MLOAD PUSH3 0x461BCD PUSH1 0xE5 SHL DUP2 MSTORE PUSH1 0x20 PUSH1 0x4 DUP3 ADD MSTORE PUSH1 0x9 PUSH1 0x24 DUP3 ADD MSTORE PUSH9 0x1896B830BA3432B939 PUSH1 0xB9 SHL PUSH1 0x44 DUP3 ADD MSTORE PUSH1 0x64 ADD PUSH2 0x152 JUMP JUMPDEST PUSH2 0x41B DUP7 PUSH1 0x80 ADD MLOAD PUSH1 0x0 DUP2 MLOAD DUP2 LT PUSH2 0x40E JUMPI PUSH2 0x40E PUSH2 0x5DEE JUMP JUMPDEST PUSH1 0x20 MUL PUSH1 0x20 ADD ADD MLOAD PUSH2 0x4BB7 JUMP JUMPDEST PUSH2 0x45B JUMPI PUSH1 0x40 MLOAD PUSH3 0x461BCD PUSH1 0xE5 SHL DUP2 MSTORE PUSH1 0x20 PUSH1 0x4 DUP3 ADD MSTORE PUSH1 0x11 PUSH1 0x24 DUP3 ADD MSTORE PUSH17 0x1896B737BA1039BA30B136329031B7B4B7 PUSH1 0x79 SHL PUSH1 0x44 DUP3 ADD MSTORE PUSH1 0x64 ADD PUSH2 0x152 JUMP JUMPDEST DUP6 PUSH1 0x80 ADD MLOAD PUSH1 0x1 DUP2 MLOAD DUP2 LT PUSH2 0x472 JUMPI PUSH2 0x472 PUSH2 0x5DEE JUMP JUMPDEST PUSH1 0x20 MUL PUSH1 0x20 ADD ADD MLOAD PUSH1 0x1 PUSH1 0x1 PUSH1 0xA0 SHL SUB AND DUP7 PUSH1 0x80 ADD MLOAD PUSH1 0x0 DUP2 MLOAD DUP2 LT PUSH2 0x49A JUMPI PUSH2 0x49A PUSH2 0x5DEE JUMP JUMPDEST PUSH1 0x20 MUL PUSH1 0x20 ADD ADD MLOAD PUSH1 0x1 PUSH1 0x1 PUSH1 0xA0 SHL SUB AND EQ PUSH2 0x4EB JUMPI PUSH1 0x40 MLOAD PUSH3 0x461BCD PUSH1 0xE5 SHL DUP2 MSTORE PUSH1 0x20 PUSH1 0x4 DUP3 ADD MSTORE PUSH1 0x10 PUSH1 0x24 DUP3 ADD MSTORE PUSH16 0x1896903737BA1039B0B6B29031B7B4B7 PUSH1 0x81 SHL PUSH1 0x44 DUP3 ADD MSTORE PUSH1 0x64 ADD PUSH2 0x152 JUMP JUMPDEST PUSH1 0x40 MLOAD PUSH4 0x70A08231 PUSH1 0xE0 SHL DUP2 MSTORE ADDRESS PUSH1 0x4 DUP3 ADD MSTORE PUSH1 0x1 PUSH1 0x1 PUSH1 0xA0 SHL SUB DUP6 AND SWAP1 PUSH4 0x70A08231 SWAP1 PUSH1 0x24 ADD PUSH1 0x20 PUSH1 0x40 MLOAD DUP1 DUP4 SUB DUP2 DUP7 DUP1 EXTCODESIZE ISZERO DUP1 ISZERO PUSH2 0x52A JUMPI PUSH1 0x0 DUP1 REVERT JUMPDEST POP GAS STATICCALL ISZERO DUP1 ISZERO PUSH2 0x53E JUMPI RETURNDATASIZE PUSH1 0x0 DUP1 RETURNDATACOPY RETURNDATASIZE PUSH1 0x0 REVERT JUMPDEST POP POP POP POP PUSH1 0x40 MLOAD RETURNDATASIZE PUSH1 0x1F NOT PUSH1 0x1F DUP3 ADD AND DUP3 ADD DUP1 PUSH1 0x40 MSTORE POP DUP2 ADD SWAP1 PUSH2 0x562 SWAP2 SWAP1 PUSH2 0x599C JUMP JUMPDEST PUSH2 0x100 DUP8 ADD MSTORE PUSH1 0xE0 DUP7 ADD MLOAD PUSH1 0xA0 DUP8 ADD MLOAD PUSH1 0x40 MLOAD PUSH4 0x7AF1E231 PUSH1 0xE1 SHL DUP2 MSTORE PUSH1 0x1 PUSH1 0x1 PUSH1 0xA0 SHL SUB DUP9 AND SWAP3 PUSH4 0xF5E3C462 SWAP3 PUSH2 0x59E SWAP3 DUP10 SWAP1 PUSH1 0x4 ADD PUSH2 0x5BBB JUMP JUMPDEST PUSH1 0x20 PUSH1 0x40 MLOAD DUP1 DUP4 SUB DUP2 PUSH1 0x0 DUP8 DUP1 EXTCODESIZE ISZERO DUP1 ISZERO PUSH2 0x5B8 JUMPI PUSH1 0x0 DUP1 REVERT JUMPDEST POP GAS CALL ISZERO DUP1 ISZERO PUSH2 0x5CC JUMPI RETURNDATASIZE PUSH1 0x0 DUP1 RETURNDATACOPY RETURNDATASIZE PUSH1 0x0 REVERT JUMPDEST POP POP POP POP PUSH1 0x40 MLOAD RETURNDATASIZE PUSH1 0x1F NOT PUSH1 0x1F DUP3 ADD AND DUP3 ADD DUP1 PUSH1 0x40 MSTORE POP DUP2 ADD SWAP1 PUSH2 0x5F0 SWAP2 SWAP1 PUSH2 0x599C JUMP JUMPDEST ISZERO PUSH2 0x63D JUMPI PUSH1 0x40 MLOAD PUSH3 0x461BCD PUSH1 0xE5 SHL DUP2 MSTORE PUSH1 0x20 PUSH1 0x4 DUP3 ADD MSTORE PUSH1 0x18 PUSH1 0x24 DUP3 ADD MSTORE PUSH32 0x312D6C6971756964617465426F72726F77206572726F72200000000000000000 PUSH1 0x44 DUP3 ADD MSTORE PUSH1 0x64 ADD PUSH2 0x152 JUMP JUMPDEST PUSH1 0x40 MLOAD PUSH4 0x70A08231 PUSH1 0xE0 SHL DUP2 MSTORE ADDRESS PUSH1 0x4 DUP3 ADD MSTORE PUSH1 0x1 PUSH1 0x1 PUSH1 0xA0 SHL SUB DUP6 AND SWAP1 PUSH4 0x70A08231 SWAP1 PUSH1 0x24 ADD PUSH1 0x20 PUSH1 0x40 MLOAD DUP1 DUP4 SUB DUP2 DUP7 DUP1 EXTCODESIZE ISZERO DUP1 ISZERO PUSH2 0x67C JUMPI PUSH1 0x0 DUP1 REVERT JUMPDEST POP GAS STATICCALL ISZERO DUP1 ISZERO PUSH2 0x690 JUMPI RETURNDATASIZE PUSH1 0x0 DUP1 RETURNDATACOPY RETURNDATASIZE PUSH1 0x0 REVERT JUMPDEST POP POP POP POP PUSH1 0x40 MLOAD RETURNDATASIZE PUSH1 0x1F NOT PUSH1 0x1F DUP3 ADD AND DUP3 ADD DUP1 PUSH1 0x40 MSTORE POP DUP2 ADD SWAP1 PUSH2 0x6B4 SWAP2 SWAP1 PUSH2 0x599C JUMP JUMPDEST PUSH2 0x120 DUP8 ADD DUP2 SWAP1 MSTORE PUSH2 0x100 DUP8 ADD MLOAD PUSH2 0x6CB SWAP2 PUSH2 0x5D8F JUMP JUMPDEST PUSH2 0x140 DUP8 ADD DUP2 SWAP1 MSTORE PUSH2 0x71F JUMPI PUSH1 0x40 MLOAD PUSH3 0x461BCD PUSH1 0xE5 SHL DUP2 MSTORE PUSH1 0x20 PUSH1 0x4 DUP3 ADD MSTORE PUSH1 0x1E PUSH1 0x24 DUP3 ADD MSTORE PUSH32 0x312D7365697A65642076746F6B656E20616D6F756E74206973207A65726F0000 PUSH1 0x44 DUP3 ADD MSTORE PUSH1 0x64 ADD PUSH2 0x152 JUMP JUMPDEST PUSH1 0x40 MLOAD PUSH4 0x70A08231 PUSH1 0xE0 SHL DUP2 MSTORE ADDRESS PUSH1 0x4 DUP3 ADD MSTORE PUSH1 0x1 PUSH1 0x1 PUSH1 0xA0 SHL SUB DUP4 AND SWAP1 PUSH4 0x70A08231 SWAP1 PUSH1 0x24 ADD PUSH1 0x20 PUSH1 0x40 MLOAD DUP1 DUP4 SUB DUP2 DUP7 DUP1 EXTCODESIZE ISZERO DUP1 ISZERO PUSH2 0x75E JUMPI PUSH1 0x0 DUP1 REVERT JUMPDEST POP GAS STATICCALL ISZERO DUP1 ISZERO PUSH2 0x772 JUMPI RETURNDATASIZE PUSH1 0x0 DUP1 RETURNDATACOPY RETURNDATASIZE PUSH1 0x0 REVERT JUMPDEST POP POP POP POP PUSH1 0x40 MLOAD RETURNDATASIZE PUSH1 0x1F NOT PUSH1 0x1F DUP3 ADD AND DUP3 ADD DUP1 PUSH1 0x40 MSTORE POP DUP2 ADD SWAP1 PUSH2 0x796 SWAP2 SWAP1 PUSH2 0x599C JUMP JUMPDEST PUSH2 0x160 DUP8 ADD MSTORE PUSH2 0x140 DUP7 ADD MLOAD PUSH1 0x40 MLOAD PUSH4 0xDB006A75 PUSH1 0xE0 SHL DUP2 MSTORE PUSH1 0x4 DUP2 ADD SWAP2 SWAP1 SWAP2 MSTORE PUSH1 0x1 PUSH1 0x1 PUSH1 0xA0 SHL SUB DUP6 AND SWAP1 PUSH4 0xDB006A75 SWAP1 PUSH1 0x24 ADD PUSH1 0x20 PUSH1 0x40 MLOAD DUP1 DUP4 SUB DUP2 PUSH1 0x0 DUP8 DUP1 EXTCODESIZE ISZERO DUP1 ISZERO PUSH2 0x7E5 JUMPI PUSH1 0x0 DUP1 REVERT JUMPDEST POP GAS CALL ISZERO DUP1 ISZERO PUSH2 0x7F9 JUMPI RETURNDATASIZE PUSH1 0x0 DUP1 RETURNDATACOPY RETURNDATASIZE PUSH1 0x0 REVERT JUMPDEST POP POP POP POP PUSH1 0x40 MLOAD RETURNDATASIZE PUSH1 0x1F NOT PUSH1 0x1F DUP3 ADD AND DUP3 ADD DUP1 PUSH1 0x40 MSTORE POP DUP2 ADD SWAP1 PUSH2 0x81D SWAP2 SWAP1 PUSH2 0x599C JUMP JUMPDEST ISZERO PUSH2 0x85B JUMPI PUSH1 0x40 MLOAD PUSH3 0x461BCD PUSH1 0xE5 SHL DUP2 MSTORE PUSH1 0x20 PUSH1 0x4 DUP3 ADD MSTORE PUSH1 0xE PUSH1 0x24 DUP3 ADD MSTORE PUSH14 0x1896B932B232B2B69032B93937B9 PUSH1 0x91 SHL PUSH1 0x44 DUP3 ADD MSTORE PUSH1 0x64 ADD PUSH2 0x152 JUMP JUMPDEST PUSH1 0x40 MLOAD PUSH4 0x70A08231 PUSH1 0xE0 SHL DUP2 MSTORE ADDRESS PUSH1 0x4 DUP3 ADD MSTORE PUSH1 0x1 PUSH1 0x1 PUSH1 0xA0 SHL SUB DUP4 AND SWAP1 PUSH4 0x70A08231 SWAP1 PUSH1 0x24 ADD PUSH1 0x20 PUSH1 0x40 MLOAD DUP1 DUP4 SUB DUP2 DUP7 DUP1 EXTCODESIZE ISZERO DUP1 ISZERO PUSH2 0x89A JUMPI PUSH1 0x0 DUP1 REVERT JUMPDEST POP GAS STATICCALL ISZERO DUP1 ISZERO PUSH2 0x8AE JUMPI RETURNDATASIZE PUSH1 0x0 DUP1 RETURNDATACOPY RETURNDATASIZE PUSH1 0x0 REVERT JUMPDEST POP POP POP POP PUSH1 0x40 MLOAD RETURNDATASIZE PUSH1 0x1F NOT PUSH1 0x1F DUP3 ADD AND DUP3 ADD DUP1 PUSH1 0x40 MSTORE POP DUP2 ADD SWAP1 PUSH2 0x8D2 SWAP2 SWAP1 PUSH2 0x599C JUMP JUMPDEST PUSH2 0x180 DUP8 ADD DUP2 SWAP1 MSTORE PUSH2 0x160 DUP8 ADD MLOAD PUSH2 0x8E9 SWAP2 PUSH2 0x5D8F JUMP JUMPDEST PUSH2 0x1A0 DUP8 ADD DUP2 SWAP1 MSTORE PUSH1 0xC0 DUP8 ADD MLOAD LT PUSH2 0x930 JUMPI PUSH1 0x40 MLOAD PUSH3 0x461BCD PUSH1 0xE5 SHL DUP2 MSTORE PUSH1 0x20 PUSH1 0x4 DUP3 ADD MSTORE PUSH1 0xA PUSH1 0x24 DUP3 ADD MSTORE PUSH10 0x312D6E6F206578747261 PUSH1 0xB0 SHL PUSH1 0x44 DUP3 ADD MSTORE PUSH1 0x64 ADD PUSH2 0x152 JUMP JUMPDEST DUP6 PUSH1 0xC0 ADD MLOAD DUP7 PUSH2 0x1A0 ADD MLOAD PUSH2 0x945 SWAP2 SWAP1 PUSH2 0x5D8F JUMP JUMPDEST PUSH2 0x1C0 DUP8 ADD MSTORE PUSH2 0x4225 JUMP JUMPDEST DUP6 MLOAD PUSH1 0x2 EQ ISZERO PUSH2 0x12EF JUMPI PUSH1 0x40 DUP7 ADD MLOAD MLOAD ISZERO DUP1 ISZERO PUSH2 0x971 JUMPI POP PUSH1 0x60 DUP7 ADD MLOAD MLOAD ISZERO ISZERO JUMPDEST PUSH2 0x9AB JUMPI PUSH1 0x40 MLOAD PUSH3 0x461BCD PUSH1 0xE5 SHL DUP2 MSTORE PUSH1 0x20 PUSH1 0x4 DUP3 ADD MSTORE PUSH1 0xB PUSH1 0x24 DUP3 ADD MSTORE PUSH11 0x19171896B830BA3432B939 PUSH1 0xA9 SHL PUSH1 0x44 DUP3 ADD MSTORE PUSH1 0x64 ADD PUSH2 0x152 JUMP JUMPDEST PUSH2 0x9EF DUP7 PUSH1 0x80 ADD MLOAD PUSH1 0x0 DUP2 MLOAD DUP2 LT PUSH2 0x9C5 JUMPI PUSH2 0x9C5 PUSH2 0x5DEE JUMP JUMPDEST PUSH1 0x20 MUL PUSH1 0x20 ADD ADD MLOAD PUSH1 0x1 PUSH1 0x1 PUSH1 0xA0 SHL SUB AND PUSH20 0xA07C5B74C9B40447A954E1466938B865B6BBEA36 EQ SWAP1 JUMP JUMPDEST ISZERO PUSH2 0xE8F JUMPI PUSH1 0xA0 DUP7 ADD MLOAD PUSH1 0x40 MLOAD PUSH4 0x2E1A7D4D PUSH1 0xE0 SHL DUP2 MSTORE PUSH1 0x4 DUP2 ADD SWAP2 SWAP1 SWAP2 MSTORE PUSH20 0xBB4CDB9CBD36B01BD1CBAEBF2DE08D9173BC095C SWAP1 PUSH4 0x2E1A7D4D SWAP1 PUSH1 0x24 ADD PUSH1 0x0 PUSH1 0x40 MLOAD DUP1 DUP4 SUB DUP2 PUSH1 0x0 DUP8 DUP1 EXTCODESIZE ISZERO DUP1 ISZERO PUSH2 0xA47 JUMPI PUSH1 0x0 DUP1 REVERT JUMPDEST POP GAS CALL ISZERO DUP1 ISZERO PUSH2 0xA5B JUMPI RETURNDATASIZE PUSH1 0x0 DUP1 RETURNDATACOPY RETURNDATASIZE PUSH1 0x0 REVERT JUMPDEST POP POP PUSH1 0x40 MLOAD PUSH4 0x70A08231 PUSH1 0xE0 SHL DUP2 MSTORE ADDRESS PUSH1 0x4 DUP3 ADD MSTORE PUSH1 0x1 PUSH1 0x1 PUSH1 0xA0 SHL SUB DUP8 AND SWAP3 POP PUSH4 0x70A08231 SWAP2 POP PUSH1 0x24 ADD PUSH1 0x20 PUSH1 0x40 MLOAD DUP1 DUP4 SUB DUP2 DUP7 DUP1 EXTCODESIZE ISZERO DUP1 ISZERO PUSH2 0xA9E JUMPI PUSH1 0x0 DUP1 REVERT JUMPDEST POP GAS STATICCALL ISZERO DUP1 ISZERO PUSH2 0xAB2 JUMPI RETURNDATASIZE PUSH1 0x0 DUP1 RETURNDATACOPY RETURNDATASIZE PUSH1 0x0 REVERT JUMPDEST POP POP POP POP PUSH1 0x40 MLOAD RETURNDATASIZE PUSH1 0x1F NOT PUSH1 0x1F DUP3 ADD AND DUP3 ADD DUP1 PUSH1 0x40 MSTORE POP DUP2 ADD SWAP1 PUSH2 0xAD6 SWAP2 SWAP1 PUSH2 0x599C JUMP JUMPDEST PUSH2 0x100 DUP8 ADD MSTORE PUSH1 0x80 DUP7 ADD MLOAD DUP1 MLOAD PUSH1 0x0 SWAP1 PUSH2 0xAF2 JUMPI PUSH2 0xAF2 PUSH2 0x5DEE JUMP JUMPDEST PUSH1 0x20 MUL PUSH1 0x20 ADD ADD MLOAD PUSH1 0x1 PUSH1 0x1 PUSH1 0xA0 SHL SUB AND PUSH4 0xAAE40A2A DUP8 PUSH1 0xA0 ADD MLOAD DUP9 PUSH1 0xE0 ADD MLOAD DUP10 PUSH1 0x80 ADD MLOAD PUSH1 0x1 DUP2 MLOAD DUP2 LT PUSH2 0xB29 JUMPI PUSH2 0xB29 PUSH2 0x5DEE JUMP JUMPDEST PUSH1 0x20 MUL PUSH1 0x20 ADD ADD MLOAD PUSH1 0x40 MLOAD DUP5 PUSH4 0xFFFFFFFF AND PUSH1 0xE0 SHL DUP2 MSTORE PUSH1 0x4 ADD PUSH2 0xB63 SWAP3 SWAP2 SWAP1 PUSH1 0x1 PUSH1 0x1 PUSH1 0xA0 SHL SUB SWAP3 DUP4 AND DUP2 MSTORE SWAP2 AND PUSH1 0x20 DUP3 ADD MSTORE PUSH1 0x40 ADD SWAP1 JUMP JUMPDEST PUSH1 0x0 PUSH1 0x40 MLOAD DUP1 DUP4 SUB DUP2 DUP6 DUP9 DUP1 EXTCODESIZE ISZERO DUP1 ISZERO PUSH2 0xB7C JUMPI PUSH1 0x0 DUP1 REVERT JUMPDEST POP GAS CALL ISZERO DUP1 ISZERO PUSH2 0xB90 JUMPI RETURNDATASIZE PUSH1 0x0 DUP1 RETURNDATACOPY RETURNDATASIZE PUSH1 0x0 REVERT JUMPDEST POP POP PUSH1 0x40 MLOAD PUSH4 0x70A08231 PUSH1 0xE0 SHL DUP2 MSTORE ADDRESS PUSH1 0x4 DUP3 ADD MSTORE PUSH1 0x1 PUSH1 0x1 PUSH1 0xA0 SHL SUB DUP9 AND SWAP4 POP PUSH4 0x70A08231 SWAP3 POP PUSH1 0x24 ADD SWAP1 POP PUSH1 0x20 PUSH1 0x40 MLOAD DUP1 DUP4 SUB DUP2 DUP7 DUP1 EXTCODESIZE ISZERO DUP1 ISZERO PUSH2 0xBD5 JUMPI PUSH1 0x0 DUP1 REVERT JUMPDEST POP GAS STATICCALL ISZERO DUP1 ISZERO PUSH2 0xBE9 JUMPI RETURNDATASIZE PUSH1 0x0 DUP1 RETURNDATACOPY RETURNDATASIZE PUSH1 0x0 REVERT JUMPDEST POP POP POP POP PUSH1 0x40 MLOAD RETURNDATASIZE PUSH1 0x1F NOT PUSH1 0x1F DUP3 ADD AND DUP3 ADD DUP1 PUSH1 0x40 MSTORE POP DUP2 ADD SWAP1 PUSH2 0xC0D SWAP2 SWAP1 PUSH2 0x599C JUMP JUMPDEST PUSH2 0x120 DUP8 ADD DUP2 SWAP1 MSTORE PUSH2 0x100 DUP8 ADD MLOAD PUSH2 0xC24 SWAP2 PUSH2 0x5D8F JUMP JUMPDEST PUSH2 0x140 DUP8 ADD DUP2 SWAP1 MSTORE PUSH2 0xC78 JUMPI PUSH1 0x40 MLOAD PUSH3 0x461BCD PUSH1 0xE5 SHL DUP2 MSTORE PUSH1 0x20 PUSH1 0x4 DUP3 ADD DUP2 SWAP1 MSTORE PUSH1 0x24 DUP3 ADD MSTORE PUSH32 0x322E312D7365697A65642076746F6B656E20616D6F756E74206973207A65726F PUSH1 0x44 DUP3 ADD MSTORE PUSH1 0x64 ADD PUSH2 0x152 JUMP JUMPDEST SELFBALANCE PUSH2 0x160 DUP8 ADD MSTORE PUSH1 0x80 DUP7 ADD MLOAD DUP1 MLOAD PUSH1 0x1 SWAP1 DUP2 LT PUSH2 0xC97 JUMPI PUSH2 0xC97 PUSH2 0x5DEE JUMP JUMPDEST PUSH1 0x20 MUL PUSH1 0x20 ADD ADD MLOAD PUSH1 0x1 PUSH1 0x1 PUSH1 0xA0 SHL SUB AND PUSH4 0xDB006A75 DUP8 PUSH2 0x140 ADD MLOAD PUSH1 0x40 MLOAD DUP3 PUSH4 0xFFFFFFFF AND PUSH1 0xE0 SHL DUP2 MSTORE PUSH1 0x4 ADD PUSH2 0xCD1 SWAP2 DUP2 MSTORE PUSH1 0x20 ADD SWAP1 JUMP JUMPDEST PUSH1 0x20 PUSH1 0x40 MLOAD DUP1 DUP4 SUB DUP2 PUSH1 0x0 DUP8 DUP1 EXTCODESIZE ISZERO DUP1 ISZERO PUSH2 0xCEB JUMPI PUSH1 0x0 DUP1 REVERT JUMPDEST POP GAS CALL ISZERO DUP1 ISZERO PUSH2 0xCFF JUMPI RETURNDATASIZE PUSH1 0x0 DUP1 RETURNDATACOPY RETURNDATASIZE PUSH1 0x0 REVERT JUMPDEST POP POP POP POP PUSH1 0x40 MLOAD RETURNDATASIZE PUSH1 0x1F NOT PUSH1 0x1F DUP3 ADD AND DUP3 ADD DUP1 PUSH1 0x40 MSTORE POP DUP2 ADD SWAP1 PUSH2 0xD23 SWAP2 SWAP1 PUSH2 0x599C JUMP JUMPDEST ISZERO PUSH2 0xD60 JUMPI PUSH1 0x40 MLOAD PUSH3 0x461BCD PUSH1 0xE5 SHL DUP2 MSTORE PUSH1 0x20 PUSH1 0x4 DUP3 ADD MSTORE PUSH1 0xD PUSH1 0x24 DUP3 ADD MSTORE PUSH13 0x19171896B932B232B2B6B2B939 PUSH1 0x99 SHL PUSH1 0x44 DUP3 ADD MSTORE PUSH1 0x64 ADD PUSH2 0x152 JUMP JUMPDEST SELFBALANCE PUSH2 0x180 DUP8 ADD DUP2 SWAP1 MSTORE PUSH2 0x160 DUP8 ADD MLOAD PUSH2 0xD78 SWAP2 PUSH2 0x5D8F JUMP JUMPDEST PUSH2 0x1A0 DUP8 ADD DUP2 SWAP1 MSTORE PUSH1 0xC0 DUP8 ADD MLOAD LT PUSH2 0xDC1 JUMPI PUSH1 0x40 MLOAD PUSH3 0x461BCD PUSH1 0xE5 SHL DUP2 MSTORE PUSH1 0x20 PUSH1 0x4 DUP3 ADD MSTORE PUSH1 0xC PUSH1 0x24 DUP3 ADD MSTORE PUSH12 0x322E312D6E6F2D6578747261 PUSH1 0xA0 SHL PUSH1 0x44 DUP3 ADD MSTORE PUSH1 0x64 ADD PUSH2 0x152 JUMP JUMPDEST PUSH20 0xBB4CDB9CBD36B01BD1CBAEBF2DE08D9173BC095C PUSH1 0x1 PUSH1 0x1 PUSH1 0xA0 SHL SUB AND PUSH4 0xD0E30DB0 DUP8 PUSH2 0x1A0 ADD MLOAD PUSH1 0x40 MLOAD DUP3 PUSH4 0xFFFFFFFF AND PUSH1 0xE0 SHL DUP2 MSTORE PUSH1 0x4 ADD PUSH1 0x0 PUSH1 0x40 MLOAD DUP1 DUP4 SUB DUP2 DUP6 DUP9 DUP1 EXTCODESIZE ISZERO DUP1 ISZERO PUSH2 0xE15 JUMPI PUSH1 0x0 DUP1 REVERT JUMPDEST POP GAS CALL ISZERO DUP1 ISZERO PUSH2 0xE29 JUMPI RETURNDATASIZE PUSH1 0x0 DUP1 RETURNDATACOPY RETURNDATASIZE PUSH1 0x0 REVERT JUMPDEST POP POP POP POP POP PUSH1 0x0 DUP7 PUSH1 0xC0 ADD MLOAD DUP8 PUSH2 0x1A0 ADD MLOAD PUSH2 0xE45 SWAP2 SWAP1 PUSH2 0x5D8F JUMP JUMPDEST SWAP1 POP PUSH2 0xE56 DUP2 DUP9 PUSH1 0x60 ADD MLOAD ADDRESS PUSH2 0x4C2D JUMP JUMPDEST SWAP2 POP DUP2 PUSH1 0x1 DUP4 MLOAD PUSH2 0xE67 SWAP2 SWAP1 PUSH2 0x5D8F JUMP JUMPDEST DUP2 MLOAD DUP2 LT PUSH2 0xE77 JUMPI PUSH2 0xE77 PUSH2 0x5DEE JUMP JUMPDEST PUSH1 0x20 MUL PUSH1 0x20 ADD ADD MLOAD DUP8 PUSH2 0x1C0 ADD DUP2 DUP2 MSTORE POP POP POP PUSH2 0x4225 JUMP JUMPDEST PUSH1 0x40 MLOAD PUSH4 0x70A08231 PUSH1 0xE0 SHL DUP2 MSTORE ADDRESS PUSH1 0x4 DUP3 ADD MSTORE PUSH1 0x1 PUSH1 0x1 PUSH1 0xA0 SHL SUB DUP6 AND SWAP1 PUSH4 0x70A08231 SWAP1 PUSH1 0x24 ADD PUSH1 0x20 PUSH1 0x40 MLOAD DUP1 DUP4 SUB DUP2 DUP7 DUP1 EXTCODESIZE ISZERO DUP1 ISZERO PUSH2 0xECE JUMPI PUSH1 0x0 DUP1 REVERT JUMPDEST POP GAS STATICCALL ISZERO DUP1 ISZERO PUSH2 0xEE2 JUMPI RETURNDATASIZE PUSH1 0x0 DUP1 RETURNDATACOPY RETURNDATASIZE PUSH1 0x0 REVERT JUMPDEST POP POP POP POP PUSH1 0x40 MLOAD RETURNDATASIZE PUSH1 0x1F NOT PUSH1 0x1F DUP3 ADD AND DUP3 ADD DUP1 PUSH1 0x40 MSTORE POP DUP2 ADD SWAP1 PUSH2 0xF06 SWAP2 SWAP1 PUSH2 0x599C JUMP JUMPDEST PUSH2 0x100 DUP8 ADD MSTORE PUSH1 0xE0 DUP7 ADD MLOAD PUSH1 0xA0 DUP8 ADD MLOAD PUSH1 0x40 MLOAD PUSH4 0x7AF1E231 PUSH1 0xE1 SHL DUP2 MSTORE PUSH1 0x1 PUSH1 0x1 PUSH1 0xA0 SHL SUB DUP9 AND SWAP3 PUSH4 0xF5E3C462 SWAP3 PUSH2 0xF42 SWAP3 DUP10 SWAP1 PUSH1 0x4 ADD PUSH2 0x5BBB JUMP JUMPDEST PUSH1 0x20 PUSH1 0x40 MLOAD DUP1 DUP4 SUB DUP2 PUSH1 0x0 DUP8 DUP1 EXTCODESIZE ISZERO DUP1 ISZERO PUSH2 0xF5C JUMPI PUSH1 0x0 DUP1 REVERT JUMPDEST POP GAS CALL ISZERO DUP1 ISZERO PUSH2 0xF70 JUMPI RETURNDATASIZE PUSH1 0x0 DUP1 RETURNDATACOPY RETURNDATASIZE PUSH1 0x0 REVERT JUMPDEST POP POP POP POP PUSH1 0x40 MLOAD RETURNDATASIZE PUSH1 0x1F NOT PUSH1 0x1F DUP3 ADD AND DUP3 ADD DUP1 PUSH1 0x40 MSTORE POP DUP2 ADD SWAP1 PUSH2 0xF94 SWAP2 SWAP1 PUSH2 0x599C JUMP JUMPDEST ISZERO PUSH2 0xFE1 JUMPI PUSH1 0x40 MLOAD PUSH3 0x461BCD PUSH1 0xE5 SHL DUP2 MSTORE PUSH1 0x20 PUSH1 0x4 DUP3 ADD MSTORE PUSH1 0x1A PUSH1 0x24 DUP3 ADD MSTORE PUSH32 0x322E322D6C6971756964617465426F72726F77206572726F7220000000000000 PUSH1 0x44 DUP3 ADD MSTORE PUSH1 0x64 ADD PUSH2 0x152 JUMP JUMPDEST PUSH1 0x40 MLOAD PUSH4 0x70A08231 PUSH1 0xE0 SHL DUP2 MSTORE ADDRESS PUSH1 0x4 DUP3 ADD MSTORE PUSH1 0x1 PUSH1 0x1 PUSH1 0xA0 SHL SUB DUP6 AND SWAP1 PUSH4 0x70A08231 SWAP1 PUSH1 0x24 ADD PUSH1 0x20 PUSH1 0x40 MLOAD DUP1 DUP4 SUB DUP2 DUP7 DUP1 EXTCODESIZE ISZERO DUP1 ISZERO PUSH2 0x1020 JUMPI PUSH1 0x0 DUP1 REVERT JUMPDEST POP GAS STATICCALL ISZERO DUP1 ISZERO PUSH2 0x1034 JUMPI RETURNDATASIZE PUSH1 0x0 DUP1 RETURNDATACOPY RETURNDATASIZE PUSH1 0x0 REVERT JUMPDEST POP POP POP POP PUSH1 0x40 MLOAD RETURNDATASIZE PUSH1 0x1F NOT PUSH1 0x1F DUP3 ADD AND DUP3 ADD DUP1 PUSH1 0x40 MSTORE POP DUP2 ADD SWAP1 PUSH2 0x1058 SWAP2 SWAP1 PUSH2 0x599C JUMP JUMPDEST PUSH2 0x120 DUP8 ADD DUP2 SWAP1 MSTORE PUSH2 0x100 DUP8 ADD MLOAD PUSH2 0x106F SWAP2 PUSH2 0x5D8F JUMP JUMPDEST PUSH2 0x140 DUP8 ADD DUP2 SWAP1 MSTORE PUSH2 0x10C3 JUMPI PUSH1 0x40 MLOAD PUSH3 0x461BCD PUSH1 0xE5 SHL DUP2 MSTORE PUSH1 0x20 PUSH1 0x4 DUP3 ADD DUP2 SWAP1 MSTORE PUSH1 0x24 DUP3 ADD MSTORE PUSH32 0x322E322D7365697A65642076746F6B656E20616D6F756E74206973207A65726F PUSH1 0x44 DUP3 ADD MSTORE PUSH1 0x64 ADD PUSH2 0x152 JUMP JUMPDEST PUSH1 0x40 MLOAD PUSH4 0x70A08231 PUSH1 0xE0 SHL DUP2 MSTORE ADDRESS PUSH1 0x4 DUP3 ADD MSTORE PUSH1 0x1 PUSH1 0x1 PUSH1 0xA0 SHL SUB DUP4 AND SWAP1 PUSH4 0x70A08231 SWAP1 PUSH1 0x24 ADD PUSH1 0x20 PUSH1 0x40 MLOAD DUP1 DUP4 SUB DUP2 DUP7 DUP1 EXTCODESIZE ISZERO DUP1 ISZERO PUSH2 0x1102 JUMPI PUSH1 0x0 DUP1 REVERT JUMPDEST POP GAS STATICCALL ISZERO DUP1 ISZERO PUSH2 0x1116 JUMPI RETURNDATASIZE PUSH1 0x0 DUP1 RETURNDATACOPY RETURNDATASIZE PUSH1 0x0 REVERT JUMPDEST POP POP POP POP PUSH1 0x40 MLOAD RETURNDATASIZE PUSH1 0x1F NOT PUSH1 0x1F DUP3 ADD AND DUP3 ADD DUP1 PUSH1 0x40 MSTORE POP DUP2 ADD SWAP1 PUSH2 0x113A SWAP2 SWAP1 PUSH2 0x599C JUMP JUMPDEST PUSH2 0x160 DUP8 ADD MSTORE PUSH2 0x140 DUP7 ADD MLOAD PUSH1 0x40 MLOAD PUSH4 0xDB006A75 PUSH1 0xE0 SHL DUP2 MSTORE PUSH1 0x4 DUP2 ADD SWAP2 SWAP1 SWAP2 MSTORE PUSH1 0x1 PUSH1 0x1 PUSH1 0xA0 SHL SUB DUP6 AND SWAP1 PUSH4 0xDB006A75 SWAP1 PUSH1 0x24 ADD PUSH1 0x20 PUSH1 0x40 MLOAD DUP1 DUP4 SUB DUP2 PUSH1 0x0 DUP8 DUP1 EXTCODESIZE ISZERO DUP1 ISZERO PUSH2 0x1189 JUMPI PUSH1 0x0 DUP1 REVERT JUMPDEST POP GAS CALL ISZERO DUP1 ISZERO PUSH2 0x119D JUMPI RETURNDATASIZE PUSH1 0x0 DUP1 RETURNDATACOPY RETURNDATASIZE PUSH1 0x0 REVERT JUMPDEST POP POP POP POP PUSH1 0x40 MLOAD RETURNDATASIZE PUSH1 0x1F NOT PUSH1 0x1F DUP3 ADD AND DUP3 ADD DUP1 PUSH1 0x40 MSTORE POP DUP2 ADD SWAP1 PUSH2 0x11C1 SWAP2 SWAP1 PUSH2 0x599C JUMP JUMPDEST ISZERO PUSH2 0x1201 JUMPI PUSH1 0x40 MLOAD PUSH3 0x461BCD PUSH1 0xE5 SHL DUP2 MSTORE PUSH1 0x20 PUSH1 0x4 DUP3 ADD MSTORE PUSH1 0x10 PUSH1 0x24 DUP3 ADD MSTORE PUSH16 0x19171916B932B232B2B69032B93937B9 PUSH1 0x81 SHL PUSH1 0x44 DUP3 ADD MSTORE PUSH1 0x64 ADD PUSH2 0x152 JUMP JUMPDEST PUSH1 0x40 MLOAD PUSH4 0x70A08231 PUSH1 0xE0 SHL DUP2 MSTORE ADDRESS PUSH1 0x4 DUP3 ADD MSTORE PUSH1 0x1 PUSH1 0x1 PUSH1 0xA0 SHL SUB DUP4 AND SWAP1 PUSH4 0x70A08231 SWAP1 PUSH1 0x24 ADD PUSH1 0x20 PUSH1 0x40 MLOAD DUP1 DUP4 SUB DUP2 DUP7 DUP1 EXTCODESIZE ISZERO DUP1 ISZERO PUSH2 0x1240 JUMPI PUSH1 0x0 DUP1 REVERT JUMPDEST POP GAS STATICCALL ISZERO DUP1 ISZERO PUSH2 0x1254 JUMPI RETURNDATASIZE PUSH1 0x0 DUP1 RETURNDATACOPY RETURNDATASIZE PUSH1 0x0 REVERT JUMPDEST POP POP POP POP PUSH1 0x40 MLOAD RETURNDATASIZE PUSH1 0x1F NOT PUSH1 0x1F DUP3 ADD AND DUP3 ADD DUP1 PUSH1 0x40 MSTORE POP DUP2 ADD SWAP1 PUSH2 0x1278 SWAP2 SWAP1 PUSH2 0x599C JUMP JUMPDEST PUSH2 0x180 DUP8 ADD DUP2 SWAP1 MSTORE PUSH2 0x160 DUP8 ADD MLOAD PUSH2 0x128F SWAP2 PUSH2 0x5D8F JUMP JUMPDEST PUSH2 0x1A0 DUP8 ADD DUP2 SWAP1 MSTORE PUSH1 0xC0 DUP8 ADD MLOAD LT PUSH2 0x12D8 JUMPI PUSH1 0x40 MLOAD PUSH3 0x461BCD PUSH1 0xE5 SHL DUP2 MSTORE PUSH1 0x20 PUSH1 0x4 DUP3 ADD MSTORE PUSH1 0xC PUSH1 0x24 DUP3 ADD MSTORE PUSH12 0x322E322D6E6F206578747261 PUSH1 0xA0 SHL PUSH1 0x44 DUP3 ADD MSTORE PUSH1 0x64 ADD PUSH2 0x152 JUMP JUMPDEST PUSH1 0x0 DUP7 PUSH1 0xC0 ADD MLOAD DUP8 PUSH2 0x1A0 ADD MLOAD PUSH2 0xE45 SWAP2 SWAP1 PUSH2 0x5D8F JUMP JUMPDEST DUP6 MLOAD PUSH1 0x3 EQ ISZERO PUSH2 0x1CF8 JUMPI PUSH2 0x1313 DUP7 PUSH1 0x80 ADD MLOAD PUSH1 0x1 DUP2 MLOAD DUP2 LT PUSH2 0x40E JUMPI PUSH2 0x40E PUSH2 0x5DEE JUMP JUMPDEST PUSH2 0x1369 JUMPI PUSH1 0x40 MLOAD PUSH3 0x461BCD PUSH1 0xE5 SHL DUP2 MSTORE PUSH1 0x20 PUSH1 0x4 DUP3 ADD MSTORE PUSH1 0x21 PUSH1 0x24 DUP3 ADD MSTORE PUSH32 0x332D7365697A656420746F6B656E206973206E6F7420737461626C6520636F69 PUSH1 0x44 DUP3 ADD MSTORE PUSH1 0x37 PUSH1 0xF9 SHL PUSH1 0x64 DUP3 ADD MSTORE PUSH1 0x84 ADD PUSH2 0x152 JUMP JUMPDEST PUSH2 0x1383 DUP7 PUSH1 0x80 ADD MLOAD PUSH1 0x0 DUP2 MLOAD DUP2 LT PUSH2 0x9C5 JUMPI PUSH2 0x9C5 PUSH2 0x5DEE JUMP JUMPDEST ISZERO PUSH2 0x187A JUMPI PUSH1 0xA0 DUP7 ADD MLOAD PUSH1 0x40 MLOAD PUSH4 0x2E1A7D4D PUSH1 0xE0 SHL DUP2 MSTORE PUSH1 0x4 DUP2 ADD SWAP2 SWAP1 SWAP2 MSTORE PUSH20 0xBB4CDB9CBD36B01BD1CBAEBF2DE08D9173BC095C SWAP1 PUSH4 0x2E1A7D4D SWAP1 PUSH1 0x24 ADD PUSH1 0x0 PUSH1 0x40 MLOAD DUP1 DUP4 SUB DUP2 PUSH1 0x0 DUP8 DUP1 EXTCODESIZE ISZERO DUP1 ISZERO PUSH2 0x13DB JUMPI PUSH1 0x0 DUP1 REVERT JUMPDEST POP GAS CALL ISZERO DUP1 ISZERO PUSH2 0x13EF JUMPI RETURNDATASIZE PUSH1 0x0 DUP1 RETURNDATACOPY RETURNDATASIZE PUSH1 0x0 REVERT JUMPDEST POP POP PUSH1 0x40 MLOAD PUSH4 0x70A08231 PUSH1 0xE0 SHL DUP2 MSTORE ADDRESS PUSH1 0x4 DUP3 ADD MSTORE PUSH1 0x1 PUSH1 0x1 PUSH1 0xA0 SHL SUB DUP8 AND SWAP3 POP PUSH4 0x70A08231 SWAP2 POP PUSH1 0x24 ADD PUSH1 0x20 PUSH1 0x40 MLOAD DUP1 DUP4 SUB DUP2 DUP7 DUP1 EXTCODESIZE ISZERO DUP1 ISZERO PUSH2 0x1432 JUMPI PUSH1 0x0 DUP1 REVERT JUMPDEST POP GAS STATICCALL ISZERO DUP1 ISZERO PUSH2 0x1446 JUMPI RETURNDATASIZE PUSH1 0x0 DUP1 RETURNDATACOPY RETURNDATASIZE PUSH1 0x0 REVERT JUMPDEST POP POP POP POP PUSH1 0x40 MLOAD RETURNDATASIZE PUSH1 0x1F NOT PUSH1 0x1F DUP3 ADD AND DUP3 ADD DUP1 PUSH1 0x40 MSTORE POP DUP2 ADD SWAP1 PUSH2 0x146A SWAP2 SWAP1 PUSH2 0x599C JUMP JUMPDEST PUSH2 0x100 DUP8 ADD MSTORE PUSH1 0x80 DUP7 ADD MLOAD DUP1 MLOAD PUSH1 0x0 SWAP1 PUSH2 0x1486 JUMPI PUSH2 0x1486 PUSH2 0x5DEE JUMP JUMPDEST PUSH1 0x20 MUL PUSH1 0x20 ADD ADD MLOAD PUSH1 0x1 PUSH1 0x1 PUSH1 0xA0 SHL SUB AND PUSH4 0xAAE40A2A DUP8 PUSH1 0xA0 ADD MLOAD DUP9 PUSH1 0xE0 ADD MLOAD DUP10 PUSH1 0x80 ADD MLOAD PUSH1 0x1 DUP2 MLOAD DUP2 LT PUSH2 0x14BD JUMPI PUSH2 0x14BD PUSH2 0x5DEE JUMP JUMPDEST PUSH1 0x20 MUL PUSH1 0x20 ADD ADD MLOAD PUSH1 0x40 MLOAD DUP5 PUSH4 0xFFFFFFFF AND PUSH1 0xE0 SHL DUP2 MSTORE PUSH1 0x4 ADD PUSH2 0x14F7 SWAP3 SWAP2 SWAP1 PUSH1 0x1 PUSH1 0x1 PUSH1 0xA0 SHL SUB SWAP3 DUP4 AND DUP2 MSTORE SWAP2 AND PUSH1 0x20 DUP3 ADD MSTORE PUSH1 0x40 ADD SWAP1 JUMP JUMPDEST PUSH1 0x0 PUSH1 0x40 MLOAD DUP1 DUP4 SUB DUP2 DUP6 DUP9 DUP1 EXTCODESIZE ISZERO DUP1 ISZERO PUSH2 0x1510 JUMPI PUSH1 0x0 DUP1 REVERT JUMPDEST POP GAS CALL ISZERO DUP1 ISZERO PUSH2 0x1524 JUMPI RETURNDATASIZE PUSH1 0x0 DUP1 RETURNDATACOPY RETURNDATASIZE PUSH1 0x0 REVERT JUMPDEST POP POP PUSH1 0x40 MLOAD PUSH4 0x70A08231 PUSH1 0xE0 SHL DUP2 MSTORE ADDRESS PUSH1 0x4 DUP3 ADD MSTORE PUSH1 0x1 PUSH1 0x1 PUSH1 0xA0 SHL SUB DUP9 AND SWAP4 POP PUSH4 0x70A08231 SWAP3 POP PUSH1 0x24 ADD SWAP1 POP PUSH1 0x20 PUSH1 0x40 MLOAD DUP1 DUP4 SUB DUP2 DUP7 DUP1 EXTCODESIZE ISZERO DUP1 ISZERO PUSH2 0x1569 JUMPI PUSH1 0x0 DUP1 REVERT JUMPDEST POP GAS STATICCALL ISZERO DUP1 ISZERO PUSH2 0x157D JUMPI RETURNDATASIZE PUSH1 0x0 DUP1 RETURNDATACOPY RETURNDATASIZE PUSH1 0x0 REVERT JUMPDEST POP POP POP POP PUSH1 0x40 MLOAD RETURNDATASIZE PUSH1 0x1F NOT PUSH1 0x1F DUP3 ADD AND DUP3 ADD DUP1 PUSH1 0x40 MSTORE POP DUP2 ADD SWAP1 PUSH2 0x15A1 SWAP2 SWAP1 PUSH2 0x599C JUMP JUMPDEST PUSH2 0x120 DUP8 ADD DUP2 SWAP1 MSTORE PUSH2 0x100 DUP8 ADD MLOAD PUSH2 0x15B8 SWAP2 PUSH2 0x5D8F JUMP JUMPDEST PUSH2 0x140 DUP8 ADD DUP2 SWAP1 MSTORE PUSH2 0x160C JUMPI PUSH1 0x40 MLOAD PUSH3 0x461BCD PUSH1 0xE5 SHL DUP2 MSTORE PUSH1 0x20 PUSH1 0x4 DUP3 ADD DUP2 SWAP1 MSTORE PUSH1 0x24 DUP3 ADD MSTORE PUSH32 0x332E312D7365697A65642076746F6B656E20616D6F756E74206973207A65726F PUSH1 0x44 DUP3 ADD MSTORE PUSH1 0x64 ADD PUSH2 0x152 JUMP JUMPDEST PUSH1 0x40 MLOAD PUSH4 0x70A08231 PUSH1 0xE0 SHL DUP2 MSTORE ADDRESS PUSH1 0x4 DUP3 ADD MSTORE PUSH1 0x1 PUSH1 0x1 PUSH1 0xA0 SHL SUB DUP4 AND SWAP1 PUSH4 0x70A08231 SWAP1 PUSH1 0x24 ADD PUSH1 0x20 PUSH1 0x40 MLOAD DUP1 DUP4 SUB DUP2 DUP7 DUP1 EXTCODESIZE ISZERO DUP1 ISZERO PUSH2 0x164B JUMPI PUSH1 0x0 DUP1 REVERT JUMPDEST POP GAS STATICCALL ISZERO DUP1 ISZERO PUSH2 0x165F JUMPI RETURNDATASIZE PUSH1 0x0 DUP1 RETURNDATACOPY RETURNDATASIZE PUSH1 0x0 REVERT JUMPDEST POP POP POP POP PUSH1 0x40 MLOAD RETURNDATASIZE PUSH1 0x1F NOT PUSH1 0x1F DUP3 ADD AND DUP3 ADD DUP1 PUSH1 0x40 MSTORE POP DUP2 ADD SWAP1 PUSH2 0x1683 SWAP2 SWAP1 PUSH2 0x599C JUMP JUMPDEST PUSH2 0x160 DUP8 ADD MSTORE PUSH2 0x140 DUP7 ADD MLOAD PUSH1 0x40 MLOAD PUSH4 0xDB006A75 PUSH1 0xE0 SHL DUP2 MSTORE PUSH1 0x4 DUP2 ADD SWAP2 SWAP1 SWAP2 MSTORE PUSH1 0x1 PUSH1 0x1 PUSH1 0xA0 SHL SUB DUP6 AND SWAP1 PUSH4 0xDB006A75 SWAP1 PUSH1 0x24 ADD PUSH1 0x20 PUSH1 0x40 MLOAD DUP1 DUP4 SUB DUP2 PUSH1 0x0 DUP8 DUP1 EXTCODESIZE ISZERO DUP1 ISZERO PUSH2 0x16D2 JUMPI PUSH1 0x0 DUP1 REVERT JUMPDEST POP GAS CALL ISZERO DUP1 ISZERO PUSH2 0x16E6 JUMPI RETURNDATASIZE PUSH1 0x0 DUP1 RETURNDATACOPY RETURNDATASIZE PUSH1 0x0 REVERT JUMPDEST POP POP POP POP PUSH1 0x40 MLOAD RETURNDATASIZE PUSH1 0x1F NOT PUSH1 0x1F DUP3 ADD AND DUP3 ADD DUP1 PUSH1 0x40 MSTORE POP DUP2 ADD SWAP1 PUSH2 0x170A SWAP2 SWAP1 PUSH2 0x599C JUMP JUMPDEST ISZERO PUSH2 0x1747 JUMPI PUSH1 0x40 MLOAD PUSH3 0x461BCD PUSH1 0xE5 SHL DUP2 MSTORE PUSH1 0x20 PUSH1 0x4 DUP3 ADD MSTORE PUSH1 0xD PUSH1 0x24 DUP3 ADD MSTORE PUSH13 0x19971896B932B232B2B6B2B939 PUSH1 0x99 SHL PUSH1 0x44 DUP3 ADD MSTORE PUSH1 0x64 ADD PUSH2 0x152 JUMP JUMPDEST PUSH1 0x40 MLOAD PUSH4 0x70A08231 PUSH1 0xE0 SHL DUP2 MSTORE ADDRESS PUSH1 0x4 DUP3 ADD MSTORE PUSH1 0x1 PUSH1 0x1 PUSH1 0xA0 SHL SUB DUP4 AND SWAP1 PUSH4 0x70A08231 SWAP1 PUSH1 0x24 ADD PUSH1 0x20 PUSH1 0x40 MLOAD DUP1 DUP4 SUB DUP2 DUP7 DUP1 EXTCODESIZE ISZERO DUP1 ISZERO PUSH2 0x1786 JUMPI PUSH1 0x0 DUP1 REVERT JUMPDEST POP GAS STATICCALL ISZERO DUP1 ISZERO PUSH2 0x179A JUMPI RETURNDATASIZE PUSH1 0x0 DUP1 RETURNDATACOPY RETURNDATASIZE PUSH1 0x0 REVERT JUMPDEST POP POP POP POP PUSH1 0x40 MLOAD RETURNDATASIZE PUSH1 0x1F NOT PUSH1 0x1F DUP3 ADD AND DUP3 ADD DUP1 PUSH1 0x40 MSTORE POP DUP2 ADD SWAP1 PUSH2 0x17BE SWAP2 SWAP1 PUSH2 0x599C JUMP JUMPDEST PUSH2 0x180 DUP8 ADD DUP2 SWAP1 MSTORE PUSH2 0x160 DUP8 ADD MLOAD PUSH2 0x17D5 SWAP2 PUSH2 0x5D8F JUMP JUMPDEST PUSH2 0x1A0 DUP8 ADD MSTORE PUSH1 0xC0 DUP7 ADD MLOAD PUSH1 0x40 DUP8 ADD MLOAD PUSH2 0x17F0 SWAP2 SWAP1 ADDRESS PUSH2 0x4D7D JUMP JUMPDEST SWAP1 POP DUP1 PUSH1 0x0 DUP2 MLOAD DUP2 LT PUSH2 0x1805 JUMPI PUSH2 0x1805 PUSH2 0x5DEE JUMP JUMPDEST PUSH1 0x20 MUL PUSH1 0x20 ADD ADD MLOAD DUP7 PUSH2 0x1A0 ADD MLOAD GT PUSH2 0x184F JUMPI PUSH1 0x40 MLOAD PUSH3 0x461BCD PUSH1 0xE5 SHL DUP2 MSTORE PUSH1 0x20 PUSH1 0x4 DUP3 ADD MSTORE PUSH1 0xC PUSH1 0x24 DUP3 ADD MSTORE PUSH12 0x332E312D6E6F2D6578747261 PUSH1 0xA0 SHL PUSH1 0x44 DUP3 ADD MSTORE PUSH1 0x64 ADD PUSH2 0x152 JUMP JUMPDEST DUP1 PUSH1 0x0 DUP2 MLOAD DUP2 LT PUSH2 0x1862 JUMPI PUSH2 0x1862 PUSH2 0x5DEE JUMP JUMPDEST PUSH1 0x20 MUL PUSH1 0x20 ADD ADD MLOAD DUP7 PUSH2 0x1A0 ADD MLOAD PUSH2 0x945 SWAP2 SWAP1 PUSH2 0x5D8F JUMP JUMPDEST PUSH1 0x40 MLOAD PUSH4 0x70A08231 PUSH1 0xE0 SHL DUP2 MSTORE ADDRESS PUSH1 0x4 DUP3 ADD MSTORE PUSH1 0x1 PUSH1 0x1 PUSH1 0xA0 SHL SUB DUP6 AND SWAP1 PUSH4 0x70A08231 SWAP1 PUSH1 0x24 ADD PUSH1 0x20 PUSH1 0x40 MLOAD DUP1 DUP4 SUB DUP2 DUP7 DUP1 EXTCODESIZE ISZERO DUP1 ISZERO PUSH2 0x18B9 JUMPI PUSH1 0x0 DUP1 REVERT JUMPDEST POP GAS STATICCALL ISZERO DUP1 ISZERO PUSH2 0x18CD JUMPI RETURNDATASIZE PUSH1 0x0 DUP1 RETURNDATACOPY RETURNDATASIZE PUSH1 0x0 REVERT JUMPDEST POP POP POP POP PUSH1 0x40 MLOAD RETURNDATASIZE PUSH1 0x1F NOT PUSH1 0x1F DUP3 ADD AND DUP3 ADD DUP1 PUSH1 0x40 MSTORE POP DUP2 ADD SWAP1 PUSH2 0x18F1 SWAP2 SWAP1 PUSH2 0x599C JUMP JUMPDEST PUSH2 0x100 DUP8 ADD MSTORE PUSH1 0xE0 DUP7 ADD MLOAD PUSH1 0xA0 DUP8 ADD MLOAD PUSH1 0x40 MLOAD PUSH4 0x7AF1E231 PUSH1 0xE1 SHL DUP2 MSTORE PUSH1 0x1 PUSH1 0x1 PUSH1 0xA0 SHL SUB DUP9 AND SWAP3 PUSH4 0xF5E3C462 SWAP3 PUSH2 0x192D SWAP3 DUP10 SWAP1 PUSH1 0x4 ADD PUSH2 0x5BBB JUMP JUMPDEST PUSH1 0x20 PUSH1 0x40 MLOAD DUP1 DUP4 SUB DUP2 PUSH1 0x0 DUP8 DUP1 EXTCODESIZE ISZERO DUP1 ISZERO PUSH2 0x1947 JUMPI PUSH1 0x0 DUP1 REVERT JUMPDEST POP GAS CALL ISZERO DUP1 ISZERO PUSH2 0x195B JUMPI RETURNDATASIZE PUSH1 0x0 DUP1 RETURNDATACOPY RETURNDATASIZE PUSH1 0x0 REVERT JUMPDEST POP POP POP POP PUSH1 0x40 MLOAD RETURNDATASIZE PUSH1 0x1F NOT PUSH1 0x1F DUP3 ADD AND DUP3 ADD DUP1 PUSH1 0x40 MSTORE POP DUP2 ADD SWAP1 PUSH2 0x197F SWAP2 SWAP1 PUSH2 0x599C JUMP JUMPDEST ISZERO PUSH2 0x19CC JUMPI PUSH1 0x40 MLOAD PUSH3 0x461BCD PUSH1 0xE5 SHL DUP2 MSTORE PUSH1 0x20 PUSH1 0x4 DUP3 ADD MSTORE PUSH1 0x1A PUSH1 0x24 DUP3 ADD MSTORE PUSH32 0x332E322D6C6971756964617465426F72726F77206572726F7220000000000000 PUSH1 0x44 DUP3 ADD MSTORE PUSH1 0x64 ADD PUSH2 0x152 JUMP JUMPDEST PUSH1 0x40 MLOAD PUSH4 0x70A08231 PUSH1 0xE0 SHL DUP2 MSTORE ADDRESS PUSH1 0x4 DUP3 ADD MSTORE PUSH1 0x1 PUSH1 0x1 PUSH1 0xA0 SHL SUB DUP6 AND SWAP1 PUSH4 0x70A08231 SWAP1 PUSH1 0x24 ADD PUSH1 0x20 PUSH1 0x40 MLOAD DUP1 DUP4 SUB DUP2 DUP7 DUP1 EXTCODESIZE ISZERO DUP1 ISZERO PUSH2 0x1A0B JUMPI PUSH1 0x0 DUP1 REVERT JUMPDEST POP GAS STATICCALL ISZERO DUP1 ISZERO PUSH2 0x1A1F JUMPI RETURNDATASIZE PUSH1 0x0 DUP1 RETURNDATACOPY RETURNDATASIZE PUSH1 0x0 REVERT JUMPDEST POP POP POP POP PUSH1 0x40 MLOAD RETURNDATASIZE PUSH1 0x1F NOT PUSH1 0x1F DUP3 ADD AND DUP3 ADD DUP1 PUSH1 0x40 MSTORE POP DUP2 ADD SWAP1 PUSH2 0x1A43 SWAP2 SWAP1 PUSH2 0x599C JUMP JUMPDEST PUSH2 0x120 DUP8 ADD DUP2 SWAP1 MSTORE PUSH2 0x100 DUP8 ADD MLOAD PUSH2 0x1A5A SWAP2 PUSH2 0x5D8F JUMP JUMPDEST PUSH2 0x140 DUP8 ADD DUP2 SWAP1 MSTORE PUSH2 0x1AAE JUMPI PUSH1 0x40 MLOAD PUSH3 0x461BCD PUSH1 0xE5 SHL DUP2 MSTORE PUSH1 0x20 PUSH1 0x4 DUP3 ADD DUP2 SWAP1 MSTORE PUSH1 0x24 DUP3 ADD MSTORE PUSH32 0x332E322D7365697A65642076746F6B656E20616D6F756E74206973207A65726F PUSH1 0x44 DUP3 ADD MSTORE PUSH1 0x64 ADD PUSH2 0x152 JUMP JUMPDEST PUSH1 0x40 MLOAD PUSH4 0x70A08231 PUSH1 0xE0 SHL DUP2 MSTORE ADDRESS PUSH1 0x4 DUP3 ADD MSTORE PUSH1 0x1 PUSH1 0x1 PUSH1 0xA0 SHL SUB DUP4 AND SWAP1 PUSH4 0x70A08231 SWAP1 PUSH1 0x24 ADD PUSH1 0x20 PUSH1 0x40 MLOAD DUP1 DUP4 SUB DUP2 DUP7 DUP1 EXTCODESIZE ISZERO DUP1 ISZERO PUSH2 0x1AED JUMPI PUSH1 0x0 DUP1 REVERT JUMPDEST POP GAS STATICCALL ISZERO DUP1 ISZERO PUSH2 0x1B01 JUMPI RETURNDATASIZE PUSH1 0x0 DUP1 RETURNDATACOPY RETURNDATASIZE PUSH1 0x0 REVERT JUMPDEST POP POP POP POP PUSH1 0x40 MLOAD RETURNDATASIZE PUSH1 0x1F NOT PUSH1 0x1F DUP3 ADD AND DUP3 ADD DUP1 PUSH1 0x40 MSTORE POP DUP2 ADD SWAP1 PUSH2 0x1B25 SWAP2 SWAP1 PUSH2 0x599C JUMP JUMPDEST PUSH2 0x160 DUP8 ADD MSTORE PUSH2 0x140 DUP7 ADD MLOAD PUSH1 0x40 MLOAD PUSH4 0xDB006A75 PUSH1 0xE0 SHL DUP2 MSTORE PUSH1 0x4 DUP2 ADD SWAP2 SWAP1 SWAP2 MSTORE PUSH1 0x1 PUSH1 0x1 PUSH1 0xA0 SHL SUB DUP6 AND SWAP1 PUSH4 0xDB006A75 SWAP1 PUSH1 0x24 ADD PUSH1 0x20 PUSH1 0x40 MLOAD DUP1 DUP4 SUB DUP2 PUSH1 0x0 DUP8 DUP1 EXTCODESIZE ISZERO DUP1 ISZERO PUSH2 0x1B74 JUMPI PUSH1 0x0 DUP1 REVERT JUMPDEST POP GAS CALL ISZERO DUP1 ISZERO PUSH2 0x1B88 JUMPI RETURNDATASIZE PUSH1 0x0 DUP1 RETURNDATACOPY RETURNDATASIZE PUSH1 0x0 REVERT JUMPDEST POP POP POP POP PUSH1 0x40 MLOAD RETURNDATASIZE PUSH1 0x1F NOT PUSH1 0x1F DUP3 ADD AND DUP3 ADD DUP1 PUSH1 0x40 MSTORE POP DUP2 ADD SWAP1 PUSH2 0x1BAC SWAP2 SWAP1 PUSH2 0x599C JUMP JUMPDEST ISZERO PUSH2 0x1BEC JUMPI PUSH1 0x40 MLOAD PUSH3 0x461BCD PUSH1 0xE5 SHL DUP2 MSTORE PUSH1 0x20 PUSH1 0x4 DUP3 ADD MSTORE PUSH1 0x10 PUSH1 0x24 DUP3 ADD MSTORE PUSH16 0x19971916B932B232B2B69032B93937B9 PUSH1 0x81 SHL PUSH1 0x44 DUP3 ADD MSTORE PUSH1 0x64 ADD PUSH2 0x152 JUMP JUMPDEST PUSH1 0x40 MLOAD PUSH4 0x70A08231 PUSH1 0xE0 SHL DUP2 MSTORE ADDRESS PUSH1 0x4 DUP3 ADD MSTORE PUSH1 0x1 PUSH1 0x1 PUSH1 0xA0 SHL SUB DUP4 AND SWAP1 PUSH4 0x70A08231 SWAP1 PUSH1 0x24 ADD PUSH1 0x20 PUSH1 0x40 MLOAD DUP1 DUP4 SUB DUP2 DUP7 DUP1 EXTCODESIZE ISZERO DUP1 ISZERO PUSH2 0x1C2B JUMPI PUSH1 0x0 DUP1 REVERT JUMPDEST POP GAS STATICCALL ISZERO DUP1 ISZERO PUSH2 0x1C3F JUMPI RETURNDATASIZE PUSH1 0x0 DUP1 RETURNDATACOPY RETURNDATASIZE PUSH1 0x0 REVERT JUMPDEST POP POP POP POP PUSH1 0x40 MLOAD RETURNDATASIZE PUSH1 0x1F NOT PUSH1 0x1F DUP3 ADD AND DUP3 ADD DUP1 PUSH1 0x40 MSTORE POP DUP2 ADD SWAP1 PUSH2 0x1C63 SWAP2 SWAP1 PUSH2 0x599C JUMP JUMPDEST PUSH2 0x180 DUP8 ADD DUP2 SWAP1 MSTORE PUSH2 0x160 DUP8 ADD MLOAD PUSH2 0x1C7A SWAP2 PUSH2 0x5D8F JUMP JUMPDEST PUSH2 0x1A0 DUP8 ADD MSTORE PUSH1 0xC0 DUP7 ADD MLOAD PUSH1 0x40 DUP8 ADD MLOAD PUSH2 0x1C95 SWAP2 SWAP1 ADDRESS PUSH2 0x4D7D JUMP JUMPDEST SWAP1 POP DUP1 PUSH1 0x0 DUP2 MLOAD DUP2 LT PUSH2 0x1CAA JUMPI PUSH2 0x1CAA PUSH2 0x5DEE JUMP JUMPDEST PUSH1 0x20 MUL PUSH1 0x20 ADD ADD MLOAD DUP7 PUSH2 0x1A0 ADD MLOAD GT PUSH2 0x184F JUMPI PUSH1 0x40 MLOAD PUSH3 0x461BCD PUSH1 0xE5 SHL DUP2 MSTORE PUSH1 0x20 PUSH1 0x4 DUP3 ADD MSTORE PUSH1 0x10 PUSH1 0x24 DUP3 ADD MSTORE PUSH16 0x332E322D626E622D6E6F2D6578747261 PUSH1 0x80 SHL PUSH1 0x44 DUP3 ADD MSTORE PUSH1 0x64 ADD PUSH2 0x152 JUMP JUMPDEST DUP6 MLOAD PUSH1 0x4 EQ ISZERO PUSH2 0x265A JUMPI PUSH2 0x1D1C DUP7 PUSH1 0x80 ADD MLOAD PUSH1 0x0 DUP2 MLOAD DUP2 LT PUSH2 0x40E JUMPI PUSH2 0x40E PUSH2 0x5DEE JUMP JUMPDEST PUSH2 0x1D68 JUMPI PUSH1 0x40 MLOAD PUSH3 0x461BCD PUSH1 0xE5 SHL DUP2 MSTORE PUSH1 0x20 PUSH1 0x4 DUP3 ADD MSTORE PUSH1 0x1F PUSH1 0x24 DUP3 ADD MSTORE PUSH32 0x342D7265706179546F6B656E206973206E6F7420737461626C6520636F696E00 PUSH1 0x44 DUP3 ADD MSTORE PUSH1 0x64 ADD PUSH2 0x152 JUMP JUMPDEST PUSH2 0x1D82 DUP7 PUSH1 0x80 ADD MLOAD PUSH1 0x1 DUP2 MLOAD DUP2 LT PUSH2 0x9C5 JUMPI PUSH2 0x9C5 PUSH2 0x5DEE JUMP JUMPDEST ISZERO PUSH2 0x21D3 JUMPI PUSH1 0x40 MLOAD PUSH4 0x70A08231 PUSH1 0xE0 SHL DUP2 MSTORE ADDRESS PUSH1 0x4 DUP3 ADD MSTORE PUSH1 0x1 PUSH1 0x1 PUSH1 0xA0 SHL SUB DUP6 AND SWAP1 PUSH4 0x70A08231 SWAP1 PUSH1 0x24 ADD PUSH1 0x20 PUSH1 0x40 MLOAD DUP1 DUP4 SUB DUP2 DUP7 DUP1 EXTCODESIZE ISZERO DUP1 ISZERO PUSH2 0x1DC6 JUMPI PUSH1 0x0 DUP1 REVERT JUMPDEST POP GAS STATICCALL ISZERO DUP1 ISZERO PUSH2 0x1DDA JUMPI RETURNDATASIZE PUSH1 0x0 DUP1 RETURNDATACOPY RETURNDATASIZE PUSH1 0x0 REVERT JUMPDEST POP POP POP POP PUSH1 0x40 MLOAD RETURNDATASIZE PUSH1 0x1F NOT PUSH1 0x1F DUP3 ADD AND DUP3 ADD DUP1 PUSH1 0x40 MSTORE POP DUP2 ADD SWAP1 PUSH2 0x1DFE SWAP2 SWAP1 PUSH2 0x599C JUMP JUMPDEST PUSH2 0x100 DUP8 ADD MSTORE PUSH1 0xE0 DUP7 ADD MLOAD PUSH1 0xA0 DUP8 ADD MLOAD PUSH1 0x40 MLOAD PUSH4 0x7AF1E231 PUSH1 0xE1 SHL DUP2 MSTORE PUSH1 0x1 PUSH1 0x1 PUSH1 0xA0 SHL SUB DUP9 AND SWAP3 PUSH4 0xF5E3C462 SWAP3 PUSH2 0x1E3A SWAP3 DUP10 SWAP1 PUSH1 0x4 ADD PUSH2 0x5BBB JUMP JUMPDEST PUSH1 0x20 PUSH1 0x40 MLOAD DUP1 DUP4 SUB DUP2 PUSH1 0x0 DUP8 DUP1 EXTCODESIZE ISZERO DUP1 ISZERO PUSH2 0x1E54 JUMPI PUSH1 0x0 DUP1 REVERT JUMPDEST POP GAS CALL ISZERO DUP1 ISZERO PUSH2 0x1E68 JUMPI RETURNDATASIZE PUSH1 0x0 DUP1 RETURNDATACOPY RETURNDATASIZE PUSH1 0x0 REVERT JUMPDEST POP POP POP POP PUSH1 0x40 MLOAD RETURNDATASIZE PUSH1 0x1F NOT PUSH1 0x1F DUP3 ADD AND DUP3 ADD DUP1 PUSH1 0x40 MSTORE POP DUP2 ADD SWAP1 PUSH2 0x1E8C SWAP2 SWAP1 PUSH2 0x599C JUMP JUMPDEST ISZERO PUSH2 0x1ED9 JUMPI PUSH1 0x40 MLOAD PUSH3 0x461BCD PUSH1 0xE5 SHL DUP2 MSTORE PUSH1 0x20 PUSH1 0x4 DUP3 ADD MSTORE PUSH1 0x1A PUSH1 0x24 DUP3 ADD MSTORE PUSH32 0x342E312D6C6971756964617465426F72726F77206572726F7220000000000000 PUSH1 0x44 DUP3 ADD MSTORE PUSH1 0x64 ADD PUSH2 0x152 JUMP JUMPDEST PUSH1 0x40 MLOAD PUSH4 0x70A08231 PUSH1 0xE0 SHL DUP2 MSTORE ADDRESS PUSH1 0x4 DUP3 ADD MSTORE PUSH1 0x1 PUSH1 0x1 PUSH1 0xA0 SHL SUB DUP6 AND SWAP1 PUSH4 0x70A08231 SWAP1 PUSH1 0x24 ADD PUSH1 0x20 PUSH1 0x40 MLOAD DUP1 DUP4 SUB DUP2 DUP7 DUP1 EXTCODESIZE ISZERO DUP1 ISZERO PUSH2 0x1F18 JUMPI PUSH1 0x0 DUP1 REVERT JUMPDEST POP GAS STATICCALL ISZERO DUP1 ISZERO PUSH2 0x1F2C JUMPI RETURNDATASIZE PUSH1 0x0 DUP1 RETURNDATACOPY RETURNDATASIZE PUSH1 0x0 REVERT JUMPDEST POP POP POP POP PUSH1 0x40 MLOAD RETURNDATASIZE PUSH1 0x1F NOT PUSH1 0x1F DUP3 ADD AND DUP3 ADD DUP1 PUSH1 0x40 MSTORE POP DUP2 ADD SWAP1 PUSH2 0x1F50 SWAP2 SWAP1 PUSH2 0x599C JUMP JUMPDEST PUSH2 0x120 DUP8 ADD DUP2 SWAP1 MSTORE PUSH2 0x100 DUP8 ADD MLOAD PUSH2 0x1F67 SWAP2 PUSH2 0x5D8F JUMP JUMPDEST PUSH2 0x140 DUP8 ADD DUP2 SWAP1 MSTORE PUSH2 0x1FBB JUMPI PUSH1 0x40 MLOAD PUSH3 0x461BCD PUSH1 0xE5 SHL DUP2 MSTORE PUSH1 0x20 PUSH1 0x4 DUP3 ADD DUP2 SWAP1 MSTORE PUSH1 0x24 DUP3 ADD MSTORE PUSH32 0x342E312D7365697A65642076746F6B656E20616D6F756E74206973207A65726F PUSH1 0x44 DUP3 ADD MSTORE PUSH1 0x64 ADD PUSH2 0x152 JUMP JUMPDEST SELFBALANCE PUSH2 0x160 DUP8 ADD MSTORE PUSH1 0x80 DUP7 ADD MLOAD DUP1 MLOAD PUSH1 0x1 SWAP1 DUP2 LT PUSH2 0x1FDA JUMPI PUSH2 0x1FDA PUSH2 0x5DEE JUMP JUMPDEST PUSH1 0x20 MUL PUSH1 0x20 ADD ADD MLOAD PUSH1 0x1 PUSH1 0x1 PUSH1 0xA0 SHL SUB AND PUSH4 0xDB006A75 DUP8 PUSH2 0x140 ADD MLOAD PUSH1 0x40 MLOAD DUP3 PUSH4 0xFFFFFFFF AND PUSH1 0xE0 SHL DUP2 MSTORE PUSH1 0x4 ADD PUSH2 0x2014 SWAP2 DUP2 MSTORE PUSH1 0x20 ADD SWAP1 JUMP JUMPDEST PUSH1 0x20 PUSH1 0x40 MLOAD DUP1 DUP4 SUB DUP2 PUSH1 0x0 DUP8 DUP1 EXTCODESIZE ISZERO DUP1 ISZERO PUSH2 0x202E JUMPI PUSH1 0x0 DUP1 REVERT JUMPDEST POP GAS CALL ISZERO DUP1 ISZERO PUSH2 0x2042 JUMPI RETURNDATASIZE PUSH1 0x0 DUP1 RETURNDATACOPY RETURNDATASIZE PUSH1 0x0 REVERT JUMPDEST POP POP POP POP PUSH1 0x40 MLOAD RETURNDATASIZE PUSH1 0x1F NOT PUSH1 0x1F DUP3 ADD AND DUP3 ADD DUP1 PUSH1 0x40 MSTORE POP DUP2 ADD SWAP1 PUSH2 0x2066 SWAP2 SWAP1 PUSH2 0x599C JUMP JUMPDEST ISZERO PUSH2 0x20A6 JUMPI PUSH1 0x40 MLOAD PUSH3 0x461BCD PUSH1 0xE5 SHL DUP2 MSTORE PUSH1 0x20 PUSH1 0x4 DUP3 ADD MSTORE PUSH1 0x10 PUSH1 0x24 DUP3 ADD MSTORE PUSH16 0x1A171896B932B232B2B69032B93937B9 PUSH1 0x81 SHL PUSH1 0x44 DUP3 ADD MSTORE PUSH1 0x64 ADD PUSH2 0x152 JUMP JUMPDEST SELFBALANCE PUSH2 0x180 DUP8 ADD DUP2 SWAP1 MSTORE PUSH2 0x160 DUP8 ADD MLOAD PUSH2 0x20BE SWAP2 PUSH2 0x5D8F JUMP JUMPDEST DUP7 PUSH2 0x1A0 ADD DUP2 DUP2 MSTORE POP POP PUSH20 0xBB4CDB9CBD36B01BD1CBAEBF2DE08D9173BC095C PUSH1 0x1 PUSH1 0x1 PUSH1 0xA0 SHL SUB AND PUSH4 0xD0E30DB0 DUP8 PUSH2 0x1A0 ADD MLOAD PUSH1 0x40 MLOAD DUP3 PUSH4 0xFFFFFFFF AND PUSH1 0xE0 SHL DUP2 MSTORE PUSH1 0x4 ADD PUSH1 0x0 PUSH1 0x40 MLOAD DUP1 DUP4 SUB DUP2 DUP6 DUP9 DUP1 EXTCODESIZE ISZERO DUP1 ISZERO PUSH2 0x211C JUMPI PUSH1 0x0 DUP1 REVERT JUMPDEST POP GAS CALL ISZERO DUP1 ISZERO PUSH2 0x2130 JUMPI RETURNDATASIZE PUSH1 0x0 DUP1 RETURNDATACOPY RETURNDATASIZE PUSH1 0x0 REVERT JUMPDEST POP POP POP POP POP PUSH2 0x2149 DUP7 PUSH2 0x1A0 ADD MLOAD DUP8 PUSH1 0x40 ADD MLOAD ADDRESS PUSH2 0x4C2D JUMP JUMPDEST SWAP1 POP PUSH1 0x0 DUP2 PUSH1 0x1 DUP4 MLOAD PUSH2 0x215C SWAP2 SWAP1 PUSH2 0x5D8F JUMP JUMPDEST DUP2 MLOAD DUP2 LT PUSH2 0x216C JUMPI PUSH2 0x216C PUSH2 0x5DEE JUMP JUMPDEST PUSH1 0x20 MUL PUSH1 0x20 ADD ADD MLOAD SWAP1 POP DUP7 PUSH1 0xC0 ADD MLOAD DUP2 GT PUSH2 0x21B8 JUMPI PUSH1 0x40 MLOAD PUSH3 0x461BCD PUSH1 0xE5 SHL DUP2 MSTORE PUSH1 0x20 PUSH1 0x4 DUP3 ADD MSTORE PUSH1 0xC PUSH1 0x24 DUP3 ADD MSTORE PUSH12 0x342E312D6E6F206578747261 PUSH1 0xA0 SHL PUSH1 0x44 DUP3 ADD MSTORE PUSH1 0x64 ADD PUSH2 0x152 JUMP JUMPDEST PUSH1 0xC0 DUP8 ADD MLOAD PUSH2 0x21C7 SWAP1 DUP3 PUSH2 0x5D8F JUMP JUMPDEST PUSH2 0x1C0 DUP9 ADD MSTORE POP PUSH2 0x4225 JUMP JUMPDEST PUSH1 0x40 MLOAD PUSH4 0x70A08231 PUSH1 0xE0 SHL DUP2 MSTORE ADDRESS PUSH1 0x4 DUP3 ADD MSTORE PUSH1 0x1 PUSH1 0x1 PUSH1 0xA0 SHL SUB DUP6 AND SWAP1 PUSH4 0x70A08231 SWAP1 PUSH1 0x24 ADD PUSH1 0x20 PUSH1 0x40 MLOAD DUP1 DUP4 SUB DUP2 DUP7 DUP1 EXTCODESIZE ISZERO DUP1 ISZERO PUSH2 0x2212 JUMPI PUSH1 0x0 DUP1 REVERT JUMPDEST POP GAS STATICCALL ISZERO DUP1 ISZERO PUSH2 0x2226 JUMPI RETURNDATASIZE PUSH1 0x0 DUP1 RETURNDATACOPY RETURNDATASIZE PUSH1 0x0 REVERT JUMPDEST POP POP POP POP PUSH1 0x40 MLOAD RETURNDATASIZE PUSH1 0x1F NOT PUSH1 0x1F DUP3 ADD AND DUP3 ADD DUP1 PUSH1 0x40 MSTORE POP DUP2 ADD SWAP1 PUSH2 0x224A SWAP2 SWAP1 PUSH2 0x599C JUMP JUMPDEST PUSH2 0x100 DUP8 ADD MSTORE PUSH1 0xE0 DUP7 ADD MLOAD PUSH1 0xA0 DUP8 ADD MLOAD PUSH1 0x40 MLOAD PUSH4 0x7AF1E231 PUSH1 0xE1 SHL DUP2 MSTORE PUSH1 0x1 PUSH1 0x1 PUSH1 0xA0 SHL SUB DUP9 AND SWAP3 PUSH4 0xF5E3C462 SWAP3 PUSH2 0x2286 SWAP3 DUP10 SWAP1 PUSH1 0x4 ADD PUSH2 0x5BBB JUMP JUMPDEST PUSH1 0x20 PUSH1 0x40 MLOAD DUP1 DUP4 SUB DUP2 PUSH1 0x0 DUP8 DUP1 EXTCODESIZE ISZERO DUP1 ISZERO PUSH2 0x22A0 JUMPI PUSH1 0x0 DUP1 REVERT JUMPDEST POP GAS CALL ISZERO DUP1 ISZERO PUSH2 0x22B4 JUMPI RETURNDATASIZE PUSH1 0x0 DUP1 RETURNDATACOPY RETURNDATASIZE PUSH1 0x0 REVERT JUMPDEST POP POP POP POP PUSH1 0x40 MLOAD RETURNDATASIZE PUSH1 0x1F NOT PUSH1 0x1F DUP3 ADD AND DUP3 ADD DUP1 PUSH1 0x40 MSTORE POP DUP2 ADD SWAP1 PUSH2 0x22D8 SWAP2 SWAP1 PUSH2 0x599C JUMP JUMPDEST ISZERO PUSH2 0x2325 JUMPI PUSH1 0x40 MLOAD PUSH3 0x461BCD PUSH1 0xE5 SHL DUP2 MSTORE PUSH1 0x20 PUSH1 0x4 DUP3 ADD MSTORE PUSH1 0x1A PUSH1 0x24 DUP3 ADD MSTORE PUSH32 0x342E322D6C6971756964617465426F72726F77206572726F7220000000000000 PUSH1 0x44 DUP3 ADD MSTORE PUSH1 0x64 ADD PUSH2 0x152 JUMP JUMPDEST PUSH1 0x40 MLOAD PUSH4 0x70A08231 PUSH1 0xE0 SHL DUP2 MSTORE ADDRESS PUSH1 0x4 DUP3 ADD MSTORE PUSH1 0x1 PUSH1 0x1 PUSH1 0xA0 SHL SUB DUP6 AND SWAP1 PUSH4 0x70A08231 SWAP1 PUSH1 0x24 ADD PUSH1 0x20 PUSH1 0x40 MLOAD DUP1 DUP4 SUB DUP2 DUP7 DUP1 EXTCODESIZE ISZERO DUP1 ISZERO PUSH2 0x2364 JUMPI PUSH1 0x0 DUP1 REVERT JUMPDEST POP GAS STATICCALL ISZERO DUP1 ISZERO PUSH2 0x2378 JUMPI RETURNDATASIZE PUSH1 0x0 DUP1 RETURNDATACOPY RETURNDATASIZE PUSH1 0x0 REVERT JUMPDEST POP POP POP POP PUSH1 0x40 MLOAD RETURNDATASIZE PUSH1 0x1F NOT PUSH1 0x1F DUP3 ADD AND DUP3 ADD DUP1 PUSH1 0x40 MSTORE POP DUP2 ADD SWAP1 PUSH2 0x239C SWAP2 SWAP1 PUSH2 0x599C JUMP JUMPDEST PUSH2 0x120 DUP8 ADD DUP2 SWAP1 MSTORE PUSH2 0x100 DUP8 ADD MLOAD PUSH2 0x23B3 SWAP2 PUSH2 0x5D8F JUMP JUMPDEST PUSH2 0x140 DUP8 ADD DUP2 SWAP1 MSTORE PUSH2 0x2407 JUMPI PUSH1 0x40 MLOAD PUSH3 0x461BCD PUSH1 0xE5 SHL DUP2 MSTORE PUSH1 0x20 PUSH1 0x4 DUP3 ADD DUP2 SWAP1 MSTORE PUSH1 0x24 DUP3 ADD MSTORE PUSH32 0x342E322D7365697A65642076746F6B656E20616D6F756E74206973207A65726F PUSH1 0x44 DUP3 ADD MSTORE PUSH1 0x64 ADD PUSH2 0x152 JUMP JUMPDEST PUSH1 0x40 MLOAD PUSH4 0x70A08231 PUSH1 0xE0 SHL DUP2 MSTORE ADDRESS PUSH1 0x4 DUP3 ADD MSTORE PUSH1 0x1 PUSH1 0x1 PUSH1 0xA0 SHL SUB DUP4 AND SWAP1 PUSH4 0x70A08231 SWAP1 PUSH1 0x24 ADD PUSH1 0x20 PUSH1 0x40 MLOAD DUP1 DUP4 SUB DUP2 DUP7 DUP1 EXTCODESIZE ISZERO DUP1 ISZERO PUSH2 0x2446 JUMPI PUSH1 0x0 DUP1 REVERT JUMPDEST POP GAS STATICCALL ISZERO DUP1 ISZERO PUSH2 0x245A JUMPI RETURNDATASIZE PUSH1 0x0 DUP1 RETURNDATACOPY RETURNDATASIZE PUSH1 0x0 REVERT JUMPDEST POP POP POP POP PUSH1 0x40 MLOAD RETURNDATASIZE PUSH1 0x1F NOT PUSH1 0x1F DUP3 ADD AND DUP3 ADD DUP1 PUSH1 0x40 MSTORE POP DUP2 ADD SWAP1 PUSH2 0x247E SWAP2 SWAP1 PUSH2 0x599C JUMP JUMPDEST PUSH2 0x160 DUP8 ADD MSTORE PUSH2 0x140 DUP7 ADD MLOAD PUSH1 0x40 MLOAD PUSH4 0xDB006A75 PUSH1 0xE0 SHL DUP2 MSTORE PUSH1 0x4 DUP2 ADD SWAP2 SWAP1 SWAP2 MSTORE PUSH1 0x1 PUSH1 0x1 PUSH1 0xA0 SHL SUB DUP6 AND SWAP1 PUSH4 0xDB006A75 SWAP1 PUSH1 0x24 ADD PUSH1 0x20 PUSH1 0x40 MLOAD DUP1 DUP4 SUB DUP2 PUSH1 0x0 DUP8 DUP1 EXTCODESIZE ISZERO DUP1 ISZERO PUSH2 0x24CD JUMPI PUSH1 0x0 DUP1 REVERT JUMPDEST POP GAS CALL ISZERO DUP1 ISZERO PUSH2 0x24E1 JUMPI RETURNDATASIZE PUSH1 0x0 DUP1 RETURNDATACOPY RETURNDATASIZE PUSH1 0x0 REVERT JUMPDEST POP POP POP POP PUSH1 0x40 MLOAD RETURNDATASIZE PUSH1 0x1F NOT PUSH1 0x1F DUP3 ADD AND DUP3 ADD DUP1 PUSH1 0x40 MSTORE POP DUP2 ADD SWAP1 PUSH2 0x2505 SWAP2 SWAP1 PUSH2 0x599C JUMP JUMPDEST ISZERO PUSH2 0x2545 JUMPI PUSH1 0x40 MLOAD PUSH3 0x461BCD PUSH1 0xE5 SHL DUP2 MSTORE PUSH1 0x20 PUSH1 0x4 DUP3 ADD MSTORE PUSH1 0x10 PUSH1 0x24 DUP3 ADD MSTORE PUSH16 0x1A171916B932B232B2B69032B93937B9 PUSH1 0x81 SHL PUSH1 0x44 DUP3 ADD MSTORE PUSH1 0x64 ADD PUSH2 0x152 JUMP JUMPDEST PUSH1 0x40 MLOAD PUSH4 0x70A08231 PUSH1 0xE0 SHL DUP2 MSTORE ADDRESS PUSH1 0x4 DUP3 ADD MSTORE PUSH1 0x1 PUSH1 0x1 PUSH1 0xA0 SHL SUB DUP4 AND SWAP1 PUSH4 0x70A08231 SWAP1 PUSH1 0x24 ADD PUSH1 0x20 PUSH1 0x40 MLOAD DUP1 DUP4 SUB DUP2 DUP7 DUP1 EXTCODESIZE ISZERO DUP1 ISZERO PUSH2 0x2584 JUMPI PUSH1 0x0 DUP1 REVERT JUMPDEST POP GAS STATICCALL ISZERO DUP1 ISZERO PUSH2 0x2598 JUMPI RETURNDATASIZE PUSH1 0x0 DUP1 RETURNDATACOPY RETURNDATASIZE PUSH1 0x0 REVERT JUMPDEST POP POP POP POP PUSH1 0x40 MLOAD RETURNDATASIZE PUSH1 0x1F NOT PUSH1 0x1F DUP3 ADD AND DUP3 ADD DUP1 PUSH1 0x40 MSTORE POP DUP2 ADD SWAP1 PUSH2 0x25BC SWAP2 SWAP1 PUSH2 0x599C JUMP JUMPDEST PUSH2 0x180 DUP8 ADD DUP2 SWAP1 MSTORE PUSH2 0x160 DUP8 ADD MLOAD PUSH2 0x25D3 SWAP2 PUSH2 0x5D8F JUMP JUMPDEST PUSH2 0x1A0 DUP8 ADD DUP2 SWAP1 MSTORE PUSH1 0x40 DUP8 ADD MLOAD PUSH2 0x25EB SWAP2 SWAP1 ADDRESS PUSH2 0x4C2D JUMP JUMPDEST SWAP1 POP PUSH1 0x0 DUP2 PUSH1 0x1 DUP4 MLOAD PUSH2 0x25FE SWAP2 SWAP1 PUSH2 0x5D8F JUMP JUMPDEST DUP2 MLOAD DUP2 LT PUSH2 0x260E JUMPI PUSH2 0x260E PUSH2 0x5DEE JUMP JUMPDEST PUSH1 0x20 MUL PUSH1 0x20 ADD ADD MLOAD SWAP1 POP DUP7 PUSH1 0xC0 ADD MLOAD DUP2 GT PUSH2 0x21B8 JUMPI PUSH1 0x40 MLOAD PUSH3 0x461BCD PUSH1 0xE5 SHL DUP2 MSTORE PUSH1 0x20 PUSH1 0x4 DUP3 ADD MSTORE PUSH1 0xC PUSH1 0x24 DUP3 ADD MSTORE PUSH12 0x342E322D6E6F206578747261 PUSH1 0xA0 SHL PUSH1 0x44 DUP3 ADD MSTORE PUSH1 0x64 ADD PUSH2 0x152 JUMP JUMPDEST DUP6 MLOAD PUSH1 0x5 EQ ISZERO PUSH2 0x33D4 JUMPI PUSH2 0x267E DUP7 PUSH1 0x80 ADD MLOAD PUSH1 0x0 DUP2 MLOAD DUP2 LT PUSH2 0x9C5 JUMPI PUSH2 0x9C5 PUSH2 0x5DEE JUMP JUMPDEST ISZERO PUSH2 0x2B7A JUMPI PUSH1 0xA0 DUP7 ADD MLOAD PUSH1 0x40 MLOAD PUSH4 0x2E1A7D4D PUSH1 0xE0 SHL DUP2 MSTORE PUSH1 0x4 DUP2 ADD SWAP2 SWAP1 SWAP2 MSTORE PUSH20 0xBB4CDB9CBD36B01BD1CBAEBF2DE08D9173BC095C SWAP1 PUSH4 0x2E1A7D4D SWAP1 PUSH1 0x24 ADD PUSH1 0x0 PUSH1 0x40 MLOAD DUP1 DUP4 SUB DUP2 PUSH1 0x0 DUP8 DUP1 EXTCODESIZE ISZERO DUP1 ISZERO PUSH2 0x26D6 JUMPI PUSH1 0x0 DUP1 REVERT JUMPDEST POP GAS CALL ISZERO DUP1 ISZERO PUSH2 0x26EA JUMPI RETURNDATASIZE PUSH1 0x0 DUP1 RETURNDATACOPY RETURNDATASIZE PUSH1 0x0 REVERT JUMPDEST POP POP PUSH1 0x40 MLOAD PUSH4 0x70A08231 PUSH1 0xE0 SHL DUP2 MSTORE ADDRESS PUSH1 0x4 DUP3 ADD MSTORE PUSH1 0x1 PUSH1 0x1 PUSH1 0xA0 SHL SUB DUP8 AND SWAP3 POP PUSH4 0x70A08231 SWAP2 POP PUSH1 0x24 ADD PUSH1 0x20 PUSH1 0x40 MLOAD DUP1 DUP4 SUB DUP2 DUP7 DUP1 EXTCODESIZE ISZERO DUP1 ISZERO PUSH2 0x272D JUMPI PUSH1 0x0 DUP1 REVERT JUMPDEST POP GAS STATICCALL ISZERO DUP1 ISZERO PUSH2 0x2741 JUMPI RETURNDATASIZE PUSH1 0x0 DUP1 RETURNDATACOPY RETURNDATASIZE PUSH1 0x0 REVERT JUMPDEST POP POP POP POP PUSH1 0x40 MLOAD RETURNDATASIZE PUSH1 0x1F NOT PUSH1 0x1F DUP3 ADD AND DUP3 ADD DUP1 PUSH1 0x40 MSTORE POP DUP2 ADD SWAP1 PUSH2 0x2765 SWAP2 SWAP1 PUSH2 0x599C JUMP JUMPDEST PUSH2 0x100 DUP8 ADD MSTORE PUSH1 0x80 DUP7 ADD MLOAD DUP1 MLOAD PUSH1 0x0 SWAP1 PUSH2 0x2781 JUMPI PUSH2 0x2781 PUSH2 0x5DEE JUMP JUMPDEST PUSH1 0x20 MUL PUSH1 0x20 ADD ADD MLOAD PUSH1 0x1 PUSH1 0x1 PUSH1 0xA0 SHL SUB AND PUSH4 0xAAE40A2A DUP8 PUSH1 0xA0 ADD MLOAD DUP9 PUSH1 0xE0 ADD MLOAD DUP10 PUSH1 0x80 ADD MLOAD PUSH1 0x1 DUP2 MLOAD DUP2 LT PUSH2 0x27B8 JUMPI PUSH2 0x27B8 PUSH2 0x5DEE JUMP JUMPDEST PUSH1 0x20 MUL PUSH1 0x20 ADD ADD MLOAD PUSH1 0x40 MLOAD DUP5 PUSH4 0xFFFFFFFF AND PUSH1 0xE0 SHL DUP2 MSTORE PUSH1 0x4 ADD PUSH2 0x27F2 SWAP3 SWAP2 SWAP1 PUSH1 0x1 PUSH1 0x1 PUSH1 0xA0 SHL SUB SWAP3 DUP4 AND DUP2 MSTORE SWAP2 AND PUSH1 0x20 DUP3 ADD MSTORE PUSH1 0x40 ADD SWAP1 JUMP JUMPDEST PUSH1 0x0 PUSH1 0x40 MLOAD DUP1 DUP4 SUB DUP2 DUP6 DUP9 DUP1 EXTCODESIZE ISZERO DUP1 ISZERO PUSH2 0x280B JUMPI PUSH1 0x0 DUP1 REVERT JUMPDEST POP GAS CALL ISZERO DUP1 ISZERO PUSH2 0x281F JUMPI RETURNDATASIZE PUSH1 0x0 DUP1 RETURNDATACOPY RETURNDATASIZE PUSH1 0x0 REVERT JUMPDEST POP POP PUSH1 0x40 MLOAD PUSH4 0x70A08231 PUSH1 0xE0 SHL DUP2 MSTORE ADDRESS PUSH1 0x4 DUP3 ADD MSTORE PUSH1 0x1 PUSH1 0x1 PUSH1 0xA0 SHL SUB DUP9 AND SWAP4 POP PUSH4 0x70A08231 SWAP3 POP PUSH1 0x24 ADD SWAP1 POP PUSH1 0x20 PUSH1 0x40 MLOAD DUP1 DUP4 SUB DUP2 DUP7 DUP1 EXTCODESIZE ISZERO DUP1 ISZERO PUSH2 0x2864 JUMPI PUSH1 0x0 DUP1 REVERT JUMPDEST POP GAS STATICCALL ISZERO DUP1 ISZERO PUSH2 0x2878 JUMPI RETURNDATASIZE PUSH1 0x0 DUP1 RETURNDATACOPY RETURNDATASIZE PUSH1 0x0 REVERT JUMPDEST POP POP POP POP PUSH1 0x40 MLOAD RETURNDATASIZE PUSH1 0x1F NOT PUSH1 0x1F DUP3 ADD AND DUP3 ADD DUP1 PUSH1 0x40 MSTORE POP DUP2 ADD SWAP1 PUSH2 0x289C SWAP2 SWAP1 PUSH2 0x599C JUMP JUMPDEST PUSH2 0x120 DUP8 ADD DUP2 SWAP1 MSTORE PUSH2 0x100 DUP8 ADD MLOAD PUSH2 0x28B3 SWAP2 PUSH2 0x5D8F JUMP JUMPDEST PUSH2 0x140 DUP8 ADD DUP2 SWAP1 MSTORE PUSH2 0x2907 JUMPI PUSH1 0x40 MLOAD PUSH3 0x461BCD PUSH1 0xE5 SHL DUP2 MSTORE PUSH1 0x20 PUSH1 0x4 DUP3 ADD DUP2 SWAP1 MSTORE PUSH1 0x24 DUP3 ADD MSTORE PUSH32 0x352E312D7365697A65642076746F6B656E20616D6F756E74206973207A65726F PUSH1 0x44 DUP3 ADD MSTORE PUSH1 0x64 ADD PUSH2 0x152 JUMP JUMPDEST PUSH1 0x40 MLOAD PUSH4 0x70A08231 PUSH1 0xE0 SHL DUP2 MSTORE ADDRESS PUSH1 0x4 DUP3 ADD MSTORE PUSH1 0x1 PUSH1 0x1 PUSH1 0xA0 SHL SUB DUP4 AND SWAP1 PUSH4 0x70A08231 SWAP1 PUSH1 0x24 ADD PUSH1 0x20 PUSH1 0x40 MLOAD DUP1 DUP4 SUB DUP2 DUP7 DUP1 EXTCODESIZE ISZERO DUP1 ISZERO PUSH2 0x2946 JUMPI PUSH1 0x0 DUP1 REVERT JUMPDEST POP GAS STATICCALL ISZERO DUP1 ISZERO PUSH2 0x295A JUMPI RETURNDATASIZE PUSH1 0x0 DUP1 RETURNDATACOPY RETURNDATASIZE PUSH1 0x0 REVERT JUMPDEST POP POP POP POP PUSH1 0x40 MLOAD RETURNDATASIZE PUSH1 0x1F NOT PUSH1 0x1F DUP3 ADD AND DUP3 ADD DUP1 PUSH1 0x40 MSTORE POP DUP2 ADD SWAP1 PUSH2 0x297E SWAP2 SWAP1 PUSH2 0x599C JUMP JUMPDEST PUSH2 0x160 DUP8 ADD MSTORE PUSH2 0x140 DUP7 ADD MLOAD PUSH1 0x40 MLOAD PUSH4 0xDB006A75 PUSH1 0xE0 SHL DUP2 MSTORE PUSH1 0x4 DUP2 ADD SWAP2 SWAP1 SWAP2 MSTORE PUSH1 0x1 PUSH1 0x1 PUSH1 0xA0 SHL SUB DUP6 AND SWAP1 PUSH4 0xDB006A75 SWAP1 PUSH1 0x24 ADD PUSH1 0x20 PUSH1 0x40 MLOAD DUP1 DUP4 SUB DUP2 PUSH1 0x0 DUP8 DUP1 EXTCODESIZE ISZERO DUP1 ISZERO PUSH2 0x29CD JUMPI PUSH1 0x0 DUP1 REVERT JUMPDEST POP GAS CALL ISZERO DUP1 ISZERO PUSH2 0x29E1 JUMPI RETURNDATASIZE PUSH1 0x0 DUP1 RETURNDATACOPY RETURNDATASIZE PUSH1 0x0 REVERT JUMPDEST POP POP POP POP PUSH1 0x40 MLOAD RETURNDATASIZE PUSH1 0x1F NOT PUSH1 0x1F DUP3 ADD AND DUP3 ADD DUP1 PUSH1 0x40 MSTORE POP DUP2 ADD SWAP1 PUSH2 0x2A05 SWAP2 SWAP1 PUSH2 0x599C JUMP JUMPDEST ISZERO PUSH2 0x2A45 JUMPI PUSH1 0x40 MLOAD PUSH3 0x461BCD PUSH1 0xE5 SHL DUP2 MSTORE PUSH1 0x20 PUSH1 0x4 DUP3 ADD MSTORE PUSH1 0x10 PUSH1 0x24 DUP3 ADD MSTORE PUSH16 0x1A971896B932B232B2B69032B93937B9 PUSH1 0x81 SHL PUSH1 0x44 DUP3 ADD MSTORE PUSH1 0x64 ADD PUSH2 0x152 JUMP JUMPDEST PUSH1 0x40 MLOAD PUSH4 0x70A08231 PUSH1 0xE0 SHL DUP2 MSTORE ADDRESS PUSH1 0x4 DUP3 ADD MSTORE PUSH1 0x1 PUSH1 0x1 PUSH1 0xA0 SHL SUB DUP4 AND SWAP1 PUSH4 0x70A08231 SWAP1 PUSH1 0x24 ADD PUSH1 0x20 PUSH1 0x40 MLOAD DUP1 DUP4 SUB DUP2 DUP7 DUP1 EXTCODESIZE ISZERO DUP1 ISZERO PUSH2 0x2A84 JUMPI PUSH1 0x0 DUP1 REVERT JUMPDEST POP GAS STATICCALL ISZERO DUP1 ISZERO PUSH2 0x2A98 JUMPI RETURNDATASIZE PUSH1 0x0 DUP1 RETURNDATACOPY RETURNDATASIZE PUSH1 0x0 REVERT JUMPDEST POP POP POP POP PUSH1 0x40 MLOAD RETURNDATASIZE PUSH1 0x1F NOT PUSH1 0x1F DUP3 ADD AND DUP3 ADD DUP1 PUSH1 0x40 MSTORE POP DUP2 ADD SWAP1 PUSH2 0x2ABC SWAP2 SWAP1 PUSH2 0x599C JUMP JUMPDEST PUSH2 0x180 DUP8 ADD DUP2 SWAP1 MSTORE PUSH2 0x160 DUP8 ADD MLOAD PUSH2 0x2AD3 SWAP2 PUSH2 0x5D8F JUMP JUMPDEST PUSH2 0x1A0 DUP8 ADD MSTORE PUSH1 0xC0 DUP7 ADD MLOAD PUSH1 0x40 DUP8 ADD MLOAD PUSH2 0x2AEE SWAP2 SWAP1 ADDRESS PUSH2 0x4D7D JUMP JUMPDEST SWAP1 POP DUP1 PUSH1 0x0 DUP2 MLOAD DUP2 LT PUSH2 0x2B03 JUMPI PUSH2 0x2B03 PUSH2 0x5DEE JUMP JUMPDEST PUSH1 0x20 MUL PUSH1 0x20 ADD ADD MLOAD DUP7 PUSH2 0x1A0 ADD MLOAD GT PUSH2 0x2B4D JUMPI PUSH1 0x40 MLOAD PUSH3 0x461BCD PUSH1 0xE5 SHL DUP2 MSTORE PUSH1 0x20 PUSH1 0x4 DUP3 ADD MSTORE PUSH1 0xC PUSH1 0x24 DUP3 ADD MSTORE PUSH12 0x352E312D6E6F206578747261 PUSH1 0xA0 SHL PUSH1 0x44 DUP3 ADD MSTORE PUSH1 0x64 ADD PUSH2 0x152 JUMP JUMPDEST PUSH1 0x0 DUP2 PUSH1 0x0 DUP2 MLOAD DUP2 LT PUSH2 0x2B62 JUMPI PUSH2 0x2B62 PUSH2 0x5DEE JUMP JUMPDEST PUSH1 0x20 MUL PUSH1 0x20 ADD ADD MLOAD DUP8 PUSH2 0x1A0 ADD MLOAD PUSH2 0xE45 SWAP2 SWAP1 PUSH2 0x5D8F JUMP JUMPDEST PUSH2 0x2B94 DUP7 PUSH1 0x80 ADD MLOAD PUSH1 0x1 DUP2 MLOAD DUP2 LT PUSH2 0x9C5 JUMPI PUSH2 0x9C5 PUSH2 0x5DEE JUMP JUMPDEST ISZERO PUSH2 0x2F5A JUMPI PUSH1 0x40 MLOAD PUSH4 0x70A08231 PUSH1 0xE0 SHL DUP2 MSTORE ADDRESS PUSH1 0x4 DUP3 ADD MSTORE PUSH1 0x1 PUSH1 0x1 PUSH1 0xA0 SHL SUB DUP6 AND SWAP1 PUSH4 0x70A08231 SWAP1 PUSH1 0x24 ADD PUSH1 0x20 PUSH1 0x40 MLOAD DUP1 DUP4 SUB DUP2 DUP7 DUP1 EXTCODESIZE ISZERO DUP1 ISZERO PUSH2 0x2BD8 JUMPI PUSH1 0x0 DUP1 REVERT JUMPDEST POP GAS STATICCALL ISZERO DUP1 ISZERO PUSH2 0x2BEC JUMPI RETURNDATASIZE PUSH1 0x0 DUP1 RETURNDATACOPY RETURNDATASIZE PUSH1 0x0 REVERT JUMPDEST POP POP POP POP PUSH1 0x40 MLOAD RETURNDATASIZE PUSH1 0x1F NOT PUSH1 0x1F DUP3 ADD AND DUP3 ADD DUP1 PUSH1 0x40 MSTORE POP DUP2 ADD SWAP1 PUSH2 0x2C10 SWAP2 SWAP1 PUSH2 0x599C JUMP JUMPDEST PUSH2 0x100 DUP8 ADD MSTORE PUSH1 0xE0 DUP7 ADD MLOAD PUSH1 0xA0 DUP8 ADD MLOAD PUSH1 0x40 MLOAD PUSH4 0x7AF1E231 PUSH1 0xE1 SHL DUP2 MSTORE PUSH1 0x1 PUSH1 0x1 PUSH1 0xA0 SHL SUB DUP9 AND SWAP3 PUSH4 0xF5E3C462 SWAP3 PUSH2 0x2C4C SWAP3 DUP10 SWAP1 PUSH1 0x4 ADD PUSH2 0x5BBB JUMP JUMPDEST PUSH1 0x20 PUSH1 0x40 MLOAD DUP1 DUP4 SUB DUP2 PUSH1 0x0 DUP8 DUP1 EXTCODESIZE ISZERO DUP1 ISZERO PUSH2 0x2C66 JUMPI PUSH1 0x0 DUP1 REVERT JUMPDEST POP GAS CALL ISZERO DUP1 ISZERO PUSH2 0x2C7A JUMPI RETURNDATASIZE PUSH1 0x0 DUP1 RETURNDATACOPY RETURNDATASIZE PUSH1 0x0 REVERT JUMPDEST POP POP POP POP PUSH1 0x40 MLOAD RETURNDATASIZE PUSH1 0x1F NOT PUSH1 0x1F DUP3 ADD AND DUP3 ADD DUP1 PUSH1 0x40 MSTORE POP DUP2 ADD SWAP1 PUSH2 0x2C9E SWAP2 SWAP1 PUSH2 0x599C JUMP JUMPDEST ISZERO PUSH2 0x2CEB JUMPI PUSH1 0x40 MLOAD PUSH3 0x461BCD PUSH1 0xE5 SHL DUP2 MSTORE PUSH1 0x20 PUSH1 0x4 DUP3 ADD MSTORE PUSH1 0x19 PUSH1 0x24 DUP3 ADD MSTORE PUSH32 0x352E322D6C6971756964617465426F72726F77206572726F7200000000000000 PUSH1 0x44 DUP3 ADD MSTORE PUSH1 0x64 ADD PUSH2 0x152 JUMP JUMPDEST PUSH1 0x40 MLOAD PUSH4 0x70A08231 PUSH1 0xE0 SHL DUP2 MSTORE ADDRESS PUSH1 0x4 DUP3 ADD MSTORE PUSH1 0x1 PUSH1 0x1 PUSH1 0xA0 SHL SUB DUP6 AND SWAP1 PUSH4 0x70A08231 SWAP1 PUSH1 0x24 ADD PUSH1 0x20 PUSH1 0x40 MLOAD DUP1 DUP4 SUB DUP2 DUP7 DUP1 EXTCODESIZE ISZERO DUP1 ISZERO PUSH2 0x2D2A JUMPI PUSH1 0x0 DUP1 REVERT JUMPDEST POP GAS STATICCALL ISZERO DUP1 ISZERO PUSH2 0x2D3E JUMPI RETURNDATASIZE PUSH1 0x0 DUP1 RETURNDATACOPY RETURNDATASIZE PUSH1 0x0 REVERT JUMPDEST POP POP POP POP PUSH1 0x40 MLOAD RETURNDATASIZE PUSH1 0x1F NOT PUSH1 0x1F DUP3 ADD AND DUP3 ADD DUP1 PUSH1 0x40 MSTORE POP DUP2 ADD SWAP1 PUSH2 0x2D62 SWAP2 SWAP1 PUSH2 0x599C JUMP JUMPDEST PUSH2 0x120 DUP8 ADD DUP2 SWAP1 MSTORE PUSH2 0x100 DUP8 ADD MLOAD PUSH2 0x2D79 SWAP2 PUSH2 0x5D8F JUMP JUMPDEST PUSH2 0x140 DUP8 ADD DUP2 SWAP1 MSTORE PUSH2 0x2DCD JUMPI PUSH1 0x40 MLOAD PUSH3 0x461BCD PUSH1 0xE5 SHL DUP2 MSTORE PUSH1 0x20 PUSH1 0x4 DUP3 ADD DUP2 SWAP1 MSTORE PUSH1 0x24 DUP3 ADD MSTORE PUSH32 0x352E322D7365697A65642076746F6B656E20616D6F756E74206973207A65726F PUSH1 0x44 DUP3 ADD MSTORE PUSH1 0x64 ADD PUSH2 0x152 JUMP JUMPDEST SELFBALANCE PUSH2 0x160 DUP8 ADD MSTORE PUSH1 0x80 DUP7 ADD MLOAD DUP1 MLOAD PUSH1 0x1 SWAP1 DUP2 LT PUSH2 0x2DEC JUMPI PUSH2 0x2DEC PUSH2 0x5DEE JUMP JUMPDEST PUSH1 0x20 MUL PUSH1 0x20 ADD ADD MLOAD PUSH1 0x1 PUSH1 0x1 PUSH1 0xA0 SHL SUB AND PUSH4 0xDB006A75 DUP8 PUSH2 0x140 ADD MLOAD PUSH1 0x40 MLOAD DUP3 PUSH4 0xFFFFFFFF AND PUSH1 0xE0 SHL DUP2 MSTORE PUSH1 0x4 ADD PUSH2 0x2E26 SWAP2 DUP2 MSTORE PUSH1 0x20 ADD SWAP1 JUMP JUMPDEST PUSH1 0x20 PUSH1 0x40 MLOAD DUP1 DUP4 SUB DUP2 PUSH1 0x0 DUP8 DUP1 EXTCODESIZE ISZERO DUP1 ISZERO PUSH2 0x2E40 JUMPI PUSH1 0x0 DUP1 REVERT JUMPDEST POP GAS CALL ISZERO DUP1 ISZERO PUSH2 0x2E54 JUMPI RETURNDATASIZE PUSH1 0x0 DUP1 RETURNDATACOPY RETURNDATASIZE PUSH1 0x0 REVERT JUMPDEST POP POP POP POP PUSH1 0x40 MLOAD RETURNDATASIZE PUSH1 0x1F NOT PUSH1 0x1F DUP3 ADD AND DUP3 ADD DUP1 PUSH1 0x40 MSTORE POP DUP2 ADD SWAP1 PUSH2 0x2E78 SWAP2 SWAP1 PUSH2 0x599C JUMP JUMPDEST ISZERO PUSH2 0x2EB8 JUMPI PUSH1 0x40 MLOAD PUSH3 0x461BCD PUSH1 0xE5 SHL DUP2 MSTORE PUSH1 0x20 PUSH1 0x4 DUP3 ADD MSTORE PUSH1 0x10 PUSH1 0x24 DUP3 ADD MSTORE PUSH16 0x1A971916B932B232B2B69032B93937B9 PUSH1 0x81 SHL PUSH1 0x44 DUP3 ADD MSTORE PUSH1 0x64 ADD PUSH2 0x152 JUMP JUMPDEST SELFBALANCE PUSH2 0x180 DUP8 ADD DUP2 SWAP1 MSTORE PUSH2 0x160 DUP8 ADD MLOAD PUSH2 0x2ED0 SWAP2 PUSH2 0x5D8F JUMP JUMPDEST DUP7 PUSH2 0x1A0 ADD DUP2 DUP2 MSTORE POP POP PUSH20 0xBB4CDB9CBD36B01BD1CBAEBF2DE08D9173BC095C PUSH1 0x1 PUSH1 0x1 PUSH1 0xA0 SHL SUB AND PUSH4 0xD0E30DB0 DUP8 PUSH2 0x1A0 ADD MLOAD PUSH1 0x40 MLOAD DUP3 PUSH4 0xFFFFFFFF AND PUSH1 0xE0 SHL DUP2 MSTORE PUSH1 0x4 ADD PUSH1 0x0 PUSH1 0x40 MLOAD DUP1 DUP4 SUB DUP2 DUP6 DUP9 DUP1 EXTCODESIZE ISZERO DUP1 ISZERO PUSH2 0x2F2E JUMPI PUSH1 0x0 DUP1 REVERT JUMPDEST POP GAS CALL ISZERO DUP1 ISZERO PUSH2 0x2F42 JUMPI RETURNDATASIZE PUSH1 0x0 DUP1 RETURNDATACOPY RETURNDATASIZE PUSH1 0x0 REVERT JUMPDEST POP POP POP POP POP PUSH2 0x2AEE DUP7 PUSH1 0xC0 ADD MLOAD DUP8 PUSH1 0x40 ADD MLOAD ADDRESS PUSH2 0x4D7D JUMP JUMPDEST PUSH1 0x40 MLOAD PUSH4 0x70A08231 PUSH1 0xE0 SHL DUP2 MSTORE ADDRESS PUSH1 0x4 DUP3 ADD MSTORE PUSH1 0x1 PUSH1 0x1 PUSH1 0xA0 SHL SUB DUP6 AND SWAP1 PUSH4 0x70A08231 SWAP1 PUSH1 0x24 ADD PUSH1 0x20 PUSH1 0x40 MLOAD DUP1 DUP4 SUB DUP2 DUP7 DUP1 EXTCODESIZE ISZERO DUP1 ISZERO PUSH2 0x2F99 JUMPI PUSH1 0x0 DUP1 REVERT JUMPDEST POP GAS STATICCALL ISZERO DUP1 ISZERO PUSH2 0x2FAD JUMPI RETURNDATASIZE PUSH1 0x0 DUP1 RETURNDATACOPY RETURNDATASIZE PUSH1 0x0 REVERT JUMPDEST POP POP POP POP PUSH1 0x40 MLOAD RETURNDATASIZE PUSH1 0x1F NOT PUSH1 0x1F DUP3 ADD AND DUP3 ADD DUP1 PUSH1 0x40 MSTORE POP DUP2 ADD SWAP1 PUSH2 0x2FD1 SWAP2 SWAP1 PUSH2 0x599C JUMP JUMPDEST PUSH2 0x100 DUP8 ADD MSTORE PUSH1 0xE0 DUP7 ADD MLOAD PUSH1 0xA0 DUP8 ADD MLOAD PUSH1 0x40 MLOAD PUSH4 0x7AF1E231 PUSH1 0xE1 SHL DUP2 MSTORE PUSH1 0x1 PUSH1 0x1 PUSH1 0xA0 SHL SUB DUP9 AND SWAP3 PUSH4 0xF5E3C462 SWAP3 PUSH2 0x300D SWAP3 DUP10 SWAP1 PUSH1 0x4 ADD PUSH2 0x5BBB JUMP JUMPDEST PUSH1 0x20 PUSH1 0x40 MLOAD DUP1 DUP4 SUB DUP2 PUSH1 0x0 DUP8 DUP1 EXTCODESIZE ISZERO DUP1 ISZERO PUSH2 0x3027 JUMPI PUSH1 0x0 DUP1 REVERT JUMPDEST POP GAS CALL ISZERO DUP1 ISZERO PUSH2 0x303B JUMPI RETURNDATASIZE PUSH1 0x0 DUP1 RETURNDATACOPY RETURNDATASIZE PUSH1 0x0 REVERT JUMPDEST POP POP POP POP PUSH1 0x40 MLOAD RETURNDATASIZE PUSH1 0x1F NOT PUSH1 0x1F DUP3 ADD AND DUP3 ADD DUP1 PUSH1 0x40 MSTORE POP DUP2 ADD SWAP1 PUSH2 0x305F SWAP2 SWAP1 PUSH2 0x599C JUMP JUMPDEST ISZERO PUSH2 0x30AC JUMPI PUSH1 0x40 MLOAD PUSH3 0x461BCD PUSH1 0xE5 SHL DUP2 MSTORE PUSH1 0x20 PUSH1 0x4 DUP3 ADD MSTORE PUSH1 0x1A PUSH1 0x24 DUP3 ADD MSTORE PUSH32 0x352E332D6C6971756964617465426F72726F77206572726F7220000000000000 PUSH1 0x44 DUP3 ADD MSTORE PUSH1 0x64 ADD PUSH2 0x152 JUMP JUMPDEST PUSH1 0x40 MLOAD PUSH4 0x70A08231 PUSH1 0xE0 SHL DUP2 MSTORE ADDRESS PUSH1 0x4 DUP3 ADD MSTORE PUSH1 0x1 PUSH1 0x1 PUSH1 0xA0 SHL SUB DUP6 AND SWAP1 PUSH4 0x70A08231 SWAP1 PUSH1 0x24 ADD PUSH1 0x20 PUSH1 0x40 MLOAD DUP1 DUP4 SUB DUP2 DUP7 DUP1 EXTCODESIZE ISZERO DUP1 ISZERO PUSH2 0x30EB JUMPI PUSH1 0x0 DUP1 REVERT JUMPDEST POP GAS STATICCALL ISZERO DUP1 ISZERO PUSH2 0x30FF JUMPI RETURNDATASIZE PUSH1 0x0 DUP1 RETURNDATACOPY RETURNDATASIZE PUSH1 0x0 REVERT JUMPDEST POP POP POP POP PUSH1 0x40 MLOAD RETURNDATASIZE PUSH1 0x1F NOT PUSH1 0x1F DUP3 ADD AND DUP3 ADD DUP1 PUSH1 0x40 MSTORE POP DUP2 ADD SWAP1 PUSH2 0x3123 SWAP2 SWAP1 PUSH2 0x599C JUMP JUMPDEST PUSH2 0x120 DUP8 ADD DUP2 SWAP1 MSTORE PUSH2 0x100 DUP8 ADD MLOAD PUSH2 0x313A SWAP2 PUSH2 0x5D8F JUMP JUMPDEST PUSH2 0x140 DUP8 ADD DUP2 SWAP1 MSTORE PUSH2 0x318E JUMPI PUSH1 0x40 MLOAD PUSH3 0x461BCD PUSH1 0xE5 SHL DUP2 MSTORE PUSH1 0x20 PUSH1 0x4 DUP3 ADD DUP2 SWAP1 MSTORE PUSH1 0x24 DUP3 ADD MSTORE PUSH32 0x352E332D7365697A65642076746F6B656E20616D6F756E74206973207A65726F PUSH1 0x44 DUP3 ADD MSTORE PUSH1 0x64 ADD PUSH2 0x152 JUMP JUMPDEST PUSH1 0x40 MLOAD PUSH4 0x70A08231 PUSH1 0xE0 SHL DUP2 MSTORE ADDRESS PUSH1 0x4 DUP3 ADD MSTORE PUSH1 0x1 PUSH1 0x1 PUSH1 0xA0 SHL SUB DUP4 AND SWAP1 PUSH4 0x70A08231 SWAP1 PUSH1 0x24 ADD PUSH1 0x20 PUSH1 0x40 MLOAD DUP1 DUP4 SUB DUP2 DUP7 DUP1 EXTCODESIZE ISZERO DUP1 ISZERO PUSH2 0x31CD JUMPI PUSH1 0x0 DUP1 REVERT JUMPDEST POP GAS STATICCALL ISZERO DUP1 ISZERO PUSH2 0x31E1 JUMPI RETURNDATASIZE PUSH1 0x0 DUP1 RETURNDATACOPY RETURNDATASIZE PUSH1 0x0 REVERT JUMPDEST POP POP POP POP PUSH1 0x40 MLOAD RETURNDATASIZE PUSH1 0x1F NOT PUSH1 0x1F DUP3 ADD AND DUP3 ADD DUP1 PUSH1 0x40 MSTORE POP DUP2 ADD SWAP1 PUSH2 0x3205 SWAP2 SWAP1 PUSH2 0x599C JUMP JUMPDEST PUSH2 0x160 DUP8 ADD MSTORE PUSH2 0x140 DUP7 ADD MLOAD PUSH1 0x40 MLOAD PUSH4 0xDB006A75 PUSH1 0xE0 SHL DUP2 MSTORE PUSH1 0x4 DUP2 ADD SWAP2 SWAP1 SWAP2 MSTORE PUSH1 0x1 PUSH1 0x1 PUSH1 0xA0 SHL SUB DUP6 AND SWAP1 PUSH4 0xDB006A75 SWAP1 PUSH1 0x24 ADD PUSH1 0x20 PUSH1 0x40 MLOAD DUP1 DUP4 SUB DUP2 PUSH1 0x0 DUP8 DUP1 EXTCODESIZE ISZERO DUP1 ISZERO PUSH2 0x3254 JUMPI PUSH1 0x0 DUP1 REVERT JUMPDEST POP GAS CALL ISZERO DUP1 ISZERO PUSH2 0x3268 JUMPI RETURNDATASIZE PUSH1 0x0 DUP1 RETURNDATACOPY RETURNDATASIZE PUSH1 0x0 REVERT JUMPDEST POP POP POP POP PUSH1 0x40 MLOAD RETURNDATASIZE PUSH1 0x1F NOT PUSH1 0x1F DUP3 ADD AND DUP3 ADD DUP1 PUSH1 0x40 MSTORE POP DUP2 ADD SWAP1 PUSH2 0x328C SWAP2 SWAP1 PUSH2 0x599C JUMP JUMPDEST ISZERO PUSH2 0x32CC JUMPI PUSH1 0x40 MLOAD PUSH3 0x461BCD PUSH1 0xE5 SHL DUP2 MSTORE PUSH1 0x20 PUSH1 0x4 DUP3 ADD MSTORE PUSH1 0x10 PUSH1 0x24 DUP3 ADD MSTORE PUSH16 0x1A971996B932B232B2B69032B93937B9 PUSH1 0x81 SHL PUSH1 0x44 DUP3 ADD MSTORE PUSH1 0x64 ADD PUSH2 0x152 JUMP JUMPDEST PUSH1 0x40 MLOAD PUSH4 0x70A08231 PUSH1 0xE0 SHL DUP2 MSTORE ADDRESS PUSH1 0x4 DUP3 ADD MSTORE PUSH1 0x1 PUSH1 0x1 PUSH1 0xA0 SHL SUB DUP4 AND SWAP1 PUSH4 0x70A08231 SWAP1 PUSH1 0x24 ADD PUSH1 0x20 PUSH1 0x40 MLOAD DUP1 DUP4 SUB DUP2 DUP7 DUP1 EXTCODESIZE ISZERO DUP1 ISZERO PUSH2 0x330B JUMPI PUSH1 0x0 DUP1 REVERT JUMPDEST POP GAS STATICCALL ISZERO DUP1 ISZERO PUSH2 0x331F JUMPI RETURNDATASIZE PUSH1 0x0 DUP1 RETURNDATACOPY RETURNDATASIZE PUSH1 0x0 REVERT JUMPDEST POP POP POP POP PUSH1 0x40 MLOAD RETURNDATASIZE PUSH1 0x1F NOT PUSH1 0x1F DUP3 ADD AND DUP3 ADD DUP1 PUSH1 0x40 MSTORE POP DUP2 ADD SWAP1 PUSH2 0x3343 SWAP2 SWAP1 PUSH2 0x599C JUMP JUMPDEST PUSH2 0x180 DUP8 ADD DUP2 SWAP1 MSTORE PUSH2 0x160 DUP8 ADD MLOAD PUSH2 0x335A SWAP2 PUSH2 0x5D8F JUMP JUMPDEST PUSH2 0x1A0 DUP8 ADD MSTORE PUSH1 0xC0 DUP7 ADD MLOAD PUSH1 0x40 DUP8 ADD MLOAD PUSH2 0x3375 SWAP2 SWAP1 ADDRESS PUSH2 0x4D7D JUMP JUMPDEST SWAP1 POP DUP1 PUSH1 0x0 DUP2 MLOAD DUP2 LT PUSH2 0x338A JUMPI PUSH2 0x338A PUSH2 0x5DEE JUMP JUMPDEST PUSH1 0x20 MUL PUSH1 0x20 ADD ADD MLOAD DUP7 PUSH2 0x1A0 ADD MLOAD GT PUSH2 0x2B4D JUMPI PUSH1 0x40 MLOAD PUSH3 0x461BCD PUSH1 0xE5 SHL DUP2 MSTORE PUSH1 0x20 PUSH1 0x4 DUP3 ADD MSTORE PUSH1 0xC PUSH1 0x24 DUP3 ADD MSTORE PUSH12 0x352E332D6E6F206578747261 PUSH1 0xA0 SHL PUSH1 0x44 DUP3 ADD MSTORE PUSH1 0x64 ADD PUSH2 0x152 JUMP JUMPDEST DUP6 MLOAD PUSH1 0x6 EQ ISZERO PUSH2 0x393A JUMPI PUSH2 0x33F8 DUP7 PUSH1 0x80 ADD MLOAD PUSH1 0x1 DUP2 MLOAD DUP2 LT PUSH2 0x40E JUMPI PUSH2 0x40E PUSH2 0x5DEE JUMP JUMPDEST PUSH2 0x3444 JUMPI PUSH1 0x40 MLOAD PUSH3 0x461BCD PUSH1 0xE5 SHL DUP2 MSTORE PUSH1 0x20 PUSH1 0x4 DUP3 ADD DUP2 SWAP1 MSTORE PUSH1 0x24 DUP3 ADD MSTORE PUSH32 0x362D7365697A6564546F6B656E206973206E6F7420737461626C6520636F696E PUSH1 0x44 DUP3 ADD MSTORE PUSH1 0x64 ADD PUSH2 0x152 JUMP JUMPDEST PUSH1 0x40 MLOAD PUSH4 0x70A08231 PUSH1 0xE0 SHL DUP2 MSTORE ADDRESS PUSH1 0x4 DUP3 ADD MSTORE PUSH1 0x1 PUSH1 0x1 PUSH1 0xA0 SHL SUB DUP6 AND SWAP1 PUSH4 0x70A08231 SWAP1 PUSH1 0x24 ADD PUSH1 0x20 PUSH1 0x40 MLOAD DUP1 DUP4 SUB DUP2 DUP7 DUP1 EXTCODESIZE ISZERO DUP1 ISZERO PUSH2 0x3483 JUMPI PUSH1 0x0 DUP1 REVERT JUMPDEST POP GAS STATICCALL ISZERO DUP1 ISZERO PUSH2 0x3497 JUMPI RETURNDATASIZE PUSH1 0x0 DUP1 RETURNDATACOPY RETURNDATASIZE PUSH1 0x0 REVERT JUMPDEST POP POP POP POP PUSH1 0x40 MLOAD RETURNDATASIZE PUSH1 0x1F NOT PUSH1 0x1F DUP3 ADD AND DUP3 ADD DUP1 PUSH1 0x40 MSTORE POP DUP2 ADD SWAP1 PUSH2 0x34BB SWAP2 SWAP1 PUSH2 0x599C JUMP JUMPDEST PUSH2 0x100 DUP8 ADD MSTORE PUSH1 0x80 DUP7 ADD MLOAD DUP1 MLOAD PUSH1 0x0 SWAP2 DUP3 SWAP2 DUP3 SWAP1 PUSH2 0x34DB JUMPI PUSH2 0x34DB PUSH2 0x5DEE JUMP JUMPDEST PUSH1 0x20 MUL PUSH1 0x20 ADD ADD MLOAD PUSH1 0x1 PUSH1 0x1 PUSH1 0xA0 SHL SUB AND PUSH4 0x11B3D5E7 DUP10 PUSH1 0xE0 ADD MLOAD DUP11 PUSH1 0xA0 ADD MLOAD DUP10 PUSH1 0x40 MLOAD DUP5 PUSH4 0xFFFFFFFF AND PUSH1 0xE0 SHL DUP2 MSTORE PUSH1 0x4 ADD PUSH2 0x351A SWAP4 SWAP3 SWAP2 SWAP1 PUSH2 0x5BBB JUMP JUMPDEST PUSH1 0x40 DUP1 MLOAD DUP1 DUP4 SUB DUP2 PUSH1 0x0 DUP8 DUP1 EXTCODESIZE ISZERO DUP1 ISZERO PUSH2 0x3533 JUMPI PUSH1 0x0 DUP1 REVERT JUMPDEST POP GAS CALL ISZERO DUP1 ISZERO PUSH2 0x3547 JUMPI RETURNDATASIZE PUSH1 0x0 DUP1 RETURNDATACOPY RETURNDATASIZE PUSH1 0x0 REVERT JUMPDEST POP POP POP POP PUSH1 0x40 MLOAD RETURNDATASIZE PUSH1 0x1F NOT PUSH1 0x1F DUP3 ADD AND DUP3 ADD DUP1 PUSH1 0x40 MSTORE POP DUP2 ADD SWAP1 PUSH2 0x356B SWAP2 SWAP1 PUSH2 0x5B20 JUMP JUMPDEST SWAP2 POP SWAP2 POP DUP2 PUSH1 0x0 EQ PUSH2 0x35BF JUMPI PUSH1 0x40 MLOAD PUSH3 0x461BCD PUSH1 0xE5 SHL DUP2 MSTORE PUSH1 0x20 PUSH1 0x4 DUP3 ADD MSTORE PUSH1 0x18 PUSH1 0x24 DUP3 ADD MSTORE PUSH32 0x362D6C6971756964617465426F72726F77206572726F72200000000000000000 PUSH1 0x44 DUP3 ADD MSTORE PUSH1 0x64 ADD PUSH2 0x152 JUMP JUMPDEST PUSH1 0x40 MLOAD PUSH4 0x70A08231 PUSH1 0xE0 SHL DUP2 MSTORE ADDRESS PUSH1 0x4 DUP3 ADD MSTORE PUSH1 0x1 PUSH1 0x1 PUSH1 0xA0 SHL SUB DUP8 AND SWAP1 PUSH4 0x70A08231 SWAP1 PUSH1 0x24 ADD PUSH1 0x20 PUSH1 0x40 MLOAD DUP1 DUP4 SUB DUP2 DUP7 DUP1 EXTCODESIZE ISZERO DUP1 ISZERO PUSH2 0x35FE JUMPI PUSH1 0x0 DUP1 REVERT JUMPDEST POP GAS STATICCALL ISZERO DUP1 ISZERO PUSH2 0x3612 JUMPI RETURNDATASIZE PUSH1 0x0 DUP1 RETURNDATACOPY RETURNDATASIZE PUSH1 0x0 REVERT JUMPDEST POP POP POP POP PUSH1 0x40 MLOAD RETURNDATASIZE PUSH1 0x1F NOT PUSH1 0x1F DUP3 ADD AND DUP3 ADD DUP1 PUSH1 0x40 MSTORE POP DUP2 ADD SWAP1 PUSH2 0x3636 SWAP2 SWAP1 PUSH2 0x599C JUMP JUMPDEST PUSH2 0x120 DUP10 ADD DUP2 SWAP1 MSTORE PUSH2 0x100 DUP10 ADD MLOAD PUSH2 0x364D SWAP2 PUSH2 0x5D8F JUMP JUMPDEST PUSH2 0x140 DUP10 ADD DUP2 SWAP1 MSTORE PUSH2 0x36A1 JUMPI PUSH1 0x40 MLOAD PUSH3 0x461BCD PUSH1 0xE5 SHL DUP2 MSTORE PUSH1 0x20 PUSH1 0x4 DUP3 ADD MSTORE PUSH1 0x1E PUSH1 0x24 DUP3 ADD MSTORE PUSH32 0x362D7365697A65642076746F6B656E20616D6F756E74206973207A65726F0000 PUSH1 0x44 DUP3 ADD MSTORE PUSH1 0x64 ADD PUSH2 0x152 JUMP JUMPDEST PUSH1 0x40 MLOAD PUSH4 0x70A08231 PUSH1 0xE0 SHL DUP2 MSTORE ADDRESS PUSH1 0x4 DUP3 ADD MSTORE PUSH1 0x1 PUSH1 0x1 PUSH1 0xA0 SHL SUB DUP6 AND SWAP1 PUSH4 0x70A08231 SWAP1 PUSH1 0x24 ADD PUSH1 0x20 PUSH1 0x40 MLOAD DUP1 DUP4 SUB DUP2 DUP7 DUP1 EXTCODESIZE ISZERO DUP1 ISZERO PUSH2 0x36E0 JUMPI PUSH1 0x0 DUP1 REVERT JUMPDEST POP GAS STATICCALL ISZERO DUP1 ISZERO PUSH2 0x36F4 JUMPI RETURNDATASIZE PUSH1 0x0 DUP1 RETURNDATACOPY RETURNDATASIZE PUSH1 0x0 REVERT JUMPDEST POP POP POP POP PUSH1 0x40 MLOAD RETURNDATASIZE PUSH1 0x1F NOT PUSH1 0x1F DUP3 ADD AND DUP3 ADD DUP1 PUSH1 0x40 MSTORE POP DUP2 ADD SWAP1 PUSH2 0x3718 SWAP2 SWAP1 PUSH2 0x599C JUMP JUMPDEST PUSH2 0x160 DUP10 ADD MSTORE PUSH2 0x140 DUP9 ADD MLOAD PUSH1 0x40 MLOAD PUSH4 0xDB006A75 PUSH1 0xE0 SHL DUP2 MSTORE PUSH1 0x4 DUP2 ADD SWAP2 SWAP1 SWAP2 MSTORE PUSH1 0x1 PUSH1 0x1 PUSH1 0xA0 SHL SUB DUP8 AND SWAP1 PUSH4 0xDB006A75 SWAP1 PUSH1 0x24 ADD PUSH1 0x20 PUSH1 0x40 MLOAD DUP1 DUP4 SUB DUP2 PUSH1 0x0 DUP8 DUP1 EXTCODESIZE ISZERO DUP1 ISZERO PUSH2 0x3767 JUMPI PUSH1 0x0 DUP1 REVERT JUMPDEST POP GAS CALL ISZERO DUP1 ISZERO PUSH2 0x377B JUMPI RETURNDATASIZE PUSH1 0x0 DUP1 RETURNDATACOPY RETURNDATASIZE PUSH1 0x0 REVERT JUMPDEST POP POP POP POP PUSH1 0x40 MLOAD RETURNDATASIZE PUSH1 0x1F NOT PUSH1 0x1F DUP3 ADD AND DUP3 ADD DUP1 PUSH1 0x40 MSTORE POP DUP2 ADD SWAP1 PUSH2 0x379F SWAP2 SWAP1 PUSH2 0x599C JUMP JUMPDEST ISZERO PUSH2 0x37DD JUMPI PUSH1 0x40 MLOAD PUSH3 0x461BCD PUSH1 0xE5 SHL DUP2 MSTORE PUSH1 0x20 PUSH1 0x4 DUP3 ADD MSTORE PUSH1 0xE PUSH1 0x24 DUP3 ADD MSTORE PUSH14 0x1B16B932B232B2B69032B93937B9 PUSH1 0x91 SHL PUSH1 0x44 DUP3 ADD MSTORE PUSH1 0x64 ADD PUSH2 0x152 JUMP JUMPDEST PUSH1 0x40 MLOAD PUSH4 0x70A08231 PUSH1 0xE0 SHL DUP2 MSTORE ADDRESS PUSH1 0x4 DUP3 ADD MSTORE PUSH1 0x1 PUSH1 0x1 PUSH1 0xA0 SHL SUB DUP6 AND SWAP1 PUSH4 0x70A08231 SWAP1 PUSH1 0x24 ADD PUSH1 0x20 PUSH1 0x40 MLOAD DUP1 DUP4 SUB DUP2 DUP7 DUP1 EXTCODESIZE ISZERO DUP1 ISZERO PUSH2 0x381C JUMPI PUSH1 0x0 DUP1 REVERT JUMPDEST POP GAS STATICCALL ISZERO DUP1 ISZERO PUSH2 0x3830 JUMPI RETURNDATASIZE PUSH1 0x0 DUP1 RETURNDATACOPY RETURNDATASIZE PUSH1 0x0 REVERT JUMPDEST POP POP POP POP PUSH1 0x40 MLOAD RETURNDATASIZE PUSH1 0x1F NOT PUSH1 0x1F DUP3 ADD AND DUP3 ADD DUP1 PUSH1 0x40 MSTORE POP DUP2 ADD SWAP1 PUSH2 0x3854 SWAP2 SWAP1 PUSH2 0x599C JUMP JUMPDEST PUSH2 0x180 DUP10 ADD DUP2 SWAP1 MSTORE PUSH2 0x160 DUP10 ADD MLOAD PUSH2 0x386B SWAP2 PUSH2 0x5D8F JUMP JUMPDEST PUSH2 0x1A0 DUP10 ADD MSTORE PUSH1 0xA0 DUP9 ADD MLOAD PUSH1 0xC0 DUP10 ADD MLOAD PUSH1 0x0 SWAP2 SWAP1 PUSH2 0x388A SWAP1 DUP5 SWAP1 PUSH2 0x5D36 JUMP JUMPDEST PUSH2 0x3894 SWAP2 SWAP1 PUSH2 0x5D8F JUMP JUMPDEST SWAP1 POP PUSH2 0x38A5 DUP2 DUP11 PUSH1 0x40 ADD MLOAD ADDRESS PUSH2 0x4D7D JUMP JUMPDEST POP DUP4 PUSH1 0x0 DUP2 MLOAD DUP2 LT PUSH2 0x38B9 JUMPI PUSH2 0x38B9 PUSH2 0x5DEE JUMP JUMPDEST PUSH1 0x20 MUL PUSH1 0x20 ADD ADD MLOAD DUP10 PUSH2 0x1A0 ADD MLOAD GT PUSH2 0x3900 JUMPI PUSH1 0x40 MLOAD PUSH3 0x461BCD PUSH1 0xE5 SHL DUP2 MSTORE PUSH1 0x20 PUSH1 0x4 DUP3 ADD MSTORE PUSH1 0x9 PUSH1 0x24 DUP3 ADD MSTORE PUSH9 0x362D6E6F6578747261 PUSH1 0xB8 SHL PUSH1 0x44 DUP3 ADD MSTORE PUSH1 0x64 ADD PUSH2 0x152 JUMP JUMPDEST DUP4 PUSH1 0x0 DUP2 MLOAD DUP2 LT PUSH2 0x3913 JUMPI PUSH2 0x3913 PUSH2 0x5DEE JUMP JUMPDEST PUSH1 0x20 MUL PUSH1 0x20 ADD ADD MLOAD DUP10 PUSH2 0x1A0 ADD MLOAD PUSH2 0x392B SWAP2 SWAP1 PUSH2 0x5D8F JUMP JUMPDEST PUSH2 0x1C0 DUP11 ADD MSTORE POP PUSH2 0x4225 SWAP2 POP POP JUMP JUMPDEST DUP6 MLOAD PUSH1 0x7 EQ ISZERO PUSH2 0x60 JUMPI PUSH2 0x395E DUP7 PUSH1 0x80 ADD MLOAD PUSH1 0x1 DUP2 MLOAD DUP2 LT PUSH2 0x9C5 JUMPI PUSH2 0x9C5 PUSH2 0x5DEE JUMP JUMPDEST ISZERO PUSH2 0x3E4A JUMPI PUSH1 0x40 MLOAD PUSH4 0x70A08231 PUSH1 0xE0 SHL DUP2 MSTORE ADDRESS PUSH1 0x4 DUP3 ADD MSTORE PUSH1 0x1 PUSH1 0x1 PUSH1 0xA0 SHL SUB DUP6 AND SWAP1 PUSH4 0x70A08231 SWAP1 PUSH1 0x24 ADD PUSH1 0x20 PUSH1 0x40 MLOAD DUP1 DUP4 SUB DUP2 DUP7 DUP1 EXTCODESIZE ISZERO DUP1 ISZERO PUSH2 0x39A2 JUMPI PUSH1 0x0 DUP1 REVERT JUMPDEST POP GAS STATICCALL ISZERO DUP1 ISZERO PUSH2 0x39B6 JUMPI RETURNDATASIZE PUSH1 0x0 DUP1 RETURNDATACOPY RETURNDATASIZE PUSH1 0x0 REVERT JUMPDEST POP POP POP POP PUSH1 0x40 MLOAD RETURNDATASIZE PUSH1 0x1F NOT PUSH1 0x1F DUP3 ADD AND DUP3 ADD DUP1 PUSH1 0x40 MSTORE POP DUP2 ADD SWAP1 PUSH2 0x39DA SWAP2 SWAP1 PUSH2 0x599C JUMP JUMPDEST PUSH2 0x160 DUP8 ADD MSTORE PUSH1 0x80 DUP7 ADD MLOAD DUP1 MLOAD PUSH1 0x0 SWAP2 DUP3 SWAP2 DUP3 SWAP1 PUSH2 0x39FA JUMPI PUSH2 0x39FA PUSH2 0x5DEE JUMP JUMPDEST PUSH1 0x20 MUL PUSH1 0x20 ADD ADD MLOAD PUSH1 0x1 PUSH1 0x1 PUSH1 0xA0 SHL SUB AND PUSH4 0x11B3D5E7 DUP10 PUSH1 0xE0 ADD MLOAD DUP11 PUSH1 0xA0 ADD MLOAD DUP10 PUSH1 0x40 MLOAD DUP5 PUSH4 0xFFFFFFFF AND PUSH1 0xE0 SHL DUP2 MSTORE PUSH1 0x4 ADD PUSH2 0x3A39 SWAP4 SWAP3 SWAP2 SWAP1 PUSH2 0x5BBB JUMP JUMPDEST PUSH1 0x40 DUP1 MLOAD DUP1 DUP4 SUB DUP2 PUSH1 0x0 DUP8 DUP1 EXTCODESIZE ISZERO DUP1 ISZERO PUSH2 0x3A52 JUMPI PUSH1 0x0 DUP1 REVERT JUMPDEST POP GAS CALL ISZERO DUP1 ISZERO PUSH2 0x3A66 JUMPI RETURNDATASIZE PUSH1 0x0 DUP1 RETURNDATACOPY RETURNDATASIZE PUSH1 0x0 REVERT JUMPDEST POP POP POP POP PUSH1 0x40 MLOAD RETURNDATASIZE PUSH1 0x1F NOT PUSH1 0x1F DUP3 ADD AND DUP3 ADD DUP1 PUSH1 0x40 MSTORE POP DUP2 ADD SWAP1 PUSH2 0x3A8A SWAP2 SWAP1 PUSH2 0x5B20 JUMP JUMPDEST SWAP2 POP SWAP2 POP DUP2 PUSH1 0x0 EQ PUSH2 0x3ADE JUMPI PUSH1 0x40 MLOAD PUSH3 0x461BCD PUSH1 0xE5 SHL DUP2 MSTORE PUSH1 0x20 PUSH1 0x4 DUP3 ADD MSTORE PUSH1 0x1A PUSH1 0x24 DUP3 ADD MSTORE PUSH32 0x372E312D6C6971756964617465426F72726F77206572726F7220000000000000 PUSH1 0x44 DUP3 ADD MSTORE PUSH1 0x64 ADD PUSH2 0x152 JUMP JUMPDEST PUSH1 0x40 MLOAD PUSH4 0x70A08231 PUSH1 0xE0 SHL DUP2 MSTORE ADDRESS PUSH1 0x4 DUP3 ADD MSTORE PUSH1 0x1 PUSH1 0x1 PUSH1 0xA0 SHL SUB DUP8 AND SWAP1 PUSH4 0x70A08231 SWAP1 PUSH1 0x24 ADD PUSH1 0x20 PUSH1 0x40 MLOAD DUP1 DUP4 SUB DUP2 DUP7 DUP1 EXTCODESIZE ISZERO DUP1 ISZERO PUSH2 0x3B1D JUMPI PUSH1 0x0 DUP1 REVERT JUMPDEST POP GAS STATICCALL ISZERO DUP1 ISZERO PUSH2 0x3B31 JUMPI RETURNDATASIZE PUSH1 0x0 DUP1 RETURNDATACOPY RETURNDATASIZE PUSH1 0x0 REVERT JUMPDEST POP POP POP POP PUSH1 0x40 MLOAD RETURNDATASIZE PUSH1 0x1F NOT PUSH1 0x1F DUP3 ADD AND DUP3 ADD DUP1 PUSH1 0x40 MSTORE POP DUP2 ADD SWAP1 PUSH2 0x3B55 SWAP2 SWAP1 PUSH2 0x599C JUMP JUMPDEST PUSH2 0x180 DUP10 ADD MSTORE PUSH2 0x100 DUP9 ADD MLOAD PUSH2 0x120 DUP10 ADD MLOAD PUSH2 0x3B71 SWAP2 SWAP1 PUSH2 0x5D8F JUMP JUMPDEST PUSH2 0x140 DUP10 ADD DUP2 SWAP1 MSTORE PUSH2 0x3BC5 JUMPI PUSH1 0x40 MLOAD PUSH3 0x461BCD PUSH1 0xE5 SHL DUP2 MSTORE PUSH1 0x20 PUSH1 0x4 DUP3 ADD DUP2 SWAP1 MSTORE PUSH1 0x24 DUP3 ADD MSTORE PUSH32 0x372E312D7365697A65642076746F6B656E20616D6F756E74206973207A65726F PUSH1 0x44 DUP3 ADD MSTORE PUSH1 0x64 ADD PUSH2 0x152 JUMP JUMPDEST SELFBALANCE PUSH2 0x160 DUP10 ADD MSTORE PUSH1 0x80 DUP9 ADD MLOAD DUP1 MLOAD PUSH1 0x1 SWAP1 DUP2 LT PUSH2 0x3BE4 JUMPI PUSH2 0x3BE4 PUSH2 0x5DEE JUMP JUMPDEST PUSH1 0x20 MUL PUSH1 0x20 ADD ADD MLOAD PUSH1 0x1 PUSH1 0x1 PUSH1 0xA0 SHL SUB AND PUSH4 0xDB006A75 DUP10 PUSH2 0x140 ADD MLOAD PUSH1 0x40 MLOAD DUP3 PUSH4 0xFFFFFFFF AND PUSH1 0xE0 SHL DUP2 MSTORE PUSH1 0x4 ADD PUSH2 0x3C1E SWAP2 DUP2 MSTORE PUSH1 0x20 ADD SWAP1 JUMP JUMPDEST PUSH1 0x20 PUSH1 0x40 MLOAD DUP1 DUP4 SUB DUP2 PUSH1 0x0 DUP8 DUP1 EXTCODESIZE ISZERO DUP1 ISZERO PUSH2 0x3C38 JUMPI PUSH1 0x0 DUP1 REVERT JUMPDEST POP GAS CALL ISZERO DUP1 ISZERO PUSH2 0x3C4C JUMPI RETURNDATASIZE PUSH1 0x0 DUP1 RETURNDATACOPY RETURNDATASIZE PUSH1 0x0 REVERT JUMPDEST POP POP POP POP PUSH1 0x40 MLOAD RETURNDATASIZE PUSH1 0x1F NOT PUSH1 0x1F DUP3 ADD AND DUP3 ADD DUP1 PUSH1 0x40 MSTORE POP DUP2 ADD SWAP1 PUSH2 0x3C70 SWAP2 SWAP1 PUSH2 0x599C JUMP JUMPDEST ISZERO PUSH2 0x3CB0 JUMPI PUSH1 0x40 MLOAD PUSH3 0x461BCD PUSH1 0xE5 SHL DUP2 MSTORE PUSH1 0x20 PUSH1 0x4 DUP3 ADD MSTORE PUSH1 0x10 PUSH1 0x24 DUP3 ADD MSTORE PUSH16 0x1B971896B932B232B2B69032B93937B9 PUSH1 0x81 SHL PUSH1 0x44 DUP3 ADD MSTORE PUSH1 0x64 ADD PUSH2 0x152 JUMP JUMPDEST SELFBALANCE PUSH2 0x180 DUP10 ADD DUP2 SWAP1 MSTORE PUSH2 0x160 DUP10 ADD MLOAD PUSH2 0x3CC8 SWAP2 PUSH2 0x5D8F JUMP JUMPDEST DUP9 PUSH2 0x1A0 ADD DUP2 DUP2 MSTORE POP POP PUSH20 0xBB4CDB9CBD36B01BD1CBAEBF2DE08D9173BC095C PUSH1 0x1 PUSH1 0x1 PUSH1 0xA0 SHL SUB AND PUSH4 0xD0E30DB0 DUP10 PUSH2 0x1A0 ADD MLOAD PUSH1 0x40 MLOAD DUP3 PUSH4 0xFFFFFFFF AND PUSH1 0xE0 SHL DUP2 MSTORE PUSH1 0x4 ADD PUSH1 0x0 PUSH1 0x40 MLOAD DUP1 DUP4 SUB DUP2 DUP6 DUP9 DUP1 EXTCODESIZE ISZERO DUP1 ISZERO PUSH2 0x3D26 JUMPI PUSH1 0x0 DUP1 REVERT JUMPDEST POP GAS CALL ISZERO DUP1 ISZERO PUSH2 0x3D3A JUMPI RETURNDATASIZE PUSH1 0x0 DUP1 RETURNDATACOPY RETURNDATASIZE PUSH1 0x0 REVERT JUMPDEST POP POP POP POP POP PUSH1 0x0 DUP9 PUSH1 0xA0 ADD MLOAD DUP3 DUP11 PUSH1 0xC0 ADD MLOAD PUSH2 0x3D56 SWAP2 SWAP1 PUSH2 0x5D36 JUMP JUMPDEST PUSH2 0x3D60 SWAP2 SWAP1 PUSH2 0x5D8F JUMP JUMPDEST SWAP1 POP PUSH2 0x3D71 DUP2 DUP11 PUSH1 0x40 ADD MLOAD ADDRESS PUSH2 0x4D7D JUMP JUMPDEST SWAP4 POP DUP4 PUSH1 0x0 DUP2 MLOAD DUP2 LT PUSH2 0x3D86 JUMPI PUSH2 0x3D86 PUSH2 0x5DEE JUMP JUMPDEST PUSH1 0x20 MUL PUSH1 0x20 ADD ADD MLOAD DUP10 PUSH2 0x1A0 ADD MLOAD GT PUSH2 0x3DD0 JUMPI PUSH1 0x40 MLOAD PUSH3 0x461BCD PUSH1 0xE5 SHL DUP2 MSTORE PUSH1 0x20 PUSH1 0x4 DUP3 ADD MSTORE PUSH1 0xC PUSH1 0x24 DUP3 ADD MSTORE PUSH12 0x372E312D6E6F206578747261 PUSH1 0xA0 SHL PUSH1 0x44 DUP3 ADD MSTORE PUSH1 0x64 ADD PUSH2 0x152 JUMP JUMPDEST PUSH1 0x0 DUP5 PUSH1 0x0 DUP2 MLOAD DUP2 LT PUSH2 0x3DE5 JUMPI PUSH2 0x3DE5 PUSH2 0x5DEE JUMP JUMPDEST PUSH1 0x20 MUL PUSH1 0x20 ADD ADD MLOAD DUP11 PUSH2 0x1A0 ADD MLOAD PUSH2 0x3DFD SWAP2 SWAP1 PUSH2 0x5D8F JUMP JUMPDEST SWAP1 POP PUSH2 0x3E0E DUP2 DUP12 PUSH1 0x60 ADD MLOAD ADDRESS PUSH2 0x4C2D JUMP JUMPDEST SWAP5 POP DUP5 PUSH1 0x1 DUP7 MLOAD PUSH2 0x3E1F SWAP2 SWAP1 PUSH2 0x5D8F JUMP JUMPDEST DUP2 MLOAD DUP2 LT PUSH2 0x3E2F JUMPI PUSH2 0x3E2F PUSH2 0x5DEE JUMP JUMPDEST PUSH1 0x20 MUL PUSH1 0x20 ADD ADD MLOAD DUP11 PUSH2 0x1C0 ADD DUP2 DUP2 MSTORE POP POP POP POP POP POP PUSH2 0x4225 JUMP JUMPDEST PUSH1 0x40 MLOAD PUSH4 0x70A08231 PUSH1 0xE0 SHL DUP2 MSTORE ADDRESS PUSH1 0x4 DUP3 ADD MSTORE PUSH1 0x1 PUSH1 0x1 PUSH1 0xA0 SHL SUB DUP6 AND SWAP1 PUSH4 0x70A08231 SWAP1 PUSH1 0x24 ADD PUSH1 0x20 PUSH1 0x40 MLOAD DUP1 DUP4 SUB DUP2 DUP7 DUP1 EXTCODESIZE ISZERO DUP1 ISZERO PUSH2 0x3E89 JUMPI PUSH1 0x0 DUP1 REVERT JUMPDEST POP GAS STATICCALL ISZERO DUP1 ISZERO PUSH2 0x3E9D JUMPI RETURNDATASIZE PUSH1 0x0 DUP1 RETURNDATACOPY RETURNDATASIZE PUSH1 0x0 REVERT JUMPDEST POP POP POP POP PUSH1 0x40 MLOAD RETURNDATASIZE PUSH1 0x1F NOT PUSH1 0x1F DUP3 ADD AND DUP3 ADD DUP1 PUSH1 0x40 MSTORE POP DUP2 ADD SWAP1 PUSH2 0x3EC1 SWAP2 SWAP1 PUSH2 0x599C JUMP JUMPDEST PUSH2 0x160 DUP8 ADD MSTORE PUSH1 0x80 DUP7 ADD MLOAD DUP1 MLOAD PUSH1 0x0 SWAP2 DUP3 SWAP2 DUP3 SWAP1 PUSH2 0x3EE1 JUMPI PUSH2 0x3EE1 PUSH2 0x5DEE JUMP JUMPDEST PUSH1 0x20 MUL PUSH1 0x20 ADD ADD MLOAD PUSH1 0x1 PUSH1 0x1 PUSH1 0xA0 SHL SUB AND PUSH4 0x11B3D5E7 DUP10 PUSH1 0xE0 ADD MLOAD DUP11 PUSH1 0xA0 ADD MLOAD DUP10 PUSH1 0x40 MLOAD DUP5 PUSH4 0xFFFFFFFF AND PUSH1 0xE0 SHL DUP2 MSTORE PUSH1 0x4 ADD PUSH2 0x3F20 SWAP4 SWAP3 SWAP2 SWAP1 PUSH2 0x5BBB JUMP JUMPDEST PUSH1 0x40 DUP1 MLOAD DUP1 DUP4 SUB DUP2 PUSH1 0x0 DUP8 DUP1 EXTCODESIZE ISZERO DUP1 ISZERO PUSH2 0x3F39 JUMPI PUSH1 0x0 DUP1 REVERT JUMPDEST POP GAS CALL ISZERO DUP1 ISZERO PUSH2 0x3F4D JUMPI RETURNDATASIZE PUSH1 0x0 DUP1 RETURNDATACOPY RETURNDATASIZE PUSH1 0x0 REVERT JUMPDEST POP POP POP POP PUSH1 0x40 MLOAD RETURNDATASIZE PUSH1 0x1F NOT PUSH1 0x1F DUP3 ADD AND DUP3 ADD DUP1 PUSH1 0x40 MSTORE POP DUP2 ADD SWAP1 PUSH2 0x3F71 SWAP2 SWAP1 PUSH2 0x5B20 JUMP JUMPDEST SWAP2 POP SWAP2 POP DUP2 PUSH1 0x0 EQ PUSH2 0x3FC5 JUMPI PUSH1 0x40 MLOAD PUSH3 0x461BCD PUSH1 0xE5 SHL DUP2 MSTORE PUSH1 0x20 PUSH1 0x4 DUP3 ADD MSTORE PUSH1 0x19 PUSH1 0x24 DUP3 ADD MSTORE PUSH32 0x372E322D6C6971756964617465426F72726F77206572726F7200000000000000 PUSH1 0x44 DUP3 ADD MSTORE PUSH1 0x64 ADD PUSH2 0x152 JUMP JUMPDEST PUSH1 0x40 MLOAD PUSH4 0x70A08231 PUSH1 0xE0 SHL DUP2 MSTORE ADDRESS PUSH1 0x4 DUP3 ADD MSTORE PUSH1 0x1 PUSH1 0x1 PUSH1 0xA0 SHL SUB DUP8 AND SWAP1 PUSH4 0x70A08231 SWAP1 PUSH1 0x24 ADD PUSH1 0x20 PUSH1 0x40 MLOAD DUP1 DUP4 SUB DUP2 DUP7 DUP1 EXTCODESIZE ISZERO DUP1 ISZERO PUSH2 0x4004 JUMPI PUSH1 0x0 DUP1 REVERT JUMPDEST POP GAS STATICCALL ISZERO DUP1 ISZERO PUSH2 0x4018 JUMPI RETURNDATASIZE PUSH1 0x0 DUP1 RETURNDATACOPY RETURNDATASIZE PUSH1 0x0 REVERT JUMPDEST POP POP POP POP PUSH1 0x40 MLOAD RETURNDATASIZE PUSH1 0x1F NOT PUSH1 0x1F DUP3 ADD AND DUP3 ADD DUP1 PUSH1 0x40 MSTORE POP DUP2 ADD SWAP1 PUSH2 0x403C SWAP2 SWAP1 PUSH2 0x599C JUMP JUMPDEST PUSH2 0x180 DUP10 ADD MSTORE PUSH2 0x100 DUP9 ADD MLOAD PUSH2 0x120 DUP10 ADD MLOAD PUSH2 0x4058 SWAP2 SWAP1 PUSH2 0x5D8F JUMP JUMPDEST PUSH2 0x140 DUP10 ADD DUP2 SWAP1 MSTORE PUSH2 0x40AC JUMPI PUSH1 0x40 MLOAD PUSH3 0x461BCD PUSH1 0xE5 SHL DUP2 MSTORE PUSH1 0x20 PUSH1 0x4 DUP3 ADD DUP2 SWAP1 MSTORE PUSH1 0x24 DUP3 ADD MSTORE PUSH32 0x372E322D7365697A65642076746F6B656E20616D6F756E74206973207A65726F PUSH1 0x44 DUP3 ADD MSTORE PUSH1 0x64 ADD PUSH2 0x152 JUMP JUMPDEST SELFBALANCE PUSH2 0x160 DUP10 ADD MSTORE PUSH2 0x140 DUP9 ADD MLOAD PUSH1 0x40 MLOAD PUSH4 0xDB006A75 PUSH1 0xE0 SHL DUP2 MSTORE PUSH1 0x4 DUP2 ADD SWAP2 SWAP1 SWAP2 MSTORE PUSH1 0x1 PUSH1 0x1 PUSH1 0xA0 SHL SUB DUP8 AND SWAP1 PUSH4 0xDB006A75 SWAP1 PUSH1 0x24 ADD PUSH1 0x20 PUSH1 0x40 MLOAD DUP1 DUP4 SUB DUP2 PUSH1 0x0 DUP8 DUP1 EXTCODESIZE ISZERO DUP1 ISZERO PUSH2 0x40FC JUMPI PUSH1 0x0 DUP1 REVERT JUMPDEST POP GAS CALL ISZERO DUP1 ISZERO PUSH2 0x4110 JUMPI RETURNDATASIZE PUSH1 0x0 DUP1 RETURNDATACOPY RETURNDATASIZE PUSH1 0x0 REVERT JUMPDEST POP POP POP POP PUSH1 0x40 MLOAD RETURNDATASIZE PUSH1 0x1F NOT PUSH1 0x1F DUP3 ADD AND DUP3 ADD DUP1 PUSH1 0x40 MSTORE POP DUP2 ADD SWAP1 PUSH2 0x4134 SWAP2 SWAP1 PUSH2 0x599C JUMP JUMPDEST ISZERO PUSH2 0x4174 JUMPI PUSH1 0x40 MLOAD PUSH3 0x461BCD PUSH1 0xE5 SHL DUP2 MSTORE PUSH1 0x20 PUSH1 0x4 DUP3 ADD MSTORE PUSH1 0x10 PUSH1 0x24 DUP3 ADD MSTORE PUSH16 0x1B971916B932B232B2B69032B93937B9 PUSH1 0x81 SHL PUSH1 0x44 DUP3 ADD MSTORE PUSH1 0x64 ADD PUSH2 0x152 JUMP JUMPDEST SELFBALANCE PUSH2 0x180 DUP10 ADD DUP2 SWAP1 MSTORE PUSH2 0x160 DUP10 ADD MLOAD PUSH2 0x418C SWAP2 PUSH2 0x5D8F JUMP JUMPDEST PUSH2 0x1A0 DUP10 ADD MSTORE PUSH1 0xA0 DUP9 ADD MLOAD PUSH1 0xC0 DUP10 ADD MLOAD PUSH1 0x0 SWAP2 SWAP1 PUSH2 0x41AB SWAP1 DUP5 SWAP1 PUSH2 0x5D36 JUMP JUMPDEST PUSH2 0x41B5 SWAP2 SWAP1 PUSH2 0x5D8F JUMP JUMPDEST SWAP1 POP PUSH2 0x41C6 DUP2 DUP11 PUSH1 0x40 ADD MLOAD ADDRESS PUSH2 0x4D7D JUMP JUMPDEST SWAP4 POP DUP4 PUSH1 0x0 DUP2 MLOAD DUP2 LT PUSH2 0x41DB JUMPI PUSH2 0x41DB PUSH2 0x5DEE JUMP JUMPDEST PUSH1 0x20 MUL PUSH1 0x20 ADD ADD MLOAD DUP10 PUSH2 0x1A0 ADD MLOAD GT PUSH2 0x3DD0 JUMPI PUSH1 0x40 MLOAD PUSH3 0x461BCD PUSH1 0xE5 SHL DUP2 MSTORE PUSH1 0x20 PUSH1 0x4 DUP3 ADD MSTORE PUSH1 0xC PUSH1 0x24 DUP3 ADD MSTORE PUSH12 0x372E322D6E6F206578747261 PUSH1 0xA0 SHL PUSH1 0x44 DUP3 ADD MSTORE PUSH1 0x64 ADD PUSH2 0x152 JUMP JUMPDEST PUSH1 0x20 DUP7 ADD MLOAD PUSH1 0xC0 DUP8 ADD MLOAD PUSH1 0x40 MLOAD PUSH4 0xA9059CBB PUSH1 0xE0 SHL DUP2 MSTORE PUSH1 0x1 PUSH1 0x1 PUSH1 0xA0 SHL SUB DUP7 AND SWAP3 PUSH4 0xA9059CBB SWAP3 PUSH2 0x426D SWAP3 PUSH1 0x4 ADD PUSH1 0x1 PUSH1 0x1 PUSH1 0xA0 SHL SUB SWAP3 SWAP1 SWAP3 AND DUP3 MSTORE PUSH1 0x20 DUP3 ADD MSTORE PUSH1 0x40 ADD SWAP1 JUMP JUMPDEST PUSH1 0x20 PUSH1 0x40 MLOAD DUP1 DUP4 SUB DUP2 PUSH1 0x0 DUP8 DUP1 EXTCODESIZE ISZERO DUP1 ISZERO PUSH2 0x4287 JUMPI PUSH1 0x0 DUP1 REVERT JUMPDEST POP GAS CALL ISZERO DUP1 ISZERO PUSH2 0x429B JUMPI RETURNDATASIZE PUSH1 0x0 DUP1 RETURNDATACOPY RETURNDATASIZE PUSH1 0x0 REVERT JUMPDEST POP POP POP POP PUSH1 0x40 MLOAD RETURNDATASIZE PUSH1 0x1F NOT PUSH1 0x1F DUP3 ADD AND DUP3 ADD DUP1 PUSH1 0x40 MSTORE POP DUP2 ADD SWAP1 PUSH2 0x42BF SWAP2 SWAP1 PUSH2 0x592A JUMP JUMPDEST POP DUP6 MLOAD PUSH1 0xA0 DUP1 DUP9 ADD MLOAD PUSH1 0xC0 DUP1 DUP11 ADD MLOAD PUSH2 0x1A0 DUP12 ADD MLOAD PUSH2 0x1C0 DUP13 ADD MLOAD PUSH1 0x40 DUP1 MLOAD SWAP8 DUP9 MSTORE PUSH1 0x1 PUSH1 0x1 PUSH1 0xA0 SHL SUB DUP1 DUP13 AND PUSH1 0x20 DUP11 ADD MSTORE SWAP1 DUP9 ADD SWAP6 SWAP1 SWAP6 MSTORE SWAP4 DUP9 AND PUSH1 0x60 DUP8 ADD MSTORE PUSH1 0x80 DUP7 ADD SWAP2 SWAP1 SWAP2 MSTORE SWAP3 DUP5 ADD SWAP3 SWAP1 SWAP3 MSTORE SWAP1 DUP3 ADD MSTORE PUSH32 0xEE80F069D389B1636BFE8A115FF1D8AD940B394B4D16BB19C8503003D14DD5B4 SWAP1 PUSH1 0xE0 ADD PUSH1 0x40 MLOAD DUP1 SWAP2 SUB SWAP1 LOG1 POP POP POP POP POP POP POP POP POP POP POP JUMP JUMPDEST PUSH1 0x1 DUP10 LT ISZERO DUP1 ISZERO PUSH2 0x435F JUMPI POP PUSH1 0x7 DUP10 GT ISZERO JUMPDEST PUSH2 0x4396 JUMPI PUSH1 0x40 MLOAD PUSH3 0x461BCD PUSH1 0xE5 SHL DUP2 MSTORE PUSH1 0x20 PUSH1 0x4 DUP3 ADD MSTORE PUSH1 0x8 PUSH1 0x24 DUP3 ADD MSTORE PUSH8 0x77726F6E67207369 PUSH1 0xC0 SHL PUSH1 0x44 DUP3 ADD MSTORE PUSH1 0x64 ADD PUSH2 0x152 JUMP JUMPDEST PUSH1 0x1 PUSH1 0x1 PUSH1 0xA0 SHL SUB DUP9 AND PUSH2 0x43D4 JUMPI PUSH1 0x40 MLOAD PUSH3 0x461BCD PUSH1 0xE5 SHL DUP2 MSTORE PUSH1 0x20 PUSH1 0x4 DUP3 ADD MSTORE PUSH1 0x5 PUSH1 0x24 DUP3 ADD MSTORE PUSH5 0x10B830B4B9 PUSH1 0xD9 SHL PUSH1 0x44 DUP3 ADD MSTORE PUSH1 0x64 ADD PUSH2 0x152 JUMP JUMPDEST PUSH1 0x0 PUSH20 0xFD36E2C2A6789DB23113685031D7F16329158384 PUSH4 0x5EC88C79 DUP6 DUP6 PUSH1 0x4 DUP2 DUP2 LT PUSH2 0x4403 JUMPI PUSH2 0x4403 PUSH2 0x5DEE JUMP JUMPDEST SWAP1 POP PUSH1 0x20 MUL ADD PUSH1 0x20 DUP2 ADD SWAP1 PUSH2 0x4418 SWAP2 SWAP1 PUSH2 0x582E JUMP JUMPDEST PUSH1 0x40 MLOAD PUSH1 0x1 PUSH1 0x1 PUSH1 0xE0 SHL SUB NOT PUSH1 0xE0 DUP5 SWAP1 SHL AND DUP2 MSTORE PUSH1 0x1 PUSH1 0x1 PUSH1 0xA0 SHL SUB SWAP1 SWAP2 AND PUSH1 0x4 DUP3 ADD MSTORE PUSH1 0x24 ADD PUSH1 0x60 PUSH1 0x40 MLOAD DUP1 DUP4 SUB DUP2 DUP7 DUP1 EXTCODESIZE ISZERO DUP1 ISZERO PUSH2 0x4457 JUMPI PUSH1 0x0 DUP1 REVERT JUMPDEST POP GAS STATICCALL ISZERO DUP1 ISZERO PUSH2 0x446B JUMPI RETURNDATASIZE PUSH1 0x0 DUP1 RETURNDATACOPY RETURNDATASIZE PUSH1 0x0 REVERT JUMPDEST POP POP POP POP PUSH1 0x40 MLOAD RETURNDATASIZE PUSH1 0x1F NOT PUSH1 0x1F DUP3 ADD AND DUP3 ADD DUP1 PUSH1 0x40 MSTORE POP DUP2 ADD SWAP1 PUSH2 0x448F SWAP2 SWAP1 PUSH2 0x5B44 JUMP JUMPDEST SWAP3 POP POP POP PUSH1 0x0 DUP2 GT PUSH2 0x44ED JUMPI PUSH1 0x40 MLOAD PUSH3 0x461BCD PUSH1 0xE5 SHL DUP2 MSTORE PUSH1 0x20 PUSH1 0x4 DUP3 ADD MSTORE PUSH1 0x21 PUSH1 0x24 DUP3 ADD MSTORE PUSH32 0x73686F727466616C6C206D7573742067726561746572207468616E207A657220 PUSH1 0x44 DUP3 ADD MSTORE PUSH1 0x3 PUSH1 0xFC SHL PUSH1 0x64 DUP3 ADD MSTORE PUSH1 0x84 ADD PUSH2 0x152 JUMP JUMPDEST PUSH32 0x468D929ADD1FBBFC80E5DFDE344A58444D6D5BA8EC3D4B12D8A02A6913E47716 DUP11 DUP11 DUP11 DUP11 DUP11 DUP11 DUP11 DUP11 DUP11 PUSH1 0x40 MLOAD PUSH2 0x452C SWAP10 SWAP9 SWAP8 SWAP7 SWAP6 SWAP5 SWAP4 SWAP3 SWAP2 SWAP1 PUSH2 0x5C59 JUMP JUMPDEST PUSH1 0x40 MLOAD DUP1 SWAP2 SUB SWAP1 LOG1 PUSH1 0x1 PUSH1 0x0 DUP6 DUP6 PUSH1 0x3 DUP2 DUP2 LT PUSH2 0x454B JUMPI PUSH2 0x454B PUSH2 0x5DEE JUMP JUMPDEST SWAP1 POP PUSH1 0x20 MUL ADD PUSH1 0x20 DUP2 ADD SWAP1 PUSH2 0x4560 SWAP2 SWAP1 PUSH2 0x582E JUMP JUMPDEST PUSH1 0x1 PUSH1 0x1 PUSH1 0xA0 SHL SUB AND PUSH1 0x1 PUSH1 0x1 PUSH1 0xA0 SHL SUB AND DUP2 MSTORE PUSH1 0x20 ADD SWAP1 DUP2 MSTORE PUSH1 0x20 ADD PUSH1 0x0 KECCAK256 PUSH1 0x0 DUP6 DUP6 PUSH1 0x0 DUP2 DUP2 LT PUSH2 0x4595 JUMPI PUSH2 0x4595 PUSH2 0x5DEE JUMP JUMPDEST SWAP1 POP PUSH1 0x20 MUL ADD PUSH1 0x20 DUP2 ADD SWAP1 PUSH2 0x45AA SWAP2 SWAP1 PUSH2 0x582E JUMP JUMPDEST PUSH1 0x1 PUSH1 0x1 PUSH1 0xA0 SHL SUB AND DUP2 MSTORE PUSH1 0x20 DUP2 ADD SWAP2 SWAP1 SWAP2 MSTORE PUSH1 0x40 ADD PUSH1 0x0 KECCAK256 SLOAD PUSH1 0xFF AND PUSH2 0x474B JUMPI DUP4 DUP4 PUSH1 0x3 DUP2 DUP2 LT PUSH2 0x45DE JUMPI PUSH2 0x45DE PUSH2 0x5DEE JUMP JUMPDEST SWAP1 POP PUSH1 0x20 MUL ADD PUSH1 0x20 DUP2 ADD SWAP1 PUSH2 0x45F3 SWAP2 SWAP1 PUSH2 0x582E JUMP JUMPDEST PUSH1 0x1 PUSH1 0x1 PUSH1 0xA0 SHL SUB AND PUSH4 0x95EA7B3 DUP6 DUP6 PUSH1 0x0 DUP2 DUP2 LT PUSH2 0x4614 JUMPI PUSH2 0x4614 PUSH2 0x5DEE JUMP JUMPDEST SWAP1 POP PUSH1 0x20 MUL ADD PUSH1 0x20 DUP2 ADD SWAP1 PUSH2 0x4629 SWAP2 SWAP1 PUSH2 0x582E JUMP JUMPDEST PUSH1 0x40 MLOAD PUSH1 0x1 PUSH1 0x1 PUSH1 0xE0 SHL SUB NOT PUSH1 0xE0 DUP5 SWAP1 SHL AND DUP2 MSTORE PUSH1 0x1 PUSH1 0x1 PUSH1 0xA0 SHL SUB SWAP1 SWAP2 AND PUSH1 0x4 DUP3 ADD MSTORE PUSH1 0x0 NOT PUSH1 0x24 DUP3 ADD MSTORE PUSH1 0x44 ADD PUSH1 0x20 PUSH1 0x40 MLOAD DUP1 DUP4 SUB DUP2 PUSH1 0x0 DUP8 DUP1 EXTCODESIZE ISZERO DUP1 ISZERO PUSH2 0x4672 JUMPI PUSH1 0x0 DUP1 REVERT JUMPDEST POP GAS CALL ISZERO DUP1 ISZERO PUSH2 0x4686 JUMPI RETURNDATASIZE PUSH1 0x0 DUP1 RETURNDATACOPY RETURNDATASIZE PUSH1 0x0 REVERT JUMPDEST POP POP POP POP PUSH1 0x40 MLOAD RETURNDATASIZE PUSH1 0x1F NOT PUSH1 0x1F DUP3 ADD AND DUP3 ADD DUP1 PUSH1 0x40 MSTORE POP DUP2 ADD SWAP1 PUSH2 0x46AA SWAP2 SWAP1 PUSH2 0x592A JUMP JUMPDEST POP PUSH1 0x1 DUP1 PUSH1 0x0 DUP7 DUP7 PUSH1 0x3 DUP2 DUP2 LT PUSH2 0x46C3 JUMPI PUSH2 0x46C3 PUSH2 0x5DEE JUMP JUMPDEST SWAP1 POP PUSH1 0x20 MUL ADD PUSH1 0x20 DUP2 ADD SWAP1 PUSH2 0x46D8 SWAP2 SWAP1 PUSH2 0x582E JUMP JUMPDEST PUSH1 0x1 PUSH1 0x1 PUSH1 0xA0 SHL SUB AND PUSH1 0x1 PUSH1 0x1 PUSH1 0xA0 SHL SUB AND DUP2 MSTORE PUSH1 0x20 ADD SWAP1 DUP2 MSTORE PUSH1 0x20 ADD PUSH1 0x0 KECCAK256 PUSH1 0x0 DUP7 DUP7 PUSH1 0x0 DUP2 DUP2 LT PUSH2 0x470D JUMPI PUSH2 0x470D PUSH2 0x5DEE JUMP JUMPDEST SWAP1 POP PUSH1 0x20 MUL ADD PUSH1 0x20 DUP2 ADD SWAP1 PUSH2 0x4722 SWAP2 SWAP1 PUSH2 0x582E JUMP JUMPDEST PUSH1 0x1 PUSH1 0x1 PUSH1 0xA0 SHL SUB AND DUP2 MSTORE PUSH1 0x20 DUP2 ADD SWAP2 SWAP1 SWAP2 MSTORE PUSH1 0x40 ADD PUSH1 0x0 KECCAK256 DUP1 SLOAD PUSH1 0xFF NOT AND SWAP2 ISZERO ISZERO SWAP2 SWAP1 SWAP2 OR SWAP1 SSTORE JUMPDEST PUSH1 0x0 DUP10 PUSH1 0x1 PUSH1 0x1 PUSH1 0xA0 SHL SUB AND PUSH4 0xDFE1681 PUSH1 0x40 MLOAD DUP2 PUSH4 0xFFFFFFFF AND PUSH1 0xE0 SHL DUP2 MSTORE PUSH1 0x4 ADD PUSH1 0x20 PUSH1 0x40 MLOAD DUP1 DUP4 SUB DUP2 DUP7 DUP1 EXTCODESIZE ISZERO DUP1 ISZERO PUSH2 0x4786 JUMPI PUSH1 0x0 DUP1 REVERT JUMPDEST POP GAS STATICCALL ISZERO DUP1 ISZERO PUSH2 0x479A JUMPI RETURNDATASIZE PUSH1 0x0 DUP1 RETURNDATACOPY RETURNDATASIZE PUSH1 0x0 REVERT JUMPDEST POP POP POP POP PUSH1 0x40 MLOAD RETURNDATASIZE PUSH1 0x1F NOT PUSH1 0x1F DUP3 ADD AND DUP3 ADD DUP1 PUSH1 0x40 MSTORE POP DUP2 ADD SWAP1 PUSH2 0x47BE SWAP2 SWAP1 PUSH2 0x584B JUMP JUMPDEST SWAP1 POP PUSH1 0x0 DUP11 PUSH1 0x1 PUSH1 0x1 PUSH1 0xA0 SHL SUB AND PUSH4 0xD21220A7 PUSH1 0x40 MLOAD DUP2 PUSH4 0xFFFFFFFF AND PUSH1 0xE0 SHL DUP2 MSTORE PUSH1 0x4 ADD PUSH1 0x20 PUSH1 0x40 MLOAD DUP1 DUP4 SUB DUP2 DUP7 DUP1 EXTCODESIZE ISZERO DUP1 ISZERO PUSH2 0x47FB JUMPI PUSH1 0x0 DUP1 REVERT JUMPDEST POP GAS STATICCALL ISZERO DUP1 ISZERO PUSH2 0x480F JUMPI RETURNDATASIZE PUSH1 0x0 DUP1 RETURNDATACOPY RETURNDATASIZE PUSH1 0x0 REVERT JUMPDEST POP POP POP POP PUSH1 0x40 MLOAD RETURNDATASIZE PUSH1 0x1F NOT PUSH1 0x1F DUP3 ADD AND DUP3 ADD DUP1 PUSH1 0x40 MSTORE POP DUP2 ADD SWAP1 PUSH2 0x4833 SWAP2 SWAP1 PUSH2 0x584B JUMP JUMPDEST SWAP1 POP PUSH1 0x0 DUP3 PUSH1 0x1 PUSH1 0x1 PUSH1 0xA0 SHL SUB AND DUP8 DUP8 PUSH1 0x3 DUP2 DUP2 LT PUSH2 0x4854 JUMPI PUSH2 0x4854 PUSH2 0x5DEE JUMP JUMPDEST SWAP1 POP PUSH1 0x20 MUL ADD PUSH1 0x20 DUP2 ADD SWAP1 PUSH2 0x4869 SWAP2 SWAP1 PUSH2 0x582E JUMP JUMPDEST PUSH1 0x1 PUSH1 0x1 PUSH1 0xA0 SHL SUB AND EQ PUSH2 0x487E JUMPI PUSH1 0x0 PUSH2 0x4880 JUMP JUMPDEST DUP5 JUMPDEST SWAP1 POP PUSH1 0x0 DUP3 PUSH1 0x1 PUSH1 0x1 PUSH1 0xA0 SHL SUB AND DUP9 DUP9 PUSH1 0x3 DUP2 DUP2 LT PUSH2 0x48A1 JUMPI PUSH2 0x48A1 PUSH2 0x5DEE JUMP JUMPDEST SWAP1 POP PUSH1 0x20 MUL ADD PUSH1 0x20 DUP2 ADD SWAP1 PUSH2 0x48B6 SWAP2 SWAP1 PUSH2 0x582E JUMP JUMPDEST PUSH1 0x1 PUSH1 0x1 PUSH1 0xA0 SHL SUB AND EQ PUSH2 0x48CB JUMPI PUSH1 0x0 PUSH2 0x48CD JUMP JUMPDEST DUP6 JUMPDEST SWAP1 POP PUSH1 0x0 DUP15 DUP15 DUP15 DUP15 DUP15 DUP15 DUP15 DUP15 DUP15 PUSH1 0x40 MLOAD PUSH1 0x20 ADD PUSH2 0x48F2 SWAP10 SWAP9 SWAP8 SWAP7 SWAP6 SWAP5 SWAP4 SWAP3 SWAP2 SWAP1 PUSH2 0x5C59 JUMP JUMPDEST PUSH1 0x40 DUP1 MLOAD PUSH1 0x1F NOT DUP2 DUP5 SUB ADD DUP2 MSTORE SWAP1 DUP3 SWAP1 MSTORE PUSH4 0x22C0D9F PUSH1 0xE0 SHL DUP3 MSTORE SWAP2 POP PUSH1 0x1 PUSH1 0x1 PUSH1 0xA0 SHL SUB DUP16 AND SWAP1 PUSH4 0x22C0D9F SWAP1 PUSH2 0x4934 SWAP1 DUP7 SWAP1 DUP7 SWAP1 ADDRESS SWAP1 DUP8 SWAP1 PUSH1 0x4 ADD PUSH2 0x5CC3 JUMP JUMPDEST PUSH1 0x0 PUSH1 0x40 MLOAD DUP1 DUP4 SUB DUP2 PUSH1 0x0 DUP8 DUP1 EXTCODESIZE ISZERO DUP1 ISZERO PUSH2 0x494E JUMPI PUSH1 0x0 DUP1 REVERT JUMPDEST POP GAS CALL ISZERO DUP1 ISZERO PUSH2 0x4962 JUMPI RETURNDATASIZE PUSH1 0x0 DUP1 RETURNDATACOPY RETURNDATASIZE PUSH1 0x0 REVERT JUMPDEST POP POP POP POP POP POP POP POP POP POP POP POP POP POP POP POP POP POP POP JUMP JUMPDEST PUSH1 0x0 SLOAD PUSH1 0x1 PUSH1 0x1 PUSH1 0xA0 SHL SUB AND CALLER EQ PUSH2 0x49A1 JUMPI PUSH1 0x40 MLOAD PUSH3 0x461BCD PUSH1 0xE5 SHL DUP2 MSTORE PUSH1 0x4 ADD PUSH2 0x152 SWAP1 PUSH2 0x5BDE JUMP JUMPDEST PUSH1 0x1 PUSH1 0x1 PUSH1 0xA0 SHL SUB DUP2 AND PUSH2 0x4A06 JUMPI PUSH1 0x40 MLOAD PUSH3 0x461BCD PUSH1 0xE5 SHL DUP2 MSTORE PUSH1 0x20 PUSH1 0x4 DUP3 ADD MSTORE PUSH1 0x26 PUSH1 0x24 DUP3 ADD MSTORE PUSH32 0x4F776E61626C653A206E6577206F776E657220697320746865207A65726F2061 PUSH1 0x44 DUP3 ADD MSTORE PUSH6 0x646472657373 PUSH1 0xD0 SHL PUSH1 0x64 DUP3 ADD MSTORE PUSH1 0x84 ADD PUSH2 0x152 JUMP JUMPDEST PUSH2 0x4A0F DUP2 PUSH2 0x4B67 JUMP JUMPDEST POP JUMP JUMPDEST PUSH1 0x0 SLOAD PUSH1 0x1 PUSH1 0x1 PUSH1 0xA0 SHL SUB AND CALLER EQ PUSH2 0x4A3C JUMPI PUSH1 0x40 MLOAD PUSH3 0x461BCD PUSH1 0xE5 SHL DUP2 MSTORE PUSH1 0x4 ADD PUSH2 0x152 SWAP1 PUSH2 0x5BDE JUMP JUMPDEST PUSH1 0x1 PUSH1 0x1 PUSH1 0xA0 SHL SUB DUP3 AND PUSH2 0x4A92 JUMPI PUSH1 0x40 MLOAD PUSH3 0x461BCD PUSH1 0xE5 SHL DUP2 MSTORE PUSH1 0x20 PUSH1 0x4 DUP3 ADD MSTORE PUSH1 0x18 PUSH1 0x24 DUP3 ADD MSTORE PUSH32 0x61646472657373206D757374206E6F74206265207A65726F0000000000000000 PUSH1 0x44 DUP3 ADD MSTORE PUSH1 0x64 ADD PUSH2 0x152 JUMP JUMPDEST PUSH1 0x0 DUP2 GT PUSH2 0x4AE2 JUMPI PUSH1 0x40 MLOAD PUSH3 0x461BCD PUSH1 0xE5 SHL DUP2 MSTORE PUSH1 0x20 PUSH1 0x4 DUP3 ADD MSTORE PUSH1 0x1C PUSH1 0x24 DUP3 ADD MSTORE PUSH32 0x616D6F756E74206D75737420626967676572207468616E207A65726F00000000 PUSH1 0x44 DUP3 ADD MSTORE PUSH1 0x64 ADD PUSH2 0x152 JUMP JUMPDEST PUSH1 0x40 MLOAD PUSH4 0xA9059CBB PUSH1 0xE0 SHL DUP2 MSTORE CALLER PUSH1 0x4 DUP3 ADD MSTORE PUSH1 0x24 DUP2 ADD DUP3 SWAP1 MSTORE PUSH1 0x1 PUSH1 0x1 PUSH1 0xA0 SHL SUB DUP4 AND SWAP1 PUSH4 0xA9059CBB SWAP1 PUSH1 0x44 ADD PUSH1 0x20 PUSH1 0x40 MLOAD DUP1 DUP4 SUB DUP2 PUSH1 0x0 DUP8 DUP1 EXTCODESIZE ISZERO DUP1 ISZERO PUSH2 0x4B2A JUMPI PUSH1 0x0 DUP1 REVERT JUMPDEST POP GAS CALL ISZERO DUP1 ISZERO PUSH2 0x4B3E JUMPI RETURNDATASIZE PUSH1 0x0 DUP1 RETURNDATACOPY RETURNDATASIZE PUSH1 0x0 REVERT JUMPDEST POP POP POP POP PUSH1 0x40 MLOAD RETURNDATASIZE PUSH1 0x1F NOT PUSH1 0x1F DUP3 ADD AND DUP3 ADD DUP1 PUSH1 0x40 MSTORE POP DUP2 ADD SWAP1 PUSH2 0x4B62 SWAP2 SWAP1 PUSH2 0x592A JUMP JUMPDEST POP POP POP JUMP JUMPDEST PUSH1 0x0 DUP1 SLOAD PUSH1 0x1 PUSH1 0x1 PUSH1 0xA0 SHL SUB DUP4 DUP2 AND PUSH1 0x1 PUSH1 0x1 PUSH1 0xA0 SHL SUB NOT DUP4 AND DUP2 OR DUP5 SSTORE PUSH1 0x40 MLOAD SWAP2 SWAP1 SWAP3 AND SWAP3 DUP4 SWAP2 PUSH32 0x8BE0079C531659141344CD1FD0A4F28419497F9722A3DAAFE3B4186F6B6457E0 SWAP2 SWAP1 LOG3 POP POP JUMP JUMPDEST PUSH1 0x0 PUSH1 0x1 PUSH1 0x1 PUSH1 0xA0 SHL SUB DUP3 AND PUSH20 0x95C78222B3D6E262426483D42CFA53685A67AB9D EQ DUP1 PUSH2 0x4C00 JUMPI POP PUSH1 0x1 PUSH1 0x1 PUSH1 0xA0 SHL SUB DUP3 AND PUSH20 0xFD5840CD36D94D7229439859C0112A4185BC0255 EQ JUMPDEST DUP1 PUSH2 0x4C27 JUMPI POP PUSH1 0x1 PUSH1 0x1 PUSH1 0xA0 SHL SUB DUP3 AND PUSH20 0x334B3ECB4DCA3593BCCC3C7EBD1A1C1D1780FBF1 EQ JUMPDEST SWAP3 SWAP2 POP POP JUMP JUMPDEST PUSH1 0x60 PUSH2 0x4C4E PUSH20 0xCA143CE32FE78F1F7019D7D551A6402FC5350C73 DUP6 DUP6 PUSH2 0x4D9E JUMP JUMPDEST SWAP1 POP DUP3 PUSH1 0x0 DUP2 MLOAD DUP2 LT PUSH2 0x4C63 JUMPI PUSH2 0x4C63 PUSH2 0x5DEE JUMP JUMPDEST PUSH1 0x20 MUL PUSH1 0x20 ADD ADD MLOAD PUSH1 0x1 PUSH1 0x1 PUSH1 0xA0 SHL SUB AND PUSH4 0xA9059CBB PUSH2 0x4CCC PUSH20 0xCA143CE32FE78F1F7019D7D551A6402FC5350C73 DUP7 PUSH1 0x0 DUP2 MLOAD DUP2 LT PUSH2 0x4CA4 JUMPI PUSH2 0x4CA4 PUSH2 0x5DEE JUMP JUMPDEST PUSH1 0x20 MUL PUSH1 0x20 ADD ADD MLOAD DUP8 PUSH1 0x1 DUP2 MLOAD DUP2 LT PUSH2 0x4CBF JUMPI PUSH2 0x4CBF PUSH2 0x5DEE JUMP JUMPDEST PUSH1 0x20 MUL PUSH1 0x20 ADD ADD MLOAD PUSH2 0x4F29 JUMP JUMPDEST DUP4 PUSH1 0x0 DUP2 MLOAD DUP2 LT PUSH2 0x4CDF JUMPI PUSH2 0x4CDF PUSH2 0x5DEE JUMP JUMPDEST PUSH1 0x20 MUL PUSH1 0x20 ADD ADD MLOAD PUSH1 0x40 MLOAD DUP4 PUSH4 0xFFFFFFFF AND PUSH1 0xE0 SHL DUP2 MSTORE PUSH1 0x4 ADD PUSH2 0x4D18 SWAP3 SWAP2 SWAP1 PUSH1 0x1 PUSH1 0x1 PUSH1 0xA0 SHL SUB SWAP3 SWAP1 SWAP3 AND DUP3 MSTORE PUSH1 0x20 DUP3 ADD MSTORE PUSH1 0x40 ADD SWAP1 JUMP JUMPDEST PUSH1 0x20 PUSH1 0x40 MLOAD DUP1 DUP4 SUB DUP2 PUSH1 0x0 DUP8 DUP1 EXTCODESIZE ISZERO DUP1 ISZERO PUSH2 0x4D32 JUMPI PUSH1 0x0 DUP1 REVERT JUMPDEST POP GAS CALL ISZERO DUP1 ISZERO PUSH2 0x4D46 JUMPI RETURNDATASIZE PUSH1 0x0 DUP1 RETURNDATACOPY RETURNDATASIZE PUSH1 0x0 REVERT JUMPDEST POP POP POP POP PUSH1 0x40 MLOAD RETURNDATASIZE PUSH1 0x1F NOT PUSH1 0x1F DUP3 ADD AND DUP3 ADD DUP1 PUSH1 0x40 MSTORE POP DUP2 ADD SWAP1 PUSH2 0x4D6A SWAP2 SWAP1 PUSH2 0x592A JUMP JUMPDEST POP PUSH2 0x4D76 DUP2 DUP5 DUP5 PUSH2 0x5004 JUMP JUMPDEST SWAP4 SWAP3 POP POP POP JUMP JUMPDEST PUSH1 0x60 PUSH2 0x4C4E PUSH20 0xCA143CE32FE78F1F7019D7D551A6402FC5350C73 DUP6 DUP6 PUSH2 0x51E7 JUMP JUMPDEST PUSH1 0x60 PUSH1 0x2 DUP3 MLOAD LT ISZERO PUSH2 0x4DF2 JUMPI PUSH1 0x40 MLOAD PUSH3 0x461BCD PUSH1 0xE5 SHL DUP2 MSTORE PUSH1 0x20 PUSH1 0x4 DUP3 ADD MSTORE PUSH1 0x1C PUSH1 0x24 DUP3 ADD MSTORE PUSH32 0x50616E63616B654C6962726172793A20494E56414C49445F5041544800000000 PUSH1 0x44 DUP3 ADD MSTORE PUSH1 0x64 ADD PUSH2 0x152 JUMP JUMPDEST DUP2 MLOAD PUSH8 0xFFFFFFFFFFFFFFFF DUP2 GT ISZERO PUSH2 0x4E0C JUMPI PUSH2 0x4E0C PUSH2 0x5E04 JUMP JUMPDEST PUSH1 0x40 MLOAD SWAP1 DUP1 DUP3 MSTORE DUP1 PUSH1 0x20 MUL PUSH1 0x20 ADD DUP3 ADD PUSH1 0x40 MSTORE DUP1 ISZERO PUSH2 0x4E35 JUMPI DUP2 PUSH1 0x20 ADD PUSH1 0x20 DUP3 MUL DUP1 CALLDATASIZE DUP4 CALLDATACOPY ADD SWAP1 POP JUMPDEST POP SWAP1 POP DUP3 DUP2 PUSH1 0x0 DUP2 MLOAD DUP2 LT PUSH2 0x4E4C JUMPI PUSH2 0x4E4C PUSH2 0x5DEE JUMP JUMPDEST PUSH1 0x20 MUL PUSH1 0x20 ADD ADD DUP2 DUP2 MSTORE POP POP PUSH1 0x0 JUMPDEST PUSH1 0x1 DUP4 MLOAD PUSH2 0x4E69 SWAP2 SWAP1 PUSH2 0x5D8F JUMP JUMPDEST DUP2 LT ISZERO PUSH2 0x4F21 JUMPI PUSH1 0x0 DUP1 PUSH2 0x4EBC DUP8 DUP7 DUP6 DUP2 MLOAD DUP2 LT PUSH2 0x4E89 JUMPI PUSH2 0x4E89 PUSH2 0x5DEE JUMP JUMPDEST PUSH1 0x20 MUL PUSH1 0x20 ADD ADD MLOAD DUP8 DUP7 PUSH1 0x1 PUSH2 0x4E9F SWAP2 SWAP1 PUSH2 0x5D36 JUMP JUMPDEST DUP2 MLOAD DUP2 LT PUSH2 0x4EAF JUMPI PUSH2 0x4EAF PUSH2 0x5DEE JUMP JUMPDEST PUSH1 0x20 MUL PUSH1 0x20 ADD ADD MLOAD PUSH2 0x5368 JUMP JUMPDEST SWAP2 POP SWAP2 POP PUSH2 0x4EE4 DUP5 DUP5 DUP2 MLOAD DUP2 LT PUSH2 0x4ED5 JUMPI PUSH2 0x4ED5 PUSH2 0x5DEE JUMP JUMPDEST PUSH1 0x20 MUL PUSH1 0x20 ADD ADD MLOAD DUP4 DUP4 PUSH2 0x544D JUMP JUMPDEST DUP5 PUSH2 0x4EF0 DUP6 PUSH1 0x1 PUSH2 0x5D36 JUMP JUMPDEST DUP2 MLOAD DUP2 LT PUSH2 0x4F00 JUMPI PUSH2 0x4F00 PUSH2 0x5DEE JUMP JUMPDEST PUSH1 0x20 MUL PUSH1 0x20 ADD ADD DUP2 DUP2 MSTORE POP POP POP POP DUP1 DUP1 PUSH2 0x4F19 SWAP1 PUSH2 0x5DBD JUMP JUMPDEST SWAP2 POP POP PUSH2 0x4E5B JUMP JUMPDEST POP SWAP4 SWAP3 POP POP POP JUMP JUMPDEST PUSH1 0x0 DUP1 PUSH1 0x0 PUSH2 0x4F38 DUP6 DUP6 PUSH2 0x5529 JUMP JUMPDEST PUSH1 0x40 MLOAD PUSH12 0xFFFFFFFFFFFFFFFFFFFFFFFF NOT PUSH1 0x60 DUP5 DUP2 SHL DUP3 AND PUSH1 0x20 DUP5 ADD MSTORE DUP4 SWAP1 SHL AND PUSH1 0x34 DUP3 ADD MSTORE SWAP2 SWAP4 POP SWAP2 POP DUP7 SWAP1 PUSH1 0x48 ADD PUSH1 0x40 MLOAD PUSH1 0x20 DUP2 DUP4 SUB SUB DUP2 MSTORE SWAP1 PUSH1 0x40 MSTORE DUP1 MLOAD SWAP1 PUSH1 0x20 ADD KECCAK256 PUSH1 0x40 MLOAD PUSH1 0x20 ADD PUSH2 0x4FE0 SWAP3 SWAP2 SWAP1 PUSH1 0x1 PUSH1 0x1 PUSH1 0xF8 SHL SUB NOT DUP2 MSTORE PUSH1 0x60 SWAP3 SWAP1 SWAP3 SHL PUSH12 0xFFFFFFFFFFFFFFFFFFFFFFFF NOT AND PUSH1 0x1 DUP4 ADD MSTORE PUSH1 0x15 DUP3 ADD MSTORE PUSH32 0xD0D4C4CD0848C93CB4FD1F498D7013EE6BFB25783EA21593D5834F5D250ECE66 PUSH1 0x35 DUP3 ADD MSTORE PUSH1 0x55 ADD SWAP1 JUMP JUMPDEST PUSH1 0x40 MLOAD PUSH1 0x20 DUP2 DUP4 SUB SUB DUP2 MSTORE SWAP1 PUSH1 0x40 MSTORE DUP1 MLOAD SWAP1 PUSH1 0x20 ADD KECCAK256 PUSH1 0x60 SHR SWAP3 POP POP POP SWAP4 SWAP3 POP POP POP JUMP JUMPDEST PUSH1 0x0 JUMPDEST PUSH1 0x1 DUP4 MLOAD PUSH2 0x5015 SWAP2 SWAP1 PUSH2 0x5D8F JUMP JUMPDEST DUP2 LT ISZERO PUSH2 0x51E1 JUMPI PUSH1 0x0 DUP1 DUP5 DUP4 DUP2 MLOAD DUP2 LT PUSH2 0x5031 JUMPI PUSH2 0x5031 PUSH2 0x5DEE JUMP JUMPDEST PUSH1 0x20 MUL PUSH1 0x20 ADD ADD MLOAD DUP6 DUP5 PUSH1 0x1 PUSH2 0x5047 SWAP2 SWAP1 PUSH2 0x5D36 JUMP JUMPDEST DUP2 MLOAD DUP2 LT PUSH2 0x5057 JUMPI PUSH2 0x5057 PUSH2 0x5DEE JUMP JUMPDEST PUSH1 0x20 MUL PUSH1 0x20 ADD ADD MLOAD SWAP2 POP SWAP2 POP PUSH1 0x0 PUSH2 0x506F DUP4 DUP4 PUSH2 0x5529 JUMP JUMPDEST POP SWAP1 POP PUSH1 0x0 DUP8 PUSH2 0x5080 DUP7 PUSH1 0x1 PUSH2 0x5D36 JUMP JUMPDEST DUP2 MLOAD DUP2 LT PUSH2 0x5090 JUMPI PUSH2 0x5090 PUSH2 0x5DEE JUMP JUMPDEST PUSH1 0x20 MUL PUSH1 0x20 ADD ADD MLOAD SWAP1 POP PUSH1 0x0 DUP1 DUP4 PUSH1 0x1 PUSH1 0x1 PUSH1 0xA0 SHL SUB AND DUP7 PUSH1 0x1 PUSH1 0x1 PUSH1 0xA0 SHL SUB AND EQ PUSH2 0x50BE JUMPI DUP3 PUSH1 0x0 PUSH2 0x50C2 JUMP JUMPDEST PUSH1 0x0 DUP4 JUMPDEST SWAP2 POP SWAP2 POP PUSH1 0x0 PUSH1 0x2 DUP11 MLOAD PUSH2 0x50D6 SWAP2 SWAP1 PUSH2 0x5D8F JUMP JUMPDEST DUP9 LT PUSH2 0x50E2 JUMPI DUP9 PUSH2 0x5117 JUMP JUMPDEST PUSH2 0x5117 PUSH20 0xCA143CE32FE78F1F7019D7D551A6402FC5350C73 DUP8 DUP13 PUSH2 0x5107 DUP13 PUSH1 0x2 PUSH2 0x5D36 JUMP JUMPDEST DUP2 MLOAD DUP2 LT PUSH2 0x4CBF JUMPI PUSH2 0x4CBF PUSH2 0x5DEE JUMP JUMPDEST SWAP1 POP PUSH2 0x5138 PUSH20 0xCA143CE32FE78F1F7019D7D551A6402FC5350C73 DUP9 DUP9 PUSH2 0x4F29 JUMP JUMPDEST PUSH1 0x1 PUSH1 0x1 PUSH1 0xA0 SHL SUB AND PUSH4 0x22C0D9F DUP5 DUP5 DUP5 PUSH1 0x0 PUSH1 0x40 MLOAD SWAP1 DUP1 DUP3 MSTORE DUP1 PUSH1 0x1F ADD PUSH1 0x1F NOT AND PUSH1 0x20 ADD DUP3 ADD PUSH1 0x40 MSTORE DUP1 ISZERO PUSH2 0x5175 JUMPI PUSH1 0x20 DUP3 ADD DUP2 DUP1 CALLDATASIZE DUP4 CALLDATACOPY ADD SWAP1 POP JUMPDEST POP PUSH1 0x40 MLOAD DUP6 PUSH4 0xFFFFFFFF AND PUSH1 0xE0 SHL DUP2 MSTORE PUSH1 0x4 ADD PUSH2 0x5195 SWAP5 SWAP4 SWAP3 SWAP2 SWAP1 PUSH2 0x5CC3 JUMP JUMPDEST PUSH1 0x0 PUSH1 0x40 MLOAD DUP1 DUP4 SUB DUP2 PUSH1 0x0 DUP8 DUP1 EXTCODESIZE ISZERO DUP1 ISZERO PUSH2 0x51AF JUMPI PUSH1 0x0 DUP1 REVERT JUMPDEST POP GAS CALL ISZERO DUP1 ISZERO PUSH2 0x51C3 JUMPI RETURNDATASIZE PUSH1 0x0 DUP1 RETURNDATACOPY RETURNDATASIZE PUSH1 0x0 REVERT JUMPDEST POP POP POP POP POP POP POP POP POP POP POP DUP1 DUP1 PUSH2 0x51D9 SWAP1 PUSH2 0x5DBD JUMP JUMPDEST SWAP2 POP POP PUSH2 0x5007 JUMP JUMPDEST POP POP POP POP JUMP JUMPDEST PUSH1 0x60 PUSH1 0x2 DUP3 MLOAD LT ISZERO PUSH2 0x523B JUMPI PUSH1 0x40 MLOAD PUSH3 0x461BCD PUSH1 0xE5 SHL DUP2 MSTORE PUSH1 0x20 PUSH1 0x4 DUP3 ADD MSTORE PUSH1 0x1C PUSH1 0x24 DUP3 ADD MSTORE PUSH32 0x50616E63616B654C6962726172793A20494E56414C49445F5041544800000000 PUSH1 0x44 DUP3 ADD MSTORE PUSH1 0x64 ADD PUSH2 0x152 JUMP JUMPDEST DUP2 MLOAD PUSH8 0xFFFFFFFFFFFFFFFF DUP2 GT ISZERO PUSH2 0x5255 JUMPI PUSH2 0x5255 PUSH2 0x5E04 JUMP JUMPDEST PUSH1 0x40 MLOAD SWAP1 DUP1 DUP3 MSTORE DUP1 PUSH1 0x20 MUL PUSH1 0x20 ADD DUP3 ADD PUSH1 0x40 MSTORE DUP1 ISZERO PUSH2 0x527E JUMPI DUP2 PUSH1 0x20 ADD PUSH1 0x20 DUP3 MUL DUP1 CALLDATASIZE DUP4 CALLDATACOPY ADD SWAP1 POP JUMPDEST POP SWAP1 POP DUP3 DUP2 PUSH1 0x1 DUP4 MLOAD PUSH2 0x5291 SWAP2 SWAP1 PUSH2 0x5D8F JUMP JUMPDEST DUP2 MLOAD DUP2 LT PUSH2 0x52A1 JUMPI PUSH2 0x52A1 PUSH2 0x5DEE JUMP JUMPDEST PUSH1 0x20 MUL PUSH1 0x20 ADD ADD DUP2 DUP2 MSTORE POP POP PUSH1 0x0 PUSH1 0x1 DUP4 MLOAD PUSH2 0x52BD SWAP2 SWAP1 PUSH2 0x5D8F JUMP JUMPDEST SWAP1 POP JUMPDEST DUP1 ISZERO PUSH2 0x4F21 JUMPI PUSH1 0x0 DUP1 PUSH2 0x5303 DUP8 DUP7 PUSH2 0x52D9 PUSH1 0x1 DUP8 PUSH2 0x5D8F JUMP JUMPDEST DUP2 MLOAD DUP2 LT PUSH2 0x52E9 JUMPI PUSH2 0x52E9 PUSH2 0x5DEE JUMP JUMPDEST PUSH1 0x20 MUL PUSH1 0x20 ADD ADD MLOAD DUP8 DUP7 DUP2 MLOAD DUP2 LT PUSH2 0x4EAF JUMPI PUSH2 0x4EAF PUSH2 0x5DEE JUMP JUMPDEST SWAP2 POP SWAP2 POP PUSH2 0x532B DUP5 DUP5 DUP2 MLOAD DUP2 LT PUSH2 0x531C JUMPI PUSH2 0x531C PUSH2 0x5DEE JUMP JUMPDEST PUSH1 0x20 MUL PUSH1 0x20 ADD ADD MLOAD DUP4 DUP4 PUSH2 0x561F JUMP JUMPDEST DUP5 PUSH2 0x5337 PUSH1 0x1 DUP7 PUSH2 0x5D8F JUMP JUMPDEST DUP2 MLOAD DUP2 LT PUSH2 0x5347 JUMPI PUSH2 0x5347 PUSH2 0x5DEE JUMP JUMPDEST PUSH1 0x20 MUL PUSH1 0x20 ADD ADD DUP2 DUP2 MSTORE POP POP POP POP DUP1 DUP1 PUSH2 0x5360 SWAP1 PUSH2 0x5DA6 JUMP JUMPDEST SWAP2 POP POP PUSH2 0x52C0 JUMP JUMPDEST PUSH1 0x0 DUP1 PUSH1 0x0 PUSH2 0x5377 DUP6 DUP6 PUSH2 0x5529 JUMP JUMPDEST POP SWAP1 POP PUSH2 0x5385 DUP7 DUP7 DUP7 PUSH2 0x4F29 JUMP JUMPDEST POP PUSH1 0x0 DUP1 PUSH2 0x5394 DUP9 DUP9 DUP9 PUSH2 0x4F29 JUMP JUMPDEST PUSH1 0x1 PUSH1 0x1 PUSH1 0xA0 SHL SUB AND PUSH4 0x902F1AC PUSH1 0x40 MLOAD DUP2 PUSH4 0xFFFFFFFF AND PUSH1 0xE0 SHL DUP2 MSTORE PUSH1 0x4 ADD PUSH1 0x60 PUSH1 0x40 MLOAD DUP1 DUP4 SUB DUP2 DUP7 DUP1 EXTCODESIZE ISZERO DUP1 ISZERO PUSH2 0x53CC JUMPI PUSH1 0x0 DUP1 REVERT JUMPDEST POP GAS STATICCALL ISZERO DUP1 ISZERO PUSH2 0x53E0 JUMPI RETURNDATASIZE PUSH1 0x0 DUP1 RETURNDATACOPY RETURNDATASIZE PUSH1 0x0 REVERT JUMPDEST POP POP POP POP PUSH1 0x40 MLOAD RETURNDATASIZE PUSH1 0x1F NOT PUSH1 0x1F DUP3 ADD AND DUP3 ADD DUP1 PUSH1 0x40 MSTORE POP DUP2 ADD SWAP1 PUSH2 0x5404 SWAP2 SWAP1 PUSH2 0x594C JUMP JUMPDEST POP PUSH1 0x1 PUSH1 0x1 PUSH1 0x70 SHL SUB AND SWAP2 POP PUSH1 0x1 PUSH1 0x1 PUSH1 0x70 SHL SUB AND SWAP2 POP DUP3 PUSH1 0x1 PUSH1 0x1 PUSH1 0xA0 SHL SUB AND DUP8 PUSH1 0x1 PUSH1 0x1 PUSH1 0xA0 SHL SUB AND EQ PUSH2 0x543B JUMPI DUP1 DUP3 PUSH2 0x543E JUMP JUMPDEST DUP2 DUP2 JUMPDEST SWAP1 SWAP10 SWAP1 SWAP9 POP SWAP7 POP POP POP POP POP POP POP JUMP JUMPDEST PUSH1 0x0 DUP1 DUP5 GT PUSH2 0x54B0 JUMPI PUSH1 0x40 MLOAD PUSH3 0x461BCD PUSH1 0xE5 SHL DUP2 MSTORE PUSH1 0x20 PUSH1 0x4 DUP3 ADD MSTORE PUSH1 0x29 PUSH1 0x24 DUP3 ADD MSTORE PUSH32 0x50616E63616B654C6962726172793A20494E53554646494349454E545F494E50 PUSH1 0x44 DUP3 ADD MSTORE PUSH9 0x155517D05353D55395 PUSH1 0xBA SHL PUSH1 0x64 DUP3 ADD MSTORE PUSH1 0x84 ADD PUSH2 0x152 JUMP JUMPDEST PUSH1 0x0 DUP4 GT DUP1 ISZERO PUSH2 0x54C0 JUMPI POP PUSH1 0x0 DUP3 GT JUMPDEST PUSH2 0x54DC JUMPI PUSH1 0x40 MLOAD PUSH3 0x461BCD PUSH1 0xE5 SHL DUP2 MSTORE PUSH1 0x4 ADD PUSH2 0x152 SWAP1 PUSH2 0x5C13 JUMP JUMPDEST PUSH1 0x0 PUSH2 0x54EA DUP6 PUSH2 0x3E6 PUSH2 0x56F6 JUMP JUMPDEST SWAP1 POP PUSH1 0x0 PUSH2 0x54F8 DUP3 DUP6 PUSH2 0x56F6 JUMP JUMPDEST SWAP1 POP PUSH1 0x0 PUSH2 0x5512 DUP4 PUSH2 0x550C DUP9 PUSH2 0x3E8 PUSH2 0x56F6 JUMP JUMPDEST SWAP1 PUSH2 0x5702 JUMP JUMPDEST SWAP1 POP PUSH2 0x551E DUP2 DUP4 PUSH2 0x5D4E JUMP JUMPDEST SWAP8 SWAP7 POP POP POP POP POP POP POP JUMP JUMPDEST PUSH1 0x0 DUP1 DUP3 PUSH1 0x1 PUSH1 0x1 PUSH1 0xA0 SHL SUB AND DUP5 PUSH1 0x1 PUSH1 0x1 PUSH1 0xA0 SHL SUB AND EQ ISZERO PUSH2 0x559A JUMPI PUSH1 0x40 MLOAD PUSH3 0x461BCD PUSH1 0xE5 SHL DUP2 MSTORE PUSH1 0x20 PUSH1 0x4 DUP3 ADD MSTORE PUSH1 0x23 PUSH1 0x24 DUP3 ADD MSTORE PUSH32 0x50616E63616B654C6962726172793A204944454E544943414C5F414444524553 PUSH1 0x44 DUP3 ADD MSTORE PUSH3 0x534553 PUSH1 0xE8 SHL PUSH1 0x64 DUP3 ADD MSTORE PUSH1 0x84 ADD PUSH2 0x152 JUMP JUMPDEST DUP3 PUSH1 0x1 PUSH1 0x1 PUSH1 0xA0 SHL SUB AND DUP5 PUSH1 0x1 PUSH1 0x1 PUSH1 0xA0 SHL SUB AND LT PUSH2 0x55BA JUMPI DUP3 DUP5 PUSH2 0x55BD JUMP JUMPDEST DUP4 DUP4 JUMPDEST SWAP1 SWAP3 POP SWAP1 POP PUSH1 0x1 PUSH1 0x1 PUSH1 0xA0 SHL SUB DUP3 AND PUSH2 0x5618 JUMPI PUSH1 0x40 MLOAD PUSH3 0x461BCD PUSH1 0xE5 SHL DUP2 MSTORE PUSH1 0x20 PUSH1 0x4 DUP3 ADD MSTORE PUSH1 0x1C PUSH1 0x24 DUP3 ADD MSTORE PUSH32 0x50616E63616B654C6962726172793A205A45524F5F4144445245535300000000 PUSH1 0x44 DUP3 ADD MSTORE PUSH1 0x64 ADD PUSH2 0x152 JUMP JUMPDEST SWAP3 POP SWAP3 SWAP1 POP JUMP JUMPDEST PUSH1 0x0 DUP1 DUP5 GT PUSH2 0x5683 JUMPI PUSH1 0x40 MLOAD PUSH3 0x461BCD PUSH1 0xE5 SHL DUP2 MSTORE PUSH1 0x20 PUSH1 0x4 DUP3 ADD MSTORE PUSH1 0x2A PUSH1 0x24 DUP3 ADD MSTORE PUSH32 0x50616E63616B654C6962726172793A20494E53554646494349454E545F4F5554 PUSH1 0x44 DUP3 ADD MSTORE PUSH10 0x14155517D05353D55395 PUSH1 0xB2 SHL PUSH1 0x64 DUP3 ADD MSTORE PUSH1 0x84 ADD PUSH2 0x152 JUMP JUMPDEST PUSH1 0x0 DUP4 GT DUP1 ISZERO PUSH2 0x5693 JUMPI POP PUSH1 0x0 DUP3 GT JUMPDEST PUSH2 0x56AF JUMPI PUSH1 0x40 MLOAD PUSH3 0x461BCD PUSH1 0xE5 SHL DUP2 MSTORE PUSH1 0x4 ADD PUSH2 0x152 SWAP1 PUSH2 0x5C13 JUMP JUMPDEST PUSH1 0x0 PUSH2 0x56C7 PUSH2 0x3E8 PUSH2 0x56C1 DUP7 DUP9 PUSH2 0x56F6 JUMP JUMPDEST SWAP1 PUSH2 0x56F6 JUMP JUMPDEST SWAP1 POP PUSH1 0x0 PUSH2 0x56DB PUSH2 0x3E6 PUSH2 0x56C1 DUP7 DUP10 PUSH2 0x570E JUMP JUMPDEST SWAP1 POP PUSH2 0x56EC PUSH1 0x1 PUSH2 0x550C DUP4 DUP6 PUSH2 0x5D4E JUMP JUMPDEST SWAP7 SWAP6 POP POP POP POP POP POP JUMP JUMPDEST PUSH1 0x0 PUSH2 0x4D76 DUP3 DUP5 PUSH2 0x5D70 JUMP JUMPDEST PUSH1 0x0 PUSH2 0x4D76 DUP3 DUP5 PUSH2 0x5D36 JUMP JUMPDEST PUSH1 0x0 PUSH2 0x4D76 DUP3 DUP5 PUSH2 0x5D8F JUMP JUMPDEST DUP1 CALLDATALOAD PUSH2 0x5725 DUP2 PUSH2 0x5E1A JUMP JUMPDEST SWAP2 SWAP1 POP JUMP JUMPDEST PUSH1 0x0 DUP1 DUP4 PUSH1 0x1F DUP5 ADD SLT PUSH2 0x573C JUMPI PUSH1 0x0 DUP1 REVERT JUMPDEST POP DUP2 CALLDATALOAD PUSH8 0xFFFFFFFFFFFFFFFF DUP2 GT ISZERO PUSH2 0x5754 JUMPI PUSH1 0x0 DUP1 REVERT JUMPDEST PUSH1 0x20 DUP4 ADD SWAP2 POP DUP4 PUSH1 0x20 DUP3 PUSH1 0x5 SHL DUP6 ADD ADD GT ISZERO PUSH2 0x5618 JUMPI PUSH1 0x0 DUP1 REVERT JUMPDEST PUSH1 0x0 DUP3 PUSH1 0x1F DUP4 ADD SLT PUSH2 0x5780 JUMPI PUSH1 0x0 DUP1 REVERT JUMPDEST DUP2 CALLDATALOAD PUSH1 0x20 PUSH8 0xFFFFFFFFFFFFFFFF DUP1 DUP4 GT ISZERO PUSH2 0x579D JUMPI PUSH2 0x579D PUSH2 0x5E04 JUMP JUMPDEST DUP3 PUSH1 0x5 SHL PUSH1 0x40 MLOAD PUSH1 0x1F NOT PUSH1 0x3F DUP4 ADD AND DUP2 ADD DUP2 DUP2 LT DUP5 DUP3 GT OR ISZERO PUSH2 0x57C2 JUMPI PUSH2 0x57C2 PUSH2 0x5E04 JUMP JUMPDEST PUSH1 0x40 MSTORE DUP5 DUP2 MSTORE DUP4 DUP2 ADD SWAP3 POP DUP7 DUP5 ADD DUP3 DUP9 ADD DUP6 ADD DUP10 LT ISZERO PUSH2 0x57E1 JUMPI PUSH1 0x0 DUP1 REVERT JUMPDEST PUSH1 0x0 SWAP3 POP JUMPDEST DUP6 DUP4 LT ISZERO PUSH2 0x580B JUMPI PUSH2 0x57F7 DUP2 PUSH2 0x571A JUMP JUMPDEST DUP5 MSTORE SWAP3 DUP5 ADD SWAP3 PUSH1 0x1 SWAP3 SWAP1 SWAP3 ADD SWAP2 DUP5 ADD PUSH2 0x57E6 JUMP JUMPDEST POP SWAP8 SWAP7 POP POP POP POP POP POP POP JUMP JUMPDEST DUP1 MLOAD PUSH1 0x1 PUSH1 0x1 PUSH1 0x70 SHL SUB DUP2 AND DUP2 EQ PUSH2 0x5725 JUMPI PUSH1 0x0 DUP1 REVERT JUMPDEST PUSH1 0x0 PUSH1 0x20 DUP3 DUP5 SUB SLT ISZERO PUSH2 0x5840 JUMPI PUSH1 0x0 DUP1 REVERT JUMPDEST DUP2 CALLDATALOAD PUSH2 0x4D76 DUP2 PUSH2 0x5E1A JUMP JUMPDEST PUSH1 0x0 PUSH1 0x20 DUP3 DUP5 SUB SLT ISZERO PUSH2 0x585D JUMPI PUSH1 0x0 DUP1 REVERT JUMPDEST DUP2 MLOAD PUSH2 0x4D76 DUP2 PUSH2 0x5E1A JUMP JUMPDEST PUSH1 0x0 DUP1 PUSH1 0x40 DUP4 DUP6 SUB SLT ISZERO PUSH2 0x587B JUMPI PUSH1 0x0 DUP1 REVERT JUMPDEST DUP3 CALLDATALOAD PUSH2 0x5886 DUP2 PUSH2 0x5E1A JUMP JUMPDEST SWAP5 PUSH1 0x20 SWAP4 SWAP1 SWAP4 ADD CALLDATALOAD SWAP4 POP POP POP JUMP JUMPDEST PUSH1 0x0 DUP1 PUSH1 0x0 DUP1 PUSH1 0x0 PUSH1 0x80 DUP7 DUP9 SUB SLT ISZERO PUSH2 0x58AC JUMPI PUSH1 0x0 DUP1 REVERT JUMPDEST DUP6 CALLDATALOAD PUSH2 0x58B7 DUP2 PUSH2 0x5E1A JUMP JUMPDEST SWAP5 POP PUSH1 0x20 DUP7 ADD CALLDATALOAD SWAP4 POP PUSH1 0x40 DUP7 ADD CALLDATALOAD SWAP3 POP PUSH1 0x60 DUP7 ADD CALLDATALOAD PUSH8 0xFFFFFFFFFFFFFFFF DUP1 DUP3 GT ISZERO PUSH2 0x58E2 JUMPI PUSH1 0x0 DUP1 REVERT JUMPDEST DUP2 DUP9 ADD SWAP2 POP DUP9 PUSH1 0x1F DUP4 ADD SLT PUSH2 0x58F6 JUMPI PUSH1 0x0 DUP1 REVERT JUMPDEST DUP2 CALLDATALOAD DUP2 DUP2 GT ISZERO PUSH2 0x5905 JUMPI PUSH1 0x0 DUP1 REVERT JUMPDEST DUP10 PUSH1 0x20 DUP3 DUP6 ADD ADD GT ISZERO PUSH2 0x5917 JUMPI PUSH1 0x0 DUP1 REVERT JUMPDEST SWAP7 SWAP10 SWAP6 SWAP9 POP SWAP4 SWAP7 POP PUSH1 0x20 ADD SWAP5 SWAP4 SWAP3 POP POP POP JUMP JUMPDEST PUSH1 0x0 PUSH1 0x20 DUP3 DUP5 SUB SLT ISZERO PUSH2 0x593C JUMPI PUSH1 0x0 DUP1 REVERT JUMPDEST DUP2 MLOAD DUP1 ISZERO ISZERO DUP2 EQ PUSH2 0x4D76 JUMPI PUSH1 0x0 DUP1 REVERT JUMPDEST PUSH1 0x0 DUP1 PUSH1 0x0 PUSH1 0x60 DUP5 DUP7 SUB SLT ISZERO PUSH2 0x5961 JUMPI PUSH1 0x0 DUP1 REVERT JUMPDEST PUSH2 0x596A DUP5 PUSH2 0x5817 JUMP JUMPDEST SWAP3 POP PUSH2 0x5978 PUSH1 0x20 DUP6 ADD PUSH2 0x5817 JUMP JUMPDEST SWAP2 POP PUSH1 0x40 DUP5 ADD MLOAD PUSH4 0xFFFFFFFF DUP2 AND DUP2 EQ PUSH2 0x5991 JUMPI PUSH1 0x0 DUP1 REVERT JUMPDEST DUP1 SWAP2 POP POP SWAP3 POP SWAP3 POP SWAP3 JUMP JUMPDEST PUSH1 0x0 PUSH1 0x20 DUP3 DUP5 SUB SLT ISZERO PUSH2 0x59AE JUMPI PUSH1 0x0 DUP1 REVERT JUMPDEST POP MLOAD SWAP2 SWAP1 POP JUMP JUMPDEST PUSH1 0x0 DUP1 PUSH1 0x0 DUP1 PUSH1 0x0 DUP1 PUSH1 0xC0 DUP8 DUP10 SUB SLT ISZERO PUSH2 0x59CE JUMPI PUSH1 0x0 DUP1 REVERT JUMPDEST DUP7 CALLDATALOAD SWAP6 POP PUSH1 0x20 DUP8 ADD CALLDATALOAD PUSH2 0x59E0 DUP2 PUSH2 0x5E1A JUMP JUMPDEST SWAP5 POP PUSH1 0x40 DUP8 ADD CALLDATALOAD PUSH8 0xFFFFFFFFFFFFFFFF DUP1 DUP3 GT ISZERO PUSH2 0x59FD JUMPI PUSH1 0x0 DUP1 REVERT JUMPDEST PUSH2 0x5A09 DUP11 DUP4 DUP12 ADD PUSH2 0x576F JUMP JUMPDEST SWAP6 POP PUSH1 0x60 DUP10 ADD CALLDATALOAD SWAP2 POP DUP1 DUP3 GT ISZERO PUSH2 0x5A1F JUMPI PUSH1 0x0 DUP1 REVERT JUMPDEST PUSH2 0x5A2B DUP11 DUP4 DUP12 ADD PUSH2 0x576F JUMP JUMPDEST SWAP5 POP PUSH1 0x80 DUP10 ADD CALLDATALOAD SWAP2 POP DUP1 DUP3 GT ISZERO PUSH2 0x5A41 JUMPI PUSH1 0x0 DUP1 REVERT JUMPDEST POP PUSH2 0x5A4E DUP10 DUP3 DUP11 ADD PUSH2 0x576F JUMP JUMPDEST SWAP3 POP POP PUSH1 0xA0 DUP8 ADD CALLDATALOAD SWAP1 POP SWAP3 SWAP6 POP SWAP3 SWAP6 POP SWAP3 SWAP6 JUMP JUMPDEST PUSH1 0x0 DUP1 PUSH1 0x0 DUP1 PUSH1 0x0 DUP1 PUSH1 0x0 DUP1 PUSH1 0x0 PUSH1 0xC0 DUP11 DUP13 SUB SLT ISZERO PUSH2 0x5A80 JUMPI PUSH1 0x0 DUP1 REVERT JUMPDEST DUP10 CALLDATALOAD SWAP9 POP PUSH1 0x20 DUP11 ADD CALLDATALOAD PUSH2 0x5A92 DUP2 PUSH2 0x5E1A JUMP JUMPDEST SWAP8 POP PUSH1 0x40 DUP11 ADD CALLDATALOAD PUSH8 0xFFFFFFFFFFFFFFFF DUP1 DUP3 GT ISZERO PUSH2 0x5AAF JUMPI PUSH1 0x0 DUP1 REVERT JUMPDEST PUSH2 0x5ABB DUP14 DUP4 DUP15 ADD PUSH2 0x572A JUMP JUMPDEST SWAP1 SWAP10 POP SWAP8 POP PUSH1 0x60 DUP13 ADD CALLDATALOAD SWAP2 POP DUP1 DUP3 GT ISZERO PUSH2 0x5AD4 JUMPI PUSH1 0x0 DUP1 REVERT JUMPDEST PUSH2 0x5AE0 DUP14 DUP4 DUP15 ADD PUSH2 0x572A JUMP JUMPDEST SWAP1 SWAP8 POP SWAP6 POP PUSH1 0x80 DUP13 ADD CALLDATALOAD SWAP2 POP DUP1 DUP3 GT ISZERO PUSH2 0x5AF9 JUMPI PUSH1 0x0 DUP1 REVERT JUMPDEST POP PUSH2 0x5B06 DUP13 DUP3 DUP14 ADD PUSH2 0x572A JUMP JUMPDEST SWAP11 SWAP14 SWAP10 SWAP13 POP SWAP8 SWAP11 SWAP7 SWAP10 SWAP6 SWAP9 SWAP5 SWAP8 SWAP7 PUSH1 0xA0 ADD CALLDATALOAD SWAP5 SWAP4 POP POP POP POP JUMP JUMPDEST PUSH1 0x0 DUP1 PUSH1 0x40 DUP4 DUP6 SUB SLT ISZERO PUSH2 0x5B33 JUMPI PUSH1 0x0 DUP1 REVERT JUMPDEST POP POP DUP1 MLOAD PUSH1 0x20 SWAP1 SWAP2 ADD MLOAD SWAP1 SWAP3 SWAP1 SWAP2 POP JUMP JUMPDEST PUSH1 0x0 DUP1 PUSH1 0x0 PUSH1 0x60 DUP5 DUP7 SUB SLT ISZERO PUSH2 0x5B59 JUMPI PUSH1 0x0 DUP1 REVERT JUMPDEST DUP4 MLOAD SWAP3 POP PUSH1 0x20 DUP5 ADD MLOAD SWAP2 POP PUSH1 0x40 DUP5 ADD MLOAD SWAP1 POP SWAP3 POP SWAP3 POP SWAP3 JUMP JUMPDEST DUP2 DUP4 MSTORE PUSH1 0x0 PUSH1 0x20 DUP1 DUP6 ADD SWAP5 POP DUP3 PUSH1 0x0 JUMPDEST DUP6 DUP2 LT ISZERO PUSH2 0x5BB0 JUMPI DUP2 CALLDATALOAD PUSH2 0x5B95 DUP2 PUSH2 0x5E1A JUMP JUMPDEST PUSH1 0x1 PUSH1 0x1 PUSH1 0xA0 SHL SUB AND DUP8 MSTORE SWAP6 DUP3 ADD SWAP6 SWAP1 DUP3 ADD SWAP1 PUSH1 0x1 ADD PUSH2 0x5B82 JUMP JUMPDEST POP SWAP5 SWAP6 SWAP5 POP POP POP POP POP JUMP JUMPDEST PUSH1 0x1 PUSH1 0x1 PUSH1 0xA0 SHL SUB SWAP4 DUP5 AND DUP2 MSTORE PUSH1 0x20 DUP2 ADD SWAP3 SWAP1 SWAP3 MSTORE SWAP1 SWAP2 AND PUSH1 0x40 DUP3 ADD MSTORE PUSH1 0x60 ADD SWAP1 JUMP JUMPDEST PUSH1 0x20 DUP1 DUP3 MSTORE DUP2 DUP2 ADD MSTORE PUSH32 0x4F776E61626C653A2063616C6C6572206973206E6F7420746865206F776E6572 PUSH1 0x40 DUP3 ADD MSTORE PUSH1 0x60 ADD SWAP1 JUMP JUMPDEST PUSH1 0x20 DUP1 DUP3 MSTORE PUSH1 0x26 SWAP1 DUP3 ADD MSTORE PUSH32 0x50616E63616B654C6962726172793A20494E53554646494349454E545F4C4951 PUSH1 0x40 DUP3 ADD MSTORE PUSH6 0x554944495459 PUSH1 0xD0 SHL PUSH1 0x60 DUP3 ADD MSTORE PUSH1 0x80 ADD SWAP1 JUMP JUMPDEST DUP10 DUP2 MSTORE PUSH1 0x1 PUSH1 0x1 PUSH1 0xA0 SHL SUB DUP10 AND PUSH1 0x20 DUP3 ADD MSTORE PUSH1 0xC0 PUSH1 0x40 DUP3 ADD DUP2 SWAP1 MSTORE PUSH1 0x0 SWAP1 PUSH2 0x5C84 SWAP1 DUP4 ADD DUP10 DUP12 PUSH2 0x5B72 JUMP JUMPDEST DUP3 DUP2 SUB PUSH1 0x60 DUP5 ADD MSTORE PUSH2 0x5C97 DUP2 DUP9 DUP11 PUSH2 0x5B72 JUMP JUMPDEST SWAP1 POP DUP3 DUP2 SUB PUSH1 0x80 DUP5 ADD MSTORE PUSH2 0x5CAC DUP2 DUP7 DUP9 PUSH2 0x5B72 JUMP JUMPDEST SWAP2 POP POP DUP3 PUSH1 0xA0 DUP4 ADD MSTORE SWAP11 SWAP10 POP POP POP POP POP POP POP POP POP POP JUMP JUMPDEST DUP5 DUP2 MSTORE PUSH1 0x0 PUSH1 0x20 DUP6 DUP2 DUP5 ADD MSTORE PUSH1 0x1 DUP1 PUSH1 0xA0 SHL SUB DUP6 AND PUSH1 0x40 DUP5 ADD MSTORE PUSH1 0x80 PUSH1 0x60 DUP5 ADD MSTORE DUP4 MLOAD DUP1 PUSH1 0x80 DUP6 ADD MSTORE PUSH1 0x0 JUMPDEST DUP2 DUP2 LT ISZERO PUSH2 0x5D0B JUMPI DUP6 DUP2 ADD DUP4 ADD MLOAD DUP6 DUP3 ADD PUSH1 0xA0 ADD MSTORE DUP3 ADD PUSH2 0x5CEF JUMP JUMPDEST DUP2 DUP2 GT ISZERO PUSH2 0x5D1D JUMPI PUSH1 0x0 PUSH1 0xA0 DUP4 DUP8 ADD ADD MSTORE JUMPDEST POP PUSH1 0x1F ADD PUSH1 0x1F NOT AND SWAP3 SWAP1 SWAP3 ADD PUSH1 0xA0 ADD SWAP7 SWAP6 POP POP POP POP POP POP JUMP JUMPDEST PUSH1 0x0 DUP3 NOT DUP3 GT ISZERO PUSH2 0x5D49 JUMPI PUSH2 0x5D49 PUSH2 0x5DD8 JUMP JUMPDEST POP ADD SWAP1 JUMP JUMPDEST PUSH1 0x0 DUP3 PUSH2 0x5D6B JUMPI PUSH4 0x4E487B71 PUSH1 0xE0 SHL PUSH1 0x0 MSTORE PUSH1 0x12 PUSH1 0x4 MSTORE PUSH1 0x24 PUSH1 0x0 REVERT JUMPDEST POP DIV SWAP1 JUMP JUMPDEST PUSH1 0x0 DUP2 PUSH1 0x0 NOT DIV DUP4 GT DUP3 ISZERO ISZERO AND ISZERO PUSH2 0x5D8A JUMPI PUSH2 0x5D8A PUSH2 0x5DD8 JUMP JUMPDEST POP MUL SWAP1 JUMP JUMPDEST PUSH1 0x0 DUP3 DUP3 LT ISZERO PUSH2 0x5DA1 JUMPI PUSH2 0x5DA1 PUSH2 0x5DD8 JUMP JUMPDEST POP SUB SWAP1 JUMP JUMPDEST PUSH1 0x0 DUP2 PUSH2 0x5DB5 JUMPI PUSH2 0x5DB5 PUSH2 0x5DD8 JUMP JUMPDEST POP PUSH1 0x0 NOT ADD SWAP1 JUMP JUMPDEST PUSH1 0x0 PUSH1 0x0 NOT DUP3 EQ ISZERO PUSH2 0x5DD1 JUMPI PUSH2 0x5DD1 PUSH2 0x5DD8 JUMP JUMPDEST POP PUSH1 0x1 ADD SWAP1 JUMP JUMPDEST PUSH4 0x4E487B71 PUSH1 0xE0 SHL PUSH1 0x0 MSTORE PUSH1 0x11 PUSH1 0x4 MSTORE PUSH1 0x24 PUSH1 0x0 REVERT JUMPDEST PUSH4 0x4E487B71 PUSH1 0xE0 SHL PUSH1 0x0 MSTORE PUSH1 0x32 PUSH1 0x4 MSTORE PUSH1 0x24 PUSH1 0x0 REVERT JUMPDEST PUSH4 0x4E487B71 PUSH1 0xE0 SHL PUSH1 0x0 MSTORE PUSH1 0x41 PUSH1 0x4 MSTORE PUSH1 0x24 PUSH1 0x0 REVERT JUMPDEST PUSH1 0x1 PUSH1 0x1 PUSH1 0xA0 SHL SUB DUP2 AND DUP2 EQ PUSH2 0x4A0F JUMPI PUSH1 0x0 DUP1 REVERT INVALID LOG2 PUSH5 0x6970667358 0x22 SLT KECCAK256 0xEF DUP3 EXTCODEHASH 0xC6 DUP1 LT 0x4D CODECOPY 0xB1 0xB3 0x21 CALLDATACOPY BLOCKHASH 0x5F 0xCC LOG0 SLOAD 0xB0 DUP14 0xB4 CALLVALUE 0xFC COINBASE PUSH12 0x9A17CB6A5B5673CF64736F6C PUSH4 0x43000807 STOP CALLER "
		},
		"gasEstimates": {
			"creation": {
				"codeDepositCost": "4833000",
				"executionCost": "31544",
				"totalCost": "4864544"
			},
			"external": {
				"owner()": "2314",
				"pancakeCall(address,uint256,uint256,bytes)": "infinite",
				"qingsuan(uint256,address,address[],address[],address[],uint256)": "infinite",
				"renounceOwnership()": "28092",
				"transferOwnership(address)": "infinite",
				"withdraw(address,uint256)": "infinite"
			},
			"internal": {
				"_swap(uint256[] memory,address[] memory,address)": "infinite",
				"chainSwapExactIn(uint256,address[] memory,address)": "infinite",
				"chainSwapExactOut(uint256,address[] memory,address)": "infinite",
				"isStableCoin(address)": "141",
				"isVBNB(address)": "infinite"
			}
		},
		"methodIdentifiers": {
			"owner()": "8da5cb5b",
			"pancakeCall(address,uint256,uint256,bytes)": "84800812",
			"qingsuan(uint256,address,address[],address[],address[],uint256)": "b14e9a72",
			"renounceOwnership()": "715018a6",
			"transferOwnership(address)": "f2fde38b",
			"withdraw(address,uint256)": "f3fef3a3"
		}
	},
	"abi": [
		{
			"inputs": [],
			"stateMutability": "nonpayable",
			"type": "constructor"
		},
		{
			"anonymous": false,
			"inputs": [
				{
					"indexed": false,
					"internalType": "uint256",
					"name": "",
					"type": "uint256"
				},
				{
					"indexed": false,
					"internalType": "address",
					"name": "",
					"type": "address"
				},
				{
					"indexed": false,
					"internalType": "address[]",
					"name": "",
					"type": "address[]"
				},
				{
					"indexed": false,
					"internalType": "address[]",
					"name": "",
					"type": "address[]"
				},
				{
					"indexed": false,
					"internalType": "address[]",
					"name": "",
					"type": "address[]"
				},
				{
					"indexed": false,
					"internalType": "uint256",
					"name": "",
					"type": "uint256"
				}
			],
			"name": "Debug1",
			"type": "event"
		},
		{
			"anonymous": false,
			"inputs": [
				{
					"indexed": true,
					"internalType": "address",
					"name": "previousOwner",
					"type": "address"
				},
				{
					"indexed": true,
					"internalType": "address",
					"name": "newOwner",
					"type": "address"
				}
			],
			"name": "OwnershipTransferred",
			"type": "event"
		},
		{
			"anonymous": false,
			"inputs": [
				{
					"indexed": false,
					"internalType": "uint256",
					"name": "scenarioNo",
					"type": "uint256"
				},
				{
					"indexed": false,
					"internalType": "address",
					"name": "repayUnderlyingToken",
					"type": "address"
				},
				{
					"indexed": false,
					"internalType": "uint256",
					"name": "repayAmount",
					"type": "uint256"
				},
				{
					"indexed": false,
					"internalType": "address",
					"name": "seizedUnderlyingToken",
					"type": "address"
				},
				{
					"indexed": false,
					"internalType": "uint256",
					"name": "flashLoanReturnAmount",
					"type": "uint256"
				},
				{
					"indexed": false,
					"internalType": "uint256",
					"name": "seizedUnderlyingAmount",
					"type": "uint256"
				},
				{
					"indexed": false,
					"internalType": "uint256",
					"name": "massProfit",
					"type": "uint256"
				}
			],
			"name": "Scenario",
			"type": "event"
		},
		{
			"inputs": [],
			"name": "owner",
			"outputs": [
				{
					"internalType": "address",
					"name": "",
					"type": "address"
				}
			],
			"stateMutability": "view",
			"type": "function"
		},
		{
			"inputs": [
				{
					"internalType": "address",
					"name": "_sender",
					"type": "address"
				},
				{
					"internalType": "uint256",
					"name": "_amount0",
					"type": "uint256"
				},
				{
					"internalType": "uint256",
					"name": "_amount1",
					"type": "uint256"
				},
				{
					"internalType": "bytes",
					"name": "_data",
					"type": "bytes"
				}
			],
			"name": "pancakeCall",
			"outputs": [],
			"stateMutability": "nonpayable",
			"type": "function"
		},
		{
			"inputs": [
				{
					"internalType": "uint256",
					"name": "_situation",
					"type": "uint256"
				},
				{
					"internalType": "address",
					"name": "_flashLoanFrom",
					"type": "address"
				},
				{
					"internalType": "address[]",
					"name": "_path1",
					"type": "address[]"
				},
				{
					"internalType": "address[]",
					"name": "_path2",
					"type": "address[]"
				},
				{
					"internalType": "address[]",
					"name": "_tokens",
					"type": "address[]"
				},
				{
					"internalType": "uint256",
					"name": "_flashLoanAmount",
					"type": "uint256"
				}
			],
			"name": "qingsuan",
			"outputs": [],
			"stateMutability": "nonpayable",
			"type": "function"
		},
		{
			"inputs": [],
			"name": "renounceOwnership",
			"outputs": [],
			"stateMutability": "nonpayable",
			"type": "function"
		},
		{
			"inputs": [
				{
					"internalType": "address",
					"name": "newOwner",
					"type": "address"
				}
			],
			"name": "transferOwnership",
			"outputs": [],
			"stateMutability": "nonpayable",
			"type": "function"
		},
		{
			"inputs": [
				{
					"internalType": "address",
					"name": "_token",
					"type": "address"
				},
				{
					"internalType": "uint256",
					"name": "_amount",
					"type": "uint256"
				}
			],
			"name": "withdraw",
			"outputs": [],
			"stateMutability": "nonpayable",
			"type": "function"
		},
		{
			"stateMutability": "payable",
			"type": "receive"
		}
	]
}