{
	"data": {
		"bytecode": {
			"linkReferences": {},
			"object": "60806040523480156200001157600080fd5b506200001d3362000023565b62000073565b600080546001600160a01b038381166001600160a01b0319831681178455604051919092169283917f8be0079c531659141344cd1fd0a4f28419497f9722a3daafe3b4186f6b6457e09190a35050565b6140ee80620000836000396000f3fe60806040526004361061007f5760003560e01c80638da5cb5b1161004e5780638da5cb5b14610102578063b14e9a721461012e578063d9caed121461014e578063f2fde38b1461016e57600080fd5b80634782f7791461008b578063715018a6146100ad57806384800812146100c257806389c33748146100e257600080fd5b3661008657005b600080fd5b34801561009757600080fd5b506100ab6100a6366004613ad3565b61018e565b005b3480156100b957600080fd5b506100ab6102e5565b3480156100ce57600080fd5b506100ab6100dd366004613b40565b61031b565b3480156100ee57600080fd5b506100ab6100fd366004613a99565b61181f565b34801561010e57600080fd5b50600054604080516001600160a01b039092168252519081900360200190f35b34801561013a57600080fd5b506100ab610149366004613d0e565b611983565b34801561015a57600080fd5b506100ab610169366004613aff565b61244a565b34801561017a57600080fd5b506100ab610189366004613a99565b612645565b6000546001600160a01b031633146101c15760405162461bcd60e51b81526004016101b890613e67565b60405180910390fd5b6001600160a01b0382166102175760405162461bcd60e51b815260206004820152601b60248201527f746f206d757374206e6f74206265207a65726f2061646472657373000000000060448201526064016101b8565b600081116102675760405162461bcd60e51b815260206004820152601c60248201527f616d6f756e74206d75737420626967676572207468616e207a65726f0000000060448201526064016101b8565b6040516001600160a01b0383169082156108fc029083906000818181858888f1935050505015801561029d573d6000803e3d6000fd5b50816001600160a01b03167f566e45b1c8057e725bf62796a7f1d37ae294393cab069725a09daddd1af98b79826040516102d991815260200190565b60405180910390a25050565b6000546001600160a01b0316331461030f5760405162461bcd60e51b81526004016101b890613e67565b61031960006126e0565b565b61038a6040518061016001604052806000815260200160006001600160a01b03168152602001606081526020016060815260200160608152602001600081526020016000815260200160006001600160a01b031681526020016000815260200160008152602001600081525090565b61039682840184613c61565b60a08701526080860152606085015260408401526001600160a01b03166020830181905290825233146103f35760405162461bcd60e51b815260206004820152600560248201526410b830b4b960d91b60448201526064016101b8565b6001600160a01b03861630146104355760405162461bcd60e51b815260206004820152600760248201526610b9b2b73232b960c91b60448201526064016101b8565b6126f78160a0015160196104499190613ff9565b6104539190613fd7565b8160a001516104629190613fbf565b61046d906001613fbf565b60c082015260808101518051600490811061048a5761048a614077565b60209081029190910101516001600160a01b031660e0820152608081015180516000919060039081106104bf576104bf614077565b60200260200101519050600082608001516002815181106104e2576104e2614077565b60200260200101519050606083600001516001141561071757610522846080015160008151811061051557610515614077565b6020026020010151612730565b6105625760405162461bcd60e51b81526020600482015260116024820152701896b737ba1039ba30b136329031b7b4b760791b60448201526064016101b8565b836080015160018151811061057957610579614077565b60200260200101516001600160a01b031684608001516000815181106105a1576105a1614077565b60200260200101516001600160a01b0316146105f25760405162461bcd60e51b815260206004820152601060248201526f1896903737ba1039b0b6b29031b7b4b760811b60448201526064016101b8565b61065c846080015160008151811061060c5761060c614077565b6020026020010151856080015160018151811061062b5761062b614077565b6020026020010151866080015160048151811061064a5761064a614077565b60200260200101518760a001516127a6565b50610100850152608084015180516106b29190600190811061068057610680614077565b6020026020010151856080015160028151811061069f5761069f614077565b6020026020010151866101000151612bb9565b610120850181905260c0850151106106f75760405162461bcd60e51b81526020600482015260086024820152676e6f20657874726160c01b60448201526064016101b8565b8360c0015184610120015161070c9190614018565b6101408501526116f9565b8351600214156109c857610765846080015160008151811061073b5761073b614077565b60200260200101516001600160a01b031673a07c5b74c9b40447a954e1466938b865b6bbea361490565b1561092a5760a0840151604051632e1a7d4d60e01b8152600481019190915273bb4cdb9cbd36b01bd1cbaebf2de08d9173bc095c90632e1a7d4d90602401600060405180830381600087803b1580156107bd57600080fd5b505af11580156107d1573d6000803e3d6000fd5b505050506107ef846080015160008151811061060c5761060c614077565b50610100850152608084015180516108139190600190811061068057610680614077565b610120850181905260c08501511061085c5760405162461bcd60e51b815260206004820152600c60248201526b322e312d6e6f2d657874726160a01b60448201526064016101b8565b73bb4cdb9cbd36b01bd1cbaebf2de08d9173bc095c6001600160a01b031663d0e30db08561012001516040518263ffffffff1660e01b81526004016000604051808303818588803b1580156108b057600080fd5b505af11580156108c4573d6000803e3d6000fd5b505050505060008460c001518561012001516108e09190614018565b90506108f181866060015130612ea8565b915081600183516109029190614018565b8151811061091257610912614077565b602002602001015185610140018181525050506116f9565b610944846080015160008151811061060c5761060c614077565b50610100850152608084015180516109689190600190811061068057610680614077565b610120850181905260c0850151106109b15760405162461bcd60e51b815260206004820152600c60248201526b322e322d6e6f2d657874726160a01b60448201526064016101b8565b60008460c001518561012001516108e09190614018565b835160031415610c6b576109ec846080015160018151811061051557610515614077565b610a425760405162461bcd60e51b815260206004820152602160248201527f332d7365697a656420746f6b656e206973206e6f7420737461626c6520636f696044820152603760f91b60648201526084016101b8565b610a5c846080015160008151811061073b5761073b614077565b15610baf5760a0840151604051632e1a7d4d60e01b8152600481019190915273bb4cdb9cbd36b01bd1cbaebf2de08d9173bc095c90632e1a7d4d90602401600060405180830381600087803b158015610ab457600080fd5b505af1158015610ac8573d6000803e3d6000fd5b50505050610ae6846080015160008151811061060c5761060c614077565b5061010085015260808401518051610b0a9190600190811061068057610680614077565b61012085015260c08401516040850151610b25919030612ff1565b905080600081518110610b3a57610b3a614077565b602002602001015184610120015111610b845760405162461bcd60e51b815260206004820152600c60248201526b332e312d6e6f2d657874726160a01b60448201526064016101b8565b80600081518110610b9757610b97614077565b602002602001015184610120015161070c9190614018565b610bc9846080015160008151811061060c5761060c614077565b5061010085015260808401518051610bed9190600190811061068057610680614077565b61012085015260c08401516040850151610c08919030612ff1565b905080600081518110610c1d57610c1d614077565b602002602001015184610120015111610b845760405162461bcd60e51b815260206004820152601060248201526f332e322d626e622d6e6f2d657874726160801b60448201526064016101b8565b835160041415610f1257610c8f846080015160008151811061051557610515614077565b610cdb5760405162461bcd60e51b815260206004820152601f60248201527f342d7265706179546f6b656e206973206e6f7420737461626c6520636f696e0060448201526064016101b8565b610cf5846080015160018151811061073b5761073b614077565b15610e4d57610d14846080015160008151811061060c5761060c614077565b5061010085015260808401518051610d389190600190811061068057610680614077565b8461012001818152505073bb4cdb9cbd36b01bd1cbaebf2de08d9173bc095c6001600160a01b031663d0e30db08561012001516040518263ffffffff1660e01b81526004016000604051808303818588803b158015610d9657600080fd5b505af1158015610daa573d6000803e3d6000fd5b5050505050610dc3846101200151856040015130612ea8565b905060008160018351610dd69190614018565b81518110610de657610de6614077565b602002602001015190508460c001518111610e325760405162461bcd60e51b815260206004820152600c60248201526b342e312d6e6f20657874726160a01b60448201526064016101b8565b60c0850151610e419082614018565b610140860152506116f9565b610e67846080015160008151811061060c5761060c614077565b5061010085015260808401518051610e8b9190600190811061068057610680614077565b61012085018190526040850151610ea3919030612ea8565b905060008160018351610eb69190614018565b81518110610ec657610ec6614077565b602002602001015190508460c001518111610e325760405162461bcd60e51b815260206004820152600c60248201526b342e322d6e6f20657874726160a01b60448201526064016101b8565b83516005141561122a57610f36846080015160008151811061073b5761073b614077565b1561108b5760a0840151604051632e1a7d4d60e01b8152600481019190915273bb4cdb9cbd36b01bd1cbaebf2de08d9173bc095c90632e1a7d4d90602401600060405180830381600087803b158015610f8e57600080fd5b505af1158015610fa2573d6000803e3d6000fd5b50505050610fc0846080015160008151811061060c5761060c614077565b5061010085015260808401518051610fe49190600190811061068057610680614077565b61012085015260c08401516040850151610fff919030612ff1565b90508060008151811061101457611014614077565b60200260200101518461012001511161105e5760405162461bcd60e51b815260206004820152600c60248201526b352e312d6e6f20657874726160a01b60448201526064016101b8565b60008160008151811061107357611073614077565b60200260200101518561012001516108e09190614018565b6110a5846080015160018151811061073b5761073b614077565b15611172576110c4846080015160008151811061060c5761060c614077565b50610100850152608084015180516110e89190600190811061068057610680614077565b8461012001818152505073bb4cdb9cbd36b01bd1cbaebf2de08d9173bc095c6001600160a01b031663d0e30db08561012001516040518263ffffffff1660e01b81526004016000604051808303818588803b15801561114657600080fd5b505af115801561115a573d6000803e3d6000fd5b5050505050610fff8460c00151856040015130612ff1565b61118c846080015160008151811061060c5761060c614077565b50610100850152608084015180516111b09190600190811061068057610680614077565b61012085015260c084015160408501516111cb919030612ff1565b9050806000815181106111e0576111e0614077565b60200260200101518461012001511161105e5760405162461bcd60e51b815260206004820152600c60248201526b352e332d6e6f20657874726160a01b60448201526064016101b8565b83516006141561142e5761124e846080015160018151811061051557610515614077565b61129a5760405162461bcd60e51b815260206004820181905260248201527f362d7365697a6564546f6b656e206973206e6f7420737461626c6520636f696e60448201526064016101b8565b600061130685608001516000815181106112b6576112b6614077565b602002602001015186608001516001815181106112d5576112d5614077565b602002602001015187608001516004815181106112f4576112f4614077565b60200260200101518860a001516127a6565b8661010001819350828152505050611360856080015160018151811061132e5761132e614077565b6020026020010151866080015160028151811061134d5761134d614077565b6020026020010151876101000151612bb9565b61012086015260a085015160c08601516000919061137f908490613fbf565b6113899190614018565b905061139a81876040015130612ff1565b50826000815181106113ae576113ae614077565b6020026020010151866101200151116113f55760405162461bcd60e51b8152602060048201526009602482015268362d6e6f657874726160b81b60448201526064016101b8565b8260008151811061140857611408614077565b60200260200101518661012001516114209190614018565b610140870152506116f99050565b83516007141561008657611452846080015160018151811061073b5761073b614077565b1561161c57600061147385608001516000815181106112b6576112b6614077565b866101000181935082815250505061149b856080015160018151811061132e5761132e614077565b8561012001818152505073bb4cdb9cbd36b01bd1cbaebf2de08d9173bc095c6001600160a01b031663d0e30db08661012001516040518263ffffffff1660e01b81526004016000604051808303818588803b1580156114f957600080fd5b505af115801561150d573d6000803e3d6000fd5b505050505060008560a00151828760c001516115299190613fbf565b6115339190614018565b905061154481876040015130612ff1565b92508260008151811061155957611559614077565b6020026020010151866101200151116115a35760405162461bcd60e51b815260206004820152600c60248201526b372e312d6e6f20657874726160a01b60448201526064016101b8565b6000836000815181106115b8576115b8614077565b60200260200101518761012001516115d09190614018565b90506115e181886060015130612ea8565b935083600185516115f29190614018565b8151811061160257611602614077565b6020026020010151876101400181815250505050506116f9565b600061163885608001516000815181106112b6576112b6614077565b8661010001819350828152505050611660856080015160018151811061132e5761132e614077565b61012086015260a085015160c08601516000919061167f908490613fbf565b6116899190614018565b905061169a81876040015130612ff1565b9250826000815181106116af576116af614077565b6020026020010151866101200151116115a35760405162461bcd60e51b815260206004820152600c60248201526b372e322d6e6f20657874726160a01b60448201526064016101b8565b602084015160c085015160405163a9059cbb60e01b81526001600160a01b0386169263a9059cbb92611741926004016001600160a01b03929092168252602082015260400190565b602060405180830381600087803b15801561175b57600080fd5b505af115801561176f573d6000803e3d6000fd5b505050506040513d601f19601f820116820180604052508101906117939190613bd6565b50835160a08086015160c0808801516101208901516101408a0151604080519788526001600160a01b03808c1660208a0152908801959095529388166060870152608086019190915292840192909252908201527fee80f069d389b1636bfe8a115ff1d8ad940b394b4d16bb19c8503003d14dd5b49060e00160405180910390a1505050505050505050565b6000546001600160a01b031633146118495760405162461bcd60e51b81526004016101b890613e67565b6000670de0b6b3a7640000905073bb4cdb9cbd36b01bd1cbaebf2de08d9173bc095c6001600160a01b031663d0e30db0826040518263ffffffff1660e01b81526004016000604051808303818588803b1580156118a557600080fd5b505af11580156118b9573d6000803e3d6000fd5b5060009350600292506118ca915050565b6040519080825280602002602001820160405280156118f3578160200160208202803683370190505b50905073bb4cdb9cbd36b01bd1cbaebf2de08d9173bc095c8160008151811061191e5761191e614077565b60200260200101906001600160a01b031690816001600160a01b031681525050828160018151811061195257611952614077565b60200260200101906001600160a01b031690816001600160a01b03168152505061197d828230612ea8565b50505050565b60018910158015611995575060078911155b6119cc5760405162461bcd60e51b815260206004820152600860248201526777726f6e6720736960c01b60448201526064016101b8565b6001600160a01b038816611a0a5760405162461bcd60e51b815260206004820152600560248201526410b830b4b960d91b60448201526064016101b8565b600073fd36e2c2a6789db23113685031d7f16329158384635ec88c7985856004818110611a3957611a39614077565b9050602002016020810190611a4e9190613a99565b6040516001600160e01b031960e084901b1681526001600160a01b03909116600482015260240160606040518083038186803b158015611a8d57600080fd5b505afa158015611aa1573d6000803e3d6000fd5b505050506040513d601f19601f82011682018060405250810190611ac59190613df0565b9250505060008111611b235760405162461bcd60e51b815260206004820152602160248201527f73686f727466616c6c206d7573742067726561746572207468616e207a6572206044820152600360fc1b60648201526084016101b8565b600084846000818110611b3857611b38614077565b9050602002016020810190611b4d9190613a99565b6001600160a01b03166395dd919386866004818110611b6e57611b6e614077565b9050602002016020810190611b839190613a99565b6040516001600160e01b031960e084901b1681526001600160a01b03909116600482015260240160206040518083038186803b158015611bc257600080fd5b505afa158015611bd6573d6000803e3d6000fd5b505050506040513d601f19601f82011682018060405250810190611bfa9190613c48565b9050600073fd36e2c2a6789db23113685031d7f163291583846001600160a01b031663e87554466040518163ffffffff1660e01b815260040160206040518083038186803b158015611c4b57600080fd5b505afa158015611c5f573d6000803e3d6000fd5b505050506040513d601f19601f82011682018060405250810190611c839190613c48565b90506000670de0b6b3a7640000611c9a8385613ff9565b611ca49190613fd7565b9050808510611d1b5760405162461bcd60e51b815260206004820152603760248201527f666c6173686c6f616e416d6f756e74206d757374206265206c6573732074686160448201527f6e206d6178416c6c6f7765645265706179416d6f756e7400000000000000000060648201526084016101b8565b505050506001600084846003818110611d3657611d36614077565b9050602002016020810190611d4b9190613a99565b6001600160a01b03166001600160a01b03168152602001908152602001600020600084846000818110611d8057611d80614077565b9050602002016020810190611d959190613a99565b6001600160a01b0316815260208101919091526040016000205460ff16611f365782826003818110611dc957611dc9614077565b9050602002016020810190611dde9190613a99565b6001600160a01b031663095ea7b384846000818110611dff57611dff614077565b9050602002016020810190611e149190613a99565b6040516001600160e01b031960e084901b1681526001600160a01b0390911660048201526000196024820152604401602060405180830381600087803b158015611e5d57600080fd5b505af1158015611e71573d6000803e3d6000fd5b505050506040513d601f19601f82011682018060405250810190611e959190613bd6565b50600180600085856003818110611eae57611eae614077565b9050602002016020810190611ec39190613a99565b6001600160a01b03166001600160a01b03168152602001908152602001600020600085856000818110611ef857611ef8614077565b9050602002016020810190611f0d9190613a99565b6001600160a01b031681526020810191909152604001600020805460ff19169115159190911790555b600080611f6985856003818110611f4f57611f4f614077565b9050602002016020810190611f649190613a99565b612730565b156120165784846003818110611f8157611f81614077565b9050602002016020810190611f969190613a99565b6040516370a0823160e01b81523060048201526001600160a01b0391909116906370a082319060240160206040518083038186803b158015611fd757600080fd5b505afa158015611feb573d6000803e3d6000fd5b505050506040513d601f19601f8201168201806040525081019061200f9190613c48565b915061209b565b6040516370a0823160e01b81523060048201527355d398326f99059ff775485246999027b3197955906370a082319060240160206040518083038186803b15801561206057600080fd5b505afa158015612074573d6000803e3d6000fd5b505050506040513d601f19601f820116820180604052508101906120989190613c48565b91505b60008a6001600160a01b0316630dfe16816040518163ffffffff1660e01b815260040160206040518083038186803b1580156120d657600080fd5b505afa1580156120ea573d6000803e3d6000fd5b505050506040513d601f19601f8201168201806040525081019061210e9190613ab6565b905060008b6001600160a01b031663d21220a76040518163ffffffff1660e01b815260040160206040518083038186803b15801561214b57600080fd5b505afa15801561215f573d6000803e3d6000fd5b505050506040513d601f19601f820116820180604052508101906121839190613ab6565b90506000826001600160a01b0316888860038181106121a4576121a4614077565b90506020020160208101906121b99190613a99565b6001600160a01b0316146121ce5760006121d0565b855b90506000826001600160a01b0316898960038181106121f1576121f1614077565b90506020020160208101906122069190613a99565b6001600160a01b03161461221b57600061221d565b865b905060008f8f8f8f8f8f8f8f8f60405160200161224299989796959493929190613ee2565b60405160208183030381529060405290508e6001600160a01b031663022c0d9f848430856040518563ffffffff1660e01b81526004016122859493929190613f4c565b600060405180830381600087803b15801561229f57600080fd5b505af11580156122b3573d6000803e3d6000fd5b505050506122cd8a8a6003818110611f4f57611f4f614077565b1561237a57898960038181106122e5576122e5614077565b90506020020160208101906122fa9190613a99565b6040516370a0823160e01b81523060048201526001600160a01b0391909116906370a082319060240160206040518083038186803b15801561233b57600080fd5b505afa15801561234f573d6000803e3d6000fd5b505050506040513d601f19601f820116820180604052508101906123739190613c48565b95506123ff565b6040516370a0823160e01b81523060048201527355d398326f99059ff775485246999027b3197955906370a082319060240160206040518083038186803b1580156123c457600080fd5b505afa1580156123d8573d6000803e3d6000fd5b505050506040513d601f19601f820116820180604052508101906123fc9190613c48565b95505b60408051888152602081018890527f66ff0161865ce411b20fbb12ecef6d576c0b2397bce9bc4b834e0a9d969bbf24910160405180910390a150505050505050505050505050505050565b6000546001600160a01b031633146124745760405162461bcd60e51b81526004016101b890613e67565b6001600160a01b0383166124ca5760405162461bcd60e51b815260206004820152601e60248201527f746f6b656e206d757374206e6f74206265207a65726f2061646472657373000060448201526064016101b8565b6001600160a01b0382166125205760405162461bcd60e51b815260206004820152601b60248201527f746f206d757374206e6f74206265207a65726f2061646472657373000000000060448201526064016101b8565b600081116125705760405162461bcd60e51b815260206004820152601c60248201527f616d6f756e74206d75737420626967676572207468616e207a65726f0000000060448201526064016101b8565b60405163a9059cbb60e01b81526001600160a01b0383811660048301526024820183905284169063a9059cbb90604401602060405180830381600087803b1580156125ba57600080fd5b505af11580156125ce573d6000803e3d6000fd5b505050506040513d601f19601f820116820180604052508101906125f29190613bd6565b50816001600160a01b0316836001600160a01b03167f9b1bfa7fa9ee420a16e124f794c35ac9f90472acc99140eb2f6447c714cad8eb8360405161263891815260200190565b60405180910390a3505050565b6000546001600160a01b0316331461266f5760405162461bcd60e51b81526004016101b890613e67565b6001600160a01b0381166126d45760405162461bcd60e51b815260206004820152602660248201527f4f776e61626c653a206e6577206f776e657220697320746865207a65726f206160448201526564647265737360d01b60648201526084016101b8565b6126dd816126e0565b50565b600080546001600160a01b038381166001600160a01b0319831681178455604051919092169283917f8be0079c531659141344cd1fd0a4f28419497f9722a3daafe3b4186f6b6457e09190a35050565b60006001600160a01b0382167395c78222b3d6e262426483d42cfa53685a67ab9d148061277957506001600160a01b03821673fd5840cd36d94d7229439859c0112a4185bc0255145b806127a057506001600160a01b03821673334b3ecb4dca3593bccc3c7ebd1a1c1d1780fbf1145b92915050565b6040516370a0823160e01b8152306004820152600090819085908290819081906001600160a01b038516906370a082319060240160206040518083038186803b1580156127f257600080fd5b505afa158015612806573d6000803e3d6000fd5b505050506040513d601f19601f8201168201806040525081019061282a9190613c48565b905073a07c5b74c9b40447a954e1466938b865b6bbea366001600160a01b038b1614156128bb57604051635572051560e11b81526001600160a01b0389811660048301528a811660248301528b169063aae40a2a9089906044016000604051808303818588803b15801561289d57600080fd5b505af11580156128b1573d6000803e3d6000fd5b5050505050612a8d565b734bd17003473389a42daf6a0a729f6fdb328bbbd76001600160a01b038b1614156129b9576040516311b3d5e760e01b81526001600160a01b0389811660048301526024820189905285811660448301528b16906311b3d5e7906064016040805180830381600087803b15801561293157600080fd5b505af1158015612945573d6000803e3d6000fd5b505050506040513d601f19601f820116820180604052508101906129699190613dcc565b909350915082156129b45760405162461bcd60e51b81526020600482015260156024820152743634b8bab4b230ba32a137b93937bb9032b93937b960591b60448201526064016101b8565b612a8d565b604051637af1e23160e11b81526001600160a01b0389811660048301526024820189905285811660448301528b919082169063f5e3c46290606401602060405180830381600087803b158015612a0e57600080fd5b505af1158015612a22573d6000803e3d6000fd5b505050506040513d601f19601f82011682018060405250810190612a469190613c48565b15612a8b5760405162461bcd60e51b81526020600482015260156024820152743634b8bab4b230ba32a137b93937bb9032b93937b960591b60448201526064016101b8565b505b6040516370a0823160e01b81523060048201526000906001600160a01b038616906370a082319060240160206040518083038186803b158015612acf57600080fd5b505afa158015612ae3573d6000803e3d6000fd5b505050506040513d601f19601f82011682018060405250810190612b079190613c48565b90506000612b158383614018565b905060008111612b675760405162461bcd60e51b815260206004820152601c60248201527f7365697a65642056546f6b656e20616d6f756e74206973207a65726f0000000060448201526064016101b8565b604080518a8152602081018690529081018290527ffde0eb536fecee7fca644722fc2e6255ee0571307ab7f46f7fea23fe302d44799060600160405180910390a19b929a509198505050505050505050565b600080808073a07c5b74c9b40447a954e1466938b865b6bbea366001600160a01b0388161415612ca65760405163db006a7560e01b8152600481018690524793506001600160a01b0388169063db006a7590602401602060405180830381600087803b158015612c2857600080fd5b505af1158015612c3c573d6000803e3d6000fd5b505050506040513d601f19601f82011682018060405250810190612c609190613c48565b15612c9e5760405162461bcd60e51b815260206004820152600e60248201526d3932b232b2b6902127211032b93960911b60448201526064016101b8565b479150612e56565b6040516370a0823160e01b8152306004820152879087906001600160a01b038216906370a082319060240160206040518083038186803b158015612ce957600080fd5b505afa158015612cfd573d6000803e3d6000fd5b505050506040513d601f19601f82011682018060405250810190612d219190613c48565b60405163db006a7560e01b8152600481018990529095506001600160a01b0383169063db006a7590602401602060405180830381600087803b158015612d6657600080fd5b505af1158015612d7a573d6000803e3d6000fd5b505050506040513d601f19601f82011682018060405250810190612d9e9190613c48565b15612dda5760405162461bcd60e51b815260206004820152600c60248201526b3932b232b2b69032b93937b960a11b60448201526064016101b8565b6040516370a0823160e01b81523060048201526001600160a01b038216906370a082319060240160206040518083038186803b158015612e1957600080fd5b505afa158015612e2d573d6000803e3d6000fd5b505050506040513d601f19601f82011682018060405250810190612e519190613c48565b935050505b612e608383614018565b60408051878152602081018390529192507f2a500c424b9e55ca96ef57f09281232662a42069de49730505b2bbd019412dcf910160405180910390a1925050505b9392505050565b6060612ec973ca143ce32fe78f1f7019d7d551a6402fc5350c738585613012565b905082600081518110612ede57612ede614077565b60200260200101516001600160a01b031663a9059cbb612f4773ca143ce32fe78f1f7019d7d551a6402fc5350c7386600081518110612f1f57612f1f614077565b602002602001015187600181518110612f3a57612f3a614077565b602002602001015161319d565b83600081518110612f5a57612f5a614077565b60200260200101516040518363ffffffff1660e01b8152600401612f939291906001600160a01b03929092168252602082015260400190565b602060405180830381600087803b158015612fad57600080fd5b505af1158015612fc1573d6000803e3d6000fd5b505050506040513d601f19601f82011682018060405250810190612fe59190613bd6565b50612ea1818484613275565b6060612ec973ca143ce32fe78f1f7019d7d551a6402fc5350c738585613452565b60606002825110156130665760405162461bcd60e51b815260206004820152601c60248201527f50616e63616b654c6962726172793a20494e56414c49445f504154480000000060448201526064016101b8565b815167ffffffffffffffff8111156130805761308061408d565b6040519080825280602002602001820160405280156130a9578160200160208202803683370190505b50905082816000815181106130c0576130c0614077565b60200260200101818152505060005b600183516130dd9190614018565b81101561319557600080613130878685815181106130fd576130fd614077565b6020026020010151878660016131139190613fbf565b8151811061312357613123614077565b60200260200101516135d3565b9150915061315884848151811061314957613149614077565b602002602001015183836136b8565b84613164856001613fbf565b8151811061317457613174614077565b6020026020010181815250505050808061318d90614046565b9150506130cf565b509392505050565b60008060006131ac8585613794565b6040516bffffffffffffffffffffffff19606084811b8216602084015283901b16603482015291935091508690604801604051602081830303815290604052805190602001206040516020016132539291906001600160f81b0319815260609290921b6bffffffffffffffffffffffff1916600183015260158201527efb7f630766e6a796048ea87d01acd3068e8ff67d078148a3fa3f4a84f69bd5603582015260550190565b60408051601f1981840301815291905280516020909101209695505050505050565b60005b600183516132869190614018565b81101561197d576000808483815181106132a2576132a2614077565b6020026020010151858460016132b89190613fbf565b815181106132c8576132c8614077565b60200260200101519150915060006132e08383613794565b5090506000876132f1866001613fbf565b8151811061330157613301614077565b60200260200101519050600080836001600160a01b0316866001600160a01b03161461332f57826000613333565b6000835b91509150600060028a516133479190614018565b88106133535788613388565b61338873ca143ce32fe78f1f7019d7d551a6402fc5350c73878c6133788c6002613fbf565b81518110612f3a57612f3a614077565b90506133a973ca143ce32fe78f1f7019d7d551a6402fc5350c73888861319d565b6001600160a01b031663022c0d9f84848460006040519080825280601f01601f1916602001820160405280156133e6576020820181803683370190505b506040518563ffffffff1660e01b81526004016134069493929190613f4c565b600060405180830381600087803b15801561342057600080fd5b505af1158015613434573d6000803e3d6000fd5b5050505050505050505050808061344a90614046565b915050613278565b60606002825110156134a65760405162461bcd60e51b815260206004820152601c60248201527f50616e63616b654c6962726172793a20494e56414c49445f504154480000000060448201526064016101b8565b815167ffffffffffffffff8111156134c0576134c061408d565b6040519080825280602002602001820160405280156134e9578160200160208202803683370190505b5090508281600183516134fc9190614018565b8151811061350c5761350c614077565b6020026020010181815250506000600183516135289190614018565b90505b80156131955760008061356e8786613544600187614018565b8151811061355457613554614077565b602002602001015187868151811061312357613123614077565b9150915061359684848151811061358757613587614077565b6020026020010151838361388a565b846135a2600186614018565b815181106135b2576135b2614077565b602002602001018181525050505080806135cb9061402f565b91505061352b565b60008060006135e28585613794565b5090506135f086868661319d565b506000806135ff88888861319d565b6001600160a01b0316630902f1ac6040518163ffffffff1660e01b815260040160606040518083038186803b15801561363757600080fd5b505afa15801561364b573d6000803e3d6000fd5b505050506040513d601f19601f8201168201806040525081019061366f9190613bf8565b506001600160701b031691506001600160701b03169150826001600160a01b0316876001600160a01b0316146136a65780826136a9565b81815b90999098509650505050505050565b600080841161371b5760405162461bcd60e51b815260206004820152602960248201527f50616e63616b654c6962726172793a20494e53554646494349454e545f494e50604482015268155517d05353d5539560ba1b60648201526084016101b8565b60008311801561372b5750600082115b6137475760405162461bcd60e51b81526004016101b890613e9c565b6000613755856126f7613961565b905060006137638285613961565b9050600061377d8361377788612710613961565b9061396d565b90506137898183613fd7565b979650505050505050565b600080826001600160a01b0316846001600160a01b031614156138055760405162461bcd60e51b815260206004820152602360248201527f50616e63616b654c6962726172793a204944454e544943414c5f41444452455360448201526253455360e81b60648201526084016101b8565b826001600160a01b0316846001600160a01b031610613825578284613828565b83835b90925090506001600160a01b0382166138835760405162461bcd60e51b815260206004820152601c60248201527f50616e63616b654c6962726172793a205a45524f5f414444524553530000000060448201526064016101b8565b9250929050565b60008084116138ee5760405162461bcd60e51b815260206004820152602a60248201527f50616e63616b654c6962726172793a20494e53554646494349454e545f4f555460448201526914155517d05353d5539560b21b60648201526084016101b8565b6000831180156138fe5750600082115b61391a5760405162461bcd60e51b81526004016101b890613e9c565b600061393261271061392c8688613961565b90613961565b905060006139466126f761392c8689613979565b905061395760016137778385613fd7565b9695505050505050565b6000612ea18284613ff9565b6000612ea18284613fbf565b6000612ea18284614018565b8035613990816140a3565b919050565b60008083601f8401126139a757600080fd5b50813567ffffffffffffffff8111156139bf57600080fd5b6020830191508360208260051b850101111561388357600080fd5b600082601f8301126139eb57600080fd5b8135602067ffffffffffffffff80831115613a0857613a0861408d565b8260051b604051601f19603f83011681018181108482111715613a2d57613a2d61408d565b60405284815283810192508684018288018501891015613a4c57600080fd5b600092505b85831015613a7657613a6281613985565b845292840192600192909201918401613a51565b50979650505050505050565b80516001600160701b038116811461399057600080fd5b600060208284031215613aab57600080fd5b8135612ea1816140a3565b600060208284031215613ac857600080fd5b8151612ea1816140a3565b60008060408385031215613ae657600080fd5b8235613af1816140a3565b946020939093013593505050565b600080600060608486031215613b1457600080fd5b8335613b1f816140a3565b92506020840135613b2f816140a3565b929592945050506040919091013590565b600080600080600060808688031215613b5857600080fd5b8535613b63816140a3565b94506020860135935060408601359250606086013567ffffffffffffffff80821115613b8e57600080fd5b818801915088601f830112613ba257600080fd5b813581811115613bb157600080fd5b896020828501011115613bc357600080fd5b9699959850939650602001949392505050565b600060208284031215613be857600080fd5b81518015158114612ea157600080fd5b600080600060608486031215613c0d57600080fd5b613c1684613a82565b9250613c2460208501613a82565b9150604084015163ffffffff81168114613c3d57600080fd5b809150509250925092565b600060208284031215613c5a57600080fd5b5051919050565b60008060008060008060c08789031215613c7a57600080fd5b863595506020870135613c8c816140a3565b9450604087013567ffffffffffffffff80821115613ca957600080fd5b613cb58a838b016139da565b95506060890135915080821115613ccb57600080fd5b613cd78a838b016139da565b94506080890135915080821115613ced57600080fd5b50613cfa89828a016139da565b92505060a087013590509295509295509295565b600080600080600080600080600060c08a8c031215613d2c57600080fd5b8935985060208a0135613d3e816140a3565b975060408a013567ffffffffffffffff80821115613d5b57600080fd5b613d678d838e01613995565b909950975060608c0135915080821115613d8057600080fd5b613d8c8d838e01613995565b909750955060808c0135915080821115613da557600080fd5b50613db28c828d01613995565b9a9d999c50979a9699959894979660a00135949350505050565b60008060408385031215613ddf57600080fd5b505080516020909101519092909150565b600080600060608486031215613e0557600080fd5b8351925060208401519150604084015190509250925092565b8183526000602080850194508260005b85811015613e5c578135613e41816140a3565b6001600160a01b031687529582019590820190600101613e2e565b509495945050505050565b6020808252818101527f4f776e61626c653a2063616c6c6572206973206e6f7420746865206f776e6572604082015260600190565b60208082526026908201527f50616e63616b654c6962726172793a20494e53554646494349454e545f4c495160408201526555494449545960d01b606082015260800190565b8981526001600160a01b038916602082015260c060408201819052600090613f0d908301898b613e1e565b8281036060840152613f2081888a613e1e565b90508281036080840152613f35818688613e1e565b9150508260a08301529a9950505050505050505050565b84815260006020858184015260018060a01b038516604084015260806060840152835180608085015260005b81811015613f945785810183015185820160a001528201613f78565b81811115613fa657600060a083870101525b50601f01601f19169290920160a0019695505050505050565b60008219821115613fd257613fd2614061565b500190565b600082613ff457634e487b7160e01b600052601260045260246000fd5b500490565b600081600019048311821515161561401357614013614061565b500290565b60008282101561402a5761402a614061565b500390565b60008161403e5761403e614061565b506000190190565b600060001982141561405a5761405a614061565b5060010190565b634e487b7160e01b600052601160045260246000fd5b634e487b7160e01b600052603260045260246000fd5b634e487b7160e01b600052604160045260246000fd5b6001600160a01b03811681146126dd57600080fdfea2646970667358221220d03b88bc0b01331c8d308836d2deaef17c32f97fbed1e663142ee285df841bc464736f6c63430008070033",
			"opcodes": "PUSH1 0x80 PUSH1 0x40 MSTORE CALLVALUE DUP1 ISZERO PUSH3 0x11 JUMPI PUSH1 0x0 DUP1 REVERT JUMPDEST POP PUSH3 0x1D CALLER PUSH3 0x23 JUMP JUMPDEST PUSH3 0x73 JUMP JUMPDEST PUSH1 0x0 DUP1 SLOAD PUSH1 0x1 PUSH1 0x1 PUSH1 0xA0 SHL SUB DUP4 DUP2 AND PUSH1 0x1 PUSH1 0x1 PUSH1 0xA0 SHL SUB NOT DUP4 AND DUP2 OR DUP5 SSTORE PUSH1 0x40 MLOAD SWAP2 SWAP1 SWAP3 AND SWAP3 DUP4 SWAP2 PUSH32 0x8BE0079C531659141344CD1FD0A4F28419497F9722A3DAAFE3B4186F6B6457E0 SWAP2 SWAP1 LOG3 POP POP JUMP JUMPDEST PUSH2 0x40EE DUP1 PUSH3 0x83 PUSH1 0x0 CODECOPY PUSH1 0x0 RETURN INVALID PUSH1 0x80 PUSH1 0x40 MSTORE PUSH1 0x4 CALLDATASIZE LT PUSH2 0x7F JUMPI PUSH1 0x0 CALLDATALOAD PUSH1 0xE0 SHR DUP1 PUSH4 0x8DA5CB5B GT PUSH2 0x4E JUMPI DUP1 PUSH4 0x8DA5CB5B EQ PUSH2 0x102 JUMPI DUP1 PUSH4 0xB14E9A72 EQ PUSH2 0x12E JUMPI DUP1 PUSH4 0xD9CAED12 EQ PUSH2 0x14E JUMPI DUP1 PUSH4 0xF2FDE38B EQ PUSH2 0x16E JUMPI PUSH1 0x0 DUP1 REVERT JUMPDEST DUP1 PUSH4 0x4782F779 EQ PUSH2 0x8B JUMPI DUP1 PUSH4 0x715018A6 EQ PUSH2 0xAD JUMPI DUP1 PUSH4 0x84800812 EQ PUSH2 0xC2 JUMPI DUP1 PUSH4 0x89C33748 EQ PUSH2 0xE2 JUMPI PUSH1 0x0 DUP1 REVERT JUMPDEST CALLDATASIZE PUSH2 0x86 JUMPI STOP JUMPDEST PUSH1 0x0 DUP1 REVERT JUMPDEST CALLVALUE DUP1 ISZERO PUSH2 0x97 JUMPI PUSH1 0x0 DUP1 REVERT JUMPDEST POP PUSH2 0xAB PUSH2 0xA6 CALLDATASIZE PUSH1 0x4 PUSH2 0x3AD3 JUMP JUMPDEST PUSH2 0x18E JUMP JUMPDEST STOP JUMPDEST CALLVALUE DUP1 ISZERO PUSH2 0xB9 JUMPI PUSH1 0x0 DUP1 REVERT JUMPDEST POP PUSH2 0xAB PUSH2 0x2E5 JUMP JUMPDEST CALLVALUE DUP1 ISZERO PUSH2 0xCE JUMPI PUSH1 0x0 DUP1 REVERT JUMPDEST POP PUSH2 0xAB PUSH2 0xDD CALLDATASIZE PUSH1 0x4 PUSH2 0x3B40 JUMP JUMPDEST PUSH2 0x31B JUMP JUMPDEST CALLVALUE DUP1 ISZERO PUSH2 0xEE JUMPI PUSH1 0x0 DUP1 REVERT JUMPDEST POP PUSH2 0xAB PUSH2 0xFD CALLDATASIZE PUSH1 0x4 PUSH2 0x3A99 JUMP JUMPDEST PUSH2 0x181F JUMP JUMPDEST CALLVALUE DUP1 ISZERO PUSH2 0x10E JUMPI PUSH1 0x0 DUP1 REVERT JUMPDEST POP PUSH1 0x0 SLOAD PUSH1 0x40 DUP1 MLOAD PUSH1 0x1 PUSH1 0x1 PUSH1 0xA0 SHL SUB SWAP1 SWAP3 AND DUP3 MSTORE MLOAD SWAP1 DUP2 SWAP1 SUB PUSH1 0x20 ADD SWAP1 RETURN JUMPDEST CALLVALUE DUP1 ISZERO PUSH2 0x13A JUMPI PUSH1 0x0 DUP1 REVERT JUMPDEST POP PUSH2 0xAB PUSH2 0x149 CALLDATASIZE PUSH1 0x4 PUSH2 0x3D0E JUMP JUMPDEST PUSH2 0x1983 JUMP JUMPDEST CALLVALUE DUP1 ISZERO PUSH2 0x15A JUMPI PUSH1 0x0 DUP1 REVERT JUMPDEST POP PUSH2 0xAB PUSH2 0x169 CALLDATASIZE PUSH1 0x4 PUSH2 0x3AFF JUMP JUMPDEST PUSH2 0x244A JUMP JUMPDEST CALLVALUE DUP1 ISZERO PUSH2 0x17A JUMPI PUSH1 0x0 DUP1 REVERT JUMPDEST POP PUSH2 0xAB PUSH2 0x189 CALLDATASIZE PUSH1 0x4 PUSH2 0x3A99 JUMP JUMPDEST PUSH2 0x2645 JUMP JUMPDEST PUSH1 0x0 SLOAD PUSH1 0x1 PUSH1 0x1 PUSH1 0xA0 SHL SUB AND CALLER EQ PUSH2 0x1C1 JUMPI PUSH1 0x40 MLOAD PUSH3 0x461BCD PUSH1 0xE5 SHL DUP2 MSTORE PUSH1 0x4 ADD PUSH2 0x1B8 SWAP1 PUSH2 0x3E67 JUMP JUMPDEST PUSH1 0x40 MLOAD DUP1 SWAP2 SUB SWAP1 REVERT JUMPDEST PUSH1 0x1 PUSH1 0x1 PUSH1 0xA0 SHL SUB DUP3 AND PUSH2 0x217 JUMPI PUSH1 0x40 MLOAD PUSH3 0x461BCD PUSH1 0xE5 SHL DUP2 MSTORE PUSH1 0x20 PUSH1 0x4 DUP3 ADD MSTORE PUSH1 0x1B PUSH1 0x24 DUP3 ADD MSTORE PUSH32 0x746F206D757374206E6F74206265207A65726F20616464726573730000000000 PUSH1 0x44 DUP3 ADD MSTORE PUSH1 0x64 ADD PUSH2 0x1B8 JUMP JUMPDEST PUSH1 0x0 DUP2 GT PUSH2 0x267 JUMPI PUSH1 0x40 MLOAD PUSH3 0x461BCD PUSH1 0xE5 SHL DUP2 MSTORE PUSH1 0x20 PUSH1 0x4 DUP3 ADD MSTORE PUSH1 0x1C PUSH1 0x24 DUP3 ADD MSTORE PUSH32 0x616D6F756E74206D75737420626967676572207468616E207A65726F00000000 PUSH1 0x44 DUP3 ADD MSTORE PUSH1 0x64 ADD PUSH2 0x1B8 JUMP JUMPDEST PUSH1 0x40 MLOAD PUSH1 0x1 PUSH1 0x1 PUSH1 0xA0 SHL SUB DUP4 AND SWAP1 DUP3 ISZERO PUSH2 0x8FC MUL SWAP1 DUP4 SWAP1 PUSH1 0x0 DUP2 DUP2 DUP2 DUP6 DUP9 DUP9 CALL SWAP4 POP POP POP POP ISZERO DUP1 ISZERO PUSH2 0x29D JUMPI RETURNDATASIZE PUSH1 0x0 DUP1 RETURNDATACOPY RETURNDATASIZE PUSH1 0x0 REVERT JUMPDEST POP DUP2 PUSH1 0x1 PUSH1 0x1 PUSH1 0xA0 SHL SUB AND PUSH32 0x566E45B1C8057E725BF62796A7F1D37AE294393CAB069725A09DADDD1AF98B79 DUP3 PUSH1 0x40 MLOAD PUSH2 0x2D9 SWAP2 DUP2 MSTORE PUSH1 0x20 ADD SWAP1 JUMP JUMPDEST PUSH1 0x40 MLOAD DUP1 SWAP2 SUB SWAP1 LOG2 POP POP JUMP JUMPDEST PUSH1 0x0 SLOAD PUSH1 0x1 PUSH1 0x1 PUSH1 0xA0 SHL SUB AND CALLER EQ PUSH2 0x30F JUMPI PUSH1 0x40 MLOAD PUSH3 0x461BCD PUSH1 0xE5 SHL DUP2 MSTORE PUSH1 0x4 ADD PUSH2 0x1B8 SWAP1 PUSH2 0x3E67 JUMP JUMPDEST PUSH2 0x319 PUSH1 0x0 PUSH2 0x26E0 JUMP JUMPDEST JUMP JUMPDEST PUSH2 0x38A PUSH1 0x40 MLOAD DUP1 PUSH2 0x160 ADD PUSH1 0x40 MSTORE DUP1 PUSH1 0x0 DUP2 MSTORE PUSH1 0x20 ADD PUSH1 0x0 PUSH1 0x1 PUSH1 0x1 PUSH1 0xA0 SHL SUB AND DUP2 MSTORE PUSH1 0x20 ADD PUSH1 0x60 DUP2 MSTORE PUSH1 0x20 ADD PUSH1 0x60 DUP2 MSTORE PUSH1 0x20 ADD PUSH1 0x60 DUP2 MSTORE PUSH1 0x20 ADD PUSH1 0x0 DUP2 MSTORE PUSH1 0x20 ADD PUSH1 0x0 DUP2 MSTORE PUSH1 0x20 ADD PUSH1 0x0 PUSH1 0x1 PUSH1 0x1 PUSH1 0xA0 SHL SUB AND DUP2 MSTORE PUSH1 0x20 ADD PUSH1 0x0 DUP2 MSTORE PUSH1 0x20 ADD PUSH1 0x0 DUP2 MSTORE PUSH1 0x20 ADD PUSH1 0x0 DUP2 MSTORE POP SWAP1 JUMP JUMPDEST PUSH2 0x396 DUP3 DUP5 ADD DUP5 PUSH2 0x3C61 JUMP JUMPDEST PUSH1 0xA0 DUP8 ADD MSTORE PUSH1 0x80 DUP7 ADD MSTORE PUSH1 0x60 DUP6 ADD MSTORE PUSH1 0x40 DUP5 ADD MSTORE PUSH1 0x1 PUSH1 0x1 PUSH1 0xA0 SHL SUB AND PUSH1 0x20 DUP4 ADD DUP2 SWAP1 MSTORE SWAP1 DUP3 MSTORE CALLER EQ PUSH2 0x3F3 JUMPI PUSH1 0x40 MLOAD PUSH3 0x461BCD PUSH1 0xE5 SHL DUP2 MSTORE PUSH1 0x20 PUSH1 0x4 DUP3 ADD MSTORE PUSH1 0x5 PUSH1 0x24 DUP3 ADD MSTORE PUSH5 0x10B830B4B9 PUSH1 0xD9 SHL PUSH1 0x44 DUP3 ADD MSTORE PUSH1 0x64 ADD PUSH2 0x1B8 JUMP JUMPDEST PUSH1 0x1 PUSH1 0x1 PUSH1 0xA0 SHL SUB DUP7 AND ADDRESS EQ PUSH2 0x435 JUMPI PUSH1 0x40 MLOAD PUSH3 0x461BCD PUSH1 0xE5 SHL DUP2 MSTORE PUSH1 0x20 PUSH1 0x4 DUP3 ADD MSTORE PUSH1 0x7 PUSH1 0x24 DUP3 ADD MSTORE PUSH7 0x10B9B2B73232B9 PUSH1 0xC9 SHL PUSH1 0x44 DUP3 ADD MSTORE PUSH1 0x64 ADD PUSH2 0x1B8 JUMP JUMPDEST PUSH2 0x26F7 DUP2 PUSH1 0xA0 ADD MLOAD PUSH1 0x19 PUSH2 0x449 SWAP2 SWAP1 PUSH2 0x3FF9 JUMP JUMPDEST PUSH2 0x453 SWAP2 SWAP1 PUSH2 0x3FD7 JUMP JUMPDEST DUP2 PUSH1 0xA0 ADD MLOAD PUSH2 0x462 SWAP2 SWAP1 PUSH2 0x3FBF JUMP JUMPDEST PUSH2 0x46D SWAP1 PUSH1 0x1 PUSH2 0x3FBF JUMP JUMPDEST PUSH1 0xC0 DUP3 ADD MSTORE PUSH1 0x80 DUP2 ADD MLOAD DUP1 MLOAD PUSH1 0x4 SWAP1 DUP2 LT PUSH2 0x48A JUMPI PUSH2 0x48A PUSH2 0x4077 JUMP JUMPDEST PUSH1 0x20 SWAP1 DUP2 MUL SWAP2 SWAP1 SWAP2 ADD ADD MLOAD PUSH1 0x1 PUSH1 0x1 PUSH1 0xA0 SHL SUB AND PUSH1 0xE0 DUP3 ADD MSTORE PUSH1 0x80 DUP2 ADD MLOAD DUP1 MLOAD PUSH1 0x0 SWAP2 SWAP1 PUSH1 0x3 SWAP1 DUP2 LT PUSH2 0x4BF JUMPI PUSH2 0x4BF PUSH2 0x4077 JUMP JUMPDEST PUSH1 0x20 MUL PUSH1 0x20 ADD ADD MLOAD SWAP1 POP PUSH1 0x0 DUP3 PUSH1 0x80 ADD MLOAD PUSH1 0x2 DUP2 MLOAD DUP2 LT PUSH2 0x4E2 JUMPI PUSH2 0x4E2 PUSH2 0x4077 JUMP JUMPDEST PUSH1 0x20 MUL PUSH1 0x20 ADD ADD MLOAD SWAP1 POP PUSH1 0x60 DUP4 PUSH1 0x0 ADD MLOAD PUSH1 0x1 EQ ISZERO PUSH2 0x717 JUMPI PUSH2 0x522 DUP5 PUSH1 0x80 ADD MLOAD PUSH1 0x0 DUP2 MLOAD DUP2 LT PUSH2 0x515 JUMPI PUSH2 0x515 PUSH2 0x4077 JUMP JUMPDEST PUSH1 0x20 MUL PUSH1 0x20 ADD ADD MLOAD PUSH2 0x2730 JUMP JUMPDEST PUSH2 0x562 JUMPI PUSH1 0x40 MLOAD PUSH3 0x461BCD PUSH1 0xE5 SHL DUP2 MSTORE PUSH1 0x20 PUSH1 0x4 DUP3 ADD MSTORE PUSH1 0x11 PUSH1 0x24 DUP3 ADD MSTORE PUSH17 0x1896B737BA1039BA30B136329031B7B4B7 PUSH1 0x79 SHL PUSH1 0x44 DUP3 ADD MSTORE PUSH1 0x64 ADD PUSH2 0x1B8 JUMP JUMPDEST DUP4 PUSH1 0x80 ADD MLOAD PUSH1 0x1 DUP2 MLOAD DUP2 LT PUSH2 0x579 JUMPI PUSH2 0x579 PUSH2 0x4077 JUMP JUMPDEST PUSH1 0x20 MUL PUSH1 0x20 ADD ADD MLOAD PUSH1 0x1 PUSH1 0x1 PUSH1 0xA0 SHL SUB AND DUP5 PUSH1 0x80 ADD MLOAD PUSH1 0x0 DUP2 MLOAD DUP2 LT PUSH2 0x5A1 JUMPI PUSH2 0x5A1 PUSH2 0x4077 JUMP JUMPDEST PUSH1 0x20 MUL PUSH1 0x20 ADD ADD MLOAD PUSH1 0x1 PUSH1 0x1 PUSH1 0xA0 SHL SUB AND EQ PUSH2 0x5F2 JUMPI PUSH1 0x40 MLOAD PUSH3 0x461BCD PUSH1 0xE5 SHL DUP2 MSTORE PUSH1 0x20 PUSH1 0x4 DUP3 ADD MSTORE PUSH1 0x10 PUSH1 0x24 DUP3 ADD MSTORE PUSH16 0x1896903737BA1039B0B6B29031B7B4B7 PUSH1 0x81 SHL PUSH1 0x44 DUP3 ADD MSTORE PUSH1 0x64 ADD PUSH2 0x1B8 JUMP JUMPDEST PUSH2 0x65C DUP5 PUSH1 0x80 ADD MLOAD PUSH1 0x0 DUP2 MLOAD DUP2 LT PUSH2 0x60C JUMPI PUSH2 0x60C PUSH2 0x4077 JUMP JUMPDEST PUSH1 0x20 MUL PUSH1 0x20 ADD ADD MLOAD DUP6 PUSH1 0x80 ADD MLOAD PUSH1 0x1 DUP2 MLOAD DUP2 LT PUSH2 0x62B JUMPI PUSH2 0x62B PUSH2 0x4077 JUMP JUMPDEST PUSH1 0x20 MUL PUSH1 0x20 ADD ADD MLOAD DUP7 PUSH1 0x80 ADD MLOAD PUSH1 0x4 DUP2 MLOAD DUP2 LT PUSH2 0x64A JUMPI PUSH2 0x64A PUSH2 0x4077 JUMP JUMPDEST PUSH1 0x20 MUL PUSH1 0x20 ADD ADD MLOAD DUP8 PUSH1 0xA0 ADD MLOAD PUSH2 0x27A6 JUMP JUMPDEST POP PUSH2 0x100 DUP6 ADD MSTORE PUSH1 0x80 DUP5 ADD MLOAD DUP1 MLOAD PUSH2 0x6B2 SWAP2 SWAP1 PUSH1 0x1 SWAP1 DUP2 LT PUSH2 0x680 JUMPI PUSH2 0x680 PUSH2 0x4077 JUMP JUMPDEST PUSH1 0x20 MUL PUSH1 0x20 ADD ADD MLOAD DUP6 PUSH1 0x80 ADD MLOAD PUSH1 0x2 DUP2 MLOAD DUP2 LT PUSH2 0x69F JUMPI PUSH2 0x69F PUSH2 0x4077 JUMP JUMPDEST PUSH1 0x20 MUL PUSH1 0x20 ADD ADD MLOAD DUP7 PUSH2 0x100 ADD MLOAD PUSH2 0x2BB9 JUMP JUMPDEST PUSH2 0x120 DUP6 ADD DUP2 SWAP1 MSTORE PUSH1 0xC0 DUP6 ADD MLOAD LT PUSH2 0x6F7 JUMPI PUSH1 0x40 MLOAD PUSH3 0x461BCD PUSH1 0xE5 SHL DUP2 MSTORE PUSH1 0x20 PUSH1 0x4 DUP3 ADD MSTORE PUSH1 0x8 PUSH1 0x24 DUP3 ADD MSTORE PUSH8 0x6E6F206578747261 PUSH1 0xC0 SHL PUSH1 0x44 DUP3 ADD MSTORE PUSH1 0x64 ADD PUSH2 0x1B8 JUMP JUMPDEST DUP4 PUSH1 0xC0 ADD MLOAD DUP5 PUSH2 0x120 ADD MLOAD PUSH2 0x70C SWAP2 SWAP1 PUSH2 0x4018 JUMP JUMPDEST PUSH2 0x140 DUP6 ADD MSTORE PUSH2 0x16F9 JUMP JUMPDEST DUP4 MLOAD PUSH1 0x2 EQ ISZERO PUSH2 0x9C8 JUMPI PUSH2 0x765 DUP5 PUSH1 0x80 ADD MLOAD PUSH1 0x0 DUP2 MLOAD DUP2 LT PUSH2 0x73B JUMPI PUSH2 0x73B PUSH2 0x4077 JUMP JUMPDEST PUSH1 0x20 MUL PUSH1 0x20 ADD ADD MLOAD PUSH1 0x1 PUSH1 0x1 PUSH1 0xA0 SHL SUB AND PUSH20 0xA07C5B74C9B40447A954E1466938B865B6BBEA36 EQ SWAP1 JUMP JUMPDEST ISZERO PUSH2 0x92A JUMPI PUSH1 0xA0 DUP5 ADD MLOAD PUSH1 0x40 MLOAD PUSH4 0x2E1A7D4D PUSH1 0xE0 SHL DUP2 MSTORE PUSH1 0x4 DUP2 ADD SWAP2 SWAP1 SWAP2 MSTORE PUSH20 0xBB4CDB9CBD36B01BD1CBAEBF2DE08D9173BC095C SWAP1 PUSH4 0x2E1A7D4D SWAP1 PUSH1 0x24 ADD PUSH1 0x0 PUSH1 0x40 MLOAD DUP1 DUP4 SUB DUP2 PUSH1 0x0 DUP8 DUP1 EXTCODESIZE ISZERO DUP1 ISZERO PUSH2 0x7BD JUMPI PUSH1 0x0 DUP1 REVERT JUMPDEST POP GAS CALL ISZERO DUP1 ISZERO PUSH2 0x7D1 JUMPI RETURNDATASIZE PUSH1 0x0 DUP1 RETURNDATACOPY RETURNDATASIZE PUSH1 0x0 REVERT JUMPDEST POP POP POP POP PUSH2 0x7EF DUP5 PUSH1 0x80 ADD MLOAD PUSH1 0x0 DUP2 MLOAD DUP2 LT PUSH2 0x60C JUMPI PUSH2 0x60C PUSH2 0x4077 JUMP JUMPDEST POP PUSH2 0x100 DUP6 ADD MSTORE PUSH1 0x80 DUP5 ADD MLOAD DUP1 MLOAD PUSH2 0x813 SWAP2 SWAP1 PUSH1 0x1 SWAP1 DUP2 LT PUSH2 0x680 JUMPI PUSH2 0x680 PUSH2 0x4077 JUMP JUMPDEST PUSH2 0x120 DUP6 ADD DUP2 SWAP1 MSTORE PUSH1 0xC0 DUP6 ADD MLOAD LT PUSH2 0x85C JUMPI PUSH1 0x40 MLOAD PUSH3 0x461BCD PUSH1 0xE5 SHL DUP2 MSTORE PUSH1 0x20 PUSH1 0x4 DUP3 ADD MSTORE PUSH1 0xC PUSH1 0x24 DUP3 ADD MSTORE PUSH12 0x322E312D6E6F2D6578747261 PUSH1 0xA0 SHL PUSH1 0x44 DUP3 ADD MSTORE PUSH1 0x64 ADD PUSH2 0x1B8 JUMP JUMPDEST PUSH20 0xBB4CDB9CBD36B01BD1CBAEBF2DE08D9173BC095C PUSH1 0x1 PUSH1 0x1 PUSH1 0xA0 SHL SUB AND PUSH4 0xD0E30DB0 DUP6 PUSH2 0x120 ADD MLOAD PUSH1 0x40 MLOAD DUP3 PUSH4 0xFFFFFFFF AND PUSH1 0xE0 SHL DUP2 MSTORE PUSH1 0x4 ADD PUSH1 0x0 PUSH1 0x40 MLOAD DUP1 DUP4 SUB DUP2 DUP6 DUP9 DUP1 EXTCODESIZE ISZERO DUP1 ISZERO PUSH2 0x8B0 JUMPI PUSH1 0x0 DUP1 REVERT JUMPDEST POP GAS CALL ISZERO DUP1 ISZERO PUSH2 0x8C4 JUMPI RETURNDATASIZE PUSH1 0x0 DUP1 RETURNDATACOPY RETURNDATASIZE PUSH1 0x0 REVERT JUMPDEST POP POP POP POP POP PUSH1 0x0 DUP5 PUSH1 0xC0 ADD MLOAD DUP6 PUSH2 0x120 ADD MLOAD PUSH2 0x8E0 SWAP2 SWAP1 PUSH2 0x4018 JUMP JUMPDEST SWAP1 POP PUSH2 0x8F1 DUP2 DUP7 PUSH1 0x60 ADD MLOAD ADDRESS PUSH2 0x2EA8 JUMP JUMPDEST SWAP2 POP DUP2 PUSH1 0x1 DUP4 MLOAD PUSH2 0x902 SWAP2 SWAP1 PUSH2 0x4018 JUMP JUMPDEST DUP2 MLOAD DUP2 LT PUSH2 0x912 JUMPI PUSH2 0x912 PUSH2 0x4077 JUMP JUMPDEST PUSH1 0x20 MUL PUSH1 0x20 ADD ADD MLOAD DUP6 PUSH2 0x140 ADD DUP2 DUP2 MSTORE POP POP POP PUSH2 0x16F9 JUMP JUMPDEST PUSH2 0x944 DUP5 PUSH1 0x80 ADD MLOAD PUSH1 0x0 DUP2 MLOAD DUP2 LT PUSH2 0x60C JUMPI PUSH2 0x60C PUSH2 0x4077 JUMP JUMPDEST POP PUSH2 0x100 DUP6 ADD MSTORE PUSH1 0x80 DUP5 ADD MLOAD DUP1 MLOAD PUSH2 0x968 SWAP2 SWAP1 PUSH1 0x1 SWAP1 DUP2 LT PUSH2 0x680 JUMPI PUSH2 0x680 PUSH2 0x4077 JUMP JUMPDEST PUSH2 0x120 DUP6 ADD DUP2 SWAP1 MSTORE PUSH1 0xC0 DUP6 ADD MLOAD LT PUSH2 0x9B1 JUMPI PUSH1 0x40 MLOAD PUSH3 0x461BCD PUSH1 0xE5 SHL DUP2 MSTORE PUSH1 0x20 PUSH1 0x4 DUP3 ADD MSTORE PUSH1 0xC PUSH1 0x24 DUP3 ADD MSTORE PUSH12 0x322E322D6E6F2D6578747261 PUSH1 0xA0 SHL PUSH1 0x44 DUP3 ADD MSTORE PUSH1 0x64 ADD PUSH2 0x1B8 JUMP JUMPDEST PUSH1 0x0 DUP5 PUSH1 0xC0 ADD MLOAD DUP6 PUSH2 0x120 ADD MLOAD PUSH2 0x8E0 SWAP2 SWAP1 PUSH2 0x4018 JUMP JUMPDEST DUP4 MLOAD PUSH1 0x3 EQ ISZERO PUSH2 0xC6B JUMPI PUSH2 0x9EC DUP5 PUSH1 0x80 ADD MLOAD PUSH1 0x1 DUP2 MLOAD DUP2 LT PUSH2 0x515 JUMPI PUSH2 0x515 PUSH2 0x4077 JUMP JUMPDEST PUSH2 0xA42 JUMPI PUSH1 0x40 MLOAD PUSH3 0x461BCD PUSH1 0xE5 SHL DUP2 MSTORE PUSH1 0x20 PUSH1 0x4 DUP3 ADD MSTORE PUSH1 0x21 PUSH1 0x24 DUP3 ADD MSTORE PUSH32 0x332D7365697A656420746F6B656E206973206E6F7420737461626C6520636F69 PUSH1 0x44 DUP3 ADD MSTORE PUSH1 0x37 PUSH1 0xF9 SHL PUSH1 0x64 DUP3 ADD MSTORE PUSH1 0x84 ADD PUSH2 0x1B8 JUMP JUMPDEST PUSH2 0xA5C DUP5 PUSH1 0x80 ADD MLOAD PUSH1 0x0 DUP2 MLOAD DUP2 LT PUSH2 0x73B JUMPI PUSH2 0x73B PUSH2 0x4077 JUMP JUMPDEST ISZERO PUSH2 0xBAF JUMPI PUSH1 0xA0 DUP5 ADD MLOAD PUSH1 0x40 MLOAD PUSH4 0x2E1A7D4D PUSH1 0xE0 SHL DUP2 MSTORE PUSH1 0x4 DUP2 ADD SWAP2 SWAP1 SWAP2 MSTORE PUSH20 0xBB4CDB9CBD36B01BD1CBAEBF2DE08D9173BC095C SWAP1 PUSH4 0x2E1A7D4D SWAP1 PUSH1 0x24 ADD PUSH1 0x0 PUSH1 0x40 MLOAD DUP1 DUP4 SUB DUP2 PUSH1 0x0 DUP8 DUP1 EXTCODESIZE ISZERO DUP1 ISZERO PUSH2 0xAB4 JUMPI PUSH1 0x0 DUP1 REVERT JUMPDEST POP GAS CALL ISZERO DUP1 ISZERO PUSH2 0xAC8 JUMPI RETURNDATASIZE PUSH1 0x0 DUP1 RETURNDATACOPY RETURNDATASIZE PUSH1 0x0 REVERT JUMPDEST POP POP POP POP PUSH2 0xAE6 DUP5 PUSH1 0x80 ADD MLOAD PUSH1 0x0 DUP2 MLOAD DUP2 LT PUSH2 0x60C JUMPI PUSH2 0x60C PUSH2 0x4077 JUMP JUMPDEST POP PUSH2 0x100 DUP6 ADD MSTORE PUSH1 0x80 DUP5 ADD MLOAD DUP1 MLOAD PUSH2 0xB0A SWAP2 SWAP1 PUSH1 0x1 SWAP1 DUP2 LT PUSH2 0x680 JUMPI PUSH2 0x680 PUSH2 0x4077 JUMP JUMPDEST PUSH2 0x120 DUP6 ADD MSTORE PUSH1 0xC0 DUP5 ADD MLOAD PUSH1 0x40 DUP6 ADD MLOAD PUSH2 0xB25 SWAP2 SWAP1 ADDRESS PUSH2 0x2FF1 JUMP JUMPDEST SWAP1 POP DUP1 PUSH1 0x0 DUP2 MLOAD DUP2 LT PUSH2 0xB3A JUMPI PUSH2 0xB3A PUSH2 0x4077 JUMP JUMPDEST PUSH1 0x20 MUL PUSH1 0x20 ADD ADD MLOAD DUP5 PUSH2 0x120 ADD MLOAD GT PUSH2 0xB84 JUMPI PUSH1 0x40 MLOAD PUSH3 0x461BCD PUSH1 0xE5 SHL DUP2 MSTORE PUSH1 0x20 PUSH1 0x4 DUP3 ADD MSTORE PUSH1 0xC PUSH1 0x24 DUP3 ADD MSTORE PUSH12 0x332E312D6E6F2D6578747261 PUSH1 0xA0 SHL PUSH1 0x44 DUP3 ADD MSTORE PUSH1 0x64 ADD PUSH2 0x1B8 JUMP JUMPDEST DUP1 PUSH1 0x0 DUP2 MLOAD DUP2 LT PUSH2 0xB97 JUMPI PUSH2 0xB97 PUSH2 0x4077 JUMP JUMPDEST PUSH1 0x20 MUL PUSH1 0x20 ADD ADD MLOAD DUP5 PUSH2 0x120 ADD MLOAD PUSH2 0x70C SWAP2 SWAP1 PUSH2 0x4018 JUMP JUMPDEST PUSH2 0xBC9 DUP5 PUSH1 0x80 ADD MLOAD PUSH1 0x0 DUP2 MLOAD DUP2 LT PUSH2 0x60C JUMPI PUSH2 0x60C PUSH2 0x4077 JUMP JUMPDEST POP PUSH2 0x100 DUP6 ADD MSTORE PUSH1 0x80 DUP5 ADD MLOAD DUP1 MLOAD PUSH2 0xBED SWAP2 SWAP1 PUSH1 0x1 SWAP1 DUP2 LT PUSH2 0x680 JUMPI PUSH2 0x680 PUSH2 0x4077 JUMP JUMPDEST PUSH2 0x120 DUP6 ADD MSTORE PUSH1 0xC0 DUP5 ADD MLOAD PUSH1 0x40 DUP6 ADD MLOAD PUSH2 0xC08 SWAP2 SWAP1 ADDRESS PUSH2 0x2FF1 JUMP JUMPDEST SWAP1 POP DUP1 PUSH1 0x0 DUP2 MLOAD DUP2 LT PUSH2 0xC1D JUMPI PUSH2 0xC1D PUSH2 0x4077 JUMP JUMPDEST PUSH1 0x20 MUL PUSH1 0x20 ADD ADD MLOAD DUP5 PUSH2 0x120 ADD MLOAD GT PUSH2 0xB84 JUMPI PUSH1 0x40 MLOAD PUSH3 0x461BCD PUSH1 0xE5 SHL DUP2 MSTORE PUSH1 0x20 PUSH1 0x4 DUP3 ADD MSTORE PUSH1 0x10 PUSH1 0x24 DUP3 ADD MSTORE PUSH16 0x332E322D626E622D6E6F2D6578747261 PUSH1 0x80 SHL PUSH1 0x44 DUP3 ADD MSTORE PUSH1 0x64 ADD PUSH2 0x1B8 JUMP JUMPDEST DUP4 MLOAD PUSH1 0x4 EQ ISZERO PUSH2 0xF12 JUMPI PUSH2 0xC8F DUP5 PUSH1 0x80 ADD MLOAD PUSH1 0x0 DUP2 MLOAD DUP2 LT PUSH2 0x515 JUMPI PUSH2 0x515 PUSH2 0x4077 JUMP JUMPDEST PUSH2 0xCDB JUMPI PUSH1 0x40 MLOAD PUSH3 0x461BCD PUSH1 0xE5 SHL DUP2 MSTORE PUSH1 0x20 PUSH1 0x4 DUP3 ADD MSTORE PUSH1 0x1F PUSH1 0x24 DUP3 ADD MSTORE PUSH32 0x342D7265706179546F6B656E206973206E6F7420737461626C6520636F696E00 PUSH1 0x44 DUP3 ADD MSTORE PUSH1 0x64 ADD PUSH2 0x1B8 JUMP JUMPDEST PUSH2 0xCF5 DUP5 PUSH1 0x80 ADD MLOAD PUSH1 0x1 DUP2 MLOAD DUP2 LT PUSH2 0x73B JUMPI PUSH2 0x73B PUSH2 0x4077 JUMP JUMPDEST ISZERO PUSH2 0xE4D JUMPI PUSH2 0xD14 DUP5 PUSH1 0x80 ADD MLOAD PUSH1 0x0 DUP2 MLOAD DUP2 LT PUSH2 0x60C JUMPI PUSH2 0x60C PUSH2 0x4077 JUMP JUMPDEST POP PUSH2 0x100 DUP6 ADD MSTORE PUSH1 0x80 DUP5 ADD MLOAD DUP1 MLOAD PUSH2 0xD38 SWAP2 SWAP1 PUSH1 0x1 SWAP1 DUP2 LT PUSH2 0x680 JUMPI PUSH2 0x680 PUSH2 0x4077 JUMP JUMPDEST DUP5 PUSH2 0x120 ADD DUP2 DUP2 MSTORE POP POP PUSH20 0xBB4CDB9CBD36B01BD1CBAEBF2DE08D9173BC095C PUSH1 0x1 PUSH1 0x1 PUSH1 0xA0 SHL SUB AND PUSH4 0xD0E30DB0 DUP6 PUSH2 0x120 ADD MLOAD PUSH1 0x40 MLOAD DUP3 PUSH4 0xFFFFFFFF AND PUSH1 0xE0 SHL DUP2 MSTORE PUSH1 0x4 ADD PUSH1 0x0 PUSH1 0x40 MLOAD DUP1 DUP4 SUB DUP2 DUP6 DUP9 DUP1 EXTCODESIZE ISZERO DUP1 ISZERO PUSH2 0xD96 JUMPI PUSH1 0x0 DUP1 REVERT JUMPDEST POP GAS CALL ISZERO DUP1 ISZERO PUSH2 0xDAA JUMPI RETURNDATASIZE PUSH1 0x0 DUP1 RETURNDATACOPY RETURNDATASIZE PUSH1 0x0 REVERT JUMPDEST POP POP POP POP POP PUSH2 0xDC3 DUP5 PUSH2 0x120 ADD MLOAD DUP6 PUSH1 0x40 ADD MLOAD ADDRESS PUSH2 0x2EA8 JUMP JUMPDEST SWAP1 POP PUSH1 0x0 DUP2 PUSH1 0x1 DUP4 MLOAD PUSH2 0xDD6 SWAP2 SWAP1 PUSH2 0x4018 JUMP JUMPDEST DUP2 MLOAD DUP2 LT PUSH2 0xDE6 JUMPI PUSH2 0xDE6 PUSH2 0x4077 JUMP JUMPDEST PUSH1 0x20 MUL PUSH1 0x20 ADD ADD MLOAD SWAP1 POP DUP5 PUSH1 0xC0 ADD MLOAD DUP2 GT PUSH2 0xE32 JUMPI PUSH1 0x40 MLOAD PUSH3 0x461BCD PUSH1 0xE5 SHL DUP2 MSTORE PUSH1 0x20 PUSH1 0x4 DUP3 ADD MSTORE PUSH1 0xC PUSH1 0x24 DUP3 ADD MSTORE PUSH12 0x342E312D6E6F206578747261 PUSH1 0xA0 SHL PUSH1 0x44 DUP3 ADD MSTORE PUSH1 0x64 ADD PUSH2 0x1B8 JUMP JUMPDEST PUSH1 0xC0 DUP6 ADD MLOAD PUSH2 0xE41 SWAP1 DUP3 PUSH2 0x4018 JUMP JUMPDEST PUSH2 0x140 DUP7 ADD MSTORE POP PUSH2 0x16F9 JUMP JUMPDEST PUSH2 0xE67 DUP5 PUSH1 0x80 ADD MLOAD PUSH1 0x0 DUP2 MLOAD DUP2 LT PUSH2 0x60C JUMPI PUSH2 0x60C PUSH2 0x4077 JUMP JUMPDEST POP PUSH2 0x100 DUP6 ADD MSTORE PUSH1 0x80 DUP5 ADD MLOAD DUP1 MLOAD PUSH2 0xE8B SWAP2 SWAP1 PUSH1 0x1 SWAP1 DUP2 LT PUSH2 0x680 JUMPI PUSH2 0x680 PUSH2 0x4077 JUMP JUMPDEST PUSH2 0x120 DUP6 ADD DUP2 SWAP1 MSTORE PUSH1 0x40 DUP6 ADD MLOAD PUSH2 0xEA3 SWAP2 SWAP1 ADDRESS PUSH2 0x2EA8 JUMP JUMPDEST SWAP1 POP PUSH1 0x0 DUP2 PUSH1 0x1 DUP4 MLOAD PUSH2 0xEB6 SWAP2 SWAP1 PUSH2 0x4018 JUMP JUMPDEST DUP2 MLOAD DUP2 LT PUSH2 0xEC6 JUMPI PUSH2 0xEC6 PUSH2 0x4077 JUMP JUMPDEST PUSH1 0x20 MUL PUSH1 0x20 ADD ADD MLOAD SWAP1 POP DUP5 PUSH1 0xC0 ADD MLOAD DUP2 GT PUSH2 0xE32 JUMPI PUSH1 0x40 MLOAD PUSH3 0x461BCD PUSH1 0xE5 SHL DUP2 MSTORE PUSH1 0x20 PUSH1 0x4 DUP3 ADD MSTORE PUSH1 0xC PUSH1 0x24 DUP3 ADD MSTORE PUSH12 0x342E322D6E6F206578747261 PUSH1 0xA0 SHL PUSH1 0x44 DUP3 ADD MSTORE PUSH1 0x64 ADD PUSH2 0x1B8 JUMP JUMPDEST DUP4 MLOAD PUSH1 0x5 EQ ISZERO PUSH2 0x122A JUMPI PUSH2 0xF36 DUP5 PUSH1 0x80 ADD MLOAD PUSH1 0x0 DUP2 MLOAD DUP2 LT PUSH2 0x73B JUMPI PUSH2 0x73B PUSH2 0x4077 JUMP JUMPDEST ISZERO PUSH2 0x108B JUMPI PUSH1 0xA0 DUP5 ADD MLOAD PUSH1 0x40 MLOAD PUSH4 0x2E1A7D4D PUSH1 0xE0 SHL DUP2 MSTORE PUSH1 0x4 DUP2 ADD SWAP2 SWAP1 SWAP2 MSTORE PUSH20 0xBB4CDB9CBD36B01BD1CBAEBF2DE08D9173BC095C SWAP1 PUSH4 0x2E1A7D4D SWAP1 PUSH1 0x24 ADD PUSH1 0x0 PUSH1 0x40 MLOAD DUP1 DUP4 SUB DUP2 PUSH1 0x0 DUP8 DUP1 EXTCODESIZE ISZERO DUP1 ISZERO PUSH2 0xF8E JUMPI PUSH1 0x0 DUP1 REVERT JUMPDEST POP GAS CALL ISZERO DUP1 ISZERO PUSH2 0xFA2 JUMPI RETURNDATASIZE PUSH1 0x0 DUP1 RETURNDATACOPY RETURNDATASIZE PUSH1 0x0 REVERT JUMPDEST POP POP POP POP PUSH2 0xFC0 DUP5 PUSH1 0x80 ADD MLOAD PUSH1 0x0 DUP2 MLOAD DUP2 LT PUSH2 0x60C JUMPI PUSH2 0x60C PUSH2 0x4077 JUMP JUMPDEST POP PUSH2 0x100 DUP6 ADD MSTORE PUSH1 0x80 DUP5 ADD MLOAD DUP1 MLOAD PUSH2 0xFE4 SWAP2 SWAP1 PUSH1 0x1 SWAP1 DUP2 LT PUSH2 0x680 JUMPI PUSH2 0x680 PUSH2 0x4077 JUMP JUMPDEST PUSH2 0x120 DUP6 ADD MSTORE PUSH1 0xC0 DUP5 ADD MLOAD PUSH1 0x40 DUP6 ADD MLOAD PUSH2 0xFFF SWAP2 SWAP1 ADDRESS PUSH2 0x2FF1 JUMP JUMPDEST SWAP1 POP DUP1 PUSH1 0x0 DUP2 MLOAD DUP2 LT PUSH2 0x1014 JUMPI PUSH2 0x1014 PUSH2 0x4077 JUMP JUMPDEST PUSH1 0x20 MUL PUSH1 0x20 ADD ADD MLOAD DUP5 PUSH2 0x120 ADD MLOAD GT PUSH2 0x105E JUMPI PUSH1 0x40 MLOAD PUSH3 0x461BCD PUSH1 0xE5 SHL DUP2 MSTORE PUSH1 0x20 PUSH1 0x4 DUP3 ADD MSTORE PUSH1 0xC PUSH1 0x24 DUP3 ADD MSTORE PUSH12 0x352E312D6E6F206578747261 PUSH1 0xA0 SHL PUSH1 0x44 DUP3 ADD MSTORE PUSH1 0x64 ADD PUSH2 0x1B8 JUMP JUMPDEST PUSH1 0x0 DUP2 PUSH1 0x0 DUP2 MLOAD DUP2 LT PUSH2 0x1073 JUMPI PUSH2 0x1073 PUSH2 0x4077 JUMP JUMPDEST PUSH1 0x20 MUL PUSH1 0x20 ADD ADD MLOAD DUP6 PUSH2 0x120 ADD MLOAD PUSH2 0x8E0 SWAP2 SWAP1 PUSH2 0x4018 JUMP JUMPDEST PUSH2 0x10A5 DUP5 PUSH1 0x80 ADD MLOAD PUSH1 0x1 DUP2 MLOAD DUP2 LT PUSH2 0x73B JUMPI PUSH2 0x73B PUSH2 0x4077 JUMP JUMPDEST ISZERO PUSH2 0x1172 JUMPI PUSH2 0x10C4 DUP5 PUSH1 0x80 ADD MLOAD PUSH1 0x0 DUP2 MLOAD DUP2 LT PUSH2 0x60C JUMPI PUSH2 0x60C PUSH2 0x4077 JUMP JUMPDEST POP PUSH2 0x100 DUP6 ADD MSTORE PUSH1 0x80 DUP5 ADD MLOAD DUP1 MLOAD PUSH2 0x10E8 SWAP2 SWAP1 PUSH1 0x1 SWAP1 DUP2 LT PUSH2 0x680 JUMPI PUSH2 0x680 PUSH2 0x4077 JUMP JUMPDEST DUP5 PUSH2 0x120 ADD DUP2 DUP2 MSTORE POP POP PUSH20 0xBB4CDB9CBD36B01BD1CBAEBF2DE08D9173BC095C PUSH1 0x1 PUSH1 0x1 PUSH1 0xA0 SHL SUB AND PUSH4 0xD0E30DB0 DUP6 PUSH2 0x120 ADD MLOAD PUSH1 0x40 MLOAD DUP3 PUSH4 0xFFFFFFFF AND PUSH1 0xE0 SHL DUP2 MSTORE PUSH1 0x4 ADD PUSH1 0x0 PUSH1 0x40 MLOAD DUP1 DUP4 SUB DUP2 DUP6 DUP9 DUP1 EXTCODESIZE ISZERO DUP1 ISZERO PUSH2 0x1146 JUMPI PUSH1 0x0 DUP1 REVERT JUMPDEST POP GAS CALL ISZERO DUP1 ISZERO PUSH2 0x115A JUMPI RETURNDATASIZE PUSH1 0x0 DUP1 RETURNDATACOPY RETURNDATASIZE PUSH1 0x0 REVERT JUMPDEST POP POP POP POP POP PUSH2 0xFFF DUP5 PUSH1 0xC0 ADD MLOAD DUP6 PUSH1 0x40 ADD MLOAD ADDRESS PUSH2 0x2FF1 JUMP JUMPDEST PUSH2 0x118C DUP5 PUSH1 0x80 ADD MLOAD PUSH1 0x0 DUP2 MLOAD DUP2 LT PUSH2 0x60C JUMPI PUSH2 0x60C PUSH2 0x4077 JUMP JUMPDEST POP PUSH2 0x100 DUP6 ADD MSTORE PUSH1 0x80 DUP5 ADD MLOAD DUP1 MLOAD PUSH2 0x11B0 SWAP2 SWAP1 PUSH1 0x1 SWAP1 DUP2 LT PUSH2 0x680 JUMPI PUSH2 0x680 PUSH2 0x4077 JUMP JUMPDEST PUSH2 0x120 DUP6 ADD MSTORE PUSH1 0xC0 DUP5 ADD MLOAD PUSH1 0x40 DUP6 ADD MLOAD PUSH2 0x11CB SWAP2 SWAP1 ADDRESS PUSH2 0x2FF1 JUMP JUMPDEST SWAP1 POP DUP1 PUSH1 0x0 DUP2 MLOAD DUP2 LT PUSH2 0x11E0 JUMPI PUSH2 0x11E0 PUSH2 0x4077 JUMP JUMPDEST PUSH1 0x20 MUL PUSH1 0x20 ADD ADD MLOAD DUP5 PUSH2 0x120 ADD MLOAD GT PUSH2 0x105E JUMPI PUSH1 0x40 MLOAD PUSH3 0x461BCD PUSH1 0xE5 SHL DUP2 MSTORE PUSH1 0x20 PUSH1 0x4 DUP3 ADD MSTORE PUSH1 0xC PUSH1 0x24 DUP3 ADD MSTORE PUSH12 0x352E332D6E6F206578747261 PUSH1 0xA0 SHL PUSH1 0x44 DUP3 ADD MSTORE PUSH1 0x64 ADD PUSH2 0x1B8 JUMP JUMPDEST DUP4 MLOAD PUSH1 0x6 EQ ISZERO PUSH2 0x142E JUMPI PUSH2 0x124E DUP5 PUSH1 0x80 ADD MLOAD PUSH1 0x1 DUP2 MLOAD DUP2 LT PUSH2 0x515 JUMPI PUSH2 0x515 PUSH2 0x4077 JUMP JUMPDEST PUSH2 0x129A JUMPI PUSH1 0x40 MLOAD PUSH3 0x461BCD PUSH1 0xE5 SHL DUP2 MSTORE PUSH1 0x20 PUSH1 0x4 DUP3 ADD DUP2 SWAP1 MSTORE PUSH1 0x24 DUP3 ADD MSTORE PUSH32 0x362D7365697A6564546F6B656E206973206E6F7420737461626C6520636F696E PUSH1 0x44 DUP3 ADD MSTORE PUSH1 0x64 ADD PUSH2 0x1B8 JUMP JUMPDEST PUSH1 0x0 PUSH2 0x1306 DUP6 PUSH1 0x80 ADD MLOAD PUSH1 0x0 DUP2 MLOAD DUP2 LT PUSH2 0x12B6 JUMPI PUSH2 0x12B6 PUSH2 0x4077 JUMP JUMPDEST PUSH1 0x20 MUL PUSH1 0x20 ADD ADD MLOAD DUP7 PUSH1 0x80 ADD MLOAD PUSH1 0x1 DUP2 MLOAD DUP2 LT PUSH2 0x12D5 JUMPI PUSH2 0x12D5 PUSH2 0x4077 JUMP JUMPDEST PUSH1 0x20 MUL PUSH1 0x20 ADD ADD MLOAD DUP8 PUSH1 0x80 ADD MLOAD PUSH1 0x4 DUP2 MLOAD DUP2 LT PUSH2 0x12F4 JUMPI PUSH2 0x12F4 PUSH2 0x4077 JUMP JUMPDEST PUSH1 0x20 MUL PUSH1 0x20 ADD ADD MLOAD DUP9 PUSH1 0xA0 ADD MLOAD PUSH2 0x27A6 JUMP JUMPDEST DUP7 PUSH2 0x100 ADD DUP2 SWAP4 POP DUP3 DUP2 MSTORE POP POP POP PUSH2 0x1360 DUP6 PUSH1 0x80 ADD MLOAD PUSH1 0x1 DUP2 MLOAD DUP2 LT PUSH2 0x132E JUMPI PUSH2 0x132E PUSH2 0x4077 JUMP JUMPDEST PUSH1 0x20 MUL PUSH1 0x20 ADD ADD MLOAD DUP7 PUSH1 0x80 ADD MLOAD PUSH1 0x2 DUP2 MLOAD DUP2 LT PUSH2 0x134D JUMPI PUSH2 0x134D PUSH2 0x4077 JUMP JUMPDEST PUSH1 0x20 MUL PUSH1 0x20 ADD ADD MLOAD DUP8 PUSH2 0x100 ADD MLOAD PUSH2 0x2BB9 JUMP JUMPDEST PUSH2 0x120 DUP7 ADD MSTORE PUSH1 0xA0 DUP6 ADD MLOAD PUSH1 0xC0 DUP7 ADD MLOAD PUSH1 0x0 SWAP2 SWAP1 PUSH2 0x137F SWAP1 DUP5 SWAP1 PUSH2 0x3FBF JUMP JUMPDEST PUSH2 0x1389 SWAP2 SWAP1 PUSH2 0x4018 JUMP JUMPDEST SWAP1 POP PUSH2 0x139A DUP2 DUP8 PUSH1 0x40 ADD MLOAD ADDRESS PUSH2 0x2FF1 JUMP JUMPDEST POP DUP3 PUSH1 0x0 DUP2 MLOAD DUP2 LT PUSH2 0x13AE JUMPI PUSH2 0x13AE PUSH2 0x4077 JUMP JUMPDEST PUSH1 0x20 MUL PUSH1 0x20 ADD ADD MLOAD DUP7 PUSH2 0x120 ADD MLOAD GT PUSH2 0x13F5 JUMPI PUSH1 0x40 MLOAD PUSH3 0x461BCD PUSH1 0xE5 SHL DUP2 MSTORE PUSH1 0x20 PUSH1 0x4 DUP3 ADD MSTORE PUSH1 0x9 PUSH1 0x24 DUP3 ADD MSTORE PUSH9 0x362D6E6F6578747261 PUSH1 0xB8 SHL PUSH1 0x44 DUP3 ADD MSTORE PUSH1 0x64 ADD PUSH2 0x1B8 JUMP JUMPDEST DUP3 PUSH1 0x0 DUP2 MLOAD DUP2 LT PUSH2 0x1408 JUMPI PUSH2 0x1408 PUSH2 0x4077 JUMP JUMPDEST PUSH1 0x20 MUL PUSH1 0x20 ADD ADD MLOAD DUP7 PUSH2 0x120 ADD MLOAD PUSH2 0x1420 SWAP2 SWAP1 PUSH2 0x4018 JUMP JUMPDEST PUSH2 0x140 DUP8 ADD MSTORE POP PUSH2 0x16F9 SWAP1 POP JUMP JUMPDEST DUP4 MLOAD PUSH1 0x7 EQ ISZERO PUSH2 0x86 JUMPI PUSH2 0x1452 DUP5 PUSH1 0x80 ADD MLOAD PUSH1 0x1 DUP2 MLOAD DUP2 LT PUSH2 0x73B JUMPI PUSH2 0x73B PUSH2 0x4077 JUMP JUMPDEST ISZERO PUSH2 0x161C JUMPI PUSH1 0x0 PUSH2 0x1473 DUP6 PUSH1 0x80 ADD MLOAD PUSH1 0x0 DUP2 MLOAD DUP2 LT PUSH2 0x12B6 JUMPI PUSH2 0x12B6 PUSH2 0x4077 JUMP JUMPDEST DUP7 PUSH2 0x100 ADD DUP2 SWAP4 POP DUP3 DUP2 MSTORE POP POP POP PUSH2 0x149B DUP6 PUSH1 0x80 ADD MLOAD PUSH1 0x1 DUP2 MLOAD DUP2 LT PUSH2 0x132E JUMPI PUSH2 0x132E PUSH2 0x4077 JUMP JUMPDEST DUP6 PUSH2 0x120 ADD DUP2 DUP2 MSTORE POP POP PUSH20 0xBB4CDB9CBD36B01BD1CBAEBF2DE08D9173BC095C PUSH1 0x1 PUSH1 0x1 PUSH1 0xA0 SHL SUB AND PUSH4 0xD0E30DB0 DUP7 PUSH2 0x120 ADD MLOAD PUSH1 0x40 MLOAD DUP3 PUSH4 0xFFFFFFFF AND PUSH1 0xE0 SHL DUP2 MSTORE PUSH1 0x4 ADD PUSH1 0x0 PUSH1 0x40 MLOAD DUP1 DUP4 SUB DUP2 DUP6 DUP9 DUP1 EXTCODESIZE ISZERO DUP1 ISZERO PUSH2 0x14F9 JUMPI PUSH1 0x0 DUP1 REVERT JUMPDEST POP GAS CALL ISZERO DUP1 ISZERO PUSH2 0x150D JUMPI RETURNDATASIZE PUSH1 0x0 DUP1 RETURNDATACOPY RETURNDATASIZE PUSH1 0x0 REVERT JUMPDEST POP POP POP POP POP PUSH1 0x0 DUP6 PUSH1 0xA0 ADD MLOAD DUP3 DUP8 PUSH1 0xC0 ADD MLOAD PUSH2 0x1529 SWAP2 SWAP1 PUSH2 0x3FBF JUMP JUMPDEST PUSH2 0x1533 SWAP2 SWAP1 PUSH2 0x4018 JUMP JUMPDEST SWAP1 POP PUSH2 0x1544 DUP2 DUP8 PUSH1 0x40 ADD MLOAD ADDRESS PUSH2 0x2FF1 JUMP JUMPDEST SWAP3 POP DUP3 PUSH1 0x0 DUP2 MLOAD DUP2 LT PUSH2 0x1559 JUMPI PUSH2 0x1559 PUSH2 0x4077 JUMP JUMPDEST PUSH1 0x20 MUL PUSH1 0x20 ADD ADD MLOAD DUP7 PUSH2 0x120 ADD MLOAD GT PUSH2 0x15A3 JUMPI PUSH1 0x40 MLOAD PUSH3 0x461BCD PUSH1 0xE5 SHL DUP2 MSTORE PUSH1 0x20 PUSH1 0x4 DUP3 ADD MSTORE PUSH1 0xC PUSH1 0x24 DUP3 ADD MSTORE PUSH12 0x372E312D6E6F206578747261 PUSH1 0xA0 SHL PUSH1 0x44 DUP3 ADD MSTORE PUSH1 0x64 ADD PUSH2 0x1B8 JUMP JUMPDEST PUSH1 0x0 DUP4 PUSH1 0x0 DUP2 MLOAD DUP2 LT PUSH2 0x15B8 JUMPI PUSH2 0x15B8 PUSH2 0x4077 JUMP JUMPDEST PUSH1 0x20 MUL PUSH1 0x20 ADD ADD MLOAD DUP8 PUSH2 0x120 ADD MLOAD PUSH2 0x15D0 SWAP2 SWAP1 PUSH2 0x4018 JUMP JUMPDEST SWAP1 POP PUSH2 0x15E1 DUP2 DUP9 PUSH1 0x60 ADD MLOAD ADDRESS PUSH2 0x2EA8 JUMP JUMPDEST SWAP4 POP DUP4 PUSH1 0x1 DUP6 MLOAD PUSH2 0x15F2 SWAP2 SWAP1 PUSH2 0x4018 JUMP JUMPDEST DUP2 MLOAD DUP2 LT PUSH2 0x1602 JUMPI PUSH2 0x1602 PUSH2 0x4077 JUMP JUMPDEST PUSH1 0x20 MUL PUSH1 0x20 ADD ADD MLOAD DUP8 PUSH2 0x140 ADD DUP2 DUP2 MSTORE POP POP POP POP POP PUSH2 0x16F9 JUMP JUMPDEST PUSH1 0x0 PUSH2 0x1638 DUP6 PUSH1 0x80 ADD MLOAD PUSH1 0x0 DUP2 MLOAD DUP2 LT PUSH2 0x12B6 JUMPI PUSH2 0x12B6 PUSH2 0x4077 JUMP JUMPDEST DUP7 PUSH2 0x100 ADD DUP2 SWAP4 POP DUP3 DUP2 MSTORE POP POP POP PUSH2 0x1660 DUP6 PUSH1 0x80 ADD MLOAD PUSH1 0x1 DUP2 MLOAD DUP2 LT PUSH2 0x132E JUMPI PUSH2 0x132E PUSH2 0x4077 JUMP JUMPDEST PUSH2 0x120 DUP7 ADD MSTORE PUSH1 0xA0 DUP6 ADD MLOAD PUSH1 0xC0 DUP7 ADD MLOAD PUSH1 0x0 SWAP2 SWAP1 PUSH2 0x167F SWAP1 DUP5 SWAP1 PUSH2 0x3FBF JUMP JUMPDEST PUSH2 0x1689 SWAP2 SWAP1 PUSH2 0x4018 JUMP JUMPDEST SWAP1 POP PUSH2 0x169A DUP2 DUP8 PUSH1 0x40 ADD MLOAD ADDRESS PUSH2 0x2FF1 JUMP JUMPDEST SWAP3 POP DUP3 PUSH1 0x0 DUP2 MLOAD DUP2 LT PUSH2 0x16AF JUMPI PUSH2 0x16AF PUSH2 0x4077 JUMP JUMPDEST PUSH1 0x20 MUL PUSH1 0x20 ADD ADD MLOAD DUP7 PUSH2 0x120 ADD MLOAD GT PUSH2 0x15A3 JUMPI PUSH1 0x40 MLOAD PUSH3 0x461BCD PUSH1 0xE5 SHL DUP2 MSTORE PUSH1 0x20 PUSH1 0x4 DUP3 ADD MSTORE PUSH1 0xC PUSH1 0x24 DUP3 ADD MSTORE PUSH12 0x372E322D6E6F206578747261 PUSH1 0xA0 SHL PUSH1 0x44 DUP3 ADD MSTORE PUSH1 0x64 ADD PUSH2 0x1B8 JUMP JUMPDEST PUSH1 0x20 DUP5 ADD MLOAD PUSH1 0xC0 DUP6 ADD MLOAD PUSH1 0x40 MLOAD PUSH4 0xA9059CBB PUSH1 0xE0 SHL DUP2 MSTORE PUSH1 0x1 PUSH1 0x1 PUSH1 0xA0 SHL SUB DUP7 AND SWAP3 PUSH4 0xA9059CBB SWAP3 PUSH2 0x1741 SWAP3 PUSH1 0x4 ADD PUSH1 0x1 PUSH1 0x1 PUSH1 0xA0 SHL SUB SWAP3 SWAP1 SWAP3 AND DUP3 MSTORE PUSH1 0x20 DUP3 ADD MSTORE PUSH1 0x40 ADD SWAP1 JUMP JUMPDEST PUSH1 0x20 PUSH1 0x40 MLOAD DUP1 DUP4 SUB DUP2 PUSH1 0x0 DUP8 DUP1 EXTCODESIZE ISZERO DUP1 ISZERO PUSH2 0x175B JUMPI PUSH1 0x0 DUP1 REVERT JUMPDEST POP GAS CALL ISZERO DUP1 ISZERO PUSH2 0x176F JUMPI RETURNDATASIZE PUSH1 0x0 DUP1 RETURNDATACOPY RETURNDATASIZE PUSH1 0x0 REVERT JUMPDEST POP POP POP POP PUSH1 0x40 MLOAD RETURNDATASIZE PUSH1 0x1F NOT PUSH1 0x1F DUP3 ADD AND DUP3 ADD DUP1 PUSH1 0x40 MSTORE POP DUP2 ADD SWAP1 PUSH2 0x1793 SWAP2 SWAP1 PUSH2 0x3BD6 JUMP JUMPDEST POP DUP4 MLOAD PUSH1 0xA0 DUP1 DUP7 ADD MLOAD PUSH1 0xC0 DUP1 DUP9 ADD MLOAD PUSH2 0x120 DUP10 ADD MLOAD PUSH2 0x140 DUP11 ADD MLOAD PUSH1 0x40 DUP1 MLOAD SWAP8 DUP9 MSTORE PUSH1 0x1 PUSH1 0x1 PUSH1 0xA0 SHL SUB DUP1 DUP13 AND PUSH1 0x20 DUP11 ADD MSTORE SWAP1 DUP9 ADD SWAP6 SWAP1 SWAP6 MSTORE SWAP4 DUP9 AND PUSH1 0x60 DUP8 ADD MSTORE PUSH1 0x80 DUP7 ADD SWAP2 SWAP1 SWAP2 MSTORE SWAP3 DUP5 ADD SWAP3 SWAP1 SWAP3 MSTORE SWAP1 DUP3 ADD MSTORE PUSH32 0xEE80F069D389B1636BFE8A115FF1D8AD940B394B4D16BB19C8503003D14DD5B4 SWAP1 PUSH1 0xE0 ADD PUSH1 0x40 MLOAD DUP1 SWAP2 SUB SWAP1 LOG1 POP POP POP POP POP POP POP POP POP JUMP JUMPDEST PUSH1 0x0 SLOAD PUSH1 0x1 PUSH1 0x1 PUSH1 0xA0 SHL SUB AND CALLER EQ PUSH2 0x1849 JUMPI PUSH1 0x40 MLOAD PUSH3 0x461BCD PUSH1 0xE5 SHL DUP2 MSTORE PUSH1 0x4 ADD PUSH2 0x1B8 SWAP1 PUSH2 0x3E67 JUMP JUMPDEST PUSH1 0x0 PUSH8 0xDE0B6B3A7640000 SWAP1 POP PUSH20 0xBB4CDB9CBD36B01BD1CBAEBF2DE08D9173BC095C PUSH1 0x1 PUSH1 0x1 PUSH1 0xA0 SHL SUB AND PUSH4 0xD0E30DB0 DUP3 PUSH1 0x40 MLOAD DUP3 PUSH4 0xFFFFFFFF AND PUSH1 0xE0 SHL DUP2 MSTORE PUSH1 0x4 ADD PUSH1 0x0 PUSH1 0x40 MLOAD DUP1 DUP4 SUB DUP2 DUP6 DUP9 DUP1 EXTCODESIZE ISZERO DUP1 ISZERO PUSH2 0x18A5 JUMPI PUSH1 0x0 DUP1 REVERT JUMPDEST POP GAS CALL ISZERO DUP1 ISZERO PUSH2 0x18B9 JUMPI RETURNDATASIZE PUSH1 0x0 DUP1 RETURNDATACOPY RETURNDATASIZE PUSH1 0x0 REVERT JUMPDEST POP PUSH1 0x0 SWAP4 POP PUSH1 0x2 SWAP3 POP PUSH2 0x18CA SWAP2 POP POP JUMP JUMPDEST PUSH1 0x40 MLOAD SWAP1 DUP1 DUP3 MSTORE DUP1 PUSH1 0x20 MUL PUSH1 0x20 ADD DUP3 ADD PUSH1 0x40 MSTORE DUP1 ISZERO PUSH2 0x18F3 JUMPI DUP2 PUSH1 0x20 ADD PUSH1 0x20 DUP3 MUL DUP1 CALLDATASIZE DUP4 CALLDATACOPY ADD SWAP1 POP JUMPDEST POP SWAP1 POP PUSH20 0xBB4CDB9CBD36B01BD1CBAEBF2DE08D9173BC095C DUP2 PUSH1 0x0 DUP2 MLOAD DUP2 LT PUSH2 0x191E JUMPI PUSH2 0x191E PUSH2 0x4077 JUMP JUMPDEST PUSH1 0x20 MUL PUSH1 0x20 ADD ADD SWAP1 PUSH1 0x1 PUSH1 0x1 PUSH1 0xA0 SHL SUB AND SWAP1 DUP2 PUSH1 0x1 PUSH1 0x1 PUSH1 0xA0 SHL SUB AND DUP2 MSTORE POP POP DUP3 DUP2 PUSH1 0x1 DUP2 MLOAD DUP2 LT PUSH2 0x1952 JUMPI PUSH2 0x1952 PUSH2 0x4077 JUMP JUMPDEST PUSH1 0x20 MUL PUSH1 0x20 ADD ADD SWAP1 PUSH1 0x1 PUSH1 0x1 PUSH1 0xA0 SHL SUB AND SWAP1 DUP2 PUSH1 0x1 PUSH1 0x1 PUSH1 0xA0 SHL SUB AND DUP2 MSTORE POP POP PUSH2 0x197D DUP3 DUP3 ADDRESS PUSH2 0x2EA8 JUMP JUMPDEST POP POP POP POP JUMP JUMPDEST PUSH1 0x1 DUP10 LT ISZERO DUP1 ISZERO PUSH2 0x1995 JUMPI POP PUSH1 0x7 DUP10 GT ISZERO JUMPDEST PUSH2 0x19CC JUMPI PUSH1 0x40 MLOAD PUSH3 0x461BCD PUSH1 0xE5 SHL DUP2 MSTORE PUSH1 0x20 PUSH1 0x4 DUP3 ADD MSTORE PUSH1 0x8 PUSH1 0x24 DUP3 ADD MSTORE PUSH8 0x77726F6E67207369 PUSH1 0xC0 SHL PUSH1 0x44 DUP3 ADD MSTORE PUSH1 0x64 ADD PUSH2 0x1B8 JUMP JUMPDEST PUSH1 0x1 PUSH1 0x1 PUSH1 0xA0 SHL SUB DUP9 AND PUSH2 0x1A0A JUMPI PUSH1 0x40 MLOAD PUSH3 0x461BCD PUSH1 0xE5 SHL DUP2 MSTORE PUSH1 0x20 PUSH1 0x4 DUP3 ADD MSTORE PUSH1 0x5 PUSH1 0x24 DUP3 ADD MSTORE PUSH5 0x10B830B4B9 PUSH1 0xD9 SHL PUSH1 0x44 DUP3 ADD MSTORE PUSH1 0x64 ADD PUSH2 0x1B8 JUMP JUMPDEST PUSH1 0x0 PUSH20 0xFD36E2C2A6789DB23113685031D7F16329158384 PUSH4 0x5EC88C79 DUP6 DUP6 PUSH1 0x4 DUP2 DUP2 LT PUSH2 0x1A39 JUMPI PUSH2 0x1A39 PUSH2 0x4077 JUMP JUMPDEST SWAP1 POP PUSH1 0x20 MUL ADD PUSH1 0x20 DUP2 ADD SWAP1 PUSH2 0x1A4E SWAP2 SWAP1 PUSH2 0x3A99 JUMP JUMPDEST PUSH1 0x40 MLOAD PUSH1 0x1 PUSH1 0x1 PUSH1 0xE0 SHL SUB NOT PUSH1 0xE0 DUP5 SWAP1 SHL AND DUP2 MSTORE PUSH1 0x1 PUSH1 0x1 PUSH1 0xA0 SHL SUB SWAP1 SWAP2 AND PUSH1 0x4 DUP3 ADD MSTORE PUSH1 0x24 ADD PUSH1 0x60 PUSH1 0x40 MLOAD DUP1 DUP4 SUB DUP2 DUP7 DUP1 EXTCODESIZE ISZERO DUP1 ISZERO PUSH2 0x1A8D JUMPI PUSH1 0x0 DUP1 REVERT JUMPDEST POP GAS STATICCALL ISZERO DUP1 ISZERO PUSH2 0x1AA1 JUMPI RETURNDATASIZE PUSH1 0x0 DUP1 RETURNDATACOPY RETURNDATASIZE PUSH1 0x0 REVERT JUMPDEST POP POP POP POP PUSH1 0x40 MLOAD RETURNDATASIZE PUSH1 0x1F NOT PUSH1 0x1F DUP3 ADD AND DUP3 ADD DUP1 PUSH1 0x40 MSTORE POP DUP2 ADD SWAP1 PUSH2 0x1AC5 SWAP2 SWAP1 PUSH2 0x3DF0 JUMP JUMPDEST SWAP3 POP POP POP PUSH1 0x0 DUP2 GT PUSH2 0x1B23 JUMPI PUSH1 0x40 MLOAD PUSH3 0x461BCD PUSH1 0xE5 SHL DUP2 MSTORE PUSH1 0x20 PUSH1 0x4 DUP3 ADD MSTORE PUSH1 0x21 PUSH1 0x24 DUP3 ADD MSTORE PUSH32 0x73686F727466616C6C206D7573742067726561746572207468616E207A657220 PUSH1 0x44 DUP3 ADD MSTORE PUSH1 0x3 PUSH1 0xFC SHL PUSH1 0x64 DUP3 ADD MSTORE PUSH1 0x84 ADD PUSH2 0x1B8 JUMP JUMPDEST PUSH1 0x0 DUP5 DUP5 PUSH1 0x0 DUP2 DUP2 LT PUSH2 0x1B38 JUMPI PUSH2 0x1B38 PUSH2 0x4077 JUMP JUMPDEST SWAP1 POP PUSH1 0x20 MUL ADD PUSH1 0x20 DUP2 ADD SWAP1 PUSH2 0x1B4D SWAP2 SWAP1 PUSH2 0x3A99 JUMP JUMPDEST PUSH1 0x1 PUSH1 0x1 PUSH1 0xA0 SHL SUB AND PUSH4 0x95DD9193 DUP7 DUP7 PUSH1 0x4 DUP2 DUP2 LT PUSH2 0x1B6E JUMPI PUSH2 0x1B6E PUSH2 0x4077 JUMP JUMPDEST SWAP1 POP PUSH1 0x20 MUL ADD PUSH1 0x20 DUP2 ADD SWAP1 PUSH2 0x1B83 SWAP2 SWAP1 PUSH2 0x3A99 JUMP JUMPDEST PUSH1 0x40 MLOAD PUSH1 0x1 PUSH1 0x1 PUSH1 0xE0 SHL SUB NOT PUSH1 0xE0 DUP5 SWAP1 SHL AND DUP2 MSTORE PUSH1 0x1 PUSH1 0x1 PUSH1 0xA0 SHL SUB SWAP1 SWAP2 AND PUSH1 0x4 DUP3 ADD MSTORE PUSH1 0x24 ADD PUSH1 0x20 PUSH1 0x40 MLOAD DUP1 DUP4 SUB DUP2 DUP7 DUP1 EXTCODESIZE ISZERO DUP1 ISZERO PUSH2 0x1BC2 JUMPI PUSH1 0x0 DUP1 REVERT JUMPDEST POP GAS STATICCALL ISZERO DUP1 ISZERO PUSH2 0x1BD6 JUMPI RETURNDATASIZE PUSH1 0x0 DUP1 RETURNDATACOPY RETURNDATASIZE PUSH1 0x0 REVERT JUMPDEST POP POP POP POP PUSH1 0x40 MLOAD RETURNDATASIZE PUSH1 0x1F NOT PUSH1 0x1F DUP3 ADD AND DUP3 ADD DUP1 PUSH1 0x40 MSTORE POP DUP2 ADD SWAP1 PUSH2 0x1BFA SWAP2 SWAP1 PUSH2 0x3C48 JUMP JUMPDEST SWAP1 POP PUSH1 0x0 PUSH20 0xFD36E2C2A6789DB23113685031D7F16329158384 PUSH1 0x1 PUSH1 0x1 PUSH1 0xA0 SHL SUB AND PUSH4 0xE8755446 PUSH1 0x40 MLOAD DUP2 PUSH4 0xFFFFFFFF AND PUSH1 0xE0 SHL DUP2 MSTORE PUSH1 0x4 ADD PUSH1 0x20 PUSH1 0x40 MLOAD DUP1 DUP4 SUB DUP2 DUP7 DUP1 EXTCODESIZE ISZERO DUP1 ISZERO PUSH2 0x1C4B JUMPI PUSH1 0x0 DUP1 REVERT JUMPDEST POP GAS STATICCALL ISZERO DUP1 ISZERO PUSH2 0x1C5F JUMPI RETURNDATASIZE PUSH1 0x0 DUP1 RETURNDATACOPY RETURNDATASIZE PUSH1 0x0 REVERT JUMPDEST POP POP POP POP PUSH1 0x40 MLOAD RETURNDATASIZE PUSH1 0x1F NOT PUSH1 0x1F DUP3 ADD AND DUP3 ADD DUP1 PUSH1 0x40 MSTORE POP DUP2 ADD SWAP1 PUSH2 0x1C83 SWAP2 SWAP1 PUSH2 0x3C48 JUMP JUMPDEST SWAP1 POP PUSH1 0x0 PUSH8 0xDE0B6B3A7640000 PUSH2 0x1C9A DUP4 DUP6 PUSH2 0x3FF9 JUMP JUMPDEST PUSH2 0x1CA4 SWAP2 SWAP1 PUSH2 0x3FD7 JUMP JUMPDEST SWAP1 POP DUP1 DUP6 LT PUSH2 0x1D1B JUMPI PUSH1 0x40 MLOAD PUSH3 0x461BCD PUSH1 0xE5 SHL DUP2 MSTORE PUSH1 0x20 PUSH1 0x4 DUP3 ADD MSTORE PUSH1 0x37 PUSH1 0x24 DUP3 ADD MSTORE PUSH32 0x666C6173686C6F616E416D6F756E74206D757374206265206C65737320746861 PUSH1 0x44 DUP3 ADD MSTORE PUSH32 0x6E206D6178416C6C6F7765645265706179416D6F756E74000000000000000000 PUSH1 0x64 DUP3 ADD MSTORE PUSH1 0x84 ADD PUSH2 0x1B8 JUMP JUMPDEST POP POP POP POP PUSH1 0x1 PUSH1 0x0 DUP5 DUP5 PUSH1 0x3 DUP2 DUP2 LT PUSH2 0x1D36 JUMPI PUSH2 0x1D36 PUSH2 0x4077 JUMP JUMPDEST SWAP1 POP PUSH1 0x20 MUL ADD PUSH1 0x20 DUP2 ADD SWAP1 PUSH2 0x1D4B SWAP2 SWAP1 PUSH2 0x3A99 JUMP JUMPDEST PUSH1 0x1 PUSH1 0x1 PUSH1 0xA0 SHL SUB AND PUSH1 0x1 PUSH1 0x1 PUSH1 0xA0 SHL SUB AND DUP2 MSTORE PUSH1 0x20 ADD SWAP1 DUP2 MSTORE PUSH1 0x20 ADD PUSH1 0x0 KECCAK256 PUSH1 0x0 DUP5 DUP5 PUSH1 0x0 DUP2 DUP2 LT PUSH2 0x1D80 JUMPI PUSH2 0x1D80 PUSH2 0x4077 JUMP JUMPDEST SWAP1 POP PUSH1 0x20 MUL ADD PUSH1 0x20 DUP2 ADD SWAP1 PUSH2 0x1D95 SWAP2 SWAP1 PUSH2 0x3A99 JUMP JUMPDEST PUSH1 0x1 PUSH1 0x1 PUSH1 0xA0 SHL SUB AND DUP2 MSTORE PUSH1 0x20 DUP2 ADD SWAP2 SWAP1 SWAP2 MSTORE PUSH1 0x40 ADD PUSH1 0x0 KECCAK256 SLOAD PUSH1 0xFF AND PUSH2 0x1F36 JUMPI DUP3 DUP3 PUSH1 0x3 DUP2 DUP2 LT PUSH2 0x1DC9 JUMPI PUSH2 0x1DC9 PUSH2 0x4077 JUMP JUMPDEST SWAP1 POP PUSH1 0x20 MUL ADD PUSH1 0x20 DUP2 ADD SWAP1 PUSH2 0x1DDE SWAP2 SWAP1 PUSH2 0x3A99 JUMP JUMPDEST PUSH1 0x1 PUSH1 0x1 PUSH1 0xA0 SHL SUB AND PUSH4 0x95EA7B3 DUP5 DUP5 PUSH1 0x0 DUP2 DUP2 LT PUSH2 0x1DFF JUMPI PUSH2 0x1DFF PUSH2 0x4077 JUMP JUMPDEST SWAP1 POP PUSH1 0x20 MUL ADD PUSH1 0x20 DUP2 ADD SWAP1 PUSH2 0x1E14 SWAP2 SWAP1 PUSH2 0x3A99 JUMP JUMPDEST PUSH1 0x40 MLOAD PUSH1 0x1 PUSH1 0x1 PUSH1 0xE0 SHL SUB NOT PUSH1 0xE0 DUP5 SWAP1 SHL AND DUP2 MSTORE PUSH1 0x1 PUSH1 0x1 PUSH1 0xA0 SHL SUB SWAP1 SWAP2 AND PUSH1 0x4 DUP3 ADD MSTORE PUSH1 0x0 NOT PUSH1 0x24 DUP3 ADD MSTORE PUSH1 0x44 ADD PUSH1 0x20 PUSH1 0x40 MLOAD DUP1 DUP4 SUB DUP2 PUSH1 0x0 DUP8 DUP1 EXTCODESIZE ISZERO DUP1 ISZERO PUSH2 0x1E5D JUMPI PUSH1 0x0 DUP1 REVERT JUMPDEST POP GAS CALL ISZERO DUP1 ISZERO PUSH2 0x1E71 JUMPI RETURNDATASIZE PUSH1 0x0 DUP1 RETURNDATACOPY RETURNDATASIZE PUSH1 0x0 REVERT JUMPDEST POP POP POP POP PUSH1 0x40 MLOAD RETURNDATASIZE PUSH1 0x1F NOT PUSH1 0x1F DUP3 ADD AND DUP3 ADD DUP1 PUSH1 0x40 MSTORE POP DUP2 ADD SWAP1 PUSH2 0x1E95 SWAP2 SWAP1 PUSH2 0x3BD6 JUMP JUMPDEST POP PUSH1 0x1 DUP1 PUSH1 0x0 DUP6 DUP6 PUSH1 0x3 DUP2 DUP2 LT PUSH2 0x1EAE JUMPI PUSH2 0x1EAE PUSH2 0x4077 JUMP JUMPDEST SWAP1 POP PUSH1 0x20 MUL ADD PUSH1 0x20 DUP2 ADD SWAP1 PUSH2 0x1EC3 SWAP2 SWAP1 PUSH2 0x3A99 JUMP JUMPDEST PUSH1 0x1 PUSH1 0x1 PUSH1 0xA0 SHL SUB AND PUSH1 0x1 PUSH1 0x1 PUSH1 0xA0 SHL SUB AND DUP2 MSTORE PUSH1 0x20 ADD SWAP1 DUP2 MSTORE PUSH1 0x20 ADD PUSH1 0x0 KECCAK256 PUSH1 0x0 DUP6 DUP6 PUSH1 0x0 DUP2 DUP2 LT PUSH2 0x1EF8 JUMPI PUSH2 0x1EF8 PUSH2 0x4077 JUMP JUMPDEST SWAP1 POP PUSH1 0x20 MUL ADD PUSH1 0x20 DUP2 ADD SWAP1 PUSH2 0x1F0D SWAP2 SWAP1 PUSH2 0x3A99 JUMP JUMPDEST PUSH1 0x1 PUSH1 0x1 PUSH1 0xA0 SHL SUB AND DUP2 MSTORE PUSH1 0x20 DUP2 ADD SWAP2 SWAP1 SWAP2 MSTORE PUSH1 0x40 ADD PUSH1 0x0 KECCAK256 DUP1 SLOAD PUSH1 0xFF NOT AND SWAP2 ISZERO ISZERO SWAP2 SWAP1 SWAP2 OR SWAP1 SSTORE JUMPDEST PUSH1 0x0 DUP1 PUSH2 0x1F69 DUP6 DUP6 PUSH1 0x3 DUP2 DUP2 LT PUSH2 0x1F4F JUMPI PUSH2 0x1F4F PUSH2 0x4077 JUMP JUMPDEST SWAP1 POP PUSH1 0x20 MUL ADD PUSH1 0x20 DUP2 ADD SWAP1 PUSH2 0x1F64 SWAP2 SWAP1 PUSH2 0x3A99 JUMP JUMPDEST PUSH2 0x2730 JUMP JUMPDEST ISZERO PUSH2 0x2016 JUMPI DUP5 DUP5 PUSH1 0x3 DUP2 DUP2 LT PUSH2 0x1F81 JUMPI PUSH2 0x1F81 PUSH2 0x4077 JUMP JUMPDEST SWAP1 POP PUSH1 0x20 MUL ADD PUSH1 0x20 DUP2 ADD SWAP1 PUSH2 0x1F96 SWAP2 SWAP1 PUSH2 0x3A99 JUMP JUMPDEST PUSH1 0x40 MLOAD PUSH4 0x70A08231 PUSH1 0xE0 SHL DUP2 MSTORE ADDRESS PUSH1 0x4 DUP3 ADD MSTORE PUSH1 0x1 PUSH1 0x1 PUSH1 0xA0 SHL SUB SWAP2 SWAP1 SWAP2 AND SWAP1 PUSH4 0x70A08231 SWAP1 PUSH1 0x24 ADD PUSH1 0x20 PUSH1 0x40 MLOAD DUP1 DUP4 SUB DUP2 DUP7 DUP1 EXTCODESIZE ISZERO DUP1 ISZERO PUSH2 0x1FD7 JUMPI PUSH1 0x0 DUP1 REVERT JUMPDEST POP GAS STATICCALL ISZERO DUP1 ISZERO PUSH2 0x1FEB JUMPI RETURNDATASIZE PUSH1 0x0 DUP1 RETURNDATACOPY RETURNDATASIZE PUSH1 0x0 REVERT JUMPDEST POP POP POP POP PUSH1 0x40 MLOAD RETURNDATASIZE PUSH1 0x1F NOT PUSH1 0x1F DUP3 ADD AND DUP3 ADD DUP1 PUSH1 0x40 MSTORE POP DUP2 ADD SWAP1 PUSH2 0x200F SWAP2 SWAP1 PUSH2 0x3C48 JUMP JUMPDEST SWAP2 POP PUSH2 0x209B JUMP JUMPDEST PUSH1 0x40 MLOAD PUSH4 0x70A08231 PUSH1 0xE0 SHL DUP2 MSTORE ADDRESS PUSH1 0x4 DUP3 ADD MSTORE PUSH20 0x55D398326F99059FF775485246999027B3197955 SWAP1 PUSH4 0x70A08231 SWAP1 PUSH1 0x24 ADD PUSH1 0x20 PUSH1 0x40 MLOAD DUP1 DUP4 SUB DUP2 DUP7 DUP1 EXTCODESIZE ISZERO DUP1 ISZERO PUSH2 0x2060 JUMPI PUSH1 0x0 DUP1 REVERT JUMPDEST POP GAS STATICCALL ISZERO DUP1 ISZERO PUSH2 0x2074 JUMPI RETURNDATASIZE PUSH1 0x0 DUP1 RETURNDATACOPY RETURNDATASIZE PUSH1 0x0 REVERT JUMPDEST POP POP POP POP PUSH1 0x40 MLOAD RETURNDATASIZE PUSH1 0x1F NOT PUSH1 0x1F DUP3 ADD AND DUP3 ADD DUP1 PUSH1 0x40 MSTORE POP DUP2 ADD SWAP1 PUSH2 0x2098 SWAP2 SWAP1 PUSH2 0x3C48 JUMP JUMPDEST SWAP2 POP JUMPDEST PUSH1 0x0 DUP11 PUSH1 0x1 PUSH1 0x1 PUSH1 0xA0 SHL SUB AND PUSH4 0xDFE1681 PUSH1 0x40 MLOAD DUP2 PUSH4 0xFFFFFFFF AND PUSH1 0xE0 SHL DUP2 MSTORE PUSH1 0x4 ADD PUSH1 0x20 PUSH1 0x40 MLOAD DUP1 DUP4 SUB DUP2 DUP7 DUP1 EXTCODESIZE ISZERO DUP1 ISZERO PUSH2 0x20D6 JUMPI PUSH1 0x0 DUP1 REVERT JUMPDEST POP GAS STATICCALL ISZERO DUP1 ISZERO PUSH2 0x20EA JUMPI RETURNDATASIZE PUSH1 0x0 DUP1 RETURNDATACOPY RETURNDATASIZE PUSH1 0x0 REVERT JUMPDEST POP POP POP POP PUSH1 0x40 MLOAD RETURNDATASIZE PUSH1 0x1F NOT PUSH1 0x1F DUP3 ADD AND DUP3 ADD DUP1 PUSH1 0x40 MSTORE POP DUP2 ADD SWAP1 PUSH2 0x210E SWAP2 SWAP1 PUSH2 0x3AB6 JUMP JUMPDEST SWAP1 POP PUSH1 0x0 DUP12 PUSH1 0x1 PUSH1 0x1 PUSH1 0xA0 SHL SUB AND PUSH4 0xD21220A7 PUSH1 0x40 MLOAD DUP2 PUSH4 0xFFFFFFFF AND PUSH1 0xE0 SHL DUP2 MSTORE PUSH1 0x4 ADD PUSH1 0x20 PUSH1 0x40 MLOAD DUP1 DUP4 SUB DUP2 DUP7 DUP1 EXTCODESIZE ISZERO DUP1 ISZERO PUSH2 0x214B JUMPI PUSH1 0x0 DUP1 REVERT JUMPDEST POP GAS STATICCALL ISZERO DUP1 ISZERO PUSH2 0x215F JUMPI RETURNDATASIZE PUSH1 0x0 DUP1 RETURNDATACOPY RETURNDATASIZE PUSH1 0x0 REVERT JUMPDEST POP POP POP POP PUSH1 0x40 MLOAD RETURNDATASIZE PUSH1 0x1F NOT PUSH1 0x1F DUP3 ADD AND DUP3 ADD DUP1 PUSH1 0x40 MSTORE POP DUP2 ADD SWAP1 PUSH2 0x2183 SWAP2 SWAP1 PUSH2 0x3AB6 JUMP JUMPDEST SWAP1 POP PUSH1 0x0 DUP3 PUSH1 0x1 PUSH1 0x1 PUSH1 0xA0 SHL SUB AND DUP9 DUP9 PUSH1 0x3 DUP2 DUP2 LT PUSH2 0x21A4 JUMPI PUSH2 0x21A4 PUSH2 0x4077 JUMP JUMPDEST SWAP1 POP PUSH1 0x20 MUL ADD PUSH1 0x20 DUP2 ADD SWAP1 PUSH2 0x21B9 SWAP2 SWAP1 PUSH2 0x3A99 JUMP JUMPDEST PUSH1 0x1 PUSH1 0x1 PUSH1 0xA0 SHL SUB AND EQ PUSH2 0x21CE JUMPI PUSH1 0x0 PUSH2 0x21D0 JUMP JUMPDEST DUP6 JUMPDEST SWAP1 POP PUSH1 0x0 DUP3 PUSH1 0x1 PUSH1 0x1 PUSH1 0xA0 SHL SUB AND DUP10 DUP10 PUSH1 0x3 DUP2 DUP2 LT PUSH2 0x21F1 JUMPI PUSH2 0x21F1 PUSH2 0x4077 JUMP JUMPDEST SWAP1 POP PUSH1 0x20 MUL ADD PUSH1 0x20 DUP2 ADD SWAP1 PUSH2 0x2206 SWAP2 SWAP1 PUSH2 0x3A99 JUMP JUMPDEST PUSH1 0x1 PUSH1 0x1 PUSH1 0xA0 SHL SUB AND EQ PUSH2 0x221B JUMPI PUSH1 0x0 PUSH2 0x221D JUMP JUMPDEST DUP7 JUMPDEST SWAP1 POP PUSH1 0x0 DUP16 DUP16 DUP16 DUP16 DUP16 DUP16 DUP16 DUP16 DUP16 PUSH1 0x40 MLOAD PUSH1 0x20 ADD PUSH2 0x2242 SWAP10 SWAP9 SWAP8 SWAP7 SWAP6 SWAP5 SWAP4 SWAP3 SWAP2 SWAP1 PUSH2 0x3EE2 JUMP JUMPDEST PUSH1 0x40 MLOAD PUSH1 0x20 DUP2 DUP4 SUB SUB DUP2 MSTORE SWAP1 PUSH1 0x40 MSTORE SWAP1 POP DUP15 PUSH1 0x1 PUSH1 0x1 PUSH1 0xA0 SHL SUB AND PUSH4 0x22C0D9F DUP5 DUP5 ADDRESS DUP6 PUSH1 0x40 MLOAD DUP6 PUSH4 0xFFFFFFFF AND PUSH1 0xE0 SHL DUP2 MSTORE PUSH1 0x4 ADD PUSH2 0x2285 SWAP5 SWAP4 SWAP3 SWAP2 SWAP1 PUSH2 0x3F4C JUMP JUMPDEST PUSH1 0x0 PUSH1 0x40 MLOAD DUP1 DUP4 SUB DUP2 PUSH1 0x0 DUP8 DUP1 EXTCODESIZE ISZERO DUP1 ISZERO PUSH2 0x229F JUMPI PUSH1 0x0 DUP1 REVERT JUMPDEST POP GAS CALL ISZERO DUP1 ISZERO PUSH2 0x22B3 JUMPI RETURNDATASIZE PUSH1 0x0 DUP1 RETURNDATACOPY RETURNDATASIZE PUSH1 0x0 REVERT JUMPDEST POP POP POP POP PUSH2 0x22CD DUP11 DUP11 PUSH1 0x3 DUP2 DUP2 LT PUSH2 0x1F4F JUMPI PUSH2 0x1F4F PUSH2 0x4077 JUMP JUMPDEST ISZERO PUSH2 0x237A JUMPI DUP10 DUP10 PUSH1 0x3 DUP2 DUP2 LT PUSH2 0x22E5 JUMPI PUSH2 0x22E5 PUSH2 0x4077 JUMP JUMPDEST SWAP1 POP PUSH1 0x20 MUL ADD PUSH1 0x20 DUP2 ADD SWAP1 PUSH2 0x22FA SWAP2 SWAP1 PUSH2 0x3A99 JUMP JUMPDEST PUSH1 0x40 MLOAD PUSH4 0x70A08231 PUSH1 0xE0 SHL DUP2 MSTORE ADDRESS PUSH1 0x4 DUP3 ADD MSTORE PUSH1 0x1 PUSH1 0x1 PUSH1 0xA0 SHL SUB SWAP2 SWAP1 SWAP2 AND SWAP1 PUSH4 0x70A08231 SWAP1 PUSH1 0x24 ADD PUSH1 0x20 PUSH1 0x40 MLOAD DUP1 DUP4 SUB DUP2 DUP7 DUP1 EXTCODESIZE ISZERO DUP1 ISZERO PUSH2 0x233B JUMPI PUSH1 0x0 DUP1 REVERT JUMPDEST POP GAS STATICCALL ISZERO DUP1 ISZERO PUSH2 0x234F JUMPI RETURNDATASIZE PUSH1 0x0 DUP1 RETURNDATACOPY RETURNDATASIZE PUSH1 0x0 REVERT JUMPDEST POP POP POP POP PUSH1 0x40 MLOAD RETURNDATASIZE PUSH1 0x1F NOT PUSH1 0x1F DUP3 ADD AND DUP3 ADD DUP1 PUSH1 0x40 MSTORE POP DUP2 ADD SWAP1 PUSH2 0x2373 SWAP2 SWAP1 PUSH2 0x3C48 JUMP JUMPDEST SWAP6 POP PUSH2 0x23FF JUMP JUMPDEST PUSH1 0x40 MLOAD PUSH4 0x70A08231 PUSH1 0xE0 SHL DUP2 MSTORE ADDRESS PUSH1 0x4 DUP3 ADD MSTORE PUSH20 0x55D398326F99059FF775485246999027B3197955 SWAP1 PUSH4 0x70A08231 SWAP1 PUSH1 0x24 ADD PUSH1 0x20 PUSH1 0x40 MLOAD DUP1 DUP4 SUB DUP2 DUP7 DUP1 EXTCODESIZE ISZERO DUP1 ISZERO PUSH2 0x23C4 JUMPI PUSH1 0x0 DUP1 REVERT JUMPDEST POP GAS STATICCALL ISZERO DUP1 ISZERO PUSH2 0x23D8 JUMPI RETURNDATASIZE PUSH1 0x0 DUP1 RETURNDATACOPY RETURNDATASIZE PUSH1 0x0 REVERT JUMPDEST POP POP POP POP PUSH1 0x40 MLOAD RETURNDATASIZE PUSH1 0x1F NOT PUSH1 0x1F DUP3 ADD AND DUP3 ADD DUP1 PUSH1 0x40 MSTORE POP DUP2 ADD SWAP1 PUSH2 0x23FC SWAP2 SWAP1 PUSH2 0x3C48 JUMP JUMPDEST SWAP6 POP JUMPDEST PUSH1 0x40 DUP1 MLOAD DUP9 DUP2 MSTORE PUSH1 0x20 DUP2 ADD DUP9 SWAP1 MSTORE PUSH32 0x66FF0161865CE411B20FBB12ECEF6D576C0B2397BCE9BC4B834E0A9D969BBF24 SWAP2 ADD PUSH1 0x40 MLOAD DUP1 SWAP2 SUB SWAP1 LOG1 POP POP POP POP POP POP POP POP POP POP POP POP POP POP POP POP JUMP JUMPDEST PUSH1 0x0 SLOAD PUSH1 0x1 PUSH1 0x1 PUSH1 0xA0 SHL SUB AND CALLER EQ PUSH2 0x2474 JUMPI PUSH1 0x40 MLOAD PUSH3 0x461BCD PUSH1 0xE5 SHL DUP2 MSTORE PUSH1 0x4 ADD PUSH2 0x1B8 SWAP1 PUSH2 0x3E67 JUMP JUMPDEST PUSH1 0x1 PUSH1 0x1 PUSH1 0xA0 SHL SUB DUP4 AND PUSH2 0x24CA JUMPI PUSH1 0x40 MLOAD PUSH3 0x461BCD PUSH1 0xE5 SHL DUP2 MSTORE PUSH1 0x20 PUSH1 0x4 DUP3 ADD MSTORE PUSH1 0x1E PUSH1 0x24 DUP3 ADD MSTORE PUSH32 0x746F6B656E206D757374206E6F74206265207A65726F20616464726573730000 PUSH1 0x44 DUP3 ADD MSTORE PUSH1 0x64 ADD PUSH2 0x1B8 JUMP JUMPDEST PUSH1 0x1 PUSH1 0x1 PUSH1 0xA0 SHL SUB DUP3 AND PUSH2 0x2520 JUMPI PUSH1 0x40 MLOAD PUSH3 0x461BCD PUSH1 0xE5 SHL DUP2 MSTORE PUSH1 0x20 PUSH1 0x4 DUP3 ADD MSTORE PUSH1 0x1B PUSH1 0x24 DUP3 ADD MSTORE PUSH32 0x746F206D757374206E6F74206265207A65726F20616464726573730000000000 PUSH1 0x44 DUP3 ADD MSTORE PUSH1 0x64 ADD PUSH2 0x1B8 JUMP JUMPDEST PUSH1 0x0 DUP2 GT PUSH2 0x2570 JUMPI PUSH1 0x40 MLOAD PUSH3 0x461BCD PUSH1 0xE5 SHL DUP2 MSTORE PUSH1 0x20 PUSH1 0x4 DUP3 ADD MSTORE PUSH1 0x1C PUSH1 0x24 DUP3 ADD MSTORE PUSH32 0x616D6F756E74206D75737420626967676572207468616E207A65726F00000000 PUSH1 0x44 DUP3 ADD MSTORE PUSH1 0x64 ADD PUSH2 0x1B8 JUMP JUMPDEST PUSH1 0x40 MLOAD PUSH4 0xA9059CBB PUSH1 0xE0 SHL DUP2 MSTORE PUSH1 0x1 PUSH1 0x1 PUSH1 0xA0 SHL SUB DUP4 DUP2 AND PUSH1 0x4 DUP4 ADD MSTORE PUSH1 0x24 DUP3 ADD DUP4 SWAP1 MSTORE DUP5 AND SWAP1 PUSH4 0xA9059CBB SWAP1 PUSH1 0x44 ADD PUSH1 0x20 PUSH1 0x40 MLOAD DUP1 DUP4 SUB DUP2 PUSH1 0x0 DUP8 DUP1 EXTCODESIZE ISZERO DUP1 ISZERO PUSH2 0x25BA JUMPI PUSH1 0x0 DUP1 REVERT JUMPDEST POP GAS CALL ISZERO DUP1 ISZERO PUSH2 0x25CE JUMPI RETURNDATASIZE PUSH1 0x0 DUP1 RETURNDATACOPY RETURNDATASIZE PUSH1 0x0 REVERT JUMPDEST POP POP POP POP PUSH1 0x40 MLOAD RETURNDATASIZE PUSH1 0x1F NOT PUSH1 0x1F DUP3 ADD AND DUP3 ADD DUP1 PUSH1 0x40 MSTORE POP DUP2 ADD SWAP1 PUSH2 0x25F2 SWAP2 SWAP1 PUSH2 0x3BD6 JUMP JUMPDEST POP DUP2 PUSH1 0x1 PUSH1 0x1 PUSH1 0xA0 SHL SUB AND DUP4 PUSH1 0x1 PUSH1 0x1 PUSH1 0xA0 SHL SUB AND PUSH32 0x9B1BFA7FA9EE420A16E124F794C35AC9F90472ACC99140EB2F6447C714CAD8EB DUP4 PUSH1 0x40 MLOAD PUSH2 0x2638 SWAP2 DUP2 MSTORE PUSH1 0x20 ADD SWAP1 JUMP JUMPDEST PUSH1 0x40 MLOAD DUP1 SWAP2 SUB SWAP1 LOG3 POP POP POP JUMP JUMPDEST PUSH1 0x0 SLOAD PUSH1 0x1 PUSH1 0x1 PUSH1 0xA0 SHL SUB AND CALLER EQ PUSH2 0x266F JUMPI PUSH1 0x40 MLOAD PUSH3 0x461BCD PUSH1 0xE5 SHL DUP2 MSTORE PUSH1 0x4 ADD PUSH2 0x1B8 SWAP1 PUSH2 0x3E67 JUMP JUMPDEST PUSH1 0x1 PUSH1 0x1 PUSH1 0xA0 SHL SUB DUP2 AND PUSH2 0x26D4 JUMPI PUSH1 0x40 MLOAD PUSH3 0x461BCD PUSH1 0xE5 SHL DUP2 MSTORE PUSH1 0x20 PUSH1 0x4 DUP3 ADD MSTORE PUSH1 0x26 PUSH1 0x24 DUP3 ADD MSTORE PUSH32 0x4F776E61626C653A206E6577206F776E657220697320746865207A65726F2061 PUSH1 0x44 DUP3 ADD MSTORE PUSH6 0x646472657373 PUSH1 0xD0 SHL PUSH1 0x64 DUP3 ADD MSTORE PUSH1 0x84 ADD PUSH2 0x1B8 JUMP JUMPDEST PUSH2 0x26DD DUP2 PUSH2 0x26E0 JUMP JUMPDEST POP JUMP JUMPDEST PUSH1 0x0 DUP1 SLOAD PUSH1 0x1 PUSH1 0x1 PUSH1 0xA0 SHL SUB DUP4 DUP2 AND PUSH1 0x1 PUSH1 0x1 PUSH1 0xA0 SHL SUB NOT DUP4 AND DUP2 OR DUP5 SSTORE PUSH1 0x40 MLOAD SWAP2 SWAP1 SWAP3 AND SWAP3 DUP4 SWAP2 PUSH32 0x8BE0079C531659141344CD1FD0A4F28419497F9722A3DAAFE3B4186F6B6457E0 SWAP2 SWAP1 LOG3 POP POP JUMP JUMPDEST PUSH1 0x0 PUSH1 0x1 PUSH1 0x1 PUSH1 0xA0 SHL SUB DUP3 AND PUSH20 0x95C78222B3D6E262426483D42CFA53685A67AB9D EQ DUP1 PUSH2 0x2779 JUMPI POP PUSH1 0x1 PUSH1 0x1 PUSH1 0xA0 SHL SUB DUP3 AND PUSH20 0xFD5840CD36D94D7229439859C0112A4185BC0255 EQ JUMPDEST DUP1 PUSH2 0x27A0 JUMPI POP PUSH1 0x1 PUSH1 0x1 PUSH1 0xA0 SHL SUB DUP3 AND PUSH20 0x334B3ECB4DCA3593BCCC3C7EBD1A1C1D1780FBF1 EQ JUMPDEST SWAP3 SWAP2 POP POP JUMP JUMPDEST PUSH1 0x40 MLOAD PUSH4 0x70A08231 PUSH1 0xE0 SHL DUP2 MSTORE ADDRESS PUSH1 0x4 DUP3 ADD MSTORE PUSH1 0x0 SWAP1 DUP2 SWAP1 DUP6 SWAP1 DUP3 SWAP1 DUP2 SWAP1 DUP2 SWAP1 PUSH1 0x1 PUSH1 0x1 PUSH1 0xA0 SHL SUB DUP6 AND SWAP1 PUSH4 0x70A08231 SWAP1 PUSH1 0x24 ADD PUSH1 0x20 PUSH1 0x40 MLOAD DUP1 DUP4 SUB DUP2 DUP7 DUP1 EXTCODESIZE ISZERO DUP1 ISZERO PUSH2 0x27F2 JUMPI PUSH1 0x0 DUP1 REVERT JUMPDEST POP GAS STATICCALL ISZERO DUP1 ISZERO PUSH2 0x2806 JUMPI RETURNDATASIZE PUSH1 0x0 DUP1 RETURNDATACOPY RETURNDATASIZE PUSH1 0x0 REVERT JUMPDEST POP POP POP POP PUSH1 0x40 MLOAD RETURNDATASIZE PUSH1 0x1F NOT PUSH1 0x1F DUP3 ADD AND DUP3 ADD DUP1 PUSH1 0x40 MSTORE POP DUP2 ADD SWAP1 PUSH2 0x282A SWAP2 SWAP1 PUSH2 0x3C48 JUMP JUMPDEST SWAP1 POP PUSH20 0xA07C5B74C9B40447A954E1466938B865B6BBEA36 PUSH1 0x1 PUSH1 0x1 PUSH1 0xA0 SHL SUB DUP12 AND EQ ISZERO PUSH2 0x28BB JUMPI PUSH1 0x40 MLOAD PUSH4 0x55720515 PUSH1 0xE1 SHL DUP2 MSTORE PUSH1 0x1 PUSH1 0x1 PUSH1 0xA0 SHL SUB DUP10 DUP2 AND PUSH1 0x4 DUP4 ADD MSTORE DUP11 DUP2 AND PUSH1 0x24 DUP4 ADD MSTORE DUP12 AND SWAP1 PUSH4 0xAAE40A2A SWAP1 DUP10 SWAP1 PUSH1 0x44 ADD PUSH1 0x0 PUSH1 0x40 MLOAD DUP1 DUP4 SUB DUP2 DUP6 DUP9 DUP1 EXTCODESIZE ISZERO DUP1 ISZERO PUSH2 0x289D JUMPI PUSH1 0x0 DUP1 REVERT JUMPDEST POP GAS CALL ISZERO DUP1 ISZERO PUSH2 0x28B1 JUMPI RETURNDATASIZE PUSH1 0x0 DUP1 RETURNDATACOPY RETURNDATASIZE PUSH1 0x0 REVERT JUMPDEST POP POP POP POP POP PUSH2 0x2A8D JUMP JUMPDEST PUSH20 0x4BD17003473389A42DAF6A0A729F6FDB328BBBD7 PUSH1 0x1 PUSH1 0x1 PUSH1 0xA0 SHL SUB DUP12 AND EQ ISZERO PUSH2 0x29B9 JUMPI PUSH1 0x40 MLOAD PUSH4 0x11B3D5E7 PUSH1 0xE0 SHL DUP2 MSTORE PUSH1 0x1 PUSH1 0x1 PUSH1 0xA0 SHL SUB DUP10 DUP2 AND PUSH1 0x4 DUP4 ADD MSTORE PUSH1 0x24 DUP3 ADD DUP10 SWAP1 MSTORE DUP6 DUP2 AND PUSH1 0x44 DUP4 ADD MSTORE DUP12 AND SWAP1 PUSH4 0x11B3D5E7 SWAP1 PUSH1 0x64 ADD PUSH1 0x40 DUP1 MLOAD DUP1 DUP4 SUB DUP2 PUSH1 0x0 DUP8 DUP1 EXTCODESIZE ISZERO DUP1 ISZERO PUSH2 0x2931 JUMPI PUSH1 0x0 DUP1 REVERT JUMPDEST POP GAS CALL ISZERO DUP1 ISZERO PUSH2 0x2945 JUMPI RETURNDATASIZE PUSH1 0x0 DUP1 RETURNDATACOPY RETURNDATASIZE PUSH1 0x0 REVERT JUMPDEST POP POP POP POP PUSH1 0x40 MLOAD RETURNDATASIZE PUSH1 0x1F NOT PUSH1 0x1F DUP3 ADD AND DUP3 ADD DUP1 PUSH1 0x40 MSTORE POP DUP2 ADD SWAP1 PUSH2 0x2969 SWAP2 SWAP1 PUSH2 0x3DCC JUMP JUMPDEST SWAP1 SWAP4 POP SWAP2 POP DUP3 ISZERO PUSH2 0x29B4 JUMPI PUSH1 0x40 MLOAD PUSH3 0x461BCD PUSH1 0xE5 SHL DUP2 MSTORE PUSH1 0x20 PUSH1 0x4 DUP3 ADD MSTORE PUSH1 0x15 PUSH1 0x24 DUP3 ADD MSTORE PUSH21 0x3634B8BAB4B230BA32A137B93937BB9032B93937B9 PUSH1 0x59 SHL PUSH1 0x44 DUP3 ADD MSTORE PUSH1 0x64 ADD PUSH2 0x1B8 JUMP JUMPDEST PUSH2 0x2A8D JUMP JUMPDEST PUSH1 0x40 MLOAD PUSH4 0x7AF1E231 PUSH1 0xE1 SHL DUP2 MSTORE PUSH1 0x1 PUSH1 0x1 PUSH1 0xA0 SHL SUB DUP10 DUP2 AND PUSH1 0x4 DUP4 ADD MSTORE PUSH1 0x24 DUP3 ADD DUP10 SWAP1 MSTORE DUP6 DUP2 AND PUSH1 0x44 DUP4 ADD MSTORE DUP12 SWAP2 SWAP1 DUP3 AND SWAP1 PUSH4 0xF5E3C462 SWAP1 PUSH1 0x64 ADD PUSH1 0x20 PUSH1 0x40 MLOAD DUP1 DUP4 SUB DUP2 PUSH1 0x0 DUP8 DUP1 EXTCODESIZE ISZERO DUP1 ISZERO PUSH2 0x2A0E JUMPI PUSH1 0x0 DUP1 REVERT JUMPDEST POP GAS CALL ISZERO DUP1 ISZERO PUSH2 0x2A22 JUMPI RETURNDATASIZE PUSH1 0x0 DUP1 RETURNDATACOPY RETURNDATASIZE PUSH1 0x0 REVERT JUMPDEST POP POP POP POP PUSH1 0x40 MLOAD RETURNDATASIZE PUSH1 0x1F NOT PUSH1 0x1F DUP3 ADD AND DUP3 ADD DUP1 PUSH1 0x40 MSTORE POP DUP2 ADD SWAP1 PUSH2 0x2A46 SWAP2 SWAP1 PUSH2 0x3C48 JUMP JUMPDEST ISZERO PUSH2 0x2A8B JUMPI PUSH1 0x40 MLOAD PUSH3 0x461BCD PUSH1 0xE5 SHL DUP2 MSTORE PUSH1 0x20 PUSH1 0x4 DUP3 ADD MSTORE PUSH1 0x15 PUSH1 0x24 DUP3 ADD MSTORE PUSH21 0x3634B8BAB4B230BA32A137B93937BB9032B93937B9 PUSH1 0x59 SHL PUSH1 0x44 DUP3 ADD MSTORE PUSH1 0x64 ADD PUSH2 0x1B8 JUMP JUMPDEST POP JUMPDEST PUSH1 0x40 MLOAD PUSH4 0x70A08231 PUSH1 0xE0 SHL DUP2 MSTORE ADDRESS PUSH1 0x4 DUP3 ADD MSTORE PUSH1 0x0 SWAP1 PUSH1 0x1 PUSH1 0x1 PUSH1 0xA0 SHL SUB DUP7 AND SWAP1 PUSH4 0x70A08231 SWAP1 PUSH1 0x24 ADD PUSH1 0x20 PUSH1 0x40 MLOAD DUP1 DUP4 SUB DUP2 DUP7 DUP1 EXTCODESIZE ISZERO DUP1 ISZERO PUSH2 0x2ACF JUMPI PUSH1 0x0 DUP1 REVERT JUMPDEST POP GAS STATICCALL ISZERO DUP1 ISZERO PUSH2 0x2AE3 JUMPI RETURNDATASIZE PUSH1 0x0 DUP1 RETURNDATACOPY RETURNDATASIZE PUSH1 0x0 REVERT JUMPDEST POP POP POP POP PUSH1 0x40 MLOAD RETURNDATASIZE PUSH1 0x1F NOT PUSH1 0x1F DUP3 ADD AND DUP3 ADD DUP1 PUSH1 0x40 MSTORE POP DUP2 ADD SWAP1 PUSH2 0x2B07 SWAP2 SWAP1 PUSH2 0x3C48 JUMP JUMPDEST SWAP1 POP PUSH1 0x0 PUSH2 0x2B15 DUP4 DUP4 PUSH2 0x4018 JUMP JUMPDEST SWAP1 POP PUSH1 0x0 DUP2 GT PUSH2 0x2B67 JUMPI PUSH1 0x40 MLOAD PUSH3 0x461BCD PUSH1 0xE5 SHL DUP2 MSTORE PUSH1 0x20 PUSH1 0x4 DUP3 ADD MSTORE PUSH1 0x1C PUSH1 0x24 DUP3 ADD MSTORE PUSH32 0x7365697A65642056546F6B656E20616D6F756E74206973207A65726F00000000 PUSH1 0x44 DUP3 ADD MSTORE PUSH1 0x64 ADD PUSH2 0x1B8 JUMP JUMPDEST PUSH1 0x40 DUP1 MLOAD DUP11 DUP2 MSTORE PUSH1 0x20 DUP2 ADD DUP7 SWAP1 MSTORE SWAP1 DUP2 ADD DUP3 SWAP1 MSTORE PUSH32 0xFDE0EB536FECEE7FCA644722FC2E6255EE0571307AB7F46F7FEA23FE302D4479 SWAP1 PUSH1 0x60 ADD PUSH1 0x40 MLOAD DUP1 SWAP2 SUB SWAP1 LOG1 SWAP12 SWAP3 SWAP11 POP SWAP2 SWAP9 POP POP POP POP POP POP POP POP POP JUMP JUMPDEST PUSH1 0x0 DUP1 DUP1 DUP1 PUSH20 0xA07C5B74C9B40447A954E1466938B865B6BBEA36 PUSH1 0x1 PUSH1 0x1 PUSH1 0xA0 SHL SUB DUP9 AND EQ ISZERO PUSH2 0x2CA6 JUMPI PUSH1 0x40 MLOAD PUSH4 0xDB006A75 PUSH1 0xE0 SHL DUP2 MSTORE PUSH1 0x4 DUP2 ADD DUP7 SWAP1 MSTORE SELFBALANCE SWAP4 POP PUSH1 0x1 PUSH1 0x1 PUSH1 0xA0 SHL SUB DUP9 AND SWAP1 PUSH4 0xDB006A75 SWAP1 PUSH1 0x24 ADD PUSH1 0x20 PUSH1 0x40 MLOAD DUP1 DUP4 SUB DUP2 PUSH1 0x0 DUP8 DUP1 EXTCODESIZE ISZERO DUP1 ISZERO PUSH2 0x2C28 JUMPI PUSH1 0x0 DUP1 REVERT JUMPDEST POP GAS CALL ISZERO DUP1 ISZERO PUSH2 0x2C3C JUMPI RETURNDATASIZE PUSH1 0x0 DUP1 RETURNDATACOPY RETURNDATASIZE PUSH1 0x0 REVERT JUMPDEST POP POP POP POP PUSH1 0x40 MLOAD RETURNDATASIZE PUSH1 0x1F NOT PUSH1 0x1F DUP3 ADD AND DUP3 ADD DUP1 PUSH1 0x40 MSTORE POP DUP2 ADD SWAP1 PUSH2 0x2C60 SWAP2 SWAP1 PUSH2 0x3C48 JUMP JUMPDEST ISZERO PUSH2 0x2C9E JUMPI PUSH1 0x40 MLOAD PUSH3 0x461BCD PUSH1 0xE5 SHL DUP2 MSTORE PUSH1 0x20 PUSH1 0x4 DUP3 ADD MSTORE PUSH1 0xE PUSH1 0x24 DUP3 ADD MSTORE PUSH14 0x3932B232B2B6902127211032B939 PUSH1 0x91 SHL PUSH1 0x44 DUP3 ADD MSTORE PUSH1 0x64 ADD PUSH2 0x1B8 JUMP JUMPDEST SELFBALANCE SWAP2 POP PUSH2 0x2E56 JUMP JUMPDEST PUSH1 0x40 MLOAD PUSH4 0x70A08231 PUSH1 0xE0 SHL DUP2 MSTORE ADDRESS PUSH1 0x4 DUP3 ADD MSTORE DUP8 SWAP1 DUP8 SWAP1 PUSH1 0x1 PUSH1 0x1 PUSH1 0xA0 SHL SUB DUP3 AND SWAP1 PUSH4 0x70A08231 SWAP1 PUSH1 0x24 ADD PUSH1 0x20 PUSH1 0x40 MLOAD DUP1 DUP4 SUB DUP2 DUP7 DUP1 EXTCODESIZE ISZERO DUP1 ISZERO PUSH2 0x2CE9 JUMPI PUSH1 0x0 DUP1 REVERT JUMPDEST POP GAS STATICCALL ISZERO DUP1 ISZERO PUSH2 0x2CFD JUMPI RETURNDATASIZE PUSH1 0x0 DUP1 RETURNDATACOPY RETURNDATASIZE PUSH1 0x0 REVERT JUMPDEST POP POP POP POP PUSH1 0x40 MLOAD RETURNDATASIZE PUSH1 0x1F NOT PUSH1 0x1F DUP3 ADD AND DUP3 ADD DUP1 PUSH1 0x40 MSTORE POP DUP2 ADD SWAP1 PUSH2 0x2D21 SWAP2 SWAP1 PUSH2 0x3C48 JUMP JUMPDEST PUSH1 0x40 MLOAD PUSH4 0xDB006A75 PUSH1 0xE0 SHL DUP2 MSTORE PUSH1 0x4 DUP2 ADD DUP10 SWAP1 MSTORE SWAP1 SWAP6 POP PUSH1 0x1 PUSH1 0x1 PUSH1 0xA0 SHL SUB DUP4 AND SWAP1 PUSH4 0xDB006A75 SWAP1 PUSH1 0x24 ADD PUSH1 0x20 PUSH1 0x40 MLOAD DUP1 DUP4 SUB DUP2 PUSH1 0x0 DUP8 DUP1 EXTCODESIZE ISZERO DUP1 ISZERO PUSH2 0x2D66 JUMPI PUSH1 0x0 DUP1 REVERT JUMPDEST POP GAS CALL ISZERO DUP1 ISZERO PUSH2 0x2D7A JUMPI RETURNDATASIZE PUSH1 0x0 DUP1 RETURNDATACOPY RETURNDATASIZE PUSH1 0x0 REVERT JUMPDEST POP POP POP POP PUSH1 0x40 MLOAD RETURNDATASIZE PUSH1 0x1F NOT PUSH1 0x1F DUP3 ADD AND DUP3 ADD DUP1 PUSH1 0x40 MSTORE POP DUP2 ADD SWAP1 PUSH2 0x2D9E SWAP2 SWAP1 PUSH2 0x3C48 JUMP JUMPDEST ISZERO PUSH2 0x2DDA JUMPI PUSH1 0x40 MLOAD PUSH3 0x461BCD PUSH1 0xE5 SHL DUP2 MSTORE PUSH1 0x20 PUSH1 0x4 DUP3 ADD MSTORE PUSH1 0xC PUSH1 0x24 DUP3 ADD MSTORE PUSH12 0x3932B232B2B69032B93937B9 PUSH1 0xA1 SHL PUSH1 0x44 DUP3 ADD MSTORE PUSH1 0x64 ADD PUSH2 0x1B8 JUMP JUMPDEST PUSH1 0x40 MLOAD PUSH4 0x70A08231 PUSH1 0xE0 SHL DUP2 MSTORE ADDRESS PUSH1 0x4 DUP3 ADD MSTORE PUSH1 0x1 PUSH1 0x1 PUSH1 0xA0 SHL SUB DUP3 AND SWAP1 PUSH4 0x70A08231 SWAP1 PUSH1 0x24 ADD PUSH1 0x20 PUSH1 0x40 MLOAD DUP1 DUP4 SUB DUP2 DUP7 DUP1 EXTCODESIZE ISZERO DUP1 ISZERO PUSH2 0x2E19 JUMPI PUSH1 0x0 DUP1 REVERT JUMPDEST POP GAS STATICCALL ISZERO DUP1 ISZERO PUSH2 0x2E2D JUMPI RETURNDATASIZE PUSH1 0x0 DUP1 RETURNDATACOPY RETURNDATASIZE PUSH1 0x0 REVERT JUMPDEST POP POP POP POP PUSH1 0x40 MLOAD RETURNDATASIZE PUSH1 0x1F NOT PUSH1 0x1F DUP3 ADD AND DUP3 ADD DUP1 PUSH1 0x40 MSTORE POP DUP2 ADD SWAP1 PUSH2 0x2E51 SWAP2 SWAP1 PUSH2 0x3C48 JUMP JUMPDEST SWAP4 POP POP POP JUMPDEST PUSH2 0x2E60 DUP4 DUP4 PUSH2 0x4018 JUMP JUMPDEST PUSH1 0x40 DUP1 MLOAD DUP8 DUP2 MSTORE PUSH1 0x20 DUP2 ADD DUP4 SWAP1 MSTORE SWAP2 SWAP3 POP PUSH32 0x2A500C424B9E55CA96EF57F09281232662A42069DE49730505B2BBD019412DCF SWAP2 ADD PUSH1 0x40 MLOAD DUP1 SWAP2 SUB SWAP1 LOG1 SWAP3 POP POP POP JUMPDEST SWAP4 SWAP3 POP POP POP JUMP JUMPDEST PUSH1 0x60 PUSH2 0x2EC9 PUSH20 0xCA143CE32FE78F1F7019D7D551A6402FC5350C73 DUP6 DUP6 PUSH2 0x3012 JUMP JUMPDEST SWAP1 POP DUP3 PUSH1 0x0 DUP2 MLOAD DUP2 LT PUSH2 0x2EDE JUMPI PUSH2 0x2EDE PUSH2 0x4077 JUMP JUMPDEST PUSH1 0x20 MUL PUSH1 0x20 ADD ADD MLOAD PUSH1 0x1 PUSH1 0x1 PUSH1 0xA0 SHL SUB AND PUSH4 0xA9059CBB PUSH2 0x2F47 PUSH20 0xCA143CE32FE78F1F7019D7D551A6402FC5350C73 DUP7 PUSH1 0x0 DUP2 MLOAD DUP2 LT PUSH2 0x2F1F JUMPI PUSH2 0x2F1F PUSH2 0x4077 JUMP JUMPDEST PUSH1 0x20 MUL PUSH1 0x20 ADD ADD MLOAD DUP8 PUSH1 0x1 DUP2 MLOAD DUP2 LT PUSH2 0x2F3A JUMPI PUSH2 0x2F3A PUSH2 0x4077 JUMP JUMPDEST PUSH1 0x20 MUL PUSH1 0x20 ADD ADD MLOAD PUSH2 0x319D JUMP JUMPDEST DUP4 PUSH1 0x0 DUP2 MLOAD DUP2 LT PUSH2 0x2F5A JUMPI PUSH2 0x2F5A PUSH2 0x4077 JUMP JUMPDEST PUSH1 0x20 MUL PUSH1 0x20 ADD ADD MLOAD PUSH1 0x40 MLOAD DUP4 PUSH4 0xFFFFFFFF AND PUSH1 0xE0 SHL DUP2 MSTORE PUSH1 0x4 ADD PUSH2 0x2F93 SWAP3 SWAP2 SWAP1 PUSH1 0x1 PUSH1 0x1 PUSH1 0xA0 SHL SUB SWAP3 SWAP1 SWAP3 AND DUP3 MSTORE PUSH1 0x20 DUP3 ADD MSTORE PUSH1 0x40 ADD SWAP1 JUMP JUMPDEST PUSH1 0x20 PUSH1 0x40 MLOAD DUP1 DUP4 SUB DUP2 PUSH1 0x0 DUP8 DUP1 EXTCODESIZE ISZERO DUP1 ISZERO PUSH2 0x2FAD JUMPI PUSH1 0x0 DUP1 REVERT JUMPDEST POP GAS CALL ISZERO DUP1 ISZERO PUSH2 0x2FC1 JUMPI RETURNDATASIZE PUSH1 0x0 DUP1 RETURNDATACOPY RETURNDATASIZE PUSH1 0x0 REVERT JUMPDEST POP POP POP POP PUSH1 0x40 MLOAD RETURNDATASIZE PUSH1 0x1F NOT PUSH1 0x1F DUP3 ADD AND DUP3 ADD DUP1 PUSH1 0x40 MSTORE POP DUP2 ADD SWAP1 PUSH2 0x2FE5 SWAP2 SWAP1 PUSH2 0x3BD6 JUMP JUMPDEST POP PUSH2 0x2EA1 DUP2 DUP5 DUP5 PUSH2 0x3275 JUMP JUMPDEST PUSH1 0x60 PUSH2 0x2EC9 PUSH20 0xCA143CE32FE78F1F7019D7D551A6402FC5350C73 DUP6 DUP6 PUSH2 0x3452 JUMP JUMPDEST PUSH1 0x60 PUSH1 0x2 DUP3 MLOAD LT ISZERO PUSH2 0x3066 JUMPI PUSH1 0x40 MLOAD PUSH3 0x461BCD PUSH1 0xE5 SHL DUP2 MSTORE PUSH1 0x20 PUSH1 0x4 DUP3 ADD MSTORE PUSH1 0x1C PUSH1 0x24 DUP3 ADD MSTORE PUSH32 0x50616E63616B654C6962726172793A20494E56414C49445F5041544800000000 PUSH1 0x44 DUP3 ADD MSTORE PUSH1 0x64 ADD PUSH2 0x1B8 JUMP JUMPDEST DUP2 MLOAD PUSH8 0xFFFFFFFFFFFFFFFF DUP2 GT ISZERO PUSH2 0x3080 JUMPI PUSH2 0x3080 PUSH2 0x408D JUMP JUMPDEST PUSH1 0x40 MLOAD SWAP1 DUP1 DUP3 MSTORE DUP1 PUSH1 0x20 MUL PUSH1 0x20 ADD DUP3 ADD PUSH1 0x40 MSTORE DUP1 ISZERO PUSH2 0x30A9 JUMPI DUP2 PUSH1 0x20 ADD PUSH1 0x20 DUP3 MUL DUP1 CALLDATASIZE DUP4 CALLDATACOPY ADD SWAP1 POP JUMPDEST POP SWAP1 POP DUP3 DUP2 PUSH1 0x0 DUP2 MLOAD DUP2 LT PUSH2 0x30C0 JUMPI PUSH2 0x30C0 PUSH2 0x4077 JUMP JUMPDEST PUSH1 0x20 MUL PUSH1 0x20 ADD ADD DUP2 DUP2 MSTORE POP POP PUSH1 0x0 JUMPDEST PUSH1 0x1 DUP4 MLOAD PUSH2 0x30DD SWAP2 SWAP1 PUSH2 0x4018 JUMP JUMPDEST DUP2 LT ISZERO PUSH2 0x3195 JUMPI PUSH1 0x0 DUP1 PUSH2 0x3130 DUP8 DUP7 DUP6 DUP2 MLOAD DUP2 LT PUSH2 0x30FD JUMPI PUSH2 0x30FD PUSH2 0x4077 JUMP JUMPDEST PUSH1 0x20 MUL PUSH1 0x20 ADD ADD MLOAD DUP8 DUP7 PUSH1 0x1 PUSH2 0x3113 SWAP2 SWAP1 PUSH2 0x3FBF JUMP JUMPDEST DUP2 MLOAD DUP2 LT PUSH2 0x3123 JUMPI PUSH2 0x3123 PUSH2 0x4077 JUMP JUMPDEST PUSH1 0x20 MUL PUSH1 0x20 ADD ADD MLOAD PUSH2 0x35D3 JUMP JUMPDEST SWAP2 POP SWAP2 POP PUSH2 0x3158 DUP5 DUP5 DUP2 MLOAD DUP2 LT PUSH2 0x3149 JUMPI PUSH2 0x3149 PUSH2 0x4077 JUMP JUMPDEST PUSH1 0x20 MUL PUSH1 0x20 ADD ADD MLOAD DUP4 DUP4 PUSH2 0x36B8 JUMP JUMPDEST DUP5 PUSH2 0x3164 DUP6 PUSH1 0x1 PUSH2 0x3FBF JUMP JUMPDEST DUP2 MLOAD DUP2 LT PUSH2 0x3174 JUMPI PUSH2 0x3174 PUSH2 0x4077 JUMP JUMPDEST PUSH1 0x20 MUL PUSH1 0x20 ADD ADD DUP2 DUP2 MSTORE POP POP POP POP DUP1 DUP1 PUSH2 0x318D SWAP1 PUSH2 0x4046 JUMP JUMPDEST SWAP2 POP POP PUSH2 0x30CF JUMP JUMPDEST POP SWAP4 SWAP3 POP POP POP JUMP JUMPDEST PUSH1 0x0 DUP1 PUSH1 0x0 PUSH2 0x31AC DUP6 DUP6 PUSH2 0x3794 JUMP JUMPDEST PUSH1 0x40 MLOAD PUSH12 0xFFFFFFFFFFFFFFFFFFFFFFFF NOT PUSH1 0x60 DUP5 DUP2 SHL DUP3 AND PUSH1 0x20 DUP5 ADD MSTORE DUP4 SWAP1 SHL AND PUSH1 0x34 DUP3 ADD MSTORE SWAP2 SWAP4 POP SWAP2 POP DUP7 SWAP1 PUSH1 0x48 ADD PUSH1 0x40 MLOAD PUSH1 0x20 DUP2 DUP4 SUB SUB DUP2 MSTORE SWAP1 PUSH1 0x40 MSTORE DUP1 MLOAD SWAP1 PUSH1 0x20 ADD KECCAK256 PUSH1 0x40 MLOAD PUSH1 0x20 ADD PUSH2 0x3253 SWAP3 SWAP2 SWAP1 PUSH1 0x1 PUSH1 0x1 PUSH1 0xF8 SHL SUB NOT DUP2 MSTORE PUSH1 0x60 SWAP3 SWAP1 SWAP3 SHL PUSH12 0xFFFFFFFFFFFFFFFFFFFFFFFF NOT AND PUSH1 0x1 DUP4 ADD MSTORE PUSH1 0x15 DUP3 ADD MSTORE PUSH31 0xFB7F630766E6A796048EA87D01ACD3068E8FF67D078148A3FA3F4A84F69BD5 PUSH1 0x35 DUP3 ADD MSTORE PUSH1 0x55 ADD SWAP1 JUMP JUMPDEST PUSH1 0x40 DUP1 MLOAD PUSH1 0x1F NOT DUP2 DUP5 SUB ADD DUP2 MSTORE SWAP2 SWAP1 MSTORE DUP1 MLOAD PUSH1 0x20 SWAP1 SWAP2 ADD KECCAK256 SWAP7 SWAP6 POP POP POP POP POP POP JUMP JUMPDEST PUSH1 0x0 JUMPDEST PUSH1 0x1 DUP4 MLOAD PUSH2 0x3286 SWAP2 SWAP1 PUSH2 0x4018 JUMP JUMPDEST DUP2 LT ISZERO PUSH2 0x197D JUMPI PUSH1 0x0 DUP1 DUP5 DUP4 DUP2 MLOAD DUP2 LT PUSH2 0x32A2 JUMPI PUSH2 0x32A2 PUSH2 0x4077 JUMP JUMPDEST PUSH1 0x20 MUL PUSH1 0x20 ADD ADD MLOAD DUP6 DUP5 PUSH1 0x1 PUSH2 0x32B8 SWAP2 SWAP1 PUSH2 0x3FBF JUMP JUMPDEST DUP2 MLOAD DUP2 LT PUSH2 0x32C8 JUMPI PUSH2 0x32C8 PUSH2 0x4077 JUMP JUMPDEST PUSH1 0x20 MUL PUSH1 0x20 ADD ADD MLOAD SWAP2 POP SWAP2 POP PUSH1 0x0 PUSH2 0x32E0 DUP4 DUP4 PUSH2 0x3794 JUMP JUMPDEST POP SWAP1 POP PUSH1 0x0 DUP8 PUSH2 0x32F1 DUP7 PUSH1 0x1 PUSH2 0x3FBF JUMP JUMPDEST DUP2 MLOAD DUP2 LT PUSH2 0x3301 JUMPI PUSH2 0x3301 PUSH2 0x4077 JUMP JUMPDEST PUSH1 0x20 MUL PUSH1 0x20 ADD ADD MLOAD SWAP1 POP PUSH1 0x0 DUP1 DUP4 PUSH1 0x1 PUSH1 0x1 PUSH1 0xA0 SHL SUB AND DUP7 PUSH1 0x1 PUSH1 0x1 PUSH1 0xA0 SHL SUB AND EQ PUSH2 0x332F JUMPI DUP3 PUSH1 0x0 PUSH2 0x3333 JUMP JUMPDEST PUSH1 0x0 DUP4 JUMPDEST SWAP2 POP SWAP2 POP PUSH1 0x0 PUSH1 0x2 DUP11 MLOAD PUSH2 0x3347 SWAP2 SWAP1 PUSH2 0x4018 JUMP JUMPDEST DUP9 LT PUSH2 0x3353 JUMPI DUP9 PUSH2 0x3388 JUMP JUMPDEST PUSH2 0x3388 PUSH20 0xCA143CE32FE78F1F7019D7D551A6402FC5350C73 DUP8 DUP13 PUSH2 0x3378 DUP13 PUSH1 0x2 PUSH2 0x3FBF JUMP JUMPDEST DUP2 MLOAD DUP2 LT PUSH2 0x2F3A JUMPI PUSH2 0x2F3A PUSH2 0x4077 JUMP JUMPDEST SWAP1 POP PUSH2 0x33A9 PUSH20 0xCA143CE32FE78F1F7019D7D551A6402FC5350C73 DUP9 DUP9 PUSH2 0x319D JUMP JUMPDEST PUSH1 0x1 PUSH1 0x1 PUSH1 0xA0 SHL SUB AND PUSH4 0x22C0D9F DUP5 DUP5 DUP5 PUSH1 0x0 PUSH1 0x40 MLOAD SWAP1 DUP1 DUP3 MSTORE DUP1 PUSH1 0x1F ADD PUSH1 0x1F NOT AND PUSH1 0x20 ADD DUP3 ADD PUSH1 0x40 MSTORE DUP1 ISZERO PUSH2 0x33E6 JUMPI PUSH1 0x20 DUP3 ADD DUP2 DUP1 CALLDATASIZE DUP4 CALLDATACOPY ADD SWAP1 POP JUMPDEST POP PUSH1 0x40 MLOAD DUP6 PUSH4 0xFFFFFFFF AND PUSH1 0xE0 SHL DUP2 MSTORE PUSH1 0x4 ADD PUSH2 0x3406 SWAP5 SWAP4 SWAP3 SWAP2 SWAP1 PUSH2 0x3F4C JUMP JUMPDEST PUSH1 0x0 PUSH1 0x40 MLOAD DUP1 DUP4 SUB DUP2 PUSH1 0x0 DUP8 DUP1 EXTCODESIZE ISZERO DUP1 ISZERO PUSH2 0x3420 JUMPI PUSH1 0x0 DUP1 REVERT JUMPDEST POP GAS CALL ISZERO DUP1 ISZERO PUSH2 0x3434 JUMPI RETURNDATASIZE PUSH1 0x0 DUP1 RETURNDATACOPY RETURNDATASIZE PUSH1 0x0 REVERT JUMPDEST POP POP POP POP POP POP POP POP POP POP POP DUP1 DUP1 PUSH2 0x344A SWAP1 PUSH2 0x4046 JUMP JUMPDEST SWAP2 POP POP PUSH2 0x3278 JUMP JUMPDEST PUSH1 0x60 PUSH1 0x2 DUP3 MLOAD LT ISZERO PUSH2 0x34A6 JUMPI PUSH1 0x40 MLOAD PUSH3 0x461BCD PUSH1 0xE5 SHL DUP2 MSTORE PUSH1 0x20 PUSH1 0x4 DUP3 ADD MSTORE PUSH1 0x1C PUSH1 0x24 DUP3 ADD MSTORE PUSH32 0x50616E63616B654C6962726172793A20494E56414C49445F5041544800000000 PUSH1 0x44 DUP3 ADD MSTORE PUSH1 0x64 ADD PUSH2 0x1B8 JUMP JUMPDEST DUP2 MLOAD PUSH8 0xFFFFFFFFFFFFFFFF DUP2 GT ISZERO PUSH2 0x34C0 JUMPI PUSH2 0x34C0 PUSH2 0x408D JUMP JUMPDEST PUSH1 0x40 MLOAD SWAP1 DUP1 DUP3 MSTORE DUP1 PUSH1 0x20 MUL PUSH1 0x20 ADD DUP3 ADD PUSH1 0x40 MSTORE DUP1 ISZERO PUSH2 0x34E9 JUMPI DUP2 PUSH1 0x20 ADD PUSH1 0x20 DUP3 MUL DUP1 CALLDATASIZE DUP4 CALLDATACOPY ADD SWAP1 POP JUMPDEST POP SWAP1 POP DUP3 DUP2 PUSH1 0x1 DUP4 MLOAD PUSH2 0x34FC SWAP2 SWAP1 PUSH2 0x4018 JUMP JUMPDEST DUP2 MLOAD DUP2 LT PUSH2 0x350C JUMPI PUSH2 0x350C PUSH2 0x4077 JUMP JUMPDEST PUSH1 0x20 MUL PUSH1 0x20 ADD ADD DUP2 DUP2 MSTORE POP POP PUSH1 0x0 PUSH1 0x1 DUP4 MLOAD PUSH2 0x3528 SWAP2 SWAP1 PUSH2 0x4018 JUMP JUMPDEST SWAP1 POP JUMPDEST DUP1 ISZERO PUSH2 0x3195 JUMPI PUSH1 0x0 DUP1 PUSH2 0x356E DUP8 DUP7 PUSH2 0x3544 PUSH1 0x1 DUP8 PUSH2 0x4018 JUMP JUMPDEST DUP2 MLOAD DUP2 LT PUSH2 0x3554 JUMPI PUSH2 0x3554 PUSH2 0x4077 JUMP JUMPDEST PUSH1 0x20 MUL PUSH1 0x20 ADD ADD MLOAD DUP8 DUP7 DUP2 MLOAD DUP2 LT PUSH2 0x3123 JUMPI PUSH2 0x3123 PUSH2 0x4077 JUMP JUMPDEST SWAP2 POP SWAP2 POP PUSH2 0x3596 DUP5 DUP5 DUP2 MLOAD DUP2 LT PUSH2 0x3587 JUMPI PUSH2 0x3587 PUSH2 0x4077 JUMP JUMPDEST PUSH1 0x20 MUL PUSH1 0x20 ADD ADD MLOAD DUP4 DUP4 PUSH2 0x388A JUMP JUMPDEST DUP5 PUSH2 0x35A2 PUSH1 0x1 DUP7 PUSH2 0x4018 JUMP JUMPDEST DUP2 MLOAD DUP2 LT PUSH2 0x35B2 JUMPI PUSH2 0x35B2 PUSH2 0x4077 JUMP JUMPDEST PUSH1 0x20 MUL PUSH1 0x20 ADD ADD DUP2 DUP2 MSTORE POP POP POP POP DUP1 DUP1 PUSH2 0x35CB SWAP1 PUSH2 0x402F JUMP JUMPDEST SWAP2 POP POP PUSH2 0x352B JUMP JUMPDEST PUSH1 0x0 DUP1 PUSH1 0x0 PUSH2 0x35E2 DUP6 DUP6 PUSH2 0x3794 JUMP JUMPDEST POP SWAP1 POP PUSH2 0x35F0 DUP7 DUP7 DUP7 PUSH2 0x319D JUMP JUMPDEST POP PUSH1 0x0 DUP1 PUSH2 0x35FF DUP9 DUP9 DUP9 PUSH2 0x319D JUMP JUMPDEST PUSH1 0x1 PUSH1 0x1 PUSH1 0xA0 SHL SUB AND PUSH4 0x902F1AC PUSH1 0x40 MLOAD DUP2 PUSH4 0xFFFFFFFF AND PUSH1 0xE0 SHL DUP2 MSTORE PUSH1 0x4 ADD PUSH1 0x60 PUSH1 0x40 MLOAD DUP1 DUP4 SUB DUP2 DUP7 DUP1 EXTCODESIZE ISZERO DUP1 ISZERO PUSH2 0x3637 JUMPI PUSH1 0x0 DUP1 REVERT JUMPDEST POP GAS STATICCALL ISZERO DUP1 ISZERO PUSH2 0x364B JUMPI RETURNDATASIZE PUSH1 0x0 DUP1 RETURNDATACOPY RETURNDATASIZE PUSH1 0x0 REVERT JUMPDEST POP POP POP POP PUSH1 0x40 MLOAD RETURNDATASIZE PUSH1 0x1F NOT PUSH1 0x1F DUP3 ADD AND DUP3 ADD DUP1 PUSH1 0x40 MSTORE POP DUP2 ADD SWAP1 PUSH2 0x366F SWAP2 SWAP1 PUSH2 0x3BF8 JUMP JUMPDEST POP PUSH1 0x1 PUSH1 0x1 PUSH1 0x70 SHL SUB AND SWAP2 POP PUSH1 0x1 PUSH1 0x1 PUSH1 0x70 SHL SUB AND SWAP2 POP DUP3 PUSH1 0x1 PUSH1 0x1 PUSH1 0xA0 SHL SUB AND DUP8 PUSH1 0x1 PUSH1 0x1 PUSH1 0xA0 SHL SUB AND EQ PUSH2 0x36A6 JUMPI DUP1 DUP3 PUSH2 0x36A9 JUMP JUMPDEST DUP2 DUP2 JUMPDEST SWAP1 SWAP10 SWAP1 SWAP9 POP SWAP7 POP POP POP POP POP POP POP JUMP JUMPDEST PUSH1 0x0 DUP1 DUP5 GT PUSH2 0x371B JUMPI PUSH1 0x40 MLOAD PUSH3 0x461BCD PUSH1 0xE5 SHL DUP2 MSTORE PUSH1 0x20 PUSH1 0x4 DUP3 ADD MSTORE PUSH1 0x29 PUSH1 0x24 DUP3 ADD MSTORE PUSH32 0x50616E63616B654C6962726172793A20494E53554646494349454E545F494E50 PUSH1 0x44 DUP3 ADD MSTORE PUSH9 0x155517D05353D55395 PUSH1 0xBA SHL PUSH1 0x64 DUP3 ADD MSTORE PUSH1 0x84 ADD PUSH2 0x1B8 JUMP JUMPDEST PUSH1 0x0 DUP4 GT DUP1 ISZERO PUSH2 0x372B JUMPI POP PUSH1 0x0 DUP3 GT JUMPDEST PUSH2 0x3747 JUMPI PUSH1 0x40 MLOAD PUSH3 0x461BCD PUSH1 0xE5 SHL DUP2 MSTORE PUSH1 0x4 ADD PUSH2 0x1B8 SWAP1 PUSH2 0x3E9C JUMP JUMPDEST PUSH1 0x0 PUSH2 0x3755 DUP6 PUSH2 0x26F7 PUSH2 0x3961 JUMP JUMPDEST SWAP1 POP PUSH1 0x0 PUSH2 0x3763 DUP3 DUP6 PUSH2 0x3961 JUMP JUMPDEST SWAP1 POP PUSH1 0x0 PUSH2 0x377D DUP4 PUSH2 0x3777 DUP9 PUSH2 0x2710 PUSH2 0x3961 JUMP JUMPDEST SWAP1 PUSH2 0x396D JUMP JUMPDEST SWAP1 POP PUSH2 0x3789 DUP2 DUP4 PUSH2 0x3FD7 JUMP JUMPDEST SWAP8 SWAP7 POP POP POP POP POP POP POP JUMP JUMPDEST PUSH1 0x0 DUP1 DUP3 PUSH1 0x1 PUSH1 0x1 PUSH1 0xA0 SHL SUB AND DUP5 PUSH1 0x1 PUSH1 0x1 PUSH1 0xA0 SHL SUB AND EQ ISZERO PUSH2 0x3805 JUMPI PUSH1 0x40 MLOAD PUSH3 0x461BCD PUSH1 0xE5 SHL DUP2 MSTORE PUSH1 0x20 PUSH1 0x4 DUP3 ADD MSTORE PUSH1 0x23 PUSH1 0x24 DUP3 ADD MSTORE PUSH32 0x50616E63616B654C6962726172793A204944454E544943414C5F414444524553 PUSH1 0x44 DUP3 ADD MSTORE PUSH3 0x534553 PUSH1 0xE8 SHL PUSH1 0x64 DUP3 ADD MSTORE PUSH1 0x84 ADD PUSH2 0x1B8 JUMP JUMPDEST DUP3 PUSH1 0x1 PUSH1 0x1 PUSH1 0xA0 SHL SUB AND DUP5 PUSH1 0x1 PUSH1 0x1 PUSH1 0xA0 SHL SUB AND LT PUSH2 0x3825 JUMPI DUP3 DUP5 PUSH2 0x3828 JUMP JUMPDEST DUP4 DUP4 JUMPDEST SWAP1 SWAP3 POP SWAP1 POP PUSH1 0x1 PUSH1 0x1 PUSH1 0xA0 SHL SUB DUP3 AND PUSH2 0x3883 JUMPI PUSH1 0x40 MLOAD PUSH3 0x461BCD PUSH1 0xE5 SHL DUP2 MSTORE PUSH1 0x20 PUSH1 0x4 DUP3 ADD MSTORE PUSH1 0x1C PUSH1 0x24 DUP3 ADD MSTORE PUSH32 0x50616E63616B654C6962726172793A205A45524F5F4144445245535300000000 PUSH1 0x44 DUP3 ADD MSTORE PUSH1 0x64 ADD PUSH2 0x1B8 JUMP JUMPDEST SWAP3 POP SWAP3 SWAP1 POP JUMP JUMPDEST PUSH1 0x0 DUP1 DUP5 GT PUSH2 0x38EE JUMPI PUSH1 0x40 MLOAD PUSH3 0x461BCD PUSH1 0xE5 SHL DUP2 MSTORE PUSH1 0x20 PUSH1 0x4 DUP3 ADD MSTORE PUSH1 0x2A PUSH1 0x24 DUP3 ADD MSTORE PUSH32 0x50616E63616B654C6962726172793A20494E53554646494349454E545F4F5554 PUSH1 0x44 DUP3 ADD MSTORE PUSH10 0x14155517D05353D55395 PUSH1 0xB2 SHL PUSH1 0x64 DUP3 ADD MSTORE PUSH1 0x84 ADD PUSH2 0x1B8 JUMP JUMPDEST PUSH1 0x0 DUP4 GT DUP1 ISZERO PUSH2 0x38FE JUMPI POP PUSH1 0x0 DUP3 GT JUMPDEST PUSH2 0x391A JUMPI PUSH1 0x40 MLOAD PUSH3 0x461BCD PUSH1 0xE5 SHL DUP2 MSTORE PUSH1 0x4 ADD PUSH2 0x1B8 SWAP1 PUSH2 0x3E9C JUMP JUMPDEST PUSH1 0x0 PUSH2 0x3932 PUSH2 0x2710 PUSH2 0x392C DUP7 DUP9 PUSH2 0x3961 JUMP JUMPDEST SWAP1 PUSH2 0x3961 JUMP JUMPDEST SWAP1 POP PUSH1 0x0 PUSH2 0x3946 PUSH2 0x26F7 PUSH2 0x392C DUP7 DUP10 PUSH2 0x3979 JUMP JUMPDEST SWAP1 POP PUSH2 0x3957 PUSH1 0x1 PUSH2 0x3777 DUP4 DUP6 PUSH2 0x3FD7 JUMP JUMPDEST SWAP7 SWAP6 POP POP POP POP POP POP JUMP JUMPDEST PUSH1 0x0 PUSH2 0x2EA1 DUP3 DUP5 PUSH2 0x3FF9 JUMP JUMPDEST PUSH1 0x0 PUSH2 0x2EA1 DUP3 DUP5 PUSH2 0x3FBF JUMP JUMPDEST PUSH1 0x0 PUSH2 0x2EA1 DUP3 DUP5 PUSH2 0x4018 JUMP JUMPDEST DUP1 CALLDATALOAD PUSH2 0x3990 DUP2 PUSH2 0x40A3 JUMP JUMPDEST SWAP2 SWAP1 POP JUMP JUMPDEST PUSH1 0x0 DUP1 DUP4 PUSH1 0x1F DUP5 ADD SLT PUSH2 0x39A7 JUMPI PUSH1 0x0 DUP1 REVERT JUMPDEST POP DUP2 CALLDATALOAD PUSH8 0xFFFFFFFFFFFFFFFF DUP2 GT ISZERO PUSH2 0x39BF JUMPI PUSH1 0x0 DUP1 REVERT JUMPDEST PUSH1 0x20 DUP4 ADD SWAP2 POP DUP4 PUSH1 0x20 DUP3 PUSH1 0x5 SHL DUP6 ADD ADD GT ISZERO PUSH2 0x3883 JUMPI PUSH1 0x0 DUP1 REVERT JUMPDEST PUSH1 0x0 DUP3 PUSH1 0x1F DUP4 ADD SLT PUSH2 0x39EB JUMPI PUSH1 0x0 DUP1 REVERT JUMPDEST DUP2 CALLDATALOAD PUSH1 0x20 PUSH8 0xFFFFFFFFFFFFFFFF DUP1 DUP4 GT ISZERO PUSH2 0x3A08 JUMPI PUSH2 0x3A08 PUSH2 0x408D JUMP JUMPDEST DUP3 PUSH1 0x5 SHL PUSH1 0x40 MLOAD PUSH1 0x1F NOT PUSH1 0x3F DUP4 ADD AND DUP2 ADD DUP2 DUP2 LT DUP5 DUP3 GT OR ISZERO PUSH2 0x3A2D JUMPI PUSH2 0x3A2D PUSH2 0x408D JUMP JUMPDEST PUSH1 0x40 MSTORE DUP5 DUP2 MSTORE DUP4 DUP2 ADD SWAP3 POP DUP7 DUP5 ADD DUP3 DUP9 ADD DUP6 ADD DUP10 LT ISZERO PUSH2 0x3A4C JUMPI PUSH1 0x0 DUP1 REVERT JUMPDEST PUSH1 0x0 SWAP3 POP JUMPDEST DUP6 DUP4 LT ISZERO PUSH2 0x3A76 JUMPI PUSH2 0x3A62 DUP2 PUSH2 0x3985 JUMP JUMPDEST DUP5 MSTORE SWAP3 DUP5 ADD SWAP3 PUSH1 0x1 SWAP3 SWAP1 SWAP3 ADD SWAP2 DUP5 ADD PUSH2 0x3A51 JUMP JUMPDEST POP SWAP8 SWAP7 POP POP POP POP POP POP POP JUMP JUMPDEST DUP1 MLOAD PUSH1 0x1 PUSH1 0x1 PUSH1 0x70 SHL SUB DUP2 AND DUP2 EQ PUSH2 0x3990 JUMPI PUSH1 0x0 DUP1 REVERT JUMPDEST PUSH1 0x0 PUSH1 0x20 DUP3 DUP5 SUB SLT ISZERO PUSH2 0x3AAB JUMPI PUSH1 0x0 DUP1 REVERT JUMPDEST DUP2 CALLDATALOAD PUSH2 0x2EA1 DUP2 PUSH2 0x40A3 JUMP JUMPDEST PUSH1 0x0 PUSH1 0x20 DUP3 DUP5 SUB SLT ISZERO PUSH2 0x3AC8 JUMPI PUSH1 0x0 DUP1 REVERT JUMPDEST DUP2 MLOAD PUSH2 0x2EA1 DUP2 PUSH2 0x40A3 JUMP JUMPDEST PUSH1 0x0 DUP1 PUSH1 0x40 DUP4 DUP6 SUB SLT ISZERO PUSH2 0x3AE6 JUMPI PUSH1 0x0 DUP1 REVERT JUMPDEST DUP3 CALLDATALOAD PUSH2 0x3AF1 DUP2 PUSH2 0x40A3 JUMP JUMPDEST SWAP5 PUSH1 0x20 SWAP4 SWAP1 SWAP4 ADD CALLDATALOAD SWAP4 POP POP POP JUMP JUMPDEST PUSH1 0x0 DUP1 PUSH1 0x0 PUSH1 0x60 DUP5 DUP7 SUB SLT ISZERO PUSH2 0x3B14 JUMPI PUSH1 0x0 DUP1 REVERT JUMPDEST DUP4 CALLDATALOAD PUSH2 0x3B1F DUP2 PUSH2 0x40A3 JUMP JUMPDEST SWAP3 POP PUSH1 0x20 DUP5 ADD CALLDATALOAD PUSH2 0x3B2F DUP2 PUSH2 0x40A3 JUMP JUMPDEST SWAP3 SWAP6 SWAP3 SWAP5 POP POP POP PUSH1 0x40 SWAP2 SWAP1 SWAP2 ADD CALLDATALOAD SWAP1 JUMP JUMPDEST PUSH1 0x0 DUP1 PUSH1 0x0 DUP1 PUSH1 0x0 PUSH1 0x80 DUP7 DUP9 SUB SLT ISZERO PUSH2 0x3B58 JUMPI PUSH1 0x0 DUP1 REVERT JUMPDEST DUP6 CALLDATALOAD PUSH2 0x3B63 DUP2 PUSH2 0x40A3 JUMP JUMPDEST SWAP5 POP PUSH1 0x20 DUP7 ADD CALLDATALOAD SWAP4 POP PUSH1 0x40 DUP7 ADD CALLDATALOAD SWAP3 POP PUSH1 0x60 DUP7 ADD CALLDATALOAD PUSH8 0xFFFFFFFFFFFFFFFF DUP1 DUP3 GT ISZERO PUSH2 0x3B8E JUMPI PUSH1 0x0 DUP1 REVERT JUMPDEST DUP2 DUP9 ADD SWAP2 POP DUP9 PUSH1 0x1F DUP4 ADD SLT PUSH2 0x3BA2 JUMPI PUSH1 0x0 DUP1 REVERT JUMPDEST DUP2 CALLDATALOAD DUP2 DUP2 GT ISZERO PUSH2 0x3BB1 JUMPI PUSH1 0x0 DUP1 REVERT JUMPDEST DUP10 PUSH1 0x20 DUP3 DUP6 ADD ADD GT ISZERO PUSH2 0x3BC3 JUMPI PUSH1 0x0 DUP1 REVERT JUMPDEST SWAP7 SWAP10 SWAP6 SWAP9 POP SWAP4 SWAP7 POP PUSH1 0x20 ADD SWAP5 SWAP4 SWAP3 POP POP POP JUMP JUMPDEST PUSH1 0x0 PUSH1 0x20 DUP3 DUP5 SUB SLT ISZERO PUSH2 0x3BE8 JUMPI PUSH1 0x0 DUP1 REVERT JUMPDEST DUP2 MLOAD DUP1 ISZERO ISZERO DUP2 EQ PUSH2 0x2EA1 JUMPI PUSH1 0x0 DUP1 REVERT JUMPDEST PUSH1 0x0 DUP1 PUSH1 0x0 PUSH1 0x60 DUP5 DUP7 SUB SLT ISZERO PUSH2 0x3C0D JUMPI PUSH1 0x0 DUP1 REVERT JUMPDEST PUSH2 0x3C16 DUP5 PUSH2 0x3A82 JUMP JUMPDEST SWAP3 POP PUSH2 0x3C24 PUSH1 0x20 DUP6 ADD PUSH2 0x3A82 JUMP JUMPDEST SWAP2 POP PUSH1 0x40 DUP5 ADD MLOAD PUSH4 0xFFFFFFFF DUP2 AND DUP2 EQ PUSH2 0x3C3D JUMPI PUSH1 0x0 DUP1 REVERT JUMPDEST DUP1 SWAP2 POP POP SWAP3 POP SWAP3 POP SWAP3 JUMP JUMPDEST PUSH1 0x0 PUSH1 0x20 DUP3 DUP5 SUB SLT ISZERO PUSH2 0x3C5A JUMPI PUSH1 0x0 DUP1 REVERT JUMPDEST POP MLOAD SWAP2 SWAP1 POP JUMP JUMPDEST PUSH1 0x0 DUP1 PUSH1 0x0 DUP1 PUSH1 0x0 DUP1 PUSH1 0xC0 DUP8 DUP10 SUB SLT ISZERO PUSH2 0x3C7A JUMPI PUSH1 0x0 DUP1 REVERT JUMPDEST DUP7 CALLDATALOAD SWAP6 POP PUSH1 0x20 DUP8 ADD CALLDATALOAD PUSH2 0x3C8C DUP2 PUSH2 0x40A3 JUMP JUMPDEST SWAP5 POP PUSH1 0x40 DUP8 ADD CALLDATALOAD PUSH8 0xFFFFFFFFFFFFFFFF DUP1 DUP3 GT ISZERO PUSH2 0x3CA9 JUMPI PUSH1 0x0 DUP1 REVERT JUMPDEST PUSH2 0x3CB5 DUP11 DUP4 DUP12 ADD PUSH2 0x39DA JUMP JUMPDEST SWAP6 POP PUSH1 0x60 DUP10 ADD CALLDATALOAD SWAP2 POP DUP1 DUP3 GT ISZERO PUSH2 0x3CCB JUMPI PUSH1 0x0 DUP1 REVERT JUMPDEST PUSH2 0x3CD7 DUP11 DUP4 DUP12 ADD PUSH2 0x39DA JUMP JUMPDEST SWAP5 POP PUSH1 0x80 DUP10 ADD CALLDATALOAD SWAP2 POP DUP1 DUP3 GT ISZERO PUSH2 0x3CED JUMPI PUSH1 0x0 DUP1 REVERT JUMPDEST POP PUSH2 0x3CFA DUP10 DUP3 DUP11 ADD PUSH2 0x39DA JUMP JUMPDEST SWAP3 POP POP PUSH1 0xA0 DUP8 ADD CALLDATALOAD SWAP1 POP SWAP3 SWAP6 POP SWAP3 SWAP6 POP SWAP3 SWAP6 JUMP JUMPDEST PUSH1 0x0 DUP1 PUSH1 0x0 DUP1 PUSH1 0x0 DUP1 PUSH1 0x0 DUP1 PUSH1 0x0 PUSH1 0xC0 DUP11 DUP13 SUB SLT ISZERO PUSH2 0x3D2C JUMPI PUSH1 0x0 DUP1 REVERT JUMPDEST DUP10 CALLDATALOAD SWAP9 POP PUSH1 0x20 DUP11 ADD CALLDATALOAD PUSH2 0x3D3E DUP2 PUSH2 0x40A3 JUMP JUMPDEST SWAP8 POP PUSH1 0x40 DUP11 ADD CALLDATALOAD PUSH8 0xFFFFFFFFFFFFFFFF DUP1 DUP3 GT ISZERO PUSH2 0x3D5B JUMPI PUSH1 0x0 DUP1 REVERT JUMPDEST PUSH2 0x3D67 DUP14 DUP4 DUP15 ADD PUSH2 0x3995 JUMP JUMPDEST SWAP1 SWAP10 POP SWAP8 POP PUSH1 0x60 DUP13 ADD CALLDATALOAD SWAP2 POP DUP1 DUP3 GT ISZERO PUSH2 0x3D80 JUMPI PUSH1 0x0 DUP1 REVERT JUMPDEST PUSH2 0x3D8C DUP14 DUP4 DUP15 ADD PUSH2 0x3995 JUMP JUMPDEST SWAP1 SWAP8 POP SWAP6 POP PUSH1 0x80 DUP13 ADD CALLDATALOAD SWAP2 POP DUP1 DUP3 GT ISZERO PUSH2 0x3DA5 JUMPI PUSH1 0x0 DUP1 REVERT JUMPDEST POP PUSH2 0x3DB2 DUP13 DUP3 DUP14 ADD PUSH2 0x3995 JUMP JUMPDEST SWAP11 SWAP14 SWAP10 SWAP13 POP SWAP8 SWAP11 SWAP7 SWAP10 SWAP6 SWAP9 SWAP5 SWAP8 SWAP7 PUSH1 0xA0 ADD CALLDATALOAD SWAP5 SWAP4 POP POP POP POP JUMP JUMPDEST PUSH1 0x0 DUP1 PUSH1 0x40 DUP4 DUP6 SUB SLT ISZERO PUSH2 0x3DDF JUMPI PUSH1 0x0 DUP1 REVERT JUMPDEST POP POP DUP1 MLOAD PUSH1 0x20 SWAP1 SWAP2 ADD MLOAD SWAP1 SWAP3 SWAP1 SWAP2 POP JUMP JUMPDEST PUSH1 0x0 DUP1 PUSH1 0x0 PUSH1 0x60 DUP5 DUP7 SUB SLT ISZERO PUSH2 0x3E05 JUMPI PUSH1 0x0 DUP1 REVERT JUMPDEST DUP4 MLOAD SWAP3 POP PUSH1 0x20 DUP5 ADD MLOAD SWAP2 POP PUSH1 0x40 DUP5 ADD MLOAD SWAP1 POP SWAP3 POP SWAP3 POP SWAP3 JUMP JUMPDEST DUP2 DUP4 MSTORE PUSH1 0x0 PUSH1 0x20 DUP1 DUP6 ADD SWAP5 POP DUP3 PUSH1 0x0 JUMPDEST DUP6 DUP2 LT ISZERO PUSH2 0x3E5C JUMPI DUP2 CALLDATALOAD PUSH2 0x3E41 DUP2 PUSH2 0x40A3 JUMP JUMPDEST PUSH1 0x1 PUSH1 0x1 PUSH1 0xA0 SHL SUB AND DUP8 MSTORE SWAP6 DUP3 ADD SWAP6 SWAP1 DUP3 ADD SWAP1 PUSH1 0x1 ADD PUSH2 0x3E2E JUMP JUMPDEST POP SWAP5 SWAP6 SWAP5 POP POP POP POP POP JUMP JUMPDEST PUSH1 0x20 DUP1 DUP3 MSTORE DUP2 DUP2 ADD MSTORE PUSH32 0x4F776E61626C653A2063616C6C6572206973206E6F7420746865206F776E6572 PUSH1 0x40 DUP3 ADD MSTORE PUSH1 0x60 ADD SWAP1 JUMP JUMPDEST PUSH1 0x20 DUP1 DUP3 MSTORE PUSH1 0x26 SWAP1 DUP3 ADD MSTORE PUSH32 0x50616E63616B654C6962726172793A20494E53554646494349454E545F4C4951 PUSH1 0x40 DUP3 ADD MSTORE PUSH6 0x554944495459 PUSH1 0xD0 SHL PUSH1 0x60 DUP3 ADD MSTORE PUSH1 0x80 ADD SWAP1 JUMP JUMPDEST DUP10 DUP2 MSTORE PUSH1 0x1 PUSH1 0x1 PUSH1 0xA0 SHL SUB DUP10 AND PUSH1 0x20 DUP3 ADD MSTORE PUSH1 0xC0 PUSH1 0x40 DUP3 ADD DUP2 SWAP1 MSTORE PUSH1 0x0 SWAP1 PUSH2 0x3F0D SWAP1 DUP4 ADD DUP10 DUP12 PUSH2 0x3E1E JUMP JUMPDEST DUP3 DUP2 SUB PUSH1 0x60 DUP5 ADD MSTORE PUSH2 0x3F20 DUP2 DUP9 DUP11 PUSH2 0x3E1E JUMP JUMPDEST SWAP1 POP DUP3 DUP2 SUB PUSH1 0x80 DUP5 ADD MSTORE PUSH2 0x3F35 DUP2 DUP7 DUP9 PUSH2 0x3E1E JUMP JUMPDEST SWAP2 POP POP DUP3 PUSH1 0xA0 DUP4 ADD MSTORE SWAP11 SWAP10 POP POP POP POP POP POP POP POP POP POP JUMP JUMPDEST DUP5 DUP2 MSTORE PUSH1 0x0 PUSH1 0x20 DUP6 DUP2 DUP5 ADD MSTORE PUSH1 0x1 DUP1 PUSH1 0xA0 SHL SUB DUP6 AND PUSH1 0x40 DUP5 ADD MSTORE PUSH1 0x80 PUSH1 0x60 DUP5 ADD MSTORE DUP4 MLOAD DUP1 PUSH1 0x80 DUP6 ADD MSTORE PUSH1 0x0 JUMPDEST DUP2 DUP2 LT ISZERO PUSH2 0x3F94 JUMPI DUP6 DUP2 ADD DUP4 ADD MLOAD DUP6 DUP3 ADD PUSH1 0xA0 ADD MSTORE DUP3 ADD PUSH2 0x3F78 JUMP JUMPDEST DUP2 DUP2 GT ISZERO PUSH2 0x3FA6 JUMPI PUSH1 0x0 PUSH1 0xA0 DUP4 DUP8 ADD ADD MSTORE JUMPDEST POP PUSH1 0x1F ADD PUSH1 0x1F NOT AND SWAP3 SWAP1 SWAP3 ADD PUSH1 0xA0 ADD SWAP7 SWAP6 POP POP POP POP POP POP JUMP JUMPDEST PUSH1 0x0 DUP3 NOT DUP3 GT ISZERO PUSH2 0x3FD2 JUMPI PUSH2 0x3FD2 PUSH2 0x4061 JUMP JUMPDEST POP ADD SWAP1 JUMP JUMPDEST PUSH1 0x0 DUP3 PUSH2 0x3FF4 JUMPI PUSH4 0x4E487B71 PUSH1 0xE0 SHL PUSH1 0x0 MSTORE PUSH1 0x12 PUSH1 0x4 MSTORE PUSH1 0x24 PUSH1 0x0 REVERT JUMPDEST POP DIV SWAP1 JUMP JUMPDEST PUSH1 0x0 DUP2 PUSH1 0x0 NOT DIV DUP4 GT DUP3 ISZERO ISZERO AND ISZERO PUSH2 0x4013 JUMPI PUSH2 0x4013 PUSH2 0x4061 JUMP JUMPDEST POP MUL SWAP1 JUMP JUMPDEST PUSH1 0x0 DUP3 DUP3 LT ISZERO PUSH2 0x402A JUMPI PUSH2 0x402A PUSH2 0x4061 JUMP JUMPDEST POP SUB SWAP1 JUMP JUMPDEST PUSH1 0x0 DUP2 PUSH2 0x403E JUMPI PUSH2 0x403E PUSH2 0x4061 JUMP JUMPDEST POP PUSH1 0x0 NOT ADD SWAP1 JUMP JUMPDEST PUSH1 0x0 PUSH1 0x0 NOT DUP3 EQ ISZERO PUSH2 0x405A JUMPI PUSH2 0x405A PUSH2 0x4061 JUMP JUMPDEST POP PUSH1 0x1 ADD SWAP1 JUMP JUMPDEST PUSH4 0x4E487B71 PUSH1 0xE0 SHL PUSH1 0x0 MSTORE PUSH1 0x11 PUSH1 0x4 MSTORE PUSH1 0x24 PUSH1 0x0 REVERT JUMPDEST PUSH4 0x4E487B71 PUSH1 0xE0 SHL PUSH1 0x0 MSTORE PUSH1 0x32 PUSH1 0x4 MSTORE PUSH1 0x24 PUSH1 0x0 REVERT JUMPDEST PUSH4 0x4E487B71 PUSH1 0xE0 SHL PUSH1 0x0 MSTORE PUSH1 0x41 PUSH1 0x4 MSTORE PUSH1 0x24 PUSH1 0x0 REVERT JUMPDEST PUSH1 0x1 PUSH1 0x1 PUSH1 0xA0 SHL SUB DUP2 AND DUP2 EQ PUSH2 0x26DD JUMPI PUSH1 0x0 DUP1 REVERT INVALID LOG2 PUSH5 0x6970667358 0x22 SLT KECCAK256 0xD0 EXTCODESIZE DUP9 0xBC SIGNEXTEND ADD CALLER SHR DUP14 ADDRESS DUP9 CALLDATASIZE 0xD2 0xDE 0xAE CALL PUSH29 0x32F97FBED1E663142EE285DF841BC464736F6C63430008070033000000 "
		},
		"gasEstimates": {
			"creation": {
				"codeDepositCost": "3324400",
				"executionCost": "29540",
				"totalCost": "3353940"
			},
			"external": {
				"owner()": "2292",
				"pancakeCall(address,uint256,uint256,bytes)": "infinite",
				"qingsuan(uint256,address,address[],address[],address[],uint256)": "infinite",
				"renounceOwnership()": "28137",
				"swapOneBNBToFlashLoandUnderlyingToken(address)": "infinite",
				"transferOwnership(address)": "infinite",
				"withdraw(address,address,uint256)": "infinite",
				"withdrawETH(address,uint256)": "infinite"
			},
			"internal": {
				"_swap(uint256[] memory,address[] memory,address)": "infinite",
				"chainSwapExactIn(uint256,address[] memory,address)": "infinite",
				"chainSwapExactOut(uint256,address[] memory,address)": "infinite",
				"getSeizedUnderlyingToken(address,address,uint256)": "infinite",
				"getSeizedVToken(address,address,address,uint256)": "infinite",
				"isStableCoin(address)": "141",
				"isVAI(address)": "infinite",
				"isVBNB(address)": "infinite"
			}
		},
		"methodIdentifiers": {
			"owner()": "8da5cb5b",
			"pancakeCall(address,uint256,uint256,bytes)": "84800812",
			"qingsuan(uint256,address,address[],address[],address[],uint256)": "b14e9a72",
			"renounceOwnership()": "715018a6",
			"swapOneBNBToFlashLoandUnderlyingToken(address)": "89c33748",
			"transferOwnership(address)": "f2fde38b",
			"withdraw(address,address,uint256)": "d9caed12",
			"withdrawETH(address,uint256)": "4782f779"
		}
	},
	"abi": [
		{
			"anonymous": false,
			"inputs": [
				{
					"indexed": false,
					"internalType": "uint256",
					"name": "",
					"type": "uint256"
				},
				{
					"indexed": false,
					"internalType": "uint256",
					"name": "",
					"type": "uint256"
				}
			],
			"name": "NotEnoughSeizedUnderlygingAmount",
			"type": "event"
		},
		{
			"anonymous": false,
			"inputs": [
				{
					"indexed": true,
					"internalType": "address",
					"name": "previousOwner",
					"type": "address"
				},
				{
					"indexed": true,
					"internalType": "address",
					"name": "newOwner",
					"type": "address"
				}
			],
			"name": "OwnershipTransferred",
			"type": "event"
		},
		{
			"anonymous": false,
			"inputs": [
				{
					"indexed": false,
					"internalType": "uint256",
					"name": "",
					"type": "uint256"
				},
				{
					"indexed": false,
					"internalType": "uint256",
					"name": "",
					"type": "uint256"
				}
			],
			"name": "Qingsuan",
			"type": "event"
		},
		{
			"anonymous": false,
			"inputs": [
				{
					"indexed": false,
					"internalType": "uint256",
					"name": "scenarioNo",
					"type": "uint256"
				},
				{
					"indexed": false,
					"internalType": "address",
					"name": "repayUnderlyingToken",
					"type": "address"
				},
				{
					"indexed": false,
					"internalType": "uint256",
					"name": "repayAmount",
					"type": "uint256"
				},
				{
					"indexed": false,
					"internalType": "address",
					"name": "seizedUnderlyingToken",
					"type": "address"
				},
				{
					"indexed": false,
					"internalType": "uint256",
					"name": "flashLoanReturnAmount",
					"type": "uint256"
				},
				{
					"indexed": false,
					"internalType": "uint256",
					"name": "seizedUnderlyingAmount",
					"type": "uint256"
				},
				{
					"indexed": false,
					"internalType": "uint256",
					"name": "massProfit",
					"type": "uint256"
				}
			],
			"name": "Scenario",
			"type": "event"
		},
		{
			"anonymous": false,
			"inputs": [
				{
					"indexed": false,
					"internalType": "uint256",
					"name": "",
					"type": "uint256"
				},
				{
					"indexed": false,
					"internalType": "uint256",
					"name": "",
					"type": "uint256"
				}
			],
			"name": "SeizedUnderlyingTokenAmount",
			"type": "event"
		},
		{
			"anonymous": false,
			"inputs": [
				{
					"indexed": false,
					"internalType": "uint256",
					"name": "",
					"type": "uint256"
				},
				{
					"indexed": false,
					"internalType": "uint256",
					"name": "",
					"type": "uint256"
				},
				{
					"indexed": false,
					"internalType": "uint256",
					"name": "",
					"type": "uint256"
				}
			],
			"name": "SeizedVTokenAmount",
			"type": "event"
		},
		{
			"anonymous": false,
			"inputs": [
				{
					"indexed": true,
					"internalType": "address",
					"name": "",
					"type": "address"
				},
				{
					"indexed": true,
					"internalType": "address",
					"name": "",
					"type": "address"
				},
				{
					"indexed": false,
					"internalType": "uint256",
					"name": "",
					"type": "uint256"
				}
			],
			"name": "Withdraw",
			"type": "event"
		},
		{
			"anonymous": false,
			"inputs": [
				{
					"indexed": true,
					"internalType": "address",
					"name": "",
					"type": "address"
				},
				{
					"indexed": false,
					"internalType": "uint256",
					"name": "",
					"type": "uint256"
				}
			],
			"name": "WithdrawETH",
			"type": "event"
		},
		{
			"inputs": [],
			"name": "owner",
			"outputs": [
				{
					"internalType": "address",
					"name": "",
					"type": "address"
				}
			],
			"stateMutability": "view",
			"type": "function"
		},
		{
			"inputs": [
				{
					"internalType": "address",
					"name": "_sender",
					"type": "address"
				},
				{
					"internalType": "uint256",
					"name": "_amount0",
					"type": "uint256"
				},
				{
					"internalType": "uint256",
					"name": "_amount1",
					"type": "uint256"
				},
				{
					"internalType": "bytes",
					"name": "_data",
					"type": "bytes"
				}
			],
			"name": "pancakeCall",
			"outputs": [],
			"stateMutability": "nonpayable",
			"type": "function"
		},
		{
			"inputs": [
				{
					"internalType": "uint256",
					"name": "_situation",
					"type": "uint256"
				},
				{
					"internalType": "address",
					"name": "_flashLoanFrom",
					"type": "address"
				},
				{
					"internalType": "address[]",
					"name": "_path1",
					"type": "address[]"
				},
				{
					"internalType": "address[]",
					"name": "_path2",
					"type": "address[]"
				},
				{
					"internalType": "address[]",
					"name": "_tokens",
					"type": "address[]"
				},
				{
					"internalType": "uint256",
					"name": "_flashLoanAmount",
					"type": "uint256"
				}
			],
			"name": "qingsuan",
			"outputs": [],
			"stateMutability": "nonpayable",
			"type": "function"
		},
		{
			"inputs": [],
			"name": "renounceOwnership",
			"outputs": [],
			"stateMutability": "nonpayable",
			"type": "function"
		},
		{
			"inputs": [
				{
					"internalType": "address",
					"name": "_flashLoanUnderlyingToken",
					"type": "address"
				}
			],
			"name": "swapOneBNBToFlashLoandUnderlyingToken",
			"outputs": [],
			"stateMutability": "nonpayable",
			"type": "function"
		},
		{
			"inputs": [
				{
					"internalType": "address",
					"name": "newOwner",
					"type": "address"
				}
			],
			"name": "transferOwnership",
			"outputs": [],
			"stateMutability": "nonpayable",
			"type": "function"
		},
		{
			"inputs": [
				{
					"internalType": "address",
					"name": "_token",
					"type": "address"
				},
				{
					"internalType": "address",
					"name": "_to",
					"type": "address"
				},
				{
					"internalType": "uint256",
					"name": "_amount",
					"type": "uint256"
				}
			],
			"name": "withdraw",
			"outputs": [],
			"stateMutability": "nonpayable",
			"type": "function"
		},
		{
			"inputs": [
				{
					"internalType": "address payable",
					"name": "_to",
					"type": "address"
				},
				{
					"internalType": "uint256",
					"name": "_amount",
					"type": "uint256"
				}
			],
			"name": "withdrawETH",
			"outputs": [],
			"stateMutability": "nonpayable",
			"type": "function"
		},
		{
			"stateMutability": "payable",
			"type": "receive"
		}
	]
}